:4000000000800020110000006D2F00006D2F000008B5044B1A6803F53F5302331A6002F0C5FF00BFFA46004010B5054C237833B9044B13B10448AFF300800123237010BD79
:40004000F884FF1F000000008CBE0000084B10B51BB108480849AFF300800848036803B910BD074B002BFBD0BDE81040184700BF000000008CBE0000FC84FF1F0881FF1FC7
:400080000000000080B562B601F014FF01F0C4FE00F094FE00F0A4FE00F0A4FE00F0AEFE01F028F800F0AAFD00F0E0FB01F0B4FC00F050FF01F0DAF901F08EFB01F0DCFAA2
:4000C00001F0FAFE01F0AAFE01F026F800F09EFD00F0EAFB01F0A6FC00F062FF01F0D2F901F0B8FB01F0D2FA254C264D0FCD20606160A260E36007CD20616161A2612B780B
:400100002377204601F0AAFE1F4D05F120072E460FCE20606160A260E36035461034BE42F5D103CD20606160154C204601F096FE164D05F120072E460FCE20606160A260D0
:40014000E36035461034BE42F5D1337823700C4801F084FE012003F019FC00F059FD00F02FFF01F091FB01F093FA00F049FE00F0A5FB01F069FE002003F008FCEAE700BF64
:400180008C8AFF1F90BE0000B0BE0000D8BE0000014B1868704700BF1485FF1F014B5868704700BF1485FF1F10B50E4801F056FE0D4801F053FE0D4801F050FE0C4801F0B7
:4001C0004DFE0C4801F04AFE0B4C204601F046FE0A4801F043FE204601F040FE084801F03DFE10BDFCBE000030BF000064BF0000ACBF000008C00000ACC8000064C000003C
:4002000084C0000010B5164801F028FE154801F025FE154801F022FE144801F01FFE144801F01CFE134801F019FE134801F016FE124801F013FE124801F010FE114801F0CE
:400240000DFE114C204601F009FE104801F006FE204601F003FE0E4801F000FE10BD00BF9CC00000D0C0000004C100004CC10000C0C1000034C20000A8C200001CC30000C4
:4002800094C3000010C40000ACC800008CC40000ACC4000008B50022054B1A8010B9FFF783FF08BD012801D1FFF7ACFF08BD00BF848AFF1F10B5104801F0D0FD0F4801F0A1
:4002C000CDFD0F4801F0CAFD0E4801F0C7FD0E4801F0C4FD0D4801F0C1FD0D4C204601F0BDFD0C4801F0BAFD204601F0B7FD0A4801F0B4FD10BD00BFC4C40000F0C40000E1
:400300001CC500003CC5000060C500008CC50000ACC800008CC40000A4C5000010B590B044780378074A02EB83036846064952F824209B6808F040FB684601F08FFD10B08C
:4003400010BD00BF0C81FF1FBCC5000010B504460378042B42D8DFE803F0030F1B293500836840786168984710B90123237010BD2046FFF7D3FF10BDC3684078616898478F
:4003800010B90223237010BD2046FFF7C7FF10BD0369407861689847012802D10323237010BD10B32046FFF7B9FF10BD436940786168984710B90423237010BD2046FFF756
:4003C000ADFF10BD836940786168984710B90523237010BD2046FFF7A1FF10BD034B00229A60DA604078FFF755FF10BD1485FF1F08B5034801F032FD024801F02FFD08BDA0
:40040000E4C5000018C6000008B501F037FDA0F14303352B23D8DFE803F0211D22222222222222222222222222222222221B221F22222222222222222222211D2222222271
:40044000222222222222222222222222221B221F762008BD732008BD782008BD632008BD08B532280BD0332811D0312817D101F013FD0C4B1A6800211170186808BD01F0ED
:400480000BFD094B1A6800211170186808BD01F003FD064B1A6800211170186808BD002008BD00BF948BFF1F908BFF1FB48BFF1F08B5A0F13103072B00F28480DFE803F0F1
:4004C000041220304050607101F0E6FC3E4801F0C5FC3E4B1A68012151701A6800211170186808BD01F0D8FC394801F0B7FC394B1A68012151701A6800211170186808BD97
:4005000001F0CAFC344801F0A9FC324B1A6801215170196800220A7018684368DA7108BD01F0BAFC2D4801F099FC2A4B196801224A7019680020087018684368DA7108BDEF
:4005400001F0AAFC264801F089FC264B1A6801215170196800220A7018684368DA7108BD01F09AFC204801F079FC1E4B196801224A7019680020087018684368DA7108BD62
:4005800001F08AFC194801F069FC194B1A6801215170196800220A70196849680A70186808BD01F079FC134801F058FC104B196801224A70196800200870196849680A70B2
:4005C000186808BD002008BD6CC60000B88BFF1FBCC60000BC8BFF1F14C7000054C7000094C70000988BFF1FD4C7000014C80000B08BFF1F58C8000070B584B00C46002109
:400600008DF80F108DF80E1058B3164605460DF10E02009221461A460DF10F0301F0B2FA9DF80F309DF80E0034F9231034F9202036F8133036F81000009028B201F0CAFA9B
:4006400080B2A0F5FA639BB24FF62F02934205D9B0F57A7F38BF4FF47A7004E04FF4FA6001E040F2DC5004B070BD00BF10B50446084A1368188880B220EA040019881880C9
:40068000118881F4004101F07FFC204600F01AFE10BD00BF8C8BFF1F10B50446064B1968088880B2A1F50041204389B201F06CFC204600F0EBFD10BD8C8BFF1F70B59EB02C
:4006C00003460E461546684612491A4608F074F9684601F0C3FB00240CE005A80E4956F8242035F8143008F067F905A801F0B6FB0134E4B2312CF0D905A8084956F8242098
:4007000035F8143008F058F905A801F0A7FB1EB070BD00BFC4CA00009CC80000A4C80000F0B59DB007460C46086809A9032201F0D7F906AE60683146032201F0D1F903AD8B
:40074000A0682946032201F0CBF9009601950CA804493A4609AB08F02FF90CA801F07EFB1DB0F0BDB0C8000038B5A0F13103032B63D8DFE803F00222425801F08DFB2F4814
:4007800001F06CFB2E4C204601F068FB2D4D2A682D4802F5CA7102F51872FFF78FFF2A682A4802F1540102F59072FFF787FF204601F054FBFFF77EFD38BD01F06DFB244863
:4007C00001F04CFB1E4C204601F048FB1D4D2A68204802F2144102F59C62FFF76FFF2A681D4802F5357102F56872FFF767FF204601F034FBFFF75EFD38BD01F04DFB174892
:4008000001F02CFB0E4801F029FB0E4C216814480831FFF785FF216812481831FFF780FFFFF748FD38BD01F037FB0F4801F016FB034801F013FBFFF73DFD38BDCCC80000F3
:40084000ACC800008C8BFF1F08C9000018C9000028C9000068C9000078C9000088C90000B0C90000BCC90000C8C9000008B5084A084B1A60084A094B1A60094A094B1A60BD
:4008800002F09EF901F058FE02F068FB08BD00BF008000408C8BFF1F91010000808AFF1F9D010000888AFF1F08B5034B1B68188880B200F025FD08BD8C8BFF1F10B5FFF7EB
:4008C000A3FD0446314B1B7C042B5BD8DFE803F0031B3249510073280FD0762807D0632853D1FFF761FC0122284B1A7410BDFFF789FC0222254B1A7410BDFFF7DBFC0322B7
:40090000224B1A7410BD214B9B681BB9FFF7A8FD1E4B98601D4B9B6833B1012000F048FA1A4B9868FFF712FD782C2ED10422174B1A7410BD154BDB681BB9FFF7B9FD134B9D
:40094000D860124BDB6833B1012000F031FA0F4BD868FFF7FBFC782C17D104220B4B1A7410BDFFF701FF782C0FD10422074B1A7410BDFFF73DFD002000F01AFA0022034B84
:400980001A7410BD0022014B1A7410BD1485FF1F30B583B0002401F057FA01F06FFA054601F07AFAA5F13003DBB2092B01D92E2D05D102AB234403F8085C0134E4B2042CD1
:4009C000E9D900238DF80530684607F0B9F906F051FE03B030BD00BF014B1868083070478C8BFF1F014B1868183070478C8BFF1F014B1860596070471485FF1FF8B5224B68
:400A00001B681B8813F0010F2ED006460D464FF001040846002107F047F908B94FF00004E0B280F0010000EB4600184B53F8204067682668A06806F027FF294606F078FF53
:400A400007F03CF9B042B8BF3046B842A8BF384606F01AFF07F032F904F10C0104F1D8023323FFF7C9FDF8BD094B5B7C43B9094801F0F4F90122064B5A7440F2DC50F8BD18
:400A800040F2DC50F8BD00BF8C8BFF1FA08BFF1F1485FF1FF0C9000008B50120FFF7E6FD0220FFF7E3FD08BD2DE9F04F85B080460F4614469A46DDF838B085001846002162
:400AC0002A4607F0A3F9584600212A4607F09EF918F0010F00F08D80474B1D682B8813F0010F00F08680E86C2B6D90FBF3F006F0CBFE0190D5F8CC02D5F8D03290FBF3F0CC
:400B000006F0C2FE0646D5F88801D5F8903190FBF3F006F0B9FE8146D5F80804D5F8103490FBF3F006F0B0FE05460198314607F09DF800B1019E4846294607F0B5F800B168
:400B40004D463046394606F0F3FE81463046214606F0EEFE06462846394606F0E9FE01902846214606F0E4FE07464FEA58043046494606F0D3FD0290204606F085FE0546C3
:400B80000298294606F088FF02903846019906F0C5FD294606F080FF03904AF824604BF82470002510E04AF82590019B4BF825304846029906F0B4FD81460198039906F037
:400BC000AFFD01900135EDB2A542ECD30FE04AF824604BF824703046029906F09FFD06463846039906F09AFD07460134E4B24445EDD305B0BDE8F08F8C8BFF1F014A024B14
:400C00001A607047F11100002885FF1F704700BFD0B582B000F08CFA044610F0010F01D000F08CFC04F002039BB20BB100F062FD04F00404A4B20CB1FFF72EFF524B1B79BC
:400C40000BB900F08BFA50490B6801F108000C3101AA984742F21073019A9A4204D94A4B00229A60DA6042E0474B9C68204606F0EBF906460F4640A3D3E9002306F0AAFC81
:400C800038B1304639463EA3D3E9002306F0A2FC48B93046394638A3D3E9002306F09AFC10B93A4C00E03A4C374B9C60DC68204606F0CAF906460F462FA3D3E9002306F0E8
:400CC00089FC38B1304639462DA3D3E9002306F081FC48B93046394627A3D3E9002306F079FC10B9294C00E0294C274BDC60264B9C68204606F0A8F906460F461EA3D3E994
:400D0000002306F067FC38B1304639461CA3D3E9002306F05FFC48B93046394616A3D3E9002306F057FC10B9184C00E0184C164B9C60DC68204606F087F906460F460EA353
:400D4000D3E9002306F046FC38B1304639460CA3D3E9002306F03EFC48B93046394606A3D3E9002306F036FC10B9084C00E0084C054BDC6002B0D0BDBB3CC3451442E83F82
:400D8000BB3CC3451442E8BF2885FF1FA210423FA21042BFAFF30080014B9868704700BF2885FF1F014BD868704700BF2885FF1F014B1871704700BF2885FF1F08B50648E9
:400DC00000214FF4807207F021F8044A138843F07F03138008BD00BF8C8AFF1F848AFF1F704700BF08B5002002F0D0FD00F030FE014B186008BD00BF3885FF1F704700BFAF
:400E000008B500F025FE0A4A1368C01A506006F0F9F80022074B06F0FBFB40B100F018FE034B18609868421C9A6000F0CDFA08BD3885FF1F00407F40F8B504460E46436BDE
:400E40009847A060E368C31A2361E06004F12405184606F019FD0146284600F017FE60611D4906F065FD0546304606F009FD0146284606F011FE014604F12C0000F006FE13
:400E8000A06106F0E1F810A3D3E9002306F030F906F0F0FBE061606906F0D6F80CA3D3E9002306F025F900220C4B06F04BFA06460F46206A06F0C8F832463B4605F066FF78
:400EC00006F0D8FB2062F8BD4C2438F292602F3F72D38A804FA4DE3F00007A4400409F4030B593B0044680690FA9032200F0F8FD60690CA9032200F0F3FDE06909A90322FC
:400F000000F0EEFD206A06A9032200F0E9FD0E4B1B8813F0030F14D00C4D0FAB009309AB01930CAB02932369039306AB049328464FF48071064A234607F00CFD284600F050
:400F40008DFF13B030BD00BF848AFF1F8C8AFF1F7CCA000010B40F4B00219960D960196100225A611A629A620B4C5C621A630B48D8629A61DA6159649964D9641A65DA6586
:400F80005A661C66DA6698665A659A655DF8044B704700BF2C81FF1F0000A0410000204110B502F049FF02F02FFE044CA36B00209847636F0020984710BD00BF2C81FF1F29
:400FC00038B500F045FD1A4A1368C01A506006F019F80022174B06F011FB38B300F038FD134B18601B7A2BB90122114B1A72072002F020FA104D0E4C28466168FFF71CFF40
:4010000005F13C006168FFF717FF0C4B1B8813F0010F02D02846FFF763FF084B1B8803F002039BB213B10648FFF75AFF38BD00BF4485FF1F000049402C81FF1F848AFF1F4D
:401040006881FF1F014B9869704700BF2C81FF1F014B586D704700BF2C81FF1F014BD869704700BF2C81FF1F014B986D704700BF2C81FF1F014B186A704700BF2C81FF1F1A
:40108000014BD86D704700BF2C81FF1F70B5164CA36B002098470026E660266100256561A562A561E5612563A6602562636F30469847A664E664256565666565A565E56695
:4010C0006664E565094B1B8813F0010F02D02046FFF706FF054B1B8803F002039BB213B10348FFF7FDFE70BD2C81FF1F848AFF1F6881FF1F10B5074C20460021A82206F0DD
:4011000085FE0023A4F8A830A4F8AA30A4F8AC3010BD00BF5085FF1F08B502F00BFBA8200C21024A02F028FB08BD00BF5085FF1F08B502F00DFB0028FBD14FF40043044A27
:401140001360044A108800211180034A136008BD80E100E05085FF1F00E100E008B502F0F7FA0028FBD14FF400431D4A13601D4A51881D480360B2F8AC3023EA01030B4309
:40118000A2F8AC300021194A118013F0010F01D00321118003F0020292B222B113490A8842F00C020A8003F0040292B222B10F490A8842F030020A8003F0080292B222B149
:4011C0000A490A8842F040020A8003F010039BB223B1064A138843F08003138008BD00BF80E100E05085FF1F00E100E0848AFF1FF0B597B007460E46154602F0A9FA10F08F
:40120000020F17D01D4C0023C4F8B03060686946032200F065FCA06803A9032200F060FC06A817496A4603AB07F0C6FB06A800F015FE0EE000F00CFC104CD4F8B430C01ADB
:40124000D4F8B0300344C4F8B03000F001FCC4F8B40002F07DFA0028FBD14FF40042094B1A60064B596839609968316006490A60D3F8B0302B6017B0F0BD00BF5085FF1F80
:4012800098CA000080E100E000E100E008B50A4AB2F8AA301843A2F8AA0002F059FA0028FBD14FF40043054A1360034AB2F8AA10D181034A136008BD5085FF1F80E100E059
:4012C00000E100E008B50B4AB2F8AA3023EA0000A2F8AA0002F03CFA0028FBD14FF40043054A1360034AB2F8AA10D181034A136008BD00BF5085FF1F80E100E000E100E0A6
:4013000008B5094BA3F8AA0002F022FA0028FBD14FF40043054A1360034AB2F8AA10D181034A136008BD00BF5085FF1F80E100E000E100E0F8B507460E4615461C4602F0D4
:4013400007FA0028FBD14FF400431C4A13601C4A17611C4A136002F0FBF90028FBD14FF40043164A1360164A5661164A136002F0EFF90028FBD14FF40043104A1360104ACA
:401380009561104A136002F0E3F90028FBD14FF400430A4A13600A4AD4610A4A136002F0D7F90028FBD14FF40043044A1360044A06991162034A1360F8BD00BF80E100E039
:4013C0005085FF1F00E100E010B5044602F0C0F90028FBD14FF40043034A1360034AC2F8A440034A136010BD80E100E05085FF1F00E100E038B505460C46836998471A4B1E
:40140000188040F2DC5398422CD0C0F5BB60043080B2154B588004EB8401490010F4004F02D003B25B4200E003B2B1FBF3F10E4B596000B2002801DD0A2201E04FF6F67292
:40144000094B1A81084C20882389184480B220806B699847606801F0EDFF228840F2DC539A42EFD138BD00BF0886FF1F10B5044CA36801209847636A0120984710BD00BFCF
:40148000A481FF1F10B50A4CA36800209847E3689847636940F2DC509847636A00209847A36A9847236B40F2DC50984710BD00BFA481FF1F08B5A0F5FA639BB24FF62F02CD
:4014C000934205D9B0F57A7F38BF4FF47A7001E04FF4FA60014B5B69984708BDA481FF1F08B5A0F5FA639BB24FF62F02934205D9B0F57A7F38BF4FF47A7001E04FF4FA609D
:40150000014B1B6B984708BDA481FF1F10B50C46FFF7D0FF2046FFF7E3FF10BD08B5024B9B69984708BD00BFA481FF1F08B5024B5B6B984708BD00BFA481FF1F10B50A4CC6
:40154000636940F2DC509847236B40F2DC50984723699847E36A9847A36801209847636A0120984710BD00BFA481FF1F08B501460148FFF73FFF08BDA481FF1F08B50146CC
:401580000148FFF737FF08BDC081FF1F0000000070B5FFF763FD164C2060FFF765FD6060FFF768FD0646FFF76BFD05463046294606F0B4F805F048FD0BA3D3E9002305F08A
:4015C000C1FE06F057F8A0603046E16806F0A6F820612846616906F0A1F8A061E660656170BD00BFAFF30080986E1283C0CAD93F1486FF1FAFF3008010B594B01A4C206823
:4016000011A9032200F06CFA60680EA9032200F067FA20690BA9032200F062FAA06908A9032200F05DFAA06805A9032200F058FA0E4B1B8803F040039BB293B10C4C0EABBB
:4016400000930BAB019308AB029305AB039320464FF48071074A11AB07F07CF9204600F0FDFB14B010BD00BF1486FF1F848AFF1F8C8AFF1FA4CA0000034B00221A605A6024
:401680001A619A61704700BF1486FF1F704700BF10B582B000F0DCF9144BDC69041B204605F0B0FC0022124B05F0B2FFD8B100F0CFF90E4BD86193F8203033B901220B4B52
:4016C00083F820200B2001F0B5FE2046FFF760FF064C206861682269A369A4680094FFF729FEFFF789FF02B010BD00BF1486FF1F0000494000B583B0074A0023136053602F
:401700001361936193600093184619461A46FFF711FE03B05DF804FB1486FF1F000000002DE9F0470446436C98478146002106F0BBFA10B14FF0010A01E04FF0FF0AA36CDF
:401740009847054604F10808484605F07DFC20A3D3E9002305F0F6FD06460F460022002305F038FF50B109F1004005F06DFC18A3D3E9002305F0E6FD06460F463046394601
:4017800005F078FF0146404600F042FB2846002106F06CFA10B105F1004100E02946404600F038FB404600F033FA78B1E56C2669A4794FFA8AF006F067F80146304606F054
:4017C000B7F801462046FFF719F9A847BDE8F0874C2438F292602F3F2DE9F04387B00026164B1E70164D174B6B64174BC5F898300024DFF85890CDF800900194DFF85080FC
:40180000CDF8088001270397049605F1080021462246234600F0D2FACDF800900194CDF808800397049605F15C0021462246234600F0C4FA07B0BDE8F08300BF3886FF1F00
:40184000DC81FF1F990D0000A50D00008988883D00409C4510B5FFF7BFF8094C01684268836804F1080000F073FAFFF7BBF801684268836804F15C0000F06AFA10BD00BFA7
:40188000DC81FF1F0000000010B500F0E1F8224B5B68C01A05F0B6FB1DA3D3E9002305F0ADFE002832D000F0D3F81B4B58601B7A2BB90122184B1A72132001F0BBFD174C63
:4018C0002046FFF72DFF04F15400FFF729FF144B1B8803F004039BB23BB1236D98470246204604F1080101F08BF90D4B1B8803F008039BB253B1094CD4F8A43098470246CE
:4019000004F1540004F15C0101F07AF910BD00BFABAAAAAAAAAA50403886FF1FDC81FF1F848AFF1FAFF30080024B5864C3F89810704700BFDC81FF1F034B044A5A64044AE5
:40194000C3F89820704700BFDC81FF1F990D0000A50D0000074B00229A60DA62DA60DA631A61DA65C3F880201A66C3F890205A66704700BFDC81FF1F38B508B9002400E027
:401980000124064D05F10800214600F093F905F15C00214600F08EF938BD00BFDC81FF1F38B505460C46134602482946224600F0CFF938BDE481FF1F38B505460C46134658
:4019C00002482946224600F0C3F938BD3882FF1F10B4054B5C69046098690860DB6913605DF8044B704700BFDC81FF1F10B4054B9C6E0460D86E08601B6F13605DF8044B8A
:401A0000704700BFDC81FF1F024A136801331360704700BF4486FF1F0022014B1A6070474486FF1F10B501F0DFFD01F0ABFD002409E0204601F0EEFD20B92046034901F06C
:401A4000E1FD10BD0134042CF3D910BD091A0000014B1868704700BF4486FF1F30B5002406E0094D85FB00E5C017C0EBA50001340028F6D103E030208854013201349C4226
:401A8000F9DB104630BD00BF67666666F8B504464668304605F044FE074625683046294605F0FAFF0146384605F038FE6060294605F0F2FFF8BD00BF030A0B704870704748
:401AC00082B001909DF804300B709DF805304B709DF806308B709DF80730CB7002B070472DE9F84306460D469046002106F0BEF850B12D232B703046002106F0B7F808B1B0
:401B000006F10046012400E00024304606F0D6F8074629190A2206F06CF906F071FF2044B8F1000F29DD2E232B54441C384605F0ABFE0146304605F0F1FD8146404605F039
:401B400071FA02460B4600200D4904F03BF806460F46484605F078FA32463B4605F0C8FA05F060FD0646294622464346FFF776FF291830460A2206F03CF9BDE8F88300BF28
:401B800000002440F0B4049F013AD2B2540800251D703D7019E051F82460864203DA651CEDB21C700CE0864202D11C703C700EE0864205DD3C701A78A21A012A07D022462E
:401BC000AC1804EBD474C4F347049542E3D9F0BC704700BF30B4BDF8084091420AD19C4201D198B211E0E41A04EBD47403EB640080B20AE0401A25B21CB22C1B04FB00F4DD
:401C0000521A94FBF2F2981880B200B230BC70472DE9F84390F83930002B48D004460768406B394605F07AFD8046E069414605F07FFE616A05F074FD05466062E66A3146AD
:401C400006F014F840B9D4F830902846494606F02BF810B14D4600E0354665623846616805F05CFD8146A069414605F061FE0146284605F055FD0546206A494605F058FE66
:401C80000146284605F04AFD0546A0603046294606F00AF830B9266B2846314606F004F800B92E46A66067600120BDE8F8830020BDE8F883F8B504460D4690F839308B4237
:401CC00014D0012912D18668466203684360C76A3046394605F0CAFF38B9276B3046394605F0E2FF00B13E463746676284F83950F8BD00BFF8B504460D46164608461146DE
:401D000005F0C8FF18BBE562266394F83930012B1DD1A7683846294605F0A8FF30B93046394605F0A3FF10B1374600E02F46A760676A3846294605F099FF30B93046394665
:401D400005F094FF10B1374600E02F466762F8BD2DE9F04104460D4616461F460846002105F084FF38BB3046002105F07FFF10BB3846002105F07AFFE8B9E5602661676134
:401D8000A561D4F828804046314605F0D1FD0646E0613846414605F07FFE206294F83830012B08D105F10045A56106F10046E66100F100402062BDE8F08100BFF8B5044626
:401DC0000F4616461D469DF8283080F838309DF8243080F83930002141620160416081604163069805F060FF10B1069BA36202E04FF07E53A36220460799089AFFF77AFF86
:401E00002046394632462B46FFF7A2FFF8BD00BF4163704701607047704700BF08B50020012102F0C5F902F00DFA20B102F004FA08B102F031FB02F0FFF910B1014802F0BA
:401E400077FB08BDCCCA000008B502F0FBF920B102F0F2F908B102F01FFB08BD10B50446FFF7F2FF02F0E8F930B102F0CFFB0028FBD0204602F05CFB10BD00BF08B502F077
:401E8000DBF9034630B102F0B5FB034610B102F0C9FB0346184608BD10B5044602F0CCF930B102F0B3FB0028FBD0204602F08EFB10BD00BF704700BF08B501F079FD08BD50
:401EC0002DE9F04780460D46170912F00F021CD0C2F1100A1FFA8AFA02EB07121FFA82F9002426460CE009EB060118F8040089B201F062FD0134A4B2013DADB20136B6B27C
:401F00005645F0D30137BFB200E00024C5F30F19B9F1000F0ED110E008EB0400F9B201F0B5FD1034A4B2103DADB20137BFB20136B6B200E000264E45EED3ADB13F01BFB2F2
:401F4000A94600260DE0B91918F8040089B201F033FD0134A4B209F1FF391FFA89F90136B6B2B542EFD84D462DB104487A21044A044B05F0C9FEBDE8F08700BFFCCA000016
:401F8000E8CA000010CB000010B582B00C4601A9FFF792FD9DF80400214601F00DFD611C9DF8050089B201F007FD02B010BD00BF30B583B00D4601A9FFF782FD002409E005
:401FC00002AB2344291913F8040C89B201F0F4FC0134E4B2032CF3D903B030BD0000000038B5434B1B68DA6C196D92FBF1F2002A05DADA6C5242186D92FBF0F003E0D86CB8
:402000001A6D90FBF2F03B4A1060D3F88821D3F8901192FBF1F2002A07DAD3F888215242D3F8901192FBF1F105E0D3F88811D3F8902191FBF2F12F4A5160D3F8CC22D3F897
:40204000D04292FBF4F2002A07DAD3F8CC526A42D3F8D05292FBF5F505E0D3F8CC52D3F8D02295FBF2F5234A9560D3F80824D3F8104492FBF4F2002A07DAD3F80824524254
:40208000D3F8103492FBF3F305E0D3F80824D3F8103492FBF3F3174CE36002468842A8BF0A462261AB42A8BF2B4663619A42A8BF1A461046A26105F0E7FB04F0C5FF08A38F
:4020C000D3E9002305F014F807A3D3E9002305F00FF805F0CFFAE06138BD00BFAFF300804C2438F292602F3F9A9999999999C93F8C8BFF1F4886FF1F0022024B83F82020C2
:40210000704700BF4886FF1F08B510B1012807D00DE0114B93F8202003EB8203586A07E00D4B93F8202003EB8203186C00E00020094A92F82030013382F8203004F084FFD3
:4021400003A3D3E9002304F0D3FF05F093FA08BD4C2438F292602F3F4886FF1FAFF3008010B584B010B101281DD01FE00C461148FFF774FEA37913B1012B0AD016E001A85E
:4021800002A903AAFFF724FC0B4801A9FEF7C8FA0CE001A802A903AAFFF728FC074801A9FEF7BEFA02E00648FFF758FE002004B010BD00BF20CB0000B0C90000BCC900008B
:4021C00048CB000038B504460C4D2968A1F5FF417839006889B2FFF7EBFE2968A1F5FF417439606889B2FFF7E3FE2968A1F5FF417039A06889B2FFF7DBFE38BD8C8BFF1F68
:4022000038B504460C4D2968A1F5FF416839006889B2FFF7CDFE2968A1F5FF416439606889B2FFF7C5FE2968A1F5FF416039A06889B2FFF7BDFE38BD8C8BFF1F30B595B09A
:4022400004460D4600210846FEF7D2FB14B1012C21D028E0AB7913B1012B09D010E001A802A903AAFFF7B4FB01A8FFF7ABFF07E001A802A903AAFFF7B9FB01A8FFF7C0FFE9
:40228000FFF75AFB04A80C492A4606F095FB04A8FFF7E4FD07E004A808492A4606F08CFB04A8FFF7DBFD064BB3F85C20054B1A80002015B030BD00BF6CCB00008CCB00008D
:4022C0004886FF1F848AFF1F30B595B00446C079FFF71AFF0546A37913B1012B04D007E00021FEF785FB03E000202946FEF780FB284611A90322FFF7F3FB01A8074911AA9B
:4023000006F05AFB01A8FFF7A9FD054B93F8200006288CBF0020012015B030BDACCB00004886FF1F10B50C4610B101280AD01BE0FFF78EFB104B1B6EC01AA368984215D264
:40234000002010BDFFF784FB0B4B1B6EC01AA36898420DD3FFF77CFB074B18662046FFF7B3FF38B9012010BD012010BD012010BD002010BD002010BD4886FF1F2DE9F0416A
:402380000C4610B1012844D059E02E48FFF766FDFEF7FEFA80462C48FFF760FDFEF7F8FA07462A48FFF75AFDFEF7F2FA06462848FFF754FD0120FFF7DFFAFEF767FEFFF734
:4023C000C9FAFFF797F9FFF70BFE0546A37913B1012B0AD012E0404639463246FFF7E0FA28460021FEF704FB08E0404639463246FFF7E2FA00202946FEF7FAFA1548FFF7A0
:402400002DFD1348FFF72AFDFFF722FB124B186615E00120FFF7B0FAFEF738FEFFF79AFAFFF768F90D48FFF719FD0948FFF716FDFFF70EFB084B18662046FFF745FF0020FF
:40244000BDE8F081B8CB0000D4CB0000ECCB0000ACC8000008CC00004886FF1F18CC000010B592B00C4610B1012824D051E002A82949224606F0A0FA02A8FFF7EFFC00212D
:402480000846FEF7B5FA254B1868254B1968FFF74BFA244B1A88244BA3F85C20A37913B1012B04D035E004221E4B1A8031E008221C4B1A802DE002A81C49224606F07CFA2D
:4024C00002A8FFF7CBFC184B164A1288A3F85C2003F14002009207201549164A2433FEF7E3FA00210846FEF783FA0C4B18680C4B1968FFF719FAFFF7FFFDA37913B1012B94
:4025000004D006E00522074B1A8002E00A22054B1A80002012B010BD28CC0000808AFF1F888AFF1F848AFF1F4886FF1F40CC0000CDCC4C3ECDCC4C3F054B064A136003F169
:402540001C0205490A6005490B60054B1A6070478482FF1F908BFF1FB48BFF1FBC8BFF1F988BFF1FF0B40C4D4F007C186400460033189B002344EC5A1846284481880023D8
:4025800005E022F813400133DBB20C44A4B2322BF7D9F0BC704700BFD482FF1F10B4002308E050F8232051F82340224441F823200133DBB2322BF4D95DF8044B704700BFB2
:4025C00010B4002307E050F8234094FBF1F442F823400133DBB2322BF5D95DF8044B704770B46FF000430B604FF00043136000230DE09D0050F823401668B44200DD1460C7
:4026000044590D68AC4200DA0C600133DBB2322BEFD970BC704700BF0F4B1B780B2B04D100220D4B1A700120704710B1012806D00BE0094A02EB830252680A6007E0074A2C
:4026400002EB830292690A6001E000220A600133014A137000207047AC86FF1FD482FF1F10B51248FFF7FAFB114C2268114802F5CA7102F51872FEF721F822680E4802F19B
:40268000540102F59072FEF719F822680B4802F2144102F59C62FEF711F82268084802F5357102F56872FEF709F810BDACC800008C8BFF1F08C9000018C9000068C9000016
:4026C00078C9000008B510B1012806D008E00548FFF7C4FBFFF7C4FF02E00348FFF7BEFB002008BD58CC000080CC00000000000038B50446084604F0A7FC0BA3D3E900239F
:4027000004F0F6FC04F0B6FF0546237D13B90021FEF76EF9237D012B03D100202946FEF767F938BDAFF300804C2438F292602F3F08B510B1012804D00AE00648FFF78EFB0F
:4027400006E00548FFF78AFB00210846FEF750F9002008BDA8CC0000CCCC000008B510B1012807D00FE00948FFF778FB0120FDF793FF08E00648FFF771FB00210846FEF743
:4027800037F9FFF7D9F8002008BD00BFECCC00000CCD000070B506460368084698470025002412E0FEF70CFC042C09D9336998470C4905F0BDF80146284604F0B1FF05467C
:4027C0000A2000F037FE0134E4B2362CEAD9284605F074FA044B83FB0023C017C0EB231070BD00BF0000C8421F85EB512DE9F8430646894690461F46036840F2DC509847FF
:402800004FF4FA7000F016FEFEF740FC00240EE01FB1C4F13205EDB200E02546304639F81510FFF7B7FF48F825000134E4B2322CEED9B3684FF47A709847336840F2DC5011
:402840009847BDE8F88300BF2DE9F04105460F469046104C6423A36304F130060846314604F13402FFF7BCFE04F13C003946CC2205F0C1FA04F584704146662205F0BBFA35
:40288000AAB230464FF4A07182F40042FFF718FBBDE8F081AC86FF1F2DE9F0478146884600EB4003DB001F4F1F441F4C04F5B872FFF758FEB8F1010F14BF4FF0000A4FF021
:4028C000010A04F5EC700021CC2205F09FFA002410E0154D05F52976384605F5B87132465346FFF783FF304605F5EC71FFF756FE0134E4B2022CECD90B4C04F5297504F5E6
:40290000EC7003212A46FFF75BFE08EB4908074B53F82800294604F5B872FFF795FFBDE8F08700BF1883FF1FAC86FF1FA08BFF1F2DE9F047A0B007460D4614469846084643
:4029400004F082FB1AA3D3E9002304F0D1FB04F091FE8246214604F0E1FE814628461DA90322FFF7BDF81AAD204629460322FFF7B7F817AE504631460322FFF7B1F814AC7E
:40298000484621460622FFF7ABF8009601950294CDF80C8004A808493A461DAB06F00CF804A8FFF75BFA20B0BDE8F087AFF300804C2438F292602F3F28CD0000AFF30080F9
:4029C0002DE9F04104460E46056A2D4B93F87033E3B900210846FEF70BF8A07F2949FFF71BFE30B12B6840F2DC5098470120BDE8F081234F2846D7F87413FFF779FEFFF7B9
:402A000027F8C7F87803012387F870331C4B93F8700398B3FFF71CF8194BD3F87833C01AB0422AD3164ED6F87483EB68984707466B6898470346204641463A46FFF778FF1D
:402A4000A07F06F55D71FFF7E7FD48B1002286F8702300210846FDF7CBFFFF20BDE8F081074C2846D4F87413FFF742FEFEF7F0FFC4F878030020BDE8F0810020BDE8F08135
:402A8000AC86FF1F208AFF1F38B52B4B1C8810B1012829D04AE040F2DC500146FEF736FD254D11232B802548FFF7D8F900200146FFF7F2FE2248FFF7D1F900200121FFF7E9
:402AC000EBFE22232B801F48FFF7C8F901200021FFF7E2FE1C48FFF7C1F901200146FFF7DBFE2C80012038BD184B93F87C3303EBC3039B00164818440968FFF761FFFF2826
:402B000016D11448FFF7AAF9104A92F87C330133DBB282F87C33042B0CD10F48FFF79EF900210846FDF764FF012038BD002038BD002038BD002038BD848AFF1F5CCD0000DC
:402B400078CD000094CD0000B0CD0000AC86FF1F4883FF1FD0CD0000F0CD000000B583B010B1012804D017E00D48FFF777F913E00C48FFF773F90C4B00930B200B490C4ADF
:402B80000C4BFDF791FF0120FEF7F6FE0A4B18680A4B1968FEF7C8FE002003B05DF804FB10CE000034CE0000EC82FF1FCDCC4C3ECDCC4C3FB086FF1F808AFF1F888AFF1F44
:402BC0000A4B1B6803F14801094A116003F5C471516003F53271916003F58163D360054B054A1360054A1360704700BF8C8BFF1FA08BFF1FD883FF1F948BFF1FB88BFF1FA4
:402C00002DE9F04F9BB007460C469046486B02F0BFFF10B1D4F834B001E04FF0000B206802F0B6FF10B1D4F800A001E04FF0000A606B216804F072FD02F0AAFF28B1606B04
:402C4000216804F06BFD814601E04FF00009606802F09EFF08B1666800E00026606A02F097FF08B1656A00E00025A06802F090FF08B1A46800E00024584617A90322FEF7F2
:402C80002FFF504614A90322FEF72AFF484611A90322FEF725FF30460EA90322FEF720FF28460BA90322FEF71BFF204608A90322FEF716FF104B1B8803F00C03C3B10F4CF9
:402CC00017AB009314AB019311AB02930EAB03930BAB049308AB0593CDF8188020464FF48071074A3B4605F035FE2046FFF7B6F81BB0BDE8F08F00BF848AFF1F8C8AFF1FEB
:402D000054CE0000012805D108B50348FFF7A6F8002008BD0020704774CE000000000000F0B59BB004460D4600210846FDF760FE012C4AD1FEF79EF90646FEF7A1F9044691
:402D40003046214604F0EAFC04F07EF922A3D3E9002304F0F7FA04F08DFC0746304617A90322FEF7BDFE204614A90322FEF7B8FE384611A90622FEF7B3FE2B780BB9184A11
:402D800000E0184A01A8184905F016FE01A8FFF765F801A8154917AA14AB05F00DFE01A8FFF75CF801A8124911AA05F005FE01A8FFF754F80F4B1A685B6801A80E49D21A1B
:402DC00005F0FAFD01A8FFF749F80A4B1A890B4B1A8000201BB0F0BD986E1283C0CAD93F9CCE0000A4CE0000B0CE0000D4CE000008CF00002C8AFF1F18CF0000848AFF1F90
:402E000001283FD170B50C46FEF722FE1F4B5B68C01A636898422CD2FEF72CF9002104F025FF20B1FEF726F900F1004502E0FEF721F90546FEF724F9002104F017FF20B16B
:402E4000FEF71EF900F1004602E0FEF719F90646A4682846214604F009FF20B13046214604F004FF80B9FEF7F3FD084B1860012070BDFEF7EDFD054B18600548FEF7EEFF4B
:402E8000012070BD01207047002070BD2C8AFF1F2CCF0000012822D110B50C461148FEF7DDFF0120FEF768FDFEF7F0F8FEF752FDFEF720FCE1682378012B01D101F10041B1
:402EC0000846FDF795FD0848FEF7C8FF0748FEF7C5FFFEF7BDFD064B5860002010BD0020704700BF44CF000018CC0000ACC800002C8AFF1F012821D100B591B00B780BB918
:402F00000F4A00E00F4A68460F4905F055FD6846FEF7A4FF00210846FDF76AFD0B4B18680B4B1968FEF700FD0A4B19880A4A11814F221A80002011B05DF804FB0020704710
:402F40009CCE0000A4CE000060CF0000808AFF1F888AFF1F848AFF1F2C8AFF1F014A024B1A607047F883FF1FB08BFF1FFEE700BF08B5C0B200F05CFAFEE700BF08B5094B65
:402F80001A681044084BC31A802B02DC054B186005E004F0D9FE0C2303604FF0FF32104608BD00BF2484FF1FC08CFF1F08B5104E104D16E029686B68AC68002204E051F8C9
:402FC000040B43F8040B0432A242F8D1E868002203E0002143F8041B04328242F9D11035013E002EE6D104F0C7FEFDF74BF8FEE70100000090D4000008B5124A124B1A606E
:40300000124A136843F40073136000230AE0032B03D80F4A52F8231000E00E490E4A42F8231001332F2BF2D90C4B1A780C4B1A70094A0C4B1A6000F0B9F800220A4B1A60DB
:4030400008BD00BF0004FA050CED00E014ED00E0000000006D2F00000080FF1FBC7600400481FF1F08ED00E00081FF1FF0B40022174611E050F82760F3B226F0FF0608E0C1
:4030800001EB420511F812406D78A5550132013BDBB2002BF4D10137242FEBD9F0BC7047064B1B78DBB203F00701054A11701B09013213704422034B1A707047CF010049E1
:4030C0006E5800407658004008B50A46002104F09DFE08BD38B50122264B1A801823264A1370172225490A8002310B7002310A80234A13700622234B1A705222A3F5807346
:403100001A70214B1B78DBB2204A13700024204B1C8040F6180203F21E231A8041F25122023B1A8019250CE01A4B1B7803F0010343EA440404F003044FF4F07000F068F947
:40314000013D0DB1032CEFD1114A07231370002311490B7048200231087013700532137002220E4B1A700E4A137843F00703137038BD00BF804000408240004084400040B0
:403180008A400040004300400F010049A146004004400040254200400640004001400040A243004008B504F026FE08BD38B572B63A4A137843F00403137000240CE038499F
:4031C00063001A1952000A4423445B00C8589188FFF77AFF0134E4B2072CF0D900240FE02F49A3001A1952000A4452F8300F23445B000B4451681A8FFFF7D4FF0134E4B2D7
:40320000022CEDD94FF090402649FFF72FFF264A137843F0020313701032137843F002031370224C237843F040032370A2F58632513A137843F0100313701D481D49082285
:40324000FFF7B0FF1C481D490822FFF7ABFF1C481C490A22FFF7A6FF1B481C490A22FFF7A1FFC4231A4A137002F500721370A2F54942B93A137843F008031370154D6123FA
:403280002B70FFF727FF81232B70FFF709FF124821460E22FFF786FF38BD00BFE84600407CCF00009400004803500140A043004002510040EC0B0048C2510040F40B004842
:4032C000F0510040FC0B004840510040080C0048DB0A014000480040B0430040044A137803F0EF03000100F0100018431070704740510040704700BF014B1880704700BFFE
:403300000A680040014B1880704700BF8A680040014B1880704700BF4A68004008B50B4A137843F0010313700132137843F00103137044F62060FFF7DFFF44F62060FFF7F6
:40334000E1FF40F2DC50FFF7E3FF08BD9564004008B5044B1B7823B9FFF7E0FF0122014B1A7008BD388AFF1F014B188880B270474A680040044A137803F0DF03400100F0A5
:40338000200018431070704740510040704700BF014B1880704700BF00680040014B1880704700BF80680040014B1880704700BF4068004008B50B4A137843F001031370F7
:4033C0000132137843F00103137044F62060FFF7DFFF44F62060FFF7E1FF40F2DC50FFF7E3FF08BD9064004008B5044B1B7823B9FFF7E0FF0122014B1A7008BD398AFF1F19
:40340000014B188880B2704740680040000000000230800803D000BF01380046FCD17047EFF3108072B6704780F31088704700BF01BE704710B5044605E0084B1868FFF77B
:40344000E7FFA4F50044B4F5004FF6D8034B586800FB04F0FFF7DCFF10BD00BF2884FF1F08B5034B1B7A03FB00F0FFF7D1FF08BD2884FF1F70B504460E46074B1D680F28EB
:4034800002D90020FFF7D4FF04F00F0455F8240045F8246070BD00BF08ED00E070B504460E46074B1D681F2802D90020FFF7C0FF04F01F04103455F8240045F8246070BD03
:4034C00008ED00E038B504460D46072902D90020FFF7AEFF1F2C02D90020FFF7A9FF04F01F0000F1604000F564406D01EDB2057038BD00BF024A136843F00203136070471F
:4035000010E000E008B5FFF7F5FF034A136843F00103136008BD00BF10E000E020F07F40014B1860704700BF14E000E0012805D1054A136843F0040313607047024A13687D
:4035400023F004031360704710E000E0024B1868C0F30040704700BF10E000E010B5FFF7F5FF01280BD107E0054B03EB84035B6803B19847013400E00024042CF4D910BD78
:403580003C8AFF1F0022014B1A60704718E000E008B5002305E00F4A02EB8302002151600133042BF7D90F200B49FFF763FF0120FFF7BCFF094BDB680948A0FB033080092F
:4035C000FFF7ACFFFFF7DEFF4FF40042054B1A6008BD00BF3C8AFF1F5D3500002884FF1FD34D621000E100E008B5054B9B6923B9FFF7CEFF0122024B9A61FFF783FF08BD99
:403600003C8AFF1F024B03EB80035868596070473C8AFF1F024B03EB80004068704700BF3C8AFF1F134B1B78DBB20360124A127843EA02230360114A127843EA02430360E1
:403640000F4A127843EA026303600E4B1B78DBB243600D4A127843EA022343600B4A127843EA024343600A4A127843EA02634360704700BF0301004904010049EC460040F6
:40368000020100490101004900010049050100490601004938B50522124B1A7081220E3B1A70082202331A700F2511331D70002401331C704FF400420B4B1A60284607215C
:4036C000FFF700FF28460949FFF7E8FE084B1C70084B1C70084B1C70084B1C70084B1C8038BD00BFD649004080E100E0C9370000C28BFF1FCC8BFF1FC38BFF1FC88BFF1FBD
:40370000C08BFF1F08B5FFF78BFE084A137843F0040313701032137843F004031370FFF783FE4FF40042024B1A6008BDA543004000E100E008B5054B1B7823B9FFF7AAFF34
:403740000122024B1A70FFF7DDFF08BD588AFF1F4FF40041054B1960054A1078137803F01003DBB21370034B1960704780E100E0CC8BFF1F00E100E010B44FF400440B4B5D
:403780001C6032B113460A4A13600A4B18800A4B19800023094A1370094A13704FF40042084B1A605DF8044B704700BF80E100E0C48BFF1FCA8BFF1FC08BFF1FC38BFF1F7E
:4037C000C88BFF1F00E100E0654B1B78DBB2654A137013F0080F32D0634B1B7813F0010F1CD0624A1378DBB261490968CB5CDBB25D490B7014215A4B19701378DBB25D4A63
:40380000137013780133DBB213705B4A137843F0110313700822594B1A708EE01022504B1A70554A137843F0120313700122534B1A70534A137843F0100313707DE013F08E
:40384000010F7AD04D4A1278D2B2042A1ED0082A3AD0012A68D1444B1B78DBB2414A5370484A128892B293420CD210223C4B1A703C4B5B783D4A13703E4A137004223F4B0B
:403880001A705AE00022364B1A7056E0394B1A783D4B1B889BB29A4212D2334B1B7831494B7010222E4B1A70324A1378DBB2304800684978C15413780133DBB213703CE0E3
:4038C0000022274B1A7038E013F0020F1ED1294B1A782C4B1B889BB29A4210D2254A1378DBB223490968CB5CDBB21F490B7004211B4B197013780133DBB213701DE0FF2268
:40390000194B1A700422013B1A7016E0FF22164B1A700022013B1A7017490B7803F0EF030B70164B1A7008E00023144A13700F4A1370104A13700A4A1370094B1B7813F02F
:40394000200F0CD00C4A137803F0EF03137000220A4B1A700A4A137803F0EF0313707047D7490040598AFF1FD8490040C38BFF1FC48BFF1FC88BFF1FCC8BFF1FC28BFF1F08
:40398000D6490040CA8BFF1FC08BFF1F044A137803F0FB03800000F00400184310707047C051004008B501F063FF01F06BFF08BD08B5FFF7F7FF08BD30B583B00C468DF81E
:4039C000070001F089FFB4F5006F54D22509C5EB053319010C44A4B202F054F800284CD1402021460DF10702012301F0A1FF044607282FD1234B1B7813F0020FFAD0214B69
:403A00001B7813F0020F06D01E4B1B789B0805D04FF0FF3403E04FF0FF3400E00024E4B9194B402029461A785B7801F0E7FF072816D1144B1B7813F0020FFAD0114B1B78E9
:403A400013F0020F0FD00F4B1B789B0810D04FF0FF340DE0012809D10AE04FF0FF3407E04FF0FF3404E04FF0FF3401E04FF0FF3402F02EF802E0012400E00424204603B0E3
:403A800030BD00BF22470040908CFF1F38B504460D4601F021FF15F0800F48D101F0F2FF002846D140202146102201F07DFF07282FD1214B1B7813F0020FFAD01E4B1B78A0
:403AC00013F0020F06D01C4B1B789B0805D04FF0FF3403E04FF0FF3400E00024E4B9174B402029461A785B7801F088FF072816D1114B1B7813F0020FFAD00F4B1B7813F021
:403B0000020F0FD00C4B1B789B080DD04FF0FF340AE04FF0FF3407E04FF0FF3404E04FF0FF3401E04FF0FF3401F0D2FF02E0012400E00424204638BD22470040908CFF1F4C
:403B400008B50222054B1A6001200549FFF7A6FC01200721FFF7B6FC08BD00BF80E100E03D3C000010B50224064B1C6000F0A0F8A0F5004000B2044B1B68044A14601844AD
:403B800010BD00BF80E100E05C8AFF1F00E100E038B505460224054B1C604FF4004000F081F8034B1D60034B1C6038BD80E100E05C8AFF1F00E100E0024B187800F00F00F1
:403BC000704700BF6C64004040F00700014B1870704700BF8C64004008B50F20FFF7F4FFFFF7EAFFFFF71CFC054A137843F010031370FFF719FC0222024B1A6008BD00BFAF
:403C00009C64004000E100E008B500F0A3F84FF4004000F047F80022064B1A60064B1B7823B9FFF78DFF0122034B1A70FFF7D4FF08BD00BF5C8AFF1F5B8AFF1F0D4B1B7820
:403C4000DBB213F0010F06D00B490A6802F5FF427F320A6007E013F0020F04D006490A68A2F500420A6013F0040F02D00022024B1A6070476C6400405C8AFF1F024A13786F
:403C800043F080031370704774650040014B1870704700BF8D640040014B1878704700BF6D640040014B1880704700BF18680040024B1B78024B188880B270470C6400409D
:403CC00098680040014B188880B2704798680040014B1880704700BF58680040014B1880704700BF7868004008B501E0FFF7EAFFFFF7D2FF10F0400FF8D108BD08B5134B5F
:403D00001A7802F0F8021A701A7802F0FC021A70FFF7EAFF4FF40040FFF7DAFF4FF40040FFF7C0FF0020FFF7B1FFFFF7B5FF4FF40040FFF7D3FFFFF773FB054A137843F0DA
:403D400010031370FFF770FB08BD00BF746500409D64004008B5054B1B7823B9FFF7CEFF0122024B1A70FFF789FF08BD608AFF1F08B50122054B1A6000200549FFF78EFB53
:403D800000200721FFF79EFB08BD00BF80E100E06D3E000010B50124064B1C6000F0A0F8A0F5004000B2044B1B68044A1460184410BD00BF80E100E0648AFF1F00E100E06C
:403DC00038B505460124054B1C604FF4004000F081F8034B1D60034B1C6038BD80E100E0648AFF1F00E100E0024B187800F00F00704700BF6464004040F00700014B1870B1
:403E0000704700BF8464004008B50F20FFF7F4FFFFF7EAFFFFF704FB054A137843F010031370FFF701FB0122024B1A6008BD00BF9464004000E100E008B500F0A3F84FF4B4
:403E4000004000F047F80022064B1A60064B1B7823B9FFF78DFF0122034B1A70FFF7D4FF08BD00BF648AFF1F618AFF1F0D4B1B78DBB213F0010F06D00B490A6802F5FF42E8
:403E80007F320A6007E013F0020F04D006490A68A2F500420A6013F0040F02D00022024B1A60704764640040648AFF1F024A137843F08003137070477A640040014B1870BF
:403EC000704700BF8B640040014B1878704700BF6B640040014B1880704700BF14680040024B1B78024B188880B270470A64004094680040014B188880B2704794680040F5
:403F0000014B1880704700BF54680040014B1880704700BF7468004008B501E0FFF7EAFFFFF7D2FF10F0400FF8D108BD08B5134B1A7802F0F8021A701A7802F0FC021A7065
:403F4000FFF7EAFF4FF40040FFF7DAFF4FF40040FFF7C0FF0020FFF7B1FFFFF7B5FF4FF40040FFF7D3FFFFF75BFA054A137843F010031370FFF758FA08BD00BF7A64004045
:403F80009B64004008B5054B1B7823B9FFF7CEFF0122024B1A70FFF789FF08BD688AFF1FF8B5FFF73DFA0546404A137843F0010313701032137843F00103137001273C4B0C
:403FC0001F700226943B1E7002F5E2521B32137803F07F0313700020FFF742FA354C237803F0F9032370344A137803F0DF03137023783B4323703846FFF732FA2820FFF7D7
:404000002FFA2E4B1A7802F07F021A701A7802F0BF021A702378334323703046FFF720FA237843F0040323700023254A1370013213702846FFF7F8F917200721FFF742FA3D
:4040400017202049FFF72AFA18200721FFF73AFA18201D49FFF722FA15200721FFF732FA15201A49FFF71AFA03200721FFF72AFA03201749FFF712FA04200721FFF722FAE3
:4040800004201449FFF70AFA05200721FFF71AFA05201149FFF702FA0C200721FFF712FA0C200E49FFF7FAF9F8BD00BFA54300409D6000409443004012600040F8510040D0
:4040C00084600040C14B000091490000BD4B0000054B00003D4B0000794B0000514E000010B5002304E00124244AD4542344DBB2012BF8D9224B18700023224A1370224A88
:404100001370224A1370224A1370224A1370224A1370224A1370224B4FF400021A604FF080721A604FF400121A6008221A6010221A6020221A6011B1012906D00BE0194A8F
:40414000137803F0FE0313700AE0164A137843F00103137004E0134A137843F0010313700322114B1A708022203B1A700120FFF74FF904220D4B1A7010BD00BF848CFF1F75
:40418000E98BFF1FEC8BFF1F088CFF1F0B8CFF1F008CFF1F0A8CFF1F0D8CFF1FE88BFF1F00E100E009600040286000401260004038B505460C46064B1B7823B9FFF7F0FEB9
:4041C0000122034B1A7028462146FFF789FF38BD698AFF1F002304E001210E4AD1540B44DBB2012BF8D900230B4A13700B4A13700B4A13700B4A13700B4A13700B4A1370B9
:404200000B4A137003220B4B1A708022203B1A70704700BF848CFF1FEC8BFF1F088CFF1F0B8CFF1F008CFF1F0A8CFF1F0D8CFF1FE88BFF1F28600040014B1878704700BFBA
:404240000B8CFF1F064B1B7813F0FF0F05D0044B1878C0B200221A7070470020704700BF088CFF1F00EB40008000024B18444078704700BF108CFF1F431EDBB2072B0BD884
:40428000064B00011A18185C00F00F00537843EA0020023880B2704700207047FC5F0040431EDBB2072B3BD8F0B4074600EB40039B001C4C2344DB889BB2C3F500739A42E7
:4042C00007D900EB40039B002344DA88C2F5007292B200EB40039B00124C2344DB7843EA1223114D04012E192B55D3B2737039B909E0CE5C3D010D4C665501339BB200E052
:4043000000239342F5D3430003449B00054A134400225A705A79D2B20001054B1A54F0BC704700BF108CFF1FFC5F004078600040FE5F0040431EDBB2072B0BD84300034437
:404340009B00054A134400225A705A79D2B20001024B1A54704700BF108CFF1FFE5F004070B5D9B1054614460E46C8B1082819D8FFF782FFA04203D22846FFF77DFF044696
:40438000002305E02901094A525CF25401339BB2A342F7D32846FFF7CDFF04E0002402E0002400E00024204670BD00BF786000400246002001E0013080B2135C002BFAD197
:4043C000704700BF10B4FF2400220EE00A4B9B5C03EB43039B0009490B449B78DBB2834201D1144602220132D2B2012AEED920465DF8044B704700BFD88BFF1F188CFF1F73
:4044000010B5204C2079FFF7DDFF237813F0800F0ED06378DBB2212B2FD11B4B07221A80C0EBC000194A1044586000F01FFB10BD144B5B78DBB2202B02D0222B10D01EE040
:40444000114A07231380C0EBC00310490B4453600F4A135C43F00103135400F02FFB10BD084B9B780B4A22F81030094A135C43F00203135400F0BAF910BD002010BD00201B
:4044800010BD00BF00600040F48BFF1F3884FF1FD08BFF1FE48BFF1F10B500241F4B1C701F4B1C705C700AE01E4B185DC0B2431EDBB2072B01D8FFF73DFF0134E4B2012C55
:4044C000F2D9194B1B7813F0FF0F1AD0154B1B7813F0FF0F17D0154B1B7813F0FF0F14D0114B1B78DBB2082B11D80E4B1B78DBB2082B0ED80D4B1B78DBB2082B0BD8002054
:4045000010BD012010BD012010BD012010BD012010BD012010BD012010BD00BF6A8AFF1FD08BFF1FDC8BFF1FD48BFF1FD88BFF1F2DE9F8438046224B1B78224AD65CF6B2F0
:40454000FFF736FF05460027344606EB46039B001D4A13441B899BB2AB4208D206EB46039B001344B3F808901FFA89F900E0A946304608EB07014A46FFF792FEC9EB0505BB
:40458000ADB245B906EB46039B000F4A13441B899BB2994510D14F44BFB204EB44039B00094A13445B7813F0FF0FF6D025B9304600210A46FFF774FE002DC5D1BDE8F88330
:4045C0006A8AFF1FD48BFF1F108CFF1F00B583B002A901F8010D054B1B78054AD05C0122FFF75EFE03B05DF804FB00BF6A8AFF1FD48BFF1F08B5034B1B78034AD05CFFF7A3
:4046000031FE08BD6A8AFF1FDC8BFF1F08B5034B1B78034AD05CFFF725FE08BD6A8AFF1FD48BFF1F00B583B0064B1B78064AD05C0DF107010122FFF793FE9DF8070003B024
:404640005DF804FB6A8AFF1FDC8BFF1FC37803F0030390F9020000280FDA032B06D002F001030B48C15442F001020EE0C2F380030848C15442F0040207E0032B05D0C2F386
:4046800040030548C15442F002021046704700BFD48BFF1FD88BFF1FDC8BFF1F1C4B19781C4A13880B449BB2138000230EE01A4A51680978C9B21948C1545168013151606C
:4046C0000133DBB21188013989B21180124A128892B20AB1072BEAD90D4A1278D2B2082A00D05BB10E490A7882F080020A700F210C4A117002210C4A117004E0022209495B
:404700000A7009490A70094A1370014A13707047E88BFF1FEA8BFF1FF48BFF1F006000407E8CFF1F098CFF1FEC8BFF1F0C8CFF1F0222074B1A708022064B1A700F22064B52
:404740001A700023054A1370054A137001207047EC8BFF1F7E8CFF1F098CFF1FE88BFF1F0C8CFF1F08B5FFF799FF08BD10B4184B197801F00F010239C9B2164A13880B4490
:404780009BB21380002010E0134B5C68134A125CD2B222705A6801325A600130C0B20139C9B21A88013A92B21A800B4B1B889BB20BB10029E8D10A4B19700A4A137883F030
:4047C000800313700B22084B1A705DF8044B704729600040EA8BFF1FF48BFF1F006000400C8CFF1F7E8CFF1F098CFF1F0623064A1370064A13708022054B1A700022054B67
:404800001A700120704700BFEC8BFF1F098CFF1F7E8CFF1F0C8CFF1F064B9B6843B1054B9A6810709A6804490988518000229A60704700BFF48BFF1FEA8BFF1F08B5134B89
:404840001A78D2B21A701B78DBB213F0800F02D00F4A137008BD0220FFF7DEFF0D4B1B7803F06003202B05D0402B06D043B900F0D5FD06E001F05CF903E000F07DFF00E0C3
:40488000002010B90322024B1A7008BD28600040098CFF1F0060004008B5084B1978084A13880B449BB213800022064B1A700120FFF7B2FF0322044B1A7008BDE88BFF1F5D
:4048C000EA8BFF1FEC8BFF1F098CFF1F08B50B4B1B78DBB2042B06D0062B07D0022B0BD1FFF7DAFF08BDFFF741FF08BD0320FFF793FF0322024B1A7008BD00BFEC8BFF1F45
:40490000098CFF1F08B50022044B1A700120FFF783FF0322024B1A7008BD00BFEC8BFF1F098CFF1F08B50B4B1B7813F0FF0F07D0084A137843F0800307490B700023137019
:404940000022064B1A700120FFF766FF0322044B1A7008BD0A8CFF1F08600040EC8BFF1F098CFF1F08B5094B1B78DBB2042B06D0062B07D0022B07D1FFF7F4FE08BDFFF771
:40498000C1FF08BDFFF7CEFF08BD00BFEC8BFF1F08B5284B1B78DBB213F0100F48D013F0800F0CD003F00F03012B16D1FFF746FF214B1B7813F0800F11D1012312E013F0BF
:4049C000400F03D0FFF7CEFF01230BE013F0200F07D0FFF77BFF012304E0002302E0002300E0002323B3134B1B7813F0800F1FD1124B1B78124A12781343124A1370127839
:404A0000D2B29A4214D10C4B1B78DBB2094A127812F0800F07D1084B1B78DBB2054A1370137803F00F03044A1278D2B29342EAD108BD00BF28600040098CFF1F7E8CFF1F8C
:404A40000C8CFF1F296000400022064B1A80064B9B682BB1044A916800230B7092685380704700BFEA8BFF1FF48BFF1F08B50F4B1B889BB213B9FFF75BFE15E002220C4B90
:404A80001A7000220B4B1A70FFF7DEFF0A4AD179937943EA0123054A128892B29A4201D9024A1380FFF7FAFD012008BDF48BFF1FEC8BFF1F7E8CFF1F0060004008B504222A
:404AC0000B4B1A7080220B4B1A70FFF7BDFF0A4AD179937943EA0123084A128892B29A4201D9064A13800B22054B1A70012008BDEC8BFF1F7E8CFF1F00600040F48BFF1FF7
:404B0000098CFF1F0A4A137803F0FE031370094B9B7C094B1B7B03F00303012B04D0064AD37B83F08003D3730122034B5A7370470B600040FC5F0040108CFF1F0B4A13786F
:404B400003F0FD0313700A4B93F82230094B1B7E03F00303012B04D0064AD37E83F08003D3760122034B5A76704700BF0B600040FC5F0040108CFF1F0D4A137803F0FB033D
:404B800013700C4B93F832300B4B93F8243003F00303012B06D0084A92F8273083F0800382F827300122044B83F82520704700BF0B600040FC5F0040108CFF1F704700BFE6
:404BC00008B5FFF707FB08BD08B50B4B18780138C0B200F0C9F9094B1B79DBB200EBC30042690749CB5C02EBC3035B68596A0B78044A1380516008BD0B8CFF1F006000408E
:404C00007C8CFF1FF48BFF1F08B50D4B18780138C0B200F0A9F90B4B1B79DBB200EBC30042690949CB5C02EBC3035B68DB69597813F8022B42EA012204490A804B6008BD2D
:404C40000B8CFF1F006000407C8CFF1FF48BFF1F10B50022194B1A80194B18780138C0B200F082F91749CB78DAB20B79DBB200EBC3004169012B20D81348C35C01EBC30147
:404C80004968531EDBB2022B17D802F10053013B01EBC3000B4A9278D2B211F8333093420BD3406802EB4202920081184C68034B5C60825A1A808A689A6010BDF48BFF1F68
:404CC0000B8CFF1F006000407C8CFF1F08B55B4B1A79D2B21B7813F0800F4DD0574B5B78013B052B00F28D80DFE803F0212B3B8B8B03524BDB78DBB2212B09D1FFF764FF47
:404D00004F4B1B889BB2002B7DD0FFF7AFFE08BD4A4BDB78DBB2222B77D1FFF775FF484B1B889BB2002B72D0FFF7A0FE08BDFFF78FFF434B1B889BB2002B6AD0FFF796FE5B
:404D400008BD012A67D83D4B9B7813F0FF0F64D13B4901230B803B4B1A444A60FFF786FE08BD012A5BD8364901230B80364B1A444A60FFF77BFE08BD304B5B78DBB20A2BCA
:404D80000DD00B2B2ED0092B4BD1FFF761FF2C4B1B889BB2002B46D0FFF790FE08BD012A43D8264B9B7813F0FF0F40D1234BDB78DBB224498B548B5C2449895CDBB28B4232
:404DC00003D20021214B995409E0204B9B5CDBB2012B04D91B4B9B5CDBB21C498B54FFF705FD08BD012A24D8144B9B78DBB2012B21D8124B9B78DBB213498B54FFF7F6FC2D
:404E000008BD002008BD002008BD002008BD002008BD002008BD002008BD002008BD002008BD002008BD002008BD002008BD002008BD002008BD002008BD00BF00600040C8
:404E4000F48BFF1F8C8CFF1F848CFF1F888CFF1F08B500F0AFFC08BD70B588B0054603AC174E0FCE0FC43368237035B322232B7003236B7001A8FEF7D5FB002402231AE0CE
:404E800008AA224412F81C2C08A901EB121111F8141CE954581C00212954981C02F00F0208AE324412F8142C2A54DA1CA9540134E4B20433DBB2212BE2D908B070BD00BF68
:404EC000CCCF000010B401223DE0114613010C242148C45402EB42039B00204803445B7913F0FF0F12D002EB42039B0003441B7913F0800F04D01001194B03449C700AE0F4
:404F00001001174B03440820987004E01001144B0344802098704B000B449B000F480344DC88E4B208010C4901448C71D888C0F30720C871D888C0B20871DB88C3F30723D6
:404F40004B710132D2B2082ABFD9FF22054B1A705DF8044B704700BF70600040108CFF1FFC5F00400A600040074B1B78074A02EBC30253681A7C824203D903EBC003586985
:404F800070470020704700BFE98BFF1F1CD00000F8B5404B1B7813F0FF0F79D03D4B18780138C0B2FFF7E0FF047AC2683A4B1878C0B200236AE01178814264D13749095C67
:404FC000C9B25578A9425ED1917801F07F01D67806F00306DFF8C8E04D000D44AD000EEB05074FF0000C87F803C092F802C087F804C092F803C00EF805C095883D8192F91F
:405000000250002D0DDA012E01D1072700E00D274D000D44AD00224E35446F7101266E700CE0012E01D1052700E009274D000D44AD001B4E35446F7100266E70DFF868E055
:405040000F010EEB07060125B57001FA05F529448900134D29440D89C5F307250EF807500D89EDB27570CE88F6B20E4D3D44AE71CE88C6F30726EE71CE88F6B22E71C988A4
:40508000C1F30721697108320133DBB2A34292D3F8BD00BF0B8CFF1F008CFF1F7C8CFF1F108CFF1F70600040FC5F0040034B1A78034B03EBC2035868704700BFE98BFF1FEE
:4050C0001CD0000008B5074B18780138C0B2FFF74BFF28B14268127900EBC203586908BD002008BD0B8CFF1F2DE9F84300220EE06D4E53009D18AD00741900217155A17006
:40510000E1702181A172617061710132D2B2082AEED940B90AE000226449CA546449CA540133DBB200E00023012BF4D9614B1B7813F0FF0F00F0B5805E4B18780138C0B265
:40514000FFF712FF80464368DB7913F0400F05D0594A137843F00103137004E0564A137803F0FE03137098F808704FF0000901266CE0D8F80C50002464E0AB7803F07F03DF
:405180009E425CD1314606EB46039B00464803441B899BB2A888834205D206EB46039B00414A134418812B784048C35CDBB26878834244D195F802C03B484B000B449B001C
:4051C00000EB030E8EF804C095F803E000F803E0EB7803F0030395F90200002811DA012B02D14FF0070C01E04FF00D0CDFF8B8E04B0058188000704480F805C00123437023
:4052000012E0012B02D14FF0050C01E04FF0090C25484FEA410E0EEB01039B00034483F805C0194600234B70AB790A2B01D0022B05D1284631464A46FFF708FA8146083509
:405240000134E4B2BC4298D30136F6B2082E90D9D8F80C0000220CE0837803F07F0310F8084B03EB43039B0014490B449C700132D2B2BA42F0D3FFF725FF114B18600020BC
:4052800001220AE0084C5300991889002144C8800B89184480B20132D2B2082AF2D9FFF711FEBDE8F88300BF108CFF1F7C8CFF1FF08BFF1F0B8CFF1F0D8CFF1F188CFF1FF2
:4052C000048CFF1F08B5154B1A7902F07F02531EDBB2072B20D8530013449B0010490B44997841F0010199700021D970597841F0020159701B7913F0800F05D01201094BE1
:4053000013448D229A7004E01201064B134489229A70FFF76BFA08BD002008BD00600040108CFF1FFC5F0040264B1B7903F07F035A1ED2B2072A43D810B55A001A4492003E
:4053400021490A44917801F0FE0191700021D17019017F241D484454517801F0FD015170127912F0800F14D003EB4302920016490A445278D2B2012A05D11B0102461A4463
:405380000C23937019E01B01104A1A440D23937013E003EB430292000B490A445278D2B2012A05D11B01094A1A440823937004E01B01064A1A4409239370FFF717FA10BD66
:4053C0000020704700600040108CFF1FFC5F004010B50E4B1C79E4B20D4B18780138C0B2FFF7C2FD43681B799C4201D9022C0AD8084A135DDBB208490B55044B9B78DBB25A
:405400001355012010BD002010BD00BF006000400B8CFF1F7C8CFF1FF08BFF1F10B5964B1B78DBB20021954A118013F0800F00F0B380914A5278D2B20A2A00F27981DFE83A
:4054400012F06F00770177017701770177010B00770198007701A000874BDB78DBB2012B09D1FFF723FE4268844B5A6012221A80FFF7FCFA10BD804BDB78DBB2022B13D1EB
:405480007D4B9878FFF770FD002800F0538142687A4B5A605A68D1785A68927842EA01221A80FFF7E3FA10BD734BDB78DBB2032B05D032E00A7811440133DBB201E00023ED
:4054C0006F496D4A9278D2B29A4203D90A7812F0FF0FEFD1684B9B78DBB2EE2B00D16949654B9B7813F0FF0F0BD0634B9B78DBB2654A127C934204D1644C2046FFF7ACFC1E
:4055000021460B7813F0FF0F00F016810B785B4A13805160FFF7AAFA10BD00F009FB10BD13F0030317D0022B40F0088153490B80514B1B7903F07F0303EB43039B00544A46
:4055400013449A78D2B2534B1A7000225A704B60FFF78CFA10BD494902230B804E4B1A78D2B24C4B1A7000225A704B60FFF77EFA10BD424B01221A80484A5A60FFF776FA56
:4055800010BD3E4A012313803B4B1B7944490B445360FFF76BFA10BD374A5278013A0A2A00F2CE80DFE812F04B00CC009700CC000B00CC00CC00CC001300CC0030002E4BDA
:4055C0009B78DBB2374A1370FFF710F910BD2A4B9B7803F0FF041BB1601EC0B2FFF7C4FC04B110B9002C40F0AD802C4B1B78DBB29C4206D0294B1C7001202B4B1870FFF7E4
:4056000073FDFFF7F3F810BDFFF7E2FE002800F09B80194A1379DBB21279D2B223490A70234AD25C1E49C95CD3B28B4204D001221D4B1A70FFF7ACFCFFF7D8F810BD03F04C
:405640000303012B36D04BB1022B7FD10A4B9B7813F0FF0F7CD1FFF767FE10BD064B9B78DBB2012B76D10C4A137803F0FD031370FFF7BCF810BD00BF00600040F48BFF1F5D
:40568000BCD0000008D00000A0D10000948CFF1F108CFF1F6C8AFF1F0D8CFF1F0B8CFF1F7C8CFF1F0A8CFF1F088CFF1F008CFF1FF08BFF1F2D4B1B79DBB2012B4CD82B4B6F
:4056C00098781B79DBB22A49CA5C22EA0002CA54FFF78CF810BD03F00303012B17D04BB1022B3BD1214B9B7813F0FF0F38D1FFF7E9FD10BD1D4B9B78DBB2012B32D11D4A4C
:40570000137843F002031370FFF770F810BD174B1B79DBB2012B27D8144B98781B79DBB21349CA5C22EA0002CA54FFF75FF810BD002010BD002010BD002010BD002010BD3E
:40574000002010BD002010BD002010BD002010BD002010BD002010BD002010BD002010BD002010BD002010BD002010BD00600040808CFF1F0D8CFF1F08B50B4B1B7813F0D0
:40578000800F0CD0084B5B78DBB2012B09D1074B074A5A6012781A80FFF768F908BD002008BD002008BD00BF00600040F48BFF1FE0CF0000024B1878C0F38010704700BF1D
:4057C0008F45004010B500F087F800F05BF9D0B900F09AF90446072812D102E00120FDF73FFE0A4B1B7813F0020FF7D0074B1B7813F0020F04D0054B1B789B0800D1002476
:4058000000F066F900E00424204610BD2247004010B500F061F800F035F910BB012000F013F9072818D11048022100F067F802280AD102E00120FDF713FE0C4B1B7813F045
:40584000020FF7D0002409E0084B1B7813F0020FE9D04FF0FF3401E04FF0FF3400F038F900E00424204610BD908CFF1F2247004008B5FFF7A7FF034610B9FFF7C9FF03461A
:40588000184608BD08B5FDF7CBFD0F4A137843F0080313701032137843F008031370C8220A4B1A700A4A137843F0100313701032137843F010031370064B1B7813F0200FFC
:4058C000FAD0FDF7B1FD08BDA043004001470040AC4300400047004008B5FDF7A1FD064A137843F0080313701032137843F008031370FDF799FD08BDA043004070B50646BA
:405900000D4600240CE00120FDF7AAFD064B1B7813F0010FF7D0054B1B7833550134E4B2AC42F3D3204670BD224700402047004030B43E2801D81F2B03D93F2827D90F2BD3
:4059400027D8174C247814F0020F24D0154CB6252570D4252570012525700234247814F0020F1AD10F4C2070C1F300202070C9B22170591EC9B22170002104E0545C094850
:4059800004700131C9B29942F8D3072006E0012004E0012002E0042000E0092030BC70472247004020470040124B1B7813F0020F19D010B4104BB6241C70D5241C700224CE
:4059C0001C7002331B7813F0020F0ED10A4B1870002304E0CC5C0848047001339BB29342F8D3072002E00420704709205DF8044B704700BF224700402047004030B4104CB8
:405A0000247814F0020F15D00E4CB6252570D8252570052525700234247814F0020F0BD1084C2070080A2070C9B2217022702370072002E0042000E0092030BC704700BFA3
:405A400022470040204700400C4B1B7813F0020F0FD00B4BB6221A70E1221A700E221A7002331B7813F0020F05D1054B187007207047042070470920704700BF224700406F
:405A80002047004010B5FDF7CBFC0F4B1B78A3B901220D4B1A700D4B1B6813F0010F0ED00A4A136823F00103136000BF00BF00BF0122054B5A60002402E0042400E00024B0
:405AC000FDF7B2FC204610BD708AFF1F0400084008B5FDF7A5FC0A4B00221A705B68012B0AD1084A136843F00103136000BF00BF00BF0022024B5A60FDF796FC08BD00BF69
:405B0000708AFF1F04000840074B1B7813F0020F08D0064BB6221A70E0221A700D221A700720704704207047224700402047004008B5144B1B7803F00303012B02D0022B5C
:405B400004D00FE00F4B1B79DBB20CE00D4B1B7903F07F0303EB43039B000B4A13449B78DBB200E00023094A1268D35C022B04D0032B05D1FFF7AAF808BDFEF741FC08BD27
:405B8000002008BD00600040188CFF1F048CFF1F30F0004001D102207047A0F50003B3F1FE4F01D204207047054B421E9A4201D803207047A0F1FF40B0FA80F04009704785
:405BC000FEFF7F002DE9F04F8BB01F4680468946164600F071F9DFF8D8A204469AF900300D46013304D03046394600F085FF20B9204629460BB0BDE8F08F4046494600F035
:405C00007BFF834660BB304639460022002301F0D7FC0028ECD09AF900309E4C01229E4900208DE814005A1CCDF820B0CDE90289CDE90467CDE906010DD0022B0BD0684607
:405C400000F086FF002800F09380089B1BB102F07BF8089B0360DDE906010BB0BDE8F08F404649460022002301F0AAFCF8B1304639460022002301F0A3FC834600284ED08B
:405C800084489AF900300121002200240025CDE90289CDE90467CDE90645019000910892002BCCD07C4B0022CDE90623D3E72046294600F01BFF834600285ED0204629468D
:405CC0000022002301F07CFC002891D04046494600F00CFF00288BD03046394600F006FF002885D09AF900306A480421002200240025022BCDE90289CDE90467CDE90645DE
:405D000001900091089200F08880684600F020FF002800F08280089B002B9CD097E73046394600F0E3FE00283FF462AF304639460022002301F04EFC00283FF459AF554978
:405D40009AF800300122CDF820B0CDE90289CDE9046701910092002B3CD050490020022BCDE9060130D101F0EFFF21230360D2E701F0EAFF2123036067E74046494600F035
:405D8000B5FE00289AD03046394600F0AFFE002894D02046294600F0AFFE00BB3D4A9AF8004001230890CDE90289CDE90467019200937CB10020002102460B4601F0C2FA02
:405DC000022CCDE90601CED0684600F0C1FE0028A1D1C8E700220023CDE90623F4E72D499AF900300322CDF820B0CDE90289CDE9046701910092ABB9294D4FF060444046B9
:405E0000494600220023CDE9064501F0E3FB50BB9AF90030022B7FF478AF01F095FF2223036078E71F4D00244046494600220023CDE9064501F0CEFB0028E9D000221A4B90
:405E40003046394601F054F904460D4600F088FE22462B4601F0B4FB0028D9D10F4B0022CDE90623D4E700220F4B3046394601F03FF904460D4600F073FE22462B4601F019
:405E80009FFB0028C4D1094B4FF06042CDE90623BEE700BFB4D100000000F03F0000F0FFFFFFEF470000F07F0000E03FFFFFEFC75484FF1F000000002DE9F04F144623F042
:405EC0000047024657EA04000E468FB01D469C46214634D06E4B26F0004A9A459346B14626DC24D09F4223DC694B9F4200F08F80B9F1000FC0F28F804FF0000879BB644BB5
:405F00009F4200F0A580634B9F4267D0BCF1804F00F0E283604B9C4521D1B9F1000F1EDB104631460FB0BDE8F04F00F015BD62B10AF1404000F5801050EA0B0007D10346F9
:405F4000544918460FB0BDE8F08F5745CCDD53480FB0BDE8F04F00F0FDBD4FF0000810463146CDF808C0009200F0BCFD009ADDF808C0BBF1000F20D04FEAD97909F1FF399B
:405F800058EA09037AD0464B9F4240F38F8003F104739F4240F31084424B9A4540F39283BCF1000F40F3928337A1D1E900010B46024601F09DF80346C3E7BAF1000F04D097
:405FC000344B29F0404E9E45D6D1BCF1000FC0F2B683B9F1000F08DB0346B2E7BCF1000FC0F2528413463146ABE70AF1404A0AF5801A58EA0A0340F05E8402460B4600F01E
:40600000C3FE0B46024601F09DF9034699E700293FF46EAF8CE7244B9F422CDCA3F154739F427FF769AF40F213403B15834240F34B84C3F58663033321FA03F000FA03F337
:406040008B427FF459AF00F00100C0F1020855E70AF1404303F5801353EA0B0300F03983104B9A4540F36483BCF1000FC0F22E832346294665E74FF002083FE7104631461D
:406080003346BCE7AFF300809C7500883CE4377E0000F07F0000F03F0000E03FACBE00000000E041FFFFEF3FFFFF3F43BAF5801F4FF0000205DACA4B01F01AF88A466FF08B
:4060C00034024FEA2A53C74ECAF3130AA3F2FF334AF07F571344B2450C9347F4401740F3D083C14B9A4540F307840026B4460C9BA7F5801701330C933946BC4B4FEACC0CDC
:406100006344D3E900AB52465B46CDF834C0CDE9060100F039FE52465B46CDE90801DDE9060100F033FE02460B460020B04901F009F902460B46DDE90801CDE90A2300F0B5
:40614000D7FF02460B46CDE90223CDE904237B1043F0005303F5002399190020002306460F460293DDE902231046194632463B46CDE9000100F0BCFF02460B46DDE908013E
:4061800000F002FE5246CDE908015B463046394600F0FAFD02460B46DDE9060100F0F4FD02460B46DDE9000100F0A2FF02460B46DDE9080100F0E8FDDDE90A2300F098FF2C
:4061C000DDE90423CDE906011046194600F090FF02460B4606460F4600F08AFF6EA3D3E9002382468B463046394600F081FF6CA3D3E9002300F0CAFD32463B4600F078FF1B
:4062000069A3D3E9002300F0C1FD32463B4600F06FFF67A3D3E9002300F0B8FD32463B4600F066FF64A3D3E9002300F0AFFD32463B4600F05DFF62A3D3E9002300F0A6FD54
:4062400002460B465046594600F052FFDDE9042306460F46DDE9000100F098FDDDE9062300F046FF32463B4600F090FDDDE9006782468B4632463B463046394600F038FFC0
:4062800000225C4BCDE9080100F080FD52465B4600F07CFD02980F460646DDE9000132463B4600F025FF32463B46CDE90001DDE9060100F01DFF0022CDE906014D4B3046C2
:4062C000394600F061FDDDE9082300F05DFD02460B465046594600F057FDDDE9042300F007FF02460B46DDE9060100F04FFD82468B46DDE9000152465B4600F047FD32A35D
:40630000D3E9002302980F46064600F0F1FE30A3D3E90023CDE904013046394600F0E8FEDDE90023CDE906013046394600F02CFD02460B465046594600F026FD26A3D3E912
:40634000002300F0D5FE02460B46DDE9060100F01DFDDDF834C0284BCDF818C06344D3E9002300F013FDCDE900010C9800F05AFE06460F46DDE90401204BDDF818C09C4461
:40638000DDE90023DCE900AB00F000FD52465B4636E000BFAFF30080EF4E454A287ECA3F65DBC9934A86CD3F01411DA96074D13F4D268F515555D53FFFAB6FDBB66DDB3F46
:4063C000033333333333E33F000000E009C7EE3FF5015B14E02F3EBEFD033ADC09C7EE3F000040438E98030079B60B00D8D100000000F03F00000840C8D10000B8D10000F1
:40640000CDE906AB00F0C2FC32463B4600F0BEFC029832463B4682468B4600F0B5FCDDE9062300F0B1FCDDE9042300F0ADFC02460B46DDE9000100F0A7FCCDE9020108F120
:40644000FF3858EA09030CBFD54BD64B0022CDE904230023CDE900450093DDE90067204632463B46294600F08FFC52465B4600F03FFEDDE90223804689462046294600F0BA
:4064800037FE02460B464046494600F07FFC04460D465246304639465B46CDE9024500F027FE06460F4620463B462946324600F06DFCBD4B824699428946884640F31381DA
:4064C00001F13F4303F5E003034340F0E581A0A3D3E90023DDE9020100F058FC324604460D463B465046494600F04EFC02460B462046294601F08CF8002840F0CD814C4632
:406500002015A0F2FE304FF4801101414144C1F30A50A64CA0F2FF35C1F3130BC0F5826003302C414BF4801B21EA040300224BFA00FB3946304600F027FC06460F46DDE93F
:4065400002018BEAE87B0BEBD87B32463B464FEA0B5A00F01BFC80A3D3E90023002420460D4600F0C5FD3246804689463B462046294600F009FC02460B46DDE9020100F01E
:4065800003FC77A3D3E9002300F0B2FD76A3D3E9002306460F462046294600F0A9FD02460B463046394600F0F1FB06460F4632463B464046494600F0E9FB42464B460446F0
:4065C0000D4600F0E1FB02460B463046394600F0DBFB2246804689462B462046294600F087FD63A3D3E9002306460F4600F080FD61A3D3E9002300F0C7FB32463B4600F000
:4066000077FD5FA3D3E9002300F0C0FB32463B4600F06EFD5CA3D3E9002300F0B5FB32463B4600F065FD5AA3D3E9002300F0AEFB32463B4600F05CFD02460B462046294618
:4066400000F0A2FB06460F4632463B462046294600F04EFD0022CDE900014FF080433046394600F091FB02460B46DDE9000100F069FE424606460F464B462046294600F061
:4066800037FD42464B4600F081FB02460B463046394600F079FB22462B4600F075FB02460B4600203F4900F06FFB8A44BAF5801F0246C0F227815346DDE9040100F018FD34
:4066C00003463EE4BCF1000FFFF66EAC0023194637E40B46334934E433461046314600F007FD03462DE4324B21F000449C4240F3FA80304B0B4403430CD132463B4600F01B
:4067000043FB02460B46DDE9020100F06DFF00283FF4F6AE20A3D3E90023DDE9040100F0E7FC1DA3D3E9002300F0E2FC034608E4BCF1000FCADA234605F1004101E402464F
:406740000B460020174900F0FDFD42E4AFF30080FE822B654715973C00000000432EE63FEF39FAFE422EE63F396CA80C615C20BED0A4BE726937663EF16BD2C541BDBB3EC6
:406780002CDE25AF6A56113F93BDBE166CC1663F3E5555555555C53F59F3F8C21F6EA5010000F0BF0000F03FFFFF8F40FFFF0F00FFCB904000346F3F634B9A4582DD634B03
:4067C0009A453FF7EDAB0022604B00F0DDFA54A3D3E9002306460F4600F08AFC52A3D3E90023CDE900013046394600F081FC3246CDE902013B463046394600F079FC002250
:4068000082468B4630463946514B00F071FC02460B4647A1D1E9000100F0B6FA32463B4600F066FC02460B4600204A4900F0ACFA02460B465046594600F05AFC3EA3D3E917
:40684000002300F055FC02460B46DDE9020100F09BFA06460F46DDE9000132463B4600F095FADDE90023002082468B4600F08CFA02460B463046394600F086FACDE902011E
:40688000DDE50026B44637E4334600202F4900F059FD0346FFF755BB29A3D3E90023DDE9040100F025FC26A3D3E9002300F020FC0346FFF746BBB8F1010F03467FF441AB59
:4068C00001F10041FFF73DBB00297FF446ABC3F58263033347FA03F000FA03F3BB4217D08846FFF710BB1B4B9C423FF709AEDDE90023924693462EE64FF480264FF0010C6C
:40690000FFF7FABB5A4600F0BBF902460B46D3E600F00100C0F10208FFF7F5BAAFF30080000000604715F73F44DF5DF80BAE543E555555555555D53FFE822B654715F73F3A
:406940009C7500883CE4377EFEFFEF3F0000F03F0000D03F0000E03F2DE9F041604E0C46B6460E40764505460B4600F098800029024676DD5FEA215E00F08180AEF2FF3ED7
:40698000C3F313031EF0010F43F480135ED100273C46D10F01EB43034FEA6E0E520016204FF4001165189D424FEAD2764FEA420202DC5B1B6C180F44013806EB43034FEA7A
:4069C0005101EFD1844620264FF000410AE0A34220D0D50F013E4FEA510105EB43034FEA420220D09C420CEB0105F0DA002D05EB010C09DBA0461B1B954288BF03F1FF33D2
:406A00004446521B0844E4E7BCF1000FF2DB04F10108F0E7954217D8002D05EB010C48DB98460023ECE7134315D140087B1003F17F5303F50013FA0703EB0E57394648BF49
:406A400040F00040BDE8F0811C46C2E7D10F01EB430352009BE7411C31D000F001031844E3E721F000460643ECD079BB8E46D30AAEF1150E5205002BF9D0DC0222D40021E4
:406A80005B00D80201F10101FAD5C1F10100C1F1200422FA04F4234386448A406EE702460B4600F025FB2A46234600F06FF9BDE8F081BCF1000FAADAA0460023A0E70137FA
:406AC0003046B3E7202401200021E2E702460B4600F05AF902460B4600F034FCB2E700BF0000F07F21F00041704700BF41F0004101F58010C00F704710B431F0004408D094
:406B0000114BA1F580129A4208D804205DF8044B704718B902205DF8044B704701F1FF41094B01F5E0019942EFD9B4F5801F01D20320EBE7054B9C4201D00020E6E7B0FAA2
:406B400080F04009E2E700BFFFFFDF7F0000F07F0020704700200149704700BF0000F87FF0B5C1F30A5EAEF2FF35132D83B002460B460C464FEAD17607462EDC002D48DBC1
:406B80003C49294101EA030010432BD049080B4053EA02070CD04FF48023132D24EA010143FA05F444EA01040CBF4FF0004700273149234601EBC606D6E900453A46204650
:406BC000294600F0E3F8CDE90001DDE9000122462B4600F0D9F803B0F0BD332D06DDB5F5806F43D01046194603B0F0BDAEF2134E4FF0FF3121FA0EF10142F3D049080142BB
:406C0000D6D04FF0804320EA010143FA0EF70F43CEE721F000410143E4D0C3F3130141EA000CCCF1000141EA0C0C13495C0C4FEA1C3C0CF4002C640401EBC6014CEA040332
:406C4000D1E900452046294600F0A0F8CDE90001DDE9000122462B4600F096F8024621F0004141EAC67310461946BDE700F08EF8BAE700BFFFFF0F00E8D1000000000000F0
:406C8000F8B5C1F30A5604460D460B46174616BB21F00043034332D00022314B00F028FA304A044697420D460B4637DB40F2FE72C1F30A56363E3E44964215DD24A1D1E963
:406CC000000122462B4600F053F821A3D3E9002300F00EFAF8BD40F2FF72964224D040F2FE723E449642E9DC002E09DD23F0FF4323F4E00343EA065520462946F8BDF8BDD5
:406D000016F1350F15DA4CF250339F42D6DC12A1D1E9000122462B4600F02AF80EA3D3E9002300F0E5F9F8BD02460B4600F02EF8F8BD23F0FF4323F4E003363643EA0655B2
:406D4000204629460022084B00F0D2F9F8BD00BF9C7500883CE4377E59F3F8C21F6EA50100005043B03CFFFF0000903CAFF3008003F0004321F0004243EA0201704700BF59
:406D800081F0004102E000BF83F0004330B54FEA41044FEA430594EA050F08BF90EA020F1FBF54EA000C55EA020C7FEA645C7FEA655C00F0E2804FEA5454D4EB5555B8BF27
:406DC0006D420CDD2C4480EA020281EA030382EA000083EA010180EA020281EA0303362D88BF30BD11F0004F4FEA01314FF4801C4CEA113102D0404261EB410113F0004F15
:406E00004FEA03334CEA133302D0524263EB430394EA050F00F0A780A4F10104D5F1200E0DDB02FA0EFC22FA05F2801841F1000103FA0EF2801843FA05F359410EE0A5F182
:406E400020050EF1200E012A03FA0EFC28BF4CF0020C43FA05F3C01851EBE37101F0004507D54FF0000EDCF1000C7EEB00006EEB0101B1F5801F1BD3B1F5001F0CD349089C
:406E80005FEA30004FEA3C0C04F101044FEA445212F5800F80F09A80BCF1004F08BF5FEA500C50F1000041EB045141EA050130BD5FEA4C0C404141EB010111F4801FA4F11E
:406EC0000104E9D191F0000F04BF01460020B1FA81F308BF2033A3F10B03B3F120020CDA0C3208DD02F1140CC2F10C0201FA0CF021FA02F10CE002F11402D8BFC2F1200C2B
:406F000001FA02F120FA0CFCDCBF41EA0C019040E41AA2BF01EB0451294330BD6FEA04041F3C1CDA0C340EDC04F11404C4F1200220FA04F001FA02F340EA030021FA04F3A8
:406F400045EA030130BDC4F10C04C4F1200220FA02F001FA04F340EA0300294630BD21FA04F0294630BD94F0000F83F4801306BF81F480110134013D4EE77FEA645C18BF53
:406F80007FEA655C29D094EA050F08BF90EA020F05D054EA000C04BF1946104630BD91EA030F1EBF0021002030BD5FEA545C05D14000494128BF41F0004130BD14F5800442
:406FC0003CBF01F5801130BD01F0004545F0FE4141F470014FF0000030BD7FEA645C1ABF194610467FEA655C1CBF0B46024650EA013406BF52EA033591EA030F41F40021C6
:4070000030BD00BF90F0000F04BF0021704730B54FF4806404F132044FF000054FF0000150E700BF90F0000F04BF0021704730B54FF4806404F1320410F0004548BF40429A
:407040004FF000013EE700BF42004FEAE2014FEA31014FEA02701FBF12F07F4393F07F4F81F06051704792F0000F14BF93F07F4F704730B54FF4607401F0004521F00041BC
:4070800020E700BF50EA010208BF704730B54FF000050AE050EA010208BF704730B511F0004502D5404261EB41014FF4806404F132045FEA915C3FF4DCAE4FF003025FEA9D
:4070C000DC0C18BF03325FEADC0C18BF033202EBDC02C2F1200300FA03FC20FA02F001FA03FE40EA0E0021FA02F11444C1E600BF70B54FF0FF0C4CF4E06C1CEA11541DBF77
:407100001CEA135594EA0C0F95EA0C0F00F0DEF82C4481EA030621EA4C5123EA4C5350EA013518BF52EA033541F4801143F4801338D0A0FB02CE4FF00005E1FB02E506F0F5
:407140000042E0FB03E54FF00006E1FB03569CF0000F18BF4EF0010EA4F1FF04B6F5007F64F5407404D25FEA4E0E6D4146EB060642EAC62141EA55514FEAC52040EA5E50C2
:407180004FEACE2EB4F1FD0C88BFBCF5E06F1ED8BEF1004F08BF5FEA500E50F1000041EB045170BD06F0004646EA010140EA020081EA0301B4EB5C04C2BFD4EB0C0541EAD0
:4071C000045170BD41F480114FF0000E013C00F3AB8014F1360FDEBF002001F0004170BDC4F10004203C35DA0C341BDC04F11404C4F1200500FA05F320FA04F001FA05F205
:4072000040EA020001F0004221F0004110EBD37021FA04F642EB06015EEA430E08BF20EAD37070BDC4F10C04C4F1200500FA04F320FA05F001FA04F240EA020001F000414E
