:400000000080002011000000093200000932000008B5044B1A6803F53F5302331A6003F013F900BFFA46004010B5054C237833B9044B13B10448AFF300800123237010BDF2
:400040001885FF1F0000000064C40000084B10B51BB108480849AFF300800848036803B910BD074B002BFBD0BDE81040184700BF0000000064C400001C85FF1F0881FF1FC9
:400080000000000080B562B601F094FF01F044FF00F09CFE00F0ACFE00F0ACFE00F0B6FE01F030F800F0B0FD00F0E6FB01F034FD00F058FF01F05AFA01F00EFC01F05CFB61
:4000C00003F088F801F078FF01F028FF01F02CF800F0A2FD00F0EEFB01F024FD00F068FF01F050FA01F036FC01F050FB03F076F8264C274D0FCD20606160A260E36007CD10
:4001000020616161A2612B782377204601F026FF204D05F120072E460FCE20606160A260E36035461034BE42F5D103CD20606160164C204601F012FF174D05F120072E460A
:400140000FCE20606160A260E36035461034BE42F5D1337823700D4801F000FF012003F061FD00F05DFD00F033FF01F00DFC01F00FFB03F037F800F04BFE00F0A5FB01F065
:40018000E3FE002003F04EFDE8E700BFB48AFF1F68C4000088C40000B0C40000014B1868704700BF3485FF1F014B5868704700BF3485FF1F10B50E4801F0D0FE0D4801F098
:4001C000CDFE0D4801F0CAFE0C4801F0C7FE0C4801F0C4FE0B4C204601F0C0FE0A4801F0BDFE204601F0BAFE084801F0B7FE10BDD4C4000008C500003CC5000084C500002A
:40020000E0C5000084CE00003CC600005CC6000010B5164801F0A2FE154801F09FFE154801F09CFE144801F099FE144801F096FE134801F093FE134801F090FE124801F055
:400240008DFE124801F08AFE114801F087FE114C204601F083FE104801F080FE204601F07DFE0E4801F07AFE10BD00BF74C60000A8C60000DCC6000024C7000098C70000A4
:400280000CC8000080C80000F4C800006CC90000E8C9000084CE000064CA000084CA000008B50022054B1A8010B9FFF783FF08BD012801D1FFF7ACFF08BD00BFAC8AFF1F6F
:4002C00010B5104801F04AFE0F4801F047FE0F4801F044FE0E4801F041FE0E4801F03EFE0D4801F03BFE0D4C204601F037FE0C4801F034FE204601F031FE0A4801F02EFEB8
:4003000010BD00BF9CCA0000C8CA0000F4CA000014CB000038CB000064CB000084CE000064CA00007CCB000010B590B044780378074A02EB83036846064952F824209B6815
:4003400008F026FE684601F009FE10B010BD00BF0C81FF1F94CB000010B504460378042B42D8DFE803F0030F1B293500836840786168984710B90123237010BD2046FFF759
:40038000D3FF10BDC36840786168984710B90223237010BD2046FFF7C7FF10BD0369407861689847012802D10323237010BD10B32046FFF7B9FF10BD4369407861689847D8
:4003C00010B90423237010BD2046FFF7ADFF10BD836940786168984710B90523237010BD2046FFF7A1FF10BD034B00229A60DA604078FFF755FF10BD3485FF1F08B5034820
:4004000001F0ACFD024801F0A9FD08BDBCCB0000F0CB000008B501F0B1FDA0F14303352B23D8DFE803F0211D22222222222222222222222222222222221B221F222222228E
:40044000222222222222211D22222222222222222222222222222222221B221F762008BD732008BD782008BD632008BD08B532280BD0332811D0312817D101F08DFD0C4B3B
:400480001A6800211170186808BD01F085FD094B1A6800211170186808BD01F07DFD064B1A6800211170186808BD002008BD00BFBC8BFF1FB88BFF1FDC8BFF1F08B5A0F141
:4004C0003103072B00F28480DFE803F0041220304050607101F060FD3E4801F03FFD3E4B1A68012151701A6800211170186808BD01F052FD394801F031FD394B1A680121BF
:4005000051701A6800211170186808BD01F044FD344801F023FD324B1A6801215170196800220A7018684368DA7108BD01F034FD2D4801F013FD2A4B196801224A701968AC
:400540000020087018684368DA7108BD01F024FD264801F003FD264B1A6801215170196800220A7018684368DA7108BD01F014FD204801F0F3FC1E4B196801224A70196877
:400580000020087018684368DA7108BD01F004FD194801F0E3FC194B1A6801215170196800220A70196849680A70186808BD01F0F3FC134801F0D2FC104B196801224A70BB
:4005C000196800200870196849680A70186808BD002008BD44CC0000E08BFF1F94CC0000E48BFF1FECCC00002CCD00006CCD0000C08BFF1FACCD0000ECCD0000D88BFF1F80
:4006000030CE000070B584B00C4600218DF80F108DF80E1058B3164605460DF10E02009221461A460DF10F0301F02CFB9DF80F309DF80E0034F9231034F9202036F81330B3
:4006400036F81000009028B201F044FB80B2A0F5FA639BB24FF62F02934205D9B0F57A7F38BF4FF47A7004E04FF4FA6001E040F2DC5004B070BD00BF10B50446084A13680A
:40068000188880B220EA040019881880118881F4004101F0F9FC204600F01CFE10BD00BFB48BFF1F10B50446064B1968088880B2A1F50041204389B201F0E6FC204600F052
:4006C000EDFD10BDB48BFF1F70B59EB003460E461546684612491A4608F05AFC684601F03DFC00240CE005A80E4956F8242035F8143008F04DFC05A801F030FC0134E4B2FF
:40070000312CF0D905A8084956F8242035F8143008F03EFC05A801F021FC1EB070BD00BF9CD0000074CE00007CCE0000F0B59DB007460C46086809A9032201F051FA06AE2B
:4007400060683146032201F04BFA03ADA0682946032201F045FA009601950CA804493A4609AB08F015FC0CA801F0F8FB1DB0F0BD88CE000038B5A0F13103032B63D8DFE8AF
:4007800003F00222425801F007FC2F4801F0E6FB2E4C204601F0E2FB2D4D2A682D4802F5CA7102F51872FFF78FFF2A682A4802F1540102F59072FFF787FF204601F0CEFB04
:4007C000FFF77EFD38BD01F0E7FB244801F0C6FB1E4C204601F0C2FB1D4D2A68204802F2144102F59C62FFF76FFF2A681D4802F5357102F56872FFF767FF204601F0AEFB5D
:40080000FFF75EFD38BD01F0C7FB174801F0A6FB0E4801F0A3FB0E4C216814480831FFF785FF216812481831FFF780FFFFF748FD38BD01F0B1FB0F4801F090FB034801F07A
:400840008DFBFFF73DFD38BDA4CE000084CE0000B48BFF1FE0CE0000F0CE000000CF000040CF000050CF000060CF000088CF000094CF0000A0CF000008B5084A084B1A600D
:40088000084A094B1A60094A094B1A6002F018FA01F0D2FE02F05AFC08BD00BF00800040B48BFF1F9D010000A88AFF1FA9010000B08AFF1F08B5034B1B68188880B200F009
:4008C00027FD08BDB48BFF1F10B5FFF7A3FD0446314B1B7C042B5BD8DFE803F0031B3249510073280FD0762807D0632853D1FFF761FC0122284B1A7410BDFFF789FC022273
:40090000254B1A7410BDFFF7DBFC0322224B1A7410BD214B9B681BB9FFF7A8FD1E4B98601D4B9B6833B1012000F04AFA1A4B9868FFF712FD782C2ED10422174B1A7410BD5F
:40094000154BDB681BB9FFF7B9FD134BD860124BDB6833B1012000F033FA0F4BD868FFF7FBFC782C17D104220B4B1A7410BDFFF701FF782C0FD10422074B1A7410BDFFF7CF
:400980003DFD002000F01CFA0022034B1A7410BD0022014B1A7410BD3485FF1F30B583B0002401F0D1FA01F0E9FA054601F0F4FAA5F13003DBB2092B01D92E2D05D102AB34
:4009C000234403F8085C0134E4B2042CE9D900238DF80530684607F09FFC07F037F903B030BD00BF014B186808307047B48BFF1F014B186818307047B48BFF1F014B1860CD
:400A0000596070473485FF1FF8B5224B1B681B8813F0010F2ED006460D464FF001040846002107F02DFC08B94FF00004E0B280F0010000EB4600184B53F820406768266809
:400A4000A06807F00DFA294607F05EFA07F022FCB042B8BF3046B842A8BF384607F000FA07F018FC04F10C0104F1D8023323FFF7C9FDF8BD094B5B7C43B9094801F06EFA7A
:400A80000122064B5A7440F2DC50F8BD40F2DC50F8BD00BFB48BFF1FC88BFF1F3485FF1FC8CF000008B50120FFF7E6FD0220FFF7E3FD08BD2DE9F04F85B080460F46144660
:400AC0009A46DDF838B08500184600212A4607F089FC584600212A4607F084FC18F0010F00F08D80474B1D682B8813F0010F00F08680E86C2B6D90FBF3F007F0B1F901904F
:400B0000D5F8CC02D5F8D03290FBF3F007F0A8F90646D5F88801D5F8903190FBF3F007F09FF98146D5F80804D5F8103490FBF3F007F096F905460198314607F083FB00B1F2
:400B4000019E4846294607F09BFB00B14D463046394607F0D9F981463046214607F0D4F906462846394607F0CFF901902846214607F0CAF907464FEA58043046494607F0EC
:400B8000B9F80290204607F06BF905460298294607F06EFA02903846019907F0ABF8294607F066FA03904AF824604BF82470002510E04AF82590019B4BF8253048460299DB
:400BC00007F09AF881460198039907F095F801900135EDB2A542ECD30FE04AF824604BF824703046029907F085F806463846039907F080F807460134E4B24445EDD305B0E4
:400C0000BDE8F08FB48BFF1F014A024B1A607047011200004885FF1F704700BF00000000D0B582B000F08CFA044610F0010F01D000F004FD04F002039BB20BB100F0DAFDE4
:400C400004F00404A4B20CB1FFF72CFF524B1B790BB900F08BFA50490B6801F108000C3101AA984742F21073019A9A4204D94A4B00229A60DA6042E0474B9C68204606F003
:400C8000CFFC06460F4640A3D3E9002306F08EFF38B1304639463EA3D3E9002306F086FF48B93046394638A3D3E9002306F07EFF10B93A4C00E03A4C374B9C60DC6820466A
:400CC00006F0AEFC06460F462FA3D3E9002306F06DFF38B1304639462DA3D3E9002306F065FF48B93046394627A3D3E9002306F05DFF10B9294C00E0294C274BDC60264B16
:400D00009C68204606F08CFC06460F461EA3D3E9002306F04BFF38B1304639461CA3D3E9002306F043FF48B93046394616A3D3E9002306F03BFF10B9184C00E0184C164B06
:400D40009C60DC68204606F06BFC06460F460EA3D3E9002306F02AFF38B1304639460CA3D3E9002306F022FF48B93046394606A3D3E9002306F01AFF10B9084C00E0084CBF
:400D8000054BDC6002B0D0BDBB3CC3451442E83FBB3CC3451442E8BF4885FF1FA210423FA21042BFAFF30080014B9868704700BF4885FF1F014BD868704700BF4885FF1F63
:400DC000014B1871704700BF4885FF1F08B5064800214FF4807207F005FB044A138843F07F03138008BD00BFB48AFF1FAC8AFF1F704700BF08B5002002F014FF00F0A8FE12
:400E0000014B186008BD00BF5885FF1F704700BF08B500F09DFE0A4A1368C01A506006F0DDFB0022074B06F0DFFE40B100F090FE034B18609868421C9A6000F045FB08BDC1
:400E40005885FF1F00407F40F8B504460E46436B9847A060E368C31A2361E06004F12405184606F0FDFF0146284600F08FFE60611D4907F049F80546304606F0EDFF0146CB
:400E8000284607F0F5F8014604F12C0000F07EFEA06106F0C5FB10A3D3E9002306F014FC06F0D4FEE061606906F0BAFB0CA3D3E9002306F009FC00220C4B06F02FFD0646D0
:400EC0000F46206A06F0ACFB32463B4606F04AFA06F0BCFE2062F8BD4C2438F292602F3F72D38A804FA4DE3F00007A4400409F4030B593B0044680690FA9032200F070FE90
:400F000060690CA9032200F06BFEE06909A9032200F066FE206A06A9032200F061FE0E4B1B8813F0030F14D00C4D0FAB009309AB01930CAB02932369039306AB049328468D
:400F40004FF48071064A234607F0F0FF284601F005F813B030BD00BFAC8AFF1FB48AFF1F54D0000010B40F4B00219960D960196100225A611A629A620B4C5C621A630B48DA
:400F8000D8629A61DA6159649964D9641A65DA655A661C66DA6698665A659A655DF8044B704700BF2C81FF1F0000A0410000204110B503F08DF802F073FF044CA36B002088
:400FC0009847636F0020984710BD00BF2C81FF1F38B500F0BDFD1A4A1368C01A506006F0FDFA0022174B06F0F5FD38B300F0B0FD134B18601B7A2BB90122114B1A72072088
:4010000002F064FB104D0E4C28466168FFF71CFF05F13C006168FFF717FF0C4B1B8813F0010F02D02846FFF763FF084B1B8803F002039BB213B10648FFF75AFF38BD00BF64
:401040006485FF1F000049402C81FF1FAC8AFF1F6881FF1F014B9869704700BF2C81FF1F014B586D704700BF2C81FF1F014BD869704700BF2C81FF1F014B986D704700BF45
:401080002C81FF1F014B186A704700BF2C81FF1F014BD86D704700BF2C81FF1F70B5164CA36B002098470026E660266100256561A562A561E5612563A6602562636F304662
:4010C0009847A664E664256565666565A565E5666664E565094B1B8813F0010F02D02046FFF706FF054B1B8803F002039BB213B10348FFF7FDFE70BD2C81FF1FAC8AFF1F74
:401100006881FF1F10B5074C20460021A82207F069F90023A4F8A830A4F8AA30A4F8AC3010BD00BF7085FF1F08B502F04FFCA8200C21024A02F06CFC08BD00BF7085FF1F96
:4011400008B502F051FC0028FBD14FF40043044A1360044A108800211180034A136008BD80E100E07085FF1F00E100E008B502F03BFC0028FBD14FF400431D4A13601D4A65
:4011800051881D480360B2F8AC3023EA01030B43A2F8AC300021194A118013F0010F01D00321118003F0020292B222B113490A8842F00C020A8003F0040292B222B10F4957
:4011C0000A8842F030020A8003F0080292B222B10A490A8842F040020A8003F010039BB223B1064A138843F08003138008BD00BF80E100E07085FF1F00E100E0AC8AFF1F30
:40120000F0B597B007460E46154602F0EDFB10F0020F17D01D4C0023C4F8B03060686946032200F0DDFCA06803A9032200F0D8FC06A817496A4603AB07F0AAFE06A800F021
:401240008DFE0EE000F084FC104CD4F8B430C01AD4F8B0300344C4F8B03000F079FCC4F8B40002F0C1FB0028FBD14FF40042094B1A60064B596839609968316006490A6050
:40128000D3F8B0302B6017B0F0BD00BF7085FF1F70D0000080E100E000E100E008B50A4AB2F8AA301843A2F8AA0002F09DFB0028FBD14FF40043054A1360034AB2F8AA10C5
:4012C000D181034A136008BD7085FF1F80E100E000E100E008B50B4AB2F8AA3023EA0000A2F8AA0002F080FB0028FBD14FF40043054A1360034AB2F8AA10D181034A1360AF
:4013000008BD00BF7085FF1F80E100E000E100E008B5094BA3F8AA0002F066FB0028FBD14FF40043054A1360034AB2F8AA10D181034A136008BD00BF7085FF1F80E100E094
:4013400000E100E0F8B507460E4615461C4602F04BFB0028FBD14FF400431C4A13601C4A17611C4A136002F03FFB0028FBD14FF40043164A1360164A5661164A136002F00A
:4013800033FB0028FBD14FF40043104A1360104A9561104A136002F027FB0028FBD14FF400430A4A13600A4AD4610A4A136002F01BFB0028FBD14FF40043044A1360044A65
:4013C00006991162034A1360F8BD00BF80E100E07085FF1F00E100E070B5054602F004FB0028FBD14FF40046074B1E60074C28686968AA68EB680FC428696969AA69EB692E
:401400000FC4034B1E6070BD80E100E0D485FF1F00E100E070B5054602F0E6FA0028FBD14FF40046074B1E60074C28686968AA68EB680FC428696969AA69EB690FC4034B01
:401440001E6070BD80E100E0D485FF1F00E100E070B5054602F0C8FA0028FBD14FF40046074B1E60074C28686968AA68EB680FC428696969AA69EB690FC4034B1E6070BD55
:4014800080E100E09485FF1F00E100E070B5054602F0AAFA0028FBD14FF40046074B1E60074C28686968AA68EB680FC428696969AA69EB690FC4034B1E6070BD80E100E0DD
:4014C000D485FF1F00E100E010B5044602F08CFA0028FBD14FF40043034A1360034AC2F8A440034A136010BD80E100E07085FF1F00E100E038B505460C46836998471A4BAC
:40150000188040F2DC5398422CD0C0F5BB60043080B2154B588004EB8401490010F4004F02D003B25B4200E003B2B1FBF3F10E4B596000B2002801DD0A2201E04FF6F67291
:40154000094B1A81084C20882389184480B220806B699847606802F0B9F8228840F2DC539A42EFD138BD00BF2886FF1F10B5044CA36801209847636A0120984710BD00BFE8
:40158000A481FF1F10B50A4CA36800209847E3689847636940F2DC509847636A00209847A36A9847236B40F2DC50984710BD00BFA481FF1F08B5A0F5FA639BB24FF62F02CC
:4015C000934205D9B0F57A7F38BF4FF47A7001E04FF4FA60014B5B69984708BDA481FF1F08B5A0F5FA639BB24FF62F02934205D9B0F57A7F38BF4FF47A7001E04FF4FA609C
:40160000014B1B6B984708BDA481FF1F10B50C46FFF7D0FF2046FFF7E3FF10BD08B5024B9B69984708BD00BFA481FF1F08B5024B5B6B984708BD00BFA481FF1F10B50A4CC5
:40164000636940F2DC509847236B40F2DC50984723699847E36A9847A36801209847636A0120984710BD00BFA481FF1F08B501460148FFF73FFF08BDA481FF1F08B50146CB
:401680000148FFF737FF08BDC081FF1F0000000070B5FFF7EBFC164C2060FFF7EDFC6060FFF7F0FC0646FFF7F3FC05463046294606F020FB05F0B4FF0BA3D3E9002306F08F
:4016C0002DF906F0C3FAA0603046E16806F012FB20612846616906F00DFBA061E660656170BD00BFAFF30080986E1283C0CAD93F3486FF1FAFF3008010B594B01A4C20684F
:4017000011A9032200F06CFA60680EA9032200F067FA20690BA9032200F062FAA06908A9032200F05DFAA06805A9032200F058FA0E4B1B8803F040039BB293B10C4C0EABBA
:4017400000930BAB019308AB029305AB039320464FF48071074A11AB07F0E8FB204600F0FDFB14B010BD00BF3486FF1FAC8AFF1FB48AFF1F7CD00000034B00221A605A6067
:401780001A619A61704700BF3486FF1F704700BF10B582B000F0DCF9144BDC69041B204605F01CFF0022124B06F01EFAD8B100F0CFF90E4BD86193F8203033B901220B4B5A
:4017C00083F820200B2001F081FF2046FFF760FF064C206861682269A369A4680094FFF7B1FDFFF789FF02B010BD00BF3486FF1F0000494000B583B0074A002313605360BA
:401800001361936193600093184619461A46FFF799FD03B05DF804FB3486FF1F000000002DE9F0470446436C98478146002106F027FD10B14FF0010A01E04FF0FF0AA36CC8
:401840009847054604F10808484605F0E9FE20A3D3E9002306F062F806460F460022002306F0A4F950B109F1004005F0D9FE18A3D3E9002306F052F806460F4630463946ED
:4018800006F0E4F90146404600F042FB2846002106F0D8FC10B105F1004100E02946404600F038FB404600F033FA78B1E56C2669A4794FFA8AF006F0D3FA0146304606F010
:4018C00023FB01462046FFF79FF8A847BDE8F0874C2438F292602F3F2DE9F04387B00026164B1E70164D174B6B64174BC5F898300024DFF85890CDF800900194DFF8508007
:40190000CDF8088001270397049605F1080021462246234600F0D2FACDF800900194CDF808800397049605F15C0021462246234600F0C4FA07B0BDE8F08300BF5886FF1FDF
:40194000DC81FF1FA90D0000B50D00008988883D00409C4510B5FFF745F8094C01684268836804F1080000F073FAFFF741F801684268836804F15C0000F06AFA10BD00BF7A
:40198000DC81FF1F0000000010B500F0E1F8224B5B68C01A05F022FE1DA3D3E9002306F019F9002832D000F0D3F81B4B58601B7A2BB90122184B1A72132001F087FE174CBE
:4019C0002046FFF72DFF04F15400FFF729FF144B1B8803F004039BB23BB1236D98470246204604F1080101F08BF90D4B1B8803F008039BB253B1094CD4F8A43098470246CD
:401A000004F1540004F15C0101F07AF910BD00BFABAAAAAAAAAA50405886FF1FDC81FF1FAC8AFF1FAFF30080024B5864C3F89810704700BFDC81FF1F034B044A5A64044A9C
:401A4000C3F89820704700BFDC81FF1FA90D0000B50D0000074B00229A60DA62DA60DA631A61DA65C3F880201A66C3F890205A66704700BFDC81FF1F38B508B9002400E006
:401A80000124064D05F10800214600F093F905F15C00214600F08EF938BD00BFDC81FF1F38B505460C46134602482946224600F0CFF938BDE481FF1F38B505460C46134657
:401AC00002482946224600F0C3F938BD3882FF1F10B4054B5C69046098690860DB6913605DF8044B704700BFDC81FF1F10B4054B9C6E0460D86E08601B6F13605DF8044B89
:401B0000704700BFDC81FF1F024A136801331360704700BF6486FF1F0022014B1A6070476486FF1F10B501F0ABFE01F077FE002409E0204601F0BAFE20B92046034901F0C4
:401B4000ADFE10BD0134042CF3D910BD091B0000014B1868704700BF6486FF1F30B5002406E0094D85FB00E5C017C0EBA50001340028F6D103E030208854013201349C4237
:401B8000F9DB104630BD00BF67666666F8B504464668304606F0B0F8074625683046294606F066FA0146384606F0A4F86060294606F05EFAF8BD00BF030A0B7048707047A9
:401BC00082B001909DF804300B709DF805304B709DF806308B709DF80730CB7002B070472DE9F84306460D469046002106F02AFB50B12D232B703046002106F023FB08B1D1
:401C000006F10046012400E00024304606F042FB074629190A2206F0D8FB07F0DDF92044B8F1000F29DD2E232B54441C384606F017F90146304606F05DF88146404605F024
:401C4000DDFC02460B4600200D4904F0A7FA06460F46484605F0E4FC32463B4605F034FD05F0CCFF0646294622464346FFF776FF291830460A2206F0A8FBBDE8F88300BF92
:401C800000002440F0B4049F013AD2B2540800251D703D7019E051F82460864203DA651CEDB21C700CE0864202D11C703C700EE0864205DD3C701A78A21A012A07D022462D
:401CC000AC1804EBD474C4F347049542E3D9F0BC704700BF30B4BDF8084091420AD19C4201D198B211E0E41A04EBD47403EB640080B20AE0401A25B21CB22C1B04FB00F4DC
:401D0000521A94FBF2F2981880B200B230BC70472DE9F84390F83930002B48D004460768406B394605F0E6FF8046E069414606F0EBF8616A05F0E0FF05466062E66A314669
:401D400006F080FA40B9D4F830902846494606F097FA10B14D4600E0354665623846616805F0C8FF8146A069414606F0CDF80146284605F0C1FF0546206A494606F0C4F8DF
:401D80000146284605F0B6FF0546A0603046294606F076FA30B9266B2846314606F070FA00B92E46A66067600120BDE8F8830020BDE8F883F8B504460D4690F839308B42EC
:401DC00014D0012912D18668466203684360C76A3046394606F036FA38B9276B3046394606F04EFA00B13E463746676284F83950F8BD00BFF8B504460D461646084611460D
:401E000006F034FA18BBE562266394F83930012B1DD1A7683846294606F014FA30B93046394606F00FFA10B1374600E02F46A760676A3846294606F005FA30B930463946C4
:401E400006F000FA10B1374600E02F466762F8BD2DE9F04104460D4616461F460846002106F0F0F938BB3046002106F0EBF910BB3846002106F0E6F9E8B9E5602661676196
:401E8000A561D4F828804046314606F03DF80646E0613846414606F0EBF8206294F83830012B08D105F10045A56106F10046E66100F100402062BDE8F08100BFF8B5044656
:401EC0000F4616461D469DF8283080F838309DF8243080F83930002141620160416081604163069806F0CCF910B1069BA36202E04FF07E53A36220460799089AFFF77AFF1E
:401F00002046394632462B46FFF7A2FFF8BD00BF4163704701607047704700BF08B50020012102F091FA02F0D9FA20B102F0D0FA08B102F0FDFB02F0CBFA10B1014802F0BB
:401F400043FC08BDA4D0000008B502F0C7FA20B102F0BEFA08B102F0EBFB08BD10B50446FFF7F2FF02F0B4FA30B102F09BFC0028FBD0204602F028FC10BD00BF08B502F0FE
:401F8000A7FA034630B102F081FC034610B102F095FC0346184608BD10B5044602F098FA30B102F07FFC0028FBD0204602F05AFC10BD00BF704700BF08B501F045FE08BDB4
:401FC0002DE9F04780460D46170912F00F021CD0C2F1100A1FFA8AFA02EB07121FFA82F9002426460CE009EB060118F8040089B201F02EFE0134A4B2013DADB20136B6B2AE
:402000005645F0D30137BFB200E00024C5F30F19B9F1000F0ED110E008EB0400F9B201F081FE1034A4B2103DADB20137BFB20136B6B200E000264E45EED3ADB13F01BFB224
:40204000A94600260DE0B91918F8040089B201F0FFFD0134A4B209F1FF391FFA89F90136B6B2B542EFD84D462DB104487A21044A044B06F035F9BDE8F08700BFD4D0000003
:40208000C0D00000E8D0000010B582B00C4601A9FFF792FD9DF80400214601F0D9FD611C9DF8050089B201F0D3FD02B010BD00BF30B583B00D4601A9FFF782FD002409E0B1
:4020C00002AB2344291913F8040C89B201F0C0FD0134E4B2032CF3D903B030BD0000000038B5434B1B68DA6C196D92FBF1F2002A05DADA6C5242186D92FBF0F003E0D86CEA
:402100001A6D90FBF2F03B4A1060D3F88821D3F8901192FBF1F2002A07DAD3F888215242D3F8901192FBF1F105E0D3F88811D3F8902191FBF2F12F4A5160D3F8CC22D3F896
:40214000D04292FBF4F2002A07DAD3F8CC526A42D3F8D05292FBF5F505E0D3F8CC52D3F8D02295FBF2F5234A9560D3F80824D3F8104492FBF4F2002A07DAD3F80824524253
:40218000D3F8103492FBF3F305E0D3F80824D3F8103492FBF3F3174CE36002468842A8BF0A462261AB42A8BF2B4663619A42A8BF1A461046A26105F053FE05F031FA08A3B7
:4021C000D3E9002305F080FA07A3D3E9002305F07BFA05F03BFDE06138BD00BFAFF300804C2438F292602F3F9A9999999999C93FB48BFF1F6886FF1F0022024B83F820202E
:40220000704700BF6886FF1F08B510B1012807D00DE0114B93F8202003EB8203586A07E00D4B93F8202003EB8203186C00E00020094A92F82030013382F8203005F0F0F94B
:4022400003A3D3E9002305F03FFA05F0FFFC08BD4C2438F292602F3F6886FF1FAFF3008010B584B010B101281DD01FE00C461148FFF774FEA37913B1012B0AD016E001A867
:4022800002A903AAFFF724FC0B4801A9FEF74EFA0CE001A802A903AAFFF728FC074801A9FEF744FA02E00648FFF758FE002004B010BD00BFF8D0000088CF000094CF0000E5
:4022C00020D1000038B504460C4D2968A1F5FF417839006889B2FFF7EBFE2968A1F5FF417439606889B2FFF7E3FE2968A1F5FF417039A06889B2FFF7DBFE38BDB48BFF1F61
:4023000038B504460C4D2968A1F5FF416839006889B2FFF7CDFE2968A1F5FF416439606889B2FFF7C5FE2968A1F5FF416039A06889B2FFF7BDFE38BDB48BFF1F30B595B071
:4023400004460D4600210846FEF758FB14B1012C21D028E0AB7913B1012B09D010E001A802A903AAFFF7B4FB01A8FFF7ABFF07E001A802A903AAFFF7B9FB01A8FFF7C0FF62
:40238000FFF75AFB04A80C492A4606F001FE04A8FFF7E4FD07E004A808492A4606F0F8FD04A8FFF7DBFD064BB3F85C20054B1A80002015B030BD00BF44D1000064D10000F3
:4023C0006886FF1FAC8AFF1F30B595B00446C079FFF71AFF0546A37913B1012B04D007E00021FEF70BFB03E000202946FEF706FB284611A90322FFF7F3FB01A8074911AA46
:4024000006F0C6FD01A8FFF7A9FD054B93F8200006288CBF0020012015B030BD84D100006886FF1F10B50C4610B101280AD01BE0FFF78EFB104B1B6EC01AA368984215D2F7
:40244000002010BDFFF784FB0B4B1B6EC01AA36898420DD3FFF77CFB074B18662046FFF7B3FF38B9012010BD012010BD012010BD002010BD002010BD6886FF1F2DE9F04149
:402480000C4610B1012844D059E02E48FFF766FDFEF784FA80462C48FFF760FDFEF77EFA07462A48FFF75AFDFEF778FA06462848FFF754FD0120FFF7DFFAFEF7EFFDFFF71A
:4024C000C9FAFFF797F9FFF70BFE0546A37913B1012B0AD012E0404639463246FFF7E0FA28460021FEF78AFA08E0404639463246FFF7E2FA00202946FEF780FA1548FFF794
:402500002DFD1348FFF72AFDFFF722FB124B186615E00120FFF7B0FAFEF7C0FDFFF79AFAFFF768F90D48FFF719FD0948FFF716FDFFF70EFB084B18662046FFF745FF002077
:40254000BDE8F08190D10000ACD10000C4D1000084CE0000E0D100006886FF1FF0D1000010B592B00C4610B1012824D051E002A82949224606F00CFD02A8FFF7EFFC00216B
:402580000846FEF73BFA254B1868254B1968FFF74BFA244B1A88244BA3F85C20A37913B1012B04D035E004221E4B1A8031E008221C4B1A802DE002A81C49224606F0E8FC38
:4025C00002A8FFF7CBFC184B164A1288A3F85C2003F14002009207201549164A2433FEF769FA00210846FEF709FA0C4B18680C4B1968FFF719FAFFF7FFFDA37913B1012B87
:4026000004D006E00522074B1A8002E00A22054B1A80002012B010BD00D20000A88AFF1FB08AFF1FAC8AFF1F6886FF1F18D20000CDCC4C3ECDCC4C3F054B064A136003F114
:402640001C0205490A6005490B60054B1A6070478482FF1FB88BFF1FDC8BFF1FE48BFF1FC08BFF1FF0B40C4D4F007C186400460033189B002344EC5A184628448188002337
:4026800005E022F813400133DBB20C44A4B2322BF7D9F0BC704700BFD482FF1F10B4002308E050F8232051F82340224441F823200133DBB2322BF4D95DF8044B704700BFB1
:4026C00010B4002307E050F8234094FBF1F442F823400133DBB2322BF5D95DF8044B704770B46FF000430B604FF00043136000230DE09D0050F823401668B44200DD1460C6
:4027000044590D68AC4200DA0C600133DBB2322BEFD970BC704700BF0F4B1B780B2B04D100220D4B1A700120704710B1012806D00BE0094A02EB830252680A6007E0074A2B
:4027400002EB830292690A6001E000220A600133014A137000207047CC86FF1FD482FF1F10B51248FFF7FAFB114C2268114802F5CA7102F51872FDF7A7FF22680E4802F1EE
:40278000540102F59072FDF79FFF22680B4802F2144102F59C62FDF797FF2268084802F5357102F56872FDF78FFF10BD84CE0000B48BFF1FE0CE0000F0CE000040CF0000D3
:4027C00050CF000008B510B1012806D008E00548FFF7C4FBFFF7C4FF02E00348FFF7BEFB002008BD30D2000058D200000000000038B50446084604F013FF0BA3D3E9002395
:4028000004F062FF05F022FA0546237D13B90021FEF7F4F8237D012B03D100202946FEF7EDF838BDAFF300804C2438F292602F3F08B510B1012804D00AE00648FFF78EFB2D
:4028400006E00548FFF78AFB00210846FEF7D6F8002008BD80D20000A4D2000008B510B1012807D00FE00948FFF778FB0120FDF719FF08E00648FFF771FB00210846FEF77B
:40288000BDF8FFF7D9F8002008BD00BFC4D20000E4D2000070B506460368084698470025002412E0FEF794FB042C09D9336998470C4905F029FB0146284605F01DFA0546DD
:4028C0000A2000F003FF0134E4B2362CEAD9284605F0E0FC044B83FB0023C017C0EB231070BD00BF0000C8421F85EB512DE9F8430646894690461F46036840F2DC509847C3
:402900004FF4FA7000F0E2FEFEF7C8FB00240EE01FB1C4F13205EDB200E02546304639F81510FFF7B7FF48F825000134E4B2322CEED9B3684FF47A709847336840F2DC50BD
:402940009847BDE8F88300BF2DE9F04105460F469046104C6423A36304F130060846314604F13402FFF7BCFE04F13C003946CC2205F02DFD04F584704146662205F027FD56
:40298000AAB230464FF4A07182F40042FFF718FBBDE8F081CC86FF1F2DE9F0478146884600EB4003DB001F4F1F441F4C04F5B872FFF758FEB8F1010F14BF4FF0000A4FF000
:4029C000010A04F5EC700021CC2205F00BFD002410E0154D05F52976384605F5B87132465346FFF783FF304605F5EC71FFF756FE0134E4B2022CECD90B4C04F5297504F576
:402A0000EC7003212A46FFF75BFE08EB4908074B53F82800294604F5B872FFF795FFBDE8F08700BF1883FF1FCC86FF1FC88BFF1F2DE9F047A0B007460D46144698460846FA
:402A400004F0EEFD1AA3D3E9002304F03DFE05F0FDF88246214605F04DF9814628461DA90322FFF7BDF81AAD204629460322FFF7B7F817AE504631460322FFF7B1F814ACD1
:402A8000484621460622FFF7ABF8009601950294CDF80C8004A808493A461DAB06F078FA04A8FFF75BFA20B0BDE8F087AFF300804C2438F292602F3F00D30000AFF30080AC
:402AC0002DE9F04104460E46056A2D4B93F87033E3B900210846FDF791FFA07F2949FFF71BFE30B12B6840F2DC5098470120BDE8F081234F2846D7F87413FFF779FEFFF72C
:402B000027F8C7F87803012387F870331C4B93F8700398B3FFF71CF8194BD3F87833C01AB0422AD3164ED6F87483EB68984707466B6898470346204641463A46FFF778FF1C
:402B4000A07F06F55D71FFF7E7FD48B1002286F8702300210846FDF751FFFF20BDE8F081074C2846D4F87413FFF742FEFEF7F0FFC4F878030020BDE8F0810020BDE8F081AE
:402B8000CC86FF1F408AFF1F38B52B4B1C8810B1012829D04AE040F2DC500146FEF736FD254D11232B802548FFF7D8F900200146FFF7F2FE2248FFF7D1F900200121FFF7A8
:402BC000EBFE22232B801F48FFF7C8F901200021FFF7E2FE1C48FFF7C1F901200146FFF7DBFE2C80012038BD184B93F87C3303EBC3039B00164818440968FFF761FFFF2825
:402C000016D11448FFF7AAF9104A92F87C330133DBB282F87C33042B0CD10F48FFF79EF900210846FDF7EAFE012038BD002038BD002038BD002038BDAC8AFF1F34D3000050
:402C400050D300006CD3000088D30000CC86FF1F4883FF1FA8D30000C8D3000000B583B010B1012804D017E00D48FFF777F913E00C48FFF773F90C4B00930B200B490C4A68
:402C80000C4BFDF717FF0120FEF7F6FE0A4B18680A4B1968FEF7C8FE002003B05DF804FBE8D300000CD40000EC82FF1FCDCC4C3ECDCC4C3FD086FF1FA88AFF1FB08AFF1F92
:402CC0000A4B1B6803F14801094A116003F5C471516003F53271916003F58163D360054B054A1360054A1360704700BFB48BFF1FC88BFF1FD883FF1FBC8BFF1FE08BFF1F03
:402D00002DE9F04F9BB007460C469046486B03F02BFA10B1D4F834B001E04FF0000B206803F022FA10B1D4F800A001E04FF0000A606B216804F0DEFF03F016FA28B1606B5D
:402D4000216804F0D7FF814601E04FF00009606803F00AFA08B1666800E00026606A03F003FA08B1656A00E00025A06803F0FCF908B1A46800E00024584617A90322FEF74C
:402D80002FFF504614A90322FEF72AFF484611A90322FEF725FF30460EA90322FEF720FF28460BA90322FEF71BFF204608A90322FEF716FF104B1B8803F00C03C3B10F4CF8
:402DC00017AB009314AB019311AB02930EAB03930BAB049308AB0593CDF8188020464FF48071074A3B4606F0A1F82046FFF7B6F81BB0BDE8F08F00BFAC8AFF1FB48AFF1F33
:402E00002CD400000378F12B05D190F82230F82B03D000207047002070470120704700BF70B50E461A4B185C02F0B2FF1948232102F0F0FE02F092FE0446FEF789FE054603
:402E4000002005E002F08AFE0446FEF781FE401B232C01D06328F5D9632805D930460021232205F0BFFA70BD02F0C2FE002406E002F042FE084B187030550134E4B202F016
:402E80006DFE08B1222CF3D902F092FE70BD00BF4CD40000F883FF1F4C8AFF1F704700BF08B502F085FE02F0A3FE02F013FF08BD30B58BB00C460E4B185C01A9FFF7B0FF27
:402EC00001A8FFF79FFF88B10AAB53F8225D58689968DA6825606060A160E2601D6958699969DA6925616061A161E2610BB030BD4CD40000012805D108B50348FFF72EF84F
:402F0000002008BD0020704750D4000000000000F0B59BB004460D4600210846FDF76EFD012C4AD1FEF7AEF80646FEF7B1F804463046214604F0DEFE04F072FB22A3D3E9B0
:402F4000002304F0EBFC04F081FE0746304617A90322FEF745FE204614A90322FEF740FE384611A90622FEF73BFE2B780BB9184A00E0184A01A8184906F00AF801A8FEF74C
:402F8000EDFF01A8154917AA14AB06F001F801A8FEF7E4FF01A8124911AA05F0F9FF01A8FEF7DCFF0F4B1A685B6801A80E49D21A05F0EEFF01A8FEF7D1FF0A4B1A890B4BE0
:402FC0001A8000201BB0F0BD986E1283C0CAD93F78D4000080D400008CD40000B0D40000E4D40000508AFF1FF4D40000AC8AFF1F01283FD170B50C46FEF7AAFD1F4B5B6899
:40300000C01A636898422CD2FEF73CF8002105F019F920B1FEF736F800F1004502E0FEF731F80546FEF734F8002105F00BF920B1FEF72EF800F1004602E0FEF729F80646AB
:40304000A4682846214605F0FDF820B13046214605F0F8F880B9FEF77BFD084B1860012070BDFEF775FD054B18600548FEF776FF012070BD01207047002070BD508AFF1FE2
:4030800008D50000012822D110B50C461148FEF765FF0120FEF7F0FCFEF700F8FEF7DAFCFEF7A8FBE1682378012B01D101F100410846FDF7A3FC0848FEF750FF0748FEF72E
:4030C0004DFFFEF745FD064B5860002010BD0020704700BF20D50000F0D1000084CE0000508AFF1F012821D100B591B00B780BB90F4A00E00F4A68460F4905F049FF6846E6
:40310000FEF72CFF00210846FDF778FC0B4B18680B4B1968FEF788FC0A4B19880A4A11814F221A80002011B05DF804FB0020704778D4000080D400003CD50000A88AFF1F7E
:40314000B08AFF1FAC8AFF1F508AFF1F014A024B1A6070471C84FF1FD88BFF1F00B589B000206946FFF7A4FE6846FEF771F909B05DF804FB00B589B002206946FFF798FEE9
:403180006846FEF729F909B05DF804FB08B5FFF7E5FFFFF7EFFF08BD00B589B001206946FFF786FE6846FEF771F909B05DF804FB00B589B003206946FFF77AFE6846FEF7DA
:4031C00029F909B05DF804FB08B5FFF7E5FFFFF7EFFF08BD08B5FFF761FE08BD08B5FFF75FFE08BD08B5FEF7B3FC04F0F7F90022044B04F0EFFC18B1FFF7C8FFFFF7E4FFC0
:4032000008BD00BF00005940FEE700BF08B5C0B200F05AFAFEE700BF08B5094B1A681044084BC31A802B02DC054B186005E005F077F80C2303604FF0FF32104608BD00BF29
:403240004884FF1F008DFF1F08B5104E104D16E029686B68AC68002204E051F8040B43F8040B0432A242F8D1E868002203E0002143F8041B04328242F9D11035013E002E02
:40328000E6D105F065F8FCF7FDFEFEE70100000070DA000008B5124A124B1A60124A136843F40073136000230AE0032B03D80F4A52F8231000E00E490E4A42F823100133E7
:4032C0002F2BF2D90C4B1A780C4B1A70094A0C4B1A6000F0B9F800220A4B1A6008BD00BF0004FA050CED00E014ED00E000000000093200000080FF1FBC7600400481FF1FFA
:4033000008ED00E00081FF1FF0B40022174611E050F82760F3B226F0FF0608E001EB420511F812406D78A5550132013BDBB2002BF4D10137242FEBD9F0BC7047064B1B789F
:40334000DBB203F00701054A11701B09013213704422034B1A707047CF0100496E5800407658004008B50A46002105F03BF808BD38B50122264B1A801823264A137017225C
:4033800025490A8002310B7002310A80234A13700622234B1A705222A3F580731A70214B1B78DBB2204A13700024204B1C8040F6180203F21E231A8041F25122023B1A80D0
:4033C00019250CE01A4B1B7803F0010343EA440404F003044FF4F07000F066F9013D0DB1032CEFD1114A07231370002311490B7048200231087013700532137002220E4B9A
:403400001A700E4A137843F00703137038BD00BF8040004082400040844000408A400040004300400F010049A146004004400040254200400640004001400040A243004041
:4034400008B504F0C4FF08BD38B572B63A4A137843F00403137000240CE0384963001A1952000A4423445B00C8589188FFF77AFF0134E4B2072CF0D900240FE02F49A3000C
:403480001A1952000A4452F8300F23445B000B4451681A8FFFF7D4FF0134E4B2022CEDD94FF090402649FFF72FFF264A137843F0020313701032137843F002031370224C67
:4034C000237843F040032370A2F58632513A137843F0100313701D481D490822FFF7B0FF1C481D490822FFF7ABFF1C481C490A22FFF7A6FF1B481C490A22FFF7A1FFC423CB
:403500001A4A137002F500721370A2F54942B93A137843F008031370154D61232B70FFF727FF81232B70FFF709FF124821460E22FFF786FF38BD00BFE846004058D50000C2
:403540009400004803500140A043004002510040EC0B0048C2510040F40B0048F0510040FC0B004840510040080C0048DB0A014000480040B0430040044A137803F0EF03B0
:40358000000100F0100018431070704740510040704700BF014B1880704700BF0A680040014B1880704700BF8A680040014B1880704700BF4A68004008B50B4A137843F07D
:4035C000010313700132137843F00103137044F62060FFF7DFFF44F62060FFF7E1FF40F2DC50FFF7E3FF08BD9564004008B5044B1B7823B9FFF7E0FF0122014B1A7008BD6C
:403600005C8AFF1F014B188880B270474A680040044A137803F0DF03400100F0200018431070704740510040704700BF014B1880704700BF00680040014B1880704700BF8B
:4036400080680040014B1880704700BF4068004008B50B4A137843F0010313700132137843F00103137044F62060FFF7DFFF44F62060FFF7E1FF40F2DC50FFF7E3FF08BDF8
:403680009064004008B5044B1B7823B9FFF7E0FF0122014B1A7008BD5D8AFF1F014B188880B27047406800400230800803D000BF01380046FCD17047EFF3108072B6704766
:4036C00080F31088704700BF01BE704710B5044605E0084B1868FFF7E7FFA4F50044B4F5004FF6D8034B586800FB04F0FFF7DCFF10BD00BF4C84FF1F08B5034B1B7A03FBA7
:4037000000F0FFF7D1FF08BD4C84FF1F70B504460E46074B1D680F2802D90020FFF7D4FF04F00F0455F8240045F8246070BD00BF08ED00E070B504460E46074B1D681F28B0
:4037400002D90020FFF7C0FF04F01F04103455F8240045F8246070BD08ED00E038B504460D46072902D90020FFF7AEFF1F2C02D90020FFF7A9FF04F01F0000F1604000F535
:4037800064406D01EDB2057038BD00BF024A136843F002031360704710E000E008B5FFF7F5FF034A136843F00103136008BD00BF10E000E020F07F40014B1860704700BFC0
:4037C00014E000E0012805D1054A136843F0040313607047024A136823F004031360704710E000E0024B1868C0F30040704700BF10E000E010B5FFF7F5FF01280BD107E04C
:40380000054B03EB84035B6803B19847013400E00024042CF4D910BD608AFF1F0022014B1A60704718E000E008B5002305E00F4A02EB8302002151600133042BF7D90F2027
:403840000B49FFF763FF0120FFF7BCFF094BDB680948A0FB03308009FFF7ACFFFFF7DEFF4FF40042054B1A6008BD00BF608AFF1FF53700004C84FF1FD34D621000E100E0CF
:4038800008B5054B9B6923B9FFF7CEFF0122024B9A61FFF783FF08BD608AFF1F024B03EB8003586859607047608AFF1F024B03EB80004068704700BF608AFF1F134B1B78E0
:4038C000DBB20360124A127843EA02230360114A127843EA024303600F4A127843EA026303600E4B1B78DBB243600D4A127843EA022343600B4A127843EA024343600A4A71
:40390000127843EA02634360704700BF0301004904010049EC460040020100490101004900010049050100490601004938B50522124B1A7081220E3B1A70082202331A706B
:403940000F2511331D70002401331C704FF400420B4B1A6028460721FFF700FF28460949FFF7E8FE084B1C70084B1C70084B1C70084B1C70084B1C8038BD00BFD649004064
:4039800080E100E0613A0000EA8BFF1FF48BFF1FEB8BFF1FF08BFF1FE88BFF1F08B5FFF78BFE084A137843F0040313701032137843F004031370FFF783FE4FF40042024B94
:4039C0001A6008BDA543004000E100E008B5054B1B7823B9FFF7AAFF0122024B1A70FFF7DDFF08BD7C8AFF1F4FF40041054B1960054A1078137803F01003DBB21370034BBC
:403A00001960704780E100E0F48BFF1F00E100E010B44FF400440B4B1C6032B113460A4A13600A4B18800A4B19800023094A1370094A13704FF40042084B1A605DF8044BF7
:403A4000704700BF80E100E0EC8BFF1FF28BFF1FE88BFF1FEB8BFF1FF08BFF1F00E100E0654B1B78DBB2654A137013F0080F32D0634B1B7813F0010F1CD0624A1378DBB2BE
:403A800061490968CB5CDBB25D490B7014215A4B19701378DBB25D4A137013780133DBB213705B4A137843F0110313700822594B1A708EE01022504B1A70554A137843F02E
:403AC000120313700122534B1A70534A137843F0100313707DE013F0010F7AD04D4A1278D2B2042A1ED0082A3AD0012A68D1444B1B78DBB2414A5370484A128892B2934295
:403B00000CD210223C4B1A703C4B5B783D4A13703E4A137004223F4B1A705AE00022364B1A7056E0394B1A783D4B1B889BB29A4212D2334B1B7831494B7010222E4B1A7055
:403B4000324A1378DBB2304800684978C15413780133DBB213703CE00022274B1A7038E013F0020F1ED1294B1A782C4B1B889BB29A4210D2254A1378DBB223490968CB5C21
:403B8000DBB21F490B7004211B4B197013780133DBB213701DE0FF22194B1A700422013B1A7016E0FF22164B1A700022013B1A7017490B7803F0EF030B70164B1A7008E0BA
:403BC0000023144A13700F4A1370104A13700A4A1370094B1B7813F0200F0CD00C4A137803F0EF03137000220A4B1A700A4A137803F0EF0313707047D74900407D8AFF1F6F
:403C0000D8490040EB8BFF1FEC8BFF1FF08BFF1FF48BFF1FEA8BFF1FD6490040F28BFF1FE88BFF1F044A137803F0FB03800000F00400184310707047C051004008B502F0D6
:403C400003F902F00BF908BD08B5FFF7F7FF08BD30B583B00C468DF8070002F029F9B4F5006F54D22509C5EB053319010C44A4B202F0F4F900284CD1402021460DF107020F
:403C8000012302F041F9044607282FD1234B1B7813F0020FFAD0214B1B7813F0020F06D01E4B1B789B0805D04FF0FF3403E04FF0FF3400E00024E4B9194B402029461A78D2
:403CC0005B7802F087F9072816D1144B1B7813F0020FFAD0114B1B7813F0020F0FD00F4B1B789B0810D04FF0FF340DE0012809D10AE04FF0FF3407E04FF0FF3404E04FF00D
:403D0000FF3401E04FF0FF3402F0CEF902E0012400E00424204603B030BD00BF22470040D08CFF1F38B504460D4602F0C1F815F0800F48D102F092F9002846D140202146E8
:403D4000102202F01DF907282FD1214B1B7813F0020FFAD01E4B1B7813F0020F06D01C4B1B789B0805D04FF0FF3403E04FF0FF3400E00024E4B9174B402029461A785B78A7
:403D800002F028F9072816D1114B1B7813F0020FFAD00F4B1B7813F0020F0FD00C4B1B789B080DD04FF0FF340AE04FF0FF3407E04FF0FF3404E04FF0FF3401E04FF0FF34F3
:403DC00002F072F902E0012400E00424204638BD22470040D08CFF1F08B50222054B1A6001200549FFF7A6FC01200721FFF7B6FC08BD00BF80E100E0D53E000010B5022473
:403E0000064B1C6000F0A0F8A0F5004000B2044B1B68044A1460184410BD00BF80E100E0808AFF1F00E100E038B505460224054B1C604FF4004000F081F8034B1D60034BD1
:403E40001C6038BD80E100E0808AFF1F00E100E0024B187800F00F00704700BF6C64004040F00700014B1870704700BF8C64004008B50F20FFF7F4FFFFF7EAFFFFF71CFCD2
:403E8000054A137843F010031370FFF719FC0222024B1A6008BD00BF9C64004000E100E008B500F0A3F84FF4004000F047F80022064B1A60064B1B7823B9FFF78DFF012298
:403EC000034B1A70FFF7D4FF08BD00BF808AFF1F7F8AFF1F0D4B1B78DBB213F0010F06D00B490A6802F5FF427F320A6007E013F0020F04D006490A68A2F500420A6013F0FE
:403F0000040F02D00022024B1A6070476C640040808AFF1F024A137843F080031370704774650040014B1870704700BF8D640040014B1878704700BF6D640040014B188022
:403F4000704700BF18680040024B1B78024B188880B270470C64004098680040014B188880B2704798680040014B1880704700BF58680040014B1880704700BF786800407C
:403F800008B501E0FFF7EAFFFFF7D2FF10F0400FF8D108BD08B5134B1A7802F0F8021A701A7802F0FC021A70FFF7EAFF4FF40040FFF7DAFF4FF40040FFF7C0FF0020FFF732
:403FC000B1FFFFF7B5FF4FF40040FFF7D3FFFFF773FB054A137843F010031370FFF770FB08BD00BF746500409D64004008B5054B1B7823B9FFF7CEFF0122024B1A70FFF7A7
:4040000089FF08BD848AFF1F08B50122054B1A6000200549FFF78EFB00200721FFF79EFB08BD00BF80E100E00541000010B50124064B1C6000F0A0F8A0F5004000B2044B79
:404040001B68044A1460184410BD00BF80E100E0888AFF1F00E100E038B505460124054B1C604FF4004000F081F8034B1D60034B1C6038BD80E100E0888AFF1F00E100E010
:40408000024B187800F00F00704700BF6464004040F00700014B1870704700BF8464004008B50F20FFF7F4FFFFF7EAFFFFF704FB054A137843F010031370FFF701FB01229C
:4040C000024B1A6008BD00BF9464004000E100E008B500F0A3F84FF4004000F047F80022064B1A60064B1B7823B9FFF78DFF0122034B1A70FFF7D4FF08BD00BF888AFF1FDB
:40410000858AFF1F0D4B1B78DBB213F0010F06D00B490A6802F5FF427F320A6007E013F0020F04D006490A68A2F500420A6013F0040F02D00022024B1A6070476464004075
:40414000888AFF1F024A137843F08003137070477A640040014B1870704700BF8B640040014B1878704700BF6B640040014B1880704700BF14680040024B1B78024B18886D
:4041800080B270470A64004094680040014B188880B2704794680040014B1880704700BF54680040014B1880704700BF7468004008B501E0FFF7EAFFFFF7D2FF10F0400FBC
:4041C000F8D108BD08B5134B1A7802F0F8021A701A7802F0FC021A70FFF7EAFF4FF40040FFF7DAFF4FF40040FFF7C0FF0020FFF7B1FFFFF7B5FF4FF40040FFF7D3FFFFF7E8
:404200005BFA054A137843F010031370FFF758FA08BD00BF7A6400409B64004008B5054B1B7823B9FFF7CEFF0122024B1A70FFF789FF08BD8C8AFF1FF8B5FFF73DFA054688
:40424000404A137843F0010313701032137843F00103137001273C4B1F700226943B1E7002F5E2521B32137803F07F0313700020FFF742FA354C237803F0F9032370344ABC
:40428000137803F0DF03137023783B4323703846FFF732FA2820FFF72FFA2E4B1A7802F07F021A701A7802F0BF021A702378334323703046FFF720FA237843F004032370FF
:4042C0000023254A1370013213702846FFF7F8F917200721FFF742FA17202049FFF72AFA18200721FFF73AFA18201D49FFF722FA15200721FFF732FA15201A49FFF71AFAF8
:4043000003200721FFF72AFA03201749FFF712FA04200721FFF722FA04201449FFF70AFA05200721FFF71AFA05201149FFF702FA0C200721FFF712FA0C200E49FFF7FAF930
:40434000F8BD00BFA54300409D6000409443004012600040F851004084600040594E0000294C0000554E00009D4D0000D54D0000114E0000E950000010B5002304E001249A
:40438000244AD4542344DBB2012BF8D9224B18700023224A1370224A1370224A1370224A1370224A1370224A1370224A1370224B4FF400021A604FF080721A604FF40012A9
:4043C0001A6008221A6010221A6020221A6011B1012906D00BE0194A137803F0FE0313700AE0164A137843F00103137004E0134A137843F0010313700322114B1A70802263
:40440000203B1A700120FFF74FF904220D4B1A7010BD00BFAC8CFF1F118CFF1F148CFF1F308CFF1F338CFF1F288CFF1F328CFF1F358CFF1F108CFF1F00E100E0096000406D
:40444000286000401260004038B505460C46064B1B7823B9FFF7F0FE0122034B1A7028462146FFF789FF38BD8D8AFF1F002304E001210E4AD1540B44DBB2012BF8D900237A
:404480000B4A13700B4A13700B4A13700B4A13700B4A13700B4A13700B4A137003220B4B1A708022203B1A70704700BFAC8CFF1F148CFF1F308CFF1F338CFF1F288CFF1F75
:4044C000328CFF1F358CFF1F108CFF1F28600040014B1878704700BF338CFF1F064B1B7813F0FF0F05D0044B1878C0B200221A7070470020704700BF308CFF1F00EB400037
:404500008000024B18444078704700BF388CFF1F431EDBB2072B0BD8064B00011A18185C00F00F00537843EA0020023880B2704700207047FC5F0040431EDBB2072B3BD868
:40454000F0B4074600EB40039B001C4C2344DB889BB2C3F500739A4207D900EB40039B002344DA88C2F5007292B200EB40039B00124C2344DB7843EA1223114D04012E192F
:404580002B55D3B2737039B909E0CE5C3D010D4C665501339BB200E000239342F5D3430003449B00054A134400225A705A79D2B20001054B1A54F0BC704700BF388CFF1FCA
:4045C000FC5F004078600040FE5F0040431EDBB2072B0BD8430003449B00054A134400225A705A79D2B20001024B1A54704700BF388CFF1FFE5F004070B5D9B10546144655
:404600000E46C8B1082819D8FFF782FFA04203D22846FFF77DFF0446002305E02901094A525CF25401339BB2A342F7D32846FFF7CDFF04E0002402E0002400E000242046E3
:4046400070BD00BF786000400246002001E0013080B2135C002BFAD1704700BF10B4FF2400220EE00A4B9B5C03EB43039B0009490B449B78DBB2834201D114460222013214
:40468000D2B2012AEED920465DF8044B704700BF008CFF1F408CFF1F10B5204C2079FFF7DDFF237813F0800F0ED06378DBB2212B2FD11B4B07221A80C0EBC000194A1044CA
:4046C000586000F01FFB10BD144B5B78DBB2202B02D0222B10D01EE0114A07231380C0EBC00310490B4453600F4A135C43F00103135400F02FFB10BD084B9B780B4A22F821
:404700001030094A135C43F00203135400F0BAF910BD002010BD002010BD00BF006000401C8CFF1F5C84FF1FF88BFF1F0C8CFF1F10B500241F4B1C701F4B1C705C700AE089
:404740001E4B185DC0B2431EDBB2072B01D8FFF73DFF0134E4B2012CF2D9194B1B7813F0FF0F1AD0154B1B7813F0FF0F17D0154B1B7813F0FF0F14D0114B1B78DBB2082B87
:4047800011D80E4B1B78DBB2082B0ED80D4B1B78DBB2082B0BD8002010BD012010BD012010BD012010BD012010BD012010BD012010BD00BF8E8AFF1FF88BFF1F048CFF1F2B
:4047C000FC8BFF1F008CFF1F2DE9F8438046224B1B78224AD65CF6B2FFF736FF05460027344606EB46039B001D4A13441B899BB2AB4208D206EB46039B001344B3F808903C
:404800001FFA89F900E0A946304608EB07014A46FFF792FEC9EB0505ADB245B906EB46039B000F4A13441B899BB2994510D14F44BFB204EB44039B00094A13445B7813F0E2
:40484000FF0FF6D025B9304600210A46FFF774FE002DC5D1BDE8F8838E8AFF1FFC8BFF1F388CFF1F00B583B002A901F8010D054B1B78054AD05C0122FFF75EFE03B05DF822
:4048800004FB00BF8E8AFF1FFC8BFF1F08B5034B1B78034AD05CFFF731FE08BD8E8AFF1F048CFF1F08B5034B1B78034AD05CFFF725FE08BD8E8AFF1FFC8BFF1F00B583B0C2
:4048C000064B1B78064AD05C0DF107010122FFF793FE9DF8070003B05DF804FB8E8AFF1F048CFF1FC37803F0030390F9020000280FDA032B06D002F001030B48C15442F0BD
:4049000001020EE0C2F380030848C15442F0040207E0032B05D0C2F340030548C15442F002021046704700BFFC8BFF1F008CFF1F048CFF1F1C4B19781C4A13880B449BB2D9
:40494000138000230EE01A4A51680978C9B21948C1545168013151600133DBB21188013989B21180124A128892B20AB1072BEAD90D4A1278D2B2082A00D05BB10E490A78D2
:4049800082F080020A700F210C4A117002210C4A117004E0022209490A7009490A70094A1370014A13707047108CFF1F128CFF1F1C8CFF1F00600040A68CFF1F318CFF1F86
:4049C000148CFF1F348CFF1F0222074B1A708022064B1A700F22064B1A700023054A1370054A137001207047148CFF1FA68CFF1F318CFF1F108CFF1F348CFF1F08B5FFF7BF
:404A000099FF08BD10B4184B197801F00F010239C9B2164A13880B449BB21380002010E0134B5C68134A125CD2B222705A6801325A600130C0B20139C9B21A88013A92B245
:404A40001A800B4B1B889BB20BB10029E8D10A4B19700A4A137883F0800313700B22084B1A705DF8044B704729600040128CFF1F1C8CFF1F00600040348CFF1FA68CFF1F04
:404A8000318CFF1F0623064A1370064A13708022054B1A700022054B1A700120704700BF148CFF1F318CFF1FA68CFF1F348CFF1F064B9B6843B1054B9A6810709A6804490D
:404AC0000988518000229A60704700BF1C8CFF1F128CFF1F08B5134B1A78D2B21A701B78DBB213F0800F02D00F4A137008BD0220FFF7DEFF0D4B1B7803F06003202B05D00A
:404B0000402B06D043B900F0D5FD06E001F0FCFA03E000F07DFF00E0002010B90322024B1A7008BD28600040318CFF1F0060004008B5084B1978084A13880B449BB21380D0
:404B40000022064B1A700120FFF7B2FF0322044B1A7008BD108CFF1F128CFF1F148CFF1F318CFF1F08B50B4B1B78DBB2042B06D0062B07D0022B0BD1FFF7DAFF08BDFFF7CB
:404B800041FF08BD0320FFF793FF0322024B1A7008BD00BF148CFF1F318CFF1F08B50022044B1A700120FFF783FF0322024B1A7008BD00BF148CFF1F318CFF1F08B50B4BAF
:404BC0001B7813F0FF0F07D0084A137843F0800307490B70002313700022064B1A700120FFF766FF0322044B1A7008BD328CFF1F08600040148CFF1F318CFF1F08B5094BCC
:404C00001B78DBB2042B06D0062B07D0022B07D1FFF7F4FE08BDFFF7C1FF08BDFFF7CEFF08BD00BF148CFF1F08B5284B1B78DBB213F0100F48D013F0800F0CD003F00F0318
:404C4000012B16D1FFF746FF214B1B7813F0800F11D1012312E013F0400F03D0FFF7CEFF01230BE013F0200F07D0FFF77BFF012304E0002302E0002300E0002323B3134B86
:404C80001B7813F0800F1FD1124B1B78124A12781343124A13701278D2B29A4214D10C4B1B78DBB2094A127812F0800F07D1084B1B78DBB2054A1370137803F00F03044A25
:404CC0001278D2B29342EAD108BD00BF28600040318CFF1FA68CFF1F348CFF1F296000400022064B1A80064B9B682BB1044A916800230B7092685380704700BF128CFF1FD7
:404D00001C8CFF1F08B50F4B1B889BB213B9FFF75BFE15E002220C4B1A7000220B4B1A70FFF7DEFF0A4AD179937943EA0123054A128892B29A4201D9024A1380FFF7FAFD12
:404D4000012008BD1C8CFF1F148CFF1FA68CFF1F0060004008B504220B4B1A7080220B4B1A70FFF7BDFF0A4AD179937943EA0123084A128892B29A4201D9064A13800B22F1
:404D8000054B1A70012008BD148CFF1FA68CFF1F006000401C8CFF1F318CFF1F0A4A137803F0FE031370094B9B7C094B1B7B03F00303012B04D0064AD37B83F08003D37366
:404DC0000122034B5A7370470B600040FC5F0040388CFF1F0B4A137803F0FD0313700A4B93F82230094B1B7E03F00303012B04D0064AD37E83F08003D3760122034B5A7607
:404E0000704700BF0B600040FC5F0040388CFF1F0D4A137803F0FB0313700C4B93F832300B4B93F8243003F00303012B06D0084A92F8273083F0800382F827300122044B9E
:404E400083F82520704700BF0B600040FC5F0040388CFF1F704700BF08B5FFF707FB08BD08B50B4B18780138C0B200F0C9F9094B1B79DBB200EBC30042690749CB5C02EBB2
:404E8000C3035B68596A0B78044A1380516008BD338CFF1F00600040A48CFF1F1C8CFF1F08B50D4B18780138C0B200F0A9F90B4B1B79DBB200EBC30042690949CB5C02EB23
:404EC000C3035B68DB69597813F8022B42EA012204490A804B6008BD338CFF1F00600040A48CFF1F1C8CFF1F10B50022194B1A80194B18780138C0B200F082F91749CB7823
:404F0000DAB20B79DBB200EBC3004169012B20D81348C35C01EBC3014968531EDBB2022B17D802F10053013B01EBC3000B4A9278D2B211F8333093420BD3406802EB420257
:404F4000920081184C68034B5C60825A1A808A689A6010BD1C8CFF1F338CFF1F00600040A48CFF1F08B55B4B1A79D2B21B7813F0800F4DD0574B5B78013B052B00F28D80EC
:404F8000DFE803F0212B3B8B8B03524BDB78DBB2212B09D1FFF764FF4F4B1B889BB2002B7DD0FFF7AFFE08BD4A4BDB78DBB2222B77D1FFF775FF484B1B889BB2002B72D0CD
:404FC000FFF7A0FE08BDFFF78FFF434B1B889BB2002B6AD0FFF796FE08BD012A67D83D4B9B7813F0FF0F64D13B4901230B803B4B1A444A60FFF786FE08BD012A5BD836497A
:4050000001230B80364B1A444A60FFF77BFE08BD304B5B78DBB20A2B0DD00B2B2ED0092B4BD1FFF761FF2C4B1B889BB2002B46D0FFF790FE08BD012A43D8264B9B7813F07F
:40504000FF0F40D1234BDB78DBB224498B548B5C2449895CDBB28B4203D20021214B995409E0204B9B5CDBB2012B04D91B4B9B5CDBB21C498B54FFF705FD08BD012A24D8A2
:40508000144B9B78DBB2012B21D8124B9B78DBB213498B54FFF7F6FC08BD002008BD002008BD002008BD002008BD002008BD002008BD002008BD002008BD002008BD0020BA
:4050C00008BD002008BD002008BD002008BD002008BD00BF006000401C8CFF1FB48CFF1FAC8CFF1FB08CFF1F08B500F0AFFC08BD70B588B0054603AC174E0FCE0FC4336800
:40510000237035B322232B7003236B7001A8FEF7D5FB002402231AE008AA224412F81C2C08A901EB121111F8141CE954581C00212954981C02F00F0208AE324412F8142C83
:405140002A54DA1CA9540134E4B20433DBB2212BE2D908B070BD00BFA8D5000010B401223DE0114613010C242148C45402EB42039B00204803445B7913F0FF0F12D002EBB7
:4051800042039B0003441B7913F0800F04D01001194B03449C700AE01001174B03440820987004E01001144B0344802098704B000B449B000F480344DC88E4B208010C49C4
:4051C00001448C71D888C0F30720C871D888C0B20871DB88C3F307234B710132D2B2082ABFD9FF22054B1A705DF8044B704700BF70600040388CFF1FFC5F00400A600040E3
:40520000074B1B78074A02EBC30253681A7C824203D903EBC003586970470020704700BF118CFF1FF8D50000F8B5404B1B7813F0FF0F79D03D4B18780138C0B2FFF7E0FF91
:40524000047AC2683A4B1878C0B200236AE01178814264D13749095CC9B25578A9425ED1917801F07F01D67806F00306DFF8C8E04D000D44AD000EEB05074FF0000C87F86A
:4052800003C092F802C087F804C092F803C00EF805C095883D8192F90250002D0DDA012E01D1072700E00D274D000D44AD00224E35446F7101266E700CE0012E01D1052743
:4052C00000E009274D000D44AD001B4E35446F7100266E70DFF868E00F010EEB07060125B57001FA05F529448900134D29440D89C5F307250EF807500D89EDB27570CE880E
:40530000F6B20E4D3D44AE71CE88C6F30726EE71CE88F6B22E71C988C1F30721697108320133DBB2A34292D3F8BD00BF338CFF1F288CFF1FA48CFF1F388CFF1F70600040E3
:40534000FC5F0040034B1A78034B03EBC2035868704700BF118CFF1FF8D5000008B5074B18780138C0B2FFF74BFF28B14268127900EBC203586908BD002008BD338CFF1F63
:405380002DE9F84300220EE06D4E53009D18AD00741900217155A170E1702181A172617061710132D2B2082AEED940B90AE000226449CA546449CA540133DBB200E00023DF
:4053C000012BF4D9614B1B7813F0FF0F00F0B5805E4B18780138C0B2FFF712FF80464368DB7913F0400F05D0594A137843F00103137004E0564A137803F0FE03137098F86A
:4054000008704FF0000901266CE0D8F80C50002464E0AB7803F07F039E425CD1314606EB46039B00464803441B899BB2A888834205D206EB46039B00414A134418812B782F
:405440004048C35CDBB26878834244D195F802C03B484B000B449B0000EB030E8EF804C095F803E000F803E0EB7803F0030395F90200002811DA012B02D14FF0070C01E075
:405480004FF00D0CDFF8B8E04B0058188000704480F805C00123437012E0012B02D14FF0050C01E04FF0090C25484FEA410E0EEB01039B00034483F805C0194600234B705B
:4054C000AB790A2B01D0022B05D1284631464A46FFF708FA814608350134E4B2BC4298D30136F6B2082E90D9D8F80C0000220CE0837803F07F0310F8084B03EB43039B00D8
:4055000014490B449C700132D2B2BA42F0D3FFF725FF114B1860002001220AE0084C5300991889002144C8800B89184480B20132D2B2082AF2D9FFF711FEBDE8F88300BFDA
:40554000388CFF1FA48CFF1F188CFF1F338CFF1F358CFF1F408CFF1F2C8CFF1F08B5154B1A7902F07F02531EDBB2072B20D8530013449B0010490B44997841F00101997038
:405580000021D970597841F0020159701B7913F0800F05D01201094B13448D229A7004E01201064B134489229A70FFF76BFA08BD002008BD00600040388CFF1FFC5F0040CB
:4055C000264B1B7903F07F035A1ED2B2072A43D810B55A001A44920021490A44917801F0FE0191700021D17019017F241D484454517801F0FD015170127912F0800F14D093
:4056000003EB4302920016490A445278D2B2012A05D11B0102461A440C23937019E01B01104A1A440D23937013E003EB430292000B490A445278D2B2012A05D11B01094A9D
:405640001A440823937004E01B01064A1A4409239370FFF717FA10BD0020704700600040388CFF1FFC5F004010B50E4B1C79E4B20D4B18780138C0B2FFF7C2FD43681B7929
:405680009C4201D9022C0AD8084A135DDBB208490B55044B9B78DBB21355012010BD002010BD00BF00600040338CFF1FA48CFF1F188CFF1F10B5964B1B78DBB20021954ADE
:4056C000118013F0800F00F0B380914A5278D2B20A2A00F27981DFE812F06F00770177017701770177010B00770198007701A000874BDB78DBB2012B09D1FFF723FE4268DF
:40570000844B5A6012221A80FFF7FCFA10BD804BDB78DBB2022B13D17D4B9878FFF770FD002800F0538142687A4B5A605A68D1785A68927842EA01221A80FFF7E3FA10BDED
:40574000734BDB78DBB2032B05D032E00A7811440133DBB201E000236F496D4A9278D2B29A4203D90A7812F0FF0FEFD1684B9B78DBB2EE2B00D16949654B9B7813F0FF0F10
:405780000BD0634B9B78DBB2654A127C934204D1644C2046FFF7ACFC21460B7813F0FF0F00F016810B785B4A13805160FFF7AAFA10BD00F0A9FC10BD13F0030317D0022B51
:4057C00040F0088153490B80514B1B7903F07F0303EB43039B00544A13449A78D2B2534B1A7000225A704B60FFF78CFA10BD494902230B804E4B1A78D2B24C4B1A7000228E
:405800005A704B60FFF77EFA10BD424B01221A80484A5A60FFF776FA10BD3E4A012313803B4B1B7944490B445360FFF76BFA10BD374A5278013A0A2A00F2CE80DFE812F01C
:405840004B00CC009700CC000B00CC00CC00CC001300CC0030002E4B9B78DBB2374A1370FFF710F910BD2A4B9B7803F0FF041BB1601EC0B2FFF7C4FC04B110B9002C40F07D
:40588000AD802C4B1B78DBB29C4206D0294B1C7001202B4B1870FFF773FDFFF7F3F810BDFFF7E2FE002800F09B80194A1379DBB21279D2B223490A70234AD25C1E49C95C9C
:4058C000D3B28B4204D001221D4B1A70FFF7ACFCFFF7D8F810BD03F00303012B36D04BB1022B7FD10A4B9B7813F0FF0F7CD1FFF767FE10BD064B9B78DBB2012B76D10C4AF0
:40590000137803F0FD031370FFF7BCF810BD00BF006000401C8CFF1F98D60000E4D500007CD70000D48CFF1F388CFF1F908AFF1F358CFF1F338CFF1FA48CFF1F328CFF1FD2
:40594000308CFF1F288CFF1F188CFF1F2D4B1B79DBB2012B4CD82B4B98781B79DBB22A49CA5C22EA0002CA54FFF78CF810BD03F00303012B17D04BB1022B3BD1214B9B785D
:4059800013F0FF0F38D1FFF7E9FD10BD1D4B9B78DBB2012B32D11D4A137843F002031370FFF770F810BD174B1B79DBB2012B27D8144B98781B79DBB21349CA5C22EA000247
:4059C000CA54FFF75FF810BD002010BD002010BD002010BD002010BD002010BD002010BD002010BD002010BD002010BD002010BD002010BD002010BD002010BD002010BD79
:405A0000002010BD00600040A88CFF1F358CFF1F08B50B4B1B7813F0800F0CD0084B5B78DBB2012B09D1074B074A5A6012781A80FFF768F908BD002008BD002008BD00BFB5
:405A4000006000401C8CFF1FBCD50000024B1878C0F38010704700BF8F4500400422014B1A60704700E100E008B5FDF725FE0B4A137843F02003137002F20112137843F0CF
:405A800010031370A2F58272137843F010031370FDF716FEFFF7E2FF08BD00BF966400400422014B1A60704780E100E0014B1878704700BF6765004010B5FFF7F1FF064B96
:405AC0001B78064A147804F040041C4300231370FFF7C4FF204610BD63640040CE8CFF1F034B1B7813F0040FFAD0024B18707047676500404765004010B5FFF7D1FF134B61
:405B00001B78134A1278DBB2934214D0114B1B7813F0FF0F0CD10D4A13780133DBB213701378DBB20F2B06D90022084B1A7002E00022084B1A70054B1B78DBB2064AD45CA1
:405B4000E4B2FFF78BFF204610BD00BFCD8CFF1FCC8CFF1FB88CFF1FBC8CFF1F10B5FFF79FFF114B1B78114A1278DBB2934215D00D4B1B780D4A1278DBB2934206D20B4B98
:405B80001B78094A14781C1BE4B208E0074B1B78054A14781C1B1034E4B200E00024FFF75DFF204610BD00BFCD8CFF1FCC8CFF1F08B501E0094B1B78094B1B7813F0200F1A
:405BC000F8D1FFF76DFF0023064A1370064A1370064A1370FFF742FF08BD00BF5765004063640040B88CFF1FCD8CFF1FCC8CFF1F08B5FDF761FD064B1A7842F001021A7020
:405C00001A7802F0FE021A70FDF75AFD08BD00BF9765004070B506460C46002506E0705DFFF75EFF0135EDB2013CE4B2002CF6D170BD00BF08B501E00A4B1B780A4B1B7868
:405C400013F0200FF8D1FDF737FD084B1A7842F001021A701A7802F0FE021A70FDF730FD08BD00BF57650040636400409765004010B50F22104B1A700422104B1A60022073
:405C80000721FDF76BFD02200D49FDF753FDFFF7D1FF00240B4B1C700B4B1C700B4B1C70FFF704FFFFF708FF094B1C702022A3F582731A7010BD00BF8664004080E100E0EE
:405CC000F15C0000B88CFF1FCD8CFF1FCC8CFF1F8765004008B5054B1B7823B9FFF7C8FF0122024B1A70FFF7BFFE08BD948AFF1F204B1A7820490B7803F0400313430B7005
:405D000031E01E4B1A78D2B21D490B780133DBB20B700B78DBB20F2B02D90021184B1970174B1B7817490978DBB28B420ED115490B780133DBB20B700B78DBB20F2B02D92B
:405D40000021104B197001210F4B19700C4B1B78DBB20E49CA54074B1A7807490B7803F0400313430B70044B1B7813F0200FC8D1704700BF63640040CE8CFF1F57650040D1
:405D8000CC8CFF1FCD8CFF1FB88CFF1FBC8CFF1F014B1870704700BF7564004010B500F087F800F05BF9D0B900F09AF90446072812D102E00120FDF79FFC0A4B1B7813F06E
:405DC000020FF7D0074B1B7813F0020F04D0054B1B789B0800D1002400F066F900E00424204610BD2247004010B500F061F800F035F910BB012000F013F9072818D11048CC
:405E0000022100F067F802280AD102E00120FDF773FC0C4B1B7813F0020FF7D0002409E0084B1B7813F0020FE9D04FF0FF3401E04FF0FF3400F038F900E00424204610BDDF
:405E4000D08CFF1F2247004008B5FFF7A7FF034610B9FFF7C9FF0346184608BD08B5FDF72BFC0F4A137843F0080313701032137843F008031370C8220A4B1A700A4A1378B7
:405E800043F0100313701032137843F010031370064B1B7813F0200FFAD0FDF711FC08BDA043004001470040AC4300400047004008B5FDF701FC064A137843F00803137032
:405EC0001032137843F008031370FDF7F9FB08BDA043004070B506460D4600240CE00120FDF70AFC064B1B7813F0010FF7D0054B1B7833550134E4B2AC42F3D3204670BD1A
:405F0000224700402047004030B43E2801D81F2B03D93F2827D90F2B27D8174C247814F0020F24D0154CB6252570D4252570012525700234247814F0020F1AD10F4C207049
:405F4000C1F300202070C9B22170591EC9B22170002104E0545C094804700131C9B29942F8D3072006E0012004E0012002E0042000E0092030BC704722470040204700402C
:405F8000124B1B7813F0020F19D010B4104BB6241C70D5241C7002241C7002331B7813F0020F0ED10A4B1870002304E0CC5C0848047001339BB29342F8D3072002E004205F
:405FC000704709205DF8044B704700BF224700402047004030B4104C247814F0020F15D00E4CB6252570D8252570052525700234247814F0020F0BD1084C2070080A20701D
:40600000C9B2217022702370072002E0042000E0092030BC704700BF22470040204700400C4B1B7813F0020F0FD00B4BB6221A70E1221A700E221A7002331B7813F0020F8F
:4060400005D1054B187007207047042070470920704700BF224700402047004010B5FDF72BFB0F4B1B78A3B901220D4B1A700D4B1B6813F0010F0ED00A4A136823F00103EB
:40608000136000BF00BF00BF0122054B5A60002402E0042400E00024FDF712FB204610BD988AFF1F0400084008B5FDF705FB0A4B00221A705B68012B0AD1084A136843F095
:4060C0000103136000BF00BF00BF0022024B5A60FDF7F6FA08BD00BF988AFF1F04000840074B1B7813F0020F08D0064BB6221A70E0221A700D221A7007207047042070474D
:40610000224700402047004008B5144B1B7803F00303012B02D0022B04D00FE00F4B1B79DBB20CE00D4B1B7903F07F0303EB43039B000B4A13449B78DBB200E00023094A40
:406140001268D35C022B04D0032B05D1FEF70AFF08BDFEF7A1FA08BD002008BD00600040408CFF1F2C8CFF1F30F0004001D102207047A0F50003B3F1FE4F01D204207047D2
:40618000054B421E9A4201D803207047A0F1FF40B0FA80F040097047FEFF7F002DE9F04F8BB01F4680468946164600F071F9DFF8D8A204469AF900300D46013304D03046CB
:4061C000394600F085FF20B9204629460BB0BDE8F08F4046494600F07BFF834660BB304639460022002301F0D7FC0028ECD09AF900309E4C01229E4900208DE814005A1C04
:40620000CDF820B0CDE90289CDE90467CDE906010DD0022B0BD0684600F086FF002800F09380089B1BB102F07BF8089B0360DDE906010BB0BDE8F08F404649460022002397
:4062400001F0AAFCF8B1304639460022002301F0A3FC834600284ED084489AF900300121002200240025CDE90289CDE90467CDE90645019000910892002BCCD07C4B00221A
:40628000CDE90623D3E72046294600F01BFF834600285ED0204629460022002301F07CFC002891D04046494600F00CFF00288BD03046394600F006FF002885D09AF900307E
:4062C0006A480421002200240025022BCDE90289CDE90467CDE9064501900091089200F08880684600F020FF002800F08280089B002B9CD097E73046394600F0E3FE00289B
:406300003FF462AF304639460022002301F04EFC00283FF459AF55499AF800300122CDF820B0CDE90289CDE9046701910092002B3CD050490020022BCDE9060130D101F0D7
:40634000EFFF21230360D2E701F0EAFF2123036067E74046494600F0B5FE00289AD03046394600F0AFFE002894D02046294600F0AFFE00BB3D4A9AF8004001230890CDE9A0
:406380000289CDE90467019200937CB10020002102460B4601F0C2FA022CCDE90601CED0684600F0C1FE0028A1D1C8E700220023CDE90623F4E72D499AF900300322CDF806
:4063C00020B0CDE90289CDE9046701910092ABB9294D4FF060444046494600220023CDE9064501F0E3FB50BB9AF90030022B7FF478AF01F095FF2223036078E71F4D0024AF
:406400004046494600220023CDE9064501F0CEFB0028E9D000221A4B3046394601F054F904460D4600F088FE22462B4601F0B4FB0028D9D10F4B0022CDE90623D4E7002216
:406440000F4B3046394601F03FF904460D4600F073FE22462B4601F09FFB0028C4D1094B4FF06042CDE90623BEE700BF90D700000000F03F0000F0FFFFFFEF470000F07FE5
:406480000000E03FFFFFEFC77884FF1F000000002DE9F04F144623F00047024657EA04000E468FB01D469C46214634D06E4B26F0004A9A459346B14626DC24D09F4223DC78
:4064C000694B9F4200F08F80B9F1000FC0F28F804FF0000879BB644B9F4200F0A580634B9F4267D0BCF1804F00F0E283604B9C4521D1B9F1000F1EDB104631460FB0BDE876
:40650000F04F00F015BD62B10AF1404000F5801050EA0B0007D10346544918460FB0BDE8F08F5745CCDD53480FB0BDE8F04F00F0FDBD4FF0000810463146CDF808C00092A3
:4065400000F0BCFD009ADDF808C0BBF1000F20D04FEAD97909F1FF3958EA09037AD0464B9F4240F38F8003F104739F4240F31084424B9A4540F39283BCF1000F40F39283BC
:4065800037A1D1E900010B46024601F09DF80346C3E7BAF1000F04D0344B29F0404E9E45D6D1BCF1000FC0F2B683B9F1000F08DB0346B2E7BCF1000FC0F2528413463146BF
:4065C000ABE70AF1404A0AF5801A58EA0A0340F05E8402460B4600F0C3FE0B46024601F09DF9034699E700293FF46EAF8CE7244B9F422CDCA3F154739F427FF769AF40F217
:4066000013403B15834240F34B84C3F58663033321FA03F000FA03F38B427FF459AF00F00100C0F1020855E70AF1404303F5801353EA0B0300F03983104B9A4540F3648397
:40664000BCF1000FC0F22E832346294665E74FF002083FE7104631463346BCE7AFF300809C7500883CE4377E0000F07F0000F03F0000E03F84C400000000E041FFFFEF3F9D
:40668000FFFF3F43BAF5801F4FF0000205DACA4B01F01AF88A466FF034024FEA2A53C74ECAF3130AA3F2FF334AF07F571344B2450C9347F4401740F3D083C14B9A4540F3D0
:4066C00007840026B4460C9BA7F5801701330C933946BC4B4FEACC0C6344D3E900AB52465B46CDF834C0CDE9060100F039FE52465B46CDE90801DDE9060100F033FE024699
:406700000B460020B04901F009F902460B46DDE90801CDE90A2300F0D7FF02460B46CDE90223CDE904237B1043F0005303F5002399190020002306460F460293DDE9022358
:406740001046194632463B46CDE9000100F0BCFF02460B46DDE9080100F002FE5246CDE908015B463046394600F0FAFD02460B46DDE9060100F0F4FD02460B46DDE9000136
:4067800000F0A2FF02460B46DDE9080100F0E8FDDDE90A2300F098FFDDE90423CDE906011046194600F090FF02460B4606460F4600F08AFF6EA3D3E9002382468B46304601
:4067C000394600F081FF6CA3D3E9002300F0CAFD32463B4600F078FF69A3D3E9002300F0C1FD32463B4600F06FFF67A3D3E9002300F0B8FD32463B4600F066FF64A3D3E916
:40680000002300F0AFFD32463B4600F05DFF62A3D3E9002300F0A6FD02460B465046594600F052FFDDE9042306460F46DDE9000100F098FDDDE9062300F046FF32463B46D7
:4068400000F090FDDDE9006782468B4632463B463046394600F038FF00225C4BCDE9080100F080FD52465B4600F07CFD02980F460646DDE9000132463B4600F025FF3246A2
:406880003B46CDE90001DDE9060100F01DFF0022CDE906014D4B3046394600F061FDDDE9082300F05DFD02460B465046594600F057FDDDE9042300F007FF02460B46DDE97E
:4068C000060100F04FFD82468B46DDE9000152465B4600F047FD32A3D3E9002302980F46064600F0F1FE30A3D3E90023CDE904013046394600F0E8FEDDE90023CDE90601DC
:406900003046394600F02CFD02460B465046594600F026FD26A3D3E9002300F0D5FE02460B46DDE9060100F01DFDDDF834C0284BCDF818C06344D3E9002300F013FDCDE978
:4069400000010C9800F05AFE06460F46DDE90401204BDDF818C09C44DDE90023DCE900AB00F000FD52465B4636E000BFAFF30080EF4E454A287ECA3F65DBC9934A86CD3F5D
:4069800001411DA96074D13F4D268F515555D53FFFAB6FDBB66DDB3F033333333333E33F000000E009C7EE3FF5015B14E02F3EBEFD033ADC09C7EE3F000040438E98030079
:4069C00079B60B00B8D700000000F03F00000840A8D7000098D70000CDE906AB00F0C2FC32463B4600F0BEFC029832463B4682468B4600F0B5FCDDE9062300F0B1FCDDE992
:406A0000042300F0ADFC02460B46DDE9000100F0A7FCCDE9020108F1FF3858EA09030CBFD54BD64B0022CDE904230023CDE900450093DDE90067204632463B46294600F0C5
:406A40008FFC52465B4600F03FFEDDE90223804689462046294600F037FE02460B464046494600F07FFC04460D465246304639465B46CDE9024500F027FE06460F462046AE
:406A80003B462946324600F06DFCBD4B824699428946884640F3138101F13F4303F5E003034340F0E581A0A3D3E90023DDE9020100F058FC324604460D463B4650464946F1
:406AC00000F04EFC02460B462046294601F08CF8002840F0CD814C462015A0F2FE304FF4801101414144C1F30A50A64CA0F2FF35C1F3130BC0F5826003302C414BF4801B08
:406B000021EA040300224BFA00FB3946304600F027FC06460F46DDE902018BEAE87B0BEBD87B32463B464FEA0B5A00F01BFC80A3D3E90023002420460D4600F0C5FD3246A7
:406B4000804689463B462046294600F009FC02460B46DDE9020100F003FC77A3D3E9002300F0B2FD76A3D3E9002306460F462046294600F0A9FD02460B463046394600F0CA
:406B8000F1FB06460F4632463B464046494600F0E9FB42464B4604460D4600F0E1FB02460B463046394600F0DBFB2246804689462B462046294600F087FD63A3D3E90023F4
:406BC00006460F4600F080FD61A3D3E9002300F0C7FB32463B4600F077FD5FA3D3E9002300F0C0FB32463B4600F06EFD5CA3D3E9002300F0B5FB32463B4600F065FD5AA3EF
:406C0000D3E9002300F0AEFB32463B4600F05CFD02460B462046294600F0A2FB06460F4632463B462046294600F04EFD0022CDE900014FF080433046394600F091FB024661
:406C40000B46DDE9000100F069FE424606460F464B462046294600F037FD42464B4600F081FB02460B463046394600F079FB22462B4600F075FB02460B4600203F4900F011
:406C80006FFB8A44BAF5801F0246C0F227815346DDE9040100F018FD03463EE4BCF1000FFFF66EAC0023194637E40B46334934E433461046314600F007FD03462DE4324B7A
:406CC00021F000449C4240F3FA80304B0B4403430CD132463B4600F043FB02460B46DDE9020100F06DFF00283FF4F6AE20A3D3E90023DDE9040100F0E7FC1DA3D3E9002304
:406D000000F0E2FC034608E4BCF1000FCADA234605F1004101E402460B460020174900F0FDFD42E4AFF30080FE822B654715973C00000000432EE63FEF39FAFE422EE63F96
:406D4000396CA80C615C20BED0A4BE726937663EF16BD2C541BDBB3E2CDE25AF6A56113F93BDBE166CC1663F3E5555555555C53F59F3F8C21F6EA5010000F0BF0000F03F67
:406D8000FFFF8F40FFFF0F00FFCB904000346F3F634B9A4582DD634B9A453FF7EDAB0022604B00F0DDFA54A3D3E9002306460F4600F08AFC52A3D3E90023CDE900013046B4
:406DC000394600F081FC3246CDE902013B463046394600F079FC002282468B4630463946514B00F071FC02460B4647A1D1E9000100F0B6FA32463B4600F066FC02460B4632
:406E000000204A4900F0ACFA02460B465046594600F05AFC3EA3D3E9002300F055FC02460B46DDE9020100F09BFA06460F46DDE9000132463B4600F095FADDE90023002024
:406E400082468B4600F08CFA02460B463046394600F086FACDE90201DDE50026B44637E4334600202F4900F059FD0346FFF755BB29A3D3E90023DDE9040100F025FC26A359
:406E8000D3E9002300F020FC0346FFF746BBB8F1010F03467FF441AB01F10041FFF73DBB00297FF446ABC3F58263033347FA03F000FA03F3BB4217D08846FFF710BB1B4BC8
:406EC0009C423FF709AEDDE90023924693462EE64FF480264FF0010CFFF7FABB5A4600F0BBF902460B46D3E600F00100C0F10208FFF7F5BAAFF30080000000604715F73F3E
:406F000044DF5DF80BAE543E555555555555D53FFE822B654715F73F9C7500883CE4377EFEFFEF3F0000F03F0000D03F0000E03F2DE9F041604E0C46B6460E40764505464D
:406F40000B4600F098800029024676DD5FEA215E00F08180AEF2FF3EC3F313031EF0010F43F480135ED100273C46D10F01EB43034FEA6E0E520016204FF4001165189D42D3
:406F80004FEAD2764FEA420202DC5B1B6C180F44013806EB43034FEA5101EFD1844620264FF000410AE0A34220D0D50F013E4FEA510105EB43034FEA420220D09C420CEB78
:406FC0000105F0DA002D05EB010C09DBA0461B1B954288BF03F1FF334446521B0844E4E7BCF1000FF2DB04F10108F0E7954217D8002D05EB010C48DB98460023ECE71343AA
:4070000015D140087B1003F17F5303F50013FA0703EB0E57394648BF40F00040BDE8F0811C46C2E7D10F01EB430352009BE7411C31D000F001031844E3E721F0004606435D
:40704000ECD079BB8E46D30AAEF1150E5205002BF9D0DC0222D400215B00D80201F10101FAD5C1F10100C1F1200422FA04F4234386448A406EE702460B4600F025FB2A4670
:40708000234600F06FF9BDE8F081BCF1000FAADAA0460023A0E701373046B3E7202401200021E2E702460B4600F05AF902460B4600F034FCB2E700BF0000F07F21F00041E4
:4070C000704700BF41F0004101F58010C00F704710B431F0004408D0114BA1F580129A4208D804205DF8044B704718B902205DF8044B704701F1FF41094B01F5E001994256
:40710000EFD9B4F5801F01D20320EBE7054B9C4201D00020E6E7B0FA80F04009E2E700BFFFFFDF7F0000F07F0020704700200149704700BF0000F87FF0B5C1F30A5EAEF246
:40714000FF35132D83B002460B460C464FEAD17607462EDC002D48DB3C49294101EA030010432BD049080B4053EA02070CD04FF48023132D24EA010143FA05F444EA0104CE
:407180000CBF4FF0004700273149234601EBC606D6E900453A462046294600F0E3F8CDE90001DDE9000122462B4600F0D9F803B0F0BD332D06DDB5F5806F43D0104619467C
:4071C00003B0F0BDAEF2134E4FF0FF3121FA0EF10142F3D049080142D6D04FF0804320EA010143FA0EF70F43CEE721F000410143E4D0C3F3130141EA000CCCF1000141EADA
:407200000C0C13495C0C4FEA1C3C0CF4002C640401EBC6014CEA0403D1E900452046294600F0A0F8CDE90001DDE9000122462B4600F096F8024621F0004141EAC6731046D8
