:400000000080002011000000591B0000591B000008B5044B1A6803F53F5302331A6001F0B5FD00BFFA46004010B5054C237833B9044B13B10448AFF300800123237010BDDC
:400040004088FF1F00000000F8A50000084B10B51BB108480849AFF300800848036803B910BD074B002BFBD0BDE81040184700BF00000000F8A500004488FF1F0881FF1F89
:400080000000000080B562B601F032FD00F096FA00F09EFA00F09EFA00F0A8FA00F060FA00F09EF901F008FA00F074FB00F0DCFA00F0A8FE3348344901F08AF900F0B8FF1F
:4000C00001F09CFA01F004FC01F024FD00F04AFA00F090F901F0F6F900F06AFB00F0E8FA00F09CFE01F0B6F900F0ACFF01F088FA01F0F4FB254C264D0FCD20606160A260A7
:40010000E36007CD20616161A2612B782377204601F016FD1F4D05F120072E460FCE20606160A260E36035461034BE42F5D103CD20606160154C204601F002FD164D05F1B5
:4001400020072E460FCE20606160A260E36035461034BE42F5D1337823700C4801F0F0FC012002F0F3FE00F0FFF900F0B1FA01F073F901F091F800F03BFA002002F0E6FE14
:40018000EEE700BFA5050000B105000098F0FF1F00A6000020A6000048A60000B8B929B919704FF4FA6040F2DC5305E00121197040F2DC504FF47A73002105E022F81130F2
:4001C0000131C9B20A339BB28342F7D9704729B919704FF47A7040F2DC5305E00121197040F2DC504FF4FA63002105E022F811300131C9B20A3B9BB28342F7D2704700BF51
:4002000010B4002308E050F8232051F82340224441F823200133DBB2322BF4D95DF8044B704700BF10B4002307E050F8234094FBF1F442F823400133DBB2322BF5D95DF806
:40024000044B7047F0B44FF6FF7414600A4C1C6000240DE0A60050F824501F68BD4200DD1D6085591668B54200DA15600134E4B28C42EFD3F0BC70470100FFFF08B5002047
:40028000014602F079FE022000F04EFB042000F02FFB024801F054FC08BD00BF74A6000008B550B10120002102F066FE022000F01FFB054801F044FC02E0044801F040FC71
:4002C000042000F031FB08BD90A60000ACA600002DE9F04184B0804617461D460A9E32460DF10F03FFF75AFF0F480021CC2208F0E7F800240DE09DF80F10009540460A22A8
:40030000334600F0E3FD28460749FFF779FF0134E4B2BC42EFD3044839462A46FFF782FF04B0BDE8F08100BF5C88FF1F2DE9F04184B01646984601EB4001254B33F8117082
:40034000244C1046332104F1CC0204F1D003FFF779FF6423C4F8D4303546D83406F1300E264628686968AA68EB680FC6103534467545F5D12A88AB783280B3704446164E89
:4003800008F13008354620686168A268E3680FC510342E464445F5D12288A3782A80AB70002610E06D460D4C4FF4C85303FB06440FCC0FC523682B60F1196846C9B202F0D4
:4003C00045FE0136F6B2132EECD904B0BDE8F0816CA600005C88FF1F008AFF1F2889FF1F024A034BC3F80C22704700BF008000405C88FF1F08B502F0BBFD084BD3F80C3202
:400400001B8803F002039BB21BB1022000F070FA08BD022000F088FA08BD00BF5C88FF1F70B582B0FFF72AFF264E06F5047506F5377400940020014605222B46FFF748FFD9
:40044000002001462A462346FFF770FF00940020012105222B46FFF73BFF002001212A462346FFF763FF00940120002105222B46FFF72EFF012000212A462346FFF756FFCF
:4004800000940120014605222B46FFF721FF012001462A462346FFF749FFD6F80C1201F1100001F5A87100F06BFDD6F80C1201F5247001F5747100F071FD0120FFF7F0FE0A
:4004C00002B070BD5C88FF1F024B036003F5A0730B6070470C81FF1F034B03F52072026003F570730B6070470C81FF1F704700BF2DE9D04382B001A8694600F07DF9019889
:4005000007F00EF980468946009807F009F910A3D3E9002307F058F900220F4B07F054F906460F464046494632463B4606F098FF0A4C07F02BFC20604046494632463B46BF
:4005400006F090FF07F022FC606002B0BDE8D083986E1283C0CAD93F0000E03FA08BFF1F704700BF704700BF10B500F02DF9044610F0010F01D000F099FC04F002039BB215
:400580000BB100F0B9FE04F004039BB20BB1FFF747FF04F00804A4B20CB1FFF7A7FFFFF7A7FF10BD014B1868704700BFA08BFF1F014B5868704700BFA08BFF1F08B5034822
:4005C00000214FF4807207F07BFF08BD98F0FF1F704700BF08B5002002F0B8FC00F088FF014B186008BD00BFA88BFF1F704700BF08B500F043FA08BD70B504460E46036B6A
:400600009847A060E368C31A2361E06004F12005184607F0C5FC0146284601F01DF860610F4907F011FD0546304607F0B5FC0146284607F0BDFD014604F1280001F00CF8BE
:40064000A06107F06DF804A3D3E9002307F0BCF807F09CFBE06170BD57A393F4923B6B3F00007A44AFF3008010B40E4B00219960D960196100225A615A620B4C1C62DA6284
:400680000A4898629A61DA61196459649964DA64DA659C655A6618661A655A655DF8044B704700BF0C86FF1F000040400000204110B502F0A1FE02F087FD044C636B0020D2
:4006C0009847E36E0020984710BD00BF0C86FF1F38B500F00DFF114A1368C01A506006F0FDFF00220E4B07F0F5FAB0B100F000FF0A4B18601B7A2BB90122084B1A72072034
:4007000001F060FD074D054C28466168FFF774FF05F138006168FFF76FFF38BDAC8BFF1F000049400C86FF1F014B9869704700BF0C86FF1F014B186D704700BF0C86FF1FDE
:40074000014BD869704700BF0C86FF1F014B586D704700BF0C86FF1F70B50D4C636B002098470026E6602661002565616562A561E561E562A660E36E304698476664A6648C
:40078000E564E565256565656566266470BD00BF0C86FF1F10B5054C20460021562207F08FFE0023A365A4F85C3010BDB88BFF1F08B501F087FE56200C21024A01F0A4FE92
:4007C00008BD00BFB88BFF1F08B501F089FE0028FBD14FF40043044A1360044A108800211180034A136008BD80E100E0B88BFF1F00E100E0000000002DE9F04105460C4640
:4008000001F06EFE0028FBD14FF40043304A1360304AD2F802102960D2F8062022602E4A1360D5F80080404606F07AFF06460F461FA3D3E9002307F039FA38B1304639462C
:400840001DA3D3E9002307F031FA50B93046394617A3D3E9002307F029FA20B9DFF8848001E0DFF88480C5F800802568284606F057FF06460F4612A3D3E9002307F016FAD6
:4008800038B13046394610A3D3E9002307F00EFA48B9304639460AA3D3E9002307F006FA10B90E4D00E00E4D2560BDE8F08100BFC66D3480B740E83FC66D3480B740E8BF0D
:4008C00017F671611F170E4017F671611F170EC080E100E0B88BFF1F00E100E0FBB87040FBB870C0BC05423FBC0542BFAFF3008008B50A4AB2F85C301843A2F85C0001F05A
:40090000EFFD0028FBD14FF40043054A1360034AB2F85C109181034A136008BDB88BFF1F80E100E000E100E008B50B4AB2F85C3023EA0000A2F85C0001F0D2FD0028FBD133
:400940004FF40043054A1360034AB2F85C109181034A136008BD00BFB88BFF1F80E100E000E100E02DE9F04180460F4616461D4601F0B6FD0028FBD14FF40043084A13600F
:40098000084CC4F80E80C4F81270C4F81660C4F81A50069AC4F81E20034A1360BDE8F08180E100E0B88BFF1F00E100E038B504460D4607280DD801F093FD0028FBD14FF4DA
:4009C0000042044B1A60044B03EB44046584034B1A6038BD80E100E0B88BFF1F00E100E038B504460D4607280DD801F079FD0028FBD14FF40042044B1A60044B03EB440492
:400A00006586034B1A6038BD80E100E0B88BFF1F00E100E038B504460D4607280DD801F05FFD0028FBD14FF40043044A1360044A144484F84250034A136038BD80E100E0DB
:400A4000B88BFF1F00E100E038B504460D4607280DD801F045FD0028FBD14FF40043044A1360044A144484F84A50034A136038BD80E100E0B88BFF1F00E100E008B501F0C6
:400A80002FFD0028FBD14FF40042054B1A600549D1F852300133C1F85230034B1A6008BD80E100E0B88BFF1F00E100E030B4BDF8084091420AD19C4201D198B211E0E41A57
:400AC00004EBD47403EB640080B20AE0401A25B21CB22C1B04FB00F4521A94FBF2F2981880B200B230BC704770B584B00C4600218DF80F108DF80E1058B3164605460DF13F
:400B00000E02009221461A460DF10F0300F00CFE9DF80F309DF80E0034F9231034F9202036F8133036F81000009028B2FFF7BEFF80B2A0F5FA639BB24FF62F02934205D998
:400B4000B0F57A7F38BF4FF47A7004E04FF4FA6001E040F2DC5004B070BD00BF2DE9F04180460C46002107F02BFCF8B1E7687D683E68B86807F014FA414607F065FA07F039
:400B800029FCB042B8BF30468542A8BF0546284607F10C0107F1D8023323FFF7A5FFE080284607F0FDF9A060BDE8F0814046002107F0E8FBF8B127697D683E68B86807F056
:400BC000EFF9414607F040FA07F004FCB042B8BF30468542A8BF0546284607F10C0107F1D8023323FFF780FFE080284607F0D8F9A060BDE8F08140F2DC53E3800023A36060
:400C0000BDE8F0812DE9F04180460F46C488A31A002B03DA6642B61AB6B201E0A61AB6B2B6FBF7F600250AE0A41BA4B2D8F8203020469847012001F0C5FA0135ADB2BD42B6
:400C4000F2D3BDE8F08100BF2DE9F041884602EB8202D7B27D1D036AC08898470026002411E0FFF735FD042C08D9C0470B4907F0EBF90146304607F0DFF806460A2001F001
:400C8000A1FA0134E4B2A3B2AB42EAD3304607F0A1FB90FBF7F0BDE8F08100BF0000C84270B58EB003460D46164601A81A491A4608F0ACF801A800F043FF00241DE08CB1D9
:400CC000164BA3FB0423DB0803EB83035B00E31A13F0FF0F06D106A8114956F8242008F095F805E006A80F4956F8242008F08EF806A800F025FF0134E4B26B1E9C42DEDB70
:400D000006A8094956F8242008F080F806A800F017FF0EB070BD00BFC4A60000CDCCCCCCCCA60000D4A60000DCA6000070B58EB003460D46164601A81A491A4608F066F82D
:400D400001A800F0FDFE00241DE08CB1164BA3FB0423DB0803EB83035B00E31A13F0FF0F06D106A8114936F8142008F04FF805E006A80F4936F8142008F048F806A800F0F8
:400D8000DFFE0134E4B26B1E9C42DEDB06A8094936F8142008F03AF806A800F0D1FE0EB070BD00BFC4A60000CDCCCCCCE4A60000ECA60000F0A6000010B50C4600F0C0FEB6
:400DC00022690C4833210C32FFF76AFFE2680A483321D832FFF7AAFF2269084833210C32FFF75EFF226906483321D832FFF79EFF10BD00BFF8A6000004A7000014A7000070
:400E000024A7000010B5044C636901209847A36B0120984710BD00BF7C86FF1F10B5104C04F10C0004F11001FFF74EFB04F1300004F13401FFF750FB636900209847A3697E
:400E40009847236A40F2DC509847A36B00209847E36B9847636C40F2DC50984710BD00BF7C86FF1F10B5044C2146FFF777FE236AE088984710BD00BF7C86FF1F10B5044C5B
:400E800004F12401FFF76AFE636C608D984710BD7C86FF1F014BD888704700BF7C86FF1F014B588D704700BF7C86FF1F10B5064CE3699847236C9847636901209847A36B9F
:400EC0000120984710BD00BF7C86FF1F2DE9F0470C4690469946089E034608B9244D00E0244D0BB9244F00E0244F40F2DC50E8802B6A98474FF4FA7001F064F9FFF72CFCA3
:400F000030460021CC2207F0DBFA8CB920E0C4F1320A5FFA8AFA39F81A30EB80284639464246FFF791FE46F82A000134E4B200E00024322CEBD90DE039F81430EB802846D9
:400F400039464246FFF780FE46F824000134E4B2322CF1D928464FF4FA7140F2DC52FFF751FE40F2DC50E8802B6A9847BDE8F0877C86FF1FA086FF1F2907000035070000BA
:400F800008B5044BD860196103481946FFF714FF08BD00BF7C86FF1F34A7000008B5044B18635963034803F12401FFF705FF08BD7C86FF1F3CA700002DE9F04194B0194CE8
:400FC000206811A9032200F05DFB0DF1380860684146032200F056FB0BAFA0683946032200F050FB08AEE0683146032200F04AFB05AD20692946032200F044FB0A4CCDF8C6
:40100000008001970296039520464FF48071074A11AB07F0C9FE204600F092FD14B0BDE8F08100BF188CFF1F98F0FF1F44A70000034B00229A601A605A60DA601A61704728
:40104000188CFF1F704700BF2DE9F84F0446FFF777FB0546FFF77AFB8246204606F09CFF0446294606F0F0FF854907F0A1F880465046214606F0E8FF814907F099F804467C
:401080004046214606F0D6FE06F04AFB6AA3D3E9002306F099FB06F079FE7A4EB16806F0CBFEB06006F03CFB06460F4664A3D3E9002306F019FE58B13046394662A3D3E92B
:4010C000002306F0CDF906F061FE6E4B986012E0304639465EA3D3E9002306F0F1FD50B13046394658A3D3E9002306F0BBF906F04DFE644B98604046214606F09DFE4FF041
:401100007C5106F0A1FF06F00BFB06460F465D4CA06806F005FB8046894603F0ABFF02460B463046394606F04FFB06F02FFE83464046494603F0E6FF02460B4630463946A1
:4011400006F042FB06F022FE06462068594606F073FE20606068314606F06EFE60605046294606F069FE4FF07C5106F06DFF804606F0D6FA06460F4637A3D3E9002306F0BF
:40118000B3FD68B14FF001043046394634A3D3E9002306F08BFD08B94FF00004E3B200E0012353B1304639462BA3D3E9002306F09BFD20B9DFF8D88001E0DFF8D880314B94
:4011C000C3F80C805046294606F034FE06F0A8FA25A3D3E9002306F021FC06460F4624A3D3E9002306F080FD68B14FF001043046394621A3D3E9002306F058FD08B94FF02F
:401200000004E3B200E0012373B13046394618A3D3E9002306F068FD20B13046394606F0B5FD02E0184800E01848164B1861BDE8F88F00BFAFF3008040CCB2B7B8DA0340E2
:40124000182D4454FB210940182D4454FB211940182D4454FB2109C0C66D3480B740E8BFC66D3480B740E83F986E1283C0CAD93F17F671611F170EC017F671611F170E400B
:4012800000007A44188CFF1FFBB870C0FBB87040BC0542BFBC05423F10B582B000F028F9134B5C69041B204606F018FA0022114B06F01AFDC8B100F01BF90D4B58611B7EFA
:4012C0002BB901220A4B1A760B2000F07BFF2046FFF7BAFE064C20686168A268E36824690094FFF73FFBFFF767FE02B010BD00BF188CFF1F0000494000B583B0074A0023D0
:40130000936013605360D36013610093184619461A46FFF727FB03B05DF804FB188CFF1F2DE9F0470546436C98478146002107F047F810B14FF0010A01E04FF0FF0AAB6CCD
:401340009847044605F10808484606F0E9F91EA3D3E9002306F062FB06460F460022002306F0A4FC50B109F1004006F0D9F916A3D3E9002306F052FB06460F4630463946F5
:4013800006F004FD0146404600F0AEFB2046002106F0F8FF10B104F1004100E02146404600F0A4FB404600F0BFFA50B1EC6C2D694FFA8AF006F0F4FD0146284606F044FE54
:4013C000A047BDE8F08700BF57A393F4923B6B3F2DE9F04F87B0194C6064C4F89810184E184DDFF868B0CDF800B04FF0000ACDF804A0DFF85C90CDF808904FF00108CDF80C
:401400000C800027049704F1080031462A460E4B00F040FBCDF800B0CDF804A0CDF80890CDF80C80049704F15C0031462A46064B00F030FB07B0BDE8F08F00BFC486FF1F29
:401440000000C040CDCC0C406666263FCDCC4C3D00009643704700BF10B500F049F80F4B1B68C01A06F03AF900220D4B06F032FC98B100F03DF8094B18601B792BB901229C
:40148000064B1A71132000F09DFE064C2046FFF747FF04F15400FFF743FF10BD348CFF1F00004940C486FF1F024A136801331360704700BF3C8CFF1F0022014B1A60704718
:4014C0003C8CFF1F10B500F057FF00F023FF002409E0204600F066FF20B92046034900F059FF10BD0134042CF3D910BDA9140000014B1868704700BF3C8CFF1F10B50B4C82
:40150000207801F03FF92378013303F007032370002001F031F9032001F02EF90A2000F051FE002001F028F910BD00BF408CFF1F10B501F01BF901F04FF9C0F53B63083373
:401540009CB2C0F53140183080B24AF25F53984204D92346722C38BF722301E045F6A023054CA4FB0334640901F012F9E1B2FFF71DFAFFF7C3FF10BD09CB3D8D10B50B4CF7
:40158000607801F069F96378013303F007036370002001F05BF9032001F058F90A2000F011FE002001F052F910BD00BF408CFF1F10B501F085F901F0A7F9C0F53B63083309
:4015C0009CB2C0F53140183080B24AF25F53984204D92346722C38BF722301E045F6A023054CA4FB0334640901F03CF9E1B2FFF7F7F9FFF7C3FF10BD09CB3D8D704700BF1A
:4016000008B5074801F0A4F8064801F04BF901F011F901F0A7F9FFF771FFFFF7AFFF08BD31150000B115000030B5002406E0094D85FB00E5C017C0EBA50001340028F6D132
:4016400003E030208854013201349C42F9DB104630BD00BF67666666F8B504464668304606F0EAFB074625683046294606F0A0FD0146384606F0DEFB6060294606F098FD10
:40168000F8BD00BF2DE9F84306460D469046002106F078FE50B12D232B703046002106F071FE08B106F10046012400E00024304606F090FE074629190A2206F0F4FE07F0C8
:4016C000C9FB2044B8F1000F29DD2E232B54441C384606F065FC0146304606F0ABFB8146404606F00BF802460B4600200D4903F053FD06460F46484606F012F832463B46E6
:4017000006F062F806F0FAFA0646294622464346FFF78AFF291830460A2206F0C4FEBDE8F88300BF00002440F0B4049F013AD2B2540800251D703D7019E051F82460864217
:4017400003DA651CEDB21C700CE0864202D11C703C700EE0864205DD3C701A78A21A012A07D02246AC1804EBD474C4F347049542E3D9F0BC704700BF08B501F0B3FB01F026
:4017800013FB034B187000F085FB01F0C5FA08BD428CFF1F08B501F0D3FB01F0F7F9034B587000F035FB01F0A9F908BD428CFF1F38B501F05FFB01F0B7FA01F0C1FA0446CD
:4017C0001B4906F0FDFD50B14FF001052046194906F0D8FD08B94FF00005EBB200E0012333B12046124906F0EBFD10B9104C00E0104C204605F094FF09A3D3E9002303F0C6
:40180000CBFC09A3D3E9002305F0DEFF06F09EFAC1B2094B1878FFF717F938BDAFF30080666666666666F2BF5C8FC2F528DC3B400080A3430060F944428CFF1FAFF300803B
:4018400038B501F0DFFA01F061F901F06BF904461B4906F0B5FD50B14FF001052046194906F090FD08B94FF00005EBB200E0012333B12046124906F0A3FD10B9104C00E044
:40188000104C204605F04CFF09A3D3E9002303F083FC09A3D3E9002305F096FF06F056FAC1B2094B5878FFF7B5F838BDAFF30080666666666666F2BF5C8FC2F528DC3B4047
:4018C0000080A3430060F944428CFF1FAFF3008008B500F091FA00F0D1FA08BD08B50E4801F082FA0D4801F0B7FA0D4801F01AFB0C4801F0E9FA01F03FF901F04BFA00F0D6
:4019000087FA00F0C7FA01F0EBF801F0F7F901F0F5F801F001FA08BD41180000B117000095170000791700002DE9F84390F83930002B48D004460768406B394606F07AFA02
:401940008046E069414606F07FFB616A06F074FA05466062E66A314606F014FD40B9D4F830902846494606F02BFD10B14D4600E0354665623846616806F05CFA8146A069DE
:40198000414606F061FB0146284606F055FA0546206A494606F058FB0146284606F04AFA0546A0603046294606F00AFD30B9266B2846314606F004FD00B92E46A66067603B
:4019C0000120BDE8F8830020BDE8F883F8B504460D4616460846114606F0E8FC18BBE562266394F83930012B1DD1A7683846294606F0C8FC30B93046394606F0C3FC10B185
:401A0000374600E02F46A760676A3846294606F0B9FC30B93046394606F0B4FC10B1374600E02F466762F8BD2DE9F04104460D4616461F460846002106F0A4FC38BB3046BC
:401A4000002106F09FFC10BB3846002106F09AFCE8B9E56026616761A561D4F828804046314606F0F1FA0646E0613846414606F09FFB206294F83830012B08D105F1004559
:401A8000A56106F10046E66100F100402062BDE8F08100BFF8B504460F4616461D469DF8283080F838309DF8243080F83930002141620160416081604163069806F080FC17
:401AC00010B1069BA36202E04FF07E53A36220460799089AFFF77AFF2046394632462B46FFF7A2FFF8BD00BF416370470160704708B5064800214FF4C84206F0E1FC044B8A
:401B0000002283F8282F83F8292F08BD448CFF1F1CE1FF1F08B50020012101F02BFE01F073FE20B101F06AFE08B101F05BFF01F065FE10B1014801F0A1FF08BD68A70000A4
:401B400010B5044601F05AFE28B101F0E5FF10B1204601F093FF10BDFEE700BF08B5094B1A681044084BC31A802B02DC054B186005E006F055FC0C2303604FF0FF32104658
:401B800008BD00BF6C87FF1FB0F2FF1F08B5104E104D16E029686B68AC68002204E051F8040B43F8040B0432A242F8D1E868002203E0002143F8041B04328242F9D1103586
:401BC000013E002EE6D106F031FCFEF75BFAFEE70100000064AD000008B5124A124B1A60124A136843F40073136000230AE0032B03D80F4A52F8231000E00E490E4A42F8C4
:401C0000231001332F2BF2D90C4B1A780C4B1A70094A0C4B1A6000F073F900220A4B1A6008BD00BF0004FA050CED00E014ED00E000000000591B00000080FF1FBC76004018
:401C40000481FF1F08ED00E00081FF1FF0B40022174611E050F82760F3B226F0FF0608E001EB420511F812406D78A5550132013BDBB2002BF4D10137272FEBD9F0BC7047B4
:401C800008B50A46002106F01BFC08BD38B50E222B4B1A8018232B490B7002310A802A4A1370172204310A8002310B7002310A80264A137041F2BF21023211800232137034
:401CC0000622234B1A705222A3F580731A70214B1B78DBB2204A13700024204B1C8040F6180203F21E231A8041F25122023B1A8019250CE01A4B1B7803F0010343EA44046C
:401D000004F003044FF4F07000F04AFA013D0DB1032CEFD1114A07231370002311490B7048200231087013700532137002220E4B1A700E4A137843F01F03137038BD00BF20
:401D40008040004082400040864000408E400040004300400F010049A146004004400040254200400640004001400040A2430040F8B5174B1B78DBB2164E3478E4B2164FB9
:401D80003D78EDB203F00701144A11701B090132137044F00303337045F003033B7080239232137008321370F0220D4B1A7020230C490B7005310A700B4A13700A2000F008
:401DC00017FA3D7034704422084B1A70F8BD00BFCF010049F8460040F94600406E580040205B0040235B00402B5B00407658004008B506F05AFB08BDFF22034B1A70002279
:401E0000024B1A70704700BF7087FF1F3D510040184A13780133DBB213705BB2072B05D8DFE803F0070B0F13171B1F230022114B1A700122104B1A70704702220E4B1A70F5
:401E4000704704220C4B1A70704708220A4B1A7070471022084B1A7070472022064B1A7070474022044B1A7070478022024B1A70704700BF7087FF1F3D510040FF22034B60
:401E80005A700022024B1A70704700BF7087FF1F0D510040184A53780133DBB253705BB2072B05D8DFE803F0070B0F13171B1F230022114B5A700122104B1A7070470222DC
:401EC0000E4B1A70704704220C4B1A70704708220A4B1A7070471022084B1A7070472022064B1A7070474022044B1A7070478022024B1A70704700BF7087FF1F0D5100409C
:401F000038B572B6464A137843F00403137000240CE0444963001A1952000A4423445B00C8589188FFF7ACFE0134E4B2052CF0D900240FE03B49A3001A1952000A4452F82A
:401F4000240F23445B000B4451689A8DFFF750FF0134E4B2012CEDD94FF090403249FFF775FE324A137843F0020313701032137843F0020313702E4C237843F040032370DF
:401F8000A2F58632513A137843F010031370294829490822FFF72CFF284829490822FFF727FF284828490A22FFF722FF274828490822FFF71DFF274827490A22FFF718FF45
:401FC000264827490822FFF713FF264826490822FFF70EFF254826490822FFF709FF254825490822FFF704FF4423244A137002F560621370A2F55542393A137843F00803C7
:4020000013701F4D61232B70FFF740FE81232B70FFF7AEFE1B4821460E22FFF7E9FE38BDE846004084A70000A000004803500140A043004002510040D00F0048C25100406C
:40204000D80F0048F0510040E00F004812510040EC0F004820510040F40F004832510040001000484251004008100048525100401010004862510040181000485B0A0140F5
:4020800000480040B0430040044A137803F0FE0300F0010018431070704700BF20510040704700BF014B1880704700BF0C680040014B1880704700BF8C680040014B1880AF
:4020C000704700BF4C68004008B50B4A137843F0010313700132137843F00103137044F62060FFF7DFFF44F62060FFF7E1FF40F2DC50FFF7E3FF08BD9664004008B5044B48
:402100001B7823B9FFF7E0FF0122014B1A7008BD48F0FF1F044A137803F0EF03000100F0100018431070704720510040704700BF014B1880704700BF08680040014B1880E1
:40214000704700BF88680040014B1880704700BF4868004008B50B4A137843F0010313700132137843F00103137044F62060FFF7DFFF44F62060FFF7E1FF40F2DC50FFF72E
:40218000E3FF08BD9464004008B5044B1B7823B9FFF7E0FF0122014B1A7008BD49F0FF1F0230800803D000BF01380046FCD17047EFF3108072B6704780F31088704700BFBA
:4021C00001BE704710B5044605E0084B1868FFF7E7FFA4F50044B4F5004FF6D8034B586800FB04F0FFF7DCFF10BD00BF7487FF1F08B5034B1B7A03FB00F0FFF7D1FF08BD97
:402200007487FF1F70B504460E46074B1D680F2802D90020FFF7D4FF04F00F0455F8240045F8246070BD00BF08ED00E070B504460E46074B1D681F2802D90020FFF7C0FF65
:4022400004F01F04103455F8240045F8246070BD08ED00E038B504460D46072902D90020FFF7AEFF1F2C02D90020FFF7A9FF04F01F0000F1604000F564406D01EDB20570D4
:4022800038BD00BF024A136843F002031360704710E000E008B5FFF7F5FF034A136843F00103136008BD00BF10E000E020F07F40014B1860704700BF14E000E0012805D128
:4022C000054A136843F0040313607047024A136823F004031360704710E000E0024B1868C0F30040704700BF10E000E010B5FFF7F5FF01280BD107E0054B03EB84035B68AC
:4023000003B19847013400E00024042CF4D910BD4CF0FF1F0022014B1A60704718E000E008B5002305E00F4A02EB8302002151600133042BF7D90F200B49FFF763FF0120A5
:40234000FFF7BCFF094BDB680948A0FB03308009FFF7ACFFFFF7DEFF4FF40042054B1A6008BD00BF4CF0FF1FED2200007487FF1FD34D621000E100E008B5054B9B6923B964
:40238000FFF7CEFF0122024B9A61FFF783FF08BD4CF0FF1F024B03EB80035868596070474CF0FF1F024B03EB80004068704700BF4CF0FF1F134B1B78DBB20360124A127816
:4023C00043EA02230360114A127843EA024303600F4A127843EA026303600E4B1B78DBB243600D4A127843EA022343600B4A127843EA024343600A4A127843EA026343609D
:40240000704700BF0301004904010049EC460040020100490101004900010049050100490601004910B50123114A137081210E3A11700821023211701132137000240D4B47
:402440001C704FF400420C4B1A600F200721FFF701FF0F200949FFF7E9FE094B1C70094B1C70094B1C70094B1C70094B1C8010BDD6490040DC49004080E100E0592500000F
:402480009AF1FF1FA4F1FF1F9BF1FF1FA0F1FF1F98F1FF1F08B5FFF78BFE084A137843F0040313701032137843F004031370FFF783FE4FF40042024B1A6008BDA5430040B0
:4024C00000E100E008B5054B1B7823B9FFF7AAFF0122024B1A70FFF7DDFF08BD68F0FF1F4FF40041054B1960054A1078137803F01003DBB21370034B1960704780E100E075
:40250000A4F1FF1F00E100E010B44FF400440B4B1C6032B113460A4A13600A4B18800A4B19800023094A1370094A13704FF40042084B1A605DF8044B704700BF80E100E0B0
:402540009CF1FF1FA2F1FF1F98F1FF1F9BF1FF1FA0F1FF1F00E100E0654B1B78DBB2654A137013F0080F32D0634B1B7813F0010F1CD0624A1378DBB261490968CB5CDBB24D
:402580005D490B7014215A4B19701378DBB25D4A137013780133DBB213705B4A137843F0110313700822594B1A708EE01022504B1A70554A137843F0120313700122534BB9
:4025C0001A70534A137843F0100313707DE013F0010F7AD04D4A1278D2B2042A1ED0082A3AD0012A68D1444B1B78DBB2414A5370484A128892B293420CD210223C4B1A70E2
:402600003C4B5B783D4A13703E4A137004223F4B1A705AE00022364B1A7056E0394B1A783D4B1B889BB29A4212D2334B1B7831494B7010222E4B1A70324A1378DBB230487F
:4026400000684978C15413780133DBB213703CE00022274B1A7038E013F0020F1ED1294B1A782C4B1B889BB29A4210D2254A1378DBB223490968CB5CDBB21F490B700421AD
:402680001B4B197013780133DBB213701DE0FF22194B1A700422013B1A7016E0FF22164B1A700022013B1A7017490B7803F0EF030B70164B1A7008E00023144A13700F4A07
:4026C0001370104A13700A4A1370094B1B7813F0200F0CD00C4A137803F0EF03137000220A4B1A700A4A137803F0EF0313707047D749004069F0FF1FD84900409BF1FF1F84
:402700009CF1FF1FA0F1FF1FA4F1FF1F9AF1FF1FD6490040A2F1FF1F98F1FF1F014B1B685864704708ED00E04001C0B2014B1870704700BF01E400E00222014B1A607047B2
:4027400000E100E00222014B1A60704780E100E010B50446FFF7F6FF2046FFF7DFFF0720FFF7E2FFFFF7E8FF10BD00BF0222014B1A60704780E200E0014B1870704700BFEE
:402780007C640040014B1870704700BF7B640040014B1878704700BF7B640040014B1870704700BF8A640040014B1878704700BF6A640040014B1880704700BF58680040ED
:4027C000014B188880B2704798680040014B1880704700BF18680040024B1B78024B188880B270470C6400409868004008B501E0FFF7E6FFFFF7D8FF10F0080FF8D108BD19
:4028000008B540F6B730FFF7D5FF40F6B730FFF7DDFFFFF7CDFC064A137843F010031370FFF7CAFCFFF7E2FF0120FFF7B7FF08BD9A64004008B5044B1B7823B9FFF7E0FFEF
:402840000122014B1A7008BD6BF0FF1F014B1870704700BF78650040014B1870704700BF7B650040014B1878704700BF7B650040014B1B68D864704708ED00E04001C0B294
:40288000014B1870704700BF03E400E00822014B1A60704700E100E00822014B1A60704780E100E010B50446FFF7F6FF2046FFF7DFFF0720FFF7E2FFFFF7E8FF10BD00BF1C
:4028C0000822014B1A60704780E200E0014B1870704700BF88650040014B1878704700BF68650040014B1880704700BF546A0040014B188880B27047946A0040014B1880CA
:40290000704700BF146A0040024B1B78024B188880B270470A650040946A004008B501E0FFF7E6FFFFF7D8FF10F0080FF8D108BD08B540F6B730FFF7D5FF40F6B730FFF71E
:40294000DDFFFFF735FC064A137843F010031370FFF732FCFFF7E2FF0320FFF7B7FF08BD9865004008B5044B1B7823B9FFF7E0FF0122014B1A7008BD6CF0FF1F08B50A286D
:402980000FD00C2802D0082806D102E04FF4805209E04FF4807206E00020FFF711FC002201E04FF480620021084B198042F2107303FB02F313F5806301D503F2FF73DB1219
:4029C000034A13600022034B1A8008BDAAF1FF1FACF1FF1FA8F1FF1F10B5FFF7E9FB04461E4A137843F0020313701032137843F002031370193A137843F001031370103224
:402A0000137843F00103137002F5AA521932137843F0030313701822114B1A70013B1A7842F040021A701A7802F0FC021A70C822053B1A700222A3F59753123B1A70094A50
:402A4000137843F0080313700A20FFF7D1FB1022054B1A602046FFF7AFFB10BDAB4300400E5900402F5B004080E200E010B504460A280DD00C2802D0082804D101E0C22280
:402A800007E0422205E00020FFF79AFBC22200E08222034B1A702046FFF770FF10BD00BF0A59004008B5102000F0B2F904200721FFF7D0FB04200749FFF7B8FB064A137874
:402AC00043F0060313700C20FFF7D0FF0022034B1A8008BD752B000009590040B0F1FF1F08B5054B1B7823B9FFF7DCFF0122024B1A70FFF771FF08BD6DF0FF1F024A137892
:402B000043F001031370704708590040034B1B88034A1088181A00B2704700BFA25B0040A8F1FF1F38B50F4B1B889BB233B10D4B1C8824B204EB8404640001E00A4B1C68DD
:402B40000A4B1B88C01A00B205F02AFA084905F07BFA0546204605F023FA0146284605F027FB38BDAAF1FF1FACF1FF1FB0F1FF1F00002041704700BF08B5FFF73DF9012263
:402B8000014B1A7008BD00BF6EF0FF1F014B93F9000070477087FF1F08B50A280FD00C2802D0082806D102E04FF4805209E04FF4807206E00020FFF703FB002201E04FF46B
:402BC00080620021084B198042F2107303FB02F313F5806301D503F2FF73DB12034A13600022034B1A8008BDB4F1FF1FB8F1FF1FBEF1FF1F10B5FFF7DBFA04461E4A137874
:402C000043F0010313701032137843F001031370193A137843F0020313701032137843F00203137002F5AA521132137843F0030313701822114B1A70013B1A7842F0400253
:402C40001A701A7802F0FC021A70C822053B1A700222A3F597530C3B1A70094A137843F0080313700A20FFF7C3FA4022054B1A602046FFF7A1FA10BDAB430040065900405A
:402C8000275B004080E200E010B504460A280DD00C2802D0082804D101E0C22207E0422205E00020FFF78CFAC22200E08222034B1A702046FFF770FF10BD00BF0259004024
:402CC00008B5102000F0DCF806200721FFF7C2FA06200749FFF7AAFA064A137843F0060313700C20FFF7D0FF0022034B1A8008BD912D000001590040BCF1FF1F08B5054B89
:402D00001B7823B9FFF7DCFF0122024B1A70FFF771FF08BD6FF0FF1F024A137843F001031370704700590040034B1B88034A1088181A00B2704700BFA05B0040BEF1FF1F98
:402D400038B50F4B1B889BB233B10D4B1C8824B204EB8404640001E00A4B1C680A4B1B88C01A00B205F01CF9084905F06DF90546204605F015F90146284605F019FA38BD31
:402D8000B4F1FF1FB8F1FF1FBCF1FF1F00002041704700BF08B5FFF771F80122014B1A7008BD00BF70F0FF1F014B93F9000070477187FF1F014B1B681865704708ED00E053
:402DC0004001C0B2014B1870704700BF04E400E01022014B1A60704700E100E01022014B1A60704780E100E010B50446FFF7F6FF2046FFF7DFFF0720FFF7E2FFFFF7E8FF9F
:402E000010BD00BF1022014B1A60704780E200E0034B1A7800F0F80010431870704700BF82400040014B1B689865704708ED00E04001C0B2014B1870704700BF06E400E0DB
:402E40004022014B1A60704700E100E04022014B1A60704780E100E010B50446FFF7F6FF2046FFF7DFFF0720FFF7E2FFFFF7E8FF10BD00BF4022014B1A60704780E200E0D6
:402E8000034B1A7800F0F80010431870704700BF86400040014B1B689864704708ED00E04001C0B2014B1870704700BF02E400E00422014B1A60704700E100E00422014B03
:402EC0001A60704780E100E010B50446FFF7F6FF2046FFF7DFFF0720FFF7E2FFFFF7E8FF10BD00BF0422014B1A60704780E200E0014B1B681864704708ED00E04001C0B256
:402F0000014B1870704700BF00E400E00122014B1A60704700E100E00122014B1A60704780E100E010B50446FFF7F6FF2046FFF7DFFF0720FFF7E2FFFFF7E8FF10BD00BFA6
:402F40000122014B1A60704780E200E0044A137803F0FB03800000F00400184310707047C051004008B501F0F5FE01F0FDFE08BD08B5FFF7F7FF08BD30B583B00C468DF89F
:402F8000070001F01BFFB4F5006F54D22509C5EB053319010C44A4B201F0E6FF00284CD1402021460DF10702012301F033FF044607282FD1234B1B7813F0020FFAD0214BF7
:402FC0001B7813F0020F06D01E4B1B789B0805D04FF0FF3403E04FF0FF3400E00024E4B9194B402029461A785B7801F079FF072816D1144B1B7813F0020FFAD0114B1B78A2
:4030000013F0020F0FD00F4B1B789B0810D04FF0FF340DE0012809D10AE04FF0FF3407E04FF0FF3404E04FF0FF3401E04FF0FF3401F0C0FF02E0012400E00424204603B095
:4030400030BD00BF2247004080F2FF1F38B504460D4601F0B3FE15F0800F48D101F084FF002846D140202146102201F00FFF07282FD1214B1B7813F0020FFAD01E4B1B78DF
:4030800013F0020F06D01C4B1B789B0805D04FF0FF3403E04FF0FF3400E00024E4B9174B402029461A785B7801F01AFF072816D1114B1B7813F0020FFAD00F4B1B7813F0D9
:4030C000020F0FD00C4B1B789B080DD04FF0FF340AE04FF0FF3407E04FF0FF3404E04FF0FF3401E04FF0FF3401F064FF02E0012400E00424204638BD2247004080F2FF1FAF
:4031000008B58022054B1A6007200549FFF78EF807200146FFF79EF808BD00BF80E100E0FD31000010B58024064B1C6000F0A0F8A0F5004000B2044B1B68044A1460184453
:4031400010BD00BF80E100E074F0FF1F00E100E038B505468024054B1C604FF4004000F081F8034B1D60034B1C6038BD80E100E074F0FF1F00E100E0024B187800F00F00C1
:40318000704700BF6664004040F00700014B1870704700BF8664004008B50F20FFF7F4FFFFF7EAFFFFF704F8054A137843F010031370FFF701F88022024B1A6008BD00BFBF
:4031C0009664004000E100E008B500F0A3F84FF4004000F047F80022064B1A60064B1B7823B9FFF78DFF0122034B1A70FFF7D4FF08BD00BF74F0FF1F71F0FF1F0D4B1B7877
:40320000DBB213F0010F06D00B490A6802F5FF427F320A6007E013F0020F04D006490A68A2F500420A6013F0040F02D00022024B1A6070476664004074F0FF1F024A137841
:4032400043F080031370704775640040014B1870704700BF81640040014B1878704700BF61640040014B1880704700BF04680040024B1B78024B188880B27047026400401D
:4032800084680040014B188880B2704784680040014B1880704700BF44680040014B1880704700BF6468004008B501E0FFF7EAFFFFF7D2FF10F0400FF8D108BD08B5134BF9
:4032C0001A7802F0F8021A701A7802F0FC021A70FFF7EAFF4FF40040FFF7DAFF4FF40040FFF7C0FF0020FFF7B1FFFFF7B5FF4FF40040FFF7D3FFFEF75BFF054A137843F03A
:4033000010031370FEF758FF08BD00BF756400409164004008B5054B1B7823B9FFF7CEFF0122024B1A70FFF789FF08BD78F0FF1F08B52022054B1A6005200549FEF776FF31
:4033400005200721FEF786FF08BD00BF80E100E02D34000010B52024064B1C6000F0A0F8A0F5004000B2044B1B68044A1460184410BD00BF80E100E07CF0FF1F00E100E073
:4033800038B505462024054B1C604FF4004000F081F8034B1D60034B1C6038BD80E100E07CF0FF1F00E100E0024B187800F00F00704700BF6364004040F00700014B18705F
:4033C000704700BF8364004008B50F20FFF7F4FFFFF7EAFFFEF7ECFE054A137843F010031370FEF7E9FE2022024B1A6008BD00BF9364004000E100E008B500F0A3F84FF40E
:40340000004000F047F80022064B1A60064B1B7823B9FFF78DFF0122034B1A70FFF7D4FF08BD00BF7CF0FF1F79F0FF1F0D4B1B78DBB213F0010F06D00B490A6802F5FF4236
:403440007F320A6007E013F0020F04D006490A68A2F500420A6013F0040F02D00022024B1A607047636400407CF0FF1F024A137843F08003137070477D640040014B187089
:40348000704700BF8B640040014B1878704700BF6B640040014B1880704700BF10680040024B1B78024B188880B270470864004090680040014B188880B27047906800404D
:4034C000014B1880704700BF50680040014B1880704700BF7068004008B501E0FFF7EAFFFFF7D2FF10F0400FF8D108BD08B5134B1A7802F0F8021A701A7802F0FC021A70B8
:40350000FFF7EAFF4FF40040FFF7DAFF4FF40040FFF7C0FF0020FFF7B1FFFFF7B5FF4FF40040FFF7D3FFFEF743FE054A137843F010031370FEF740FE08BD00BF7D640040B6
:403540009B64004008B5054B1B7823B9FFF7CEFF0122024B1A70FFF789FF08BD80F0FF1FF8B5FEF725FE0546404A137843F0010313701032137843F00103137001273C4BED
:403580001F700226943B1E7002F5E2521B32137803F07F0313700020FEF72AFE354C237803F0F9032370344A137803F0DF03137023783B4323703846FEF71AFE2820FEF74C
:4035C00017FE2E4B1A7802F07F021A701A7802F0BF021A702378334323703046FEF708FE237843F0040323700023254A1370013213702846FEF7E0FD17200721FEF72AFEDB
:4036000017202049FEF712FE18200721FEF722FE18201D49FEF70AFE15200721FEF71AFE15201A49FEF702FE08200721FEF712FE08201749FEF7FAFD09200721FEF70AFEC7
:4036400009201449FEF7F2FD0A200721FEF702FE0A201149FEF7EAFD0C200721FEF7FAFD0C200E49FEF7E2FDF8BD00BFA54300409D6000409443004012600040F851004077
:4036800084600040A5400000753E0000A1400000E93F0000214000005D4000003543000010B5002304E00124254AD4542344DBB2012BF8D9234B18700023234A1370234AE0
:4036C0001370234A1370234A1370234A1370234A1370234A1370234B4FF400021A604FF080721A604FF400121A604FF480721A604FF400721A604FF480621A6011B1012987
:4037000006D00BE0184A137803F0FE0313700AE0154A137843F00103137004E0124A137843F0010313700322104B1A708022203B1A700120FEF734FD04220D4B1A7010BDA4
:4037400074F2FF1FD9F1FF1FDCF1FF1FF8F1FF1FFBF1FF1FF0F1FF1FFAF1FF1FFDF1FF1FD8F1FF1F00E100E009600040286000401260004038B505460C46064B1B7823B9B8
:40378000FFF7EEFE0122034B1A7028462146FFF787FF38BD81F0FF1F002304E001210E4AD1540B44DBB2012BF8D900230B4A13700B4A13700B4A13700B4A13700B4A13707D
:4037C0000B4A13700B4A137003220B4B1A708022203B1A70704700BF74F2FF1FDCF1FF1FF8F1FF1FFBF1FF1FF0F1FF1FFAF1FF1FFDF1FF1FD8F1FF1F28600040014B1878F8
:40380000704700BFFBF1FF1F064B1B7813F0FF0F05D0044B1878C0B200221A7070470020704700BFF8F1FF1F00EB40008000024B18444078704700BF00F2FF1F431EDBB26D
:40384000072B3BD8F0B4074600EB40039B001C4C2344DB889BB2C3F500739A4207D900EB40039B002344DA88C2F5007292B200EB40039B00124C2344DB7843EA1223114D43
:4038800004012E192B55D3B2737039B909E0CE5C3D010D4C665501339BB200E000239342F5D3430003449B00054A134400225A705A79D2B20001054B1A54F0BC704700BF6D
:4038C00000F2FF1FFC5F004078600040FE5F0040431EDBB2072B0BD8430003449B00054A134400225A705A79D2B20001024B1A54704700BF00F2FF1FFE5F00400246002010
:4039000001E0013080B2135C002BFAD1704700BF10B4FF2400220EE00A4B9B5C03EB43039B0009490B449B78DBB2834201D1144602220132D2B2012AEED920465DF8044B4D
:40394000704700BFC8F1FF1F08F2FF1F10B5204C2079FFF7DDFF237813F0800F0ED06378DBB2212B2FD11B4B07221A80C0EBC000194A1044586000F0EBFA10BD144B5B78B0
:40398000DBB2202B02D0222B10D01EE0114A07231380C0EBC00310490B4453600F4A135C43F00103135400F0FBFA10BD084B9B780B4A22F81030094A135C43F002031354C3
:4039C00000F086F910BD002010BD002010BD00BF00600040E4F1FF1F8487FF1FC0F1FF1FD4F1FF1F10B500241F4B1C701F4B1C705C700AE01E4B185DC0B2431EDBB2072B89
:403A000001D8FFF765FF0134E4B2012CF2D9194B1B7813F0FF0F1AD0154B1B7813F0FF0F17D0154B1B7813F0FF0F14D0114B1B78DBB2082B11D80E4B1B78DBB2082B0ED8A1
:403A40000D4B1B78DBB2082B0BD8002010BD012010BD012010BD012010BD012010BD012010BD012010BD00BF82F0FF1FC0F1FF1FCCF1FF1FC4F1FF1FC8F1FF1F2DE9F84343
:403A80008046224B1B78224AD65CF6B2FFF736FF05460027344606EB46039B001D4A13441B899BB2AB4208D206EB46039B001344B3F808901FFA89F900E0A946304608EB56
:403AC00007014A46FFF7BAFEC9EB0505ADB245B906EB46039B000F4A13441B899BB2994510D14F44BFB204EB44039B00094A13445B7813F0FF0FF6D025B9304600210A4642
:403B0000FFF79CFE002DC5D1BDE8F88382F0FF1FC4F1FF1F00F2FF1F08B5034B1B78034AD05CFFF781FE08BD82F0FF1FC4F1FF1FC37803F0030390F9020000280FDA032BED
:403B400006D002F001030B48C15442F001020EE0C2F380030848C15442F0040207E0032B05D0C2F340030548C15442F002021046704700BFC4F1FF1FC8F1FF1FCCF1FF1F4E
:403B80001C4B19781C4A13880B449BB2138000230EE01A4A51680978C9B21948C1545168013151600133DBB21188013989B21180124A128892B20AB1072BEAD90D4A127876
:403BC000D2B2082A00D05BB10E490A7882F080020A700F210C4A117002210C4A117004E0022209490A7009490A70094A1370014A13707047D8F1FF1FDAF1FF1FE4F1FF1F2D
:403C0000006000406EF2FF1FF9F1FF1FDCF1FF1FFCF1FF1F0222074B1A708022064B1A700F22064B1A700023054A1370054A137001207047DCF1FF1F6EF2FF1FF9F1FF1FCF
:403C4000D8F1FF1FFCF1FF1F08B5FFF799FF08BD10B4184B197801F00F010239C9B2164A13880B449BB21380002010E0134B5C68134A125CD2B222705A6801325A600130B6
:403C8000C0B20139C9B21A88013A92B21A800B4B1B889BB20BB10029E8D10A4B19700A4A137883F0800313700B22084B1A705DF8044B704729600040DAF1FF1FE4F1FF1FFE
:403CC00000600040FCF1FF1F6EF2FF1FF9F1FF1F0623064A1370064A13708022054B1A700022054B1A700120704700BFDCF1FF1FF9F1FF1F6EF2FF1FFCF1FF1F064B9B68E5
:403D000043B1054B9A6810709A6804490988518000229A60704700BFE4F1FF1FDAF1FF1F08B5134B1A78D2B21A701B78DBB213F0800F02D00F4A137008BD0220FFF7DEFFC9
:403D40000D4B1B7803F06003202B05D0402B06D043B900F0D5FD06E001F05CF903E000F07DFF00E0002010B90322024B1A7008BD28600040F9F1FF1F0060004008B5084B5E
:403D80001978084A13880B449BB213800022064B1A700120FFF7B2FF0322044B1A7008BDD8F1FF1FDAF1FF1FDCF1FF1FF9F1FF1F08B50B4B1B78DBB2042B06D0062B07D0CB
:403DC000022B0BD1FFF7DAFF08BDFFF741FF08BD0320FFF793FF0322024B1A7008BD00BFDCF1FF1FF9F1FF1F08B50022044B1A700120FFF783FF0322024B1A7008BD00BF3C
:403E0000DCF1FF1FF9F1FF1F08B50B4B1B7813F0FF0F07D0084A137843F0800307490B70002313700022064B1A700120FFF766FF0322044B1A7008BDFAF1FF1F0860004010
:403E4000DCF1FF1FF9F1FF1F08B5094B1B78DBB2042B06D0062B07D0022B07D1FFF7F4FE08BDFFF7C1FF08BDFFF7CEFF08BD00BFDCF1FF1F08B5284B1B78DBB213F0100F40
:403E800048D013F0800F0CD003F00F03012B16D1FFF746FF214B1B7813F0800F11D1012312E013F0400F03D0FFF7CEFF01230BE013F0200F07D0FFF77BFF012304E0002305
:403EC00002E0002300E0002323B3134B1B7813F0800F1FD1124B1B78124A12781343124A13701278D2B29A4214D10C4B1B78DBB2094A127812F0800F07D1084B1B78DBB267
:403F0000054A1370137803F00F03044A1278D2B29342EAD108BD00BF28600040F9F1FF1F6EF2FF1FFCF1FF1F296000400022064B1A80064B9B682BB1044A916800230B706B
:403F400092685380704700BFDAF1FF1FE4F1FF1F08B50F4B1B889BB213B9FFF75BFE15E002220C4B1A7000220B4B1A70FFF7DEFF0A4AD179937943EA0123054A128892B209
:403F80009A4201D9024A1380FFF7FAFD012008BDE4F1FF1FDCF1FF1F6EF2FF1F0060004008B504220B4B1A7080220B4B1A70FFF7BDFF0A4AD179937943EA0123084A1288BF
:403FC00092B29A4201D9064A13800B22054B1A70012008BDDCF1FF1F6EF2FF1F00600040E4F1FF1FF9F1FF1F0A4A137803F0FE031370094B9B7C094B1B7B03F00303012B23
:4040000004D0064AD37B83F08003D3730122034B5A7370470B600040FC5F004000F2FF1F0B4A137803F0FD0313700A4B93F82230094B1B7E03F00303012B04D0064AD37E78
:4040400083F08003D3760122034B5A76704700BF0B600040FC5F004000F2FF1F0D4A137803F0FB0313700C4B93F832300B4B93F8243003F00303012B06D0084A92F82730F7
:4040800083F0800382F827300122044B83F82520704700BF0B600040FC5F004000F2FF1F704700BF08B5FFF777FB08BD08B50B4B18780138C0B200F0C9F9094B1B79DBB266
:4040C00000EBC30042690749CB5C02EBC3035B68596A0B78044A1380516008BDFBF1FF1F006000406CF2FF1FE4F1FF1F08B50D4B18780138C0B200F0A9F90B4B1B79DBB26B
:4041000000EBC30042690949CB5C02EBC3035B68DB69597813F8022B42EA012204490A804B6008BDFBF1FF1F006000406CF2FF1FE4F1FF1F10B50022194B1A80194B187862
:404140000138C0B200F082F91749CB78DAB20B79DBB200EBC3004169012B20D81348C35C01EBC3014968531EDBB2022B17D802F10053013B01EBC3000B4A9278D2B211F85B
:40418000333093420BD3406802EB4202920081184C68034B5C60825A1A808A689A6010BDE4F1FF1FFBF1FF1F006000406CF2FF1F08B55B4B1A79D2B21B7813F0800F4DD023
:4041C000574B5B78013B052B00F28D80DFE803F0212B3B8B8B03524BDB78DBB2212B09D1FFF764FF4F4B1B889BB2002B7DD0FFF7AFFE08BD4A4BDB78DBB2222B77D1FFF71F
:4042000075FF484B1B889BB2002B72D0FFF7A0FE08BDFFF78FFF434B1B889BB2002B6AD0FFF796FE08BD012A67D83D4B9B7813F0FF0F64D13B4901230B803B4B1A444A60FF
:40424000FFF786FE08BD012A5BD8364901230B80364B1A444A60FFF77BFE08BD304B5B78DBB20A2B0DD00B2B2ED0092B4BD1FFF761FF2C4B1B889BB2002B46D0FFF790FEC3
:4042800008BD012A43D8264B9B7813F0FF0F40D1234BDB78DBB224498B548B5C2449895CDBB28B4203D20021214B995409E0204B9B5CDBB2012B04D91B4B9B5CDBB21C49A1
:4042C0008B54FFF705FD08BD012A24D8144B9B78DBB2012B21D8124B9B78DBB213498B54FFF7F6FC08BD002008BD002008BD002008BD002008BD002008BD002008BD002074
:4043000008BD002008BD002008BD002008BD002008BD002008BD002008BD002008BD00BF00600040E4F1FF1F7CF2FF1F74F2FF1F78F2FF1F08B500F0AFFC08BD70B588B011
:40434000054603AC174E0FCE0FC43368237035B322232B7003236B7001A8FEF72BF8002402231AE008AA224412F81C2C08A901EB121111F8141CE954581C00212954981CCD
:4043800002F00F0208AE324412F8142C2A54DA1CA9540134E4B20433DBB2212BE2D908B070BD00BFBCA7000010B401223DE0114613010C242148C45402EB42039B00204821
:4043C00003445B7913F0FF0F12D002EB42039B0003441B7913F0800F04D01001194B03449C700AE01001174B03440820987004E01001144B0344802098704B000B449B008D
:404400000F480344DC88E4B208010C4901448C71D888C0F30720C871D888C0B20871DB88C3F307234B710132D2B2082ABFD9FF22054B1A705DF8044B704700BF70600040E1
:4044400000F2FF1FFC5F00400A600040074B1B78074A02EBC30253681A7C824203D903EBC003586970470020704700BFD9F1FF1F0CA80000F8B5404B1B7813F0FF0F79D08E
:404480003D4B18780138C0B2FFF7E0FF047AC2683A4B1878C0B200236AE01178814264D13749095CC9B25578A9425ED1917801F07F01D67806F00306DFF8C8E04D000D441C
:4044C000AD000EEB05074FF0000C87F803C092F802C087F804C092F803C00EF805C095883D8192F90250002D0DDA012E01D1072700E00D274D000D44AD00224E35446F71B3
:4045000001266E700CE0012E01D1052700E009274D000D44AD001B4E35446F7100266E70DFF868E00F010EEB07060125B57001FA05F529448900134D29440D89C5F307258A
:404540000EF807500D89EDB27570CE88F6B20E4D3D44AE71CE88C6F30726EE71CE88F6B22E71C988C1F30721697108320133DBB2A34292D3F8BD00BFFBF1FF1FF0F1FF1FCA
:404580006CF2FF1F00F2FF1F70600040FC5F0040034B1A78034B03EBC2035868704700BFD9F1FF1F0CA8000008B5074B18780138C0B2FFF74BFF28B14268127900EBC203C9
:4045C000586908BD002008BDFBF1FF1F2DE9F84300220EE06D4E53009D18AD00741900217155A170E1702181A172617061710132D2B2082AEED940B90AE000226449CA54C7
:404600006449CA540133DBB200E00023012BF4D9614B1B7813F0FF0F00F0B5805E4B18780138C0B2FFF712FF80464368DB7913F0400F05D0594A137843F00103137004E0DA
:40464000564A137803F0FE03137098F808704FF0000901266CE0D8F80C50002464E0AB7803F07F039E425CD1314606EB46039B00464803441B899BB2A888834205D206EBCD
:4046800046039B00414A134418812B784048C35CDBB26878834244D195F802C03B484B000B449B0000EB030E8EF804C095F803E000F803E0EB7803F0030395F9020000285E
:4046C00011DA012B02D14FF0070C01E04FF00D0CDFF8B8E04B0058188000704480F805C00123437012E0012B02D14FF0050C01E04FF0090C25484FEA410E0EEB01039B00D0
:40470000034483F805C0194600234B70AB790A2B01D0022B05D1284631464A46FFF708FA814608350134E4B2BC4298D30136F6B2082E90D9D8F80C0000220CE0837803F08D
:404740007F0310F8084B03EB43039B0014490B449C700132D2B2BA42F0D3FFF725FF114B1860002001220AE0084C5300991889002144C8800B89184480B20132D2B2082AAB
:40478000F2D9FFF711FEBDE8F88300BF00F2FF1F6CF2FF1FE0F1FF1FFBF1FF1FFDF1FF1F08F2FF1FF4F1FF1F08B5154B1A7902F07F02531EDBB2072B20D8530013449B000E
:4047C00010490B44997841F0010199700021D970597841F0020159701B7913F0800F05D01201094B13448D229A7004E01201064B134489229A70FFF76BFA08BD002008BDC1
:404800000060004000F2FF1FFC5F0040264B1B7903F07F035A1ED2B2072A43D810B55A001A44920021490A44917801F0FE0191700021D17019017F241D484454517801F0D4
:40484000FD015170127912F0800F14D003EB4302920016490A445278D2B2012A05D11B0102461A440C23937019E01B01104A1A440D23937013E003EB430292000B490A446A
:404880005278D2B2012A05D11B01094A1A440823937004E01B01064A1A4409239370FFF717FA10BD002070470060004000F2FF1FFC5F004010B50E4B1C79E4B20D4B1878AA
:4048C0000138C0B2FFF7C2FD43681B799C4201D9022C0AD8084A135DDBB208490B55044B9B78DBB21355012010BD002010BD00BF00600040FBF1FF1F6CF2FF1FE0F1FF1F4B
:4049000010B5964B1B78DBB20021954A118013F0800F00F0B380914A5278D2B20A2A00F27981DFE812F06F00770177017701770177010B00770198007701A000874BDB783A
:40494000DBB2012B09D1FFF723FE4268844B5A6012221A80FFF7FCFA10BD804BDB78DBB2022B13D17D4B9878FFF770FD002800F0538142687A4B5A605A68D1785A689278F0
:4049800042EA01221A80FFF7E3FA10BD734BDB78DBB2032B05D032E00A7811440133DBB201E000236F496D4A9278D2B29A4203D90A7812F0FF0FEFD1684B9B78DBB2EE2BAC
:4049C00000D16949654B9B7813F0FF0F0BD0634B9B78DBB2654A127C934204D1644C2046FFF7ACFC21460B7813F0FF0F00F016810B785B4A13805160FFF7AAFA10BD00F057
:404A000009FB10BD13F0030317D0022B40F0088153490B80514B1B7903F07F0303EB43039B00544A13449A78D2B2534B1A7000225A704B60FFF78CFA10BD494902230B805F
:404A40004E4B1A78D2B24C4B1A7000225A704B60FFF77EFA10BD424B01221A80484A5A60FFF776FA10BD3E4A012313803B4B1B7944490B445360FFF76BFA10BD374A527870
:404A8000013A0A2A00F2CE80DFE812F04B00CC009700CC000B00CC00CC00CC001300CC0030002E4B9B78DBB2374A1370FFF710F910BD2A4B9B7803F0FF041BB1601EC0B263
:404AC000FFF7C4FC04B110B9002C40F0AD802C4B1B78DBB29C4206D0294B1C7001202B4B1870FFF773FDFFF7F3F810BDFFF7E2FE002800F09B80194A1379DBB21279D2B2E7
:404B000023490A70234AD25C1E49C95CD3B28B4204D001221D4B1A70FFF7ACFCFFF7D8F810BD03F00303012B36D04BB1022B7FD10A4B9B7813F0FF0F7CD1FFF767FE10BD6A
:404B4000064B9B78DBB2012B76D10C4A137803F0FD031370FFF7BCF810BD00BF00600040E4F1FF1FACA80000F8A7000090A9000084F2FF1F00F2FF1F84F0FF1FFDF1FF1F43
:404B8000FBF1FF1F6CF2FF1FFAF1FF1FF8F1FF1FF0F1FF1FE0F1FF1F2D4B1B79DBB2012B4CD82B4B98781B79DBB22A49CA5C22EA0002CA54FFF78CF810BD03F00303012BB0
:404BC00017D04BB1022B3BD1214B9B7813F0FF0F38D1FFF7E9FD10BD1D4B9B78DBB2012B32D11D4A137843F002031370FFF770F810BD174B1B79DBB2012B27D8144B98782B
:404C00001B79DBB21349CA5C22EA0002CA54FFF75FF810BD002010BD002010BD002010BD002010BD002010BD002010BD002010BD002010BD002010BD002010BD002010BD5C
:404C4000002010BD002010BD002010BD002010BD0060004070F2FF1FFDF1FF1F08B50B4B1B7813F0800F0CD0084B5B78DBB2012B09D1074B074A5A6012781A80FFF768F9AF
:404C800008BD002008BD002008BD00BF00600040E4F1FF1FD0A70000024B1878C0F38010704700BF8F45004010B500F087F800F05BF9D0B900F09AF90446072812D102E030
:404CC0000120FDF795FA0A4B1B7813F0020FF7D0074B1B7813F0020F04D0054B1B789B0800D1002400F066F900E00424204610BD2247004010B500F061F800F035F910BBDB
:404D0000012000F013F9072818D11048022100F067F802280AD102E00120FDF769FA0C4B1B7813F0020FF7D0002409E0084B1B7813F0020FE9D04FF0FF3401E04FF0FF34CB
:404D400000F038F900E00424204610BD80F2FF1F2247004008B5FFF7A7FF034610B9FFF7C9FF0346184608BD08B5FDF721FA0F4A137843F0080313701032137843F008038D
:404D80001370C8220A4B1A700A4A137843F0100313701032137843F010031370064B1B7813F0200FFAD0FDF707FA08BDA043004001470040AC4300400047004008B5FDF7BD
:404DC000F7F9064A137843F0080313701032137843F008031370FDF7EFF908BDA043004070B506460D4600240CE00120FDF700FA064B1B7813F0010FF7D0054B1B783355C9
:404E00000134E4B2AC42F3D3204670BD224700402047004030B43E2801D81F2B03D93F2827D90F2B27D8174C247814F0020F24D0154CB6252570D4252570012525700234CF
:404E4000247814F0020F1AD10F4C2070C1F300202070C9B22170591EC9B22170002104E0545C094804700131C9B29942F8D3072006E0012004E0012002E0042000E00920A9
:404E800030BC70472247004020470040124B1B7813F0020F19D010B4104BB6241C70D5241C7002241C7002331B7813F0020F0ED10A4B1870002304E0CC5C08480470013397
:404EC0009BB29342F8D3072002E00420704709205DF8044B704700BF224700402047004030B4104C247814F0020F15D00E4CB6252570D8252570052525700234247814F087
:404F0000020F0BD1084C2070080A2070C9B2217022702370072002E0042000E0092030BC704700BF22470040204700400C4B1B7813F0020F0FD00B4BB6221A70E1221A70C3
:404F40000E221A7002331B7813F0020F05D1054B187007207047042070470920704700BF224700402047004010B5FDF721F90F4B1B78A3B901220D4B1A700D4B1B6813F046
:404F8000010F0ED00A4A136823F00103136000BF00BF00BF0122054B5A60002402E0042400E00024FDF708F9204610BD88F0FF1F0400084008B5FDF7FBF80A4B00221A705F
:404FC0005B68012B0AD1084A136843F00103136000BF00BF00BF0022024B5A60FDF7ECF808BD00BF88F0FF1F04000840074B1B7813F0020F08D0064BB6221A70E0221A70BC
:405000000D221A700720704704207047224700402047004008B5144B1B7803F00303012B02D0022B04D00FE00F4B1B79DBB20CE00D4B1B7903F07F0303EB43039B000B4A2C
:4050400013449B78DBB200E00023094A1268D35C022B04D0032B05D1FFF7AAF808BDFEF775FC08BD002008BD0060004008F2FF1FF4F1FF1F30B5214A21F00043934287B05D
:405080001BDD1F4A934205DD02460B4602F0E8F907B030BD02AA00F047FF00F0030001281AD002280FD008B3DDE9020101230093DDE9042301F03CFFEAE70022002301F07C
:4050C0000FFA07B030BDDDE90201DDE9042301F007FA01F10041DBE70090DDE90423DDE9020101F025FF01F10041D1E7DDE90201DDE9042301F0F4F9CAE700BFFB21E93FD8
:40510000FFFFEF7F30B5224A21F00043934287B01BDD204A934205DD02460B4602F0A0F907B030BD02AA00F0FFFE00F0030001281ED0022811D010B3DDE90201DDE904234A
:4051400001F0CEF901F10041EAE7002300930022002301F0EDFE07B030BD01230093DDE90201DDE9042301F0E3FE01F10041D7E7DDE90201DDE9042301F0B2F9D0E701249A
:40518000DDE90201DDE90423009401F0D1FEC7E7FB21E93FFFFFEF7F2DE9F04F8BB01F4680468946164600F06FF9DFF8D8A204469AF900300D46013304D03046394602F0A9
:4051C00007F820B9204629460BB0BDE8F08F4046494601F0FDFF834660BB304639460022002302F059FD0028ECD09AF900309E4C01229E4900208DE814005A1CCDF820B06C
:40520000CDE90289CDE90467CDE906010DD0022B0BD0684602F008F8002800F09380089B1BB103F0FDF8089B0360DDE906010BB0BDE8F08F404649460022002302F02CFD21
:40524000F8B1304639460022002302F025FD834600284ED084489AF900300121002200240025CDE90289CDE90467CDE90645019000910892002BCCD07C4B0022CDE906235E
:40528000D3E72046294601F00FFF834600285ED0204629460022002302F0FEFC002891D04046494601F000FF00288BD03046394601F0FAFE002885D09AF900306A48042135
:4052C000002200240025022BCDE90289CDE90467CDE9064501900091089200F08880684601F0A2FF002800F08280089B002B9CD097E73046394601F0D7FE00283FF462AFC6
:40530000304639460022002302F0D0FC00283FF459AF55499AF800300122CDF820B0CDE90289CDE9046701910092002B3CD050490020022BCDE9060130D103F071F82123F9
:405340000360D2E703F06CF82123036067E74046494601F0A9FE00289AD03046394601F0A3FE002894D02046294601F031FF00BB3D4A9AF8004001230890CDE90289CDE9B6
:405380000467019200937CB10020002102460B4602F044FB022CCDE90601CED0684601F043FF0028A1D1C8E700220023CDE90623F4E72D499AF900300322CDF820B0CDE9C9
:4053C0000289CDE9046701910092ABB9294D4FF060444046494600220023CDE9064502F065FC50BB9AF90030022B7FF478AF03F017F82223036078E71F4D0024404649462F
:4054000000220023CDE9064502F050FC0028E9D000221A4B3046394602F0D6F904460D4601F00AFF22462B4602F036FC0028D9D10F4B0022CDE90623D4E700220F4B30465C
:40544000394602F0C1F904460D4601F0F5FE22462B4602F021FC0028C4D1094B4FF06042CDE90623BEE700BFA4A900000000F03F0000F0FFFFFFEF470000F07F0000E03F36
:40548000FFFFEFC7A087FF1F2DE9F04F144623F00047024657EA04000E468FB01D469C46214634D06E4B26F0004A9A459346B14626DC24D09F4223DC694B9F4200F08F80E8
:4054C000B9F1000FC0F28F804FF0000879BB644B9F4200F0A580634B9F4267D0BCF1804F00F0E283604B9C4521D1B9F1000F1EDB104631460FB0BDE8F04F00F029BF62B1F0
:405500000AF1404000F5801050EA0B0007D10346544918460FB0BDE8F08F5745CCDD53480FB0BDE8F04F01F081BE4FF0000810463146CDF808C0009201F0B2FD009ADDF832
:4055400008C0BBF1000F20D04FEAD97909F1FF3958EA09037AD0464B9F4240F38F8003F104739F4240F31084424B9A4540F39283BCF1000F40F3928337A1D1E900010B4600
:40558000024602F021F90346C3E7BAF1000F04D0344B29F0404E9E45D6D1BCF1000FC0F2B683B9F1000F08DB0346B2E7BCF1000FC0F2528413463146ABE70AF1404A0AF517
:4055C000801A58EA0A0340F05E8402460B4601F047FF0B46024602F021FA034699E700293FF46EAF8CE7244B9F422CDCA3F154739F427FF769AF40F213403B15834240F396
:405600004B84C3F58663033321FA03F000FA03F38B427FF459AF00F00100C0F1020855E70AF1404303F5801353EA0B0300F03983104B9A4540F36483BCF1000FC0F22E8323
:405640002346294665E74FF002083FE7104631463346BCE7AFF300809C7500883CE4377E0000F07F0000F03F0000E03F1CA600000000E041FFFFEF3FFFFF3F43BAF5801F84
:405680004FF0000205DACA4B02F09EF88A466FF034024FEA2A53C74ECAF3130AA3F2FF334AF07F571344B2450C9347F4401740F3D083C14B9A4540F307840026B4460C9BD7
:4056C000A7F5801701330C933946BC4B4FEACC0C6344D3E900AB52465B46CDF834C0CDE9060101F0BDFE52465B46CDE90801DDE9060101F0B7FE02460B460020B04902F095
:405700008DF902460B46DDE90801CDE90A2302F05BF802460B46CDE90223CDE904237B1043F0005303F5002399190020002306460F460293DDE902231046194632463B4612
:40574000CDE9000102F040F802460B46DDE9080101F086FE5246CDE908015B463046394601F07EFE02460B46DDE9060101F078FE02460B46DDE9000102F026F802460B463B
:40578000DDE9080101F06CFEDDE90A2302F01CF8DDE90423CDE906011046194602F014F802460B4606460F4602F00EF86EA3D3E9002382468B463046394602F005F86CA3BB
:4057C000D3E9002301F04EFE32463B4601F0FCFF69A3D3E9002301F045FE32463B4601F0F3FF67A3D3E9002301F03CFE32463B4601F0EAFF64A3D3E9002301F033FE324646
:405800003B4601F0E1FF62A3D3E9002301F02AFE02460B465046594601F0D6FFDDE9042306460F46DDE9000101F01CFEDDE9062301F0CAFF32463B4601F014FEDDE9006753
:4058400082468B4632463B463046394601F0BCFF00225C4BCDE9080101F004FE52465B4601F000FE02980F460646DDE9000132463B4601F0A9FF32463B46CDE90001DDE948
:40588000060101F0A1FF0022CDE906014D4B3046394601F0E5FDDDE9082301F0E1FD02460B465046594601F0DBFDDDE9042301F08BFF02460B46DDE9060101F0D3FD824663
:4058C0008B46DDE9000152465B4601F0CBFD32A3D3E9002302980F46064601F075FF30A3D3E90023CDE904013046394601F06CFFDDE90023CDE906013046394601F0B0FDD3
:4059000002460B465046594601F0AAFD26A3D3E9002301F059FF02460B46DDE9060101F0A1FDDDF834C0284BCDF818C06344D3E9002301F097FDCDE900010C9801F0DEFE0F
:4059400006460F46DDE90401204BDDF818C09C44DDE90023DCE900AB01F084FD52465B4636E000BFAFF30080EF4E454A287ECA3F65DBC9934A86CD3F01411DA96074D13FE9
:405980004D268F515555D53FFFAB6FDBB66DDB3F033333333333E33F000000E009C7EE3FF5015B14E02F3EBEFD033ADC09C7EE3F000040438E98030079B60B00C8A90000CA
:4059C0000000F03F00000840B8A90000A8A90000CDE906AB01F046FD32463B4601F042FD029832463B4682468B4601F039FDDDE9062301F035FDDDE9042301F031FD024601
:405A00000B46DDE9000101F02BFDCDE9020108F1FF3858EA09030CBFD54BD64B0022CDE904230023CDE900450093DDE90067204632463B46294601F013FD52465B4601F01C
:405A4000C3FEDDE90223804689462046294601F0BBFE02460B464046494601F003FD04460D465246304639465B46CDE9024501F0ABFE06460F4620463B462946324601F005
:405A8000F1FCBD4B824699428946884640F3138101F13F4303F5E003034340F0E581A0A3D3E90023DDE9020101F0DCFC324604460D463B465046494601F0D2FC02460B46F8
:405AC0002046294602F010F9002840F0CD814C462015A0F2FE304FF4801101414144C1F30A50A64CA0F2FF35C1F3130BC0F5826003302C414BF4801B21EA040300224BFAEC
:405B000000FB3946304601F0ABFC06460F46DDE902018BEAE87B0BEBD87B32463B464FEA0B5A01F09FFC80A3D3E90023002420460D4601F049FE3246804689463B46204624
:405B4000294601F08DFC02460B46DDE9020101F087FC77A3D3E9002301F036FE76A3D3E9002306460F462046294601F02DFE02460B463046394601F075FC06460F463246B5
:405B80003B464046494601F06DFC42464B4604460D4601F065FC02460B463046394601F05FFC2246804689462B462046294601F00BFE63A3D3E9002306460F4601F004FE5D
:405BC00061A3D3E9002301F04BFC32463B4601F0FBFD5FA3D3E9002301F044FC32463B4601F0F2FD5CA3D3E9002301F039FC32463B4601F0E9FD5AA3D3E9002301F032FCEE
:405C000032463B4601F0E0FD02460B462046294601F026FC06460F4632463B462046294601F0D2FD0022CDE900014FF080433046394601F015FC02460B46DDE9000101F0CA
:405C4000EDFE424606460F464B462046294601F0BBFD42464B4601F005FC02460B463046394601F0FDFB22462B4601F0F9FB02460B4600203F4901F0F3FB8A44BAF5801F85
:405C80000246C0F227815346DDE9040101F09CFD03463EE4BCF1000FFFF66EAC0023194637E40B46334934E433461046314601F08BFD03462DE4324B21F000449C4240F3A0
:405CC000FA80304B0B4403430CD132463B4601F0C7FB02460B46DDE9020101F0F1FF00283FF4F6AE20A3D3E90023DDE9040101F06BFD1DA3D3E9002301F066FD034608E461
:405D0000BCF1000FCADA234605F1004101E402460B460020174901F081FE42E4AFF30080FE822B654715973C00000000432EE63FEF39FAFE422EE63F396CA80C615C20BE2F
:405D4000D0A4BE726937663EF16BD2C541BDBB3E2CDE25AF6A56113F93BDBE166CC1663F3E5555555555C53F59F3F8C21F6EA5010000F0BF0000F03FFFFF8F40FFFF0F0091
:405D8000FFCB904000346F3F634B9A4582DD634B9A453FF7EDAB0022604B01F061FB54A3D3E9002306460F4601F00EFD52A3D3E90023CDE900013046394601F005FD3246A8
:405DC000CDE902013B463046394601F0FDFC002282468B4630463946514B01F0F5FC02460B4647A1D1E9000101F03AFB32463B4601F0EAFC02460B4600204A4901F030FBC2
:405E000002460B465046594601F0DEFC3EA3D3E9002301F0D9FC02460B46DDE9020101F01FFB06460F46DDE9000132463B4601F019FBDDE90023002082468B4601F010FBD2
:405E400002460B463046394601F00AFBCDE90201DDE50026B44637E4334600202F4901F0DDFD0346FFF755BB29A3D3E90023DDE9040101F0A9FC26A3D3E9002301F0A4FC78
:405E80000346FFF746BBB8F1010F03467FF441AB01F10041FFF73DBB00297FF446ABC3F58263033347FA03F000FA03F3BB4217D08846FFF710BB1B4B9C423FF709AEDDE932
:405EC0000023924693462EE64FF480264FF0010CFFF7FABB5A4601F03FFA02460B46D3E600F00100C0F10208FFF7F5BAAFF30080000000604715F73F44DF5DF80BAE543E96
:405F0000555555555555D53FFE822B654715F73F9C7500883CE4377EFEFFEF3F0000F03F0000D03F0000E03F2DE9F04F924C21F00047A7428FB00E467FDD14468F4A974248
:405F400026DC83A3D3E90023002940F39D8101F087FA8B4B80469F42894600F083807EA3D3E9002301F07CFA02460B464046C4E90023494601F074FA77A3D3E9002301F0C1
:405F80006FFA0125C4E9020128460FB0BDE8F08F7C4A974240F383807B4A974258DC3D15A5F21645A7EB05518B46824601F0A6FE01F0A4FB8046894642464B4650465946DD
:405FC000CDE9088901F04CFA0022704B01F0FCFB8B46824601F092FE01F090FB8046894642464B4650465946CDE90A8901F038FA0022664B01F0E8FB00220023CDE90C01CA
:4060000001F04AFE002800F06781002340464946002201F041FE002814BF012302235C480221019000912A4608A8214600F07CFB002EC0F24781054606E0C2E900010025D8
:406040000024C2E90245002528460FB0BDE8F08F02460B4601F004FA0025C4E90201C4E90001F1E73EA3D3E9002301F0F9F93EA3D3E9002306460F4601F0F2F902460B4638
:406080003046C4E90023394601F0EAF936A3D3E9002301F0E5F90125C4E90201D4E700F0FFFF33A3D3E900238046894601F08CFB0022384B01F0D6F901F020FE054601F0CF
:4060C0001DFB23A3D3E90023CDE9040101F07CFB02460B464046494601F0C2F91EA3D3E9002382468B46DDE9040101F06DFB1F2DCDE902015046594650DC274B6A1E53F85E
:406100002230BB424AD0DDE9022301F0A9F902460B4681468846C4E900234A4643465046594601F09DF9DDE9022301F099F902460B46002EC4E9022386DA4A4608F1004372
:4061400001F1004184E80C00E160A0606D427BE700004054FB21F93F3163621A61B4D03D0000601A61B4D03D7370032E8A19A33B83C8C96D305FE43FFB21E93F7BD90240CA
:40618000FB21F93FFB213941FFFFEF7F0000704158AA00000000E03FD8A90000DDE9022301F05EF988463F15C8F30A53FB1A102B8146C4E90001B0DD59A3D3E90023DDE9D6
:4061C000040101F001FB8046894642464B465046594601F045F9CDE90601DDE906235046594601F03DF942464B4601F039F94EA3D3E9002380468946DDE9040101F0E4FA58
:4062000042464B4601F02CF9CDE90201DDE90223DDE9060101F024F90B4602468846C1F30A517F1A312F8146C4E9002374DD40A3D3E90023DDE9040101F0C6FA8046894686
:40624000DDE9060142464B4601F00AF982468B46DDE9060152465B4601F002F942464B4601F0FEF834A3D3E9002380468946DDE9040101F0A9FA42464B4601F0F1F8CDE966
:406280000201504659463EE701F0ECF82E4B80469F42894622D02AA3D3E9002301F0E2F802460B464046C4E90023494601F0D8F823A3D3E9002301F0D5F84FF0FF35C4E992
:4062C0000201C1E66268E36802F1004203F1004345426260E360B7E60323A0E610A3D3E9002301F0BFF810A3D3E9002306460F4601F0B8F802460B463046C4E90023394632
:4063000001F0AEF808A3D3E9002301F0ABF84FF0FF35C4E9020197E6DDE906ABFDE600BF0000601A61B4D03D7370032E8A19A33B0000002E8A19A33BC14920259A837B39EF
:406340003163621A61B4D03DFB21F93FAFF300802DE9F041604E0C46B6460E40764505460B4600F098800029024676DD5FEA215E00F08180AEF2FF3EC3F313031EF0010F41
:4063800043F480135ED100273C46D10F01EB43034FEA6E0E520016204FF4001165189D424FEAD2764FEA420202DC5B1B6C180F44013806EB43034FEA5101EFD18446202648
:4063C0004FF000410AE0A34220D0D50F013E4FEA510105EB43034FEA420220D09C420CEB0105F0DA002D05EB010C09DBA0461B1B954288BF03F1FF334446521B0844E4E7EC
:40640000BCF1000FF2DB04F10108F0E7954217D8002D05EB010C48DB98460023ECE7134315D140087B1003F17F5303F50013FA0703EB0E57394648BF40F00040BDE8F081D7
:406440001C46C2E7D10F01EB430352009BE7411C31D000F001031844E3E721F000460643ECD079BB8E46D30AAEF1150E5205002BF9D0DC0222D400215B00D80201F1010147
:40648000FAD5C1F10100C1F1200422FA04F4234386448A406EE702460B4601F095F92A46234600F0DFFFBDE8F081BCF1000FAADAA0460023A0E701373046B3E720240120CF
:4064C0000021E2E702460B4600F0CAFF02460B4601F0A4FAB2E700BF0000F07F000000002DE9F04F21F00047B7F1795F85B00C4692469B4605466BDA01F000FC002800F06F
:40650000E7802A4623462846214601F05DF974A3D3E900238046894601F056F972A3D3E9002300F09FFF42464B4601F04DF970A3D3E9002300F094FF42464B4601F044F9A6
:406540006DA3D3E9002300F08DFF42464B4601F03BF96BA3D3E9002300F082FF42464B4601F032F968A3D3E9002300F07BFF42464B4601F029F9CDE9000140464946002271
:40658000634B01F021F9DDE9002306460F464046494601F019F95246804689465B462846214601F011F902460B464046494600F057FF02460B463046394600F051FF0246D8
:4065C0000B460020534900F04BFF05B0BDE8F08F02460B4601F0F8F841A3D3E900238046894601F0F1F840A3D3E9002300F03AFF42464B4601F0E8F83DA3D3E9002300F04B
:406600002FFF42464B4601F0DFF83BA3D3E9002300F028FF42464B4601F0D6F838A3D3E9002300F01DFF42464B4601F0CDF836A3D3E9002300F016FF4B46424601F0C4F887
:40664000354BCDE900019F4297DD344B00229F4238DCA7F5001300202E4916461F4600F0FFFECDE90201404649460022284B01F0ABF832463B4600F0F3FEDDE900230646FE
:406680000F464046494601F09FF85246804689465B462846214601F097F802460B464046494600F0DDFE02460B463046394600F0D7FE02460B46DDE9020100F0D1FE05B023
:4066C000BDE8F08F164B0026CDE90223154FCAE71049002005B0BDE8F08F00BFAFF30080D43888BEE9FAA8BDC4B1B4BD9EEE213EAD529C804F7E923E9015CB19A001FA3E47
:406700007751C1166CC1563F4C5555555555A53F0000E03F0000F03F3233D33F0000E93F0000E73F0000D23F2DE9F04F9E467E4DD41E85FB0465E417C4EBA504ADF51D7D8D
:4067400024EAE4742546A69E0D940C93E343774C03EB430354F8264002EBC303274609940EF1FF3426460394F41904900A910893A5EB060516D42C44013422AEA79F08E004
:4067800057F8250000F0BAFF0135A542E6E9020108D0002DF4DA013500200021A542E6E90201F6D1099B002B31DB099A0C9B74A901EBC20BC3EB4373039A24A9DB0001EB73
:4067C000C20800930DF5E479039B002BC0F297814446049B0026A3F1080A009B002708EB0305FAE9022374E8020100F0EDFF02460B463046394600F035FEAC4206460F4615
:40680000EFD1E9E90267D94508F10808DCD1099B10A99B4603F18043013B9B001A1D0A440B440F920E934FEACB039CA91A460693BBF1000F0B4453E9284528DD0DF5E87A46
:406840000AEB02060FAF0022394B2046294600F0BBFF01F053FA00F051FF0022354B8046894600F0B1FF02460B462046294600F0F7FD01F043FA76E9022347F8040F4946FE
:40688000404600F0EFFD564504460D46DBD1DDF82090204629464A4600F05EFD00224FF07F5304460D4600F08FFF00F005FC0022214B00F089FF02460B462046294600F0BA
:4068C000CFFD04460D4601F019FA804600F016FF02460B46204629464C4600F0C1FD002C06460F4640F3F1800BF1FF3110AB53F82130C9F1180043FA00F202FA00F55D1B54
:4069000010A8C9F1170340F8215090441D41002D3FDDBBF1000F08F1010840F38482002214460FA912E000BFABAAAA2A60AB00000000703E0000704100002040C3F1807035
:406940000BB108600124013293450DDD51F8043F002CF3D0C3F1FF13013203F57F4393450B604FF00104F1DC089B002B0EDD012B00F0B380022B09D10BF1FF3210AB53F815
:40698000223010A9C3F3150341F82230022D00F08380304639460022002301F07DF9002800F0C980099B0BF1FF3A53450DDC10AB0F9803EB8B03002253F8041D834242EA98
:4069C0000102F9D1002A40F01482099B10AA013B52F82330002B40F024820E9A012352F8041D01330029FAD05B441A460B930BF1010393424DDC0D9A4FF0000803EB0209C2
:406A00000B9A0C9B09F180495B44CBEB020BA79A09F1FF3902EB890200924FEACB02DB00059224AA02EB030B0793069B74AA02EB030A009B002653F8040F0027009300F00B
:406A40005DFE039BEBE80201002B1BDB079B03EB0804069B08EB030524AB1C441D44049BA3F10809F9E9022374E8020100F0ACFE02460B463046394600F0F4FCAC42064672
:406A80000F46EFD1059B08F108089845EAE90267CFD1DDF82CB0C6E632463B460020BF4900F0DEFC06460F46002C3FF472AF089A0020BA4900F050FC02460B463046394667
:406AC00000F0CEFC06460F4663E711D10BF1FF3310AA52F82350ED1519E70BF1FF3210AB53F8223010A9C3F3160341F822304DE70022AB4B01F0EEF858B9054649E70026FB
:406B00000027E9E90267D94508F108087FF45CAE7DE6BBF1000F08F10108C8BF02253FF7FEAE32463B4600209C4900F099FC022506460F462DE7089B30465A423946039574
:406B4000CDF8148000F008FC0022964B04460D4601F0C0F8002800F0E1810022924B2046294600F031FE01F0C9F8064600F0C6FD00228C4B00F028FE0B46024629462046E4
:406B800000F06EFC01F0BAF8089B0BF1010A1833089310AB43F82B0043F82A60089A00207E4900F0D9FBBAF1000F04460D46C0F2CA800AF101034FEAC30874AF10AA00934F
:406BC00002EB830907EB080659F8040D00F096FD22462B4600F0F8FD002266E90201724B2046294600F0F0FDBE4204460D46EBD1A8F1080806EB08039B460DF59879CDF8DF
:406C000018A0DDF824A04FF00008CDF81090BAF1000FC0F29580B8F1000FC0F29180DFF88C915D4600260027002401E0444510DCF9E90223F5E8020100F0C6FD02460B46CA
:406C40003046394600F00EFC0134A24506460F46ECDA049BABF1080B03EBC803C3E90067009B08F101089845D1D1A69BDDF818A0DDF81090032B3BD8DFE813F041000400D9
:406C80000400D70000273E46009B09EBC304384674E90223314600F0E5FB4C4507460E46F5D1039B002B00F08B80D9E900010A9D334606F100463A466E602F6000F0D0FB3D
:406CC000BAF1000F03460CDD01261C46F9E90223204600F0C7FB0136B2450346F5DA039A0AB101F100411C460D460A9BC3E90245059B03F007000DF51D7DBDE8F08F002365
:406D00001946009A09EBC2091C4679E90223204600F0A8FB0AF1FF3ABAF1FF3F0346F3D1039A0AB101F100411C460D460A9BC3E90045059B03F007000DF51D7DBDE8F08F5F
:406D40000026002785E7A69B032BD1D8DFE803F04E3030020DF59879039A00231E46002A00F0C8800A9FD9F80800D9F80440D9F80C203B61059BD9F8001006F1004604F15C
:406D8000004402F10042B86003F007007E617C60FA6039600DF51D7DBDE8F08F0000F03F0000E03F000070410000703E68AB0000039B00273E460DF59879002B7FF475AFFC
:406DC000D9E9000135463C4633460A9E3A46C6E9004500F045FBBAF1000F03463FF774AF1C460D460A9BC3E9024581E70023194696E7089A10AB53F82A30183A0395CDF84D
:406E000014800892002B7FF4C9AE10AB03EB8A0353F8041D0AF1FF3A183A0029F8D00892BCE60123E0E500249EE5BAF1000F93DD4FEACA0809EB08039B46D3E900677BE98E
:406E4000022330463946CDE9002300F00BFB04460D46DDE9000122462B4600F001FB02460B463046394600F0FDFACB4526462F46CBE90201CBE90045E1D1BAF1010F7FF707
:406E80006BAF09EB08039A46D3E900670DF59C7B7AE902231046194632463B46CDE9000100F0E0FA04460D46DDE9000122462B4600F0D6FA32463B4600F0D4FADA452646A7
:406EC0002F46CAE90201CAE90045E1D100231E4608F108044C4450AD184674E90223314600F0C0FAAC4203460E46F5D1039A002A7FF438AFD9E90045D9E902891846314608
:406F00000A9A059BC2E9040103F00700C2E90045C2E902890DF51D7DBDE8F08F2046294600F0ECFE10ABDA4643F82B0036E600BF2DE9F04F21F00046B6F1795F85B00C4600
:406F400090469946054604DA00F0D8FE002800F083802A4623462846214600F035FC2A46234606460F4600F02FFC3FA3D3E9002382468B463046394600F026FC3CA3D3E9F2
:406F8000002300F06DFA32463B4600F01DFC3AA3D3E9002300F066FA32463B4600F014FC37A3D3E9002300F05BFA32463B4600F00BFC35A3D3E9002300F054FA0E9BCDE90E
:406FC00000019BB3404649460022334B00F0FCFBDDE90023CDE902015046594600F0F4FB02460B46DDE9020100F03AFA32463B4600F0EAFB42464B4600F032FA24A3D3E9E4
:40700000002306460F465046594600F0DDFB02460B463046394600F025FA02460B462846214600F01DFA05B0BDE8F08FDDE900233046394600F0C8FB15A3D3E9002300F08C
:407040000FFA52465B4600F0BFFB2A46234600F009FA05B0BDE8F08F2846214605B0BDE8F08F00BFAFF300807CD5CF5A3AD9E53DEB9C2B8AE6E55A3E7DFEB157E31DC73E1A
:40708000D561C119A0012A3FA6F810111111813F495555555555C53F0000E03FAFF3008021F00041704700BF41F0004101F58010C00F7047000000002DE9F047C1F30A5835
:4070C000A8F2FF36132E0B4604460D460246894607461DDC002E40DBDFF8F08048FA06F808EA010E5EEA020217D035A3D3E9002300F0B8F90022002300F0F6FD20B1002DB3
:4071000040DB29EA0805002738462946BDE8F087332E06DDB6F5806F2FD020461946BDE8F087A8F213424FF0FF3A2AFA02FA1AEA000FF2D022A3D3E9002300F093F9002288
:40714000002300F0D1FD0028DED0002D1FDB4D4627EA0A0738462946D8E719A3D3E9002300F080F90022002300F0BEFD0028CBD0002D1ADB00273D46C6E702460B4600F017
:4071800071F9CCE74FF4801333419944B9E7142E08D0C8F5866808F10308012303FA08F31F19D4D309F10109D1E725F00042064B224318BF1D460027A6E700BFAFF300808F
:4071C0009C7500883CE4377E0000F0BFFFFF0F0010B431F0004408D0114BA1F580129A4208D804205DF8044B704718B902205DF8044B704701F1FF41094B01F5E00199421F
:40720000EFD9B4F5801F01D20320EBE7054B9C4201D00020E6E7B0FA80F04009E2E700BFFFFFDF7F0000F07F0020704700200149704700BF0000F87FF0B5C1F30A5EAEF245
