:400000000080002011000000C11E0000C11E000008B5044B1A6803F53F5302331A6001F06FFF00BFFA46004010B5054C237833B9044B13B10448AFF300800123237010BD4A
:400040002883FF1F000000005C930000084B10B51BB108480849AFF300800848036803B910BD074B002BFBD0BDE81040184700BF000000005C9300002C83FF1F0881FF1F1F
:400080000000000008B562B601F06CFA01F038FA00F02CF900F02CF900F02CF900F036F900F020FA00F0F8F800F062F801F074F800F082F900F098FC1748184900F088FFDC
:4000C00000F084FD01F08AF801F01EF901F04CFA01F028FA00F016FA00F0E0F800F056F801F060F800F08CF900F08AFC00F0A4FF00F076FD012002F045FC00F0D1F800F09D
:400100008FF900F0B1FF00F0BBFE00F001F9002002F038FCEEE700BFD5020000E102000010B50446064B1968088880B2A1F50041204389B201F080FA204600F0BDFA10BD13
:40014000A8ECFF1F10B50446084A1368188880B220EA040019881880118881F4004101F06BFA204600F0C4FA10BD00BFA8ECFF1F034A044B1A600022034B1A70704700BF5B
:4001800000800040A8ECFF1F4483FF1F08B5034B1B68188880B200F08FFA08BDA8ECFF1F08B520F07F02204B1A7010F0010F0AD00120FFF7C7FF1C4B187801F079FB012011
:4001C000FFF7AEFF2BE000F002039BB253B10220FFF7B8FF144B187801F00EFD0220FFF79FFF1CE000F004039BB253B10420FFF7A9FF0D4B187801F0CBFD0420FFF790FF4B
:400200000DE000F0080080B248B10820FFF79AFF054B187801F004FD0820FFF781FF0022014B1A7008BD00BF4483FF1F044A136830330360136803F5B8730B60704700BF18
:40024000A8ECFF1F044A136803F52C730360136803F57C730B607047A8ECFF1F014B186810307047A8ECFF1F014B18681C307047A8ECFF1F00B583B001A8694600F084F930
:40028000044B019800991A46043300F0FDFF03B05DF804FB4883FF1F704700BF704700BF38B500F043F9044600F056F9054614F0010F01D000F014FC04F00204A4B20CB17F
:4002C00000F00CFE15B12846FFF76AFFFFF7D2FF38BD00BF014B1868704700BF4883FF1F014B5868704700BF4883FF1F704700BF704700BF08B5002002F044FB00F068FF0F
:40030000014B186008BD00BF5083FF1F704700BF08B500F05DFF0A4A1368C01A506005F01DFC0022074B05F01FFF40B100F050FF034B18609868421C9A6000F045FA08BDD5
:400340005083FF1F00407F4070B504460E46036B9847A060E368C31A2361E06004F12005184606F03DF80146284600F039FF60610F4906F089F80546304606F02DF801465E
:40038000284606F035F9014604F1280000F028FFA06105F005FC04A3D3E9002305F054FC05F014FFE06170BD57A393F4923B6B3F00007A44AFF3008010B40E4B00219960E9
:4003C000D960196100225A615A620B4C1C62DA620A4898629A61DA61196459649964DA64DA659C655A6618661A655A655DF8044B704700BF0C81FF1F000040400000204147
:4004000010B502F017FD02F0FDFB044C636B00209847E36E0020984710BD00BF0C81FF1F38B500F0D5FE114A1368C01A506005F095FB00220E4B05F08DFEB0B100F0C8FEBC
:400440000A4B18601B7A2BB90122084B1A72072002F024F8074D054C28466168FFF774FF05F138006168FFF76FFF38BD5C83FF1F000049400C81FF1F014B9869704700BF76
:400480000C81FF1F014B186D704700BF0C81FF1F014BD869704700BF0C81FF1F014B586D704700BF0C81FF1F70B50D4C636B002098470026E6602661002565616562A561C9
:4004C000E561E562A660E36E304698476664A664E564E565256565656566266470BD00BF0C81FF1F10B5064C204600215A2206F01CFA0023A4F85A30A4F85C3010BD00BFF9
:400500006883FF1F10B502F011F9064C5A200E21224602F02DF9044B1B681B880423A38010BD00BF6883FF1FA8ECFF1F08B502F00BF90028FBD14FF40043044A1360044A34
:40054000108800211180034A136008BD80E100E06883FF1F00E100E008B502F0F5F80028FBD14FF40043044A1360044A908800219180034A136008BD80E100E06883FF1F63
:4005800000E100E0000000002DE9F04105460C4602F0DAF810F0020F03D000223E4B1A660AE000F015FE3C4E736EC01A336E0344336600F00DFE706600232B602360364B8D
:4005C0001B6EB3F5FA6F11D202F0BEF80028FBD14FF40042314B1A602F49314BC1F806302B60D1F80A3023602E4B1A60D5F80080404605F0D5FA06460F461FA3D3E90023A7
:4006000005F094FD38B1304639461DA3D3E9002305F08CFD50B93046394617A3D3E9002305F084FD20B9DFF8888001E0DFF88480C5F800802568284605F0B2FA06460F463E
:4006400011A3D3E9002305F071FD38B1304639460FA3D3E9002305F069FD48B93046394609A3D3E9002305F061FD10B90E4D00E00E4D2560BDE8F081C66D3480B740E83FE7
:40068000C66D3480B740E8BF17F671611F170E4017F671611F170EC06883FF1F80E100E09A99193E00E100E0FBB87040FBB870C0BC05423FBC0542BF08B50A4AB2F85C3049
:4006C0001843A2F85C0002F03FF80028FBD14FF40043054A1360034AB2F85C10D181034A136008BD6883FF1F80E100E000E100E008B50B4AB2F85C3023EA0000A2F85C00B4
:4007000002F022F80028FBD14FF40043054A1360034AB2F85C101182034A136008BD00BF6883FF1F80E100E000E100E0F8B507460E4615461C4602F007F80028FBD14FF4F9
:4007400000431E4A13601E4AC2F812701D4A136001F0FAFF0028FBD14FF40043174A1360174AC2F81660174A136001F0EDFF0028FBD14FF40043114A1360114AC2F81A509C
:40078000104A136001F0E0FF0028FBD14FF400430A4A13600A4AC2F81E400A4A136001F0D3FF0028FBD14FF40043044A13600699034AC2F82210034A1360F8BD80E100E09C
:4007C0006883FF1F00E100E010B5044601F0BCFF0028FBD14FF40043034A1360034AC2F85640034A136010BD80E100E06883FF1F00E100E030B4BDF8084091420AD19C4298
:4008000001D198B211E0E41A04EBD47403EB640080B20AE0401A25B21CB22C1B04FB00F4521A94FBF2F2981880B200B230BC704770B584B00C4600218DF80F108DF80E10A6
:4008400058B3164605460DF10E02009221461A460DF10F0300F0EEFC9DF80F309DF80E0034F9231034F9202036F8133036F81000009028B2FFF7BEFF80B2A0F5FA639BB2F4
:400880004FF62F02934205D9B0F57A7F38BF4FF47A7004E04FF4FA6001E040F2DC5004B070BD00BF2DE9F04180460C46002105F0A7FFF8B1E7687D683E68B86805F090FDAD
:4008C000414605F0E1FD05F0A5FFB042B8BF30468542A8BF0546284607F10C0107F1D8023323FFF7A5FFE080284605F079FDA060BDE8F0814046002105F064FFF8B12769F1
:400900007D683E68B86805F06BFD414605F0BCFD05F080FFB042B8BF30468542A8BF0546284607F10C0107F1D8023323FFF780FFE080284605F054FDA060BDE8F08140F242
:40094000DC53E3800023A360BDE8F0812DE9F04180460F46C488A31A002B03DA6642B61AB6B201E0A61AB6B2B6FBF7F600250AE0A41BA4B2D8F8203020469847012001F014
:400980008DFD0135ADB2BD42F2D3BDE8F08100BF2DE9F041884602EB8202D7B27D1D036AC08898470026002411E0FFF739FD042C08D9C0470B4905F067FD0146304605F064
:4009C0005BFC06460A2001F069FD0134E4B2A3B2AB42EAD3304605F01DFF90FBF7F0BDE8F08100BF0000C84210B5044C636901209847A36B0120984710BD00BF7C81FF1F9B
:400A000010B5104C04F10C0004F11001FFF70EFC04F1300004F13401FFF714FC636900209847A3699847236A40F2DC509847A36B00209847E36B9847636C40F2DC50984773
:400A400010BD00BF7C81FF1F10B5044C2146FFF729FF236AE088984710BD00BF7C81FF1F10B5044C04F12401FFF71CFF636C608D984710BD7C81FF1F08B505F091F806A313
:400A8000D3E9002305F00AFA05F078FB00B205F0A7FCFFF7D9FF08BD57A393F4923B6B3F08B505F07DF806A3D3E9002305F0F6F905F064FB00B205F093FCFFF7D1FF08BD79
:400AC00057A393F4923B6B3F014BD888704700BF7C81FF1F014B588D704700BF7C81FF1F10B5064CE3699847236C9847636901209847A36B0120984710BD00BF7C81FF1FCE
:400B00002DE9F0470C4690469946089E034608B9244D00E0244D0BB9244F00E0244F40F2DC50E8802B6A98474FF4FA7001F0B6FCFFF7BAFC30460021CC2205F0F6FE8CB97C
:400B400020E0C4F1320A5FFA8AFA39F81A30EB80284639464246FFF71BFF46F82A000134E4B200E00024322CEBD90DE039F81430EB80284639464246FFF70AFF46F8240040
:400B80000134E4B2322CF1D928464FF4FA7140F2DC52FFF7DBFE40F2DC50E8802B6A9847BDE8F0877C81FF1FA081FF1F7904000085040000014BD860196170477C81FF1F71
:400BC000014B1863596370477C81FF1F034B00221A605A609A60DA601A617047D083FF1F704700BF000000002DE9F84F0646FFF74FFC0446FFF752FC0546304605F0ECFB9A
:400C00000646214605F040FC954905F0F1FC82462846314605F038FC914905F0E9FC81465046494605F026FB04F0BAFF7CA3D3E9002305F033F906460F468A4BD3F80080F7
:400C4000D8F82C0004F0ACFF02460B463046394604F0FAFF05F0BAFA834E316805F00CFB306004F09DFF06460F466FA3D3E9002305F07AFA58B1304639466DA3D3E9002347
:400C800004F02EFE05F0A2FA774B186012E03046394669A3D3E9002305F052FA50B13046394663A3D3E9002304F01CFE05F08EFA6D4B18605046494605F0DEFA04F070FF4B
:400CC00000226A4B04F0C0FF06460F46D8F8280004F066FF02460B463046394604F0B4FF05F074FA04F05CFF06460F46DFF878A1DAF8000004F054FF8046894602F0A4FBC1
:400D000002460B463046394604F09EFF05F05EFA83464046494602F0DFFB02460B463046394604F091FF05F051FA0646DAF80400594605F0A1FACAF80400DAF808003146E3
:400D400005F09AFACAF808002846214605F094FA4FF07C5105F098FB814604F021FF06460F4637A3D3E9002305F0FEF970B14FF001083046394634A3D3E9002305F0D6F93B
:400D800008B94FF000085FFA88F300E0012353B1304639462AA3D3E9002305F0E5F920B9DFF8D49001E0DFF8D4902F4BC3F80C902846214605F05EFA04F0F2FE18A3D3E95D
:400DC000002305F06BF806460F4621A3D3E9002305F0CAF968B14FF00104304639461EA3D3E9002305F0A2F908B94FF00004E3B200E0012373B13046394615A3D3E90023AD
:400E000005F0B2F920B13046394605F0DFF902E0174800E01748144B1861BDE8F88F00BF986E1283C0CAD93F182D4454FB210940182D4454FB211940182D4454FB2109C0A9
:400E4000C66D3480B740E8BFC66D3480B740E83F17F671611F170EC017F671611F170E4000007A44A8ECFF1FD083FF1F0000E03FFBB870C0FBB87040BC0542BFBC05423F58
:400E800010B582B000F0A4F9124B5C69041B204604F064FE0022104B05F066F9B8B100F097F90C4B58611B7E2BB90122094B1A760B2001F0F3FA2046FFF796FE054C606851
:400EC000A1682268E36824690094FFF72FFC02B010BD00BFD083FF1F0000494000B583B0074A0023136053609360D36013610093184619461A46FFF719FC03B05DF804FBBC
:400F0000D083FF1F024B5A6802609B680B607047D083FF1F014B1868704700BFD083FF1F2DE9F0470546436C98478146002105F067FC10B14FF0010A01E04FF0FF0AAB6CD5
:400F40009847044605F10808484604F029FE1EA3D3E9002304F0A2FF06460F460022002305F0E4F850B109F1004004F019FE16A3D3E9002304F092FF06460F4630463946B4
:400F800005F024F90146404600F0B6FA2046002105F018FC10B104F1004100E02146404600F0ACFA404600F0C7F950B1EC6C2D694FFA8AF005F014FA0146284605F064FAD5
:400FC000A047BDE8F08700BF57A393F4923B6B3F2DE9F04387B0154D6864C5F898100024DFF84C90CDF800900194DFF84880CDF80880012703970026049605F10800214690
:401000002246234600F04EFACDF800900194CDF808800397049605F15C0021462246234600F040FA07B0BDE8F08300BFC481FF1FCDCC4C3D0000964310B5FFF70FF9094C84
:4010400001684268836804F1080000F0F5F9FFF70BF901684268836804F15C0000F0ECF910BD00BFC481FF1F10B500F0B1F80F4B1B68C01A04F072FD00220D4B05F06AF841
:4010800098B100F0A5F8094B18601B792BB90122064B1A71132001F001FA064C2046FFF73FFF04F15400FFF73BFF10BDEC83FF1F00004940C481FF1F2DE9F84305460F465C
:4010C000164600F085F804464FF000094FF000081CE0EB6C38469847FFF7A2F9FFF7C4FF00F076F8001BB0F57A7F0FD9AB6C98470146384605F0BEF8014605F0C5F90146AE
:40110000404605F0B9F8804609F1010900F060F8001BB042DDD3EB6C002098474FF4FA7001F0BCF9484605F057F90146404605F05FFABDE8F88300BF70B503460E46154621
:40114000064C04F1080019685A689B6800F074F9204631462A46FFF7AFFF70BDC481FF1F38B503460D461446054819685A689B6800F062F9034829462246FFF79DFF38BD92
:401180002082FF1F1882FF1F024A136801331360704700BFF483FF1F0022014B1A607047F483FF1F10B501F053FA01F01FFA002409E0204601F062FA20B92046034901F0C1
:4011C00055FA10BD0134042CF3D910BD89110000014B1868704700BFF483FF1F704700BFF8B504464668304605F046F8074625683046294605F0FCF90146384605F03AF80B
:401200006060294605F0F4F9F8BD00BF030A0B704870704782B001909DF804300B709DF805304B709DF806308B709DF80730CB7002B07047F0B4049F013AD2B254080025E9
:401240001D703D7019E051F82460864203DA651CEDB21C700CE0864202D11C703C700EE0864205DD3C701A78A21A012A07D02246AC1804EBD474C4F347049542E3D9F0BC26
:40128000704700BF000000002DE9F8430C469146984604F085FC06460F46204604F080FC11A3D3E9002304F0CFFC0022104B04F0CBFC04460D463046394622462B4604F08B
:4012C0000FFB04F083FFC9F800003046394622462B4604F007FB04F079FFC8F80000BDE8F88300BFAFF30080986E1283C0CAD93F0000E03FAFF30080002383600360436032
:4013000001614261704700BF10B500F03BFF00F045FF084C04F1280004F14C0104F16C02FFF7EAFF201D04F1AC0104F1CC02FFF7E3FF10BDF883FF1F2DE9F84390F83930F8
:40134000002B48D004460768406B394604F092FF8046E069414605F097F8616A04F08CFF05466062E66A314605F02CFA40B9D4F830902846494605F043FA10B14D4600E087
:40138000354665623846616804F074FF8146A069414605F079F80146284604F06DFF0546206A494605F070F80146284604F062FF0546A0603046294605F022FA30B9266BE5
:4013C0002846314605F01CFA00B92E46A66067600120BDE8F8830020BDE8F883F8B504460D4616460846114605F000FA18BBE562266394F83930012B1DD1A768384629469A
:4014000005F0E0F930B93046394605F0DBF910B1374600E02F46A760676A3846294605F0D1F930B93046394605F0CCF910B1374600E02F466762F8BD2DE9F04104460D4693
:4014400016461F460846002105F0BCF938BB3046002105F0B7F910BB3846002105F0B2F9E8B9E56026616761A561D4F828804046314605F009F80646E0613846414605F030
:40148000B7F8206294F83830012B08D105F10045A56106F10046E66100F100402062BDE8F08100BFF8B504460F4616461D469DF8283080F838309DF8243080F839300021F2
:4014C00041620160416081604163069805F098F910B1069BA36202E04FF07E53A36220460799089AFFF77AFF2046394632462B46FFF7A2FFF8BD00BF4163704701607047DD
:4015000008B5064800214FF4C84205F00EFA044B002283F8282F83F8292F08BD0485FF1FDCD9FF1F704700BF704700BF08B501F035FD034640B101F0ADFD034620B101F034
:401540008FFD031C18BF0123184608BD10B5044601F024FD28B101F09DFD10B1204601F0A5FD10BD704700BF08B501F01DFA08BD2DE9F04780460D46170912F00F021CD011
:40158000C2F1100A1FFA8AFA02EB07121FFA82F9002426460CE009EB060118F8040089B201F006FA0134A4B2013DADB20136B6B25645F0D30137BFB200E00024C5F30F19BE
:4015C000B9F1000F0ED110E008EB0400F9B201F059FA1034A4B2103DADB20137BFB20136B6B200E000264E45EED3ADB13F01BFB2A94600260DE0B91918F8040089B201F072
:40160000D7F90134A4B209F1FF391FFA89F90136B6B2B542EFD84D462DB104484E21044A044B05F01DF9BDE8F08700BF74930000609300008893000010B582B00C4601A96E
:40164000FFF7E4FD9DF80400214601F0B1F9611C9DF8050089B201F0ABF902B010BD00BF30B583B00D4601A9FFF7D4FD002409E002AB2344291913F8040C89B201F098F9BC
:401680000134E4B2032CF3D903B030BD074B1B6803F13001064A116003F5B871516003F52C71916003F57C73D3607047A8ECFF1F08E9FF1FB8B929B919704FF4FA6040F274
:4016C000DC5305E00121197040F2DC504FF47A73002105E022F811300131C9B20A339BB28342F7D9704729B919704FF47A7040F2DC5305E00121197040F2DC504FF4FA6332
:40170000002105E022F811300131C9B20A3B9BB28342F7D2704700BF10B4002308E050F8232051F82340224441F823200133DBB2322BF4D95DF8044B704700BF10B4002331
:4017400007E050F8234094FBF1F442F823400133DBB2322BF5D95DF8044B7047F0B44FF6FF7414600A4C1C6000240DE0A60050F824501F68BD4200DD1D6085591668B54237
:4017800000DA15600134E4B28C42EFD3F0BC70470100FFFF2DE9F04184B0804617461D460A9E32460DF10F03FFF784FF0F480021CC2205F0BAF800240DE09DF80F1000950C
:4017C00040460A223346FFF79BF928460749FFF7A3FF0134E4B2BC42EFD3044839462A46FFF7ACFF04B0BDE8F08100BF18E9FF1F2DE9F84380460D4617469946124C04F1D6
:40180000DC0610463321324604F1E003FFF7A6FF6423C4F8E43004F1E8003946CC2205F079F804F5DA704946662205F073F805EB480534F8252030464FF4A07182F4004240
:40184000FFF796FEBDE8F88308E9FF1F70B59EB003460E461546684612491A4605F00AFE6846FFF761FE00240CE005A80E4956F8242035F8143005F0FDFD05A8FFF754FEE0
:401880000134E4B2312CF0D905A8084956F8242035F8143005F0EEFD05A8FFF745FE1EB070BD00BF98930000A0930000AC93000070B582B00446FFF7E9FE14B13B48FFF75D
:4018C00033FE3B4D05F5077605F53A7500950020014605223346FFF75DFF0020014632462B46FFF785FF24B1324831462A46FFF7ADFF2F4D05F5077605F53A75009500202E
:40190000012105223346FFF745FF0020012132462B46FFF76DFF24B1274831462A46FFF795FF234D05F5077605F53A7500950120002105223346FFF72DFF01200021324686
:401940002B46FFF755FF24B11C4831462A46FFF77DFF174D05F5077605F53A7500950120014605223346FFF715FF0120014632462B46FFF73DFF24B1114831462A46FFF761
:4019800065FF104D296801F1300001F5B871FFF711F9296801F52C7001F57C71FFF710F914B10948FFF7C0FD02B070BDBC93000008E9FF1FE8930000F893000008940000E7
:4019C00018940000A8ECFF1F28940000000000002DE9F04F89B082460D46164600921C460193514B93E8070008AB03E907000023AB606B602B60284631462246D0478046CE
:401A000072E0A70008AB3B4453F80C6C55F82400314604F031FC45F8240028460099019AD0478346414604F0CDFE80B1304604F0B7F837A3D3E9002304F006F904F0C6FBDB
:401A400008AB03EB840343F80C0CD84646E008AB03EB840353F80C0C04F0A2F802460B4603F040FFCDE9020155F8240004F098F8DDE9022303F034FF04F0A8FB45F824000C
:401A800028460099019AD0478346414604F09AFE80B108AB03EB8409304604F081F81CA3D3E9002304F0D0F804F090FB49F80C0CD84613E0E859314604F0DEFBE85108AB9B
:401AC00003EB8409304604F06BF813A3D3E9002304F0BAF804F07AFB49F80C0C0134E4B200E00024022C8CD90598069904F0C4FB079904F0C1FB04F053F809A3D3E9002336
:401B000004F032FB0028ECD109B0BDE8F08F00BF9A9999999999F13FCDCCCCCCCCCCEC3F9A9999999999C93F54940000AFF3008038B504460C4D2968A1F5FF417039006897
:401B400089B2FFF78DFD2968A1F5FF416C39606889B2FFF785FD2968A1F5FF416839A06889B2FFF77DFD38BDA8ECFF1F00B585B0064801A9064A4FF4FA63FFF729FF01A828
:401B8000FFF7D6FF05B05DF804FB00BF391100000000614338B504460C4D2968A1F5FF416439006889B2FFF75BFD2968A1F5FF416039606889B2FFF753FD2968A1F5FF416F
:401BC0005C39A06889B2FFF74BFD38BDA8ECFF1F00B585B0064801A9064A4FF4FA63FFF7F7FE01A8FFF7D6FF05B05DF804FB00BF611100000000614310B5044610B10648FB
:401C0000FFF792FCFFF7B2FFFFF7E2FF14B10348FFF78AFC10BD00BF60940000809400002DE9F04182B0564B1968A1F5FF4154394FF07E5089B2FFF713FD0024514B204610
:401C400051491A460433FFF71FFB2046FEF7FCFE2046FEF705FFFFF75DF90546FEF7E0FBFFF702FAFFF70CF9FFF754F98046294604F000FB054603F093FF06460F463AA366
:401C8000D3E9002304F070FA50B13046394638A3D3E9002303F024FE04F098FA054611E03046394634A3D3E9002304F049FA48B1304639462EA3D3E9002303F013FE04F0E8
:401CC00085FA05462046294604F0D6FA04462D4D2868FEF7D1FE6868FEF7E2FE2046002104F070FD10B104F1004000E0204603F057FF45461EA3D3E9002304F017FA0028FF
:401D0000ACD100242046FEF79FFE2046FEF7A8FEFFF75EFA04461CE0FFF708FCC8B101A8FFF714FC019803F03BFF0FA3D3E9002303F08AFF0022154B04F0B0F804F046FA2E
:401D400001900F4B1968A1F5FF41543989B2FFF787FCFFF73DFA001B4EF65F239842DBD902B0BDE8F08100BF182D4454FB210940182D4454FB211940182D4454FB2109C067
:401D8000A8ECFF1F58ECFF1F3333333F00806640F0B587B04FF07E50454B1860454B1968A1F5FF41583989B2FFF75AFC05A804A9FFF7A8F800242046FEF746FE2046FEF713
:401DC0004FFEFEF72DFBFFF74FF9FFF759F803A802A9FFF797F80398059904F04BFA03F0DFFE00244FF0804522462B4601F0BEFB06460F460298049904F03CFA03F0D0FE69
:401E000022462B4601F0B2FB04460D463046394622462B4603F066FD01F020FD04F0D6F9234C4FF07E5104F025FA2060224D2846FEF722FE2846FEF733FE246820460021F0
:401E400004F0C0FC08B104F10044204603F0A8FE15A3D3E9002304F087F90028B1D100242046FEF7F1FD2046FEF7FAFDFFF7B0F904460EE0FFF75AFB58B101A8FFF766FB22
:401E80000C4B1968A1F5FF415839019889B2FFF7E7FBFFF79DF9001B4EF65F239842E9D907B0F0BDAFF300807B14AE47E17A843F60ECFF1FA8ECFF1F9A99193EAFF300803E
:401EC000FEE700BF08B5C0B200F0E6FAFEE700BF08B5094B1A681044084BC31A802B02DC054B186005E004F0D7FC0C2303604FF0FF32104608BD00BF6C82FF1F78EDFF1F1C
:401F000008B5104E104D16E029686B68AC68002204E051F8040B43F8040B0432A242F8D1E868002203E0002143F8041B04328242F9D11035013E002EE6D104F0C5FCFEF789
:401F4000A1F8FEE7010000006099000008B5124A124B1A60124A136843F40073136000230AE0032B03D80F4A52F8231000E00E490E4A42F8231001332F2BF2D90C4B1A78DB
:401F80000C4B1A70094A0C4B1A6000F013F900220A4B1A6008BD00BF0004FA050CED00E014ED00E000000000C11E00000080FF1FBC7600400481FF1F08ED00E00081FF1FE8
:401FC000F0B40022174611E050F82760F3B226F0FF0608E001EB420511F812406D78A5550132013BDBB2002BF4D10137272FEBD9F0BC704708B50A46002104F096FC08BDCF
:4020000038B50E222B4B1A8018232B490B7002310A802A4A1370172204310A8002310B7002310A80264A137041F2BF2102321180023213700622234B1A705222A3F5807391
:402040001A70214B1B78DBB2204A13700024204B1C8040F6180203F21E231A8041F25122023B1A8019250CE01A4B1B7803F0010343EA440404F003044FF4F07000F0FCF984
:40208000013D0DB1032CEFD1114A07231370002311490B7048200231087013700532137002220E4B1A700E4A137843F01F03137038BD00BF80400040824000408640004067
:4020C0008E400040004300400F010049A146004004400040254200400640004001400040A2430040F8B51C4B1B78DBB21B4E3478E4B21B4F3D78EDB203F00701194A1170FC
:402100001B090132137044F00303337045F003033B70802392321370083213700122124B1A702023114A137002210532117003321370F0220E490A7003310B7005310A705B
:402140000C4A13700A2000F0BFF93D7034704422094B1A70F8BD00BFCF010049F8460040F94600406E580040C05A0040C35A0040205B00402B5B00407658004008B504F098
:40218000C9FB08BDFF22034B1A70034B1A7800221A7070477082FF1F3D510040FF22034B5A70034B1A7800221A7070477082FF1F0D51004038B572B64C4A137843F00403E2
:4021C000137000240AE04A4963001A1952000A44906A918DFFF70EFF0134E4B2072CF2D9002410E04249A3001A1952000A4452F8580F23445B000B445168B3F86020FFF7F0
:40220000BDFF0134E4B2032CECD94FF090403949FFF7D6FE0322384B1A8040F2031202331A80364A137843F0020313701032137843F002031370324C237843F04003237000
:40224000A2F58632513A137843F0100313702D482D490822FFF792FF2C482D490822FFF78DFF2C482C490A22FFF788FF2B482C490822FFF783FF2B482B490A22FFF77EFF5C
:402280002A482B490822FFF779FF2A482A490822FFF774FF29482A490822FFF76FFF294829490822FFF76AFF8422284B1A704423274A137002F50072137002F54062137044
:4022C000A2F55542B93A137843F008031370214D61232B70FFF794FE81232B70FFF702FF1D4821460E22FFF749FF38BDE84600409C940000A00000484858004003500140FD
:40230000A043004002510040D80F0048C2510040E00F0048F0510040E80F004812510040F40F004820510040FC0F004832510040081000484251004010100048525100403B
:402340001810004862510040201000485B000140DB0A014000480040B0430040044A137803F0FE0300F0010018431070704700BF20510040704700BF014B1880704700BF75
:402380000C680040014B1880704700BF8C680040014B1880704700BF4C68004008B50B4A137843F0010313700132137843F00103137044F62060FFF7DFFF44F62060FFF780
:4023C000E1FF40F2DC50FFF7E3FF08BD9664004008B5044B1B7823B9FFF7E0FF0122014B1A7008BD64ECFF1F044A137803F0EF03000100F01000184310707047205100404A
:40240000704700BF014B1880704700BF1C680040014B1880704700BF9C680040014B1880704700BF5C68004008B50B4A137843F0010313700132137843F00103137044F603
:402440002060FFF7DFFF44F62060FFF7E1FF40F2DC50FFF7E3FF08BD9E64004008B5044B1B7823B9FFF7E0FF0122014B1A7008BD65ECFF1F000000000230800803D000BF72
:4024800001380046FCD17047EFF3108072B6704780F31088704700BF01BE704710B5044605E0084B1868FFF7E7FFA4F50044B4F5004FF6D8034B586800FB04F0FFF7DCFFBD
:4024C00010BD00BF7482FF1F08B5034B1B7A03FB00F0FFF7D1FF08BD7482FF1F70B504460E46074B1D680F2802D90020FFF7D4FF04F00F0455F8240045F8246070BD00BF55
:4025000008ED00E070B504460E46074B1D681F2802D90020FFF7C0FF04F01F04103455F8240045F8246070BD08ED00E038B504460D46072902D90020FFF7AEFF1F2C02D928
:402540000020FFF7A9FF04F01F0000F1604000F564406D01EDB2057038BD00BF024A136843F002031360704710E000E008B5FFF7F5FF034A136843F00103136008BD00BF94
:4025800010E000E020F07F40014B1860704700BF14E000E0012805D1054A136843F0040313607047024A136823F004031360704710E000E0024B1868C0F30040704700BF30
:4025C00010E000E010B5FFF7F5FF01280BD107E0054B03EB84035B6803B19847013400E00024042CF4D910BD68ECFF1F0022014B1A60704718E000E008B5002305E00F4A4B
:4026000002EB8302002151600133042BF7D90F200B49FFF763FF0120FFF7BCFF094BDB680948A0FB03308009FFF7ACFFFFF7DEFF4FF40042054B1A6008BD00BF68ECFF1F7E
:40264000C52500007482FF1FD34D621000E100E008B5054B9B6923B9FFF7CEFF0122024B9A61FFF783FF08BD68ECFF1F024B03EB800358685960704768ECFF1F024B03EBA4
:4026800080004068704700BF68ECFF1F10B50123114A137081210E3A11700821023211701132137000240D4B1C704FF400420C4B1A600F200721FFF739FF0F200949FFF7DA
:4026C00021FF094B1C70094B1C70094B1C70094B1C70094B1C8010BDD6490040DC49004080E100E0C1270000AEECFF1FB8ECFF1FAFECFF1FB4ECFF1FACECFF1F08B5FFF736
:40270000C3FE084A137843F0040313701032137843F004031370FFF7BBFE4FF40042024B1A6008BDA543004000E100E008B5054B1B7823B9FFF7AAFF0122024B1A70FFF700
:40274000DDFF08BD84ECFF1F4FF40041054B1960054A1078137803F01003DBB21370034B1960704780E100E0B8ECFF1F00E100E010B44FF400440B4B1C6032B113460A4A76
:4027800013600A4B18800A4B19800023094A1370094A13704FF40042084B1A605DF8044B704700BF80E100E0B0ECFF1FB6ECFF1FACECFF1FAFECFF1FB4ECFF1F00E100E0E7
:4027C000654B1B78DBB2654A137013F0080F32D0634B1B7813F0010F1CD0624A1378DBB261490968CB5CDBB25D490B7014215A4B19701378DBB25D4A137013780133DBB2D6
:4028000013705B4A137843F0110313700822594B1A708EE01022504B1A70554A137843F0120313700122534B1A70534A137843F0100313707DE013F0010F7AD04D4A1278F2
:40284000D2B2042A1ED0082A3AD0012A68D1444B1B78DBB2414A5370484A128892B293420CD210223C4B1A703C4B5B783D4A13703E4A137004223F4B1A705AE00022364B2F
:402880001A7056E0394B1A783D4B1B889BB29A4212D2334B1B7831494B7010222E4B1A70324A1378DBB2304800684978C15413780133DBB213703CE00022274B1A7038E024
:4028C00013F0020F1ED1294B1A782C4B1B889BB29A4210D2254A1378DBB223490968CB5CDBB21F490B7004211B4B197013780133DBB213701DE0FF22194B1A700422013B5E
:402900001A7016E0FF22164B1A700022013B1A7017490B7803F0EF030B70164B1A7008E00023144A13700F4A1370104A13700A4A1370094B1B7813F0200F0CD00C4A1378A3
:4029400003F0EF03137000220A4B1A700A4A137803F0EF0313707047D749004085ECFF1FD8490040AFECFF1FB0ECFF1FB4ECFF1FB8ECFF1FAEECFF1FD6490040B6ECFF1FD6
:40298000ACECFF1F044A137803F0FB03800000F00400184310707047C051004008B500F0F3FB00F0FBFB08BD08B5FFF7F7FF08BD30B583B00C468DF8070000F019FCB4F5E8
:4029C000006F54D22509C5EB053319010C44A4B200F0E4FC00284CD1402021460DF10702012300F031FC044607282FD1234B1B7813F0020FFAD0214B1B7813F0020F06D007
:402A00001E4B1B789B0805D04FF0FF3403E04FF0FF3400E00024E4B9194B402029461A785B7800F077FC072816D1144B1B7813F0020FFAD0114B1B7813F0020F0FD00F4B9D
:402A40001B789B0810D04FF0FF340DE0012809D10AE04FF0FF3407E04FF0FF3404E04FF0FF3401E04FF0FF3400F0BEFC02E0012400E00424204603B030BD00BF2247004059
:402A800070EDFF1F38B504460D4600F0B1FB15F0800F48D100F082FC002846D140202146102200F00DFC07282FD1214B1B7813F0020FFAD01E4B1B7813F0020F06D01C4BD0
:402AC0001B789B0805D04FF0FF3403E04FF0FF3400E00024E4B9174B402029461A785B7800F018FC072816D1114B1B7813F0020FFAD00F4B1B7813F0020F0FD00C4B1B781C
:402B00009B080DD04FF0FF340AE04FF0FF3407E04FF0FF3404E04FF0FF3401E04FF0FF3400F062FC02E0012400E00424204638BD2247004070EDFF1F08B54FF40072054BA7
:402B40001A6009200449FFF7DDFC09200721FFF7EDFC08BD80E100E0392C000010B54FF40074064B1C6000F0A1F8A0F5004000B2034B1B68034A1460184410BD80E100E0A6
:402B800088ECFF1F00E100E038B505464FF40074054B1C604FF4004000F082F8034B1D60034B1C6038BD00BF80E100E088ECFF1F00E100E0024B187800F00F00704700BFEB
:402BC0006A65004040F00700014B1870704700BF8A65004008B50F20FFF7F4FFFFF7EAFFFFF752FC054A137843F010031370FFF74FFC4FF40072024B1A6008BD9A650040BA
:402C000000E100E008B500F0A3F84FF4004000F047F80022064B1A60064B1B7823B9FFF78BFF0122034B1A70FFF7D4FF08BD00BF88ECFF1F87ECFF1F0D4B1B78DBB213F0C6
:402C4000010F06D00B490A6802F5FF427F320A6007E013F0020F04D006490A68A2F500420A6013F0040F02D00022024B1A6070476A65004088ECFF1F024A137843F08003CC
:402C80001370704779650040014B1870704700BF89650040014B1878704700BF69650040014B1880704700BF10680040024B1B78024B188880B27047086400409068004038
:402CC000014B188880B2704790680040014B1880704700BF50680040014B1880704700BF7068004008B501E0FFF7EAFFFFF7D2FF10F0400FF8D108BD08B5134B1A7802F043
:402D0000F8021A701A7802F0FC021A70FFF7EAFF4FF40040FFF7DAFF4FF40040FFF7C0FF0020FFF7B1FFFFF7B5FF4FF40040FFF7D3FFFFF7A9FB054A137843F010031370A2
:402D4000FFF7A6FB08BD00BF796500409965004008B5054B1B7823B9FFF7CEFF0122024B1A70FFF789FF08BD8CECFF1F08B58022054B1A6007200549FFF7C4FB0720014609
:402D8000FFF7D4FB08BD00BF80E100E0692E000010B58024064B1C6000F0A0F8A0F5004000B2044B1B68044A1460184410BD00BF80E100E090ECFF1F00E100E038B505465D
:402DC0008024054B1C604FF4004000F081F8034B1D60034B1C6038BD80E100E090ECFF1F00E100E0024B187800F00F00704700BF6764004040F00700014B1870704700BF73
:402E00008764004008B50F20FFF7F4FFFFF7EAFFFFF73AFB054A137843F010031370FFF737FB8022024B1A6008BD00BF9764004000E100E008B500F0A3F84FF4004000F019
:402E400047F80022064B1A60064B1B7823B9FFF78DFF0122034B1A70FFF7D4FF08BD00BF90ECFF1F8DECFF1F0D4B1B78DBB213F0010F06D00B490A6802F5FF427F320A60F1
:402E800007E013F0020F04D006490A68A2F500420A6013F0040F02D00022024B1A6070476764004090ECFF1F024A137843F080031370704773640040014B1870704700BFEA
:402EC00080640040014B1878704700BF60640040014B1880704700BF04680040024B1B78024B188880B270470264004084680040014B188880B2704784680040014B1880E5
:402F0000704700BF44680040014B1880704700BF6468004008B501E0FFF7EAFFFFF7D2FF10F0400FF8D108BD08B5134B1A7802F0F8021A701A7802F0FC021A70FFF7EAFF9A
:402F40004FF40040FFF7DAFF4FF40040FFF7C0FF0020FFF7B1FFFFF7B5FF4FF40040FFF7D3FFFFF791FA054A137843F010031370FFF78EFA08BD00BF73640040906400409B
:402F800008B5054B1B7823B9FFF7CEFF0122024B1A70FFF789FF08BD94ECFF1F014B1878704700BFF7ECFF1F00EB40008000024B18444078704700BFFCECFF1F431EDBB22E
:402FC000072B0BD8064B00011A18185C00F00F00537843EA0020023880B2704700207047FC5F0040431EDBB2072B0BD8430003449B00054A134400225A705A79D2B2000106
:40300000024B1A54704700BFFCECFF1FFE5F004070B5D9B1054614460E46C8B1082819D8FFF7CCFFA04203D22846FFF7C7FF0446002305E02901094A525CF25401339BB294
:40304000A342F7D32846FFF7CDFF04E0002402E0002400E00024204670BD00BF7860004008B5094B1B78094AD05CC0B200EB40039B00074A13445B78DBB2012B02D1FFF79A
:403080009DFF08BD002008BD95ECFF1FC8ECFF1FFCECFF1F08B5034B1B78034AD05CFFF783FF08BD95ECFF1FC0ECFF1F08B50146074B1B78074AD05CC0B200EB40039B00F5
:4030C000054A13441A8992B2FFF7A2FF08BD00BF95ECFF1FC8ECFF1FFCECFF1F10B500F087F800F05BF9D0B900F09AF90446072812D102E00120FFF7E7F90A4B1B7813F00D
:40310000020FF7D0074B1B7813F0020F04D0054B1B789B0800D1002400F066F900E00424204610BD2247004010B500F061F800F035F910BB012000F013F9072818D11048B8
:40314000022100F067F802280AD102E00120FFF7BBF90C4B1B7813F0020FF7D0002409E0084B1B7813F0020FE9D04FF0FF3401E04FF0FF3400F038F900E00424204610BD85
:4031800070EDFF1F2247004008B5FFF7A7FF034610B9FFF7C9FF0346184608BD08B5FFF773F90F4A137843F0080313701032137843F008031370C8220A4B1A700A4A13785C
:4031C00043F0100313701032137843F010031370064B1B7813F0200FFAD0FFF759F908BDA043004001470040AC4300400047004008B5FFF749F9064A137843F00803137091
:403200001032137843F008031370FFF741F908BDA043004070B506460D4600240CE00120FFF752F9064B1B7813F0010FF7D0054B1B7833550134E4B2AC42F3D3204670BD77
:40324000224700402047004030B43E2801D81F2B03D93F2827D90F2B27D8174C247814F0020F24D0154CB6252570D4252570012525700234247814F0020F1AD10F4C207036
:40328000C1F300202070C9B22170591EC9B22170002104E0545C094804700131C9B29942F8D3072006E0012004E0012002E0042000E0092030BC7047224700402047004019
:4032C000124B1B7813F0020F19D010B4104BB6241C70D5241C7002241C7002331B7813F0020F0ED10A4B1870002304E0CC5C0848047001339BB29342F8D3072002E004204C
:40330000704709205DF8044B704700BF224700402047004030B4104C247814F0020F15D00E4CB6252570D8252570052525700234247814F0020F0BD1084C2070080A207009
:40334000C9B2217022702370072002E0042000E0092030BC704700BF22470040204700400C4B1B7813F0020F0FD00B4BB6221A70E1221A700E221A7002331B7813F0020F7C
:4033800005D1054B187007207047042070470920704700BF224700402047004010B5FFF773F80F4B1B78A3B901220D4B1A700D4B1B6813F0010F0ED00A4A136823F0010391
:4033C000136000BF00BF00BF0122054B5A60002402E0042400E00024FFF75AF8204610BD98ECFF1F0400084008B5FFF74DF80A4B00221A705B68012B0AD1084A136843F092
:403400000103136000BF00BF00BF0022024B5A60FFF73EF808BD00BF98ECFF1F04000840074B1B7813F0020F08D0064BB6221A70E0221A700D221A7007207047042070478F
:40344000224700402047004030B5214A21F00043934287B01BDD1F4A934205DD02460B4602F03EFA07B030BD02AA00F09DFF00F0030001281AD002280FD008B3DDE9020102
:4034800001230093DDE9042301F092FFEAE70022002301F065FA07B030BDDDE90201DDE9042301F05DFA01F10041DBE70090DDE90423DDE9020101F07BFF01F10041D1E74D
:4034C000DDE90201DDE9042301F04AFACAE700BFFB21E93FFFFFEF7F30B5224A21F00043934287B01BDD204A934205DD02460B4602F0F6F907B030BD02AA00F055FF00F0F9
:40350000030001281ED0022811D010B3DDE90201DDE9042301F024FA01F10041EAE7002300930022002301F043FF07B030BD01230093DDE90201DDE9042301F039FF01F180
:403540000041D7E7DDE90201DDE9042301F008FAD0E70124DDE90201DDE90423009401F027FFC7E7FB21E93FFFFFEF7F2DE9F04F8BB01F4680468946164600F0C5F9DFF89D
:40358000D8A204469AF900300D46013304D03046394602F05DF820B9204629460BB0BDE8F08F4046494602F053F8834660BB304639460022002302F0AFFD0028ECD09AF9DB
:4035C00000309E4C01229E4900208DE814005A1CCDF820B0CDE90289CDE90467CDE906010DD0022B0BD0684602F05EF8002800F09380089B1BB103F04FF9089B0360DDE958
:4036000006010BB0BDE8F08F404649460022002302F082FDF8B1304639460022002302F07BFD834600284ED084489AF900300121002200240025CDE90289CDE90467CDE949
:403640000645019000910892002BCCD07C4B0022CDE90623D3E72046294601F065FF834600285ED0204629460022002302F054FD002891D04046494601F056FF00288BD0ED
:403680003046394601F050FF002885D09AF900306A480421002200240025022BCDE90289CDE90467CDE9064501900091089200F08880684601F0F8FF002800F08280089BBC
:4036C000002B9CD097E73046394601F02DFF00283FF462AF304639460022002302F026FD00283FF459AF55499AF800300122CDF820B0CDE90289CDE9046701910092002BBC
:403700003CD050490020022BCDE9060130D103F0C3F821230360D2E703F0BEF82123036067E74046494601F0FFFE00289AD03046394601F0F9FE002894D02046294601F069
:4037400087FF00BB3D4A9AF8004001230890CDE90289CDE90467019200937CB10020002102460B4602F09AFB022CCDE90601CED0684601F099FF0028A1D1C8E7002200238F
:40378000CDE90623F4E72D499AF900300322CDF820B0CDE90289CDE9046701910092ABB9294D4FF060444046494600220023CDE9064502F0BBFC50BB9AF90030022B7FF4A7
:4037C00078AF03F069F82223036078E71F4D00244046494600220023CDE9064502F0A6FC0028E9D000221A4B3046394602F02CFA04460D4601F060FF22462B4602F08CFC13
:403800000028D9D10F4B0022CDE90623D4E700220F4B3046394602F017FA04460D4601F04BFF22462B4602F077FC0028C4D1094B4FF06042CDE90623BEE700BF1C95000030
:403840000000F03F0000F0FFFFFFEF470000F07F0000E03FFFFFEFC78482FF1F2DE9F0478AB006460F4600F0B3FFDFF898A004469AF900300D4601330FD03046394601F05E
:40388000E7FE50B14FF000084FF000093046394642464B4602F04AFC20B9204629460AB0BDE8F08716499AF8004001220023CDE90467CDE9026701910092089364B9CDE980
:4038C0000689684601F0F0FE80B1089B9BB9DDE906010AB0BDE8F0874046494642464B4602F0DCFA022CCDE90601EAD102F0D4FF21230360E9E702F0CFFF089B0360E6E776
:40390000209500008482FF1F2DE9F04F144623F00047024657EA04000E468FB01D469C46214634D06E4B26F0004A9A459346B14626DC24D09F4223DC694B9F4200F08F80A3
:40394000B9F1000FC0F28F804FF0000879BB644B9F4200F0A580634B9F4267D0BCF1804F00F0E283604B9C4521D1B9F1000F1EDB104631460FB0BDE8F04F00F029BF62B18B
:403980000AF1404000F5801050EA0B0007D10346544918460FB0BDE8F08F5745CCDD53480FB0BDE8F04F01F081BE4FF0000810463146CDF808C0009201F0B2FD009ADDF8CE
:4039C00008C0BBF1000F20D04FEAD97909F1FF3958EA09037AD0464B9F4240F38F8003F104739F4240F31084424B9A4540F39283BCF1000F40F3928337A1D1E900010B469C
:403A0000024602F021F90346C3E7BAF1000F04D0344B29F0404E9E45D6D1BCF1000FC0F2B683B9F1000F08DB0346B2E7BCF1000FC0F2528413463146ABE70AF1404A0AF5B2
:403A4000801A58EA0A0340F05E8402460B4601F047FF0B46024602F021FA034699E700293FF46EAF8CE7244B9F422CDCA3F154739F427FF769AF40F213403B15834240F331
:403A80004B84C3F58663033321FA03F000FA03F38B427FF459AF00F00100C0F1020855E70AF1404303F5801353EA0B0300F03983104B9A4540F36483BCF1000FC0F22E83BF
:403AC0002346294665E74FF002083FE7104631463346BCE7AFF300809C7500883CE4377E0000F07F0000F03F0000E03F509400000000E041FFFFEF3FFFFF3F43BAF5801FFE
:403B00004FF0000205DACA4B02F09EF88A466FF034024FEA2A53C74ECAF3130AA3F2FF334AF07F571344B2450C9347F4401740F3D083C14B9A4540F307840026B4460C9B72
:403B4000A7F5801701330C933946BC4B4FEACC0C6344D3E900AB52465B46CDF834C0CDE9060101F0BDFE52465B46CDE90801DDE9060101F0B7FE02460B460020B04902F030
:403B80008DF902460B46DDE90801CDE90A2302F05BF802460B46CDE90223CDE904237B1043F0005303F5002399190020002306460F460293DDE902231046194632463B46AE
:403BC000CDE9000102F040F802460B46DDE9080101F086FE5246CDE908015B463046394601F07EFE02460B46DDE9060101F078FE02460B46DDE9000102F026F802460B46D7
:403C0000DDE9080101F06CFEDDE90A2302F01CF8DDE90423CDE906011046194602F014F802460B4606460F4602F00EF86EA3D3E9002382468B463046394602F005F86CA356
:403C4000D3E9002301F04EFE32463B4601F0FCFF69A3D3E9002301F045FE32463B4601F0F3FF67A3D3E9002301F03CFE32463B4601F0EAFF64A3D3E9002301F033FE3246E1
:403C80003B4601F0E1FF62A3D3E9002301F02AFE02460B465046594601F0D6FFDDE9042306460F46DDE9000101F01CFEDDE9062301F0CAFF32463B4601F014FEDDE90067EF
:403CC00082468B4632463B463046394601F0BCFF00225C4BCDE9080101F004FE52465B4601F000FE02980F460646DDE9000132463B4601F0A9FF32463B46CDE90001DDE9E4
:403D0000060101F0A1FF0022CDE906014D4B3046394601F0E5FDDDE9082301F0E1FD02460B465046594601F0DBFDDDE9042301F08BFF02460B46DDE9060101F0D3FD8246FE
:403D40008B46DDE9000152465B4601F0CBFD32A3D3E9002302980F46064601F075FF30A3D3E90023CDE904013046394601F06CFFDDE90023CDE906013046394601F0B0FD6E
:403D800002460B465046594601F0AAFD26A3D3E9002301F059FF02460B46DDE9060101F0A1FDDDF834C0284BCDF818C06344D3E9002301F097FDCDE900010C9801F0DEFEAB
:403DC00006460F46DDE90401204BDDF818C09C44DDE90023DCE900AB01F084FD52465B4636E000BFAFF30080EF4E454A287ECA3F65DBC9934A86CD3F01411DA96074D13F85
:403E00004D268F515555D53FFFAB6FDBB66DDB3F033333333333E33F000000E009C7EE3FF5015B14E02F3EBEFD033ADC09C7EE3F000040438E98030079B60B0048950000F9
:403E40000000F03F000008403895000028950000CDE906AB01F046FD32463B4601F042FD029832463B4682468B4601F039FDDDE9062301F035FDDDE9042301F031FD0246C4
:403E80000B46DDE9000101F02BFDCDE9020108F1FF3858EA09030CBFD54BD64B0022CDE904230023CDE900450093DDE90067204632463B46294601F013FD52465B4601F0B8
:403EC000C3FEDDE90223804689462046294601F0BBFE02460B464046494601F003FD04460D465246304639465B46CDE9024501F0ABFE06460F4620463B462946324601F0A1
:403F0000F1FCBD4B824699428946884640F3138101F13F4303F5E003034340F0E581A0A3D3E90023DDE9020101F0DCFC324604460D463B465046494601F0D2FC02460B4693
:403F40002046294602F010F9002840F0CD814C462015A0F2FE304FF4801101414144C1F30A50A64CA0F2FF35C1F3130BC0F5826003302C414BF4801B21EA040300224BFA87
:403F800000FB3946304601F0ABFC06460F46DDE902018BEAE87B0BEBD87B32463B464FEA0B5A01F09FFC80A3D3E90023002420460D4601F049FE3246804689463B462046C0
:403FC000294601F08DFC02460B46DDE9020101F087FC77A3D3E9002301F036FE76A3D3E9002306460F462046294601F02DFE02460B463046394601F075FC06460F46324651
:404000003B464046494601F06DFC42464B4604460D4601F065FC02460B463046394601F05FFC2246804689462B462046294601F00BFE63A3D3E9002306460F4601F004FEF8
:4040400061A3D3E9002301F04BFC32463B4601F0FBFD5FA3D3E9002301F044FC32463B4601F0F2FD5CA3D3E9002301F039FC32463B4601F0E9FD5AA3D3E9002301F032FC89
:4040800032463B4601F0E0FD02460B462046294601F026FC06460F4632463B462046294601F0D2FD0022CDE900014FF080433046394601F015FC02460B46DDE9000101F066
:4040C000EDFE424606460F464B462046294601F0BBFD42464B4601F005FC02460B463046394601F0FDFB22462B4601F0F9FB02460B4600203F4901F0F3FB8A44BAF5801F21
:404100000246C0F227815346DDE9040101F09CFD03463EE4BCF1000FFFF66EAC0023194637E40B46334934E433461046314601F08BFD03462DE4324B21F000449C4240F33B
:40414000FA80304B0B4403430CD132463B4601F0C7FB02460B46DDE9020101F0F1FF00283FF4F6AE20A3D3E90023DDE9040101F06BFD1DA3D3E9002301F066FD034608E4FC
:40418000BCF1000FCADA234605F1004101E402460B460020174901F081FE42E4AFF30080FE822B654715973C00000000432EE63FEF39FAFE422EE63F396CA80C615C20BECB
:4041C000D0A4BE726937663EF16BD2C541BDBB3E2CDE25AF6A56113F93BDBE166CC1663F3E5555555555C53F59F3F8C21F6EA5010000F0BF0000F03FFFFF8F40FFFF0F002D
:40420000FFCB904000346F3F634B9A4582DD634B9A453FF7EDAB0022604B01F061FB54A3D3E9002306460F4601F00EFD52A3D3E90023CDE900013046394601F005FD324643
:40424000CDE902013B463046394601F0FDFC002282468B4630463946514B01F0F5FC02460B4647A1D1E9000101F03AFB32463B4601F0EAFC02460B4600204A4901F030FB5D
:4042800002460B465046594601F0DEFC3EA3D3E9002301F0D9FC02460B46DDE9020101F01FFB06460F46DDE9000132463B4601F019FBDDE90023002082468B4601F010FB6E
:4042C00002460B463046394601F00AFBCDE90201DDE50026B44637E4334600202F4901F0DDFD0346FFF755BB29A3D3E90023DDE9040101F0A9FC26A3D3E9002301F0A4FC14
:404300000346FFF746BBB8F1010F03467FF441AB01F10041FFF73DBB00297FF446ABC3F58263033347FA03F000FA03F3BB4217D08846FFF710BB1B4B9C423FF709AEDDE9CD
:404340000023924693462EE64FF480264FF0010CFFF7FABB5A4601F03FFA02460B46D3E600F00100C0F10208FFF7F5BAAFF30080000000604715F73F44DF5DF80BAE543E31
:40438000555555555555D53FFE822B654715F73F9C7500883CE4377EFEFFEF3F0000F03F0000D03F0000E03F2DE9F04F924C21F00047A7428FB00E467FDD14468F4A9742E4
:4043C00026DC83A3D3E90023002940F39D8101F087FA8B4B80469F42894600F083807EA3D3E9002301F07CFA02460B464046C4E90023494601F074FA77A3D3E9002301F05D
:404400006FFA0125C4E9020128460FB0BDE8F08F7C4A974240F383807B4A974258DC3D15A5F21645A7EB05518B46824601F0A6FE01F0A4FB8046894642464B465046594678
:40444000CDE9088901F04CFA0022704B01F0FCFB8B46824601F092FE01F090FB8046894642464B4650465946CDE90A8901F038FA0022664B01F0E8FB00220023CDE90C0165
:4044800001F04AFE002800F06781002340464946002201F041FE002814BF012302235C480221019000912A4608A8214600F07CFB002EC0F24781054606E0C2E90001002574
:4044C0000024C2E90245002528460FB0BDE8F08F02460B4601F004FA0025C4E90201C4E90001F1E73EA3D3E9002301F0F9F93EA3D3E9002306460F4601F0F2F902460B46D4
:404500003046C4E90023394601F0EAF936A3D3E9002301F0E5F90125C4E90201D4E700F0FFFF33A3D3E900238046894601F08CFB0022384B01F0D6F901F020FE054601F06A
:404540001DFB23A3D3E90023CDE9040101F07CFB02460B464046494601F0C2F91EA3D3E9002382468B46DDE9040101F06DFB1F2DCDE902015046594650DC274B6A1E53F8F9
:404580002230BB424AD0DDE9022301F0A9F902460B4681468846C4E900234A4643465046594601F09DF9DDE9022301F099F902460B46002EC4E9022386DA4A4608F100430E
:4045C00001F1004184E80C00E160A0606D427BE700004054FB21F93F3163621A61B4D03D0000601A61B4D03D7370032E8A19A33B83C8C96D305FE43FFB21E93F7BD9024066
:40460000FB21F93FFB213941FFFFEF7F00007041D89500000000E03F58950000DDE9022301F05EF988463F15C8F30A53FB1A102B8146C4E90001B0DD59A3D3E90023DDE99A
:40464000040101F001FB8046894642464B465046594601F045F9CDE90601DDE906235046594601F03DF942464B4601F039F94EA3D3E9002380468946DDE9040101F0E4FAF3
:4046800042464B4601F02CF9CDE90201DDE90223DDE9060101F024F90B4602468846C1F30A517F1A312F8146C4E9002374DD40A3D3E90023DDE9040101F0C6FA8046894622
:4046C000DDE9060142464B4601F00AF982468B46DDE9060152465B4601F002F942464B4601F0FEF834A3D3E9002380468946DDE9040101F0A9FA42464B4601F0F1F8CDE902
:404700000201504659463EE701F0ECF82E4B80469F42894622D02AA3D3E9002301F0E2F802460B464046C4E90023494601F0D8F823A3D3E9002301F0D5F84FF0FF35C4E92D
:404740000201C1E66268E36802F1004203F1004345426260E360B7E60323A0E610A3D3E9002301F0BFF810A3D3E9002306460F4601F0B8F802460B463046C4E900233946CD
:4047800001F0AEF808A3D3E9002301F0ABF84FF0FF35C4E9020197E6DDE906ABFDE600BF0000601A61B4D03D7370032E8A19A33B0000002E8A19A33BC14920259A837B398B
:4047C0003163621A61B4D03DFB21F93FAFF300802DE9F041604E0C46B6460E40764505460B4600F098800029024676DD5FEA215E00F08180AEF2FF3EC3F313031EF0010FDD
:4048000043F480135ED100273C46D10F01EB43034FEA6E0E520016204FF4001165189D424FEAD2764FEA420202DC5B1B6C180F44013806EB43034FEA5101EFD184462026E3
:404840004FF000410AE0A34220D0D50F013E4FEA510105EB43034FEA420220D09C420CEB0105F0DA002D05EB010C09DBA0461B1B954288BF03F1FF334446521B0844E4E787
:40488000BCF1000FF2DB04F10108F0E7954217D8002D05EB010C48DB98460023ECE7134315D140087B1003F17F5303F50013FA0703EB0E57394648BF40F00040BDE8F08173
:4048C0001C46C2E7D10F01EB430352009BE7411C31D000F001031844E3E721F000460643ECD079BB8E46D30AAEF1150E5205002BF9D0DC0222D400215B00D80201F10101E3
:40490000FAD5C1F10100C1F1200422FA04F4234386448A406EE702460B4601F095F92A46234600F0DFFFBDE8F081BCF1000FAADAA0460023A0E701373046B3E7202401206A
:404940000021E2E702460B4600F0CAFF02460B4601F0A4FAB2E700BF0000F07F000000002DE9F04F21F00047B7F1795F85B00C4692469B4605466BDA01F000FC002800F00A
:40498000E7802A4623462846214601F05DF974A3D3E900238046894601F056F972A3D3E9002300F09FFF42464B4601F04DF970A3D3E9002300F094FF42464B4601F044F942
:4049C0006DA3D3E9002300F08DFF42464B4601F03BF96BA3D3E9002300F082FF42464B4601F032F968A3D3E9002300F07BFF42464B4601F029F9CDE900014046494600220D
:404A0000634B01F021F9DDE9002306460F464046494601F019F95246804689465B462846214601F011F902460B464046494600F057FF02460B463046394600F051FF024673
:404A40000B460020534900F04BFF05B0BDE8F08F02460B4601F0F8F841A3D3E900238046894601F0F1F840A3D3E9002300F03AFF42464B4601F0E8F83DA3D3E9002300F0E6
:404A80002FFF42464B4601F0DFF83BA3D3E9002300F028FF42464B4601F0D6F838A3D3E9002300F01DFF42464B4601F0CDF836A3D3E9002300F016FF4B46424601F0C4F823
:404AC000354BCDE900019F4297DD344B00229F4238DCA7F5001300202E4916461F4600F0FFFECDE90201404649460022284B01F0ABF832463B4600F0F3FEDDE9002306469A
:404B00000F464046494601F09FF85246804689465B462846214601F097F802460B464046494600F0DDFE02460B463046394600F0D7FE02460B46DDE9020100F0D1FE05B0BE
:404B4000BDE8F08F164B0026CDE90223154FCAE71049002005B0BDE8F08F00BFAFF30080D43888BEE9FAA8BDC4B1B4BD9EEE213EAD529C804F7E923E9015CB19A001FA3EE2
:404B80007751C1166CC1563F4C5555555555A53F0000E03F0000F03F3233D33F0000E93F0000E73F0000D23F2DE9F04F9E467E4DD41E85FB0465E417C4EBA504ADF51D7D29
:404BC00024EAE4742546A69E0D940C93E343774C03EB430354F8264002EBC303274609940EF1FF3426460394F41904900A910893A5EB060516D42C44013422AEA79F08E0A0
:404C000057F8250000F0BAFF0135A542E6E9020108D0002DF4DA013500200021A542E6E90201F6D1099B002B31DB099A0C9B74A901EBC20BC3EB4373039A24A9DB0001EB0E
:404C4000C20800930DF5E479039B002BC0F297814446049B0026A3F1080A009B002708EB0305FAE9022374E8020100F0EDFF02460B463046394600F035FEAC4206460F46B0
:404C8000EFD1E9E90267D94508F10808DCD1099B10A99B4603F18043013B9B001A1D0A440B440F920E934FEACB039CA91A460693BBF1000F0B4453E9284528DD0DF5E87AE2
:404CC0000AEB02060FAF0022394B2046294600F0BBFF01F053FA00F051FF0022354B8046894600F0B1FF02460B462046294600F0F7FD01F043FA76E9022347F8040F49469A
:404D0000404600F0EFFD564504460D46DBD1DDF82090204629464A4600F05EFD00224FF07F5304460D4600F08FFF00F005FC0022214B00F089FF02460B462046294600F055
:404D4000CFFD04460D4601F019FA804600F016FF02460B46204629464C4600F0C1FD002C06460F4640F3F1800BF1FF3110AB53F82130C9F1180043FA00F202FA00F55D1BEF
:404D800010A8C9F1170340F8215090441D41002D3FDDBBF1000F08F1010840F38482002214460FA912E000BFABAAAA2AE09600000000703E0000704100002040C3F1807066
:404DC0000BB108600124013293450DDD51F8043F002CF3D0C3F1FF13013203F57F4393450B604FF00104F1DC089B002B0EDD012B00F0B380022B09D10BF1FF3210AB53F8B1
:404E0000223010A9C3F3150341F82230022D00F08380304639460022002301F07DF9002800F0C980099B0BF1FF3A53450DDC10AB0F9803EB8B03002253F8041D834242EA33
:404E40000102F9D1002A40F01482099B10AA013B52F82330002B40F024820E9A012352F8041D01330029FAD05B441A460B930BF1010393424DDC0D9A4FF0000803EB02095D
:404E80000B9A0C9B09F180495B44CBEB020BA79A09F1FF3902EB890200924FEACB02DB00059224AA02EB030B0793069B74AA02EB030A009B002653F8040F0027009300F0A7
:404EC0005DFE039BEBE80201002B1BDB079B03EB0804069B08EB030524AB1C441D44049BA3F10809F9E9022374E8020100F0ACFE02460B463046394600F0F4FCAC4206460E
:404F00000F46EFD1059B08F108089845EAE90267CFD1DDF82CB0C6E632463B460020BF4900F0DEFC06460F46002C3FF472AF089A0020BA4900F050FC02460B463046394602
:404F400000F0CEFC06460F4663E711D10BF1FF3310AA52F82350ED1519E70BF1FF3210AB53F8223010A9C3F3160341F822304DE70022AB4B01F0EEF858B9054649E7002696
:404F80000027E9E90267D94508F108087FF45CAE7DE6BBF1000F08F10108C8BF02253FF7FEAE32463B4600209C4900F099FC022506460F462DE7089B30465A423946039510
:404FC000CDF8148000F008FC0022964B04460D4601F0C0F8002800F0E1810022924B2046294600F031FE01F0C9F8064600F0C6FD00228C4B00F028FE0B4602462946204680
:4050000000F06EFC01F0BAF8089B0BF1010A1833089310AB43F82B0043F82A60089A00207E4900F0D9FBBAF1000F04460D46C0F2CA800AF101034FEAC30874AF10AA0093EA
:4050400002EB830907EB080659F8040D00F096FD22462B4600F0F8FD002266E90201724B2046294600F0F0FDBE4204460D46EBD1A8F1080806EB08039B460DF59879CDF87A
:4050800018A0DDF824A04FF00008CDF81090BAF1000FC0F29580B8F1000FC0F29180DFF88C915D4600260027002401E0444510DCF9E90223F5E8020100F0C6FD02460B4666
:4050C0003046394600F00EFC0134A24506460F46ECDA049BABF1080B03EBC803C3E90067009B08F101089845D1D1A69BDDF818A0DDF81090032B3BD8DFE813F04100040075
:405100000400D70000273E46009B09EBC304384674E90223314600F0E5FB4C4507460E46F5D1039B002B00F08B80D9E900010A9D334606F100463A466E602F6000F0D0FBD8
:40514000BAF1000F03460CDD01261C46F9E90223204600F0C7FB0136B2450346F5DA039A0AB101F100411C460D460A9BC3E90245059B03F007000DF51D7DBDE8F08F002300
:405180001946009A09EBC2091C4679E90223204600F0A8FB0AF1FF3ABAF1FF3F0346F3D1039A0AB101F100411C460D460A9BC3E90045059B03F007000DF51D7DBDE8F08FFB
:4051C0000026002785E7A69B032BD1D8DFE803F04E3030020DF59879039A00231E46002A00F0C8800A9FD9F80800D9F80440D9F80C203B61059BD9F8001006F1004604F1F8
:40520000004402F10042B86003F007007E617C60FA6039600DF51D7DBDE8F08F0000F03F0000E03F000070410000703EE8960000039B00273E460DF59879002B7FF475AF2C
:40524000D9E9000135463C4633460A9E3A46C6E9004500F045FBBAF1000F03463FF774AF1C460D460A9BC3E9024581E70023194696E7089A10AB53F82A30183A0395CDF8E8
:4052800014800892002B7FF4C9AE10AB03EB8A0353F8041D0AF1FF3A183A0029F8D00892BCE60123E0E500249EE5BAF1000F93DD4FEACA0809EB08039B46D3E900677BE92A
:4052C000022330463946CDE9002300F00BFB04460D46DDE9000122462B4600F001FB02460B463046394600F0FDFACB4526462F46CBE90201CBE90045E1D1BAF1010F7FF7A3
:405300006BAF09EB08039A46D3E900670DF59C7B7AE902231046194632463B46CDE9000100F0E0FA04460D46DDE9000122462B4600F0D6FA32463B4600F0D4FADA45264642
:405340002F46CAE90201CAE90045E1D100231E4608F108044C4450AD184674E90223314600F0C0FAAC4203460E46F5D1039A002A7FF438AFD9E90045D9E9028918463146A3
:405380000A9A059BC2E9040103F00700C2E90045C2E902890DF51D7DBDE8F08F2046294600F0ECFE10ABDA4643F82B0036E600BF2DE9F04F21F00046B6F1795F85B00C469C
:4053C00090469946054604DA00F0D8FE002800F083802A4623462846214600F035FC2A46234606460F4600F02FFC3FA3D3E9002382468B463046394600F026FC3CA3D3E98E
:40540000002300F06DFA32463B4600F01DFC3AA3D3E9002300F066FA32463B4600F014FC37A3D3E9002300F05BFA32463B4600F00BFC35A3D3E9002300F054FA0E9BCDE9A9
:4054400000019BB3404649460022334B00F0FCFBDDE90023CDE902015046594600F0F4FB02460B46DDE9020100F03AFA32463B4600F0EAFB42464B4600F032FA24A3D3E97F
:40548000002306460F465046594600F0DDFB02460B463046394600F025FA02460B462846214600F01DFA05B0BDE8F08FDDE900233046394600F0C8FB15A3D3E9002300F028
:4054C0000FFA52465B4600F0BFFB2A46234600F009FA05B0BDE8F08F2846214605B0BDE8F08F00BFAFF300807CD5CF5A3AD9E53DEB9C2B8AE6E55A3E7DFEB157E31DC73EB6
:40550000D561C119A0012A3FA6F810111111813F495555555555C53F0000E03FAFF3008021F00041704700BF41F0004101F58010C00F7047000000002DE9F047C1F30A58D0
:40554000A8F2FF36132E0B4604460D460246894607461DDC002E40DBDFF8F08048FA06F808EA010E5EEA020217D035A3D3E9002300F0B8F90022002300F0F6FD20B1002D4E
:4055800040DB29EA0805002738462946BDE8F087332E06DDB6F5806F2FD020461946BDE8F087A8F213424FF0FF3A2AFA02FA1AEA000FF2D022A3D3E9002300F093F9002224
:4055C000002300F0D1FD0028DED0002D1FDB4D4627EA0A0738462946D8E719A3D3E9002300F080F90022002300F0BEFD0028CBD0002D1ADB00273D46C6E702460B4600F0B3
:4056000071F9CCE74FF4801333419944B9E7142E08D0C8F5866808F10308012303FA08F31F19D4D309F10109D1E725F00042064B224318BF1D460027A6E700BFAFF300802A
:405640009C7500883CE4377E0000F0BFFFFF0F0010B431F0004408D0114BA1F580129A4208D804205DF8044B704718B902205DF8044B704701F1FF41094B01F5E0019942BA
:40568000EFD9B4F5801F01D20320EBE7054B9C4201D00020E6E7B0FA80F04009E2E700BFFFFFDF7F0000F07F0020704700200149704700BF0000F87FF0B5C1F30A5EAEF2E1
:4056C000FF35132D83B002460B460C464FEAD17607462EDC002D48DB3C49294101EA030010432BD049080B4053EA02070CD04FF48023132D24EA010143FA05F444EA010469
:405700000CBF4FF0004700273149234601EBC606D6E900453A462046294600F0E3F8CDE90001DDE9000122462B4600F0D9F803B0F0BD332D06DDB5F5806F43D01046194616
:4057400003B0F0BDAEF2134E4FF0FF3121FA0EF10142F3D049080142D6D04FF0804320EA010143FA0EF70F43CEE721F000410143E4D0C3F3130141EA000CCCF1000141EA74
:405780000C0C13495C0C4FEA1C3C0CF4002C640401EBC6014CEA0403D1E900452046294600F0A0F8CDE90001DDE9000122462B4600F096F8024621F0004141EAC673104673
:4057C0001946BDE700F08EF8BAE700BFFFFF0F003097000000000000F8B5C1F30A5604460D460B46174616BB21F00043034332D00022314B00F028FA304A044697420D46E3
:405800000B4637DB40F2FE72C1F30A56363E3E44964215DD24A1D1E9000122462B4600F053F821A3D3E9002300F00EFAF8BD40F2FF72964224D040F2FE723E449642E9DC7B
:40584000002E09DD23F0FF4323F4E00343EA065520462946F8BDF8BD16F1350F15DA4CF250339F42D6DC12A1D1E9000122462B4600F02AF80EA3D3E9002300F0E5F9F8BD04
:4058800002460B4600F02EF8F8BD23F0FF4323F4E003363643EA0655204629460022084B00F0D2F9F8BD00BF9C7500883CE4377E59F3F8C21F6EA50100005043B03CFFFFA4
:4058C0000000903CAFF3008003F0004321F0004243EA0201704700BF81F0004102E000BF83F0004330B54FEA41044FEA430594EA050F08BF90EA020F1FBF54EA000C55EA53
:40590000020C7FEA645C7FEA655C00F0E2804FEA5454D4EB5555B8BF6D420CDD2C4480EA020281EA030382EA000083EA010180EA020281EA0303362D88BF30BD11F0004F6B
:405940004FEA01314FF4801C4CEA113102D0404261EB410113F0004F4FEA03334CEA133302D0524263EB430394EA050F00F0A780A4F10104D5F1200E0DDB02FA0EFC22FA0B
:4059800005F2801841F1000103FA0EF2801843FA05F359410EE0A5F120050EF1200E012A03FA0EFC28BF4CF0020C43FA05F3C01851EBE37101F0004507D54FF0000EDCF1BF
:4059C000000C7EEB00006EEB0101B1F5801F1BD3B1F5001F0CD349085FEA30004FEA3C0C04F101044FEA445212F5800F80F09A80BCF1004F08BF5FEA500C50F1000041EBF7
:405A0000045141EA050130BD5FEA4C0C404141EB010111F4801FA4F10104E9D191F0000F04BF01460020B1FA81F308BF2033A3F10B03B3F120020CDA0C3208DD02F1140C34
:405A4000C2F10C0201FA0CF021FA02F10CE002F11402D8BFC2F1200C01FA02F120FA0CFCDCBF41EA0C019040E41AA2BF01EB0451294330BD6FEA04041F3C1CDA0C340EDC6D
:405A800004F11404C4F1200220FA04F001FA02F340EA030021FA04F345EA030130BDC4F10C04C4F1200220FA02F001FA04F340EA0300294630BD21FA04F0294630BD94F093
:405AC000000F83F4801306BF81F480110134013D4EE77FEA645C18BF7FEA655C29D094EA050F08BF90EA020F05D054EA000C04BF1946104630BD91EA030F1EBF00210020E4
:405B000030BD5FEA545C05D14000494128BF41F0004130BD14F580043CBF01F5801130BD01F0004545F0FE4141F470014FF0000030BD7FEA645C1ABF194610467FEA655C40
:405B40001CBF0B46024650EA013406BF52EA033591EA030F41F4002130BD00BF90F0000F04BF0021704730B54FF4806404F132044FF000054FF0000150E700BF90F0000F10
:405B800004BF0021704730B54FF4806404F1320410F0004548BF40424FF000013EE700BF42004FEAE2014FEA31014FEA02701FBF12F07F4393F07F4F81F06051704792F05F
:405BC000000F14BF93F07F4F704730B54FF4607401F0004521F0004120E700BF50EA010208BF704730B54FF000050AE050EA010208BF704730B511F0004502D5404261EB18
:405C000041014FF4806404F132045FEA915C3FF4DCAE4FF003025FEADC0C18BF03325FEADC0C18BF033202EBDC02C2F1200300FA03FC20FA02F001FA03FE40EA0E0021FA2A
:405C400002F11444C1E600BF70B54FF0FF0C4CF4E06C1CEA11541DBF1CEA135594EA0C0F95EA0C0F00F0DEF82C4481EA030621EA4C5123EA4C5350EA013518BF52EA0335D7
:405C800041F4801143F4801338D0A0FB02CE4FF00005E1FB02E506F00042E0FB03E54FF00006E1FB03569CF0000F18BF4EF0010EA4F1FF04B6F5007F64F5407404D25FEAB8
:405CC0004E0E6D4146EB060642EAC62141EA55514FEAC52040EA5E504FEACE2EB4F1FD0C88BFBCF5E06F1ED8BEF1004F08BF5FEA500E50F1000041EB045170BD06F00046CC
:405D000046EA010140EA020081EA0301B4EB5C04C2BFD4EB0C0541EA045170BD41F480114FF0000E013C00F3AB8014F1360FDEBF002001F0004170BDC4F10004203C35DAA1
:405D40000C341BDC04F11404C4F1200500FA05F320FA04F001FA05F240EA020001F0004221F0004110EBD37021FA04F642EB06015EEA430E08BF20EAD37070BDC4F10C043C
:405D8000C4F1200500FA04F320FA05F001FA04F240EA020001F0004110EBD37041F100015EEA430E08BF20EAD37070BDC4F1200500FA05F24EEA020E20FA04F301FA05F259
:405DC00043EA020321FA04F001F0004121FA04F220EA020000EBD3705EEA430E08BF20EAD37070BD94F0000F0FD101F00046400041EB010111F4801F08BF013CF7D041EA59
:405E0000060195F0000F18BF704703F00046520043EB030313F4801F08BF013DF7D043EA0603704794EA0C0F0CEA135518BF95EA0C0F0CD050EA410618BF52EA4306D1D158
:405E400081EA030101F000414FF0000070BD50EA410606BF1046194652EA430619D094EA0C0F02D150EA013613D195EA0C0F05D152EA03361CBF104619460AD181EA03012C
:405E800001F0004141F0FE4141F470014FF0000070BD41F0FE4141F4780170BD70B54FF0FF0C4CF4E06C1CEA11541DBF1CEA135594EA0C0F95EA0C0F00F0A7F8A4EB0504D9
:405EC00081EA030E52EA03354FEA013100F088804FEA03334FF0805545EA131343EA12634FEA022245EA111545EA10654FEA00260EF000419D4208BF964244F1FD0404F534
:405F0000407402D25B084FEA3202B61A65EB03055B084FEA32024FF480104FF4002CB6EB020E75EB030E22BFB61A754640EA0C005B084FEA3202B6EB020E75EB030E22BF38
:405F4000B61A754640EA5C005B084FEA3202B6EB020E75EB030E22BFB61A754640EA9C005B084FEA3202B6EB020E75EB030E22BFB61A754640EADC0055EA060E18D04FEA14
:405F8000051545EA16754FEA06164FEAC30343EA52734FEAC2025FEA1C1CC0D111F4801F0BD141EA00014FF000004FF0004CB6E711F4801F04BF01430020B4F1FD0C88BFE5
:405FC000BCF5E06F3FF6AFAEB5EB030C04BFB6EB020C5FEA500C50F1000041EB045170BD0EF0004E4EEA113114EB5C04C2BFD4EB0C0541EA045170BD41F480114FF0000E24
:40600000013C90E645EA060E8DE60CEA135594EA0C0F08BF95EA0C0F3FF43BAF94EA0C0F0AD150EA01347FF434AF95EA0C0F7FF425AF104619462CE795EA0C0F06D152EAF3
:4060400003353FF4FDAE1046194622E750EA410618BF52EA43067FF4C5AE50EA41047FF40DAF52EA43057FF4EBAE12E74FF0FF3C06E000BF4FF0010C02E000BF4FF0010CFA
:406080004DF804CD4FEA410C7FEA6C5C4FEA430C18BF7FEA6C5C1BD001B050EA410C0CBF52EA430C91EA030F02BF90EA020F0020704710F1000F91EA030F58BF994208BF04
:4060C00090422CBFD8176FEAE37040F0010070474FEA410C7FEA6C5C02D150EA013C07D14FEA430C7FEA6C5CD6D152EA033CD3D05DF8040B704700BF8446104662468C4695
:406100001946634600E000BF01B5FFF7B7FF002848BF10F1000F01BD4DF808EDFFF7F4FF0CBF012000205DF808FB00BF4DF808EDFFF7EAFF34BF012000205DF808FB00BFAF
:406140004DF808EDFFF7E0FF94BF012000205DF808FB00BF4DF808EDFFF7CEFF94BF012000205DF808FB00BF4DF808EDFFF7C4FF34BF012000205DF808FB00BF4FEA410203
:4061800012F5001215D211D56FF47873B3EB625212D94FEAC12343F0004343EA505311F0004F23FA02F018BF404270474FF00000704750EA013005D111F0004008BF6FF0FE
:4061C000004070474FF00000704700BF4FEA4102B2F1E04324BFB3F5001CDCF1FE5C0DD901F0004C4FEAC0024CEA5070B2F1004F40EB830008BF20F00100704711F0804FD0
:4062000021D113F13872BCBF01F00040704741F480114FEA5252C2F11802C2F1200C10FA0CF320FA02F018BF40F001004FEAC1234FEAD32303FA0CFC40EA0C0023FA02F356
:406240004FEA4303CCE77FEA625307D150EA01331EBF4FF0FE4040F44000704701F0004040F0FE4040F40000704700BF80F0004002E000BF81F0004142001FBF5FEA41030A
:4062800092EA030F7FEA226C7FEA236C6AD04FEA1262D2EB1363C1BFD218414048404140B8BF5B42192B88BF704710F0004F40F4000020F07F4018BF404211F0004F41F4CD
:4062C000000121F07F4118BF494292EA030F3FD0A2F1010241FA03FC10EB0C00C3F1200301FA03F100F0004302D5494260EB4000B0F5000F13D3B0F1807F06D340084FEA7C
:40630000310102F10102FE2A51D2B1F1004F40EBC25008BF20F0010040EA03007047490040EB000010F4000FA2F10102EDD1B0FA80FCACF1080CB2EB0C0200FA0CF0AABF44
:4063400000EBC25052421843BCBFD0401843704792F0000F81F4000106BF80F400000132013BB5E74FEA41037FEA226C18BF7FEA236C21D092EA030F04D092F0000F08BF5B
:406380000846704790EA010F1CBF0020704712F07F4F04D1400028BF40F00040704712F100723CBF00F50000704700F0004343F0FE4040F4000070477FEA226216BF0846EE
:4063C0007FEA23630146420206BF5FEA412390EA010F40F4800070474FF0000304E000BF10F0004348BF40425FEA000C08BF704743F0964301464FF000001CE050EA01026D
:4064000008BF70474FF000030AE000BF50EA010208BF704711F0004302D5404261EB41015FEA010C02BF84460146002043F0B64308BFA3F18053A3F50003BCFA8CF2083A5A
:40644000A3EBC25310DB01FA02FC634400FA02FCC2F12002BCF1004F20FA02F243EB020008BF20F00100704702F1200201FA02FCC2F1200250EA4C0021FA02F243EB0200B0
:4064800008BF20EADC7070474FF0FF0C1CEAD0521EBF1CEAD15392EA0C0F93EA0C0F6FD01A4480EA010C400218BF5FEA41211ED04FF0006343EA501043EA5111A0FB01310F
:4064C0000CF00040B1F5000F3EBF490041EAD3715B0040EA010062F17F02FD2A1DD8B3F1004F40EBC25008BF20F00100704790F0000F0CF0004C08BF49024CEA502040EA08
:4065000051207F3AC2BFD2F1FF0340EAC250704740F400004FF00003013A5DDC12F1190FDCBF00F000407047C2F10002410021FA02F1C2F1200200FA02FC5FEA310040F1E5
:40654000000053EA4C0308BF20EADC70704792F0000F00F0004C02BF400010F4000F013AF9D040EA0C0093F0000F01F0004C02BF490011F4000F013BF9D041EA0C018FE700
:406580000CEAD15392EA0C0F18BF93EA0C0F0AD030F0004C18BF31F0004CD8D180EA010000F00040704790F0000F17BF90F0004F084691F0000F91F0004F14D092EA0C0FD9
:4065C00001D142020FD193EA0C0F03D14B0218BF084608D180EA010000F0004040F0FE4040F40000704740F0FE4040F4400070474FF0FF0C1CEAD0521EBF1CEAD15392EA6C
:406600000C0F93EA0C0F69D0A2EB030280EA010C49024FEA402037D04FF0805343EA111143EA10130CF000408B4238BF5B0042F17D024FF4000C8B4224BF5B1A40EA0C0012
:40664000B3EB510F24BFA3EB510340EA5C00B3EB910F24BFA3EB910340EA9C00B3EBD10F24BFA3EBD10340EADC001B0118BF5FEA1C1CE0D1FD2A3FF650AF8B4240EBC25075
:4066800008BF20F0010070470CF0004C4CEA50207F32C2BFD2F1FF0340EAC250704740F400004FF00003013A37E792F0000F00F0004C02BF400010F4000F013AF9D040EA95
:4066C0000C0093F0000F01F0004C02BF490011F4000F013BF9D041EA0C0195E70CEAD15392EA0C0F08D142027FF47DAF93EA0C0F7FF470AF084676E793EA0C0F04D14B02EC
:406700003FF44CAF08466EE730F0004C18BF31F0004CCAD130F000427FF45CAF31F000437FF43CAF5FE700BF4FF0FF3C06E000BF4FF0010C02E000BF4FF0010C4DF804CD28
:406740004FEA40024FEA41037FEA226C18BF7FEA236C11D001B052EA530C18BF90EA010F58BFB2EB030088BFC81738BF6FEAE17018BF40F0010070477FEA226C02D15FEA7D
:40678000402C05D17FEA236CE4D15FEA412CE1D05DF8040B704700BF844608466146FFE70FB5FFF7C9FF002848BF10F1000F0FBD4DF808EDFFF7F4FF0CBF012000205DF8F3
:4067C00008FB00BF4DF808EDFFF7EAFF34BF012000205DF808FB00BF4DF808EDFFF7E0FF94BF012000205DF808FB00BF4DF808EDFFF7D2FF94BF012000205DF808FB00BF0D
:406800004DF808EDFFF7C8FF34BF012000205DF808FB00BF4FEA4002B2F1FE4F0FD34FF09E03B3EB12620DD94FEA002343F0004310F0004F23FA02F018BF404270474FF072
:406840000000704712F1610F01D1420205D110F0004008BF6FF0004070474FF0000070471FB5054608480068C06812B9074C224600E0074C8DE81200029206491A462B46BC
:4068800000F010F800F0E2FEE882FF1F7B970000409700004D970000014B1868704700BFE882FF1F0EB403B5014603AB054853F8042B0068019300F069F802B05DF804EB78
:4068C00003B07047E882FF1F0E4B70B51E460E4C0025E41AA410A54204D056F8253098470135F8E703F02AF8084B094C1E46E41AA4100025A54204D056F8253098470135D6
:40690000F8E770BD4899000048990000489900005099000010B5431E0A44914204D011F8014B03F8014FF8E710BD03460244934202D003F8011BFAE77047936810B5013B77
:40694000002B936009DA9469A34202DBCBB20A2B03D1BDE8104000F0B9BD1368581C10601970C8B210BDF8B506460F461446D518AC4208D0304614F8011B3A46FFF7DDFFFC
:40698000431CF5D100E00020F8BD00002DE9F0439DB00D4690460393064618B183690BB901F090FD754B9D4201D1756808E0744B9D4201D1B56803E0724B9D4208BFF568FF
:4069C000AB891C070AD52B6943B10023099320238DF8293030238DF82A3041E03046294600F0C8FD0028F0D04FF0FF30C2E0039A0134111D12680391002ABBBF524243F09B
:406A0000020307920792B8BF049323782E2B7BD0DFF8808121784046032201F033FE38B1049AC8EB00004023834013430493013421785548062204F101088DF8281001F008
:406A400021FE002800F08580504B002B78D1039B073323F0070308330393099B3B44099343461C4613F8012B1AB9B4EB08090ED002E0252AF5D1F8E73046294642464B46EF
:406A8000FFF771FF013070D0099B4B4409932378002B6AD000234FF0FF3204930793059206938DF853301A9304F101084446DFF8E89021784846052201F0E4FD08F101088E
:406AC000049B30B1C9EB00000122824013430493ECE7D80644BF20228DF85320190744BF2B228DF8532022782A2A80D0234607991C4622780133303A092A03D80A2000FB26
:406B00000121F5E7079180E763782A2B0AD1039B02341A1D1B680392002BB8BF4FF0FF33059375E7611C00220C4623780131303B092B03D80A2000FB0232F5E7059267E7D1
:406B400003AB0093304604A92A46114B00F0B6F807E003AB0093304604A92A460C4B00F069FB421C07467FF478AFAB895B063FF53BAF09981DB0BDE8F08300BFD897000035
:406B8000F8970000189800008E970000BD6C0000676900008A970000849700002DE9F0471E4688B0149F002BB8BF06F10043129927F02007B6BF1E4600232D23462F1446C0
:406BC000109DDDF84CA00B7003D0452F03D1013501E0032300E002238DE8280406AB039307AB04932246334600F0C2FD472F804602D1119BDB0726D5462F08EB050911D19E
:406C000098F80030302B0AD12046314600220023FFF782FA18B9C5F10105CAF80050DAF8003099442046314600220023FFF774FA08B1CDF81C90079B4B4504D25A1C079285
:406C400030221A70F7E74046079B159AC8EB0303136008B0BDE8F087034673B50029B8BF494203F8022BB4BF2D222B22092942701ADD0DF1070426460A2291FBF2F502FBC4
:406C80001511092D01F1300104F8011D2946F3DC3031651E04F8011CB5421A460AD215F8012B03F8012BF7E71A463024214402F8024B5970101A02B070BD00002DE9F04F08
:406CC00091B08B4615461E461A9F044601F082FCD0F800A0504600F0F1FB00230E933B680990073323F0070303F108029BF818803A60D3E90023CBE91223DBE91201FEF7C9
:406D0000A7FC0128DBE9120119D100220023FFF70DFA10B12D238BF84330A04BA04FB8F1470F88BF1F460323CBF81030DBF8003023F00403CBF800304FF00009A1E0FEF701
:406D400087FCDBF8003048B9964A974FB8F1470F88BF17460322CBF81020E9E7DBF80420DBE91201571CCDE90A0101D1062209E0B8F1670F02D0B8F1470F05D1002A40F036
:406D8000C7810122CBF80420DBF8042043F480638DE80C00CBF800300DF1330302930DAB03930EAB059300230693CDF81080DDE90A232046FFF7F2FE08F0DF03472B0746AB
:406DC0000AD10D9BD81C03DBDBF80420934237DDA8F102085FFA88F8B8F1650F0D9915D8013942460BF150000D91FFF735FF0E9A81468318012ACBF8103003DCDBF8002052
:406E0000D10738D50133CBF8103034E0B8F1660F18D10029DBF8043009DDCBF810101BB9DBF80020D20721D501330B441CE01BB9DBF80020D00701D5023315E0012313E058
:406E40004FF067080D9B0E9A934207DBDBF80020CBF81030D10709D5013305E0002BD4BFC3F1020301231344CBF810300D9B4FF00009CBF858309DF8333013B12D238BF8D9
:406E800043300096204659460FAA2B4600F05CF9013002D14FF0FF3052E1DBF800305A0505D4204629463A46DBF8103008E1B8F1650F40F2D080DBE9120100220023FFF773
:406EC0002BF950B320462946384A0123B0470130E0D00E9B0D9A9A4209DBDBF80030D80705D4DBF800309F0700F1108107E1204629465246099BB0470130CBD000270E9B96
:406F0000013B9F42EDDA204629460BF11A020123B0470130BED00137F1E70D9B002B29DC20462946214A0123B0470130B2D00D9B2BB90E9B1BB9DBF80030D907D1D52046B8
:406F400029465246099BB0470130A3D04FF000080D9B20465B429845294608DA0BF11A020123B047013095D008F10108F0E73A460E9BA5E0DBF858200E9B9A42A8BF1A46C4
:406F8000002A914602DC4FF000081CE0204629463A464B46B0470130F5D17BE79997000095970000A19700009D970000A5970000204629460BF11A020123B04701303FF409
:406FC00069AF08F10108DBF85830B9F1000FB4BF1A46C9EB03029045EADB07EB03080D9A0E9B9A4210DBDBF80030DA070CD40E9A1744C8EB07030D9FD21B9342A8BF134677
:40700000002B1F4608DC0EE0204629465246099BB0470130EBD13DE7204629464246B04701303FF437AF4FF000080AE0204629460BF11A020123B04701303FF42BAF08F1C7
:4070400001080D9A0E9B002FA3EB0203A8BFDB1B9845EBDB45E70E9A012A01DCDB0736D5204629463A460123B04701303FF412AF204629465246099BB04701303FF40AAF72
:40708000DBE9120100220023FFF746F8E8B90E9B204629467A1C013B1DE0204629460BF11A020123B04701303FF4F4AE01370E9B013B9F42F1DB204629464B460BF1500206
:4070C000B04701307FF40DAFE4E60027EFE7204629463A460123B0470130ECD1DAE6204629460BF119020123B04701303FF4D2AE0137DBF80C300F9A9B1A9F42EFDBDBF846
:407100000C000F9B9842B8BF184619E00027F0E743F480638DE80C00CBF800300DF1330302930DAB03930EAB059300230693CDF810802046DDE90A23FFF730FD074640E6FD
:4071400011B0BDE8F08F00BF2DE9F84391461F468A680B6906469342B8BF1346C9F8003091F843200C46DDF8208012B10133C9F800302368990642BFD9F800300233C9F8D9
:407180000030256815F006051CD094F843302268003318BF012392061FD5E118302081F843005A1C94F845102244023382F8431013E03046394604F119020123C0470130BB
:4071C00007D00135E368D9F800209B1A9D42F0DBDBE74FF0FF30BDE8F8833046394604F14302C0470130F4D02268D9F80050E36802F00602042A08BF5D1B2269A3680CBFAE
:4072000025EAE57500259342C4BF9B1AED184FF00009A9450ADA3046394604F11A020123C0470130D5D009F10109F2E70020BDE8F88300002DE9FF410C461746227E9846ED
