:400000000080002011000000D1270000D127000008B5044B1A6803F53F5302331A6002F0F7FB00BFFA46004010B5054C237833B9044B13B10448AFF300800123237010BD93
:400040004883FF1F0000000074CA0000084B10B51BB108480849AFF300800848036803B910BD074B002BFBD0BDE81040184700BF0000000074CA00004C83FF1F0881FF1F41
:400080000000000080B562B601F060FD01F010FD00F068FA00F078FA00F078FA00F082FA00F0CCFB00F038FA00F056F901F0E2FA00F004FB00F09AFE3348344901F0D8F90F
:4000C00000F088FF01F0F8FA01F0F6FB01F040FD01F0F0FC00F0C4FB00F020FA00F044F901F0CEFA00F00EFB00F08CFE01F0F4F900F07AFF264C274D0FCD20606160A2605B
:40010000E36007CD20616161A2612B782377204601F0F0FC204D05F120072E460FCE20606160A260E36035461034BE42F5D103CD20606160164C204601F0DCFC174D05F100
:4001400020072E460FCE20606160A260E36035461034BE42F5D1337823700D4801F0CAFC012003F0B3F800F0DBF900F0DBFA01F0CBF901F089F800F017FA01F0B1FC002084
:4001800003F0A4F8ECE700BF4D05000059050000CC88FF1F78CA000098CA0000C0CA000008B501F0B7FCA0F13103472B53D8DFE803F02B2F33373B3F43475252525252529D
:4001C000525252522452525252525252525252525252525252525252524B525252525252525252522452525252525252525252525252525252525252524B194B1B7863BBC0
:400200000120174B187008BD01F092FC022008BD01F08EFC032008BD01F08AFC042008BD01F086FC052008BD01F082FC062008BD01F07EFC072008BD01F07AFC082008BD63
:4002400001F076FC092008BD01F072FC0022044B1A700A2008BD002008BD002008BD00BF6483FF1F10B50022194B1A80194801F041FC194801F03EFC184801F03BFC18486E
:4002800001F038FC174C204601F034FC164801F031FC164801F02EFC204601F02BFC144801F028FC134801F025FC204601F022FC114801F01FFC114801F01CFC104801F059
:4002C00019FC204601F016FC0E4801F013FC10BDC888FF1FE4CA000018CB00004CCB000094CB00002CCC0000DCCB000030CC000078CC0000F0CC000068CD0000E0CD00006B
:4003000058CE000090CE000010B50446064B1968088880B2A1F50041204389B201F080FC204600F0A9FB10BDCC89FF1F10B50446084A1368188880B220EA04001988188085
:40034000118881F4004101F06BFC204600F0B0FB10BD00BFCC89FF1F014A024B1A60704700800040CC89FF1F08B5034B1B68188880B200F081FB08BDCC89FF1F30B583B0BE
:40038000002401F0ADFB01F0C5FB054601F0D0FBA5F13003DBB2092B01D92E2D05D102AB234403F8085C0134E4B2042CE9D900238DF80530684608F0D7FA07F06FFF03B097
:4003C00030BD00BF10B592B00446084610A9032201F0B6F968460549224610AB09F000F9684601F087FB12B010BD00BFA8CE000010B501F075FBFFF7D3FE0446431E092B72
:400400004CD8DFE803F005081318232833384348FFF728FF42E00120FFF788FF02F0D6F80120FFF771FFFFF71DFF37E002F068F9FFF718FF32E00220FFF778FF01F06CFDBD
:400440000220FFF761FFFFF70DFF27E001F088FDFFF708FF22E00420FFF768FF01F00CFF0420FFF751FFFFF7FDFE17E001F03AFFFFF7F8FE12E00820FFF758FF01F048FE03
:400480000820FFF741FFFFF7EDFE07E001F076FEFFF7E8FE02E0044801F02CFB0A2C01D0002CA6D110BD00BFB8CE0000044A136830330360136803F5B8730B60704700BFC5
:4004C000CC89FF1F044A136803F52C730360136803F57C730B607047CC89FF1F014B186810307047CC89FF1F014B18681C307047CC89FF1F00B583B001A8694600F024FA09
:40050000044B019800991A46043301F095F903B05DF804FB6883FF1F704700BF704700BF10B500F0AFF9044610F0010F01D000F0DBFC04F00204A4B20CB100F0D3FE00F01B
:40054000B7F9FFF755FFFFF7D5FF10BD014B1868704700BF6883FF1F014B5868704700BF6883FF1F08B5064800214FF4807208F061FA044A138843F03F03138008BD00BFEB
:40058000CC88FF1FC888FF1F704700BF08B5002002F09CFE01F08AF8014B186008BD00BF7083FF1F704700BF08B501F07FF80A4A1368C01A506007F019FB0022074B07F046
:4005C0001BFE40B101F072F8034B18609868421C9A6000F0D5FA08BD7083FF1F00407F4070B504460E46036B9847A060E368C31A2361E06004F12005184607F059FF0146DA
:40060000284601F073F860610F4907F0A5FF0546304607F049FF0146284608F051F8014604F1280001F062F8A06107F001FB04A3D3E9002307F050FB07F030FEE06170BD48
:4006400057A393F4923B6B3F00007A44AFF3008030B591B0044680690DA9032201F070F860690AA9032201F06BF8E06907A9032201F066F80E4B1B8813F0030F16D00D4D62
:400680000DAB00930AAB019307AB0293A3680393E36804932369059328464FF48071064A234608F06BFF284601F024FA11B030BDC888FF1FCC88FF1FD0CE000010B40E4B35
:4006C00000219960D960196100225A615A620B4C1C62DA620A4898629A61DA61196459649964DA64DA659C655A6618661A655A655DF8044B704700BF0C81FF1F000040408B
:400700000000204110B503F037F802F01DFF044C636B00209847E36E0020984710BD00BF0C81FF1F38B500F0C1FF1A4A1368C01A506007F05BFA0022174B07F053FD38B3B7
:4007400000F0B4FF134B18601B7A2BB90122114B1A72072002F00EFB104D0E4C28466168FFF73EFF05F138006168FFF739FF0C4B1B8813F0010F02D02846FFF769FF084B16
:400780001B8803F002039BB213B10648FFF760FF38BD00BF7C83FF1F000049400C81FF1FC888FF1F4481FF1F014B9869704700BF0C81FF1F014B186D704700BF0C81FF1F34
:4007C000014BD869704700BF0C81FF1F014B586D704700BF0C81FF1F70B5154C636B002098470026E6602661002565616562A561E561E562A660E36E304698476664A6640E
:40080000E564E5652565656565662664094B1B8813F0010F02D02046FFF71AFF054B1B8803F002039BB213B10348FFF711FF70BD0C81FF1FC888FF1F4481FF1F10B5074C9D
:4008400020460021582208F0F5F80023A4F85830A4F85A30A4F85C3010BD00BF8883FF1F10B502F007FC054C58200C21224602F023FC034B1B681B88E38110BD8883FF1F51
:40088000CC89FF1F08B502F003FC0028FBD14FF40043044A1360044A108800211180034A136008BD80E100E08883FF1F00E100E010B502F0EDFB0028FBD14FF400431D4A14
:4008C00013601D4A5088002151801C4C2360B2F85C3023EA00030343A2F85C30184A118013F0010F01D00321118003F0020292B222B113490A8842F00C020A8003F004026C
:4009000092B222B10E490A8842F030020A8003F0080292B222B10A490A8842F040020A8003F010039BB223B1054A138843F08003138010BD80E100E08883FF1F00E100E080
:40094000C888FF1F000000002DE9F04105460C4602F09EFB10F0020F03D000223E4B1A660AE000F0A3FE3C4E736EC01A336E0344336600F09BFE706600232B602360364B39
:400980001B6EB3F5FA6F0ED202F082FB0028FBD14FF40043314A13602F4A51682960926822602F4A1360D5F80080404607F040F906460F4620A3D3E9002307F0FFFB38B1A3
:4009C000304639461EA3D3E9002307F0F7FB50B93046394618A3D3E9002307F0EFFB20B9DFF8888001E0DFF88880C5F800802568284607F01DF906460F4613A3D3E900230D
:400A000007F0DCFB38B13046394611A3D3E9002307F0D4FB48B9304639460BA3D3E9002307F0CCFB10B90F4D00E00F4D2560BDE8F08100BFAFF30080C66D3480B740E83F8E
:400A4000C66D3480B740E8BF17F671611F170E4017F671611F170EC08883FF1F80E100E000E100E0FBB87040FBB870C0BC05423FBC0542BFAFF3008008B50A4AB2F85A30CF
:400A80001843A2F85A0002F003FB0028FBD14FF40043054A1360034AB2F85A109181034A136008BD8883FF1F80E100E000E100E008B50B4AB2F85A3023EA0000A2F85A0051
:400AC00002F0E6FA0028FBD14FF40043054A1360034AB2F85A10D181034A136008BD00BF8883FF1F80E100E000E100E0F8B507460E4615461C4602F0CBFA0028FBD14FF4CD
:400B000000431C4A13601C4A17611C4A136002F0BFFA0028FBD14FF40043164A1360164A5661164A136002F0B3FA0028FBD14FF40043104A1360104A9561104A136002F00B
:400B4000A7FA0028FBD14FF400430A4A13600A4AD4610A4A136002F09BFA0028FBD14FF40043044A1360044A06991162034A1360F8BD00BF80E100E08883FF1F00E100E0C2
:400B800010B5044602F084FA0028FBD14FF40043034A1360034A5465034A136010BD00BF80E100E08883FF1F00E100E030B4BDF8084091420AD19C4201D198B211E0E41A87
:400BC00004EBD47403EB640080B20AE0401A25B21CB22C1B04FB00F4521A94FBF2F2981880B200B230BC704770B584B00C4600218DF80F108DF80E1058B3164605460DF13E
:400C00000E02009221461A460DF10F0300F0EAFD9DF80F309DF80E0034F9231034F9202036F8133036F81000009028B2FFF7BEFF80B2A0F5FA639BB24FF62F02934205D9BA
:400C4000B0F57A7F38BF4FF47A7004E04FF4FA6001E040F2DC5004B070BD00BF30B587B00446806803A9032200F06AFD0A4B1B8803F0300373B1E388084D03AA0092019307
:400C800028464FF48071064A234608F077FC284600F030FF07B030BDC888FF1FCC88FF1FF0CE00002DE9F04180460C46002107F00FFEF0B1E7687D683E68B86807F0F8FB96
:400CC000414607F049FC07F00DFEB042B8BF30468542A8BF0546284607F10C0107F1D8023323FFF781FFE080284607F0E1FBA06028E04046002107F0CDFDF0B127697D689F
:400D00003E68B86807F0D4FB414607F025FC07F0E9FDB042B8BF30468542A8BF0546284607F10C0107F1D8023323FFF75DFFE080284607F0BDFBA06004E040F2DC53E38041
:400D40000023A3602046FFF789FFBDE8F08100BF2DE9F04180460F46C488A31A002B03DA6642B61AB6B201E0A61AB6B2B6FBF7F600250AE0A41BA4B2D8F820302046984711
:400D8000012001F0F7FF0135ADB2BD42F2D3BDE8F08100BF2DE9F041884602EB8202D7B27D1D036AC08898470026002411E0FFF7B9FC042C08D9C0470B4907F0CDFB014668
:400DC000304607F0C1FA06460A2001F0D3FF0134E4B2A3B2AB42EAD3304607F083FD90FBF7F0BDE8F08100BF0000C84210B5044C636901209847A36B0120984710BD00BF0F
:400E00007C81FF1F10B5104C04F10C0004F11001FFF74CFB04F1300004F13401FFF752FB636900209847A3699847236A40F2DC509847A36B00209847E36B9847636C40F2E5
:400E4000DC50984710BD00BF7C81FF1F10B5044C2146FFF727FF236AE088984710BD00BF7C81FF1F10B5044C04F12401FFF71AFF636C608D984710BD7C81FF1F00000000EC
:400E800008B506F0D5FE06A3D3E9002307F04EF807F0BCF900B207F00BFBFFF7D7FF08BD57A393F4923B6B3F08B506F0C1FE06A3D3E9002307F03AF807F0A8F900B207F09F
:400EC000F7FAFFF7CFFF08BD57A393F4923B6B3F014BD888704700BF7C81FF1F014B588D704700BF7C81FF1F10B5064CE3699847236C9847636901209847A36B01209847F7
:400F000010BD00BF7C81FF1F2DE9F0470C4690469946089E034608B9244D00E0244D0BB9244F00E0244F40F2DC50E8802B6A98474FF4FA7001F01EFFFFF74EFC30460021EE
:400F4000CC2207F077FD8CB920E0C4F1320A5FFA8AFA39F81A30EB80284639464246FFF719FF46F82A000134E4B200E00024322CEBD90DE039F81430EB8028463946424601
:400F8000FFF708FF46F824000134E4B2322CF1D928464FF4FA7140F2DC52FFF7D9FE40F2DC50E8802B6A9847BDE8F0877C81FF1FA081FF1FA9070000B5070000014BD860F6
:400FC000196170477C81FF1F014B1863596370477C81FF1F034B00221A605A609A60DA601A617047F083FF1F704700BF000000002DE9F84F0646FFF7E3FB0446FFF7E6FBA1
:401000000546304607F050FA0646214607F0A4FA954907F055FB82462846314607F09CFA914907F04DFB81465046494607F08AF906F0FEFD7CA3D3E9002306F077FF0646E1
:401040000F468A4BD3F80080D8F82C0006F0F0FD02460B463046394606F03EFE07F01EF9834E316807F070F9306006F0E1FD06460F466FA3D3E9002307F0BEF858B1304662
:4010800039466DA3D3E9002306F072FC07F006F9774B186012E03046394669A3D3E9002307F096F850B13046394663A3D3E9002306F060FC07F0F2F86D4B18605046494674
:4010C00007F042F906F0B4FD00226A4B06F004FE06460F46D8F8280006F0AAFD02460B463046394606F0F8FD07F0D8F806F0A0FD06460F46DFF878A1DAF8000006F098FD51
:401100008046894604F0E6F902460B463046394606F0E2FD07F0C2F883464046494604F021FA02460B463046394606F0D5FD07F0B5F80646DAF80400594607F005F9CAF8D4
:401140000400DAF80800314607F0FEF8CAF808002846214607F0F8F84FF07C5107F0FCF9814606F065FD06460F4637A3D3E9002307F042F870B14FF001083046394634A3D0
:40118000D3E9002307F01AF808B94FF000085FFA88F300E0012353B1304639462AA3D3E9002307F029F820B9DFF8D49001E0DFF8D4902F4BC3F80C902846214607F0C2F823
:4011C00006F036FD18A3D3E9002306F0AFFE06460F4621A3D3E9002307F00EF868B14FF00104304639461EA3D3E9002306F0E6FF08B94FF00004E3B200E0012373B1304644
:40120000394615A3D3E9002306F0F6FF20B13046394607F043F802E0174800E01748144B1861BDE8F88F00BF986E1283C0CAD93F182D4454FB210940182D4454FB211940A1
:40124000182D4454FB2109C0C66D3480B740E8BFC66D3480B740E83F17F671611F170EC017F671611F170E4000007A44CC89FF1FF083FF1F0000E03FFBB870C0FBB87040B5
:40128000BC0542BFBC05423F10B582B000F00EFA124B5C69041B204606F0A8FC0022104B06F0AAFFB8B100F001FA0C4B58611B7E2BB90122094B1A760B2001F05BFD20461C
:4012C000FFF796FE054C6068A1682268E36824690094FFF70BFC02B010BD00BFF083FF1F0000494000B583B0074A0023136053609360D36013610093184619461A46FFF735
:40130000F5FB03B05DF804FBF083FF1F024B5A6802609B680B607047F083FF1F014B1868704700BFF083FF1F2DE9F0470546436C98478146002107F0CBFA10B14FF0010A56
:4013400001E04FF0FF0AAB6C9847044605F10808484606F06DFC1EA3D3E9002306F0E6FD06460F460022002306F028FF50B109F1004006F05DFC16A3D3E9002306F0D6FDAA
:4013800006460F463046394606F088FF0146404600F08AFB2046002107F07CFA10B104F1004100E02146404600F080FB404600F09BFA50B1EC6C2D694FFA8AF007F078F891
:4013C0000146284607F0C8F8A047BDE8F08700BF57A393F4923B6B3F30B59BB00446C06B17A9032200F0ACF9A06814A9032200F0A7F9E06BA16806F0A5FF11A9062200F06E
:401400009FF9E0680EA9032200F09AF9E06A0BA9062200F095F9206908A9062200F090F9104B1B8803F00C03CBB1236D98470E4D17AB009314AB019311AB02930EAB039360
:401440000BAB049308AB0593069028464FF48071064A234608F092F8284600F04BFB1BB030BD00BFC888FF1FCC88FF1F00CF00002DE9F04387B0154D6864C5F89810002460
:40148000DFF84C90CDF800900194DFF84880CDF80880012703970026049605F1080021462246234600F0D6FACDF800900194CDF808800397049605F15C0021462246234636
:4014C00000F0C8FA07B0BDE8F08300BFC481FF1FCDCC4C3D0000964310B5FEF7FFFF094C01684268836804F1080000F07DFAFEF7FBFF01684268836804F15C0000F074FA43
:4015000010BD00BFC481FF1F10B500F0CFF8184B1B68C01A06F06AFB0022164B06F062FE28B300F0C3F8124B18601B792BB901220F4B1A71132001F01DFC0F4C2046FFF77D
:40154000F3FE04F15400FFF7EFFE0C4B1B8803F004039BB213B12046FFF73EFF074B1B8803F008039BB213B10548FFF735FF10BD0C84FF1F00004940C481FF1FC888FF1F60
:401580001882FF1F2DE9F84305460F46164600F08DF804464FF000094FF000081CE0EB6C38469847FFF7BEF8FFF7AEFF00F07EF8001BB0F57A7F0FD9AB6C98470146384617
:4015C00006F0C0FE014606F0C7FF0146404606F0BBFE804609F1010900F068F8001BB042DDD3EB6C002098474FF4FA7001F0C2FB484606F059FF0146404607F061F8BDE892
:40160000F88300BF70B503460E461546064C04F1080019685A689B6800F0E6F9204631462A46FFF7AFFF70BDC481FF1F38B503460D461446054819685A689B6800F0D4F93B
:40164000034829462246FFF79DFF38BD2082FF1F1882FF1F024B5864C3F89810704700BFC481FF1F024A136801331360704700BF1484FF1F0022014B1A6070471484FF1F15
:4016800010B501F051FC01F01DFC002409E0204601F060FC20B92046034901F053FC10BD0134042CF3D910BD65160000014B1868704700BF1484FF1F704700BF30B50024D5
:4016C00006E0094D85FB00E5C017C0EBA50001340028F6D103E030208854013201349C42F9DB104630BD00BF67666666F8B504464668304606F028FE074625683046294644
:4017000006F0DEFF0146384606F01CFE6060294606F0D6FFF8BD00BF030A0B704870704782B001909DF804300B709DF805304B709DF806308B709DF80730CB7002B07047DA
:401740002DE9F84306460D469046002107F0A2F850B12D232B703046002107F09BF808B106F10046012400E00024304607F0BAF8074629190A2207F050F907F055FF2044FC
:40178000B8F1000F29DD2E232B54441C384606F08FFE0146304606F0D5FD8146404606F035FA02460B4600200D4903F025FF06460F46484606F03CFA32463B4606F08CFA4D
:4017C00006F024FD0646294622464346FFF776FF291830460A2207F020F9BDE8F88300BF00002440F0B4049F013AD2B2540800251D703D7019E051F82460864203DA651CD8
:40180000EDB21C700CE0864202D11C703C700EE0864205DD3C701A78A21A012A07D02246AC1804EBD474C4F347049542E3D9F0BC704700BF000000002DE9F8430C46914696
:40184000984606F0F5F906460F46204606F0F0F911A3D3E9002306F03FFA0022104B06F03BFA04460D463046394622462B4606F07FF806F013FDC9F800003046394622465A
:401880002B4606F077F806F009FDC8F80000BDE8F88300BFAFF30080986E1283C0CAD93F0000E03FAFF30080002383600360436001614261704700BF10B501F0DFF801F012
:4018C000E9F8084C04F1280004F14C0104F16C02FFF7EAFF201D04F1AC0104F1CC02FFF7E3FF10BD1884FF1F2DE9F84390F83930002B48D004460768406B394606F022FD94
:401900008046E069414606F027FE616A06F01CFD05466062E66A314606F0BCFF40B9D4F830902846494606F0D3FF10B14D4600E0354665623846616806F004FD8146A069C9
:40194000414606F009FE0146284606F0FDFC0546206A494606F000FE0146284606F0F2FC0546A0603046294606F0B2FF30B9266B2846314606F0ACFF00B92E46A66067607D
:401980000120BDE8F8830020BDE8F883F8B504460D4616460846114606F090FF18BBE562266394F83930012B1DD1A7683846294606F070FF30B93046394606F06BFF10B1C4
:4019C000374600E02F46A760676A3846294606F061FF30B93046394606F05CFF10B1374600E02F466762F8BD2DE9F04104460D4616461F460846002106F04CFF38BB3046FC
:401A0000002106F047FF10BB3846002106F042FFE8B9E56026616761A561D4F828804046314606F099FD0646E0613846414606F047FE206294F83830012B08D105F10045ED
:401A4000A56106F10046E66100F100402062BDE8F08100BFF8B504460F4616461D469DF8283080F838309DF8243080F83930002141620160416081604163069806F028FFAC
:401A800010B1069BA36202E04FF07E53A36220460799089AFFF77AFF2046394632462B46FFF7A2FFF8BD00BF4163704701607047704700BF08B50020012102F01BF802F0F9
:401AC00063F820B102F05AF808B102F087F902F055F810B1014802F0CDF908BD20CF000008B502F051F820B102F048F808B102F075F908BD10B50446FFF7F2FF02F03EF89F
:401B000030B102F025FA0028FBD0204602F0B2F910BD00BF08B502F031F8034630B102F00BFA034610B102F01FFA0346184608BD10B5044602F022F830B102F009FA00289E
:401B4000FBD0204602F0E4F910BD00BF704700BF08B501F0CDFB08BD2DE9F04780460D46170912F00F021CD0C2F1100A1FFA8AFA02EB07121FFA82F9002426460CE009EB2F
:401B8000060118F8040089B201F0B6FB0134A4B2013DADB20136B6B25645F0D30137BFB200E00024C5F30F19B9F1000F0ED110E008EB0400F9B201F009FC1034A4B2103D74
:401BC000ADB20137BFB20136B6B200E000264E45EED3ADB13F01BFB2A94600260DE0B91918F8040089B201F087FB0134A4B209F1FF391FFA89F90136B6B2B542EFD84D46F7
:401C00002DB104484E21044A044B06F091FEBDE8F08700BF50CF00003CCF000064CF000010B582B00C4601A9FFF776FD9DF80400214601F061FB611C9DF8050089B201F0C5
:401C40005BFB02B010BD00BF30B583B00D4601A9FFF766FD002409E002AB2344291913F8040C89B201F048FB0134E4B2032CF3D903B030BD000000002DE9F04F89B08246B9
:401C80000D46164600921C460193514B93E8070008AB03E907000023AB606B602B60284631462246D047804672E0A70008AB3B4453F80C6C55F82400314606F045FB45F832
:401CC000240028460099019AD0478346414606F0E1FD80B1304605F0ABFF37A3D3E9002305F0FAFF06F0DAFA08AB03EB840343F80C0CD84646E008AB03EB840353F80C0CE2
:401D000005F096FF02460B4605F034FECDE9020155F8240005F08CFFDDE9022305F028FE06F0BCFA45F8240028460099019AD0478346414606F0AEFD80B108AB03EB840993
:401D4000304605F075FF1CA3D3E9002305F0C4FF06F0A4FA49F80C0CD84613E0E859314606F0F2FAE85108AB03EB8409304605F05FFF13A3D3E9002305F0AEFF06F08EFAB1
:401D800049F80C0C0134E4B200E00024022C8CD90598069906F0D8FA079906F0D5FA05F047FF09A3D3E9002306F026FA0028ECD109B0BDE8F08F00BF9A9999999999F13FDB
:401DC000CDCCCCCCCCCCEC3F9A9999999999C93F74CF0000AFF30080014B1868704700BF6C82FF1F014B5868704700BF6C82FF1F38B504460C4D2968A1F5FF417039006807
:401E000089B2FFF721FF2968A1F5FF416C39606889B2FFF719FF2968A1F5FF416839A06889B2FFF711FF38BDCC89FF1F38B504460C4D2968A1F5FF416439006889B2FFF74E
:401E400003FF2968A1F5FF416039606889B2FFF7FBFE2968A1F5FF415C39A06889B2FFF7F3FE38BDCC89FF1FF0B59DB007460C46086809A90322FFF763FC06AE60683146C0
:401E80000322FFF75DFC03ADA06829460322FFF757FC009601950CA804493A4609AB07F09FFB0CA8FFF726FE1DB0F0BD80CF000000B585B0084801A9084A4FF4FA63FFF7C4
:401EC000DBFE01A8FFF794FF054801A9FFF7CCFF05B05DF804FB00BF05160000000061439CCF000000B585B0084801A9084A4FF4FA63FFF7C1FE01A8FFF798FF054801A975
:401F0000FFF7B2FF05B05DF804FB00BF2D16000000006143A4CF000038B50C48FFF7EAFD0B4C25880B48FFF7E5FD04232380FFF7BFFF0948FFF7DEFD08232380FFF7D2FF56
:401F400025800648FFF7D6FD38BD00BFACCF0000C888FF1FCCCF0000E4CF0000FCCF0000F0B59FB024482549FFF774FB244B254A1A605A60FFF79AFB06460024254609E05B
:401F8000FEF7D0FBFFF7C0FAFEF71AFC0546FEF71DFC0446FFF78AFB801B41F287339842EED900263046FEF751FF3046FEF75AFF134F38681BA90322FFF7C2FB18AE786876
:401FC00031460322FFF7BCFB284615A90322FFF7B7FB12AD204629460322FFF7B1FB0096019502A808491BAA15AB07F0F9FA02A8FFF780FD1FB0F0BDD91D0000E51D00001D
:402000006C82FF1F9A99193E18D00000000000002DE9F04100243C4B20463C491A460433FFF70AFC2046FEF711FF2046FEF71AFFFFF774F90546FEF775FBFFF765FAFFF775
:4020400023F9FFF76BF98046294606F07BF9054605F0EEFD06460F4625A3D3E9002306F0CBF850B13046394623A3D3E9002305F07FFC06F013F9054611E03046394620A31E
:40208000D3E9002306F0A4F848B1304639461AA3D3E9002305F06EFC06F000F905462046294606F051F90446174D2868FEF7E8FE6868FEF7F9FE2046002106F0EBFB10B17E
:4020C00004F1004000E0204605F0B2FD45460AA3D3E9002306F072F80028ACD100242046FEF7B4FE2046FEF7BDFEBDE8F08100BF182D4454FB210940182D4454FB211940F5
:40210000182D4454FB2109C02485FF1F3333333F38B51448FFF7EEFC134D2968A1F5FF4154394FF07E5089B2FFF78EFDFFF770FF0E48FFF7DFFCFEF721F901460C4806F0CC
:40214000BFFA04460B482146FEF73CF92968A1F5FF415439204689B2FFF776FD0648FFF7C9FC38BD3CD00000CC89FF1F64D000000000B443ACD00000B4D0000008B50448C9
:40218000FFF7B8FCFFF744FF0248FFF7B3FC08BDD8D0000000D10000F0B585B04FF07E52334B1A6003A802A9FFF7B0F800242046FEF74CFE2046FEF755FEFEF7B3FAFFF72B
:4021C000A3F9FFF761F801A86946FFF79FF80198039906F0B7F805F02BFD00244FF0804522462B4603F008FA06460F460098029906F0A8F805F01CFD22462B4603F0FCF9E9
:4022000004460D463046394622462B4605F0B2FB03F06AFB06F042F8154C4FF07E5106F091F82060134D2846FEF72AFE2846FEF73BFE24682046002106F02CFB08B104F136
:402240000044204605F0F4FC07A3D3E9002305F0D3FF0028B1D100242046FEF7F7FD2046FEF700FE05B0F0BD7B14AE47E17A843F2C85FF1F9A99193E38B51548FFF73AFC36
:40228000144D29684FF07E54A1F5FF415839204689B2FFF7D9FCFFF77FFF0F48FFF72AFCFEF76CF80146204606F00AFA04460B482146FEF787F82968A1F5FF41583920468B
:4022C00089B2FFF7C1FC0648FFF714FC38BD00BF24D10000CC89FF1F4CD1000094D100009CD1000008B50448FFF704FCFFF754FF0248FFF7FFFB08BDC0D10000E8D1000000
:40230000074B1B6803F13001064A116003F5B871516003F52C71916003F57C73D3607047CC89FF1F3085FF1FB8B929B919704FF4FA6040F2DC5305E00121197040F2DC50AB
:402340004FF47A73002105E022F811300131C9B20A339BB28342F7D9704729B919704FF47A7040F2DC5305E00121197040F2DC504FF4FA63002105E022F811300131C9B2B4
:402380000A3B9BB28342F7D2704700BF10B4002308E050F8232051F82340224441F823200133DBB2322BF4D95DF8044B704700BF10B4002307E050F8234094FBF1F442F873
:4023C00023400133DBB2322BF5D95DF8044B7047F0B44FF6FF7414600A4C1C6000240DE0A60050F824501F68BD4200DD1D6085591668B54200DA15600134E4B28C42EFD341
:40240000F0BC70470100FFFF2DE9F04184B0804617461D460A9E32460DF10F03FFF784FF0F480021CC2206F005FB00240DE09DF80F10009540460A223346FEF765FD2846EA
:402440000749FFF7A3FF0134E4B2BC42EFD3044839462A46FFF7ACFF04B0BDE8F08100BF4085FF1F2DE9F84380460D4617469946124C04F1DC0610463321324604F1E003CC
:40248000FFF7A6FF6423C4F8E43004F1E8003946CC2206F0C4FA04F5DA704946662206F0BEFA05EB480534F8252030464FF4A07182F40042FFF750FBBDE8F8833085FF1FC0
:4024C00070B59EB003460E461546684612491A4607F086F86846FFF70DFB00240CE005A80E4956F8242035F8143007F079F805A8FFF700FB0134E4B2312CF0D905A80849DB
:4025000056F8242035F8143007F06AF805A8FFF7F1FA1EB070BD00BF64D200006CD2000078D20000F0B599B0054617461E46084615A90322FFF704F912AC38462146032253
:40254000FFF7FEF80094019602A805492A4615AB07F046F802A8FFF7CDFA19B0F0BD00BF88D200002DE9F04F83B00190884693469A460D9E00252846984700271EE04FEAD6
:40258000870958F82700D0470C9B98470090FFF78DF8044603E0FEF7C5F8B0470546FFF785F8001BB0F5FA6FF5D3019858F809102A46009BFFF7B6FF0137FFB25F45DED3F1
:4025C0000020D04703B0BDE8F08F00BF2DE9F04182B0FFF795FE3D4FB7F8008001263E803B48FFF787FA3B48FFF784FA3A4C04F5077504F53A7400940020014605222B4646
:40260000FFF702FF002001462A462346FFF72AFF324829462246FFF753FF3148FFF76AFA00940020314605222B46FFF7EDFE002031462A462346FFF715FF2A482946224671
:40264000FFF73EFF02233B802748FFF753FA00943046002105222B46FFF7D6FE304600212A462346FFF7FEFE204829462246FFF727FF1F48FFF73EFA00943046314605220E
:402680002B46FFF7C1FE304631462A462346FFF7E9FE184829462246FFF712FF164C216801F1300001F5B871FEF788FC216801F52C7001F57C71FEF787FC1048FFF71AFA96
:4026C000A7F8008002B0BDE8F08100BFC888FF1FACD20000D0D200003085FF1FECD20000FCD2000018D3000028D3000044D3000054D3000074D30000CC89FF1F84D3000012
:402700002DE9F04399B0254C0DAD26460FCE0FC50FCE0FC596E8070085E8070002AD2C340FCC0FC50FCC0FC594E8070085E807001B48FFF7DFF91B4FDFF88C90CDF80090CE
:40274000DFF88880CDF8048017480DA90B223B46FFF708FF154C164E0096164D019516480DA90B222346FFF7FDFECDF80090CDF80480124802A90B223B46FFF7F3FE0096B4
:4027800001950F4802A90B222346FFF7EBFE0D48FFF7B0F919B0BDE8F08300BF0CD20000A4D300004D0E0000D0D30000650E0000DD0E0000CD070000E0D30000F0D300007D
:4027C00000D4000010D40000D10E0000C1070000FEE700BF08B5C0B200F0CAFAFEE700BF08B5094B1A681044084BC31A802B02DC054B186005E006F0BBF80C2303604FF088
:40280000FF32104608BD00BF7482FF1FD08AFF1F08B5104E104D16E029686B68AC68002204E051F8040B43F8040B0432A242F8D1E868002203E0002143F8041B04328242C6
:40284000F9D11035013E002EE6D106F0A9F8FDF719FCFEE70100000018DB000008B5124A124B1A60124A136843F40073136000230AE0032B03D80F4A52F8231000E00E49A5
:402880000E4A42F8231001332F2BF2D90C4B1A780C4B1A70094A0C4B1A6000F007F900220A4B1A6008BD00BF0004FA050CED00E014ED00E000000000D12700000080FF1F54
:4028C000BC7600400481FF1F08ED00E00081FF1FF0B40022174611E050F82760F3B226F0FF0608E001EB420511F812406D78A5550132013BDBB2002BF4D10137272FEBD919
:40290000F0BC704708B50A46002106F093F808BD38B50E222B4B1A8018232B490B7002310A802A4A1370172204310A8002310B7002310A80264A137041F2BF210232118087
:40294000023213700622234B1A705222A3F580731A70214B1B78DBB2204A13700024204B1C8040F6180203F21E231A8041F25122023B1A8019250CE01A4B1B7803F001039D
:4029800043EA440404F003044FF4F07000F0E0F9013D0DB1032CEFD1114A07231370002311490B7048200231087013700532137002220E4B1A700E4A137843F01F0313703E
:4029C00038BD00BF8040004082400040864000408E400040004300400F010049A146004004400040254200400640004001400040A2430040F8B5174B1B78DBB2164E347874
:402A0000E4B2164F3D78EDB203F00701144A11701B090132137044F00303337045F003033B7080239232137008321370F0220D4B1A7020230C490B7005310A700B4A13709A
:402A40000A2000F0ADF93D7034704422084B1A70F8BD00BFCF010049F8460040F94600406E580040205B0040235B00402B5B00407658004008B505F0D2FF08BDFF22034B6E
:402A80001A700022024B1A70704700BF7882FF1F3D510040FF22034B5A700022024B1A70704700BF7882FF1F0D51004038B572B6464A137843F00403137000240CE044494F
:402AC00063001A1952000A4423445B00C8589188FFF718FF0134E4B2052CF0D900240FE03B49A3001A1952000A4452F8240F23445B000B4451689A8DFFF7BCFF0134E4B2DC
:402B0000012CEDD94FF090403249FFF7E1FE324A137843F0020313701032137843F0020313702E4C237843F040032370A2F58632513A137843F010031370294829490822A0
:402B4000FFF798FF284829490822FFF793FF284828490A22FFF78EFF274828490822FFF789FF274827490A22FFF784FF264827490822FFF77FFF264826490822FFF77AFFA6
:402B8000254826490822FFF775FF254825490822FFF770FF4423244A137002F560621370A2F55542393A137843F0080313701F4D61232B70FFF7ACFE81232B70FFF71AFF41
:402BC0001B4821460E22FFF755FF38BDE846004038D40000A000004803500140A043004002510040D00F0048C2510040D80F0048F0510040E00F004812510040EC0F0048A9
:402C000020510040F40F004832510040001000484251004008100048525100401010004862510040181000485B0A014000480040B0430040044A137803F0FE0300F001007D
:402C400018431070704700BF20510040704700BF014B1880704700BF0C680040014B1880704700BF8C680040014B1880704700BF4C68004008B50B4A137843F0010313709B
:402C80000132137843F00103137044F62060FFF7DFFF44F62060FFF7E1FF40F2DC50FFF7E3FF08BD9664004008B5044B1B7823B9FFF7E0FF0122014B1A7008BD8088FF1F15
:402CC000044A137803F0EF03000100F0100018431070704720510040704700BF014B1880704700BF08680040014B1880704700BF88680040014B1880704700BF486800407E
:402D000008B50B4A137843F0010313700132137843F00103137044F62060FFF7DFFF44F62060FFF7E1FF40F2DC50FFF7E3FF08BD9464004008B5044B1B7823B9FFF7E0FF23
:402D40000122014B1A7008BD8188FF1F000000000230800803D000BF01380046FCD17047EFF3108072B6704780F31088704700BF01BE704710B5044605E0084B1868FFF71A
:402D8000E7FFA4F50044B4F5004FF6D8034B586800FB04F0FFF7DCFF10BD00BF7C82FF1F08B5034B1B7A03FB00F0FFF7D1FF08BD7C82FF1F70B504460E46074B1D680F280E
:402DC00002D90020FFF7D4FF04F00F0455F8240045F8246070BD00BF08ED00E070B504460E46074B1D681F2802D90020FFF7C0FF04F01F04103455F8240045F8246070BDCA
:402E000008ED00E038B504460D46072902D90020FFF7AEFF1F2C02D90020FFF7A9FF04F01F0000F1604000F564406D01EDB2057038BD00BF024A136843F0020313607047E5
:402E400010E000E008B5FFF7F5FF034A136843F00103136008BD00BF10E000E020F07F40014B1860704700BF14E000E0012805D1054A136843F0040313607047024A136844
:402E800023F004031360704710E000E0024B1868C0F30040704700BF10E000E010B5FFF7F5FF01280BD107E0054B03EB84035B6803B19847013400E00024042CF4D910BD3F
:402EC0008488FF1F0022014B1A60704718E000E008B5002305E00F4A02EB8302002151600133042BF7D90F200B49FFF763FF0120FFF7BCFF094BDB680948A0FB03308009B0
:402F0000FFF7ACFFFFF7DEFF4FF40042054B1A6008BD00BF8488FF1F9D2E00007C82FF1FD34D621000E100E008B5054B9B6923B9FFF7CEFF0122024B9A61FFF783FF08BD8E
:402F40008488FF1F024B03EB80035868596070478488FF1F024B03EB80004068704700BF8488FF1F134B1B78DBB20360124A127843EA02230360114A127843EA02430360D6
:402F80000F4A127843EA026303600E4B1B78DBB243600D4A127843EA022343600B4A127843EA024343600A4A127843EA02634360704700BF0301004904010049EC460040BD
:402FC000020100490101004900010049050100490601004910B50123114A137081210E3A11700821023211701132137000240D4B1C704FF400420C4B1A600F200721FFF7D0
:4030000001FF0F200949FFF7E9FE094B1C70094B1C70094B1C70094B1C70094B1C8010BDD6490040DC49004080E100E009310000D289FF1FDC89FF1FD389FF1FD889FF1FC1
:40304000D089FF1F08B5FFF78BFE084A137843F0040313701032137843F004031370FFF783FE4FF40042024B1A6008BDA543004000E100E008B5054B1B7823B9FFF7AAFFED
:403080000122024B1A70FFF7DDFF08BDA088FF1F4FF40041054B1960054A1078137803F01003DBB21370034B1960704780E100E0DC89FF1F00E100E010B44FF400440B4BD0
:4030C0001C6032B113460A4A13600A4B18800A4B19800023094A1370094A13704FF40042084B1A605DF8044B704700BF80E100E0D489FF1FDA89FF1FD089FF1FD389FF1F0D
:40310000D889FF1F00E100E0654B1B78DBB2654A137013F0080F32D0634B1B7813F0010F1CD0624A1378DBB261490968CB5CDBB25D490B7014215A4B19701378DBB25D4A1B
:40314000137013780133DBB213705B4A137843F0110313700822594B1A708EE01022504B1A70554A137843F0120313700122534B1A70534A137843F0100313707DE013F055
:40318000010F7AD04D4A1278D2B2042A1ED0082A3AD0012A68D1444B1B78DBB2414A5370484A128892B293420CD210223C4B1A703C4B5B783D4A13703E4A137004223F4BD2
:4031C0001A705AE00022364B1A7056E0394B1A783D4B1B889BB29A4212D2334B1B7831494B7010222E4B1A70324A1378DBB2304800684978C15413780133DBB213703CE0AA
:403200000022274B1A7038E013F0020F1ED1294B1A782C4B1B889BB29A4210D2254A1378DBB223490968CB5CDBB21F490B7004211B4B197013780133DBB213701DE0FF222E
:40324000194B1A700422013B1A7016E0FF22164B1A700022013B1A7017490B7803F0EF030B70164B1A7008E00023144A13700F4A1370104A13700A4A1370094B1B7813F0F6
:40328000200F0CD00C4A137803F0EF03137000220A4B1A700A4A137803F0EF0313707047D7490040A188FF1FD8490040D389FF1FD489FF1FD889FF1FDC89FF1FD289FF1F43
:4032C000D6490040DA89FF1FD089FF1F044A137803F0FB03800000F00400184310707047C051004008B501F065FF01F06DFF08BD08B5FFF7F7FF08BD30B583B00C468DF8C5
:40330000070001F08BFFB4F5006F54D22509C5EB053319010C44A4B202F056F800284CD1402021460DF10702012301F0A3FF044607282FD1234B1B7813F0020FFAD0214B29
:403340001B7813F0020F06D01E4B1B789B0805D04FF0FF3403E04FF0FF3400E00024E4B9194B402029461A785B7801F0E9FF072816D1144B1B7813F0020FFAD0114B1B78AE
:4033800013F0020F0FD00F4B1B789B0810D04FF0FF340DE0012809D10AE04FF0FF3407E04FF0FF3404E04FF0FF3401E04FF0FF3402F030F802E0012400E00424204603B0A8
:4033C00030BD00BF22470040A08AFF1F38B504460D4601F023FF15F0800F48D101F0F4FF002846D140202146102201F07FFF07282FD1214B1B7813F0020FFAD01E4B1B7853
:4034000013F0020F06D01C4B1B789B0805D04FF0FF3403E04FF0FF3400E00024E4B9174B402029461A785B7801F08AFF072816D1114B1B7813F0020FFAD00F4B1B7813F0E5
:40344000020F0FD00C4B1B789B080DD04FF0FF340AE04FF0FF3407E04FF0FF3404E04FF0FF3401E04FF0FF3401F0D4FF02E0012400E00424204638BD22470040A08AFF1F03
:4034800008B58022054B1A6007200549FFF7A6FC07200146FFF7B6FC08BD00BF80E100E07D35000010B58024064B1C6000F0A0F8A0F5004000B2044B1B68044A1460184414
:4034C00010BD00BF80E100E0A488FF1F00E100E038B505468024054B1C604FF4004000F081F8034B1D60034B1C6038BD80E100E0A488FF1F00E100E0024B187800F00F00AE
:40350000704700BF6664004040F00700014B1870704700BF8664004008B50F20FFF7F4FFFFF7EAFFFFF71CFC054A137843F010031370FFF719FC8022024B1A6008BD00BF03
:403540009664004000E100E008B500F0A3F84FF4004000F047F80022064B1A60064B1B7823B9FFF78DFF0122034B1A70FFF7D4FF08BD00BFA488FF1FA388FF1F0D4B1B7861
:40358000DBB213F0010F06D00B490A6802F5FF427F320A6007E013F0020F04D006490A68A2F500420A6013F0040F02D00022024B1A60704766640040A488FF1F024A1378F6
:4035C00043F080031370704775640040014B1870704700BF81640040014B1878704700BF61640040014B1880704700BF04680040024B1B78024B188880B27047026400409A
:4036000084680040014B188880B2704784680040014B1880704700BF44680040014B1880704700BF6468004008B501E0FFF7EAFFFFF7D2FF10F0400FF8D108BD08B5134B75
:403640001A7802F0F8021A701A7802F0FC021A70FFF7EAFF4FF40040FFF7DAFF4FF40040FFF7C0FF0020FFF7B1FFFFF7B5FF4FF40040FFF7D3FFFFF773FB054A137843F0A1
:4036800010031370FFF770FB08BD00BF756400409164004008B5054B1B7823B9FFF7CEFF0122024B1A70FFF789FF08BDA888FF1F08B52022054B1A6005200549FFF78EFBBC
:4036C00005200721FFF79EFB08BD00BF80E100E0AD37000010B52024064B1C6000F0A0F8A0F5004000B2044B1B68044A1460184410BD00BF80E100E0AC88FF1F00E100E090
:4037000038B505462024054B1C604FF4004000F081F8034B1D60034B1C6038BD80E100E0AC88FF1F00E100E0024B187800F00F00704700BF6364004040F00700014B187013
:40374000704700BF8364004008B50F20FFF7F4FFFFF7EAFFFFF704FB054A137843F010031370FFF701FB2022024B1A6008BD00BF9364004000E100E008B500F0A3F84FF45E
:40378000004000F047F80022064B1A60064B1B7823B9FFF78DFF0122034B1A70FFF7D4FF08BD00BFAC88FF1FA988FF1F0D4B1B78DBB213F0010F06D00B490A6802F5FF4223
:4037C0007F320A6007E013F0020F04D006490A68A2F500420A6013F0040F02D00022024B1A60704763640040AC88FF1F024A137843F08003137070477D640040014B18703E
:40380000704700BF8B640040014B1878704700BF6B640040014B1880704700BF10680040024B1B78024B188880B270470864004090680040014B188880B2704790680040C9
:40384000014B1880704700BF50680040014B1880704700BF7068004008B501E0FFF7EAFFFFF7D2FF10F0400FF8D108BD08B5134B1A7802F0F8021A701A7802F0FC021A7034
:40388000FFF7EAFF4FF40040FFF7DAFF4FF40040FFF7C0FF0020FFF7B1FFFFF7B5FF4FF40040FFF7D3FFFFF75BFA054A137843F010031370FFF758FA08BD00BF7D64004009
:4038C0009B64004008B5054B1B7823B9FFF7CEFF0122024B1A70FFF789FF08BDB088FF1FF8B5FFF73DFA0546404A137843F0010313701032137843F00103137001273C4B8D
:403900001F700226943B1E7002F5E2521B32137803F07F0313700020FFF742FA354C237803F0F9032370344A137803F0DF03137023783B4323703846FFF732FA2820FFF79D
:403940002FFA2E4B1A7802F07F021A701A7802F0BF021A702378334323703046FFF720FA237843F0040323700023254A1370013213702846FFF7F8F917200721FFF742FA04
:4039800017202049FFF72AFA18200721FFF73AFA18201D49FFF722FA15200721FFF732FA15201A49FFF71AFA08200721FFF72AFA08201749FFF712FA09200721FFF722FA9B
:4039C00009201449FFF70AFA0A200721FFF71AFA0A201149FFF702FA0C200721FFF712FA0C200E49FFF7FAF9F8BD00BFA54300409D6000409443004012600040F851004088
:403A00008460004005450000D5420000014500004944000081440000BD4400009547000010B5002304E00124254AD4542344DBB2012BF8D9234B18700023234A1370234A9D
:403A40001370234A1370234A1370234A1370234A1370234A1370234B4FF400021A604FF080721A604FF400121A604FF480721A604FF400721A604FF480621A6011B1012903
:403A800006D00BE0184A137803F0FE0313700AE0154A137843F00103137004E0124A137843F0010313700322104B1A708022203B1A700120FFF74CF904220D4B1A7010BD0C
:403AC000948AFF1FF989FF1FFC89FF1F188AFF1F1B8AFF1F108AFF1F1A8AFF1F1D8AFF1FF889FF1F00E100E009600040286000401260004038B505460C46064B1B7823B9B8
:403B0000FFF7EEFE0122034B1A7028462146FFF787FF38BDB188FF1F002304E001210E4AD1540B44DBB2012BF8D900230B4A13700B4A13700B4A13700B4A13700B4A137031
:403B40000B4A13700B4A137003220B4B1A708022203B1A70704700BF948AFF1FFC89FF1F188AFF1F1B8AFF1F108AFF1F1A8AFF1F1D8AFF1FF889FF1F28600040014B1878AF
:403B8000704700BF1B8AFF1F064B1B7813F0FF0F05D0044B1878C0B200221A7070470020704700BF188AFF1F00EB40008000024B18444078704700BF208AFF1F431EDBB2C0
:403BC000072B0BD8064B00011A18185C00F00F00537843EA0020023880B2704700207047FC5F0040431EDBB2072B3BD8F0B4074600EB40039B001C4C2344DB889BB2C3F5E8
:403C000000739A4207D900EB40039B002344DA88C2F5007292B200EB40039B00124C2344DB7843EA1223114D04012E192B55D3B2737039B909E0CE5C3D010D4C66550133F6
:403C40009BB200E000239342F5D3430003449B00054A134400225A705A79D2B20001054B1A54F0BC704700BF208AFF1FFC5F004078600040FE5F0040431EDBB2072B0BD84D
:403C8000430003449B00054A134400225A705A79D2B20001024B1A54704700BF208AFF1FFE5F004070B5D9B1054614460E46C8B1082819D8FFF782FFA04203D22846FFF78B
:403CC0007DFF0446002305E02901094A525CF25401339BB2A342F7D32846FFF7CDFF04E0002402E0002400E00024204670BD00BF786000400246002001E0013080B2135C8E
:403D0000002BFAD1704700BF10B4FF2400220EE00A4B9B5C03EB43039B0009490B449B78DBB2834201D1144602220132D2B2012AEED920465DF8044B704700BFE889FF1FF7
:403D4000288AFF1F10B5204C2079FFF7DDFF237813F0800F0ED06378DBB2212B2FD11B4B07221A80C0EBC000194A1044586000F01FFB10BD144B5B78DBB2202B02D0222B15
:403D800010D01EE0114A07231380C0EBC00310490B4453600F4A135C43F00103135400F02FFB10BD084B9B780B4A22F81030094A135C43F00203135400F0BAF910BD0020F1
:403DC00010BD002010BD00BF00600040048AFF1F8C82FF1FE089FF1FF489FF1F10B500241F4B1C701F4B1C705C700AE01E4B185DC0B2431EDBB2072B01D8FFF73DFF013475
:403E0000E4B2012CF2D9194B1B7813F0FF0F1AD0154B1B7813F0FF0F17D0154B1B7813F0FF0F14D0114B1B78DBB2082B11D80E4B1B78DBB2082B0ED80D4B1B78DBB2082B5A
:403E40000BD8002010BD012010BD012010BD012010BD012010BD012010BD012010BD00BFB288FF1FE089FF1FEC89FF1FE489FF1FE889FF1F2DE9F8438046224B1B78224A10
:403E8000D65CF6B2FFF736FF05460027344606EB46039B001D4A13441B899BB2AB4208D206EB46039B001344B3F808901FFA89F900E0A946304608EB07014A46FFF792FE66
:403EC000C9EB0505ADB245B906EB46039B000F4A13441B899BB2994510D14F44BFB204EB44039B00094A13445B7813F0FF0FF6D025B9304600210A46FFF774FE002DC5D159
:403F0000BDE8F883B288FF1FE489FF1F208AFF1F00B583B002A901F8010D054B1B78054AD05C0122FFF75EFE03B05DF804FB00BFB288FF1FE489FF1F08B5034B1B78034AB5
:403F4000D05CFFF731FE08BDB288FF1FEC89FF1F08B5034B1B78034AD05CFFF725FE08BDB288FF1FE489FF1F00B583B0064B1B78064AD05C0DF107010122FFF793FE9DF8DB
:403F8000070003B05DF804FBB288FF1FEC89FF1FC37803F0030390F9020000280FDA032B06D002F001030B48C15442F001020EE0C2F380030848C15442F0040207E0032BC9
:403FC00005D0C2F340030548C15442F002021046704700BFE489FF1FE889FF1FEC89FF1F1C4B19781C4A13880B449BB2138000230EE01A4A51680978C9B21948C154516862
:40400000013151600133DBB21188013989B21180124A128892B20AB1072BEAD90D4A1278D2B2082A00D05BB10E490A7882F080020A700F210C4A117002210C4A117004E0B4
:40404000022209490A7009490A70094A1370014A13707047F889FF1FFA89FF1F048AFF1F006000408E8AFF1F198AFF1FFC89FF1F1C8AFF1F0222074B1A708022064B1A70C2
:404080000F22064B1A700023054A1370054A137001207047FC89FF1F8E8AFF1F198AFF1FF889FF1F1C8AFF1F08B5FFF799FF08BD10B4184B197801F00F010239C9B2164A79
:4040C00013880B449BB21380002010E0134B5C68134A125CD2B222705A6801325A600130C0B20139C9B21A88013A92B21A800B4B1B889BB20BB10029E8D10A4B19700A4A0B
:40410000137883F0800313700B22084B1A705DF8044B704729600040FA89FF1F048AFF1F006000401C8AFF1F8E8AFF1F198AFF1F0623064A1370064A13708022054B1A705A
:404140000022054B1A700120704700BFFC89FF1F198AFF1F8E8AFF1F1C8AFF1F064B9B6843B1054B9A6810709A6804490988518000229A60704700BF048AFF1FFA89FF1FA4
:4041800008B5134B1A78D2B21A701B78DBB213F0800F02D00F4A137008BD0220FFF7DEFF0D4B1B7803F06003202B05D0402B06D043B900F0D5FD06E001F05CF903E000F0CB
:4041C0007DFF00E0002010B90322024B1A7008BD28600040198AFF1F0060004008B5084B1978084A13880B449BB213800022064B1A700120FFF7B2FF0322044B1A7008BD4B
:40420000F889FF1FFA89FF1FFC89FF1F198AFF1F08B50B4B1B78DBB2042B06D0062B07D0022B0BD1FFF7DAFF08BDFFF741FF08BD0320FFF793FF0322024B1A7008BD00BFD7
:40424000FC89FF1F198AFF1F08B50022044B1A700120FFF783FF0322024B1A7008BD00BFFC89FF1F198AFF1F08B50B4B1B7813F0FF0F07D0084A137843F0800307490B70B9
:40428000002313700022064B1A700120FFF766FF0322044B1A7008BD1A8AFF1F08600040FC89FF1F198AFF1F08B5094B1B78DBB2042B06D0062B07D0022B07D1FFF7F4FE23
:4042C00008BDFFF7C1FF08BDFFF7CEFF08BD00BFFC89FF1F08B5284B1B78DBB213F0100F48D013F0800F0CD003F00F03012B16D1FFF746FF214B1B7813F0800F11D10123B2
:4043000012E013F0400F03D0FFF7CEFF01230BE013F0200F07D0FFF77BFF012304E0002302E0002300E0002323B3134B1B7813F0800F1FD1124B1B78124A12781343124A17
:4043400013701278D2B29A4214D10C4B1B78DBB2094A127812F0800F07D1084B1B78DBB2054A1370137803F00F03044A1278D2B29342EAD108BD00BF28600040198AFF1F60
:404380008E8AFF1F1C8AFF1F296000400022064B1A80064B9B682BB1044A916800230B7092685380704700BFFA89FF1F048AFF1F08B50F4B1B889BB213B9FFF75BFE15E071
:4043C00002220C4B1A7000220B4B1A70FFF7DEFF0A4AD179937943EA0123054A128892B29A4201D9024A1380FFF7FAFD012008BD048AFF1FFC89FF1F8E8AFF1F006000402E
:4044000008B504220B4B1A7080220B4B1A70FFF7BDFF0A4AD179937943EA0123084A128892B29A4201D9064A13800B22054B1A70012008BDFC89FF1F8E8AFF1F006000405B
:40444000048AFF1F198AFF1F0A4A137803F0FE031370094B9B7C094B1B7B03F00303012B04D0064AD37B83F08003D3730122034B5A7370470B600040FC5F0040208AFF1F4E
:404480000B4A137803F0FD0313700A4B93F82230094B1B7E03F00303012B04D0064AD37E83F08003D3760122034B5A76704700BF0B600040FC5F0040208AFF1F0D4A137807
:4044C00003F0FB0313700C4B93F832300B4B93F8243003F00303012B06D0084A92F8273083F0800382F827300122044B83F82520704700BF0B600040FC5F0040208AFF1F24
:40450000704700BF08B5FFF707FB08BD08B50B4B18780138C0B200F0C9F9094B1B79DBB200EBC30042690749CB5C02EBC3035B68596A0B78044A1380516008BD1B8AFF1F70
:40454000006000408C8AFF1F048AFF1F08B50D4B18780138C0B200F0A9F90B4B1B79DBB200EBC30042690949CB5C02EBC3035B68DB69597813F8022B42EA012204490A80A7
:404580004B6008BD1B8AFF1F006000408C8AFF1F048AFF1F10B50022194B1A80194B18780138C0B200F082F91749CB78DAB20B79DBB200EBC3004169012B20D81348C35C23
:4045C00001EBC3014968531EDBB2022B17D802F10053013B01EBC3000B4A9278D2B211F8333093420BD3406802EB4202920081184C68034B5C60825A1A808A689A6010BD1C
:40460000048AFF1F1B8AFF1F006000408C8AFF1F08B55B4B1A79D2B21B7813F0800F4DD0574B5B78013B052B00F28D80DFE803F0212B3B8B8B03524BDB78DBB2212B09D19E
:40464000FFF764FF4F4B1B889BB2002B7DD0FFF7AFFE08BD4A4BDB78DBB2222B77D1FFF775FF484B1B889BB2002B72D0FFF7A0FE08BDFFF78FFF434B1B889BB2002B6AD053
:40468000FFF796FE08BD012A67D83D4B9B7813F0FF0F64D13B4901230B803B4B1A444A60FFF786FE08BD012A5BD8364901230B80364B1A444A60FFF77BFE08BD304B5B78C9
:4046C000DBB20A2B0DD00B2B2ED0092B4BD1FFF761FF2C4B1B889BB2002B46D0FFF790FE08BD012A43D8264B9B7813F0FF0F40D1234BDB78DBB224498B548B5C2449895C91
:40470000DBB28B4203D20021214B995409E0204B9B5CDBB2012B04D91B4B9B5CDBB21C498B54FFF705FD08BD012A24D8144B9B78DBB2012B21D8124B9B78DBB213498B5481
:40474000FFF7F6FC08BD002008BD002008BD002008BD002008BD002008BD002008BD002008BD002008BD002008BD002008BD002008BD002008BD002008BD002008BD00BF47
:4047800000600040048AFF1F9C8AFF1F948AFF1F988AFF1F08B500F0AFFC08BD70B588B0054603AC174E0FCE0FC43368237035B322232B7003236B7001A8FEF7D3FB0024DD
:4047C00002231AE008AA224412F81C2C08A901EB121111F8141CE954581C00212954981C02F00F0208AE324412F8142C2A54DA1CA9540134E4B20433DBB2212BE2D908B0FC
:4048000070BD00BF70D4000010B401223DE0114613010C242148C45402EB42039B00204803445B7913F0FF0F12D002EB42039B0003441B7913F0800F04D01001194B03441B
:404840009C700AE01001174B03440820987004E01001144B0344802098704B000B449B000F480344DC88E4B208010C4901448C71D888C0F30720C871D888C0B20871DB8887
:40488000C3F307234B710132D2B2082ABFD9FF22054B1A705DF8044B704700BF70600040208AFF1FFC5F00400A600040074B1B78074A02EBC30253681A7C824203D903EBE2
:4048C000C003586970470020704700BFF989FF1FC0D40000F8B5404B1B7813F0FF0F79D03D4B18780138C0B2FFF7E0FF047AC2683A4B1878C0B200236AE01178814264D1D9
:404900003749095CC9B25578A9425ED1917801F07F01D67806F00306DFF8C8E04D000D44AD000EEB05074FF0000C87F803C092F802C087F804C092F803C00EF805C0958849
:404940003D8192F90250002D0DDA012E01D1072700E00D274D000D44AD00224E35446F7101266E700CE0012E01D1052700E009274D000D44AD001B4E35446F7100266E70F2
:40498000DFF868E00F010EEB07060125B57001FA05F529448900134D29440D89C5F307250EF807500D89EDB27570CE88F6B20E4D3D44AE71CE88C6F30726EE71CE88F6B23C
:4049C0002E71C988C1F30721697108320133DBB2A34292D3F8BD00BF1B8AFF1F108AFF1F8C8AFF1F208AFF1F70600040FC5F0040034B1A78034B03EBC2035868704700BF1F
:404A0000F989FF1FC0D4000008B5074B18780138C0B2FFF74BFF28B14268127900EBC203586908BD002008BD1B8AFF1F2DE9F84300220EE06D4E53009D18AD00741900214D
:404A40007155A170E1702181A172617061710132D2B2082AEED940B90AE000226449CA546449CA540133DBB200E00023012BF4D9614B1B7813F0FF0F00F0B5805E4B187800
:404A80000138C0B2FFF712FF80464368DB7913F0400F05D0594A137843F00103137004E0564A137803F0FE03137098F808704FF0000901266CE0D8F80C50002464E0AB7870
:404AC00003F07F039E425CD1314606EB46039B00464803441B899BB2A888834205D206EB46039B00414A134418812B784048C35CDBB26878834244D195F802C03B484B0058
:404B00000B449B0000EB030E8EF804C095F803E000F803E0EB7803F0030395F90200002811DA012B02D14FF0070C01E04FF00D0CDFF8B8E04B0058188000704480F805C0D6
:404B40000123437012E0012B02D14FF0050C01E04FF0090C25484FEA410E0EEB01039B00034483F805C0194600234B70AB790A2B01D0022B05D1284631464A46FFF708FAFD
:404B8000814608350134E4B2BC4298D30136F6B2082E90D9D8F80C0000220CE0837803F07F0310F8084B03EB43039B0014490B449C700132D2B2BA42F0D3FFF725FF114B17
:404BC0001860002001220AE0084C5300991889002144C8800B89184480B20132D2B2082AF2D9FFF711FEBDE8F88300BF208AFF1F8C8AFF1F008AFF1F1B8AFF1F1D8AFF1F9C
:404C0000288AFF1F148AFF1F08B5154B1A7902F07F02531EDBB2072B20D8530013449B0010490B44997841F0010199700021D970597841F0020159701B7913F0800F05D030
:404C40001201094B13448D229A7004E01201064B134489229A70FFF76BFA08BD002008BD00600040208AFF1FFC5F0040264B1B7903F07F035A1ED2B2072A43D810B55A0080
:404C80001A44920021490A44917801F0FE0191700021D17019017F241D484454517801F0FD015170127912F0800F14D003EB4302920016490A445278D2B2012A05D11B01E0
:404CC00002461A440C23937019E01B01104A1A440D23937013E003EB430292000B490A445278D2B2012A05D11B01094A1A440823937004E01B01064A1A4409239370FFF765
:404D000017FA10BD0020704700600040208AFF1FFC5F004010B50E4B1C79E4B20D4B18780138C0B2FFF7C2FD43681B799C4201D9022C0AD8084A135DDBB208490B55044BD4
:404D40009B78DBB21355012010BD002010BD00BF006000401B8AFF1F8C8AFF1F008AFF1F10B5964B1B78DBB20021954A118013F0800F00F0B380914A5278D2B20A2A00F2F7
:404D80007981DFE812F06F00770177017701770177010B00770198007701A000874BDB78DBB2012B09D1FFF723FE4268844B5A6012221A80FFF7FCFA10BD804BDB78DBB202
:404DC000022B13D17D4B9878FFF770FD002800F0538142687A4B5A605A68D1785A68927842EA01221A80FFF7E3FA10BD734BDB78DBB2032B05D032E00A7811440133DBB2A7
:404E000001E000236F496D4A9278D2B29A4203D90A7812F0FF0FEFD1684B9B78DBB2EE2B00D16949654B9B7813F0FF0F0BD0634B9B78DBB2654A127C934204D1644C20467E
:404E4000FFF7ACFC21460B7813F0FF0F00F016810B785B4A13805160FFF7AAFA10BD00F009FB10BD13F0030317D0022B40F0088153490B80514B1B7903F07F0303EB4303A8
:404E80009B00544A13449A78D2B2534B1A7000225A704B60FFF78CFA10BD494902230B804E4B1A78D2B24C4B1A7000225A704B60FFF77EFA10BD424B01221A80484A5A604A
:404EC000FFF776FA10BD3E4A012313803B4B1B7944490B445360FFF76BFA10BD374A5278013A0A2A00F2CE80DFE812F04B00CC009700CC000B00CC00CC00CC001300CC00E4
:404F000030002E4B9B78DBB2374A1370FFF710F910BD2A4B9B7803F0FF041BB1601EC0B2FFF7C4FC04B110B9002C40F0AD802C4B1B78DBB29C4206D0294B1C7001202B4B7F
:404F40001870FFF773FDFFF7F3F810BDFFF7E2FE002800F09B80194A1379DBB21279D2B223490A70234AD25C1E49C95CD3B28B4204D001221D4B1A70FFF7ACFCFFF7D8F855
:404F800010BD03F00303012B36D04BB1022B7FD10A4B9B7813F0FF0F7CD1FFF767FE10BD064B9B78DBB2012B76D10C4A137803F0FD031370FFF7BCF810BD00BF0060004001
:404FC000048AFF1F60D50000ACD4000044D60000A48AFF1F208AFF1FB488FF1F1D8AFF1F1B8AFF1F8C8AFF1F1A8AFF1F188AFF1F108AFF1F008AFF1F2D4B1B79DBB2012B65
:405000004CD82B4B98781B79DBB22A49CA5C22EA0002CA54FFF78CF810BD03F00303012B17D04BB1022B3BD1214B9B7813F0FF0F38D1FFF7E9FD10BD1D4B9B78DBB2012BE2
:4050400032D11D4A137843F002031370FFF770F810BD174B1B79DBB2012B27D8144B98781B79DBB21349CA5C22EA0002CA54FFF75FF810BD002010BD002010BD002010BD88
:40508000002010BD002010BD002010BD002010BD002010BD002010BD002010BD002010BD002010BD002010BD002010BD002010BD00600040908AFF1F1D8AFF1F08B50B4B24
:4050C0001B7813F0800F0CD0084B5B78DBB2012B09D1074B074A5A6012781A80FFF768F908BD002008BD002008BD00BF00600040048AFF1F84D40000024B1878C0F380100C
:40510000704700BF8F45004010B500F087F800F05BF9D0B900F09AF90446072812D102E00120FDF73DFE0A4B1B7813F0020FF7D0074B1B7813F0020F04D0054B1B789B08BD
:4051400000D1002400F066F900E00424204610BD2247004010B500F061F800F035F910BB012000F013F9072818D11048022100F067F802280AD102E00120FDF711FE0C4BAF
:405180001B7813F0020FF7D0002409E0084B1B7813F0020FE9D04FF0FF3401E04FF0FF3400F038F900E00424204610BDA08AFF1F2247004008B5FFF7A7FF034610B9FFF74E
:4051C000C9FF0346184608BD08B5FDF7C9FD0F4A137843F0080313701032137843F008031370C8220A4B1A700A4A137843F0100313701032137843F010031370064B1B78E6
:4052000013F0200FFAD0FDF7AFFD08BDA043004001470040AC4300400047004008B5FDF79FFD064A137843F0080313701032137843F008031370FDF797FD08BDA0430040C5
:4052400070B506460D4600240CE00120FDF7A8FD064B1B7813F0010FF7D0054B1B7833550134E4B2AC42F3D3204670BD224700402047004030B43E2801D81F2B03D93F2865
:4052800027D90F2B27D8174C247814F0020F24D0154CB6252570D4252570012525700234247814F0020F1AD10F4C2070C1F300202070C9B22170591EC9B22170002104E0DE
:4052C000545C094804700131C9B29942F8D3072006E0012004E0012002E0042000E0092030BC70472247004020470040124B1B7813F0020F19D010B4104BB6241C70D52446
:405300001C7002241C7002331B7813F0020F0ED10A4B1870002304E0CC5C0848047001339BB29342F8D3072002E00420704709205DF8044B704700BF22470040204700400C
:4053400030B4104C247814F0020F15D00E4CB6252570D8252570052525700234247814F0020F0BD1084C2070080A2070C9B2217022702370072002E0042000E0092030BCA0
:40538000704700BF22470040204700400C4B1B7813F0020F0FD00B4BB6221A70E1221A700E221A7002331B7813F0020F05D1054B187007207047042070470920704700BF69
:4053C000224700402047004010B5FDF7C9FC0F4B1B78A3B901220D4B1A700D4B1B6813F0010F0ED00A4A136823F00103136000BF00BF00BF0122054B5A60002402E00424D4
:4054000000E00024FDF7B0FC204610BDB888FF1F0400084008B5FDF7A3FC0A4B00221A705B68012B0AD1084A136843F00103136000BF00BF00BF0022024B5A60FDF794FC6F
:4054400008BD00BFB888FF1F04000840074B1B7813F0020F08D0064BB6221A70E0221A700D221A700720704704207047224700402047004008B5144B1B7803F00303012B58
:4054800002D0022B04D00FE00F4B1B79DBB20CE00D4B1B7903F07F0303EB43039B000B4A13449B78DBB200E00023094A1268D35C022B04D0032B05D1FFF7AAF808BDFEF7F1
:4054C00041FC08BD002008BD00600040288AFF1F148AFF1F30B5214A21F00043934287B01BDD1F4A934205DD02460B4602F040FA07B030BD02AA00F09FFF00F00300012812
:405500001AD002280FD008B3DDE9020101230093DDE9042301F094FFEAE70022002301F067FA07B030BDDDE90201DDE9042301F05FFA01F10041DBE70090DDE90423DDE988
:40554000020101F07DFF01F10041D1E7DDE90201DDE9042301F04CFACAE700BFFB21E93FFFFFEF7F30B5224A21F00043934287B01BDD204A934205DD02460B4602F0F8F97D
:4055800007B030BD02AA00F057FF00F0030001281ED0022811D010B3DDE90201DDE9042301F026FA01F10041EAE7002300930022002301F045FF07B030BD01230093DDE961
:4055C0000201DDE9042301F03BFF01F10041D7E7DDE90201DDE9042301F00AFAD0E70124DDE90201DDE90423009401F029FFC7E7FB21E93FFFFFEF7F2DE9F04F8BB01F4662
:4056000080468946164600F0C7F9DFF8D8A204469AF900300D46013304D03046394602F05FF820B9204629460BB0BDE8F08F4046494602F055F8834660BB304639460022F6
:40564000002302F0B1FD0028ECD09AF900309E4C01229E4900208DE814005A1CCDF820B0CDE90289CDE90467CDE906010DD0022B0BD0684602F060F8002800F09380089B4E
:405680001BB103F075F9089B0360DDE906010BB0BDE8F08F404649460022002302F084FDF8B1304639460022002302F07DFD834600284ED084489AF90030012100220024E9
:4056C0000025CDE90289CDE90467CDE90645019000910892002BCCD07C4B0022CDE90623D3E72046294601F067FF834600285ED0204629460022002302F056FD002891D0EA
:405700004046494601F058FF00288BD03046394601F052FF002885D09AF900306A480421002200240025022BCDE90289CDE90467CDE9064501900091089200F088806846DE
:4057400001F0FAFF002800F08280089B002B9CD097E73046394601F02FFF00283FF462AF304639460022002302F028FD00283FF459AF55499AF800300122CDF820B0CDE96B
:405780000289CDE9046701910092002B3CD050490020022BCDE9060130D103F0E9F821230360D2E703F0E4F82123036067E74046494601F001FF00289AD03046394601F0C8
:4057C000FBFE002894D02046294601F089FF00BB3D4A9AF8004001230890CDE90289CDE90467019200937CB10020002102460B4602F09CFB022CCDE90601CED0684601F0C6
:405800009BFF0028A1D1C8E700220023CDE90623F4E72D499AF900300322CDF820B0CDE90289CDE9046701910092ABB9294D4FF060444046494600220023CDE9064502F003
:40584000BDFC50BB9AF90030022B7FF478AF03F08FF82223036078E71F4D00244046494600220023CDE9064502F0A8FC0028E9D000221A4B3046394602F02EFA04460D46C4
:4058800001F062FF22462B4602F08EFC0028D9D10F4B0022CDE90623D4E700220F4B3046394602F019FA04460D4601F04DFF22462B4602F079FC0028C4D1094B4FF06042D7
:4058C000CDE90623BEE700BF58D600000000F03F0000F0FFFFFFEF470000F07F0000E03FFFFFEFC7A882FF1F2DE9F0478AB006460F4600F0B5FFDFF898A004469AF9003073
:405900000D4601330FD03046394601F0E9FE50B14FF000084FF000093046394642464B4602F04CFC20B9204629460AB0BDE8F08716499AF8004001220023CDE90467CDE98A
:40594000026701910092089364B9CDE90689684601F0F2FE80B1089B9BB9DDE906010AB0BDE8F0874046494642464B4602F0DEFA022CCDE90601EAD102F0FAFF2123036013
:40598000E9E702F0F5FF089B0360E6E75CD60000A882FF1F000000002DE9F04F144623F00047024657EA04000E468FB01D469C46214634D06E4B26F0004A9A459346B14643
:4059C00026DC24D09F4223DC694B9F4200F08F80B9F1000FC0F28F804FF0000879BB644B9F4200F0A580634B9F4267D0BCF1804F00F0E283604B9C4521D1B9F1000F1EDBDC
:405A0000104631460FB0BDE8F04F00F029BF62B10AF1404000F5801050EA0B0007D10346544918460FB0BDE8F08F5745CCDD53480FB0BDE8F04F01F081BE4FF00008104677
:405A40003146CDF808C0009201F0B2FD009ADDF808C0BBF1000F20D04FEAD97909F1FF3958EA09037AD0464B9F4240F38F8003F104739F4240F31084424B9A4540F392833E
:405A8000BCF1000F40F3928337A1D1E900010B46024602F021F90346C3E7BAF1000F04D0344B29F0404E9E45D6D1BCF1000FC0F2B683B9F1000F08DB0346B2E7BCF1000F98
:405AC000C0F2528413463146ABE70AF1404A0AF5801A58EA0A0340F05E8402460B4601F047FF0B46024602F021FA034699E700293FF46EAF8CE7244B9F422CDCA3F154735F
:405B00009F427FF769AF40F213403B15834240F34B84C3F58663033321FA03F000FA03F38B427FF459AF00F00100C0F1020855E70AF1404303F5801353EA0B0300F0398355
:405B4000104B9A4540F36483BCF1000FC0F22E832346294665E74FF002083FE7104631463346BCE7AFF300809C7500883CE4377E0000F07F0000F03F0000E03FFCCE00001F
:405B80000000E041FFFFEF3FFFFF3F43BAF5801F4FF0000205DACA4B02F09EF88A466FF034024FEA2A53C74ECAF3130AA3F2FF334AF07F571344B2450C9347F4401740F37A
:405BC000D083C14B9A4540F307840026B4460C9BA7F5801701330C933946BC4B4FEACC0C6344D3E900AB52465B46CDF834C0CDE9060101F0BDFE52465B46CDE90801DDE91E
:405C0000060101F0B7FE02460B460020B04902F08DF902460B46DDE90801CDE90A2302F05BF802460B46CDE90223CDE904237B1043F0005303F5002399190020002306463F
:405C40000F460293DDE902231046194632463B46CDE9000102F040F802460B46DDE9080101F086FE5246CDE908015B463046394601F07EFE02460B46DDE9060101F078FEBC
:405C800002460B46DDE9000102F026F802460B46DDE9080101F06CFEDDE90A2302F01CF8DDE90423CDE906011046194602F014F802460B4606460F4602F00EF86EA3D3E95C
:405CC000002382468B463046394602F005F86CA3D3E9002301F04EFE32463B4601F0FCFF69A3D3E9002301F045FE32463B4601F0F3FF67A3D3E9002301F03CFE32463B46EC
:405D000001F0EAFF64A3D3E9002301F033FE32463B4601F0E1FF62A3D3E9002301F02AFE02460B465046594601F0D6FFDDE9042306460F46DDE9000101F01CFEDDE90623D7
:405D400001F0CAFF32463B4601F014FEDDE9006782468B4632463B463046394601F0BCFF00225C4BCDE9080101F004FE52465B4601F000FE02980F460646DDE900013246F0
:405D80003B4601F0A9FF32463B46CDE90001DDE9060101F0A1FF0022CDE906014D4B3046394601F0E5FDDDE9082301F0E1FD02460B465046594601F0DBFDDDE9042301F047
:405DC0008BFF02460B46DDE9060101F0D3FD82468B46DDE9000152465B4601F0CBFD32A3D3E9002302980F46064601F075FF30A3D3E90023CDE904013046394601F06CFF8E
:405E0000DDE90023CDE906013046394601F0B0FD02460B465046594601F0AAFD26A3D3E9002301F059FF02460B46DDE9060101F0A1FDDDF834C0284BCDF818C06344D3E9A1
:405E4000002301F097FDCDE900010C9801F0DEFE06460F46DDE90401204BDDF818C09C44DDE90023DCE900AB01F084FD52465B4636E000BFAFF30080EF4E454A287ECA3F78
:405E800065DBC9934A86CD3F01411DA96074D13F4D268F515555D53FFFAB6FDBB66DDB3F033333333333E33F000000E009C7EE3FF5015B14E02F3EBEFD033ADC09C7EE3FB8
:405EC000000040438E98030079B60B0088D600000000F03F0000084078D6000068D60000CDE906AB01F046FD32463B4601F042FD029832463B4682468B4601F039FDDDE97E
:405F0000062301F035FDDDE9042301F031FD02460B46DDE9000101F02BFDCDE9020108F1FF3858EA09030CBFD54BD64B0022CDE904230023CDE900450093DDE9006720460A
:405F400032463B46294601F013FD52465B4601F0C3FEDDE90223804689462046294601F0BBFE02460B464046494601F003FD04460D465246304639465B46CDE9024501F076
:405F8000ABFE06460F4620463B462946324601F0F1FCBD4B824699428946884640F3138101F13F4303F5E003034340F0E581A0A3D3E90023DDE9020101F0DCFC324604463B
:405FC0000D463B465046494601F0D2FC02460B462046294602F010F9002840F0CD814C462015A0F2FE304FF4801101414144C1F30A50A64CA0F2FF35C1F3130BC0F5826089
:4060000003302C414BF4801B21EA040300224BFA00FB3946304601F0ABFC06460F46DDE902018BEAE87B0BEBD87B32463B464FEA0B5A01F09FFC80A3D3E9002300242046AB
:406040000D4601F049FE3246804689463B462046294601F08DFC02460B46DDE9020101F087FC77A3D3E9002301F036FE76A3D3E9002306460F462046294601F02DFE0246F2
:406080000B463046394601F075FC06460F4632463B464046494601F06DFC42464B4604460D4601F065FC02460B463046394601F05FFC2246804689462B462046294601F019
:4060C0000BFE63A3D3E9002306460F4601F004FE61A3D3E9002301F04BFC32463B4601F0FBFD5FA3D3E9002301F044FC32463B4601F0F2FD5CA3D3E9002301F039FC3246BA
:406100003B4601F0E9FD5AA3D3E9002301F032FC32463B4601F0E0FD02460B462046294601F026FC06460F4632463B462046294601F0D2FD0022CDE900014FF08043304644
:40614000394601F015FC02460B46DDE9000101F0EDFE424606460F464B462046294601F0BBFD42464B4601F005FC02460B463046394601F0FDFB22462B4601F0F9FB0246A2
:406180000B4600203F4901F0F3FB8A44BAF5801F0246C0F227815346DDE9040101F09CFD03463EE4BCF1000FFFF66EAC0023194637E40B46334934E433461046314601F06C
:4061C0008BFD03462DE4324B21F000449C4240F3FA80304B0B4403430CD132463B4601F0C7FB02460B46DDE9020101F0F1FF00283FF4F6AE20A3D3E90023DDE9040101F027
:406200006BFD1DA3D3E9002301F066FD034608E4BCF1000FCADA234605F1004101E402460B460020174901F081FE42E4AFF30080FE822B654715973C00000000432EE63F43
:40624000EF39FAFE422EE63F396CA80C615C20BED0A4BE726937663EF16BD2C541BDBB3E2CDE25AF6A56113F93BDBE166CC1663F3E5555555555C53F59F3F8C21F6EA5019B
:406280000000F0BF0000F03FFFFF8F40FFFF0F00FFCB904000346F3F634B9A4582DD634B9A453FF7EDAB0022604B01F061FB54A3D3E9002306460F4601F00EFD52A3D3E925
:4062C0000023CDE900013046394601F005FD3246CDE902013B463046394601F0FDFC002282468B4630463946514B01F0F5FC02460B4647A1D1E9000101F03AFB32463B46C2
:4063000001F0EAFC02460B4600204A4901F030FB02460B465046594601F0DEFC3EA3D3E9002301F0D9FC02460B46DDE9020101F01FFB06460F46DDE9000132463B4601F040
:4063400019FBDDE90023002082468B4601F010FB02460B463046394601F00AFBCDE90201DDE50026B44637E4334600202F4901F0DDFD0346FFF755BB29A3D3E90023DDE995
:40638000040101F0A9FC26A3D3E9002301F0A4FC0346FFF746BBB8F1010F03467FF441AB01F10041FFF73DBB00297FF446ABC3F58263033347FA03F000FA03F3BB4217D0DF
:4063C0008846FFF710BB1B4B9C423FF709AEDDE90023924693462EE64FF480264FF0010CFFF7FABB5A4601F03FFA02460B46D3E600F00100C0F10208FFF7F5BAAFF30080C0
:40640000000000604715F73F44DF5DF80BAE543E555555555555D53FFE822B654715F73F9C7500883CE4377EFEFFEF3F0000F03F0000D03F0000E03F2DE9F04F924C21F0B9
:406440000047A7428FB00E467FDD14468F4A974226DC83A3D3E90023002940F39D8101F087FA8B4B80469F42894600F083807EA3D3E9002301F07CFA02460B464046C4E98C
:406480000023494601F074FA77A3D3E9002301F06FFA0125C4E9020128460FB0BDE8F08F7C4A974240F383807B4A974258DC3D15A5F21645A7EB05518B46824601F0A6FE50
:4064C00001F0A4FB8046894642464B4650465946CDE9088901F04CFA0022704B01F0FCFB8B46824601F092FE01F090FB8046894642464B4650465946CDE90A8901F038FA01
:406500000022664B01F0E8FB00220023CDE90C0101F04AFE002800F06781002340464946002201F041FE002814BF012302235C480221019000912A4608A8214600F07CFBCE
:40654000002EC0F24781054606E0C2E9000100250024C2E90245002528460FB0BDE8F08F02460B4601F004FA0025C4E90201C4E90001F1E73EA3D3E9002301F0F9F93EA37E
:40658000D3E9002306460F4601F0F2F902460B463046C4E90023394601F0EAF936A3D3E9002301F0E5F90125C4E90201D4E700F0FFFF33A3D3E900238046894601F08CFB85
:4065C0000022384B01F0D6F901F020FE054601F01DFB23A3D3E90023CDE9040101F07CFB02460B464046494601F0C2F91EA3D3E9002382468B46DDE9040101F06DFB1F2D08
:40660000CDE902015046594650DC274B6A1E53F82230BB424AD0DDE9022301F0A9F902460B4681468846C4E900234A4643465046594601F09DF9DDE9022301F099F902468B
:406640000B46002EC4E9022386DA4A4608F1004301F1004184E80C00E160A0606D427BE700004054FB21F93F3163621A61B4D03D0000601A61B4D03D7370032E8A19A33B55
:4066800083C8C96D305FE43FFB21E93F7BD90240FB21F93FFB213941FFFFEF7F0000704118D700000000E03F98D60000DDE9022301F05EF988463F15C8F30A53FB1A102B8D
:4066C0008146C4E90001B0DD59A3D3E90023DDE9040101F001FB8046894642464B465046594601F045F9CDE90601DDE906235046594601F03DF942464B4601F039F94EA3BE
:40670000D3E9002380468946DDE9040101F0E4FA42464B4601F02CF9CDE90201DDE90223DDE9060101F024F90B4602468846C1F30A517F1A312F8146C4E9002374DD40A363
:40674000D3E90023DDE9040101F0C6FA80468946DDE9060142464B4601F00AF982468B46DDE9060152465B4601F002F942464B4601F0FEF834A3D3E9002380468946DDE9B3
:40678000040101F0A9FA42464B4601F0F1F8CDE90201504659463EE701F0ECF82E4B80469F42894622D02AA3D3E9002301F0E2F802460B464046C4E90023494601F0D8F8CE
:4067C00023A3D3E9002301F0D5F84FF0FF35C4E90201C1E66268E36802F1004203F1004345426260E360B7E60323A0E610A3D3E9002301F0BFF810A3D3E9002306460F46A9
:4068000001F0B8F802460B463046C4E90023394601F0AEF808A3D3E9002301F0ABF84FF0FF35C4E9020197E6DDE906ABFDE600BF0000601A61B4D03D7370032E8A19A33BBA
:406840000000002E8A19A33BC14920259A837B393163621A61B4D03DFB21F93FAFF300802DE9F041604E0C46B6460E40764505460B4600F098800029024676DD5FEA215E25
:4068800000F08180AEF2FF3EC3F313031EF0010F43F480135ED100273C46D10F01EB43034FEA6E0E520016204FF4001165189D424FEAD2764FEA420202DC5B1B6C180F4456
:4068C000013806EB43034FEA5101EFD1844620264FF000410AE0A34220D0D50F013E4FEA510105EB43034FEA420220D09C420CEB0105F0DA002D05EB010C09DBA0461B1B6E
:40690000954288BF03F1FF334446521B0844E4E7BCF1000FF2DB04F10108F0E7954217D8002D05EB010C48DB98460023ECE7134315D140087B1003F17F5303F50013FA07DF
:4069400003EB0E57394648BF40F00040BDE8F0811C46C2E7D10F01EB430352009BE7411C31D000F001031844E3E721F000460643ECD079BB8E46D30AAEF1150E5205002BCA
:40698000F9D0DC0222D400215B00D80201F10101FAD5C1F10100C1F1200422FA04F4234386448A406EE702460B4601F095F92A46234600F0DFFFBDE8F081BCF1000FAADA20
:4069C000A0460023A0E701373046B3E7202401200021E2E702460B4600F0CAFF02460B4601F0A4FAB2E700BF0000F07F000000002DE9F04F21F00047B7F1795F85B00C467B
:406A000092469B4605466BDA01F000FC002800F0E7802A4623462846214601F05DF974A3D3E900238046894601F056F972A3D3E9002300F09FFF42464B4601F04DF970A3FC
:406A4000D3E9002300F094FF42464B4601F044F96DA3D3E9002300F08DFF42464B4601F03BF96BA3D3E9002300F082FF42464B4601F032F968A3D3E9002300F07BFF424655
:406A80004B4601F029F9CDE90001404649460022634B01F021F9DDE9002306460F464046494601F019F95246804689465B462846214601F011F902460B464046494600F0AD
:406AC00057FF02460B463046394600F051FF02460B460020534900F04BFF05B0BDE8F08F02460B4601F0F8F841A3D3E900238046894601F0F1F840A3D3E9002300F03AFF73
:406B000042464B4601F0E8F83DA3D3E9002300F02FFF42464B4601F0DFF83BA3D3E9002300F028FF42464B4601F0D6F838A3D3E9002300F01DFF42464B4601F0CDF836A393
:406B4000D3E9002300F016FF4B46424601F0C4F8354BCDE900019F4297DD344B00229F4238DCA7F5001300202E4916461F4600F0FFFECDE90201404649460022284B01F001
:406B8000ABF832463B4600F0F3FEDDE9002306460F464046494601F09FF85246804689465B462846214601F097F802460B464046494600F0DDFE02460B463046394600F017
:406BC000D7FE02460B46DDE9020100F0D1FE05B0BDE8F08F164B0026CDE90223154FCAE71049002005B0BDE8F08F00BFAFF30080D43888BEE9FAA8BDC4B1B4BD9EEE213EB1
:406C0000AD529C804F7E923E9015CB19A001FA3E7751C1166CC1563F4C5555555555A53F0000E03F0000F03F3233D33F0000E93F0000E73F0000D23F2DE9F04F9E467E4DD8
:406C4000D41E85FB0465E417C4EBA504ADF51D7D24EAE4742546A69E0D940C93E343774C03EB430354F8264002EBC303274609940EF1FF3426460394F41904900A910893BD
:406C8000A5EB060516D42C44013422AEA79F08E057F8250000F0BAFF0135A542E6E9020108D0002DF4DA013500200021A542E6E90201F6D1099B002B31DB099A0C9B74A994
:406CC00001EBC20BC3EB4373039A24A9DB0001EBC20800930DF5E479039B002BC0F297814446049B0026A3F1080A009B002708EB0305FAE9022374E8020100F0EDFF0246BA
:406D00000B463046394600F035FEAC4206460F46EFD1E9E90267D94508F10808DCD1099B10A99B4603F18043013B9B001A1D0A440B440F920E934FEACB039CA91A46069365
:406D4000BBF1000F0B4453E9284528DD0DF5E87A0AEB02060FAF0022394B2046294600F0BBFF01F053FA00F051FF0022354B8046894600F0B1FF02460B462046294600F064
:406D8000F7FD01F043FA76E9022347F8040F4946404600F0EFFD564504460D46DBD1DDF82090204629464A4600F05EFD00224FF07F5304460D4600F08FFF00F005FC002270
:406DC000214B00F089FF02460B462046294600F0CFFD04460D4601F019FA804600F016FF02460B46204629464C4600F0C1FD002C06460F4640F3F1800BF1FF3110AB53F8C8
:406E00002130C9F1180043FA00F202FA00F55D1B10A8C9F1170340F8215090441D41002D3FDDBBF1000F08F1010840F38482002214460FA912E000BFABAAAA2A20D80000EB
:406E40000000703E0000704100002040C3F180700BB108600124013293450DDD51F8043F002CF3D0C3F1FF13013203F57F4393450B604FF00104F1DC089B002B0EDD012B0A
:406E800000F0B380022B09D10BF1FF3210AB53F8223010A9C3F3150341F82230022D00F08380304639460022002301F07DF9002800F0C980099B0BF1FF3A53450DDC10ABD8
:406EC0000F9803EB8B03002253F8041D834242EA0102F9D1002A40F01482099B10AA013B52F82330002B40F024820E9A012352F8041D01330029FAD05B441A460B930BF104
:406F0000010393424DDC0D9A4FF0000803EB02090B9A0C9B09F180495B44CBEB020BA79A09F1FF3902EB890200924FEACB02DB00059224AA02EB030B0793069B74AA02EBF3
:406F4000030A009B002653F8040F0027009300F05DFE039BEBE80201002B1BDB079B03EB0804069B08EB030524AB1C441D44049BA3F10809F9E9022374E8020100F0ACFE3F
:406F800002460B463046394600F0F4FCAC4206460F46EFD1059B08F108089845EAE90267CFD1DDF82CB0C6E632463B460020BF4900F0DEFC06460F46002C3FF472AF089AA7
:406FC0000020BA4900F050FC02460B463046394600F0CEFC06460F4663E711D10BF1FF3310AA52F82350ED1519E70BF1FF3210AB53F8223010A9C3F3160341F822304DE7AA
:407000000022AB4B01F0EEF858B9054649E700260027E9E90267D94508F108087FF45CAE7DE6BBF1000F08F10108C8BF02253FF7FEAE32463B4600209C4900F099FC02254F
:4070400006460F462DE7089B30465A4239460395CDF8148000F008FC0022964B04460D4601F0C0F8002800F0E1810022924B2046294600F031FE01F0C9F8064600F0C6FDDB
:4070800000228C4B00F028FE0B4602462946204600F06EFC01F0BAF8089B0BF1010A1833089310AB43F82B0043F82A60089A00207E4900F0D9FBBAF1000F04460D46C0F28A
:4070C000CA800AF101034FEAC30874AF10AA009302EB830907EB080659F8040D00F096FD22462B4600F0F8FD002266E90201724B2046294600F0F0FDBE4204460D46EBD17B
:40710000A8F1080806EB08039B460DF59879CDF818A0DDF824A04FF00008CDF81090BAF1000FC0F29580B8F1000FC0F29180DFF88C915D4600260027002401E0444510DC9A
:40714000F9E90223F5E8020100F0C6FD02460B463046394600F00EFC0134A24506460F46ECDA049BABF1080B03EBC803C3E90067009B08F101089845D1D1A69BDDF818A066
:40718000DDF81090032B3BD8DFE813F0410004000400D70000273E46009B09EBC304384674E90223314600F0E5FB4C4507460E46F5D1039B002B00F08B80D9E900010A9DC1
:4071C000334606F100463A466E602F6000F0D0FBBAF1000F03460CDD01261C46F9E90223204600F0C7FB0136B2450346F5DA039A0AB101F100411C460D460A9BC3E902458F
:40720000059B03F007000DF51D7DBDE8F08F00231946009A09EBC2091C4679E90223204600F0A8FB0AF1FF3ABAF1FF3F0346F3D1039A0AB101F100411C460D460A9BC3E97C
