:400000000080002011000000ED2D0000ED2D000008B5044B1A6803F53F5302331A6002F005FF00BFFA46004010B5054C237833B9044B13B10448AFF300800123237010BD3D
:400040001884FF1F000000001CC00000084B10B51BB108480849AFF300800848036803B910BD074B002BFBD0BDE81040184700BF000000001CC000001C84FF1F0881FF1F63
:400080000000000080B562B601F004FE01F0B4FD00F0A0FD00F0B0FD00F0B0FD00F0BAFD00F032FF00F0FAFC00F0E6FB01F0A4FB00F05CFE01F0FCF801F07EFA01F0D6F930
:4000C00002F0B8FD01F0E8FD01F098FD00F02EFF00F0ECFC00F0EEFB01F094FB00F06CFE01F0F2F801F0A6FA01F0CAF902F0A4FD264C274D0FCD20606160A260E36007CD86
:4001000020616161A2612B782377204601F096FD204D05F120072E460FCE20606160A260E36035461034BE42F5D103CD20606160164C204601F082FD174D05F120072E462E
:400140000FCE20606160A260E36035461034BE42F5D1337823700D4801F070FD012003F055FB00F0A5FC00F037FE01F07DFA01F089F902F06BFD00F04FFD00F0A5FB01F09A
:4001800053FD002003F042FBE8E700BF6489FF1F20C0000040C0000068C00000014B1868704700BF3484FF1F014B5868704700BF3484FF1F10B50E4801F040FD0D4801F0FF
:4001C0003DFD0D4801F03AFD0C4801F037FD0C4801F034FD0B4C204601F030FD0A4801F02DFD204601F02AFD084801F027FD10BD8CC00000C0C00000F4C000003CC10000E4
:4002000098C100002CCA0000F4C1000014C2000010B5164801F012FD154801F00FFD154801F00CFD144801F009FD144801F006FD134801F003FD134801F000FD124801F08D
:40024000FDFC124801F0FAFC114801F0F7FC114C204601F0F3FC104801F0F0FC204601F0EDFC0E4801F0EAFC10BD00BF2CC2000060C2000094C20000DCC2000050C300001F
:40028000C4C3000038C40000ACC4000024C50000A0C500002CCA00001CC600003CC6000008B50022054B1A8010B9FFF783FF08BD012801D1FFF7ACFF08BD00BF5C89FF1F31
:4002C00010B5104801F0BAFC0F4801F0B7FC0F4801F0B4FC0E4801F0B1FC0E4801F0AEFC0D4801F0ABFC0D4C204601F0A7FC0C4801F0A4FC204601F0A1FC0A4801F09EFC6C
:4003000010BD00BF54C6000080C60000ACC60000CCC60000F0C600001CC700002CCA00001CC6000014C2000010B590B044780378074A02EB83036846064952F824209B68F8
:4003400008F002FC684601F079FC10B010BD00BF0C81FF1F34C7000010B504460378042B42D8DFE803F0030F1B293500836840786168984710B90123237010BD2046FFF775
:40038000D3FF10BDC36840786168984710B90223237010BD2046FFF7C7FF10BD0369407861689847012802D10323237010BD10B32046FFF7B9FF10BD4369407861689847D8
:4003C00010B90423237010BD2046FFF7ADFF10BD836940786168984710B90523237010BD2046FFF7A1FF10BD034B00229A60DA604078FFF755FF10BD3484FF1F08B5034821
:4004000001F01CFC024801F019FC08BD5CC7000090C7000008B501F021FCA0F14303352B23D8DFE803F0211D22222222222222222222222222222222221B221F2222222209
:40044000222222222222211D22222222222222222222222222222222221B221F762008BD732008BD782008BD632008BD08B532280BD0332811D0312817D101F0FDFB0C4BCD
:400480001A6800211170186808BD01F0F5FB094B1A6800211170186808BD01F0EDFB064B1A6800211170186808BD002008BD00BF6C8AFF1F688AFF1F8C8AFF1F08B5A0F158
:4004C0003103072B00F28480DFE803F0041220304050607101F0D0FB3E4801F0AFFB3E4B1A68012151701A6800211170186808BD01F0C2FB394801F0A1FB394B1A68012107
:4005000051701A6800211170186808BD01F0B4FB344801F093FB324B1A6801215170196800220A7018684368DA7108BD01F0A4FB2D4801F083FB2A4B196801224A701968F4
:400540000020087018684368DA7108BD01F094FB264801F073FB264B1A6801215170196800220A7018684368DA7108BD01F084FB204801F063FB1E4B196801224A701968BE
:400580000020087018684368DA7108BD01F074FB194801F053FB194B1A6801215170196800220A70196849680A70186808BD01F063FB134801F042FB104B196801224A7000
:4005C000196800200870196849680A70186808BD002008BDE4C70000908AFF1F34C80000948AFF1F8CC80000CCC800000CC90000708AFF1F4CC900008CC90000888AFF1F82
:40060000D0C9000070B584B00C4600218DF80F108DF80E1058B3164605460DF10E02009221461A460DF10F0301F09CF99DF80F309DF80E0034F9231034F9202036F81330AA
:4006400036F81000009028B201F0B4F980B2A0F5FA639BB24FF62F02934205D9B0F57A7F38BF4FF47A7004E04FF4FA6001E040F2DC5004B070BD00BF10B50446084A13689C
:40068000188880B220EA040019881880118881F4004101F069FB204600F006FD10BD00BF648AFF1F10B50446064B1968088880B2A1F50041204389B201F056FB204600F0DC
:4006C000D7FC10BD648AFF1F70B59EB003460E461546684612491A4608F036FA684601F0ADFA00240CE005A80E4956F8242035F8143008F029FA05A801F0A0FA0134E4B2D7
:40070000312CF0D905A8084956F8242035F8143008F01AFA05A801F091FA1EB070BD00BF14CA00001CCA000024CA0000F0B59DB007460C46086809A9032201F0C1F806AEBB
:4007400060683146032201F0BBF803ADA0682946032201F0B5F8009601950CA804493A4609AB08F0F1F90CA801F068FA1DB0F0BD30CA000038B5A0F13103032B63D8DFE8E7
:4007800003F00222425801F077FA2F4801F056FA2E4C204601F052FA2D4D2A682D4802F1540102F59072FFF78FFF2A682A4802F5CA7102F51872FFF787FF204601F03EFA49
:4007C000FFF77EFD38BD01F057FA244801F036FA1E4C204601F032FA1D4D2A68204802F5357102F56872FFF76FFF2A681D4802F2144102F59C62FFF767FF204601F01EFAA1
:40080000FFF75EFD38BD01F037FA174801F016FA0E4801F013FA0E4C216814480831FFF785FF216812481831FFF780FFFFF748FD38BD01F021FA0F4801F000FA034801F04F
:40084000FDF9FFF73DFD38BD4CCA00002CCA0000648AFF1F88CA000098CA0000A8CA0000E8CA0000F8CA000008CB000030CB00003CCB000048CB000008B5084A084B1A60E7
:40088000084A094B1A60094A094B1A6002F0DAF801F024FD02F0A2FA08BD00BF00800040648AFF1F9D0100005889FF1FA90100006089FF1F08B5034B1B68188880B200F0A5
:4008C00011FC08BD648AFF1F10B5FFF7A3FD0446314B1B7C042B5BD8DFE803F0031B3249510073280FD0762807D0632853D1FFF761FC0122284B1A7410BDFFF789FC0222DB
:40090000254B1A7410BDFFF7DBFC0322224B1A7410BD214B9B681BB9FFF7A8FD1E4B98601D4B9B6833B1012000F04EF91A4B9868FFF712FD782C2ED10422174B1A7410BD5C
:40094000154BDB681BB9FFF7B9FD134BD860124BDB6833B1012000F037F90F4BD868FFF7FBFC782C17D104220B4B1A7410BDFFF701FF782C0FD10422074B1A7410BDFFF7CC
:400980003DFD002000F020F90022034B1A7410BD0022014B1A7410BD3484FF1F30B583B0002401F041F901F059F9054601F064F9A5F13003DBB2092B01D92E2D05D102ABE5
:4009C000234403F8085C0134E4B2042CE9D900238DF80530684607F07BFA06F013FF03B030BD00BF014B186808307047648AFF1F014B186818307047648AFF1F014B1860B4
:400A0000596070473484FF1FF8B51D4B1B681B8813F0010F2ED006460D464FF001040846002107F009FA08B94FF00004E0B280F0010000EB4600134B53F82040676826683A
:400A4000A06806F0E9FF294607F03AF807F0FEF9B042B8BF3046B842A8BF384606F0DCFF07F0F4F904F10C0104F1D8023323FFF7C9FDF8BD044801F0E1F840F2DC50F8BDD6
:400A8000648AFF1F788AFF1F70CB000008B50120FFF7F2FD0220FFF7EFFD08BD014A024B1A607047051000004884FF1F704700BFD0B582B000F046FA044610F0010F01D0F3
:400AC00000F056FC04F002039BB20BB100F006FD04F00404A4B20CB1FFF7D8FF304B1B790BB900F045FA2E490B6801F108000C3101AA9847019BB3F5FA6F04D9284B002217
:400B00009A60DA6042E0264B9C68204606F064FB06460F461EA3D3E9002306F023FE38B1304639461CA3D3E9002306F01BFE48B93046394616A3D3E9002306F013FE10B9EE
:400B4000184C00E0184C164B9C60DC68204606F043FB06460F460EA3D3E9002306F002FE38B1304639460CA3D3E9002306F0FAFD48B93046394606A3D3E9002306F0F2FDAF
:400B800010B9084C00E0084C054BDC6002B0D0BDBB3CC3451442E83FBB3CC3451442E8BF4884FF1FA210423FA21042BFAFF30080014B9868704700BF4884FF1F014BD86877
:400BC000704700BF4884FF1F014B1871704700BF4884FF1F08B5064800214FF4807207F0DDF9044A138843F07F03138008BD00BF6489FF1F5C89FF1F704700BF08B500201C
:400C000002F004FE00F014FE014B186008BD00BF5884FF1F704700BF08B500F009FE0A4A1368C01A506006F0B5FA0022074B06F0B7FD40B100F0FCFD034B18609868421C38
:400C40009A6000F0E1FA08BD5884FF1F00407F40F8B504460E46436B9847A060E368C31A2361E06004F12405184606F0D5FE0146284600F0FBFD60611D4906F021FF0546C3
:400C8000304606F0C5FE0146284606F0CDFF014604F12C0000F0EAFDA06106F09DFA10A3D3E9002306F0ECFA06F0ACFDE061606906F092FA0CA3D3E9002306F0E1FA0022A7
:400CC0000C4B06F007FC06460F46206A06F084FA32463B4606F022F906F094FD2062F8BD4C2438F292602F3F72D38A804FA4DE3F00007A4400409F4030B593B004468069AC
:400D00000FA9032200F0DCFD60690CA9032200F0D7FDE06909A9032200F0D2FD206A06A9032200F0CDFD0E4B1B8813F0030F14D00C4D0FAB009309AB01930CAB02932369F4
:400D4000039306AB049328464FF48071064A234607F0C8FE284600F071FF13B030BD00BF5C89FF1F6489FF1FFCCB000010B40F4B00219960D960196100225A611A629A622B
:400D80000B4C5C621A630B48D8629A61DA6159649964D9641A65DA655A661C66DA6698665A659A655DF8044B704700BF2C81FF1F0000A0410000204110B502F07DFF02F09F
:400DC00063FE044CA36B00209847636F0020984710BD00BF2C81FF1F38B500F029FD1A4A1368C01A506006F0D5F90022174B06F0CDFC38B300F01CFD134B18601B7A2BB957
:400E00000122114B1A72072002F054FA104D0E4C28466168FFF71CFF05F13C006168FFF717FF0C4B1B8813F0010F02D02846FFF763FF084B1B8803F002039BB213B1064848
:400E4000FFF75AFF38BD00BF6484FF1F000049402C81FF1F5C89FF1F6881FF1F014B9869704700BF2C81FF1F014B586D704700BF2C81FF1F014BD869704700BF2C81FF1F5D
:400E8000014B986D704700BF2C81FF1F014B186A704700BF2C81FF1F014BD86D704700BF2C81FF1F70B5154CA36B002098470026E660266100256561A562A561E561256373
:400EC000A660636F30469847A664E664256565666565A565E5666664094B1B8813F0010F02D02046FFF708FF054B1B8803F002039BB213B10348FFF7FFFE70BD2C81FF1FC2
:400F00005C89FF1F6881FF1F10B5074C20460021A42207F043F80023A4F8A430A4F8A630A4F8A83010BD00BF7084FF1F08B502F041FBA4200C21024A02F05EFB08BD00BF02
:400F40007084FF1F08B502F043FB0028FBD14FF40043044A1360044A108800211180034A136008BD80E100E07084FF1F00E100E010B502F02DFB0028FBD14FF400431D4A46
:400F800013601D4A5088002151801C4C2360B2F8A83023EA00030343A2F8A830184A118013F0010F01D00321118003F0020292B222B113490A8842F00C020A8003F004020D
:400FC00092B222B10E490A8842F030020A8003F0080292B222B10A490A8842F040020A8003F010039BB223B1054A138843F08003138010BD80E100E07084FF1F00E100E0D1
:401000005C89FF1FF8B506460D46144602F0E0FA10F0020F04D00022124BC3F8AC200EE000F006FC0F4FD7F8B030C01AD7F8AC300344C7F8AC3000F0FBFBC7F8B00002F0B5
:40104000C7FA0028FBD14FF40042074B1A60054B596831605968296004490A60D3F8AC302360F8BD7084FF1F80E100E000E100E008B50A4AB2F8A6301843A2F8A60002F0B6
:40108000A7FA0028FBD14FF40043054A1360034AB2F8A610D181034A136008BD7084FF1F80E100E000E100E008B50B4AB2F8A63023EA0000A2F8A60002F08AFA0028FBD172
:4010C0004FF40043054A1360034AB2F8A610D181034A136008BD00BF7084FF1F80E100E000E100E008B5094BA3F8A60002F070FA0028FBD14FF40043054A1360034AB2F870
:40110000A610D181034A136008BD00BF7084FF1F80E100E000E100E0F8B507460E4615461C4602F055FA0028FBD14FF40043154A1360154A1761154A136002F049FA0028B1
:40114000FBD14FF400430F4A13600F4A56610F4A136002F03DFA0028FBD14FF40043094A1360094A9561094A136002F031FA0028FBD14FF40043034A1360034AD461034AD7
:401180001360F8BD80E100E07084FF1F00E100E0F8B507460E46154602F01AFA0028FBD14FF40044064B1C60064800EB8700603031462A4606F0E7FE034B1C60F8BD00BFAC
:4011C00080E100E07084FF1F00E100E0F8B507460E46154602F0FCF90028FBD14FF40044064B1C60064800EB8700203031462A4606F0C9FE034B1C60F8BD00BF80E100E0D0
:401200007084FF1F00E100E010B5044602F0E0F90028FBD14FF40043034A1360034AC2F8A040034A136010BD80E100E07084FF1F00E100E038B505460C468369984783B2B5
:401240001A4A13801BB240F2DC5293422DD0C0F5BB60043080B2154B588004EB8401490010F4004F02D003B25B4200E003B2B1FBF3F10E4B596000B2002801DD0A2201E0DA
:401280004FF6F672094B1A81084C20882389184480B220806B699847606802F00BF8B4F9002040F2DC539A42EEDC38BD2485FF1F10B5044CA36801209847636A01209847CF
:4012C00010BD00BFA481FF1F10B50A4CA36800209847E3689847636940F2DC509847636A00209847A36A9847236B40F2DC50984710BD00BFA481FF1F08B5A0F5FA639BB279
:401300004FF62F02934205D9B0F57A7F38BF4FF47A7001E04FF4FA60014B5B69984708BDA481FF1F08B5A0F5FA639BB24FF62F02934205D9B0F57A7F38BF4FF47A7001E085
:401340004FF4FA60014B1B6B984708BDA481FF1F08B5024B9B69984708BD00BFA481FF1F08B5024B5B6B984708BD00BFA481FF1F10B50A4C636940F2DC509847236B40F209
:40138000DC50984723699847E36A9847A36801209847636A0120984710BD00BFA481FF1F08B501460148FFF745FF08BDA481FF1F08B501460148FFF73DFF08BDC081FF1FB2
:4013C00070B5FFF757FD0C4C2060FFF759FD6060FFF75CFD0646FFF75FFD05463046A16806F064FAE0602846216906F05FFA6061A660256170BD00BF3085FF1F10B590B0F7
:40140000164C20680DA9032200F05AFA60680AA9032200F055FAE06807A9032200F050FA606904A9032200F04BFA0D4B1B8803F040039BB283B10B4C0AAB009307AB019306
:4014400004AB029320464FF48071074A0DAB07F049FB204600F0F2FB10B010BD3085FF1F5C89FF1F6489FF1F18CC0000034B00221A605A60DA605A61704700BF3085FF1FD3
:40148000704700BF10B500F0D3F9124B9C69041B204605F07FFE00220F4B06F081F9B8B100F0C6F90B4B98611B7F2BB90122094B1A770B2001F0FEFE2046FFF781FF054BBF
:4014C00018685968DA685B69FFF726FEFFF796FF10BD00BF3085FF1F0000494008B5064A002313605360D3605361184619461A46FFF712FE08BD00BF3085FF1F0000000061
:401500002DE9F0470446436C98478146002106F093FC10B14FF0010A01E04FF0FF0AA36C9847054604F10808484605F055FE20A3D3E9002305F0CEFF06460F460022002387
:4015400006F010F950B109F1004005F045FE18A3D3E9002305F0BEFF06460F463046394606F050F90146404600F042FB2846002106F044FC10B105F1004100E0294640464C
:4015800000F038FB404600F033FA78B1E56C2669A4794FFA8AF006F03FFA0146304606F08FFA01462046FFF72FFAA847BDE8F0874C2438F292602F3F2DE9F04387B000269A
:4015C000164B1E70164D174B6B64174BC5F898300024DFF85890CDF800900194DFF85080CDF8088001270397049605F1080021462246234600F0D2FACDF800900194CDF8C3
:4016000008800397049605F15C0021462246234600F0C4FA07B0BDE8F08300BF5085FF1FDC81FF1FB10B0000BD0B00008988883D00409C4510B5FFF7D5F9094C016842684E
:40164000836804F1080000F073FAFFF7D1F901684268836804F15C0000F06AFA10BD00BFDC81FF1F0000000010B500F0E1F8224B5B68C01A05F08EFD1DA3D3E9002306F00E
:4016800085F8002832D000F0D3F81B4B58601B7A2BB90122184B1A72132001F00BFE174C2046FFF72DFF04F15400FFF729FF144B1B8803F004039BB23BB1236D98470246B4
:4016C000204604F1080101F0DDF90D4B1B8803F008039BB253B1094CD4F8A4309847024604F1540004F15C0101F0CCF910BD00BFABAAAAAAAAAA50405085FF1FDC81FF1F81
:401700005C89FF1FAFF30080024B5864C3F89810704700BFDC81FF1F034B044A5A64044AC3F89820704700BFDC81FF1FB10B0000BD0B0000074B00229A60DA62DA60DA6376
:401740001A61DA65C3F880201A66C3F890205A66704700BFDC81FF1F38B508B9002400E00124064D05F10800214600F093F905F15C00214600F08EF938BD00BFDC81FF1F4E
:4017800038B505460C46134602482946224600F0CFF938BDE481FF1F38B505460C46134602482946224600F0C3F938BD3882FF1F10B4054B5C69046098690860DB6913601B
:4017C0005DF8044B704700BFDC81FF1F10B4054B9C6E0460D86E08601B6F13605DF8044B704700BFDC81FF1F024A136801331360704700BF5C85FF1F0022014B1A60704710
:401800005C85FF1F10B501F02FFE01F0FBFD002409E0204601F03EFE20B92046034901F031FE10BD0134042CF3D910BDE9170000014B1868704700BF5C85FF1F30B500247D
:4018400006E0094D85FB00E5C017C0EBA50001340028F6D103E030208854013201349C42F9DB104630BD00BF67666666F8B504464668304606F01CF80746256830462946D4
:4018800006F0D2F90146384606F010F86060294606F0CAF9F8BD00BF030A0B704870704782B001909DF804300B709DF805304B709DF806308B709DF80730CB7002B070478F
:4018C0002DE9F84306460D469046002106F096FA50B12D232B703046002106F08FFA08B106F10046012400E00024304606F0AEFA074629190A2206F044FB07F049F92044B9
:40190000B8F1000F29DD2E232B54441C384606F083F80146304605F0C9FF8146404605F049FC02460B4600200D4904F013FA06460F46484605F050FC32463B4605F0A0FCBF
:4019400005F038FF0646294622464346FFF776FF291830460A2206F014FBBDE8F88300BF00002440F0B4049F013AD2B2540800251D703D7019E051F82460864203DA651C4C
:40198000EDB21C700CE0864202D11C703C700EE0864205DD3C701A78A21A012A07D02246AC1804EBD474C4F347049542E3D9F0BC704700BF30B4BDF8084091420AD19C4222
:4019C00001D198B211E0E41A04EBD47403EB640080B20AE0401A25B21CB22C1B04FB00F4521A94FBF2F2981880B200B230BC70472DE9F84390F83930002B48D004460768AA
:401A0000406B394605F052FF8046E069414606F057F8616A05F04CFF05466062E66A314606F0ECF940B9D4F830902846494606F003FA10B14D4600E035466562384661686F
:401A400005F034FF8146A069414606F039F80146284605F02DFF0546206A494606F030F80146284605F022FF0546A0603046294606F0E2F930B9266B2846314606F0DCF972
:401A800000B92E46A66067600120BDE8F8830020BDE8F883F8B504460D4690F839308B4214D0012912D18668466203684360C76A3046394606F0A2F938B9276B30463946DF
:401AC00006F0BAF900B13E463746676284F83950F8BD00BFF8B504460D4616460846114606F0A0F918BBE562266394F83930012B1DD1A7683846294606F080F930B93046F3
:401B0000394606F07BF910B1374600E02F46A760676A3846294606F071F930B93046394606F06CF910B1374600E02F466762F8BD2DE9F04104460D4616461F4608460021A6
:401B400006F05CF938BB3046002106F057F910BB3846002106F052F9E8B9E56026616761A561D4F828804046314605F0A9FF0646E0613846414606F057F8206294F8383009
:401B8000012B08D105F10045A56106F10046E66100F100402062BDE8F08100BFF8B504460F4616461D469DF8283080F838309DF8243080F83930002141620160416081608A
:401BC0004163069806F038F910B1069BA36202E04FF07E53A36220460799089AFFF77AFF2046394632462B46FFF7A2FFF8BD00BF4163704701607047704700BF08B5002068
:401C0000012102F015FA02F05DFA20B102F054FA08B102F081FB02F04FFA10B1014802F0C7FB08BD38CC000008B502F04BFA20B102F042FA08B102F06FFB08BD10B5044662
:401C4000FFF7F2FF02F038FA30B102F01FFC0028FBD0204602F0ACFB10BD00BF08B502F02BFA034630B102F005FC034610B102F019FC0346184608BD10B5044602F01CFA68
:401C800030B102F003FC0028FBD0204602F0DEFB10BD00BF704700BF08B501F0C9FD08BD2DE9F04780460D46170912F00F021CD0C2F1100A1FFA8AFA02EB07121FFA82F96A
:401CC000002426460CE009EB060118F8040089B201F0B2FD0134A4B2013DADB20136B6B25645F0D30137BFB200E00024C5F30F19B9F1000F0ED110E008EB0400F9B201F0B1
:401D000005FE1034A4B2103DADB20137BFB20136B6B200E000264E45EED3ADB13F01BFB2A94600260DE0B91918F8040089B201F083FD0134A4B209F1FF391FFA89F9013686
:401D4000B6B2B542EFD84D462DB104487A21044A044B06F0A1F8BDE8F08700BF68CC000054CC00007CCC000010B582B00C4601A9FFF792FD9DF80400214601F05DFD611C02
:401D80009DF8050089B201F057FD02B010BD00BF30B583B00D4601A9FFF782FD002409E002AB2344291913F8040C89B201F044FD0134E4B2032CF3D903B030BD00000000F0
:401DC00038B5434B1B68DA6C196D92FBF1F2002A05DADA6C5242186D92FBF0F003E0D86C1A6D90FBF2F03B4A1060D3F88821D3F8901192FBF1F2002A07DAD3F88821524261
:401E0000D3F8901192FBF1F105E0D3F88811D3F8902191FBF2F12F4A5160D3F8CC22D3F8D04292FBF4F2002A07DAD3F8CC526A42D3F8D05292FBF5F505E0D3F8CC52D3F8C3
:401E4000D02295FBF2F5234A9560D3F80824D3F8104492FBF4F2002A07DAD3F808245242D3F8103492FBF3F305E0D3F80824D3F8103492FBF3F3174CE36002468842A8BF79
:401E80000A462261AB42A8BF2B4663619A42A8BF1A461046A26105F0BFFD05F09DF908A3D3E9002305F0ECF907A3D3E9002305F0E7F905F0A7FCE06138BD00BFAFF300801D
:401EC0004C2438F292602F3F9A9999999999C93F648AFF1F6085FF1F0022024B83F82020704700BF6085FF1F014640B90B4890F820200B4B53F82230013280F82020012934
:401F00000AD1064991F82020054B53F8223003F10043013281F82020184670476085FF1F8CCC000010B584B010B101281DD01FE00C461148FFF782FEA37913B1012B0AD058
:401F400016E001A802A903AAFFF732FC0B4801A9FEF7ECFB0CE001A802A903AAFFF736FC074801A9FEF7E2FB02E00648FFF766FE002004B010BD00BFA8CC000030CB000034
:401F80003CCB0000D0CC000038B504460C4D2968A1F5FF417839006889B2FFF7F9FE2968A1F5FF417439606889B2FFF7F1FE2968A1F5FF417039A06889B2FFF7E9FE38BD25
:401FC000648AFF1F38B504460C4D2968A1F5FF416839006889B2FFF7DBFE2968A1F5FF416439606889B2FFF7D3FE2968A1F5FF416039A06889B2FFF7CBFE38BD648AFF1FFA
:4020000030B595B004460D4600210846FEF7F6FC14B1012C21D028E0AB7913B1012B09D010E001A802A903AAFFF7C2FB01A8FFF7ABFF07E001A802A903AAFFF7C7FB01A875
:40204000FFF7C0FFFFF768FB04A80B492A4606F07BFD04A8FFF7F2FD07E004A807492A4606F072FD04A8FFF7E9FD054B5A8C054B1A80002015B030BDF4CC000014CD000010
:402080006085FF1F5C89FF1F30B595B00446C079FFF72AFF0546A37913B1012B04D007E00021FEF7ABFC03E000202946FEF7A6FC284611A90322FFF703FC01A8074911AA80
:4020C00006F042FD01A8FFF7B9FD054B93F8200006288CBF0020012015B030BD34CD00006085FF1F10B50C4610B101280AD01BE0FFF79EFB104B5B6AC01AA368984215D2C0
:40210000002010BDFFF794FB0B4B5B6AC01AA36898420DD3FFF78CFB074B58622046FFF7B3FF38B9012010BD012010BD012010BD002010BD002010BD6085FF1F2DE9F041FD
:402140000C4610B1012844D059E02E48FFF776FDFEF724FC80462C48FFF770FDFEF71EFC07462A48FFF76AFDFEF718FC06462848FFF764FD0120FFF7EFFAFEF793FEFFF782
:40218000D9FAFFF7ABF9FFF71BFE0546A37913B1012B0AD012E0404639463246FFF7F0FA28460021FEF72AFC08E0404639463246FFF7F2FA00202946FEF720FC1548FFF73F
:4021C0003DFD1348FFF73AFDFFF732FB124B586215E00120FFF7C0FAFEF764FEFFF7AAFAFFF77CF90D48FFF729FD0948FFF726FDFFF71EFB084B58622046FFF745FF00200A
:40220000BDE8F08140CD00005CCD000074CD00002CCA000090CD00006085FF1FA0CD000010B590B00C4610B1012823D046E068462449224606F088FC6846FFF7FFFC002137
:402240000846FEF7DBFB204B1868204B1968FFF75BFA1F4B1A881F4B5A84A37913B1012B04D02BE004221A4B1A8027E00822184B1A8023E068461849224606F065FC684612
:40228000FFF7DCFC124B1A88124B5A8400210846FEF7B4FB0C4B18680C4B1968FFF734FAFFF71AFEA37913B1012B04D006E00522074B1A8002E00A22054B1A80002010B071
:4022C00010BD00BFB0CD00005889FF1F6089FF1F5C89FF1F6085FF1FC8CD0000054B064A136003F11C0205490A6005490B60054B1A6070478482FF1F688AFF1F8C8AFF1FB5
:40230000948AFF1F708AFF1F2DE9F84F584B1C68238813F0010F00F0A180E06C236D90FBF3F005F079FB0646D4F8CC02D4F8D03290FBF3F005F070FB0746D4F88801D4F853
:40234000903190FBF3F005F067FB0546D4F80804D4F8103490FBF3F005F05EFB82463046394605F04BFD00B137462846514605F063FD00B1AA46384604F02EFF04460D4689
:4023800037A3D3E9002304F07BFF05F03BFA06462046294634A3D3E9002304F071FF05F031FA8346504604F017FF804689462CA3D3E9002304F064FF05F024FA054640468A
:4023C000494629A3D3E9002304F05AFF05F01AFA04465846314605F069FA264905F024FC81462046294605F061FA224905F01CFC8046214B5F61214BC3F814A0002418E0C5
:40240000204605F009FB0746494605F059FB314605F04EFA184B43F824004046394605F04FFB294605F044FA144B43F824000134E4B2042CE4D900230EE0991DC3F10400C7
:402440000D4A52F8204042F821400C4A52F8200042F821000133DBB2042BEED9BDE8F88F9A9999999999C93F9A9999999999E93F648AFF1F0000A0408885FF1FD482FF1FD9
:40248000B8B929B919704FF4FA6040F2DC5305E00121197040F2DC504FF47A73002105E022F811300131C9B20A339BB28342F7D9704729B919704FF47A7040F2DC5305E062
:4024C0000121197040F2DC504FF4FA63002105E022F811300131C9B20A3B9BB28342F7D2704700BF10B4002308E050F8232051F82340224441F823200133DBB2322BF4D9BC
:402500005DF8044B704700BF10B4002307E050F8234094FBF1F442F823400133DBB2322BF5D95DF8044B7047F0B46FF0004414604FF000441C6000240DE0A60050F8245083
:402540001F68BD4200DD1D6085591668B54200DA15600134E4B28C42EFD3F0BC704700BF08B510B1012804D006E00448FFF766FB02E00348FFF762FB002008BDE0CD000046
:4025800004CE000010B51248FFF758FB114C2268114802F5CA7102F51872FEF795F822680E4802F1540102F59072FEF78DF822680B4802F2144102F59C62FEF785F82268BA
:4025C000084802F5357102F56872FEF77DF810BD2CCA0000648AFF1F98CA000088CA0000F8CA0000E8CA000008B510B1012806D008E00548FFF722FBFFF7C4FF02E0034811
:40260000FFF71CFB002008BD24CE00004CCE000008B510B1012807D009E00648FFF70EFB0120FEF73FF802E00348FFF707FB002008BD00BF74CE000094CE00002DE9F041E7
:402640000446884603EB8303DFB27D1D1046A0470026002411E0FEF7BFFB042C08D9C0470B4905F02DFA0146304605F021F906460A2000F01FFE0134E4B2A3B2AB42EAD3DB
:40268000304605F0E3FB90FBF7F0BDE8F08100BF0000C8422DE9F84F0C46904699460A9E034608B9224D00E0224D13B9DFF890A001E0DFF890A00BB91F4F00E01F4F40F23F
:4026C000DC50A8474FF4FA7000F0F4FDFEF7EAFB30460021CC2205F061FC84B91EE0C4F1320B5FFA8BFB2846394639F81B204346FFF7A4FF46F82B000134E4B200E00024C1
:40270000322CECD90CE02846394639F814204346FFF794FF46F824000134E4B2322CF2D94FF47A70D04740F2DC50A847BDE8F88FF9120000251300005D0E0000690E0000EE
:40274000A1130000B11300002DE9F04184B0804617461D460A9E32460DF10F03FFF790FE0F480021CC2205F019FC00240DE09DF80F10009540460A223346FFF78BFF284649
:402780000749FFF7AFFE0134E4B2BC42EFD3044839462A46FFF7B8FE04B0BDE8F08100BFB485FF1F2DE9F84380460D4617469946134C04F1F80610463321324604F1FC03C6
:4027C000FFF7B2FE6423C4F8003104F582703946CC2205F0D8FB04F5E8704946662205F0D2FB05EB4805074B33F8252030464FF4A07182F40042FFF753FABDE8F88300BFD2
:402800008885FF1F788AFF1FF0B599B0054617461E46084615A90322FFF752F812AC384621460322FFF74CF80094019602A805492A4615AB06F088F902A8FFF7FFF919B0B5
:40284000F0BD00BFB0CE00002DE9F04F85B01C4613B1012B06D03BE01F4E204B0193DFF888B004E01E4E1F4B0193DFF880B0039492468846029040F2DC50D8470025002739
:4028800021E04FEA8709039858F82710FEF7BCF8D847FEF7CDFF044603E0FEF79DFAB0470546FEF7C5FF001BB0F5FA6FF5D358F80940019B98470346029821462A46FFF73A
:4028C000A3FF0137FFB25745DBD340F2DC50D84705B0BDE8F08F00BF750E000051130000810E000061130000F9120000251300002DE9F04182B03B4B1F8810B1012851D010
:402900006CE03948FFF79AF9DFF8D8800124A8F80040364D05F50E7605F5417500950020014603223346FFF70FFF0020014632462B46FFF737FF2E48FFF780F900950020A8
:40294000214603223346FFF7FFFE0020214632462B46FFF727FF2748FFF770F90223A8F8003000952046002103223346FFF7ECFE2046002132462B46FFF714FF1E48FFF7A1
:402980005DF900952046214603223346FFF7DCFE2046214632462B46FFF704FFA8F8007020461CE0114C154821460B220023FFF74BFF134821460B220123FFF745FF114C75
:4029C000114821460B220023FFF73EFF0F4821460B220123FFF738FF012000E0002002B0BDE8F0815C89FF1FD4CE00008885FF1FF0CE00000CCF000028CF000048CF0000F8
:402A000058CF0000D482FF1F68CF000078CF000008B510B1012807D00EE00848FFF70EF90020FEF799FE07E00548FFF707F90020FEF792FEFFF768FC002008BD88CF0000B3
:402A4000ACCF00000A4B1B6803F14801094A116003F5C471516003F53271916003F58163D360054B054A1360054A1360704700BF648AFF1F788AFF1F0083FF1F6C8AFF1F5E
:402A8000908AFF1F2DE9F04F9BB007460C469046486B03F045F910B1D4F834B001E04FF0000B206803F03CF910B1D4F800A001E04FF0000A606B216804F0F8FE03F030F9E8
:402AC00028B1606B216804F0F1FE814601E04FF00009606803F024F908B1666800E00026606A03F01DF908B1656A00E00025A06803F016F908B1A46800E00024584617A9E0
:402B00000322FEF7DDFE504614A90322FEF7D8FE484611A90322FEF7D3FE30460EA90322FEF7CEFE28460BA90322FEF7C9FE204608A90322FEF7C4FE104B1B8803F00C0321
:402B4000C3B10F4C17AB009314AB019311AB02930EAB03930BAB049308AB0593CDF8188020464FF48071074A3B4605F0BBFF2046FFF764F81BB0BDE8F08F00BF5C89FF1FC5
:402B80006489FF1FCCCF000010B5044602F0DAFD58B9204602F0D8FE012002F095FD02F0D1FD0028FBD102F0DFFD10BD38B50B78CC7A4D7818B1022803D1002002E0002000
:402BC00000E00820012B0CD1FE2C0AD1012D05D0022D06D10822FEF7DBFA38BD0822FEF7F5FA38BD30B585B0054602F0ABFDE0B9284602F0A9FE0E480B2102F0E7FD02F0E1
:402C0000A1FD0028FBD102F0CFFD002407E002F067FD04AB234403F80C0C0134E4B20A2CF5D9284601A9FFF7C1FF05B030BD00BFF488FF1F704700BF08B502F027FEFEF7E3
:402C4000F7FD014BD86008BDF488FF1F10B50A4BDC68FEF7EDFD201A322809D810BD2046FFF792FF2046FFF7BDFF0134E4B200E00024032CF3D910BDF488FF1F012805D1C9
:402C800008B50348FEF7DAFF002008BD00207047ECCF000030B591B004460D4600210846FDF7ACFE012C0BD12B780BB9084A00E0084A6846084905F047FF6846FEF7BEFF69
:402CC000064B1A88064B1A80002011B030BD00BF14D000001CD0000028D000000489FF1F5C89FF1F10B5012808D10C46FEF7A0FD064B5B68C01A6368984204D30448FEF79D
:402D00009DFF012010BD002010BD00BF0489FF1F4CD00000012822D110B50C461148FEF78DFF0120FEF718FDFEF7BCF8FEF702FDFEF7D4FBE1682378012B01D101F10041E8
:402D40000846FDF75BFE0848FEF778FF0748FEF775FFFEF76DFD064B5860002010BD0020704700BF68D0000090CD00002CCA00000489FF1F012821D100B591B00B780BB9CB
:402D80000F4A00E00F4A68460F4905F0DDFE6846FEF754FF00210846FDF730FE0B4B18680B4B1968FEF7B0FC0A4B19880A4A11804F221A80002011B05DF804FB00207047E4
:402DC00014D000001CD0000084D000005889FF1F6089FF1F5C89FF1F0489FF1F014A024B1A6070471C83FF1F888AFF1FFEE700BF08B5C0B200F05CFAFEE700BF08B5094B77
:402E00001A681044084BC31A802B02DC054B186005E005F061F80C2303604FF0FF32104608BD00BF4883FF1FB08BFF1F08B5104E104D16E029686B68AC68002204E051F8B5
:402E4000040B43F8040B0432A242F8D1E868002203E0002143F8041B04328242F9D11035013E002EE6D105F04FF8FDF70BF9FEE701000000B8D5000008B5124A124B1A6082
:402E8000124A136843F40073136000230AE0032B03D80F4A52F8231000E00E490E4A42F8231001332F2BF2D90C4B1A780C4B1A70094A0C4B1A6000F0B9F800220A4B1A605D
:402EC00008BD00BF0004FA050CED00E014ED00E000000000ED2D00000080FF1FBC7600400481FF1F08ED00E00081FF1FF0B40022174611E050F82760F3B226F0FF0608E0C5
:402F000001EB420511F812406D78A5550132013BDBB2002BF4D10137242FEBD9F0BC7047064B1B78DBB203F00701054A11701B09013213704422034B1A707047CF01004962
:402F40006E5800407658004008B50A46002105F025F808BD38B50122264B1A801823264A1370172225490A8002310B7002310A80234A13700622234B1A705222A3F5807344
:402F80001A70214B1B78DBB2204A13700024204B1C8040F6180203F21E231A8041F25122023B1A8019250CE01A4B1B7803F0010343EA440404F003044FF4F07000F068F9C9
:402FC000013D0DB1032CEFD1114A07231370002311490B7048200231087013700532137002220E4B1A700E4A137843F00703137038BD00BF80400040824000408440004032
:403000008A400040004300400F010049A146004004400040254200400640004001400040A243004008B504F0AEFF08BD38B572B63A4A137843F00403137000240CE0384997
:4030400063001A1952000A4423445B00C8589188FFF77AFF0134E4B2072CF0D900240FE02F49A3001A1952000A4452F8300F23445B000B4451681A8FFFF7D4FF0134E4B258
:40308000022CEDD94FF090402649FFF72FFF264A137843F0020313701032137843F002031370224C237843F040032370A2F58632513A137843F0100313701D481D49082207
:4030C000FFF7B0FF1C481D490822FFF7ABFF1C481C490A22FFF7A6FF1B481C490A22FFF7A1FFC4231A4A137002F500721370A2F54942B93A137843F008031370154D61237C
:403100002B70FFF727FF81232B70FFF709FF124821460E22FFF786FF38BD00BFE8460040A0D000009400004803500140A043004002510040EC0B0048C2510040F40B00489E
:40314000F0510040FC0B004840510040080C0048DB0A014000480040B0430040044A137803F0EF03000100F0100018431070704740510040704700BF014B1880704700BF7F
:403180000A680040014B1880704700BF8A680040014B1880704700BF4A68004008B50B4A137843F0010313700132137843F00103137044F62060FFF7DFFF44F62060FFF778
:4031C000E1FF40F2DC50FFF7E3FF08BD9564004008B5044B1B7823B9FFF7E0FF0122014B1A7008BD0C89FF1F014B188880B270474A680040044A137803F0DF03400100F054
:40320000200018431070704740510040704700BF014B1880704700BF00680040014B1880704700BF80680040014B1880704700BF4068004008B50B4A137843F00103137078
:403240000132137843F00103137044F62060FFF7DFFF44F62060FFF7E1FF40F2DC50FFF7E3FF08BD9064004008B5044B1B7823B9FFF7E0FF0122014B1A7008BD0D89FF1FC7
:40328000014B188880B2704740680040000000000230800803D000BF01380046FCD17047EFF3108072B6704780F31088704700BF01BE704710B5044605E0084B1868FFF7FD
:4032C000E7FFA4F50044B4F5004FF6D8034B586800FB04F0FFF7DCFF10BD00BF4C83FF1F08B5034B1B7A03FB00F0FFF7D1FF08BD4C83FF1F70B504460E46074B1D680F2827
:4033000002D90020FFF7D4FF04F00F0455F8240045F8246070BD00BF08ED00E070B504460E46074B1D681F2802D90020FFF7C0FF04F01F04103455F8240045F8246070BD84
:4033400008ED00E038B504460D46072902D90020FFF7AEFF1F2C02D90020FFF7A9FF04F01F0000F1604000F564406D01EDB2057038BD00BF024A136843F0020313607047A0
:4033800010E000E008B5FFF7F5FF034A136843F00103136008BD00BF10E000E020F07F40014B1860704700BF14E000E0012805D1054A136843F0040313607047024A1368FF
:4033C00023F004031360704710E000E0024B1868C0F30040704700BF10E000E010B5FFF7F5FF01280BD107E0054B03EB84035B6803B19847013400E00024042CF4D910BDFA
:403400001089FF1F0022014B1A60704718E000E008B5002305E00F4A02EB8302002151600133042BF7D90F200B49FFF763FF0120FFF7BCFF094BDB680948A0FB03308009DD
:40344000FFF7ACFFFFF7DEFF4FF40042054B1A6008BD00BF1089FF1FDD3300004C83FF1FD34D621000E100E008B5054B9B6923B9FFF7CEFF0122024B9A61FFF783FF08BDA6
:403480001089FF1F024B03EB80035868596070471089FF1F024B03EB80004068704700BF1089FF1F134B1B78DBB20360124A127843EA02230360114A127843EA02430360EA
:4034C0000F4A127843EA026303600E4B1B78DBB243600D4A127843EA022343600B4A127843EA024343600A4A127843EA02634360704700BF0301004904010049EC46004078
:40350000020100490101004900010049050100490601004910B50123114A137081210E3A11700821023211701132137000240D4B1C704FF400420C4B1A600F200721FFF78A
:4035400001FF0F200949FFF7E9FE094B1C70094B1C70094B1C70094B1C70094B1C8010BDD6490040DC49004080E100E0493600009A8AFF1FA48AFF1F9B8AFF1FA08AFF1F13
:40358000988AFF1F08B5FFF78BFE084A137843F0040313701032137843F004031370FFF783FE4FF40042024B1A6008BDA543004000E100E008B5054B1B7823B9FFF7AAFFDF
:4035C0000122024B1A70FFF7DDFF08BD2C89FF1F4FF40041054B1960054A1078137803F01003DBB21370034B1960704780E100E0A48AFF1F00E100E010B44FF400440B4B35
:403600001C6032B113460A4A13600A4B18800A4B19800023094A1370094A13704FF40042084B1A605DF8044B704700BF80E100E09C8AFF1FA28AFF1F988AFF1F9B8AFF1FA3
:40364000A08AFF1F00E100E0654B1B78DBB2654A137013F0080F32D0634B1B7813F0010F1CD0624A1378DBB261490968CB5CDBB25D490B7014215A4B19701378DBB25D4A0D
:40368000137013780133DBB213705B4A137843F0110313700822594B1A708EE01022504B1A70554A137843F0120313700122534B1A70534A137843F0100313707DE013F010
:4036C000010F7AD04D4A1278D2B2042A1ED0082A3AD0012A68D1444B1B78DBB2414A5370484A128892B293420CD210223C4B1A703C4B5B783D4A13703E4A137004223F4B8D
:403700001A705AE00022364B1A7056E0394B1A783D4B1B889BB29A4212D2334B1B7831494B7010222E4B1A70324A1378DBB2304800684978C15413780133DBB213703CE064
:403740000022274B1A7038E013F0020F1ED1294B1A782C4B1B889BB29A4210D2254A1378DBB223490968CB5CDBB21F490B7004211B4B197013780133DBB213701DE0FF22E9
:40378000194B1A700422013B1A7016E0FF22164B1A700022013B1A7017490B7803F0EF030B70164B1A7008E00023144A13700F4A1370104A13700A4A1370094B1B7813F0B1
:4037C000200F0CD00C4A137803F0EF03137000220A4B1A700A4A137803F0EF0313707047D74900402D89FF1FD84900409B8AFF1F9C8AFF1FA08AFF1FA48AFF1F9A8AFF1F84
:40380000D6490040A28AFF1F988AFF1F044A137803F0FB03800000F00400184310707047C051004008B502F0EBF802F0F3F808BD08B5FFF7F7FF08BD30B583B00C468DF8ED
:40384000070002F011F9B4F5006F54D22509C5EB053319010C44A4B202F0DCF900284CD1402021460DF10702012302F029F9044607282FD1234B1B7813F0020FFAD0214B5B
:403880001B7813F0020F06D01E4B1B789B0805D04FF0FF3403E04FF0FF3400E00024E4B9194B402029461A785B7802F06FF9072816D1144B1B7813F0020FFAD0114B1B78E8
:4038C00013F0020F0FD00F4B1B789B0810D04FF0FF340DE0012809D10AE04FF0FF3407E04FF0FF3404E04FF0FF3401E04FF0FF3402F0B6F902E0012400E00424204603B0DC
:4039000030BD00BF22470040808BFF1F38B504460D4602F0A9F815F0800F48D102F07AF9002846D140202146102202F005F907282FD1214B1B7813F0020FFAD01E4B1B78AA
:4039400013F0020F06D01C4B1B789B0805D04FF0FF3403E04FF0FF3400E00024E4B9174B402029461A785B7802F010F9072816D1114B1B7813F0020FFAD00F4B1B7813F01F
:40398000020F0FD00C4B1B789B080DD04FF0FF340AE04FF0FF3407E04FF0FF3404E04FF0FF3401E04FF0FF3402F05AF902E0012400E00424204638BD22470040808BFF1F5C
:4039C00008B50222054B1A6001200549FFF7A6FC01200721FFF7B6FC08BD00BF80E100E0BD3A000010B50224064B1C6000F0A0F8A0F5004000B2044B1B68044A14601844B1
:403A000010BD00BF80E100E03089FF1F00E100E038B505460224054B1C604FF4004000F081F8034B1D60034B1C6038BD80E100E03089FF1F00E100E0024B187800F00F00CC
:403A4000704700BF6C64004040F00700014B1870704700BF8C64004008B50F20FFF7F4FFFFF7EAFFFFF71CFC054A137843F010031370FFF719FC0222024B1A6008BD00BF30
:403A80009C64004000E100E008B500F0A3F84FF4004000F047F80022064B1A60064B1B7823B9FFF78DFF0122034B1A70FFF7D4FF08BD00BF3089FF1F2F89FF1F0D4B1B78FC
:403AC000DBB213F0010F06D00B490A6802F5FF427F320A6007E013F0020F04D006490A68A2F500420A6013F0040F02D00022024B1A6070476C6400403089FF1F024A13781E
:403B000043F080031370704774650040014B1870704700BF8D640040014B1878704700BF6D640040014B1880704700BF18680040024B1B78024B188880B270470C6400401E
:403B400098680040014B188880B2704798680040014B1880704700BF58680040014B1880704700BF7868004008B501E0FFF7EAFFFFF7D2FF10F0400FF8D108BD08B5134BE0
:403B80001A7802F0F8021A701A7802F0FC021A70FFF7EAFF4FF40040FFF7DAFF4FF40040FFF7C0FF0020FFF7B1FFFFF7B5FF4FF40040FFF7D3FFFFF773FB054A137843F05C
:403BC00010031370FFF770FB08BD00BF746500409D64004008B5054B1B7823B9FFF7CEFF0122024B1A70FFF789FF08BD3489FF1F08B50122054B1A6000200549FFF78EFB02
:403C000000200721FFF79EFB08BD00BF80E100E0ED3C000010B50124064B1C6000F0A0F8A0F5004000B2044B1B68044A1460184410BD00BF80E100E03889FF1F00E100E09C
:403C400038B505460124054B1C604FF4004000F081F8034B1D60034B1C6038BD80E100E03889FF1F00E100E0024B187800F00F00704700BF6464004040F00700014B18705F
:403C8000704700BF8464004008B50F20FFF7F4FFFFF7EAFFFFF704FB054A137843F010031370FFF701FB0122024B1A6008BD00BF9464004000E100E008B500F0A3F84FF436
:403CC000004000F047F80022064B1A60064B1B7823B9FFF78DFF0122034B1A70FFF7D4FF08BD00BF3889FF1F3589FF1F0D4B1B78DBB213F0010F06D00B490A6802F5FF42C4
:403D00007F320A6007E013F0020F04D006490A68A2F500420A6013F0040F02D00022024B1A607047646400403889FF1F024A137843F08003137070477A640040014B18706D
:403D4000704700BF8B640040014B1878704700BF6B640040014B1880704700BF14680040024B1B78024B188880B270470A64004094680040014B188880B270479468004076
:403D8000014B1880704700BF54680040014B1880704700BF7468004008B501E0FFF7EAFFFFF7D2FF10F0400FF8D108BD08B5134B1A7802F0F8021A701A7802F0FC021A70E7
:403DC000FFF7EAFF4FF40040FFF7DAFF4FF40040FFF7C0FF0020FFF7B1FFFFF7B5FF4FF40040FFF7D3FFFFF75BFA054A137843F010031370FFF758FA08BD00BF7A640040C7
:403E00009B64004008B5054B1B7823B9FFF7CEFF0122024B1A70FFF789FF08BD3C89FF1FF8B5FFF73DFA0546404A137843F0010313701032137843F00103137001273C4BBA
:403E40001F700226943B1E7002F5E2521B32137803F07F0313700020FFF742FA354C237803F0F9032370344A137803F0DF03137023783B4323703846FFF732FA2820FFF758
:403E80002FFA2E4B1A7802F07F021A701A7802F0BF021A702378334323703046FFF720FA237843F0040323700023254A1370013213702846FFF7F8F917200721FFF742FABF
:403EC00017202049FFF72AFA18200721FFF73AFA18201D49FFF722FA15200721FFF732FA15201A49FFF71AFA03200721FFF72AFA03201749FFF712FA04200721FFF722FA65
:403F000004201449FFF70AFA05200721FFF71AFA05201149FFF702FA0C200721FFF712FA0C200E49FFF7FAF9F8BD00BFA54300409D6000409443004012600040F851004051
:403F400084600040414A0000114800003D4A000085490000BD490000F9490000D14C000010B5002304E00124244AD4542344DBB2012BF8D9224B18700023224A1370224A94
:403F80001370224A1370224A1370224A1370224A1370224A1370224B4FF400021A604FF080721A604FF400121A6008221A6010221A6020221A6011B1012906D00BE0194A11
:403FC000137803F0FE0313700AE0164A137843F00103137004E0134A137843F0010313700322114B1A708022203B1A700120FFF74FF904220D4B1A7010BD00BF5C8BFF1F20
:40400000C18AFF1FC48AFF1FE08AFF1FE38AFF1FD88AFF1FE28AFF1FE58AFF1FC08AFF1F00E100E009600040286000401260004038B505460C46064B1B7823B9FFF7F0FE87
:404040000122034B1A7028462146FFF789FF38BD3D89FF1F002304E001210E4AD1540B44DBB2012BF8D900230B4A13700B4A13700B4A13700B4A13700B4A13700B4A137067
:404080000B4A137003220B4B1A708022203B1A70704700BF5C8BFF1FC48AFF1FE08AFF1FE38AFF1FD88AFF1FE28AFF1FE58AFF1FC08AFF1F28600040014B1878704700BF89
:4040C000E38AFF1F064B1B7813F0FF0F05D0044B1878C0B200221A7070470020704700BFE08AFF1F00EB40008000024B18444078704700BFE88AFF1F431EDBB2072B0BD884
:40410000064B00011A18185C00F00F00537843EA0020023880B2704700207047FC5F0040431EDBB2072B3BD8F0B4074600EB40039B001C4C2344DB889BB2C3F500739A4268
:4041400007D900EB40039B002344DA88C2F5007292B200EB40039B00124C2344DB7843EA1223114D04012E192B55D3B2737039B909E0CE5C3D010D4C665501339BB200E0D3
:4041800000239342F5D3430003449B00054A134400225A705A79D2B20001054B1A54F0BC704700BFE88AFF1FFC5F004078600040FE5F0040431EDBB2072B0BD843000344E3
:4041C0009B00054A134400225A705A79D2B20001024B1A54704700BFE88AFF1FFE5F004070B5D9B1054614460E46C8B1082819D8FFF782FFA04203D22846FFF77DFF044642
:40420000002305E02901094A525CF25401339BB2A342F7D32846FFF7CDFF04E0002402E0002400E00024204670BD00BF786000400246002001E0013080B2135C002BFAD118
:40424000704700BF10B4FF2400220EE00A4B9B5C03EB43039B0009490B449B78DBB2834201D1144602220132D2B2012AEED920465DF8044B704700BFB08AFF1FF08AFF1F47
:4042800010B5204C2079FFF7DDFF237813F0800F0ED06378DBB2212B2FD11B4B07221A80C0EBC000194A1044586000F01FFB10BD144B5B78DBB2202B02D0222B10D01EE0C2
:4042C000114A07231380C0EBC00310490B4453600F4A135C43F00103135400F02FFB10BD084B9B780B4A22F81030094A135C43F00203135400F0BAF910BD002010BD00209D
:4043000010BD00BF00600040CC8AFF1F5C83FF1FA88AFF1FBC8AFF1F10B500241F4B1C701F4B1C705C700AE01E4B185DC0B2431EDBB2072B01D8FFF73DFF0134E4B2012C2E
:40434000F2D9194B1B7813F0FF0F1AD0154B1B7813F0FF0F17D0154B1B7813F0FF0F14D0114B1B78DBB2082B11D80E4B1B78DBB2082B0ED80D4B1B78DBB2082B0BD80020D5
:4043800010BD012010BD012010BD012010BD012010BD012010BD012010BD00BF3E89FF1FA88AFF1FB48AFF1FAC8AFF1FB08AFF1F2DE9F8438046224B1B78224AD65CF6B243
:4043C000FFF736FF05460027344606EB46039B001D4A13441B899BB2AB4208D206EB46039B001344B3F808901FFA89F900E0A946304608EB07014A46FFF792FEC9EB05053D
:40440000ADB245B906EB46039B000F4A13441B899BB2994510D14F44BFB204EB44039B00094A13445B7813F0FF0FF6D025B9304600210A46FFF774FE002DC5D1BDE8F883B1
:404440003E89FF1FAC8AFF1FE88AFF1F00B583B002A901F8010D054B1B78054AD05C0122FFF75EFE03B05DF804FB00BF3E89FF1FAC8AFF1F08B5034B1B78034AD05CFFF7FA
:4044800031FE08BD3E89FF1FB48AFF1F08B5034B1B78034AD05CFFF725FE08BD3E89FF1FAC8AFF1F00B583B0064B1B78064AD05C0DF107010122FFF793FE9DF8070003B052
:4044C0005DF804FB3E89FF1FB48AFF1FC37803F0030390F9020000280FDA032B06D002F001030B48C15442F001020EE0C2F380030848C15442F0040207E0032B05D0C2F35E
:4045000040030548C15442F002021046704700BFAC8AFF1FB08AFF1FB48AFF1F1C4B19781C4A13880B449BB2138000230EE01A4A51680978C9B21948C15451680131516068
:404540000133DBB21188013989B21180124A128892B20AB1072BEAD90D4A1278D2B2082A00D05BB10E490A7882F080020A700F210C4A117002210C4A117004E002220949DC
:404580000A7009490A70094A1370014A13707047C08AFF1FC28AFF1FCC8AFF1F00600040568BFF1FE18AFF1FC48AFF1FE48AFF1F0222074B1A708022064B1A700F22064BF5
:4045C0001A700023054A1370054A137001207047C48AFF1F568BFF1FE18AFF1FC08AFF1FE48AFF1F08B5FFF799FF08BD10B4184B197801F00F010239C9B2164A13880B44E1
:404600009BB21380002010E0134B5C68134A125CD2B222705A6801325A600130C0B20139C9B21A88013A92B21A800B4B1B889BB20BB10029E8D10A4B19700A4A137883F0B1
:40464000800313700B22084B1A705DF8044B704729600040C28AFF1FCC8AFF1F00600040E48AFF1F568BFF1FE18AFF1F0623064A1370064A13708022054B1A700022054BB7
:404680001A700120704700BFC48AFF1FE18AFF1F568BFF1FE48AFF1F064B9B6843B1054B9A6810709A6804490988518000229A60704700BFCC8AFF1FC28AFF1F08B5134B03
:4046C0001A78D2B21A701B78DBB213F0800F02D00F4A137008BD0220FFF7DEFF0D4B1B7803F06003202B05D0402B06D043B900F0D5FD06E001F0E4FA03E000F07DFF00E0BC
:40470000002010B90322024B1A7008BD28600040E18AFF1F0060004008B5084B1978084A13880B449BB213800022064B1A700120FFF7B2FF0322044B1A7008BDC08AFF1F31
:40474000C28AFF1FC48AFF1FE18AFF1F08B50B4B1B78DBB2042B06D0062B07D0022B0BD1FFF7DAFF08BDFFF741FF08BD0320FFF793FF0322024B1A7008BD00BFC48AFF1F6B
:40478000E18AFF1F08B50022044B1A700120FFF783FF0322024B1A7008BD00BFC48AFF1FE18AFF1F08B50B4B1B7813F0FF0F07D0084A137843F0800307490B700023137018
:4047C0000022064B1A700120FFF766FF0322044B1A7008BDE28AFF1F08600040C48AFF1FE18AFF1F08B5094B1B78DBB2042B06D0062B07D0022B07D1FFF7F4FE08BDFFF770
:40480000C1FF08BDFFF7CEFF08BD00BFC48AFF1F08B5284B1B78DBB213F0100F48D013F0800F0CD003F00F03012B16D1FFF746FF214B1B7813F0800F11D1012312E013F069
:40484000400F03D0FFF7CEFF01230BE013F0200F07D0FFF77BFF012304E0002302E0002300E0002323B3134B1B7813F0800F1FD1124B1B78124A12781343124A13701278BA
:40488000D2B29A4214D10C4B1B78DBB2094A127812F0800F07D1084B1B78DBB2054A1370137803F00F03044A1278D2B29342EAD108BD00BF28600040E18AFF1F568BFF1F61
:4048C000E48AFF1F296000400022064B1A80064B9B682BB1044A916800230B7092685380704700BFC28AFF1FCC8AFF1F08B50F4B1B889BB213B9FFF75BFE15E002220C4B8E
:404900001A7000220B4B1A70FFF7DEFF0A4AD179937943EA0123054A128892B29A4201D9024A1380FFF7FAFD012008BDCC8AFF1FC48AFF1F568BFF1F0060004008B5042226
:404940000B4B1A7080220B4B1A70FFF7BDFF0A4AD179937943EA0123084A128892B29A4201D9064A13800B22054B1A70012008BDC48AFF1F568BFF1F00600040CC8AFF1FF3
:40498000E18AFF1F0A4A137803F0FE031370094B9B7C094B1B7B03F00303012B04D0064AD37B83F08003D3730122034B5A7370470B600040FC5F0040E88AFF1F0B4A137845
:4049C00003F0FD0313700A4B93F82230094B1B7E03F00303012B04D0064AD37E83F08003D3760122034B5A76704700BF0B600040FC5F0040E88AFF1F0D4A137803F0FB03E9
:404A000013700C4B93F832300B4B93F8243003F00303012B06D0084A92F8273083F0800382F827300122044B83F82520704700BF0B600040FC5F0040E88AFF1F704700BF91
:404A400008B5FFF707FB08BD08B50B4B18780138C0B200F0C9F9094B1B79DBB200EBC30042690749CB5C02EBC3035B68596A0B78044A1380516008BDE38AFF1F0060004039
:404A8000548BFF1FCC8AFF1F08B50D4B18780138C0B200F0A9F90B4B1B79DBB200EBC30042690949CB5C02EBC3035B68DB69597813F8022B42EA012204490A804B6008BD01
:404AC000E38AFF1F00600040548BFF1FCC8AFF1F10B50022194B1A80194B18780138C0B200F082F91749CB78DAB20B79DBB200EBC3004169012B20D81348C35C01EBC30145
:404B00004968531EDBB2022B17D802F10053013B01EBC3000B4A9278D2B211F8333093420BD3406802EB4202920081184C68034B5C60825A1A808A689A6010BDCC8AFF1F12
:404B4000E38AFF1F00600040548BFF1F08B55B4B1A79D2B21B7813F0800F4DD0574B5B78013B052B00F28D80DFE803F0212B3B8B8B03524BDB78DBB2212B09D1FFF764FF1B
:404B80004F4B1B889BB2002B7DD0FFF7AFFE08BD4A4BDB78DBB2222B77D1FFF775FF484B1B889BB2002B72D0FFF7A0FE08BDFFF78FFF434B1B889BB2002B6AD0FFF796FEDD
:404BC00008BD012A67D83D4B9B7813F0FF0F64D13B4901230B803B4B1A444A60FFF786FE08BD012A5BD8364901230B80364B1A444A60FFF77BFE08BD304B5B78DBB20A2B4C
:404C00000DD00B2B2ED0092B4BD1FFF761FF2C4B1B889BB2002B46D0FFF790FE08BD012A43D8264B9B7813F0FF0F40D1234BDB78DBB224498B548B5C2449895CDBB28B42B3
:404C400003D20021214B995409E0204B9B5CDBB2012B04D91B4B9B5CDBB21C498B54FFF705FD08BD012A24D8144B9B78DBB2012B21D8124B9B78DBB213498B54FFF7F6FCAE
:404C800008BD002008BD002008BD002008BD002008BD002008BD002008BD002008BD002008BD002008BD002008BD002008BD002008BD002008BD002008BD00BF006000404A
:404CC000CC8AFF1F648BFF1F5C8BFF1F608BFF1F08B500F0AFFC08BD70B588B0054603AC174E0FCE0FC43368237035B322232B7003236B7001A8FEF7D5FB002402231AE0F4
:404D000008AA224412F81C2C08A901EB121111F8141CE954581C00212954981C02F00F0208AE324412F8142C2A54DA1CA9540134E4B20433DBB2212BE2D908B070BD00BFE9
:404D4000F0D0000010B401223DE0114613010C242148C45402EB42039B00204803445B7913F0FF0F12D002EB42039B0003441B7913F0800F04D01001194B03449C700AE050
:404D80001001174B03440820987004E01001144B0344802098704B000B449B000F480344DC88E4B208010C4901448C71D888C0F30720C871D888C0B20871DB88C3F3072358
:404DC0004B710132D2B2082ABFD9FF22054B1A705DF8044B704700BF70600040E88AFF1FFC5F00400A600040074B1B78074A02EBC30253681A7C824203D903EBC003586931
:404E000070470020704700BFC18AFF1F40D10000F8B5404B1B7813F0FF0F79D03D4B18780138C0B2FFF7E0FF047AC2683A4B1878C0B200236AE01178814264D13749095CEC
:404E4000C9B25578A9425ED1917801F07F01D67806F00306DFF8C8E04D000D44AD000EEB05074FF0000C87F803C092F802C087F804C092F803C00EF805C095883D8192F9A0
:404E80000250002D0DDA012E01D1072700E00D274D000D44AD00224E35446F7101266E700CE0012E01D1052700E009274D000D44AD001B4E35446F7100266E70DFF868E0D7
:404EC0000F010EEB07060125B57001FA05F529448900134D29440D89C5F307250EF807500D89EDB27570CE88F6B20E4D3D44AE71CE88C6F30726EE71CE88F6B22E71C98826
:404F0000C1F30721697108320133DBB2A34292D3F8BD00BFE38AFF1FD88AFF1F548BFF1FE88AFF1F70600040FC5F0040034B1A78034B03EBC2035868704700BFC18AFF1F3F
:404F400040D1000008B5074B18780138C0B2FFF74BFF28B14268127900EBC203586908BD002008BDE38AFF1F2DE9F84300220EE06D4E53009D18AD00741900217155A1708C
:404F8000E1702181A172617061710132D2B2082AEED940B90AE000226449CA546449CA540133DBB200E00023012BF4D9614B1B7813F0FF0F00F0B5805E4B18780138C0B2E7
:404FC000FFF712FF80464368DB7913F0400F05D0594A137843F00103137004E0564A137803F0FE03137098F808704FF0000901266CE0D8F80C50002464E0AB7803F07F0361
:405000009E425CD1314606EB46039B00464803441B899BB2A888834205D206EB46039B00414A134418812B784048C35CDBB26878834244D195F802C03B484B000B449B009D
:4050400000EB030E8EF804C095F803E000F803E0EB7803F0030395F90200002811DA012B02D14FF0070C01E04FF00D0CDFF8B8E04B0058188000704480F805C001234370A4
:4050800012E0012B02D14FF0050C01E04FF0090C25484FEA410E0EEB01039B00034483F805C0194600234B70AB790A2B01D0022B05D1284631464A46FFF708FA814608358B
:4050C0000134E4B2BC4298D30136F6B2082E90D9D8F80C0000220CE0837803F07F0310F8084B03EB43039B0014490B449C700132D2B2BA42F0D3FFF725FF114B186000203E
:4051000001220AE0084C5300991889002144C8800B89184480B20132D2B2082AF2D9FFF711FEBDE8F88300BFE88AFF1F548BFF1FC88AFF1FE38AFF1FE58AFF1FF08AFF1F6D
:40514000DC8AFF1F08B5154B1A7902F07F02531EDBB2072B20D8530013449B0010490B44997841F0010199700021D970597841F0020159701B7913F0800F05D01201094B8C
:4051800013448D229A7004E01201064B134489229A70FFF76BFA08BD002008BD00600040E88AFF1FFC5F0040264B1B7903F07F035A1ED2B2072A43D810B55A001A449200EA
:4051C00021490A44917801F0FE0191700021D17019017F241D484454517801F0FD015170127912F0800F14D003EB4302920016490A445278D2B2012A05D11B0102461A44E5
:405200000C23937019E01B01104A1A440D23937013E003EB430292000B490A445278D2B2012A05D11B01094A1A440823937004E01B01064A1A4409239370FFF717FA10BDE7
:405240000020704700600040E88AFF1FFC5F004010B50E4B1C79E4B20D4B18780138C0B2FFF7C2FD43681B799C4201D9022C0AD8084A135DDBB208490B55044B9B78DBB205
:405280001355012010BD002010BD00BF00600040E38AFF1F548BFF1FC88AFF1F10B5964B1B78DBB20021954A118013F0800F00F0B380914A5278D2B20A2A00F27981DFE838
:4052C00012F06F00770177017701770177010B00770198007701A000874BDB78DBB2012B09D1FFF723FE4268844B5A6012221A80FFF7FCFA10BD804BDB78DBB2022B13D16D
:405300007D4B9878FFF770FD002800F0538142687A4B5A605A68D1785A68927842EA01221A80FFF7E3FA10BD734BDB78DBB2032B05D032E00A7811440133DBB201E000236E
:405340006F496D4A9278D2B29A4203D90A7812F0FF0FEFD1684B9B78DBB2EE2B00D16949654B9B7813F0FF0F0BD0634B9B78DBB2654A127C934204D1644C2046FFF7ACFC9F
:4053800021460B7813F0FF0F00F016810B785B4A13805160FFF7AAFA10BD00F091FC10BD13F0030317D0022B40F0088153490B80514B1B7903F07F0303EB43039B00544A3F
:4053C00013449A78D2B2534B1A7000225A704B60FFF78CFA10BD494902230B804E4B1A78D2B24C4B1A7000225A704B60FFF77EFA10BD424B01221A80484A5A60FFF776FAD8
:4054000010BD3E4A012313803B4B1B7944490B445360FFF76BFA10BD374A5278013A0A2A00F2CE80DFE812F04B00CC009700CC000B00CC00CC00CC001300CC0030002E4B5B
:405440009B78DBB2374A1370FFF710F910BD2A4B9B7803F0FF041BB1601EC0B2FFF7C4FC04B110B9002C40F0AD802C4B1B78DBB29C4206D0294B1C7001202B4B1870FFF765
:4054800073FDFFF7F3F810BDFFF7E2FE002800F09B80194A1379DBB21279D2B223490A70234AD25C1E49C95CD3B28B4204D001221D4B1A70FFF7ACFCFFF7D8F810BD03F0CE
:4054C0000303012B36D04BB1022B7FD10A4B9B7813F0FF0F7CD1FFF767FE10BD064B9B78DBB2012B76D10C4A137803F0FD031370FFF7BCF810BD00BF00600040CC8AFF1F08
:40550000E0D100002CD10000C4D20000848BFF1FE88AFF1F4089FF1FE58AFF1FE38AFF1F548BFF1FE28AFF1FE08AFF1FD88AFF1FC88AFF1F2D4B1B79DBB2012B4CD82B4B0D
:4055400098781B79DBB22A49CA5C22EA0002CA54FFF78CF810BD03F00303012B17D04BB1022B3BD1214B9B7813F0FF0F38D1FFF7E9FD10BD1D4B9B78DBB2012B32D11D4ACD
:40558000137843F002031370FFF770F810BD174B1B79DBB2012B27D8144B98781B79DBB21349CA5C22EA0002CA54FFF75FF810BD002010BD002010BD002010BD002010BDC0
:4055C000002010BD002010BD002010BD002010BD002010BD002010BD002010BD002010BD002010BD002010BD002010BD00600040588BFF1FE58AFF1F08B50B4B1B7813F0A5
:40560000800F0CD0084B5B78DBB2012B09D1074B074A5A6012781A80FFF768F908BD002008BD002008BD00BF00600040CC8AFF1F04D10000024B1878C0F38010704700BFA1
:405640008F4500400422014B1A60704700E100E008B5FDF725FE0B4A137843F02003137002F20112137843F010031370A2F58272137843F010031370FDF716FEFFF7E2FF0C
:4056800008BD00BF966400400422014B1A60704780E100E0014B1878704700BF6765004010B5FFF7F1FF064B1B78064A147804F040041C4300231370FFF7C4FF204610BD56
:4056C000636400407E8BFF1F034B1B7813F0040FFAD0024B18707047676500404765004010B5FFF7D1FF134B1B78134A1278DBB2934214D0114B1B7813F0FF0F0CD10D4A5A
:4057000013780133DBB213701378DBB20F2B06D90022084B1A7002E00022084B1A70054B1B78DBB2064AD45CE4B2FFF78BFF204610BD00BF7D8BFF1F7C8BFF1F688BFF1F35
:405740006C8BFF1F074B1B78DBB213F0020F04D113F0040F03D001207047002070470420704700BF6765004008B501E0094B1B78094B1B7813F0200FF8D1FFF785FF002377
:40578000064A1370064A1370064A1370FFF75AFF08BD00BF5765004063640040688BFF1F7D8BFF1F7C8BFF1F08B5FDF779FD064B1A7842F001021A701A7802F0FE021A7067
:4057C000FDF772FD08BD00BF9765004070B506460C46002506E0705DFFF776FF0135EDB2013CE4B2002CF6D170BD00BF08B501E00A4B1B780A4B1B7813F0200FF8D1FDF79C
:405800004FFD084B1A7842F001021A701A7802F0FE021A70FDF748FD08BD00BF57650040636400409765004010B50F22104B1A700422104B1A6002200721FDF783FD0220B8
:405840000D49FDF76BFDFFF7D1FF00240B4B1C700B4B1C700B4B1C70FFF71CFFFFF720FF094B1C702022A3F582731A7010BD00BF8664004080E100E0A9580000688BFF1F7E
:405880007D8BFF1F7C8BFF1F8765004008B5054B1B7823B9FFF7C8FF0122024B1A70FFF7D7FE08BD4489FF1F204B1A7820490B7803F0400313430B7031E01E4B1A78D2B243
:4058C0001D490B780133DBB20B700B78DBB20F2B02D90021184B1970174B1B7817490978DBB28B420ED115490B780133DBB20B700B78DBB20F2B02D90021104B19700121D9
:405900000F4B19700C4B1B78DBB20E49CA54074B1A7807490B7803F0400313430B70044B1B7813F0200FC8D1704700BF636400407E8BFF1F576500407C8BFF1F7D8BFF1F42
:40594000688BFF1F6C8BFF1F014B1870704700BF7564004010B500F087F800F05BF9D0B900F09AF90446072812D102E00120FDF7B7FC0A4B1B7813F0020FF7D0074B1B786C
:4059800013F0020F04D0054B1B789B0800D1002400F066F900E00424204610BD2247004010B500F061F800F035F910BB012000F013F9072818D11048022100F067F8022831
:4059C0000AD102E00120FDF78BFC0C4B1B7813F0020FF7D0002409E0084B1B7813F0020FE9D04FF0FF3401E04FF0FF3400F038F900E00424204610BD808BFF1F22470040D6
:405A000008B5FFF7A7FF034610B9FFF7C9FF0346184608BD08B5FDF743FC0F4A137843F0080313701032137843F008031370C8220A4B1A700A4A137843F0100313701032FB
:405A4000137843F010031370064B1B7813F0200FFAD0FDF729FC08BDA043004001470040AC4300400047004008B5FDF719FC064A137843F0080313701032137843F0080346
:405A80001370FDF711FC08BDA043004070B506460D4600240CE00120FDF722FC064B1B7813F0010FF7D0054B1B7833550134E4B2AC42F3D3204670BD2247004020470040E8
:405AC00030B43E2801D81F2B03D93F2827D90F2B27D8174C247814F0020F24D0154CB6252570D4252570012525700234247814F0020F1AD10F4C2070C1F300202070C9B2FF
:405B00002170591EC9B22170002104E0545C094804700131C9B29942F8D3072006E0012004E0012002E0042000E0092030BC70472247004020470040124B1B7813F0020F4B
:405B400019D010B4104BB6241C70D5241C7002241C7002331B7813F0020F0ED10A4B1870002304E0CC5C0848047001339BB29342F8D3072002E00420704709205DF8044B23
:405B8000704700BF224700402047004030B4104C247814F0020F15D00E4CB6252570D8252570052525700234247814F0020F0BD1084C2070080A2070C9B2217022702370B4
:405BC000072002E0042000E0092030BC704700BF22470040204700400C4B1B7813F0020F0FD00B4BB6221A70E1221A700E221A7002331B7813F0020F05D1054B1870072030
:405C00007047042070470920704700BF224700402047004010B5FDF743FB0F4B1B78A3B901220D4B1A700D4B1B6813F0010F0ED00A4A136823F00103136000BF00BF00BF3C
:405C40000122054B5A60002402E0042400E00024FDF72AFB204610BD4889FF1F0400084008B5FDF71DFB0A4B00221A705B68012B0AD1084A136843F00103136000BF00BFB5
:405C800000BF0022024B5A60FDF70EFB08BD00BF4889FF1F04000840074B1B7813F0020F08D0064BB6221A70E0221A700D221A70072070470420704722470040204700406E
:405CC00008B5144B1B7803F00303012B02D0022B04D00FE00F4B1B79DBB20CE00D4B1B7903F07F0303EB43039B000B4A13449B78DBB200E00023094A1268D35C022B04D02B
:405D0000032B05D1FEF722FF08BDFEF7B9FA08BD002008BD00600040F08AFF1FDC8AFF1F30F0004001D102207047A0F50003B3F1FE4F01D204207047054B421E9A4201D8CF
:405D400003207047A0F1FF40B0FA80F040097047FEFF7F002DE9F04F8BB01F4680468946164600F071F9DFF8D8A204469AF900300D46013304D03046394600F085FF20B9A8
:405D8000204629460BB0BDE8F08F4046494600F07BFF834660BB304639460022002301F0D7FC0028ECD09AF900309E4C01229E4900208DE814005A1CCDF820B0CDE902893E
:405DC000CDE90467CDE906010DD0022B0BD0684600F086FF002800F09380089B1BB102F07BF8089B0360DDE906010BB0BDE8F08F404649460022002301F0AAFCF8B13046FC
:405E000039460022002301F0A3FC834600284ED084489AF900300121002200240025CDE90289CDE90467CDE90645019000910892002BCCD07C4B0022CDE90623D3E7204615
:405E4000294600F01BFF834600285ED0204629460022002301F07CFC002891D04046494600F00CFF00288BD03046394600F006FF002885D09AF900306A48042100220024A4
:405E80000025022BCDE90289CDE90467CDE9064501900091089200F08880684600F020FF002800F08280089B002B9CD097E73046394600F0E3FE00283FF462AF30463946C3
:405EC0000022002301F04EFC00283FF459AF55499AF800300122CDF820B0CDE90289CDE9046701910092002B3CD050490020022BCDE9060130D101F0EFFF21230360D2E707
:405F000001F0EAFF2123036067E74046494600F0B5FE00289AD03046394600F0AFFE002894D02046294600F0AFFE00BB3D4A9AF8004001230890CDE90289CDE904670192F3
:405F400000937CB10020002102460B4601F0C2FA022CCDE90601CED0684600F0C1FE0028A1D1C8E700220023CDE90623F4E72D499AF900300322CDF820B0CDE90289CDE9C2
:405F8000046701910092ABB9294D4FF060444046494600220023CDE9064501F0E3FB50BB9AF90030022B7FF478AF01F095FF2223036078E71F4D0024404649460022002360
:405FC000CDE9064501F0CEFB0028E9D000221A4B3046394601F054F904460D4600F088FE22462B4601F0B4FB0028D9D10F4B0022CDE90623D4E700220F4B3046394601F075
:406000003FF904460D4600F073FE22462B4601F09FFB0028C4D1094B4FF06042CDE90623BEE700BFD8D200000000F03F0000F0FFFFFFEF470000F07F0000E03FFFFFEFC753
:406040007883FF1F000000002DE9F04F144623F00047024657EA04000E468FB01D469C46214634D06E4B26F0004A9A459346B14626DC24D09F4223DC694B9F4200F08F80FC
:40608000B9F1000FC0F28F804FF0000879BB644B9F4200F0A580634B9F4267D0BCF1804F00F0E283604B9C4521D1B9F1000F1EDB104631460FB0BDE8F04F00F015BD62B13A
:4060C0000AF1404000F5801050EA0B0007D10346544918460FB0BDE8F08F5745CCDD53480FB0BDE8F04F00F0FDBD4FF0000810463146CDF808C0009200F0BCFD009ADDF8E4
:4061000008C0BBF1000F20D04FEAD97909F1FF3958EA09037AD0464B9F4240F38F8003F104739F4240F31084424B9A4540F39283BCF1000F40F3928337A1D1E900010B4634
:40614000024601F09DF80346C3E7BAF1000F04D0344B29F0404E9E45D6D1BCF1000FC0F2B683B9F1000F08DB0346B2E7BCF1000FC0F2528413463146ABE70AF1404A0AF5D1
:40618000801A58EA0A0340F05E8402460B4600F0C3FE0B46024601F09DF9034699E700293FF46EAF8CE7244B9F422CDCA3F154739F427FF769AF40F213403B15834240F3D6
:4061C0004B84C3F58663033321FA03F000FA03F38B427FF459AF00F00100C0F1020855E70AF1404303F5801353EA0B0300F03983104B9A4540F36483BCF1000FC0F22E8358
:406200002346294665E74FF002083FE7104631463346BCE7AFF300809C7500883CE4377E0000F07F0000F03F0000E03F3CC000000000E041FFFFEF3FFFFF3F43BAF5801F7E
:406240004FF0000205DACA4B01F01AF88A466FF034024FEA2A53C74ECAF3130AA3F2FF334AF07F571344B2450C9347F4401740F3D083C14B9A4540F307840026B4460C9B90
:40628000A7F5801701330C933946BC4B4FEACC0C6344D3E900AB52465B46CDF834C0CDE9060100F039FE52465B46CDE90801DDE9060100F033FE02460B460020B04901F0D4
:4062C00009F902460B46DDE90801CDE90A2300F0D7FF02460B46CDE90223CDE904237B1043F0005303F5002399190020002306460F460293DDE902231046194632463B464A
:40630000CDE9000100F0BCFF02460B46DDE9080100F002FE5246CDE908015B463046394600F0FAFD02460B46DDE9060100F0F4FD02460B46DDE9000100F0A2FF02460B46FE
:40634000DDE9080100F0E8FDDDE90A2300F098FFDDE90423CDE906011046194600F090FF02460B4606460F4600F08AFF6EA3D3E9002382468B463046394600F081FF6CA371
:40638000D3E9002300F0CAFD32463B4600F078FF69A3D3E9002300F0C1FD32463B4600F06FFF67A3D3E9002300F0B8FD32463B4600F066FF64A3D3E9002300F0AFFD324621
:4063C0003B4600F05DFF62A3D3E9002300F0A6FD02460B465046594600F052FFDDE9042306460F46DDE9000100F098FDDDE9062300F046FF32463B4600F090FDDDE90067A9
:4064000082468B4632463B463046394600F038FF00225C4BCDE9080100F080FD52465B4600F07CFD02980F460646DDE9000132463B4600F025FF32463B46CDE90001DDE992
:40644000060100F01DFF0022CDE906014D4B3046394600F061FDDDE9082300F05DFD02460B465046594600F057FDDDE9042300F007FF02460B46DDE9060100F04FFD8246B5
:406480008B46DDE9000152465B4600F047FD32A3D3E9002302980F46064600F0F1FE30A3D3E90023CDE904013046394600F0E8FEDDE90023CDE906013046394600F02CFD1D
:4064C00002460B465046594600F026FD26A3D3E9002300F0D5FE02460B46DDE9060100F01DFDDDF834C0284BCDF818C06344D3E9002300F013FDCDE900010C9800F05AFEDE
:4065000006460F46DDE90401204BDDF818C09C44DDE90023DCE900AB00F000FD52465B4636E000BFAFF30080EF4E454A287ECA3F65DBC9934A86CD3F01411DA96074D13FA2
:406540004D268F515555D53FFFAB6FDBB66DDB3F033333333333E33F000000E009C7EE3FF5015B14E02F3EBEFD033ADC09C7EE3F000040438E98030079B60B0000D300009C
:406580000000F03F00000840F0D20000E0D20000CDE906AB00F0C2FC32463B4600F0BEFC029832463B4682468B4600F0B5FCDDE9062300F0B1FCDDE9042300F0ADFC024611
:4065C0000B46DDE9000100F0A7FCCDE9020108F1FF3858EA09030CBFD54BD64B0022CDE904230023CDE900450093DDE90067204632463B46294600F08FFC52465B4600F05E
:406600003FFEDDE90223804689462046294600F037FE02460B464046494600F07FFC04460D465246304639465B46CDE9024500F027FE06460F4620463B462946324600F04E
:406640006DFCBD4B824699428946884640F3138101F13F4303F5E003034340F0E581A0A3D3E90023DDE9020100F058FC324604460D463B465046494600F04EFC02460B46BA
:406680002046294601F08CF8002840F0CD814C462015A0F2FE304FF4801101414144C1F30A50A64CA0F2FF35C1F3130BC0F5826003302C414BF4801B21EA040300224BFAA6
:4066C00000FB3946304600F027FC06460F46DDE902018BEAE87B0BEBD87B32463B464FEA0B5A00F01BFC80A3D3E90023002420460D4600F0C5FD3246804689463B462046E9
:40670000294600F009FC02460B46DDE9020100F003FC77A3D3E9002300F0B2FD76A3D3E9002306460F462046294600F0A9FD02460B463046394600F0F1FB06460F46324685
:406740003B464046494600F0E9FB42464B4604460D4600F0E1FB02460B463046394600F0DBFB2246804689462B462046294600F087FD63A3D3E9002306460F4600F080FD2F
:4067800061A3D3E9002300F0C7FB32463B4600F077FD5FA3D3E9002300F0C0FB32463B4600F06EFD5CA3D3E9002300F0B5FB32463B4600F065FD5AA3D3E9002300F0AEFBC9
:4067C00032463B4600F05CFD02460B462046294600F0A2FB06460F4632463B462046294600F04EFD0022CDE900014FF080433046394600F091FB02460B46DDE9000100F016
:4068000069FE424606460F464B462046294600F037FD42464B4600F081FB02460B463046394600F079FB22462B4600F075FB02460B4600203F4900F06FFB8A44BAF5801FD7
:406840000246C0F227815346DDE9040100F018FD03463EE4BCF1000FFFF66EAC0023194637E40B46334934E433461046314600F007FD03462DE4324B21F000449C4240F3DE
:40688000FA80304B0B4403430CD132463B4600F043FB02460B46DDE9020100F06DFF00283FF4F6AE20A3D3E90023DDE9040100F0E7FC1DA3D3E9002300F0E2FC034608E4AB
:4068C000BCF1000FCADA234605F1004101E402460B460020174900F0FDFD42E4AFF30080FE822B654715973C00000000432EE63FEF39FAFE422EE63F396CA80C615C20BEEA
:40690000D0A4BE726937663EF16BD2C541BDBB3E2CDE25AF6A56113F93BDBE166CC1663F3E5555555555C53F59F3F8C21F6EA5010000F0BF0000F03FFFFF8F40FFFF0F00C5
:40694000FFCB904000346F3F634B9A4582DD634B9A453FF7EDAB0022604B00F0DDFA54A3D3E9002306460F4600F08AFC52A3D3E90023CDE900013046394600F081FC32466E
:40698000CDE902013B463046394600F079FC002282468B4630463946514B00F071FC02460B4647A1D1E9000100F0B6FA32463B4600F066FC02460B4600204A4900F0ACFA91
:4069C00002460B465046594600F05AFC3EA3D3E9002300F055FC02460B46DDE9020100F09BFA06460F46DDE9000132463B4600F095FADDE90023002082468B4600F08CFAA3
:406A000002460B463046394600F086FACDE90201DDE50026B44637E4334600202F4900F059FD0346FFF755BB29A3D3E90023DDE9040100F025FC26A3D3E9002300F020FCC1
:406A40000346FFF746BBB8F1010F03467FF441AB01F10041FFF73DBB00297FF446ABC3F58263033347FA03F000FA03F3BB4217D08846FFF710BB1B4B9C423FF709AEDDE966
:406A80000023924693462EE64FF480264FF0010CFFF7FABB5A4600F0BBF902460B46D3E600F00100C0F10208FFF7F5BAAFF30080000000604715F73F44DF5DF80BAE543E50
:406AC000555555555555D53FFE822B654715F73F9C7500883CE4377EFEFFEF3F0000F03F0000D03F0000E03F2DE9F041604E0C46B6460E40764505460B4600F098800029D3
:406B0000024676DD5FEA215E00F08180AEF2FF3EC3F313031EF0010F43F480135ED100273C46D10F01EB43034FEA6E0E520016204FF4001165189D424FEAD2764FEA42029B
:406B400002DC5B1B6C180F44013806EB43034FEA5101EFD1844620264FF000410AE0A34220D0D50F013E4FEA510105EB43034FEA420220D09C420CEB0105F0DA002D05EBCD
:406B8000010C09DBA0461B1B954288BF03F1FF334446521B0844E4E7BCF1000FF2DB04F10108F0E7954217D8002D05EB010C48DB98460023ECE7134315D140087B1003F12E
:406BC0007F5303F50013FA0703EB0E57394648BF40F00040BDE8F0811C46C2E7D10F01EB430352009BE7411C31D000F001031844E3E721F000460643ECD079BB8E46D30AAE
:406C0000AEF1150E5205002BF9D0DC0222D400215B00D80201F10101FAD5C1F10100C1F1200422FA04F4234386448A406EE702460B4600F025FB2A46234600F06FF9BDE8EF
:406C4000F081BCF1000FAADAA0460023A0E701373046B3E7202401200021E2E702460B4600F05AF902460B4600F034FCB2E700BF0000F07F21F00041704700BF41F00041A6
:406C800001F58010C00F704710B431F0004408D0114BA1F580129A4208D804205DF8044B704718B902205DF8044B704701F1FF41094B01F5E0019942EFD9B4F5801F01D29F
:406CC0000320EBE7054B9C4201D00020E6E7B0FA80F04009E2E700BFFFFFDF7F0000F07F0020704700200149704700BF0000F87FF0B5C1F30A5EAEF2FF35132D83B002467F
:406D00000B460C464FEAD17607462EDC002D48DB3C49294101EA030010432BD049080B4053EA02070CD04FF48023132D24EA010143FA05F444EA01040CBF4FF00047002789
:406D40003149234601EBC606D6E900453A462046294600F0E3F8CDE90001DDE9000122462B4600F0D9F803B0F0BD332D06DDB5F5806F43D01046194603B0F0BDAEF2134ED7
:406D80004FF0FF3121FA0EF10142F3D049080142D6D04FF0804320EA010143FA0EF70F43CEE721F000410143E4D0C3F3130141EA000CCCF1000141EA0C0C13495C0C4FEA6A
:406DC0001C3C0CF4002C640401EBC6014CEA0403D1E900452046294600F0A0F8CDE90001DDE9000122462B4600F096F8024621F0004141EAC67310461946BDE700F08EF8B9
:406E0000BAE700BFFFFF0F0010D3000000000000F8B5C1F30A5604460D460B46174616BB21F00043034332D00022314B00F028FA304A044697420D460B4637DB40F2FE72E4
:406E4000C1F30A56363E3E44964215DD24A1D1E9000122462B4600F053F821A3D3E9002300F00EFAF8BD40F2FF72964224D040F2FE723E449642E9DC002E09DD23F0FF43C1
:406E800023F4E00343EA065520462946F8BDF8BD16F1350F15DA4CF250339F42D6DC12A1D1E9000122462B4600F02AF80EA3D3E9002300F0E5F9F8BD02460B4600F02EF868
:406EC000F8BD23F0FF4323F4E003363643EA0655204629460022084B00F0D2F9F8BD00BF9C7500883CE4377E59F3F8C21F6EA50100005043B03CFFFF0000903CAFF300800F
:406F000003F0004321F0004243EA0201704700BF81F0004102E000BF83F0004330B54FEA41044FEA430594EA050F08BF90EA020F1FBF54EA000C55EA020C7FEA645C7FEA4A
:406F4000655C00F0E2804FEA5454D4EB5555B8BF6D420CDD2C4480EA020281EA030382EA000083EA010180EA020281EA0303362D88BF30BD11F0004F4FEA01314FF4801C6B
:406F80004CEA113102D0404261EB410113F0004F4FEA03334CEA133302D0524263EB430394EA050F00F0A780A4F10104D5F1200E0DDB02FA0EFC22FA05F2801841F100013D
:406FC00003FA0EF2801843FA05F359410EE0A5F120050EF1200E012A03FA0EFC28BF4CF0020C43FA05F3C01851EBE37101F0004507D54FF0000EDCF1000C7EEB00006EEB5D
:407000000101B1F5801F1BD3B1F5001F0CD349085FEA30004FEA3C0C04F101044FEA445212F5800F80F09A80BCF1004F08BF5FEA500C50F1000041EB045141EA050130BDFB
:407040005FEA4C0C404141EB010111F4801FA4F10104E9D191F0000F04BF01460020B1FA81F308BF2033A3F10B03B3F120020CDA0C3208DD02F1140CC2F10C0201FA0CF099
:4070800021FA02F10CE002F11402D8BFC2F1200C01FA02F120FA0CFCDCBF41EA0C019040E41AA2BF01EB0451294330BD6FEA04041F3C1CDA0C340EDC04F11404C4F12002EB
:4070C00020FA04F001FA02F340EA030021FA04F345EA030130BDC4F10C04C4F1200220FA02F001FA04F340EA0300294630BD21FA04F0294630BD94F0000F83F4801306BF43
:4071000081F480110134013D4EE77FEA645C18BF7FEA655C29D094EA050F08BF90EA020F05D054EA000C04BF1946104630BD91EA030F1EBF0021002030BD5FEA545C05D1AF
:407140004000494128BF41F0004130BD14F580043CBF01F5801130BD01F0004545F0FE4141F470014FF0000030BD7FEA645C1ABF194610467FEA655C1CBF0B46024650EAF8
:40718000013406BF52EA033591EA030F41F4002130BD00BF90F0000F04BF0021704730B54FF4806404F132044FF000054FF0000150E700BF90F0000F04BF0021704730B5E8
:4071C0004FF4806404F1320410F0004548BF40424FF000013EE700BF42004FEAE2014FEA31014FEA02701FBF12F07F4393F07F4F81F06051704792F0000F14BF93F07F4F56
:40720000704730B54FF4607401F0004521F0004120E700BF50EA010208BF704730B54FF000050AE050EA010208BF704730B511F0004502D5404261EB41014FF4806404F196
