:400000000080002011000000611500006115000008B5044B1A6803F53F5302331A6001F0B9FA00BFFA46004010B5054C237833B9044B13B10448AFF300800123237010BDD7
:400040001088FF1F00000000207C0000084B10B51BB108480849AFF300800848036803B910BD074B002BFBD0BDE81040184700BF00000000207C00001488FF1F0881FF1FEB
:400080000000000008B562B600F062F900F06AF900F06CF900F06CF900F032F901F01CF800F094FA00F0D6F900F0D8FC1E481F4900F096FF00F036FE01F0B0F800F022F9E7
:4000C00001F010F800F090FA00F0F0F900F0D4FC00F0C8FF00F036FE01F0A2F8144801F017FE144801F014FE134801F011FE134801F00EFE002002F0C3F8002000F0F4FC4D
:40010000002000F005FD012002F0BAF800F0FCF800F0DCF900F0A8FF00F096FE00F02AF9002002F0ADF8EEE75D06000061060000287C00006C7C0000A07C0000B87C0000DF
:40014000B8B929B919704FF4FA6040F2DC5305E00121197040F2DC504FF47A73002105E022F811300131C9B20A339BB28342F7D9704729B919704FF47A7040F2DC5305E0C5
:400180000121197040F2DC504FF4FA63002105E022F811300131C9B20A3B9BB28342F7D2704700BF10B4002308E050F8232051F82340224441F823200133DBB2322BF4D91F
:4001C0005DF8044B704700BF10B4002307E050F8234094FBF1F442F823400133DBB2322BF5D95DF8044B70472DE9F045B7B080460E4615469A463E9F00211A460DF10B03A3
:40020000FFF79EFF03A80021CC2205F09DFC00240DE09DF80B10009540460A22534600F097FC284603A9FFF7BDFF0134E4B2B442EFD303A831462A46FFF7C6FF03A8002157
:40024000CC2205F081FC404601213F9A0DF10B03FFF776FF00240DE09DF80B10009740460A223F9B00F074FC384603A9FFF79AFF0134E4B2B442EFD303A831463A46FFF70E
:40028000A3FF37B0BDE8F0852DE9F04F83B0184C04F1CC0B04F59A7ACDF800A004F50079CDF804900020052122465B46FFF79CFF04F51A7804F54D7704F56776009604F519
:4002C0008D6501950120052142463B46FFF78CFF2046594652464B4600F096FC4046394632462B4600F0D6FC03B0BDE8F08F00BF2C88FF1F704700BF704700BF704700BF7B
:40030000704700BF704700BF10B500F079F9044600F002039BB20BB100F034F904F004039BB20BB1FFF7B0FF04F008039BB20BB1FFF7E2FF04F010039BB20BB1FFF7DAFFDE
:4003400004F02004A4B20CB1FFF7D8FF10BD00BF08B5034800214FF4807205F0F5FB08BDE88DFF1F08B501F0B9FC08BD704700BF704700BF08B500F0CBFE08BD000000000F
:4003800070B504460E46036B9847A060E368C31A2361E06004F12005184605F025F90146284600F069FF60610F4905F071F90546304605F015F90146284605F01DFA014665
:4003C00004F1280000F058FFA06104F0EDFC04A3D3E9002304F03CFD04F0FCFFE06170BDC7711CC7719C0A4000007A44AFF3008070B5A0B0044680691DA9032200F052FF85
:400400001AAE60693146032200F04CFF17ADE0692946032200F046FF00960195A3680293E36803932369049307A8094922461DAB05F0FEFF07A801F06BFCA56BA669E0691C
:4004400005F0ECFA01B23046A84720B070BD00BFDC7C00002DE9F041114C636B002098470026A660E6602661002565616562DFF83880C4F82080E5620A4FA762A561E56179
:40048000236F304698476664A664E66425652566C4F85C80A56667666565A565BDE8F0810C81FF1F000020410000404010B502F06FF801F055FF044C636B00209847236F2A
:4004C0000020984710BD00BF0C81FF1F70B500F01FFE154A1368C01A506004F043FC0022124B04F03BFFE8B100F012FE0E4B18601B7A2BB901220C4B1A72002001F0D2FA8A
:400500000B4C094E20467168FFF73AFF04F13C0528467168FFF734FF2046FFF769FF2846FFF766FF70BD00BFFC8CFF1F000049400C81FF1F014B9869704700BF0C81FF1F38
:40054000014B586D704700BF0C81FF1F014BD869704700BF0C81FF1F014B986D704700BF0C81FF1F08B5024B1B6B984708BD00BF0C81FF1F08B5024BDB6E984708BD00BFD5
:400580000C81FF1F70B5104C636B002098470026E6602661002565616562A561E561E562A660236F30469847A664E664256525666565A565A56666642046FFF719FF04F1A2
:4005C0003C00FFF715FF70BD0C81FF1F10B5054C204600215E2205F0B7FA00232366A4F8643010BD088DFF1F08B55E205221034A01F00CFC01F0FCFB08BD00BF088DFF1FAB
:40060000024B188800221A80704700BF088DFF1F10B4074CC4F81600C4F81A10C4F81E20C4F82230019BC4F826305DF8044B7047088DFF1F072803D8024B03EB400041850A
:40064000704700BF088DFF1F072803D8024B03EB40004187704700BF088DFF1F002070470020704738B50D46024C05F0FDF96082E58138BD088DFF1F38B50D46024C05F041
:40068000F3F9A082258238BD088DFF1F30B4BDF8084091420AD19C4201D198B211E0E41A04EBD47403EB640080B20AE0401A25B21CB22C1B04FB00F4521A94FBF2F29818F8
:4006C00080B200B230BC704770B584B00C4600218DF80F108DF80E1058B3164605460DF10E02009221461A460DF10F0300F02CFE9DF80F309DF80E0034F9231034F92020D9
:4007000036F8133036F81000009028B2FFF7BEFF80B2A0F5FA639BB24FF62F02934205D9B0F57A7F38BF4FF47A7004E04FF4FA6001E040F2DC5004B070BD00BF10B59CB020
:400740000446406819A9032200F0ACFD6846054919AA238805F06CFE684601F0D9FA1CB010BD00BFFC7C0000F8B507460C46002105F04AF900B3D4F8D850D4F8D460D4F8E4
:40078000DC0004F031FF394604F082FF05F046F9B042B8BF30468542A8BF0546284604F1080104F1E0023323FFF78EFF2080284604F01AFF60602AE03846002105F006F925
:4007C00000B3D4F81852D4F81462D4F81C0204F00BFF394604F05CFF05F020F9B042B8BF30468542A8BF0546284604F5A47104F508723323FFF768FF2080284604F0F4FE1C
:40080000606004E040F2DC532380002363602046FFF794FFF8BD00BF10B59CB00446084619A9032200F03EFD68460549224619AB05F0FEFD684601F06BFA1CB010BD00BF98
:40084000087D000070B58EB003460D46164601A81A491A4605F0ECFD01A801F059FA00241DE08CB1164BA3FB0423DB0803EB83035B00E31A13F0FF0F06D106A8114956F8F0
:40088000242005F0D5FD05E006A80F4956F8242005F0CEFD06A801F03BFA0134E4B26B1E9C42DEDB06A8094956F8242005F0C0FD06A801F02DFA0EB070BD00BF147D0000EC
:4008C000CDCCCCCC1C7D0000247D00002C7D000070B58EB003460D46164601A81A491A4605F0A6FD01A801F013FA00241DE08CB1164BA3FB0423DB0803EB83035B00E31AAB
:4009000013F0FF0F06D106A8114936F8142005F08FFD05E006A80F4936F8142005F088FD06A801F0F5F90134E4B26B1E9C42DEDB06A8094936F8142005F07AFD06A801F038
:40094000E7F90EB070BD00BF147D0000CDCCCCCC347D00003C7D0000407D000010B50C4601F0D6F90C48332104F10802FFF76AFF0A48332104F1E002FFF7AAFF0848332167
:4009800004F5A472FFF75EFF0648332104F50872FFF79EFF10BD00BF487D0000547D0000647D0000747D00002DE9F04180460F460488A31A002B03DA6642B61AB6B201E0C5
:4009C000A61AB6B2B6FBF7F600250AE0A41BA4B2D8F8943220469847012001F063F80135ADB2BD42F2D3BDE8F08100BF2DE9F8438046894602EB8202D6B2751DD0F8943298
:400A0000008898470027002411E0FFF75FFD042C08D9C847104904F03BFE0146384604F02FFD07460A2001F03DF80134E4B2A3B2AB42EAD3384604F0F1FF90FBF6F4B8F848
:400A40000050204604F0D0FD01462846FFF7E4FE2046BDE8F88300BF0000C84210B5054CD4F8883201209847D4F820350120984710BD00BF8481FF1F10B50D4CD4F8883213
:400A800000209847D4F88C329847D4F8943240F2DC509847D4F8203500209847D4F824359847D4F82C3540F2DC50984710BD00BF8481FF1F10B5044C2146FFF755FED4F831
:400AC00094322088984710BD8481FF1F10B5054C04F52671FFF748FED4F82C35B4F89802984710BD8481FF1F08B504F04BF906A3D3E9002304F0D6FA04F044FC00B204F07A
:400B000073FDFFF7D7FF08BDC7711CC7719C0A4008B504F037F906A3D3E9002304F0C2FA04F030FC00B204F05FFDFFF7CFFF08BDC7711CC7719C0A40014B1888704700BFAA
:400B40008481FF1F014BB3F8980270478481FF1F2DE9F0470C4690469946089E034608B9254D00E0254D0BB9254F00E0254F40F2DC502880D5F8943298474FF4FA7000F07E
:400B800091FFFFF7FFFC30460021CC2204F0DCFF8CB920E0C4F1320A5FFA8AFA39F81A302B80284639464246FFF720FF46F82A000134E4B200E00024322CEBD90DE039F826
:400BC00014302B80284639464246FFF70FFF46F824000134E4B2322CF1D928464FF4FA7140F2DC52FFF7E0FE40F2DC502880D5F894329847BDE8F0878481FF1F1C84FF1F73
:400C000035050000410500002DE9F8436FF0004E0027F046BC463C4628E050F82460B445B8BFB446B045A8BFB04652F82450AF42B8BF2F46AE45A8BFAE46144D04F102097B
:400C400045F8296031F8149004F1700625F8169052F8246004F1520945F8296033F8149004F5887625F816900134E4B2322CD4D90649C1F8D480C1F8D8C0C1F814E2C1F85B
:400C800018720348FFF76AFEBDE8F8838481FF1F847D00002DE9F8436FF0004E0027F046BC463C4628E050F82460B445B8BFB446B045A8BFB04652F82450AF42B8BF2F46B3
:400CC000AE45A8BFAE46154D05EB8409C9F8A06231F8149005EB4406A6F8789352F8246005EB8409C9F8E06333F8146005EB4405A5F8B8640134E4B2322CD4D90749C1F895
:400D00006C83C1F870C3C1F8ACE4C1F8B074044801F52671FFF722FEBDE8F8838481FF1F8C7D0000064B00221A605A6000229A60DA601A615A619A61DA611A62704700BF1C
:400D4000708DFF1F704700BF2DE9F84FFFF7FEFB8246FFF701FC8346FFF704FC0746FFF709FC354C2668BE1B6568451B27606060A81B04F007F82CA3D3E9002304F068F8C0
:400D800004F028FBA16804F07BFB8046A060701903F0F8FF0022294B04F05AF824A3D3E9002304F055F804F015FB03F0FDFF06460F46404603F0F8FF8046894601F09CFC8B
:400DC00002460B463046394604F042F804F002FB05464046494601F0D7FC02460B463046394604F035F804F0F5FA0646E068294604F046FBE0602069314604F041FB206167
:400E00005846514604F03CFB4FF07C5104F040FC60615846514604F031FB094904F0ECFCA061BDE8F88F00BF578A081582E7803FC7711CC7719C0A40708DFF1F0000E03F14
:400E40000080C943AFF3008010B582B000F060F9124B5B6AC01A03F085FF0022104B04F087FAC0B100F054F90C4B586293F8283033B90122094B83F828200F2000F012FE28
:400E8000FFF762FF054CE0682169A2686369A4690094FFF7BDFB02B010BD00BF708DFF1F00005940000000002DE9F0470546436C9847061E02DD4FF0010901E04FF0FF0907
:400EC000AB6C9847044605F10808304604F08CFB824603F069FF1EA3D3E9002304F0E2F806460F460022002304F024FA50B10AF1004003F059FF16A3D3E9002304F0D2F855
:400F000006460F463046394604F064FA0146404600F022FB2046002104F058FD10B104F1004100E02146404600F018FB404600F033FA50B1EC6C2D694FFA89F004F054FBC1
:400F40000146284604F0A4FBA047BDE8F08700BFC7711CC7719C0A402DE9F043B3B00446C06B2FA9032200F09DF90DF1B009A0684946032200F096F9E06BA16804F07EFA9F
:400F80000DF1A4084146062200F08CF926AFE0683946032200F086F923AEE06A3146062200F080F920AD20692946062200F07AF9236D9847CDF80090CDF804800297039681
:400FC0000495059007A8054922462FAB05F030FA07A800F09DFE33B0BDE8F083947D00002DE9F04F87B0194C6064C4F89810184E184DDFF868B0CDF800B04FF0000ACDF8C9
:4010000004A0DFF85C90CDF808904FF00108CDF80C800027049704F1080031462A460E4B00F070FACDF800B0CDF804A0CDF80890CDF80C80049704F15C0031462A46064B4A
:4010400000F060FA07B0BDE8F08F00BFB486FF1F0000C040CDCC0C406666263FCDCC4C3D00009643704700BF38B500F051F8134B1B68C01A03F076FE0022114B04F06EF98C
:40108000D0B100F045F80D4B18601B792BB901220A4B1A710A2000F005FD0A4C2046FFF703FF04F154052846FFF7FEFE2046FFF753FF2846FFF750FF38BD00BF9C8DFF1F5D
:4010C00000004940B486FF1F024A136801331360704700BFA48DFF1F0022014B1A607047A48DFF1F10B500F0ADFD00F079FD002409E0204600F0BCFD20B92046034900F092
:40110000AFFD10BD0134042CF3D910BDC9100000014B1868704700BFA48DFF1F10B50B4C207800F0B1FF2378013303F007032370002000F0A3FF032000F0A0FF0A2000F09D
:40114000B1FC002000F09AFF10BD00BFA88DFF1F10B500F08DFF00F0C1FFC0F53B6308339CB2C0F53140183080B24AF25F53984204D92346722C38BF722301E045F6A023B6
:40118000054CA4FB0334640900F084FFE1B2FFF751FAFFF7C3FF10BD09CB3D8D10B50B4C607800F0DBFF6378013303F007036370002000F0CDFF032000F0CAFF0A2000F0C2
:4011C00071FC002000F0C4FF10BD00BFA88DFF1F10B500F0F7FF01F019F8C0F53B6308339CB2C0F53140183080B24AF25F53984204D92346722C38BF722301E045F6A02390
:40120000054CA4FB0334640900F0AEFFE1B2FFF71BFAFFF7C3FF10BD09CB3D8D704700BF08B5074800F016FF064800F0BDFF00F083FF01F019F8FFF771FFFFF7AFFF08BDF8
:4012400051110000D111000030B5002406E0094D85FB00E5C017C0EBA50001340028F6D103E030208854013201349C42F9DB104630BD00BF67666666F8B504464668304656
:4012800004F0FEF8074625683046294604F0B4FA0146384604F0F2F86060294604F0ACFAF8BD00BF2DE9F84306460D469046002104F08CFB50B12D232B703046002104F02A
:4012C00085FB08B106F10046012400E00024304604F0A4FB074629190A2204F028FC05F0CBF82044B8F1000F29DD2E232B54441C384604F079F90146304604F0BFF8814656
:40130000404603F03FFD02460B4600200D4901F085FA06460F46484603F046FD32463B4603F096FD04F02EF80646294622464346FFF78AFF291830460A2204F0F8FBBDE8E1
:40134000F88300BF00002440F0B4049F013AD2B2540800251D703D7019E051F82460864203DA651CEDB21C700CE0864202D11C703C700EE0864205DD3C701A78A21A012A7B
:4013800007D02246AC1804EBD474C4F347049542E3D9F0BC704700BF2DE9F84390F83930002B48D004460768406B394604F066F88046E069414604F06BF9616A04F060F87D
:4013C00005466062E66A314604F000FB40B9D4F830902846494604F017FB10B14D4600E0354665623846616804F048F88146A069414604F04DF90146284604F041F80546F3
:40140000206A494604F044F90146284604F036F80546A0603046294604F0F6FA30B9266B2846314604F0F0FA00B92E46A66067600120BDE8F8830020BDE8F883F8B50446C8
:401440000D4616460846114604F0D4FA18BBE562266394F83930012B1DD1A7683846294604F0B4FA30B93046394604F0AFFA10B1374600E02F46A760676A3846294604F03F
:40148000A5FA30B93046394604F0A0FA10B1374600E02F466762F8BD2DE9F04104460D4616461F460846002104F090FA38BB3046002104F08BFA10BB3846002104F086FA9D
:4014C000E8B9E56026616761A561D4F828804046314604F0DDF80646E0613846414604F08BF9206294F83830012B08D105F10045A56106F10046E66100F100402062BDE8D5
:40150000F08100BFF8B504460F4616461D469DF8283080F838309DF8243080F83930002141620160416081604163069804F06CFA10B1069BA36202E04FF07E53A3622046D2
:401540000799089AFFF77AFF2046394632462B46FFF7A2FFF8BD00BF4163704701607047FEE700BF08B5094B1A681044084BC31A802B02DC054B186005E004F095FA0C23CB
:4015800003604FF0FF32104608BD00BF5C87FF1F008FFF1F08B5104E104D16E029686B68AC68002204E051F8040B43F8040B0432A242F8D1E868002203E0002143F8041B8F
:4015C00004328242F9D11035013E002EE6D104F071FAFEF757FDFEE701000000AC81000008B5124A124B1A60124A136843F40073136000230AE0032B03D80F4A52F8231033
:4016000000E00E490E4A42F8231001332F2BF2D90C4B1A780C4B1A70094A0C4B1A6000F0CBF800220A4B1A6008BD00BF0004FA050CED00E014ED00E000000000611500000C
:401640000080FF1FBC7600400481FF1F08ED00E00081FF1FFEE700BFF0B40022174611E050F82760F3B226F0FF0608E001EB420511F812406D78A5550132013BDBB2002B80
:40168000F4D10137282FEBD9F0BC7047064B1B78DBB203F00701054A11701B09013213704422034B1A707047CF0100496E5800407658004008B50A46002104F045FA08BD51
:4016C00038B501222E4B1A8018232E490B7002310A802D4A1370172204310A8002310B7002310A8002310B7002310A80274A1370192502321580023213700222244B1A7046
:4017000008224FF040231A70032103F500731970204B1B78DBB220490B70204B1A8041F25122023B1A8000240CE01D4B1B7803F0010343EA440404F003044FF4F07000F045
:401740009FF9013D0DB1032CEFD115B90320FFF781FF144B4FF480721A8007221A70002211490A704820023108701A700222033B1A700E4A137843F03F03137038BD00BF90
:40178000804000408240004086400040924000400043004008010049A146004022420040254200400440004006400040A243004008B504F0BEF908BD38B572B64D4A137835
:4017C00043F00403137000240CE04B4963001A1952000A4423445B00C8589188FFF76AFF0134E4B2052CF0D900240FE04249A3001A1952000A4452F8240F23445B000B4491
:4018000051689A8DFFF7D4FF0134E4B2012CEDD94FF090403949FFF71FFF2022384B1A70384A137843F0020313701032137843F002031370344C237843F040032370A2F542
:401840008632513A137843F0100313702F4830490822FFF7ADFF2F482F490822FFF7A8FF2E482F490A22FFF7A3FF2E482E490822FFF79EFF2D482E490A22FFF799FF2D48E8
:401880002D490822FFF794FF2C482D490822FFF78FFF2C482C490822FFF78AFF2B482C490822FFF785FF84232A4A137002F500621370442102F54062117002F580621370F4
:4018C000A2F55742B93A137843F008031370224D61232B70FFF7F4FE81232B7001221F4B1A70FFF7D3FE1E4821460E22FFF760FF38BD00BFE8460040B47D0000A400004855
:401900001260004003500140A0430040025100409C110048C2510040A4110048F0510040AC11004812510040B811004820510040C011004832510040CC11004842510040A7
:40194000D411004852510040DC11004862510040E4110048DB0201400048004004000840B0430040044A137803F0EF03000100F0100018431070704720510040704700BF55
:40198000014B1880704700BF1A680040014B1880704700BF9A680040014B1880704700BF5A68004008B50B4A137843F0010313700132137843F00103137044F62060FFF794
:4019C000DFFF44F62060FFF7E1FF40F2DC50FFF7E3FF08BD9D64004008B5044B1B7823B9FFF7E0FF0122014B1A7008BDAA8DFF1F044A137803F0BF03800100F04000184340
:401A00001070704720510040704700BF014B1880704700BF106A0040014B1880704700BF906A0040014B1880704700BF506A004008B50B4A137843F0010313700132137837
:401A400043F00103137044F62060FFF7DFFF44F62060FFF7E1FF40F2DC50FFF7E3FF08BD9865004008B5044B1B7823B9FFF7E0FF0122014B1A7008BDAB8DFF1F00000000F2
:401A80000230800803D000BF01380046FCD17047EFF3108072B6704780F31088704700BF01BE704710B5044605E0084B1868FFF7E7FFA4F50044B4F5004FF6D8034B58683B
:401AC00000FB04F0FFF7DCFF10BD00BF6087FF1F70B504460E46074B1D680F2802D90020FFF7DEFF04F00F0455F8240045F8246070BD00BF08ED00E070B504460E46074BE7
:401B00001D681F2802D90020FFF7CAFF04F01F04103455F8240045F8246070BD08ED00E038B504460D46072902D90020FFF7B8FF1F2C02D90020FFF7B3FF04F01F0000F13C
:401B4000604000F564406D01EDB2057038BD00BF024A136843F002031360704710E000E008B5FFF7F5FF034A136843F00103136008BD00BF10E000E020F07F40014B1860FD
:401B8000704700BF14E000E0012805D1054A136843F0040313607047024A136823F004031360704710E000E0024B1868C0F30040704700BF10E000E010B5FFF7F5FF0128F5
:401BC0000BD107E0054B03EB84035B6803B19847013400E00024042CF4D910BDAC8DFF1F0022014B1A60704718E000E008B5002305E00F4A02EB8302002151600133042B71
:401C0000F7D90F200B49FFF763FF0120FFF7BCFF094BDB680948A0FB03308009FFF7ACFFFFF7DEFF4FF40042054B1A6008BD00BFAC8DFF1FB91B00006087FF1FD34D6210DF
:401C400000E100E008B5054B9B6923B9FFF7CEFF0122024B9A61FFF783FF08BDAC8DFF1F024B03EB8003586859607047AC8DFF1F024B03EB80004068704700BFAC8DFF1F7F
:401C80007222074B1A70202201331A700622A3331A70472210331A700022AD3B1A7070478064004010B5FFF7F3FE04460A4A137843F0200313700132137843F01003137052
:401CC0000632137843F01003137000F033F82046FFF7E2FE10BD00BF9064004008B5054B1B7823B9FFF7CCFF0122024B1A70FFF7D9FF08BDC88DFF1F034B1B7813F0040F0D
:401D0000FAD1024B18707047676400404764004038B5074B1B782BB938BDFFF7EDFF0134A4B201E005460024285D0028F5D138BDC88DFF1F054A137843F02003137010321E
:401D4000137843F020031370704700BFA243004010B50123114A137081210E3A11700821023211701132137000240D4B1C704FF400420C4B1A600F200721FFF7D1FE0F20E5
:401D80000949FFF7B9FE094B1C70094B1C70094B1C70094B1C70094B1C8010BDD6490040DC49004080E100E05D1E0000EA8EFF1FF48EFF1FEB8EFF1FF08EFF1FE88EFF1F6A
:401DC00008B5FFF765FE084A137843F0040313701032137843F004031370FFF75DFE4FF40042024B1A6008BDA543004000E100E008B5054B1B7823B9FFF7AAFF0122024BD3
:401E00001A70FFF7DDFF08BDCA8DFF1F10B44FF400440B4B1C6032B113460A4A13600A4B18800A4B19800023094A1370094A13704FF40042084B1A605DF8044B704700BFD6
:401E400080E100E0EC8EFF1FF28EFF1FE88EFF1FEB8EFF1FF08EFF1F00E100E0654B1B78DBB2654A137013F0080F32D0634B1B7813F0010F1CD0624A1378DBB26149096826
:401E8000CB5CDBB25D490B7014215A4B19701378DBB25D4A137013780133DBB213705B4A137843F0110313700822594B1A708EE01022504B1A70554A137843F012031370CD
:401EC0000122534B1A70534A137843F0100313707DE013F0010F7AD04D4A1278D2B2042A1ED0082A3AD0012A68D1444B1B78DBB2414A5370484A128892B293420CD2102239
:401F00003C4B1A703C4B5B783D4A13703E4A137004223F4B1A705AE00022364B1A7056E0394B1A783D4B1B889BB29A4212D2334B1B7831494B7010222E4B1A70324A13787A
:401F4000DBB2304800684978C15413780133DBB213703CE00022274B1A7038E013F0020F1ED1294B1A782C4B1B889BB29A4210D2254A1378DBB223490968CB5CDBB21F494F
:401F80000B7004211B4B197013780133DBB213701DE0FF22194B1A700422013B1A7016E0FF22164B1A700022013B1A7017490B7803F0EF030B70164B1A7008E00023144A4A
:401FC00013700F4A1370104A13700A4A1370094B1B7813F0200F0CD00C4A137803F0EF03137000220A4B1A700A4A137803F0EF0313707047D7490040CB8DFF1FD84900405A
:40200000EB8EFF1FEC8EFF1FF08EFF1FF48EFF1FEA8EFF1FD6490040F28EFF1FE88EFF1F014B1B681864704708ED00E04001C0B2014B1870704700BF00E400E00122014B07
:402040001A60704700E100E00122014B1A60704780E100E010B50446FFF7F6FF2046FFF7DFFF0720FFF7E2FFFFF7E8FF10BD00BF0122014B1A60704780E200E0014B18703C
:40208000704700BF76650040014B1870704700BF76640040014B1878704700BF76640040014B1870704700BF87650040014B1878704700BF67650040014B1880704700BF91
:4020C0004C6A0040014B188880B270478C6A0040014B1880704700BF0C6A0040024B1B78024B188880B27047066500408C6A004008B501E0FFF7E6FFFFF7D8FF10F0080FDB
:40210000F8D108BD08B540F6B730FFF7D5FF40F6B730FFF7DDFFFFF7BBFC064A137843F010031370FFF7B8FCFFF7E2FF0120FFF7B7FF08BD9765004008B5044B1B7823B963
:40214000FFF7E0FF0122014B1A7008BDCD8DFF1F014B1870704700BF71640040014B1870704700BF74640040014B1878704700BF74640040014B1B685864704708ED00E012
:402180004001C0B2014B1870704700BF01E400E00222014B1A60704700E100E00222014B1A60704780E100E010B50446FFF7F6FF2046FFF7DFFF0720FFF7E2FFFFF7E8FF0A
:4021C00010BD00BF0222014B1A60704780E200E0014B1870704700BF83640040014B1878704700BF63640040014B1880704700BF44680040014B188880B27047846800405F
:40220000014B1880704700BF04680040024B1B78024B188880B27047026400408468004008B501E0FFF7E6FFFFF7D8FF10F0080FF8D108BD08B540F6B730FFF7D5FF40F64B
:40224000B730FFF7DDFFFFF723FC064A137843F010031370FFF720FCFFF7E2FF0320FFF7B7FF08BD9364004008B5044B1B7823B9FFF7E0FF0122014B1A7008BDCE8DFF1FB1
:40228000044A137803F0F703C00000F008001843107070472051004008B50822054B1A6003200549FFF728FC03200721FFF738FC08BD00BF80E100E09523000010B508243E
:4022C000064B1C6000F0A0F8A0F5004000B2044B1B68044A1460184410BD00BF80E100E0D08DFF1F00E100E038B505460824054B1C604FF4004000F081F8034B1D60034BD4
:402300001C6038BD80E100E0D08DFF1F00E100E0024B187800F00F00704700BF6565004040F00700014B1870704700BF8565004008B50F20FFF7F4FFFFF7EAFFFFF7A8FB5B
:40234000054A137843F010031370FFF7A5FB0822024B1A6008BD00BF9565004000E100E008B500F0A3F84FF4004000F047F80022064B1A60064B1B7823B9FFF78DFF012268
:40238000034B1A70FFF7D4FF08BD00BFD08DFF1FCF8DFF1F0D4B1B78DBB213F0010F06D00B490A6802F5FF427F320A6007E013F0020F04D006490A68A2F500420A6013F0B3
:4023C000040F02D00022024B1A60704765650040D08DFF1F024A137843F08003137070477A650040014B1870704700BF8B650040014B1878704700BF6B650040014B18802D
:40240000704700BF146A0040024B1B78024B188880B270470A650040946A0040014B188880B27047946A0040014B1880704700BF546A0040014B1880704700BF746A0040E2
:4024400008B501E0FFF7EAFFFFF7D2FF10F0400FF8D108BD08B5134B1A7802F0F8021A701A7802F0FC021A70FFF7EAFF4FF40040FFF7DAFF4FF40040FFF7C0FF0020FFF78D
:40248000B1FFFFF7B5FF4FF40040FFF7D3FFFFF7FFFA054A137843F010031370FFF7FCFA08BD00BF7A6500409B65004008B5054B1B7823B9FFF7CEFF0122024B1A70FFF7E7
:4024C00089FF08BDD48DFF1F08B50422054B1A6002200549FFF710FB02200721FFF720FB08BD00BF80E100E0C525000010B50424064B1C6000F0A0F8A0F5004000B2044BD0
:402500001B68044A1460184410BD00BF80E100E0D88DFF1F00E100E038B505460424054B1C604FF4004000F081F8034B1D60034B1C6038BD80E100E0D88DFF1F00E100E0C2
:40254000024B187800F00F00704700BF6865004040F00700014B1870704700BF8865004008B50F20FFF7F4FFFFF7EAFFFFF790FA054A137843F010031370FFF78DFA0422D4
:40258000024B1A6008BD00BF9865004000E100E008B500F0A3F84FF4004000F047F80022064B1A60064B1B7823B9FFF78DFF0122034B1A70FFF7D4FF08BD00BFD88DFF1FDE
:4025C000D58DFF1F0D4B1B78DBB213F0010F06D00B490A6802F5FF427F320A6007E013F0020F04D006490A68A2F500420A6013F0040F02D00022024B1A6070476865004079
:40260000D88DFF1F024A137843F08003137070477A640040014B1870704700BF8B640040014B1878704700BF6B640040014B1880704700BF14680040024B1B78024B188875
:4026400080B270470A64004094680040014B188880B2704794680040014B1880704700BF54680040014B1880704700BF7468004008B501E0FFF7EAFFFFF7D2FF10F0400F17
:40268000F8D108BD08B5134B1A7802F0F8021A701A7802F0FC021A70FFF7EAFF4FF40040FFF7DAFF4FF40040FFF7C0FF0020FFF7B1FFFFF7B5FF4FF40040FFF7D3FFFFF743
:4026C000E7F9054A137843F010031370FFF7E4F908BD00BF7A6400409B64004008B5054B1B7823B9FFF7CEFF0122024B1A70FFF789FF08BDDC8DFF1F30B5214A21F00043FC
:40270000934287B01BDD1F4A934205DD02460B4602F0EAF907B030BD02AA00F049FF00F0030001281AD002280FD008B3DDE9020101230093DDE9042301F03EFFEAE7002227
:40274000002301F011FA07B030BDDDE90201DDE9042301F009FA01F10041DBE70090DDE90423DDE9020101F027FF01F10041D1E7DDE90201DDE9042301F0F6F9CAE700BFA9
:40278000FB21E93FFFFFEF7F30B5224A21F00043934287B01BDD204A934205DD02460B4602F0A2F907B030BD02AA00F001FF00F0030001281ED0022811D010B3DDE9020198
:4027C000DDE9042301F0D0F901F10041EAE7002300930022002301F0EFFE07B030BD01230093DDE90201DDE9042301F0E5FE01F10041D7E7DDE90201DDE9042301F0B4F92B
:40280000D0E70124DDE90201DDE90423009401F0D3FEC7E7FB21E93FFFFFEF7F2DE9F04F8BB01F4680468946164600F071F9DFF8D8A204469AF900300D46013304D03046E3
:40284000394602F009F820B9204629460BB0BDE8F08F4046494601F0FFFF834660BB304639460022002302F05BFD0028ECD09AF900309E4C01229E4900208DE814005A1C33
:40288000CDF820B0CDE90289CDE90467CDE906010DD0022B0BD0684602F00AF8002800F09380089B1BB103F0FFF8089B0360DDE906010BB0BDE8F08F40464946002200234D
:4028C00002F02EFDF8B1304639460022002302F027FD834600284ED084489AF900300121002200240025CDE90289CDE90467CDE90645019000910892002BCCD07C4B0022C8
:40290000CDE90623D3E72046294601F011FF834600285ED0204629460022002302F000FD002891D04046494601F002FF00288BD03046394601F0FCFE002885D09AF90030CD
:402940006A480421002200240025022BCDE90289CDE90467CDE9064501900091089200F08880684601F0A4FF002800F08280089B002B9CD097E73046394601F0D9FE0028D8
:402980003FF462AF304639460022002302F0D2FC00283FF459AF55499AF800300122CDF820B0CDE90289CDE9046701910092002B3CD050490020022BCDE9060130D103F00A
:4029C00073F821230360D2E703F06EF82123036067E74046494601F0ABFE00289AD03046394601F0A5FE002894D02046294601F033FF00BB3D4A9AF8004001230890CDE9EA
:402A00000289CDE90467019200937CB10020002102460B4602F046FB022CCDE90601CED0684601F045FF0028A1D1C8E700220023CDE90623F4E72D499AF900300322CDF8B3
:402A400020B0CDE90289CDE9046701910092ABB9294D4FF060444046494600220023CDE9064502F067FC50BB9AF90030022B7FF478AF03F019F82223036078E71F4D002463
:402A80004046494600220023CDE9064502F052FC0028E9D000221A4B3046394602F0D8F904460D4601F00CFF22462B4602F038FC0028D9D10F4B0022CDE90623D4E70022B9
:402AC0000F4B3046394602F0C3F904460D4601F0F7FE22462B4602F023FC0028C4D1094B4FF06042CDE90623BEE700BFEC7D00000000F03F0000F0FFFFFFEF470000F07F0D
:402B00000000E03FFFFFEFC77087FF1F000000002DE9F04F144623F00047024657EA04000E468FB01D469C46214634D06E4B26F0004A9A459346B14626DC24D09F4223DC36
:402B4000694B9F4200F08F80B9F1000FC0F28F804FF0000879BB644B9F4200F0A580634B9F4267D0BCF1804F00F0E283604B9C4521D1B9F1000F1EDB104631460FB0BDE82F
:402B8000F04F00F029BF62B10AF1404000F5801050EA0B0007D10346544918460FB0BDE8F08F5745CCDD53480FB0BDE8F04F01F081BE4FF0000810463146CDF808C00092C1
:402BC00001F0B2FD009ADDF808C0BBF1000F20D04FEAD97909F1FF3958EA09037AD0464B9F4240F38F8003F104739F4240F31084424B9A4540F39283BCF1000F40F392837F
:402C000037A1D1E900010B46024602F021F90346C3E7BAF1000F04D0344B29F0404E9E45D6D1BCF1000FC0F2B683B9F1000F08DB0346B2E7BCF1000FC0F2528413463146F2
:402C4000ABE70AF1404A0AF5801A58EA0A0340F05E8402460B4601F047FF0B46024602F021FA034699E700293FF46EAF8CE7244B9F422CDCA3F154739F427FF769AF40F2C4
:402C800013403B15834240F34B84C3F58663033321FA03F000FA03F38B427FF459AF00F00100C0F1020855E70AF1404303F5801353EA0B0300F03983104B9A4540F3648351
:402CC000BCF1000FC0F22E832346294665E74FF002083FE7104631463346BCE7AFF300809C7500883CE4377E0000F07F0000F03F0000E03F047D00000000E041FFFFEF3F1E
:402D0000FFFF3F43BAF5801F4FF0000205DACA4B02F09EF88A466FF034024FEA2A53C74ECAF3130AA3F2FF334AF07F571344B2450C9347F4401740F3D083C14B9A4540F304
:402D400007840026B4460C9BA7F5801701330C933946BC4B4FEACC0C6344D3E900AB52465B46CDF834C0CDE9060101F0BDFE52465B46CDE90801DDE9060101F0B7FE024648
:402D80000B460020B04902F08DF902460B46DDE90801CDE90A2302F05BF802460B46CDE90223CDE904237B1043F0005303F5002399190020002306460F460293DDE902230E
:402DC0001046194632463B46CDE9000102F040F802460B46DDE9080101F086FE5246CDE908015B463046394601F07EFE02460B46DDE9060101F078FE02460B46DDE90001E0
:402E000002F026F802460B46DDE9080101F06CFEDDE90A2302F01CF8DDE90423CDE906011046194602F014F802460B4606460F4602F00EF86EA3D3E9002382468B46304638
:402E4000394602F005F86CA3D3E9002301F04EFE32463B4601F0FCFF69A3D3E9002301F045FE32463B4601F0F3FF67A3D3E9002301F03CFE32463B4601F0EAFF64A3D3E92F
:402E8000002301F033FE32463B4601F0E1FF62A3D3E9002301F02AFE02460B465046594601F0D6FFDDE9042306460F46DDE9000101F01CFEDDE9062301F0CAFF32463B4670
:402EC00001F014FEDDE9006782468B4632463B463046394601F0BCFF00225C4BCDE9080101F004FE52465B4601F000FE02980F460646DDE9000132463B4601F0A9FF3246C0
:402F00003B46CDE90001DDE9060101F0A1FF0022CDE906014D4B3046394601F0E5FDDDE9082301F0E1FD02460B465046594601F0DBFDDDE9042301F08BFF02460B46DDE99E
:402F4000060101F0D3FD82468B46DDE9000152465B4601F0CBFD32A3D3E9002302980F46064601F075FF30A3D3E90023CDE904013046394601F06CFFDDE90023CDE906017F
:402F80003046394601F0B0FD02460B465046594601F0AAFD26A3D3E9002301F059FF02460B46DDE9060101F0A1FDDDF834C0284BCDF818C06344D3E9002301F097FDCDE998
:402FC00000010C9801F0DEFE06460F46DDE90401204BDDF818C09C44DDE90023DCE900AB01F084FD52465B4636E000BFAFF30080EF4E454A287ECA3F65DBC9934A86CD3F0D
:4030000001411DA96074D13F4D268F515555D53FFFAB6FDBB66DDB3F033333333333E33F000000E009C7EE3FF5015B14E02F3EBEFD033ADC09C7EE3F000040438E98030032
:4030400079B60B00107E00000000F03F00000840007E0000F07D0000CDE906AB01F046FD32463B4601F042FD029832463B4682468B4601F039FDDDE9062301F035FDDDE937
:40308000042301F031FD02460B46DDE9000101F02BFDCDE9020108F1FF3858EA09030CBFD54BD64B0022CDE904230023CDE900450093DDE90067204632463B46294601F072
:4030C00013FD52465B4601F0C3FEDDE90223804689462046294601F0BBFE02460B464046494601F003FD04460D465246304639465B46CDE9024501F0ABFE06460F462046CE
:403100003B462946324601F0F1FCBD4B824699428946884640F3138101F13F4303F5E003034340F0E581A0A3D3E90023DDE9020101F0DCFC324604460D463B4650464946A0
:4031400001F0D2FC02460B462046294602F010F9002840F0CD814C462015A0F2FE304FF4801101414144C1F30A50A64CA0F2FF35C1F3130BC0F5826003302C414BF4801BB6
:4031800021EA040300224BFA00FB3946304601F0ABFC06460F46DDE902018BEAE87B0BEBD87B32463B464FEA0B5A01F09FFC80A3D3E90023002420460D4601F049FE3246D1
:4031C000804689463B462046294601F08DFC02460B46DDE9020101F087FC77A3D3E9002301F036FE76A3D3E9002306460F462046294601F02DFE02460B463046394601F06D
:4032000075FC06460F4632463B464046494601F06DFC42464B4604460D4601F065FC02460B463046394601F05FFC2246804689462B462046294601F00BFE63A3D3E9002310
:4032400006460F4601F004FE61A3D3E9002301F04BFC32463B4601F0FBFD5FA3D3E9002301F044FC32463B4601F0F2FD5CA3D3E9002301F039FC32463B4601F0E9FD5AA301
:40328000D3E9002301F032FC32463B4601F0E0FD02460B462046294601F026FC06460F4632463B462046294601F0D2FD0022CDE900014FF080433046394601F015FC02467F
:4032C0000B46DDE9000101F0EDFE424606460F464B462046294601F0BBFD42464B4601F005FC02460B463046394601F0FDFB22462B4601F0F9FB02460B4600203F4901F030
:40330000F3FB8A44BAF5801F0246C0F227815346DDE9040101F09CFD03463EE4BCF1000FFFF66EAC0023194637E40B46334934E433461046314601F08BFD03462DE4324BA5
:4033400021F000449C4240F3FA80304B0B4403430CD132463B4601F0C7FB02460B46DDE9020101F0F1FF00283FF4F6AE20A3D3E90023DDE9040101F06BFD1DA3D3E900232D
:4033800001F066FD034608E4BCF1000FCADA234605F1004101E402460B460020174901F081FE42E4AFF30080FE822B654715973C00000000432EE63FEF39FAFE422EE63F44
:4033C000396CA80C615C20BED0A4BE726937663EF16BD2C541BDBB3E2CDE25AF6A56113F93BDBE166CC1663F3E5555555555C53F59F3F8C21F6EA5010000F0BF0000F03F21
:40340000FFFF8F40FFFF0F00FFCB904000346F3F634B9A4582DD634B9A453FF7EDAB0022604B01F061FB54A3D3E9002306460F4601F00EFD52A3D3E90023CDE90001304661
:40344000394601F005FD3246CDE902013B463046394601F0FDFC002282468B4630463946514B01F0F5FC02460B4647A1D1E9000101F03AFB32463B4601F0EAFC02460B4650
:4034800000204A4901F030FB02460B465046594601F0DEFC3EA3D3E9002301F0D9FC02460B46DDE9020101F01FFB06460F46DDE9000132463B4601F019FBDDE90023002042
:4034C00082468B4601F010FB02460B463046394601F00AFBCDE90201DDE50026B44637E4334600202F4901F0DDFD0346FFF755BB29A3D3E90023DDE9040101F0A9FC26A3FD
:40350000D3E9002301F0A4FC0346FFF746BBB8F1010F03467FF441AB01F10041FFF73DBB00297FF446ABC3F58263033347FA03F000FA03F3BB4217D08846FFF710BB1B4BFC
:403540009C423FF709AEDDE90023924693462EE64FF480264FF0010CFFF7FABB5A4601F03FFA02460B46D3E600F00100C0F10208FFF7F5BAAFF30080000000604715F73F71
:4035800044DF5DF80BAE543E555555555555D53FFE822B654715F73F9C7500883CE4377EFEFFEF3F0000F03F0000D03F0000E03F2DE9F04F924C21F00047A7428FB00E4697
:4035C0007FDD14468F4A974226DC83A3D3E90023002940F39D8101F087FA8B4B80469F42894600F083807EA3D3E9002301F07CFA02460B464046C4E90023494601F074FAED
:4036000077A3D3E9002301F06FFA0125C4E9020128460FB0BDE8F08F7C4A974240F383807B4A974258DC3D15A5F21645A7EB05518B46824601F0A6FE01F0A4FB80468946EA
:4036400042464B4650465946CDE9088901F04CFA0022704B01F0FCFB8B46824601F092FE01F090FB8046894642464B4650465946CDE90A8901F038FA0022664B01F0E8FB2D
:4036800000220023CDE90C0101F04AFE002800F06781002340464946002201F041FE002814BF012302235C480221019000912A4608A8214600F07CFB002EC0F24781054631
:4036C00006E0C2E9000100250024C2E90245002528460FB0BDE8F08F02460B4601F004FA0025C4E90201C4E90001F1E73EA3D3E9002301F0F9F93EA3D3E9002306460F46A0
:4037000001F0F2F902460B463046C4E90023394601F0EAF936A3D3E9002301F0E5F90125C4E90201D4E700F0FFFF33A3D3E900238046894601F08CFB0022384B01F0D6F94E
:4037400001F020FE054601F01DFB23A3D3E90023CDE9040101F07CFB02460B464046494601F0C2F91EA3D3E9002382468B46DDE9040101F06DFB1F2DCDE90201504659462D
:4037800050DC274B6A1E53F82230BB424AD0DDE9022301F0A9F902460B4681468846C4E900234A4643465046594601F09DF9DDE9022301F099F902460B46002EC4E90223D7
:4037C00086DA4A4608F1004301F1004184E80C00E160A0606D427BE700004054FB21F93F3163621A61B4D03D0000601A61B4D03D7370032E8A19A33B83C8C96D305FE43F22
:40380000FB21E93F7BD90240FB21F93FFB213941FFFFEF7F00007041A07E00000000E03F207E0000DDE9022301F05EF988463F15C8F30A53FB1A102B8146C4E90001B0DD0D
:4038400059A3D3E90023DDE9040101F001FB8046894642464B465046594601F045F9CDE90601DDE906235046594601F03DF942464B4601F039F94EA3D3E9002380468946FA
:40388000DDE9040101F0E4FA42464B4601F02CF9CDE90201DDE90223DDE9060101F024F90B4602468846C1F30A517F1A312F8146C4E9002374DD40A3D3E90023DDE90401DC
:4038C00001F0C6FA80468946DDE9060142464B4601F00AF982468B46DDE9060152465B4601F002F942464B4601F0FEF834A3D3E9002380468946DDE9040101F0A9FA4246EB
:403900004B4601F0F1F8CDE90201504659463EE701F0ECF82E4B80469F42894622D02AA3D3E9002301F0E2F802460B464046C4E90023494601F0D8F823A3D3E9002301F007
:40394000D5F84FF0FF35C4E90201C1E66268E36802F1004203F1004345426260E360B7E60323A0E610A3D3E9002301F0BFF810A3D3E9002306460F4601F0B8F802460B46B3
:403980003046C4E90023394601F0AEF808A3D3E9002301F0ABF84FF0FF35C4E9020197E6DDE906ABFDE600BF0000601A61B4D03D7370032E8A19A33B0000002E8A19A33BF4
:4039C000C14920259A837B393163621A61B4D03DFB21F93FAFF300802DE9F041604E0C46B6460E40764505460B4600F098800029024676DD5FEA215E00F08180AEF2FF3EB5
:403A0000C3F313031EF0010F43F480135ED100273C46D10F01EB43034FEA6E0E520016204FF4001165189D424FEAD2764FEA420202DC5B1B6C180F44013806EB43034FEA29
:403A40005101EFD1844620264FF000410AE0A34220D0D50F013E4FEA510105EB43034FEA420220D09C420CEB0105F0DA002D05EB010C09DBA0461B1B954288BF03F1FF3381
:403A80004446521B0844E4E7BCF1000FF2DB04F10108F0E7954217D8002D05EB010C48DB98460023ECE7134315D140087B1003F17F5303F50013FA0703EB0E57394648BFF9
:403AC00040F00040BDE8F0811C46C2E7D10F01EB430352009BE7411C31D000F001031844E3E721F000460643ECD079BB8E46D30AAEF1150E5205002BF9D0DC0222D4002194
:403B00005B00D80201F10101FAD5C1F10100C1F1200422FA04F4234386448A406EE702460B4601F095F92A46234600F0DFFFBDE8F081BCF1000FAADAA0460023A0E70137C4
:403B40003046B3E7202401200021E2E702460B4600F0CAFF02460B4601F0A4FAB2E700BF0000F07F000000002DE9F04F21F00047B7F1795F85B00C4692469B4605466BDAA8
:403B800001F000FC002800F0E7802A4623462846214601F05DF974A3D3E900238046894601F056F972A3D3E9002300F09FFF42464B4601F04DF970A3D3E9002300F094FF92
:403BC00042464B4601F044F96DA3D3E9002300F08DFF42464B4601F03BF96BA3D3E9002300F082FF42464B4601F032F968A3D3E9002300F07BFF42464B4601F029F9CDE90C
:403C00000001404649460022634B01F021F9DDE9002306460F464046494601F019F95246804689465B462846214601F011F902460B464046494600F057FF02460B46304650
:403C4000394600F051FF02460B460020534900F04BFF05B0BDE8F08F02460B4601F0F8F841A3D3E900238046894601F0F1F840A3D3E9002300F03AFF42464B4601F0E8F89C
:403C80003DA3D3E9002300F02FFF42464B4601F0DFF83BA3D3E9002300F028FF42464B4601F0D6F838A3D3E9002300F01DFF42464B4601F0CDF836A3D3E9002300F016FF48
:403CC0004B46424601F0C4F8354BCDE900019F4297DD344B00229F4238DCA7F5001300202E4916461F4600F0FFFECDE90201404649460022284B01F0ABF832463B4600F008
:403D0000F3FEDDE9002306460F464046494601F09FF85246804689465B462846214601F097F802460B464046494600F0DDFE02460B463046394600F0D7FE02460B46DDE91D
:403D4000020100F0D1FE05B0BDE8F08F164B0026CDE90223154FCAE71049002005B0BDE8F08F00BFAFF30080D43888BEE9FAA8BDC4B1B4BD9EEE213EAD529C804F7E923EDB
:403D80009015CB19A001FA3E7751C1166CC1563F4C5555555555A53F0000E03F0000F03F3233D33F0000E93F0000E73F0000D23F2DE9F04F9E467E4DD41E85FB0465E41769
:403DC000C4EBA504ADF51D7D24EAE4742546A69E0D940C93E343774C03EB430354F8264002EBC303274609940EF1FF3426460394F41904900A910893A5EB060516D42C444D
:403E0000013422AEA79F08E057F8250000F0BAFF0135A542E6E9020108D0002DF4DA013500200021A542E6E90201F6D1099B002B31DB099A0C9B74A901EBC20BC3EB43731A
:403E4000039A24A9DB0001EBC20800930DF5E479039B002BC0F297814446049B0026A3F1080A009B002708EB0305FAE9022374E8020100F0EDFF02460B463046394600F04F
:403E800035FEAC4206460F46EFD1E9E90267D94508F10808DCD1099B10A99B4603F18043013B9B001A1D0A440B440F920E934FEACB039CA91A460693BBF1000F0B4453E904
:403EC000284528DD0DF5E87A0AEB02060FAF0022394B2046294600F0BBFF01F053FA00F051FF0022354B8046894600F0B1FF02460B462046294600F0F7FD01F043FA76E9D8
:403F0000022347F8040F4946404600F0EFFD564504460D46DBD1DDF82090204629464A4600F05EFD00224FF07F5304460D4600F08FFF00F005FC0022214B00F089FF024673
:403F40000B462046294600F0CFFD04460D4601F019FA804600F016FF02460B46204629464C4600F0C1FD002C06460F4640F3F1800BF1FF3110AB53F82130C9F1180043FA42
:403F800000F202FA00F55D1B10A8C9F1170340F8215090441D41002D3FDDBBF1000F08F1010840F38482002214460FA912E000BFABAAAA2AA87F00000000703E000070416C
:403FC00000002040C3F180700BB108600124013293450DDD51F8043F002CF3D0C3F1FF13013203F57F4393450B604FF00104F1DC089B002B0EDD012B00F0B380022B09D1EE
:404000000BF1FF3210AB53F8223010A9C3F3150341F82230022D00F08380304639460022002301F07DF9002800F0C980099B0BF1FF3A53450DDC10AB0F9803EB8B0300226B
:4040400053F8041D834242EA0102F9D1002A40F01482099B10AA013B52F82330002B40F024820E9A012352F8041D01330029FAD05B441A460B930BF1010393424DDC0D9A4E
:404080004FF0000803EB02090B9A0C9B09F180495B44CBEB020BA79A09F1FF3902EB890200924FEACB02DB00059224AA02EB030B0793069B74AA02EB030A009B002653F832
:4040C000040F0027009300F05DFE039BEBE80201002B1BDB079B03EB0804069B08EB030524AB1C441D44049BA3F10809F9E9022374E8020100F0ACFE02460B463046394679
:4041000000F0F4FCAC4206460F46EFD1059B08F108089845EAE90267CFD1DDF82CB0C6E632463B460020BF4900F0DEFC06460F46002C3FF472AF089A0020BA4900F050FC84
:4041400002460B463046394600F0CEFC06460F4663E711D10BF1FF3310AA52F82350ED1519E70BF1FF3210AB53F8223010A9C3F3160341F822304DE70022AB4B01F0EEF8C8
:4041800058B9054649E700260027E9E90267D94508F108087FF45CAE7DE6BBF1000F08F10108C8BF02253FF7FEAE32463B4600209C4900F099FC022506460F462DE7089B95
:4041C00030465A4239460395CDF8148000F008FC0022964B04460D4601F0C0F8002800F0E1810022924B2046294600F031FE01F0C9F8064600F0C6FD00228C4B00F028FED3
:404200000B4602462946204600F06EFC01F0BAF8089B0BF1010A1833089310AB43F82B0043F82A60089A00207E4900F0D9FBBAF1000F04460D46C0F2CA800AF101034FEAC5
:40424000C30874AF10AA009302EB830907EB080659F8040D00F096FD22462B4600F0F8FD002266E90201724B2046294600F0F0FDBE4204460D46EBD1A8F1080806EB080306
:404280009B460DF59879CDF818A0DDF824A04FF00008CDF81090BAF1000FC0F29580B8F1000FC0F29180DFF88C915D4600260027002401E0444510DCF9E90223F5E8020107
:4042C00000F0C6FD02460B463046394600F00EFC0134A24506460F46ECDA049BABF1080B03EBC803C3E90067009B08F101089845D1D1A69BDDF818A0DDF81090032B3BD846
:40430000DFE813F0410004000400D70000273E46009B09EBC304384674E90223314600F0E5FB4C4507460E46F5D1039B002B00F08B80D9E900010A9D334606F100463A46EF
:404340006E602F6000F0D0FBBAF1000F03460CDD01261C46F9E90223204600F0C7FB0136B2450346F5DA039A0AB101F100411C460D460A9BC3E90245059B03F007000DF5D7
:404380001D7DBDE8F08F00231946009A09EBC2091C4679E90223204600F0A8FB0AF1FF3ABAF1FF3F0346F3D1039A0AB101F100411C460D460A9BC3E90045059B03F00700E8
:4043C0000DF51D7DBDE8F08F0026002785E7A69B032BD1D8DFE803F04E3030020DF59879039A00231E46002A00F0C8800A9FD9F80800D9F80440D9F80C203B61059BD9F888
:40440000001006F1004604F1004402F10042B86003F007007E617C60FA6039600DF51D7DBDE8F08F0000F03F0000E03F000070410000703EB07F0000039B00273E460DF51A
:404440009879002B7FF475AFD9E9000135463C4633460A9E3A46C6E9004500F045FBBAF1000F03463FF774AF1C460D460A9BC3E9024581E70023194696E7089A10AB53F82C
:404480002A30183A0395CDF814800892002B7FF4C9AE10AB03EB8A0353F8041D0AF1FF3A183A0029F8D00892BCE60123E0E500249EE5BAF1000F93DD4FEACA0809EB080397
:4044C0009B46D3E900677BE9022330463946CDE9002300F00BFB04460D46DDE9000122462B4600F001FB02460B463046394600F0FDFACB4526462F46CBE90201CBE900452C
:40450000E1D1BAF1010F7FF76BAF09EB08039A46D3E900670DF59C7B7AE902231046194632463B46CDE9000100F0E0FA04460D46DDE9000122462B4600F0D6FA32463B46B6
:4045400000F0D4FADA4526462F46CAE90201CAE90045E1D100231E4608F108044C4450AD184674E90223314600F0C0FAAC4203460E46F5D1039A002A7FF438AFD9E900458A
:40458000D9E90289184631460A9A059BC2E9040103F00700C2E90045C2E902890DF51D7DBDE8F08F2046294600F0ECFE10ABDA4643F82B0036E600BF2DE9F04F21F000468E
:4045C000B6F1795F85B00C4690469946054604DA00F0D8FE002800F083802A4623462846214600F035FC2A46234606460F4600F02FFC3FA3D3E9002382468B463046394643
:4046000000F026FC3CA3D3E9002300F06DFA32463B4600F01DFC3AA3D3E9002300F066FA32463B4600F014FC37A3D3E9002300F05BFA32463B4600F00BFC35A3D3E90023A7
:4046400000F054FA0E9BCDE900019BB3404649460022334B00F0FCFBDDE90023CDE902015046594600F0F4FB02460B46DDE9020100F03AFA32463B4600F0EAFB42464B468F
:4046800000F032FA24A3D3E9002306460F465046594600F0DDFB02460B463046394600F025FA02460B462846214600F01DFA05B0BDE8F08FDDE900233046394600F0C8FB1E
:4046C00015A3D3E9002300F00FFA52465B4600F0BFFB2A46234600F009FA05B0BDE8F08F2846214605B0BDE8F08F00BFAFF300807CD5CF5A3AD9E53DEB9C2B8AE6E55A3EC5
:404700007DFEB157E31DC73ED561C119A0012A3FA6F810111111813F495555555555C53F0000E03FAFF3008021F00041704700BF41F0004101F58010C00F704700000000B9
:404740002DE9F047C1F30A58A8F2FF36132E0B4604460D460246894607461DDC002E40DBDFF8F08048FA06F808EA010E5EEA020217D035A3D3E9002300F0B8F900220023DA
:4047800000F0F6FD20B1002D40DB29EA0805002738462946BDE8F087332E06DDB6F5806F2FD020461946BDE8F087A8F213424FF0FF3A2AFA02FA1AEA000FF2D022A3D3E912
:4047C000002300F093F90022002300F0D1FD0028DED0002D1FDB4D4627EA0A0738462946D8E719A3D3E9002300F080F90022002300F0BEFD0028CBD0002D1ADB00273D4636
:40480000C6E702460B4600F071F9CCE74FF4801333419944B9E7142E08D0C8F5866808F10308012303FA08F31F19D4D309F10109D1E725F00042064B224318BF1D46002770
:40484000A6E700BFAFF300809C7500883CE4377E0000F0BFFFFF0F0010B431F0004408D0114BA1F580129A4208D804205DF8044B704718B902205DF8044B704701F1FF4160
:40488000094B01F5E0019942EFD9B4F5801F01D20320EBE7054B9C4201D00020E6E7B0FA80F04009E2E700BFFFFFDF7F0000F07F0020704700200149704700BF0000F87F4A
:4048C000F0B5C1F30A5EAEF2FF35132D83B002460B460C464FEAD17607462EDC002D48DB3C49294101EA030010432BD049080B4053EA02070CD04FF48023132D24EA01017F
:4049000043FA05F444EA01040CBF4FF0004700273149234601EBC606D6E900453A462046294600F0E3F8CDE90001DDE9000122462B4600F0D9F803B0F0BD332D06DDB5F572
:40494000806F43D01046194603B0F0BDAEF2134E4FF0FF3121FA0EF10142F3D049080142D6D04FF0804320EA010143FA0EF70F43CEE721F000410143E4D0C3F3130141EAC0
:40498000000CCCF1000141EA0C0C13495C0C4FEA1C3C0CF4002C640401EBC6014CEA0403D1E900452046294600F0A0F8CDE90001DDE9000122462B4600F096F8024621F087
:4049C000004141EAC67310461946BDE700F08EF8BAE700BFFFFF0F00F87F000000000000F8B5C1F30A5604460D460B46174616BB21F00043034332D00022314B00F028FA36
:404A0000304A044697420D460B4637DB40F2FE72C1F30A56363E3E44964215DD24A1D1E9000122462B4600F053F821A3D3E9002300F00EFAF8BD40F2FF72964224D040F228
:404A4000FE723E449642E9DC002E09DD23F0FF4323F4E00343EA065520462946F8BDF8BD16F1350F15DA4CF250339F42D6DC12A1D1E9000122462B4600F02AF80EA3D3E929
:404A8000002300F0E5F9F8BD02460B4600F02EF8F8BD23F0FF4323F4E003363643EA0655204629460022084B00F0D2F9F8BD00BF9C7500883CE4377E59F3F8C21F6EA50189
:404AC00000005043B03CFFFF0000903CAFF3008003F0004321F0004243EA0201704700BF81F0004102E000BF83F0004330B54FEA41044FEA430594EA050F08BF90EA020F4B
:404B00001FBF54EA000C55EA020C7FEA645C7FEA655C00F0E2804FEA5454D4EB5555B8BF6D420CDD2C4480EA020281EA030382EA000083EA010180EA020281EA0303362D96
:404B400088BF30BD11F0004F4FEA01314FF4801C4CEA113102D0404261EB410113F0004F4FEA03334CEA133302D0524263EB430394EA050F00F0A780A4F10104D5F1200E9F
:404B80000DDB02FA0EFC22FA05F2801841F1000103FA0EF2801843FA05F359410EE0A5F120050EF1200E012A03FA0EFC28BF4CF0020C43FA05F3C01851EBE37101F00045B9
:404BC00007D54FF0000EDCF1000C7EEB00006EEB0101B1F5801F1BD3B1F5001F0CD349085FEA30004FEA3C0C04F101044FEA445212F5800F80F09A80BCF1004F08BF5FEAD8
:404C0000500C50F1000041EB045141EA050130BD5FEA4C0C404141EB010111F4801FA4F10104E9D191F0000F04BF01460020B1FA81F308BF2033A3F10B03B3F120020CDAAF
:404C40000C3208DD02F1140CC2F10C0201FA0CF021FA02F10CE002F11402D8BFC2F1200C01FA02F120FA0CFCDCBF41EA0C019040E41AA2BF01EB0451294330BD6FEA0404C0
:404C80001F3C1CDA0C340EDC04F11404C4F1200220FA04F001FA02F340EA030021FA04F345EA030130BDC4F10C04C4F1200220FA02F001FA04F340EA0300294630BD21FAFA
:404CC00004F0294630BD94F0000F83F4801306BF81F480110134013D4EE77FEA645C18BF7FEA655C29D094EA050F08BF90EA020F05D054EA000C04BF1946104630BD91EA4E
:404D0000030F1EBF0021002030BD5FEA545C05D14000494128BF41F0004130BD14F580043CBF01F5801130BD01F0004545F0FE4141F470014FF0000030BD7FEA645C1ABFFD
:404D4000194610467FEA655C1CBF0B46024650EA013406BF52EA033591EA030F41F4002130BD00BF90F0000F04BF0021704730B54FF4806404F132044FF000054FF00001C4
:404D800050E700BF90F0000F04BF0021704730B54FF4806404F1320410F0004548BF40424FF000013EE700BF42004FEAE2014FEA31014FEA02701FBF12F07F4393F07F4F43
:404DC00081F06051704792F0000F14BF93F07F4F704730B54FF4607401F0004521F0004120E700BF50EA010208BF704730B54FF000050AE050EA010208BF704730B511F0B5
:404E0000004502D5404261EB41014FF4806404F132045FEA915C3FF4DCAE4FF003025FEADC0C18BF03325FEADC0C18BF033202EBDC02C2F1200300FA03FC20FA02F001FAA2
:404E400003FE40EA0E0021FA02F11444C1E600BF70B54FF0FF0C4CF4E06C1CEA11541DBF1CEA135594EA0C0F95EA0C0F00F0DEF82C4481EA030621EA4C5123EA4C5350EA12
:404E8000013518BF52EA033541F4801143F4801338D0A0FB02CE4FF00005E1FB02E506F00042E0FB03E54FF00006E1FB03569CF0000F18BF4EF0010EA4F1FF04B6F5007F71
:404EC00064F5407404D25FEA4E0E6D4146EB060642EAC62141EA55514FEAC52040EA5E504FEACE2EB4F1FD0C88BFBCF5E06F1ED8BEF1004F08BF5FEA500E50F1000041EB6C
:404F0000045170BD06F0004646EA010140EA020081EA0301B4EB5C04C2BFD4EB0C0541EA045170BD41F480114FF0000E013C00F3AB8014F1360FDEBF002001F0004170BD15
:404F4000C4F10004203C35DA0C341BDC04F11404C4F1200500FA05F320FA04F001FA05F240EA020001F0004221F0004110EBD37021FA04F642EB06015EEA430E08BF20EA5B
:404F8000D37070BDC4F10C04C4F1200500FA04F320FA05F001FA04F240EA020001F0004110EBD37041F100015EEA430E08BF20EAD37070BDC4F1200500FA05F24EEA020E35
:404FC00020FA04F301FA05F243EA020321FA04F001F0004121FA04F220EA020000EBD3705EEA430E08BF20EAD37070BD94F0000F0FD101F00046400041EB010111F4801F5A
:4050000008BF013CF7D041EA060195F0000F18BF704703F00046520043EB030313F4801F08BF013DF7D043EA0603704794EA0C0F0CEA135518BF95EA0C0F0CD050EA41066E
:4050400018BF52EA4306D1D181EA030101F000414FF0000070BD50EA410606BF1046194652EA430619D094EA0C0F02D150EA013613D195EA0C0F05D152EA03361CBF1046E5
:4050800019460AD181EA030101F0004141F0FE4141F470014FF0000070BD41F0FE4141F4780170BD70B54FF0FF0C4CF4E06C1CEA11541DBF1CEA135594EA0C0F95EA0C0F65
:4050C00000F0A7F8A4EB050481EA030E52EA03354FEA013100F088804FEA03334FF0805545EA131343EA12634FEA022245EA111545EA10654FEA00260EF000419D4208BF22
:40510000964244F1FD0404F5407402D25B084FEA3202B61A65EB03055B084FEA32024FF480104FF4002CB6EB020E75EB030E22BFB61A754640EA0C005B084FEA3202B6EBA1
:40514000020E75EB030E22BFB61A754640EA5C005B084FEA3202B6EB020E75EB030E22BFB61A754640EA9C005B084FEA3202B6EB020E75EB030E22BFB61A754640EADC0034
:4051800055EA060E18D04FEA051545EA16754FEA06164FEAC30343EA52734FEAC2025FEA1C1CC0D111F4801F0BD141EA00014FF000004FF0004CB6E711F4801F04BF014394
:4051C0000020B4F1FD0C88BFBCF5E06F3FF6AFAEB5EB030C04BFB6EB020C5FEA500C50F1000041EB045170BD0EF0004E4EEA113114EB5C04C2BFD4EB0C0541EA045170BD30
:4052000041F480114FF0000E013C90E645EA060E8DE60CEA135594EA0C0F08BF95EA0C0F3FF43BAF94EA0C0F0AD150EA01347FF434AF95EA0C0F7FF425AF104619462CE79B
:4052400095EA0C0F06D152EA03353FF4FDAE1046194622E750EA410618BF52EA43067FF4C5AE50EA41047FF40DAF52EA43057FF4EBAE12E74FF0FF3C06E000BF4FF0010C48
:4052800002E000BF4FF0010C4DF804CD4FEA410C7FEA6C5C4FEA430C18BF7FEA6C5C1BD001B050EA410C0CBF52EA430C91EA030F02BF90EA020F0020704710F1000F91EAF0
:4052C000030F58BF994208BF90422CBFD8176FEAE37040F0010070474FEA410C7FEA6C5C02D150EA013C07D14FEA430C7FEA6C5CD6D152EA033CD3D05DF8040B704700BF72
:405300008446104662468C461946634600E000BF01B5FFF7B7FF002848BF10F1000F01BD4DF808EDFFF7F4FF0CBF012000205DF808FB00BF4DF808EDFFF7EAFF34BF01205A
:4053400000205DF808FB00BF4DF808EDFFF7E0FF94BF012000205DF808FB00BF4DF808EDFFF7CEFF94BF012000205DF808FB00BF4DF808EDFFF7C4FF34BF012000205DF818
:4053800008FB00BF4FEA410212F5001215D211D56FF47873B3EB625212D94FEAC12343F0004343EA505311F0004F23FA02F018BF404270474FF00000704750EA013005D135
:4053C00011F0004008BF6FF0004070474FF00000704700BF4FEA4102B2F1E04324BFB3F5001CDCF1FE5C0DD901F0004C4FEAC0024CEA5070B2F1004F40EB830008BF20F0FF
:405400000100704711F0804F21D113F13872BCBF01F00040704741F480114FEA5252C2F11802C2F1200C10FA0CF320FA02F018BF40F001004FEAC1234FEAD32303FA0CFC24
:4054400040EA0C0023FA02F34FEA4303CCE77FEA625307D150EA01331EBF4FF0FE4040F44000704701F0004040F0FE4040F40000704700BF80F0004002E000BF81F000417D
:4054800042001FBF5FEA410392EA030F7FEA226C7FEA236C6AD04FEA1262D2EB1363C1BFD218414048404140B8BF5B42192B88BF704710F0004F40F4000020F07F4018BF35
:4054C000404211F0004F41F4000121F07F4118BF494292EA030F3FD0A2F1010241FA03FC10EB0C00C3F1200301FA03F100F0004302D5494260EB4000B0F5000F13D3B0F1DC
:40550000807F06D340084FEA310102F10102FE2A51D2B1F1004F40EBC25008BF20F0010040EA03007047490040EB000010F4000FA2F10102EDD1B0FA80FCACF1080CB2EB66
:405540000C0200FA0CF0AABF00EBC25052421843BCBFD0401843704792F0000F81F4000106BF80F400000132013BB5E74FEA41037FEA226C18BF7FEA236C21D092EA030F28
:4055800004D092F0000F08BF0846704790EA010F1CBF0020704712F07F4F04D1400028BF40F00040704712F100723CBF00F50000704700F0004343F0FE4040F400007047E0
:4055C0007FEA226216BF08467FEA23630146420206BF5FEA412390EA010F40F4800070474FF0000304E000BF10F0004348BF40425FEA000C08BF704743F0964301464FF0A4
:4056000000001CE050EA010208BF70474FF000030AE000BF50EA010208BF704711F0004302D5404261EB41015FEA010C02BF84460146002043F0B64308BFA3F18053A3F5A8
:405640000003BCFA8CF2083AA3EBC25310DB01FA02FC634400FA02FCC2F12002BCF1004F20FA02F243EB020008BF20F00100704702F1200201FA02FCC2F1200250EA4C0084
:4056800021FA02F243EB020008BF20EADC7070474FF0FF0C1CEAD0521EBF1CEAD15392EA0C0F93EA0C0F6FD01A4480EA010C400218BF5FEA41211ED04FF0006343EA50103A
:4056C00043EA5111A0FB01310CF00040B1F5000F3EBF490041EAD3715B0040EA010062F17F02FD2A1DD8B3F1004F40EBC25008BF20F00100704790F0000F0CF0004C08BFD5
:4057000049024CEA502040EA51207F3AC2BFD2F1FF0340EAC250704740F400004FF00003013A5DDC12F1190FDCBF00F000407047C2F10002410021FA02F1C2F1200200FA81
:4057400002FC5FEA310040F1000053EA4C0308BF20EADC70704792F0000F00F0004C02BF400010F4000F013AF9D040EA0C0093F0000F01F0004C02BF490011F4000F013BDC
:40578000F9D041EA0C018FE70CEAD15392EA0C0F18BF93EA0C0F0AD030F0004C18BF31F0004CD8D180EA010000F00040704790F0000F17BF90F0004F084691F0000F91F03A
:4057C000004F14D092EA0C0F01D142020FD193EA0C0F03D14B0218BF084608D180EA010000F0004040F0FE4040F40000704740F0FE4040F4400070474FF0FF0C1CEAD05233
:405800001EBF1CEAD15392EA0C0F93EA0C0F69D0A2EB030280EA010C49024FEA402037D04FF0805343EA111143EA10130CF000408B4238BF5B0042F17D024FF4000C8B422B
:4058400024BF5B1A40EA0C00B3EB510F24BFA3EB510340EA5C00B3EB910F24BFA3EB910340EA9C00B3EBD10F24BFA3EBD10340EADC001B0118BF5FEA1C1CE0D1FD2A3FF6FE
:4058800050AF8B4240EBC25008BF20F0010070470CF0004C4CEA50207F32C2BFD2F1FF0340EAC250704740F400004FF00003013A37E792F0000F00F0004C02BF400010F4D7
:4058C000000F013AF9D040EA0C0093F0000F01F0004C02BF490011F4000F013BF9D041EA0C0195E70CEAD15392EA0C0F08D142027FF47DAF93EA0C0F7FF470AF084676E777
:4059000093EA0C0F04D14B023FF44CAF08466EE730F0004C18BF31F0004CCAD130F000427FF45CAF31F000437FF43CAF5FE700BF4FF0FF3C06E000BF4FF0010C02E000BFDE
:405940004FF0010C4DF804CD4FEA40024FEA41037FEA226C18BF7FEA236C11D001B052EA530C18BF90EA010F58BFB2EB030088BFC81738BF6FEAE17018BF40F0010070473C
:405980007FEA226C02D15FEA402C05D17FEA236CE4D15FEA412CE1D05DF8040B704700BF844608466146FFE70FB5FFF7C9FF002848BF10F1000F0FBD4DF808EDFFF7F4FF4F
:4059C0000CBF012000205DF808FB00BF4DF808EDFFF7EAFF34BF012000205DF808FB00BF4DF808EDFFF7E0FF94BF012000205DF808FB00BF4DF808EDFFF7D2FF94BF0120F1
:405A000000205DF808FB00BF4DF808EDFFF7C8FF34BF012000205DF808FB00BF4FEA4002B2F1FE4F0FD34FF09E03B3EB12620DD94FEA002343F0004310F0004F23FA02F098
:405A400018BF404270474FF00000704712F1610F01D1420205D110F0004008BF6FF0004070474FF00000704742000ED2B2F1FE4F0BD34FF09E03B3EB126209D44FEA002353
:405A800043F0004323FA02F070474FF00000704712F1610F01D1420202D14FF0FF3070474FF00000704700BF014B1868704700BFD487FF1F0E4B70B51E460E4C0025E41A64
:405AC000A410A54204D056F8253098470135F8E702F05AFB084B094C1E46E41AA4100025A54204D056F8253098470135F8E770BD9481000094810000948100009C8100009B
:405B0000931E222B10B50C4602D90020087010BD0A2A06D1002804DA2D230B704042012100E00021214400F0AFFC204610BDFFF7E7BF10B5431E0A44914204D011F8014B50
:405B400003F8014FF8E710BD03460244934202D003F8011BFAE770472DE9F0471E4688B0149F002BB8BF06F10043129927F02007B6BF1E4600232D23462F1446109DDDF84B
:405B80004CA00B7003D0452F03D1013501E0032300E002238DE8280406AB039307AB04932246334600F038FD472F804602D1119BDB0726D5462F08EB050911D198F800303A
:405BC000302B0AD12046314600220023FFF7A8FB18B9C5F10105CAF80050DAF8003099442046314600220023FFF79AFB08B1CDF81C90079B4B4504D25A1C079230221A706C
:405C0000F7E74046079B159AC8EB0303136008B0BDE8F087034673B50029B8BF494203F8022BB4BF2D222B22092942701ADD0DF1070426460A2291FBF2F502FB1511092D94
:405C400001F1300104F8011D2946F3DC3031651E04F8011CB5421A460AD215F8012B03F8012BF7E71A463024214402F8024B5970101A02B070BD00002DE9F04F91B08B46A2
:405C800015461E461A9F044601F082FAD0F800A0504600F0F1FB00230E933B680990073323F0070303F108029BF818803A60D3E90023CBE91223DBE91201FEF7CDFD01283A
:405CC000DBE9120119D100220023FFF733FB10B12D238BF84330A04BA04FB8F1470F88BF1F460323CBF81030DBF8003023F00403CBF800304FF00009A1E0FEF7ADFDDBF87A
:405D0000003048B9964A974FB8F1470F88BF17460322CBF81020E9E7DBF80420DBE91201571CCDE90A0101D1062209E0B8F1670F02D0B8F1470F05D1002A40F0C781012271
:405D4000CBF80420DBF8042043F480638DE80C00CBF800300DF1330302930DAB03930EAB059300230693CDF81080DDE90A232046FFF7F2FE08F0DF03472B07460AD10D9BE3
:405D8000D81C03DBDBF80420934237DDA8F102085FFA88F8B8F1650F0D9915D8013942460BF150000D91FFF735FF0E9A81468318012ACBF8103003DCDBF80020D10738D540
:405DC0000133CBF8103034E0B8F1660F18D10029DBF8043009DDCBF810101BB9DBF80020D20721D501330B441CE01BB9DBF80020D00701D5023315E0012313E04FF06708E0
:405E00000D9B0E9A934207DBDBF80020CBF81030D10709D5013305E0002BD4BFC3F1020301231344CBF810300D9B4FF00009CBF858309DF8333013B12D238BF843300096CE
:405E4000204659460FAA2B4600F05CF9013002D14FF0FF3052E1DBF800305A0505D4204629463A46DBF8103008E1B8F1650F40F2D080DBE9120100220023FFF751FA50B37E
:405E800020462946384A0123B0470130E0D00E9B0D9A9A4209DBDBF80030D80705D4DBF800309F0700F1108107E1204629465246099BB0470130CBD000270E9B013B9F42F0
:405EC000EDDA204629460BF11A020123B0470130BED00137F1E70D9B002B29DC20462946214A0123B0470130B2D00D9B2BB90E9B1BB9DBF80030D907D1D52046294652461F
:405F0000099BB0470130A3D04FF000080D9B20465B429845294608DA0BF11A020123B047013095D008F10108F0E73A460E9BA5E0DBF858200E9B9A42A8BF1A46002A91461A
:405F400002DC4FF000081CE0204629463A464B46B0470130F5D17BE70E8000000A80000016800000128000001A800000204629460BF11A020123B04701303FF469AF08F173
:405F80000108DBF85830B9F1000FB4BF1A46C9EB03029045EADB07EB03080D9A0E9B9A4210DBDBF80030DA070CD40E9A1744C8EB07030D9FD21B9342A8BF1346002B1F4648
:405FC00008DC0EE0204629465246099BB0470130EBD13DE7204629464246B04701303FF437AF4FF000080AE0204629460BF11A020123B04701303FF42BAF08F101080D9AF8
:406000000E9B002FA3EB0203A8BFDB1B9845EBDB45E70E9A012A01DCDB0736D5204629463A460123B04701303FF412AF204629465246099BB04701303FF40AAFDBE912019B
:4060400000220023FFF76CF9E8B90E9B204629467A1C013B1DE0204629460BF11A020123B04701303FF4F4AE01370E9B013B9F42F1DB204629464B460BF15002B0470130DE
:406080007FF40DAFE4E60027EFE7204629463A460123B0470130ECD1DAE6204629460BF119020123B04701303FF4D2AE0137DBF80C300F9A9B1A9F42EFDBDBF80C000F9B08
:4060C0009842B8BF184619E00027F0E743F480638DE80C00CBF800300DF1330302930DAB03930EAB059300230693CDF810802046DDE90A23FFF730FD074640E611B0BDE89E
:40610000F08F00BF2DE9F84391461F468A680B6906469342B8BF1346C9F8003091F843200C46DDF8208012B10133C9F800302368990642BFD9F800300233C9F800302568D2
:4061400015F006051CD094F843302268003318BF012392061FD5E118302081F843005A1C94F845102244023382F8431013E03046394604F119020123C047013007D00135BB
:40618000E368D9F800209B1A9D42F0DBDBE74FF0FF30BDE8F8833046394604F14302C0470130F4D02268D9F80050E36802F00602042A08BF5D1B2269A3680CBF25EAE575A2
:4061C00000259342C4BF9B1AED184FF00009A9450ADA3046394604F11A020123C0470130D5D009F10109F2E70020BDE8F88300002DE9FF410C461746227E98466E2A0646C3
:406200000A9B01F1430100F0B08012D8632A23D00AD8002A00F0BD80582A40F0CC8084F84520DFF804E257E0642A1ED0692A1CD0C1E0732A00F0B18009D86F2A2ED0702A81
:4062400040F0B980226842F0200222603FE0752A24D0782A3BD0AEE01A6804F14205111D1960136884F84230A9E020681A6810F0800F02D0101D186008E010F0400F02F1D7
:406280000400186002D0B2F9003000E01368002B3EDA2D225B4284F8432039E020681A6810F0800F02D0101D186007E010F0400F02F10400186001D0138800E01368227E17
:4062C000DFF864E16F2A0CBF08220A221CE07822DFF858E184F845202268186812F0800F00F104051D6003D1550601D5038800E00368D00744BF42F0200222601BB9226846
:4063000022F0200222601022002084F8430002E0DFF814E10A226568002DA8BF2068A560A4BF20F00400206003B965B10D46B3FBF2F002FB10331EF8033005F8013D034615
:406340000028F4D100E00D46082A0BD12368DA0708D5236962689A42DEBF302305F8013C05F1FF35491B21612EE025681A6815F0800F606903D0151D1D60136808E015F0D6
:40638000400F02F104051D60136801D0188000E01860002323610D4616E01A68111D1960156800212846626800F0FEFE08B1401B6060636804E004F1420584F8422001233D
:4063C0002361002384F84330CDF800803046214603AA3B46FFF796FE013002D14FF0FF301FE0304639462A462369C0470130F5D023689B0705D4E068039B9842B8BF184633
:406400000FE00025E368039A9B1A9D42F3DA3046394604F119020123C0470130DED00135F0E704B0BDE8F0811C8000002D8000000EB400B54FF402719CB0ADF814106FF02F
:406440000041049107914FF6FF711DABADF81610084953F8042B02900690086802A9019301F090FA029B00221A701CB05DF804EB03B07047D487FF1F034613F8012B002A63
:40648000FBD1181A01387047F0B58BB003460F466D461A4C04F1200E2E4620686168083403C674453546F7D1217920683171911E222930604FF0000001D938701CE07D1EC8
:4064C000B3FBF2F402FB14330AAE334413F8283C411C05F8013F23460CB10846F0E77C543A18C11A8B4206DAF95C1478FC5402F801190133F5E738460BB0F0BD3E8000009E
:406500002DE9F74F03690C698046A3427EDB013C01F114074FEA840E00F1140606EB0E0357F82450019356F824300135B3FBF5F507EB0E09BDB34FF0000A3846B446D346DE
:4065400050F8043B9AB21B0C02FB05A26B4303EB124392B2C2EB0B0BBCF800204FEA134A5A441FFA83FBDCF800304845CBEB134303EB224392B242EA03424FEA234B4CF856
:40658000042BDDD956F80E306BB9019B043BB3421A4602D8C8F8104005E01268043B002AF8D1013CF3E7404601F01DF800282BDB304601354FF0000E57F8042B036891B2A5
:4065C000C1EB0E0E120C99B27144C2EB134303EB214389B24FEA234E4F4541EA034340F8043BE9D956F8242006EB840362B9043BB3421A4602D8C8F8104005E01268043BFC
:40660000002AF8D1013CF3E7284600E0002003B0BDE8F08F000000002DE9F04F456A95B08246219CCDE9022345B9102000F0B4FDCAF82400456085600560C560DAF8243073
:40664000196859B15A68012393404A608B60504600F0EDFDDAF8243000221A60039BA24A002BBDBF01232360039B0023BCBF23F000430393039FA8BF236027F000431B0D01
:406680001B0593421DD142F20F73209A1360029B43B9964A964BC7F31300002814BF1846104600E09248229B002B00F06985C37813B100F1080300E0C31C229A136000F0E5
:4066C0005FBDDDE902450022204629460023FEF727FE804658B1209A01231360229B002B00F03C8583481860013800F049BD13AB009312AB0193504622462B4600F0EEFF24
:40670000C7F30A5607905EB1C5F3130343F07F51204641F44011A6F2FF36CDF844801DE0139B129E1E446FF482639E42A1BF029A06F2124322FA03F06F4BB7BF6F4B9B1BA9
:40674000029A9B1BAABF9F4002FA03F03843FEF709FB0123A1F1F871013E11930022684BFEF7C2F95AA3D3E90023FEF771FB5AA3D3E90023FEF7BAF9044630460D46FEF7CC
:4067800001FB57A3D3E90023FEF762FB02460B4620462946FEF7AAF904460D46FEF7F2FD29468346002220460023FEF7C3FD58B15846FEF7E7FA02460B4620462946FEF7B3
:4067C000AFFD08B90BF1FF3BBBF1160F0DD84D4B03EBCB03D3E90001DDE90223FEF7C8FD30B10BF1FF3B002300E00123109300E01090129B9E1B731E0A9345BF5B42099358
:40680000002300234CBF0A930993BBF1000F07DB0A9BCDF834B05B440A9300230B9308E0099BCBEB03030993CBF100030B9300230D931E9B092B29D8052BC4BF043B1E9351
:406840001E9BC8BF0025A3F10203D8BF0125032B21D8DFE803F0020E0410002300E001230C931F9B002B20DC0123069305931A4619E0002300E001230C931F9B5B4406934B
:406880000133012B0593B8BF012311E0012500231E930C9501E001230C934FF0FF3306930593002212231F9202E01F9B06930593DAF8244000226260042101F114029A427B
:4068C00022D86268490001326260F6E7AFF3008061436F63A787D23FB3C8608B288AC63FFB799F501344D33F0000F07F638000006C8000001B8000000EFCFFFFEEFBFFFF31
:406900000000F83F788000005046616800F05AFCDAF8243020601B680893059B0E2B00F24781002D00F04481DDE90223BBF1000FCDE90E2331DDB14A0BF00F034FEA2B162D
:4069400002EBC303F006D3E900450CD5DDE90E01AB4B06F00F06D3E90823FEF7A3FB0327CDE9020100E00227DFF8948276B1F10708D5D8E9002320462946FEF769FA04460C
:406980000D460137761008F10808EFE7DDE9020122462B46FEF786FB1BE0CBF10004DCB1DDE90E01954B04F00F0203EBC203D3E90023FEF74DFA924D241102274CB1E207DC
:4069C00004D5D5E900230137FEF742FA64100835F4E7CDE9020100E00227109BDBB1DDE90245002220462946864BFEF7A3FC90B1059B83B1069B002B40F3D6802946204647
:406A00000022814BFEF724FA0BF1FF36CDE902010137069D01E05E46059D3846DDE90289FEF7B0F942464B46FEF712FA774B0022FEF75CF8CDE90201039BA3F1507403946F
:406A4000CDB9404649460022714BFEF74DF8029A234680468946FEF78BFC002840F0408240464946029A04F10043FEF763FC002840F0308298E0614B0C996A1E03EBC203E8
:406A8000002947D0D3E9002300206249FEF70AFBDDE90223FEF728F8CDE90201089C49464046FEF76FFC0746FEF76CF902460B4640464946FEF718F8DDE90223303704F878
:406AC000017B80468946FEF735FC002840F0378342464B4600204B49FEF706F8DDE90223FEF728FC002840F0D080089BE31AAB425ADADDE902010022434BFEF7A9F90022EE
:406B0000CDE90201404B40464946FEF7A1F980468946C4E7D3E90001DDE90223FEF798F9089BCDE902015C191D4649464046FEF729FC0746FEF726F902460B46404649468D
:406B4000FDF7D2FF303705F8017BA5428046894623D100222F4BDDE90201FDF7C7FF02460B4640464946FEF703FC002840F08D80DDE9022300202749FDF7B6FF02460B461D
:406B800040464946FEF7D6FB70B114F8013C621E302B40F0D4821446F7E700221A4BFEF757F980468946C0E7DDE90E23CDE90223139B002BC0F28A80BBF10E0F00F38680C6
:406BC0000E4B03EBCB03D3E900671F9B002B23DA059B002B20DC40F07C81304600220C4B3946FEF735F9DDE90223FEF7B7FB059D2E46002840F06F8174E100BF78800000FA
:406C0000408100000000F03F0000244000001C40000014400000E03F089CDDE9028932463B4640464946FEF73DFAFEF7ABFB0546FEF7A8F832463B46FEF70AF90B460246FD
:406C400049464046FDF750FF05F1300E089B04F801EBC3EB040E059B9E452AD102460B46FDF744FF32463B4680468946FEF780FB70B94046494632463B46FEF751FB002851
:406C800000F05E82EB0703D45AE2B34600E01C4614F8012C631E392A07D1089A9342F6D13023137013460BF1010B1A7801321A7046E20022A34BFEF7CBF800220023804610
:406CC0008946FEF72DFB0028A9D039E20C9A002A32D01E9A012A0ADC119A12B103F2334302E0129BC3F136030B9D099C18E0059B5D1E0B9BAB42B7BF0B9B5D1BEA1A0D9BC9
:406D0000BEBF0B959B180D93059BB8BF0025002BB9BF099B059A099C059BBCBF9C1A0023099A50461A4409920A9A01211A440A9200F01FFB064602E00B9D099C0C9E64B1F2
:406D40000A9B002B09DDA342A8BF2346099AE41AD21A09920A9AD31A0A930B9B002B20DD0C9BC3B1002D10DD31462A46504600F099FB0646079A3146504600F003FB074619
:406D80000799504600F053FA07970B9B5A1B08D05046079902E0504607990B9A00F082FB07905046012100F0E4FA0D9B0546002B0ADD29461A46504600F074FB1E9B054685
:406DC000012B04DD00271BE01E9B012B13DC029B8BB9039BC3F313037BB9039B23F000473F0D3F0557B1099B0127013309930A9B01330A9302E0002700E0029F0D9B43B149
:406E00002B6905EB8303186900F066FAC0F1200000E001200A9B184410F01F0008D0C0F12003042B02DDC0F11C0002E008D018461C30099B0444034409930A9B03440A9342
:406E4000099B002B05DD504607991A4600F078FB07900A9B002B05DD294650461A4600F06FFB0546109BEBB10798294600F0BBFB002817DA0023504607990A2200F0EEF9A5
:406E80000C9B0BF1FF3B0790002B00F06B813146002350460A2200F0E1F9069B0646002B33DC68E1059B002B26DC1E9B022B23DD059B0693069B73B929460522504600F0EC
:406EC000CDF905460798294600F08DFB002809DC01E000252E461F9B089C6FEA030B08E0B3462E46089B089A5C1C312313700BF1010BB14600260FE10C9B23B9059B0693F5
:406F0000089F079CC9E0059B0693002C05DD31465046224600F014FB0646AFB17168504600F050F90446326906F10C01023292000C30FEF7FEFD50462146012200F000FB69
:406F4000814602E000002440B146089F079C29462046FFF7D5FA3146099000F13008204600F041FB4A4605902946504600F057FBC26803463AB919462046079300F033FB0F
:406F8000079B024600E0012250461946079200F04EF9079A92B91E9B83B9029B03F0010363B9B8F1390F3B4607943ED0059B7C1C002BC4BF099B03F131083DE0059B002BD4
:406FC00004DA002AC446079408DC21E024D11E9B13BB029B03F00103F3B9F2E72146012250460597CDF8088000F0AAFA2946079000F0F9FA0028DDF808C0059B03DC07D1C8
:4070000018F0010F04D0B8F1390F0ED008F1010C7C1C87F800C07FE0002A07F101020EDDB8F1390F3B46079403D1392201371A7057E0144608F1010887F800806CE0089BCA
:407040001746D31A02F8018C069A93423AD021460A220023504600F001F94E450446314650464FF00A024FF0000304D100F0F6F8064681466BE700F0F1F8494606460A221B
:407080005046002300F0EAF8814660E7214650460A22002300F0E2F8044620462946FFF72FFA089B00F1300807F8018B069AFB1A9342EBDB089BB146012AACBF9B18013325
:4070C0001F46002621460122504600F039FA2946079000F088FA002803DC15D118F0010F12D03C4614F8013C621E392B09D1089B9A4204D10BF1010B3123089A02E014464C
:40710000F0E70133137007E03C4614F8013C621E302B01D11446F8E75046294600F087F8B9F1000F0CD02EB14E4503D05046314600F07DF85046494600F079F800E0B3460A
:407140005046079900F073F80023209A23700BF101031360229B1BB11C6001E00A480FE008980DE0069B002B3FF7CAAE1E9B022B3FF7A0AEC4E61E9B022B3FF79BAEC4E64A
:4071800015B0BDE8F08F00BF1A800000AFF3008000487047D887FF1F024B0146186800F041BB00BFD487FF1F10B5C9B202449042034605D01C7801308C42F8D1184610BDBA
:4071C000002010BD70B5456A04460E463DB91020FFF7E2FF6062456085600560C560656AEB6843B1636ADB6853F8260078B1026843F8262017E020460421212200F0C0FA43
:40720000636AE860DB68002BECD1002070BD012101FA06F56A1D2046920000F0B1FA0028F3D04660856000230361C36070BD70B5446A06460D463CB91020FFF7ADFF706237
