:400000000080002011000000C91C0000C91C000008B5044B1A6803F53F5302331A6001F073FE00BFFA46004010B5054C237833B9044B13B10448AFF300800123237010BD3B
:400040002083FF1F000000001C7F0000084B10B51BB108480849AFF300800848036803B910BD074B002BFBD0BDE81040184700BF000000001C7F00002483FF1F0881FF1FD7
:400080000000000008B562B601F0B2FA01F09AFA00F05CF900F05CF900F05CF900F066F900F050FA00F028F900F06AF801F010F900F0B2F900F072FD1748184901F02CF8C5
:4000C00000F046FE01F026F901F080F901F092FA01F08AFA00F046FA00F010F900F05EF801F0FCF800F0BCF900F064FD01F048F800F038FE012002F049FB00F001F900F08E
:40010000BFF901F055F800F06BFF00F031F9002002F03CFBEEE700BF350300004103000010B5044609490A6813889BB210882343138009680888A1F5004180B289B201F07A
:40014000C1FAE0B200F0E0FA10BD00BF84ECFF1F10B5044609490A6813889BB2108823EA0403138009680888A1F5004180B289B201F0A8FAE0B200F0E3FA10BD84ECFF1FC2
:40018000034A044B1A600022034B1A70704700BF0080004084ECFF1F3C83FF1F08B5034B1B681888C0B200F0AFFA08BD84ECFF1F08B520F07F02204B1A7010F0010F0AD0D5
:4001C0000120FFF7C5FF1C4B187801F0CBFB0120FFF7A6FF2BE000F002039BB253B10220FFF7B6FF144B187801F056FD0220FFF797FF1CE000F004039BB253B10420FFF75D
:40020000A7FF0D4B187801F05DFD0420FFF788FF0DE000F0080080B248B10820FFF798FF054B187801F04CFD0820FFF779FF0022014B1A7008BD00BF3C83FF1F044A1368AD
:4002400030330360136803F5B8730B60704700BF84ECFF1F044A136803F52C730360136803F57C730B60704784ECFF1F014B18681030704784ECFF1F014B18681C307047B6
:4002800084ECFF1F000000002DE9D04382B001A8694600F0A1F9019804F062FA80468946009804F05DFA10A3D3E9002304F0ACFA00220F4B04F0A8FA06460F46404649461E
:4002C00032463B4604F0ECF80A4C04F05FFD20604046494632463B4604F0E4F804F056FD606002B0BDE8D083986E1283C0CAD93F0000E03F4083FF1F704700BF704700BF4F
:4003000038B500F03BF9044600F04EF9054614F0010F01D000F096FC04F00204A4B20CB100F08CFE15B12846FFF742FFFFF7ACFF38BD00BF014B1868704700BF4083FF1F0F
:40034000014B5868704700BF4083FF1F704700BF704700BF08B5002002F018FA00F0D4FF014B186008BD00BF4883FF1F704700BF08B500F0C9FF0A4A1368C01A506004F021
:40038000CDF90022074B04F0CFFC40B100F0BCFF034B18609868421C9A6000F03DFA08BD4883FF1F00407F4070B504460E46036B9847A060E368C31A2361E06004F12005A0
:4003C000184604F0EDFD0146284600F0A5FF60610F4904F039FE0546304604F0DDFD0146284604F0E5FE014604F1280000F094FFA06104F0B5F904A3D3E9002304F004FA17
:4004000004F0C4FCE06170BD57A393F4923B6B3F00007A44AFF3008010B40E4B00219960D960196100225A615A620B4C1C62DA620A4898629A61DA61196459649964DA6437
:40044000DA659C655A6618661A655A655DF8044B704700BF0C81FF1F000040400000204110B502F0EBFB02F0D1FA044C636B00209847E36E0020984710BD00BF0C81FF1F1C
:4004800038B500F041FF114A1368C01A506004F045F900220E4B04F03DFCB0B100F034FF0A4B18601B7A2BB90122084B1A72072001F0F8FE074D054C28466168FFF774FFC6
:4004C00005F138006168FFF76FFF38BD5483FF1F000049400C81FF1F014B9869704700BF0C81FF1F014B186D704700BF0C81FF1F014BD869704700BF0C81FF1F014B586D64
:40050000704700BF0C81FF1F70B50D4C636B002098470026E6602661002565616562A561E561E562A660E36E304698476664A664E564E565256565656566266470BD00BF6F
:400540000C81FF1F10B5064C204600215A2204F0CCFF0023A4F85A30A4F85C3010BD00BF6083FF1F08B501F0E5FF5A200E21024A02F002F808BD00BF6083FF1F08B501F053
:40058000E7FF0028FBD14FF40043044A1360044A108800211180034A136008BD80E100E06083FF1F00E100E008B501F0D1FF0028FBD14FF40043044A1360044A90880021BA
:4005C0009180034A136008BD80E100E06083FF1F00E100E0000000002DE9F04105460C4601F0B6FF10F0020F03D000223E4B1A660AE000F089FE3C4E736EC01A336E03443B
:40060000336600F081FE706600232B602360364B1B6EB3F5FA6F10D201F09AFF0028FBD14FF40043314A13602F4AD2F806102960D2F80A2022602E4A1360D5F800804046A6
:4006400004F08EF806460F461FA3D3E9002304F04DFB38B1304639461DA3D3E9002304F045FB50B93046394617A3D3E9002304F03DFB20B9DFF8848001E0DFF88480C5F8E1
:4006800000802568284604F06BF806460F4612A3D3E9002304F02AFB38B13046394610A3D3E9002304F022FB48B9304639460AA3D3E9002304F01AFB10B90E4D00E00E4DAF
:4006C0002560BDE8F08100BFC66D3480B740E83FC66D3480B740E8BF17F671611F170E4017F671611F170EC06083FF1F80E100E000E100E0FBB87040FBB870C0BC05423F45
:40070000BC0542BFAFF3008008B50A4AB2F85C301843A2F85C0001F01BFF0028FBD14FF40043054A1360034AB2F85C10D181034A136008BD6083FF1F80E100E000E100E0B9
:4007400008B50B4AB2F85C3023EA0000A2F85C0001F0FEFE0028FBD14FF40043054A1360034AB2F85C101182034A136008BD00BF6083FF1F80E100E000E100E0F8B50746CE
:400780000E4615461C4601F0E3FE0028FBD14FF400431E4A13601E4AC2F812701D4A136001F0D6FE0028FBD14FF40043174A1360174AC2F81660174A136001F0C9FE00282B
:4007C000FBD14FF40043114A1360114AC2F81A50104A136001F0BCFE0028FBD14FF400430A4A13600A4AC2F81E400A4A136001F0AFFE0028FBD14FF40043044A13600699F6
:40080000034AC2F82210034A1360F8BD80E100E06083FF1F00E100E010B5044601F098FE0028FBD14FF40043034A1360034AC2F85640034A136010BD80E100E06083FF1FCB
:4008400000E100E030B4BDF8084091420AD19C4201D198B211E0E41A04EBD47403EB640080B20AE0401A25B21CB22C1B04FB00F4521A94FBF2F2981880B200B230BC70474B
:4008800070B584B00C4600218DF80F108DF80E1058B3164605460DF10E02009221461A460DF10F0300F062FD9DF80F309DF80E0034F9231034F9202036F8133036F81000BA
:4008C000009028B2FFF7BEFF80B2A0F5FA639BB24FF62F02934205D9B0F57A7F38BF4FF47A7004E04FF4FA6001E040F2DC5004B070BD00BF2DE9F04180460C46002104F0AB
:400900005FFDF8B1E7687D683E68B86804F048FB414604F099FB04F05DFDB042B8BF30468542A8BF0546284607F10C0107F1D8023323FFF7A5FFE080284604F031FBA060A9
:40094000BDE8F0814046002104F01CFDF8B127697D683E68B86804F023FB414604F074FB04F038FDB042B8BF30468542A8BF0546284607F10C0107F1D8023323FFF780FF3C
:40098000E080284604F00CFBA060BDE8F08140F2DC53E3800023A360BDE8F0812DE9F04180460F46C488A31A002B03DA6642B61AB6B201E0A61AB6B2B6FBF7F600250AE04F
:4009C000A41BA4B2D8F8203020469847012001F069FC0135ADB2BD42F2D3BDE8F08100BF2DE9F041884602EB8202D7B27D1D036AC08898470026002411E0FFF741FD042CFC
:400A000008D9C0470B4904F01FFB0146304604F013FA06460A2001F045FC0134E4B2A3B2AB42EAD3304604F0D5FC90FBF7F0BDE8F08100BF0000C84270B58EB003460D46B1
:400A4000164601A81A491A4605F0F4FA01A800F0CDFD00241DE08CB1164BA3FB0423DB0803EB83035B00E31A13F0FF0F06D106A8114956F8242005F0DDFA05E006A80F49FC
:400A800056F8242005F0D6FA06A800F0AFFD0134E4B26B1E9C42DEDB06A8094956F8242005F0C8FA06A800F0A1FD0EB070BD00BF207F0000CDCCCCCC287F0000307F000055
:400AC000387F000070B58EB003460D46164601A81A491A4605F0AEFA01A800F087FD00241DE08CB1164BA3FB0423DB0803EB83035B00E31A13F0FF0F06D106A8114936F86D
:400B0000142005F097FA05E006A80F4936F8142005F090FA06A800F069FD0134E4B26B1E9C42DEDB06A8094936F8142005F082FA06A800F05BFD0EB070BD00BF207F00002E
:400B4000CDCCCCCC407F0000487F00004C7F000010B50C4600F04AFD22690C4833210C32FFF76AFFE2680A483321D832FFF7AAFF2269084833210C32FFF75EFF22690648A3
:400B80003321D832FFF79EFF10BD00BF547F0000607F0000707F0000807F000010B5044C636901209847A36B0120984710BD00BF7C81FF1F10B5104C04F10C0004F110015A
:400BC000FFF73CFB04F1300004F13401FFF742FB636900209847A3699847236A40F2DC509847A36B00209847E36B9847636C40F2DC50984710BD00BF7C81FF1F10B5044CC4
:400C00002146FFF777FE236AE088984710BD00BF7C81FF1F10B5044C04F12401FFF76AFE636C608D984710BD7C81FF1F014BD888704700BF7C81FF1F014B588D704700BF73
:400C40007C81FF1F10B5064CE3699847236C9847636901209847A36B0120984710BD00BF7C81FF1F2DE9F0470C4690469946089E034608B9244D00E0244D0BB9244F00E04B
:400C8000244F40F2DC50E8802B6A98474FF4FA7001F008FBFFF738FC30460021CC2204F024FC8CB920E0C4F1320A5FFA8AFA39F81A30EB80284639464246FFF791FE46F8F2
:400CC0002A000134E4B200E00024322CEBD90DE039F81430EB80284639464246FFF780FE46F824000134E4B2322CF1D928464FF4FA7140F2DC52FFF751FE40F2DC50E88047
:400D00002B6A9847BDE8F0877C81FF1FA081FF1FD9040000E504000008B5044BD860196103481946FFF714FF08BD00BF7C81FF1F907F000008B5044B18635963034803F162
:400D40002401FFF705FF08BD7C81FF1F987F0000034B00221A605A609A60DA601A617047C883FF1F704700BF2DE9F84F0446FFF7BFFB0546FFF7C2FB8246204604F00CF9F8
:400D80000446294604F060F98D4904F011FA80465046214604F058F9894904F009FA04464046214604F046F803F0DAFC70A3D3E9002303F053FE70A3D3E9002303F024FD19
:400DC00003F0E4FF7F4E316804F036F8306003F0C7FC06460F466AA3D3E9002303F0A4FF58B13046394668A3D3E9002303F058FB03F0CCFF734B186012E03046394664A31C
:400E0000D3E9002303F07CFF50B1304639465EA3D3E9002303F046FB03F0B8FF694B18604046214604F008F803F09AFC0022664B03F0EAFC58A3D3E9002303F0E5FC03F0CE
:400E4000A5FF03F08DFC06460F465E4C206803F087FC8046894602F05BF902460B463046394603F0D1FC03F091FF83464046494602F096F902460B463046394603F0C4FCBD
:400E800003F084FF06466068594603F0D5FF6060A068314603F0D0FFA0605046294603F0CBFF4FF07C5104F0CFF8804603F058FC06460F463AA3D3E9002303F035FF68B10E
:400EC0004FF001043046394637A3D3E9002303F00DFF08B94FF00004E3B200E0012353B1304639462EA3D3E9002303F01DFF20B9DFF8E08001E0DFF8E080324BC3F80C80C0
:400F00005046294603F096FF03F02AFC18A3D3E9002303F0A3FD06460F4625A3D3E9002303F002FF68B14FF001043046394622A3D3E9002303F0DAFE08B94FF00004E3B248
:400F400000E0012373B13046394619A3D3E9002303F0EAFE20B13046394603F017FF02E01A4800E01A48174B1861BDE8F88F00BF986E1283C0CAD93F14AE47E17A14F23FDD
:400F8000182D4454FB210940182D4454FB211940182D4454FB2109C05C8FC2F5285CF13FC66D3480B740E8BFC66D3480B740E83F17F671611F170EC017F671611F170E40B5
:400FC00000007A44C883FF1F0000E03FFBB870C0FBB87040BC0542BFBC05423FAFF3008010B582B000F090F9124B5C69041B204603F094FB0022104B03F096FEB8B100F049
:4010000083F90C4B58611B7E2BB90122094B1A760B2001F047F92046FFF7A6FE054C6068A1682268E36824690094FFF7A7FB02B010BD00BFC883FF1F0000494000B583B07C
:40104000074A0023136053609360D36013610093184619461A46FFF791FB03B05DF804FBC883FF1F000000002DE9F0470546436C98478146002104F0A3F910B14FF0010AF1
:4010800001E04FF0FF0AAB6C9847044605F10808484603F065FB1EA3D3E9002303F0DEFC06460F460022002303F020FE50B109F1004003F055FB16A3D3E9002303F0CEFCA9
:4010C00006460F463046394603F060FE0146404600F074FA2046002104F054F910B104F1004100E02146404600F06AFA404600F085F950B1EC6C2D694FFA8AF003F050FF16
:401100000146284603F0A0FFA047BDE8F08700BF57A393F4923B6B3F2DE9F04387B0154D6864C5F898100024DFF84C90CDF800900194DFF84880CDF8088001270397002606
:40114000049605F1080021462246234600F00CFACDF800900194CDF808800397049605F15C0021462246234600F0FEF907B0BDE8F08300BFC481FF1FCDCC4C3D00009643E1
:4011800010B5FFF773F8094C01684268836804F1080000F0B3F9FFF76FF801684268836804F15C0000F0AAF910BD00BFC481FF1F10B500F0A9F80F4B1B68C01A03F0AEFA47
:4011C00000220D4B03F0A6FD98B100F09DF8094B18601B792BB90122064B1A71132001F061F8064C2046FFF73FFF04F15400FFF73BFF10BDE483FF1F00004940C481FF1FAE
:401200002DE9F84307460E46154600F07DF804464FF000094FF000081CE0FB6C30469847FFF72EF9FFF7C4FF00F06EF8001BB0F57A7F0FD9BB6C98470146304603F0FAFDF1
:40124000014603F001FF0146404603F0F5FD804609F1010900F058F8001BA842DDD3484603F09AFE0146404603F0A2FFBDE8F88370B503460E461546064C04F1080019683C
:401280005A689B6800F03AF9204631462A46FFF7B7FF70BDC481FF1F38B503460D461446054819685A689B6800F028F9034829462246FFF7A5FF38BD2082FF1F1882FF1F0D
:4012C000024A136801331360704700BFEC83FF1F0022014B1A607047EC83FF1F10B501F0BBF801F087F8002409E0204601F0CAF820B92046034901F0BDF810BD0134042CEF
:40130000F3D910BDC1120000014B1868704700BFEC83FF1F704700BFF8B504464668304603F08AFD074625683046294603F040FF0146384603F07EFD6060294603F038FFEA
:40134000F8BD00BF030A0B704870704782B001909DF804300B709DF805304B709DF806308B709DF80730CB7002B07047F0B4049F013AD2B2540800251D703D7019E051F83D
:401380002460864203DA651CEDB21C700CE0864202D11C703C700EE0864205DD3C701A78A21A012A07D02246AC1804EBD474C4F347049542E3D9F0BC704700BF00238360E5
:4013C0000360436001614261704700BF10B500F0DDFD00F0E7FD084C04F1280004F14C0104F16C02FFF7EAFF201D04F1AC0104F1CC02FFF7E3FF10BDF083FF1F2DE9F843EB
:4014000090F83930002B48D004460768406B394603F010FD8046E069414603F015FE616A03F00AFD05466062E66A314603F0AAFF40B9D4F830902846494603F0C1FF10B1CE
:401440004D4600E0354665623846616803F0F2FC8146A069414603F0F7FD0146284603F0EBFC0546206A494603F0EEFD0146284603F0E0FC0546A0603046294603F0A0FF3A
:4014800030B9266B2846314603F09AFF00B92E46A66067600120BDE8F8830020BDE8F883F8B504460D4616460846114603F07EFF18BBE562266394F83930012B1DD1A7684A
:4014C0003846294603F05EFF30B93046394603F059FF10B1374600E02F46A760676A3846294603F04FFF30B93046394603F04AFF10B1374600E02F466762F8BD2DE9F0417B
:4015000004460D4616461F460846002103F03AFF38BB3046002103F035FF10BB3846002103F030FFE8B9E56026616761A561D4F828804046314603F087FD0646E061384647
:40154000414603F035FE206294F83830012B08D105F10045A56106F10046E66100F100402062BDE8F08100BFF8B504460F4616461D469DF8283080F838309DF8243080F8BD
:401580003930002141620160416081604163069803F016FF10B1069BA36202E04FF07E53A36220460799089AFFF77AFF2046394632462B46FFF7A2FFF8BD00BF4163704728
:4015C0000160704708B5064800214FF4C84203F08CFF044B002283F8282F83F8292F08BDFC84FF1FD4D9FF1F704700BF704700BF704700BF08B501F0DBF808BD2DE9F047A3
:4016000080460D46170912F00F021CD0C2F1100A1FFA8AFA02EB07121FFA82F9002426460CE009EB060118F8040089B201F0C4F80134A4B2013DADB20136B6B25645F0D3D6
:401640000137BFB200E00024C5F30F19B9F1000F0ED110E008EB0400F9B201F017F91034A4B2103DADB20137BFB20136B6B200E000264E45EED3ADB13F01BFB2A9460026A6
:401680000DE0B91918F8040089B201F095F80134A4B209F1FF391FFA89F90136B6B2B542EFD84D462DB104484E21044A044B03F0B7FEBDE8F08700BFB47F0000A07F00004B
:4016C000C87F000010B582B00C4601A9FFF73AFE9DF80400214601F06FF8611C9DF8050089B201F069F802B010BD00BF30B583B00D4601A9FFF72AFE002409E002AB2344F4
:40170000291913F8040C89B201F056F80134E4B2032CF3D903B030BDB8B929B919704FF4FA6040F2DC5305E00121197040F2DC504FF47A73002105E022F811300131C9B266
:401740000A339BB28342F7D9704729B919704FF47A7040F2DC5305E00121197040F2DC504FF4FA63002105E022F811300131C9B20A3B9BB28342F7D2704700BF10B4002381
:4017800008E050F8232051F82340224441F823200133DBB2322BF4D95DF8044B704700BF10B4002307E050F8234094FBF1F442F823400133DBB2322BF5D95DF8044B704752
:4017C000F0B44FF6FF7414600A4C1C6000240DE0A60050F824501F68BD4200DD1D6085591668B54200DA15600134E4B28C42EFD3F0BC70470100FFFF2DE9F04184B0804654
:4018000017461D460A9E32460DF10F03FFF784FF0F480021CC2203F068FE00240DE09DF80F10009540460A223346FFF71BFA28460749FFF7A3FF0134E4B2BC42EFD30448C3
:4018400039462A46FFF7ACFF04B0BDE8F08100BF00E9FF1F70B59AB006460D4600240CE001A80D4956F8242035F8143004F0E2FB01A8FFF7BBFE0134E4B2312CF0D901A865
:40188000064956F8242035F8143004F0D3FB01A8FFF7ACFE1AB070BDD87F0000E47F00002DE9F8438146884615461F46294E1046332106F1CC0206F1D003FFF781FF6423C7
:4018C000C6F8D4302C4606F1D80E05F13006754620686168A268E3680FC51034AE46B442F5D12288A3782A80AB703C461A4E3037354620686168A268E3680FC510342E46FA
:40190000BC42F5D12288A3782A80AB70B9F1000F0BD1B8F1000F03D1104B1A6830320FE00E4B1A6802F5B8720AE0B8F1000F03D10A4B1A68303203E0084B1A6802F5B87286
:4019400092B207484FF4A07182F40042FFF756FEBDE8F88300E9FF1FA4EAFF1F84ECFF1FCCE9FF1F70B582B0044610B13C48FFF73DFE3C4B03F536720092002001460522EC
:4019800003F50373FFF738FF34B1364901F5037001F53671FFF75EFF324D05F5037605F536750020014632462B46FFF779FF00950020012105223346FFF71EFF1CB13046AD
:4019C0002946FFF747FF274D05F5037605F536750020012132462B46FFF762FF00950120002105223346FFF707FF1CB130462946FFF730FF1B4D05F5037605F53675012043
:401A0000002132462B46FFF74BFF00950120014605223346FFF7F0FE1CB130462946FFF719FF104B0120014603F5037203F53673FFF736FF0C4D296801F1300001F5B871F4
:401A4000FFF76AF9296801F52C7001F57C71FFF771F914B10548FFF7C9FD02B070BD00BFF07F000000E9FF1F84ECFF1F1C8000002DE9F04F89B082460D46164600921C46A2
:401A80000193514B93E8070008AB03E907000023AB606B602B60284631462246D047804672E0A70008AB3B4453F80C6C55F82400314603F0C1F945F8240028460099019A9A
:401AC000D0478346414603F05DFC80B1304602F047FE37A3D3E9002302F096FE03F056F908AB03EB840343F80C0CD84646E008AB03EB840353F80C0C02F032FE02460B46CF
:401B000002F0D0FCCDE9020155F8240002F028FEDDE9022302F0C4FC03F038F945F8240028460099019AD0478346414603F02AFC80B108AB03EB8409304602F011FE1CA3CC
:401B4000D3E9002302F060FE03F020F949F80C0CD84613E0E859314603F06EF9E85108AB03EB8409304602F0FBFD13A3D3E9002302F04AFE03F00AF949F80C0C0134E4B2FE
:401B800000E00024022C8CD90598069903F054F9079903F051F902F0E3FD09A3D3E9002303F0C2F80028ECD109B0BDE8F08F00BF9A9999999999F13FCDCCCCCCCCCCEC3FEF
:401BC0009A9999999999C93F48800000AFF3008038B504460C4D2968A1F5FF417039006889B2FFF783FD2968A1F5FF416C39606889B2FFF77BFD2968A1F5FF416839A06816
:401C000089B2FFF773FD38BD84ECFF1F00B585B0064801A9064A41F28833FFF729FF01A8FFF7D6FF05B05DF804FB00BF711200003333333F38B504460C4D2968A1F5FF41B4
:401C40006439006889B2FFF751FD2968A1F5FF416039606889B2FFF749FD2968A1F5FF415C39A06889B2FFF741FD38BD84ECFF1F00B585B0064801A9064A41F28833FFF795
:401C8000F7FE01A8FFF7D6FF05B05DF804FB00BF991200003333333F10B5044610B10648FFF7A4FCFFF7B2FFFFF7E2FF14B10348FFF79CFC10BD00BF54800000748000004C
:401CC000704700BF704700BFFEE700BF08B5C0B200F0E6FAFEE700BF08B5094B1A681044084BC31A802B02DC054B186005E003F0B3FB0C2303604FF0FF32104608BD00BFE7
:401D00006C82FF1FA0ECFF1F08B5104E104D16E029686B68AC68002204E051F8040B43F8040B0432A242F8D1E868002203E0002143F8041B04328242F9D11035013E002E36
:401D4000E6D103F0A1FBFEF79DF9FEE7010000000885000008B5124A124B1A60124A136843F40073136000230AE0032B03D80F4A52F8231000E00E490E4A42F8231001331F
:401D80002F2BF2D90C4B1A780C4B1A70094A0C4B1A6000F013F900220A4B1A6008BD00BF0004FA050CED00E014ED00E000000000C91C00000080FF1FBC7600400481FF1F4A
:401DC00008ED00E00081FF1FF0B40022174611E050F82760F3B226F0FF0608E001EB420511F812406D78A5550132013BDBB2002BF4D10137272FEBD9F0BC704708B50A46C9
:401E0000002103F072FB08BD38B50E222B4B1A8018232B490B7002310A802A4A1370172204310A8002310B7002310A80264A137041F2BF2102321180023213700622234BD6
:401E40001A705222A3F580731A70214B1B78DBB2204A13700024204B1C8040F6180203F21E231A8041F25122023B1A8019250CE01A4B1B7803F0010343EA440404F0030485
:401E80004FF4F07000F0FCF9013D0DB1032CEFD1114A07231370002311490B7048200231087013700532137002220E4B1A700E4A137843F01F03137038BD00BF80400040E9
:401EC00082400040864000408E400040004300400F010049A146004004400040254200400640004001400040A2430040F8B51C4B1B78DBB21B4E3478E4B21B4F3D78EDB2D5
:401F000003F00701194A11701B090132137044F00303337045F003033B70802392321370083213700122124B1A702023114A137002210532117003321370F0220E490A70DD
:401F400003310B7005310A700C4A13700A2000F0BFF93D7034704422094B1A70F8BD00BFCF010049F8460040F94600406E580040C05A0040C35A0040205B00402B5B0040FA
:401F80007658004008B503F0A5FA08BDFF22034B1A70034B1A7800221A7070477082FF1F3D510040FF22034B5A70034B1A7800221A7070477082FF1F0D51004038B572B6A6
:401FC0004C4A137843F00403137000240AE04A4963001A1952000A44906A918DFFF70EFF0134E4B2072CF2D9002410E04249A3001A1952000A4452F8580F23445B000B4471
:402000005168B3F86020FFF7BDFF0134E4B2032CECD94FF090403949FFF7D6FE0322384B1A8040F2031202331A80364A137843F0020313701032137843F002031370324CCC
:40204000237843F040032370A2F58632513A137843F0100313702D482D490822FFF792FF2C482D490822FFF78DFF2C482C490A22FFF788FF2B482C490822FFF783FF2B48CD
:402080002B490A22FFF77EFF2A482B490822FFF779FF2A482A490822FFF774FF29482A490822FFF76FFF294829490822FFF76AFF8422284B1A704423274A137002F50072D2
:4020C000137002F540621370A2F55542B93A137843F008031370214D61232B70FFF794FE81232B70FFF702FF1D4821460E22FFF749FF38BDE846004090800000A0000048F4
:402100004858004003500140A043004002510040D80F0048C2510040E00F0048F0510040E80F004812510040F40F004820510040FC0F004832510040081000484251004014
:4021400010100048525100401810004862510040201000485B000140DB0A014000480040B0430040044A137803F0FE0300F0010018431070704700BF20510040704700BF86
:40218000014B1880704700BF0C680040014B1880704700BF8C680040014B1880704700BF4C68004008B50B4A137843F0010313700132137843F00103137044F62060FFF7B6
:4021C000DFFF44F62060FFF7E1FF40F2DC50FFF7E3FF08BD9664004008B5044B1B7823B9FFF7E0FF0122014B1A7008BD40ECFF1F044A137803F0EF03000100F010001843CA
:402200001070704720510040704700BF014B1880704700BF1C680040014B1880704700BF9C680040014B1880704700BF5C68004008B50B4A137843F0010313700132137811
:4022400043F00103137044F62060FFF7DFFF44F62060FFF7E1FF40F2DC50FFF7E3FF08BD9E64004008B5044B1B7823B9FFF7E0FF0122014B1A7008BD41ECFF1F00000000F0
:402280000230800803D000BF01380046FCD17047EFF3108072B6704780F31088704700BF01BE704710B5044605E0084B1868FFF7E7FFA4F50044B4F5004FF6D8034B586833
:4022C00000FB04F0FFF7DCFF10BD00BF7482FF1F08B5034B1B7A03FB00F0FFF7D1FF08BD7482FF1F70B504460E46074B1D680F2802D90020FFF7D4FF04F00F0455F8240044
:4023000045F8246070BD00BF08ED00E070B504460E46074B1D681F2802D90020FFF7C0FF04F01F04103455F8240045F8246070BD08ED00E038B504460D46072902D9002046
:40234000FFF7AEFF1F2C02D90020FFF7A9FF04F01F0000F1604000F564406D01EDB2057038BD00BF024A136843F002031360704710E000E008B5FFF7F5FF034A136843F0C8
:402380000103136008BD00BF10E000E020F07F40014B1860704700BF14E000E0012805D1054A136843F0040313607047024A136823F004031360704710E000E0024B1868A0
:4023C000C0F30040704700BF10E000E010B5FFF7F5FF01280BD107E0054B03EB84035B6803B19847013400E00024042CF4D910BD44ECFF1F0022014B1A60704718E000E026
:4024000008B5002305E00F4A02EB8302002151600133042BF7D90F200B49FFF763FF0120FFF7BCFF094BDB680948A0FB03308009FFF7ACFFFFF7DEFF4FF40042054B1A6058
:4024400008BD00BF44ECFF1FCD2300007482FF1FD34D621000E100E008B5054B9B6923B9FFF7CEFF0122024B9A61FFF783FF08BD44ECFF1F024B03EB80035868596070479F
:4024800044ECFF1F024B03EB80004068704700BF44ECFF1F10B50123114A137081210E3A11700821023211701132137000240D4B1C704FF400420C4B1A600F200721FFF726
:4024C00039FF0F200949FFF721FF094B1C70094B1C70094B1C70094B1C70094B1C8010BDD6490040DC49004080E100E0C92500008AECFF1F94ECFF1F8BECFF1F90ECFF1F7C
:4025000088ECFF1F08B5FFF7C3FE084A137843F0040313701032137843F004031370FFF7BBFE4FF40042024B1A6008BDA543004000E100E008B5054B1B7823B9FFF7AAFFAD
:402540000122024B1A70FFF7DDFF08BD60ECFF1F4FF40041054B1960054A1078137803F01003DBB21370034B1960704780E100E094ECFF1F00E100E010B44FF400440B4BDC
:402580001C6032B113460A4A13600A4B18800A4B19800023094A1370094A13704FF40042084B1A605DF8044B704700BF80E100E08CECFF1F92ECFF1F88ECFF1F8BECFF1FEC
:4025C00090ECFF1F00E100E0654B1B78DBB2654A137013F0080F32D0634B1B7813F0010F1CD0624A1378DBB261490968CB5CDBB25D490B7014215A4B19701378DBB25D4A4C
:40260000137013780133DBB213705B4A137843F0110313700822594B1A708EE01022504B1A70554A137843F0120313700122534B1A70534A137843F0100313707DE013F0A0
:40264000010F7AD04D4A1278D2B2042A1ED0082A3AD0012A68D1444B1B78DBB2414A5370484A128892B293420CD210223C4B1A703C4B5B783D4A13703E4A137004223F4B1D
:402680001A705AE00022364B1A7056E0394B1A783D4B1B889BB29A4212D2334B1B7831494B7010222E4B1A70324A1378DBB2304800684978C15413780133DBB213703CE0F5
:4026C0000022274B1A7038E013F0020F1ED1294B1A782C4B1B889BB29A4210D2254A1378DBB223490968CB5CDBB21F490B7004211B4B197013780133DBB213701DE0FF227A
:40270000194B1A700422013B1A7016E0FF22164B1A700022013B1A7017490B7803F0EF030B70164B1A7008E00023144A13700F4A1370104A13700A4A1370094B1B7813F041
:40274000200F0CD00C4A137803F0EF03137000220A4B1A700A4A137803F0EF0313707047D749004061ECFF1FD84900408BECFF1F8CECFF1F90ECFF1F94ECFF1F8AECFF1FE3
:40278000D649004092ECFF1F88ECFF1F044A137803F0FB03800000F00400184310707047C051004008B500F053FB00F05BFB08BD08B5FFF7F7FF08BD30B583B00C468DF808
:4027C000070000F079FBB4F5006F54D22509C5EB053319010C44A4B200F044FC00284CD1402021460DF10702012300F091FB044607282FD1234B1B7813F0020FFAD0214BB3
:402800001B7813F0020F06D01E4B1B789B0805D04FF0FF3403E04FF0FF3400E00024E4B9194B402029461A785B7800F0D7FB072816D1144B1B7813F0020FFAD0114B1B7810
:4028400013F0020F0FD00F4B1B789B0810D04FF0FF340DE0012809D10AE04FF0FF3407E04FF0FF3404E04FF0FF3401E04FF0FF3400F01EFC02E0012400E00424204603B003
:4028800030BD00BF2247004098ECFF1F38B504460D4600F011FB15F0800F48D100F0E2FB002846D140202146102200F06DFB07282FD1214B1B7813F0020FFAD01E4B1B7889
:4028C00013F0020F06D01C4B1B789B0805D04FF0FF3403E04FF0FF3400E00024E4B9174B402029461A785B7800F078FB072816D1114B1B7813F0020FFAD00F4B1B7813F048
:40290000020F0FD00C4B1B789B080DD04FF0FF340AE04FF0FF3407E04FF0FF3404E04FF0FF3401E04FF0FF3400F0C2FB02E0012400E00424204638BD2247004098ECFF1F0B
:4029400008B54FF40072054B1A6009200449FFF7DDFC09200721FFF7EDFC08BD80E100E0412A000010B54FF40074064B1C6000F0A1F8A0F5004000B2034B1B68034A14604A
:40298000184410BD80E100E064ECFF1F00E100E038B505464FF40074054B1C604FF4004000F082F8034B1D60034B1C6038BD00BF80E100E064ECFF1F00E100E0024B187840
:4029C00000F00F00704700BF6A65004040F00700014B1870704700BF8A65004008B50F20FFF7F4FFFFF7EAFFFFF752FC054A137843F010031370FFF74FFC4FF40072024BC5
:402A00001A6008BD9A65004000E100E008B500F0A3F84FF4004000F047F80022064B1A60064B1B7823B9FFF78BFF0122034B1A70FFF7D4FF08BD00BF64ECFF1F63ECFF1F0D
:402A40000D4B1B78DBB213F0010F06D00B490A6802F5FF427F320A6007E013F0020F04D006490A68A2F500420A6013F0040F02D00022024B1A6070476A65004064ECFF1F04
:402A8000024A137843F080031370704779650040014B1870704700BF89650040014B1878704700BF69650040014B1880704700BF10680040024B1B78024B188880B2704791
:402AC0000864004090680040014B188880B2704790680040014B1880704700BF50680040014B1880704700BF7068004008B501E0FFF7EAFFFFF7D2FF10F0400FF8D108BD00
:402B000008B5134B1A7802F0F8021A701A7802F0FC021A70FFF7EAFF4FF40040FFF7DAFF4FF40040FFF7C0FF0020FFF7B1FFFFF7B5FF4FF40040FFF7D3FFFFF7A9FB054A59
:402B4000137843F010031370FFF7A6FB08BD00BF796500409965004008B5054B1B7823B9FFF7CEFF0122024B1A70FFF789FF08BD68ECFF1F08B58022054B1A6007200549FE
:402B8000FFF7C4FB07200146FFF7D4FB08BD00BF80E100E0712C000010B58024064B1C6000F0A0F8A0F5004000B2044B1B68044A1460184410BD00BF80E100E06CECFF1F53
:402BC00000E100E038B505468024054B1C604FF4004000F081F8034B1D60034B1C6038BD80E100E06CECFF1F00E100E0024B187800F00F00704700BF6764004040F00700EA
:402C0000014B1870704700BF8764004008B50F20FFF7F4FFFFF7EAFFFFF73AFB054A137843F010031370FFF737FB8022024B1A6008BD00BF9764004000E100E008B500F0DF
:402C4000A3F84FF4004000F047F80022064B1A60064B1B7823B9FFF78DFF0122034B1A70FFF7D4FF08BD00BF6CECFF1F69ECFF1F0D4B1B78DBB213F0010F06D00B490A6880
:402C800002F5FF427F320A6007E013F0020F04D006490A68A2F500420A6013F0040F02D00022024B1A607047676400406CECFF1F024A137843F08003137070477364004007
:402CC000014B1870704700BF80640040014B1878704700BF60640040014B1880704700BF04680040024B1B78024B188880B270470264004084680040014B188880B27047AD
:402D000084680040014B1880704700BF44680040014B1880704700BF6468004008B501E0FFF7EAFFFFF7D2FF10F0400FF8D108BD08B5134B1A7802F0F8021A701A7802F0F3
:402D4000FC021A70FFF7EAFF4FF40040FFF7DAFF4FF40040FFF7C0FF0020FFF7B1FFFFF7B5FF4FF40040FFF7D3FFFFF791FA054A137843F010031370FFF78EFA08BD00BF81
:402D8000736400409064004008B5054B1B7823B9FFF7CEFF0122024B1A70FFF789FF08BD70ECFF1F10B500F087F800F05BF9D0B900F09AF90446072812D102E00120FFF7F9
:402DC00087FA0A4B1B7813F0020FF7D0074B1B7813F0020F04D0054B1B789B0800D1002400F066F900E00424204610BD2247004010B500F061F800F035F910BB012000F00C
:402E000013F9072818D11048022100F067F802280AD102E00120FFF75BFA0C4B1B7813F0020FF7D0002409E0084B1B7813F0020FE9D04FF0FF3401E04FF0FF3400F038F9E6
:402E400000E00424204610BD98ECFF1F2247004008B5FFF7A7FF034610B9FFF7C9FF0346184608BD08B5FFF713FA0F4A137843F0080313701032137843F008031370C8225A
:402E80000A4B1A700A4A137843F0100313701032137843F010031370064B1B7813F0200FFAD0FFF7F9F908BDA043004001470040AC4300400047004008B5FFF7E9F9064A22
:402EC000137843F0080313701032137843F008031370FFF7E1F908BDA043004070B506460D4600240CE00120FFF7F2F9064B1B7813F0010FF7D0054B1B7833550134E4B276
:402F0000AC42F3D3204670BD224700402047004030B43E2801D81F2B03D93F2827D90F2B27D8174C247814F0020F24D0154CB6252570D4252570012525700234247814F019
:402F4000020F1AD10F4C2070C1F300202070C9B22170591EC9B22170002104E0545C094804700131C9B29942F8D3072006E0012004E0012002E0042000E0092030BC7047C5
:402F80002247004020470040124B1B7813F0020F19D010B4104BB6241C70D5241C7002241C7002331B7813F0020F0ED10A4B1870002304E0CC5C0848047001339BB2934237
:402FC000F8D3072002E00420704709205DF8044B704700BF224700402047004030B4104C247814F0020F15D00E4CB6252570D8252570052525700234247814F0020F0BD1DB
:40300000084C2070080A2070C9B2217022702370072002E0042000E0092030BC704700BF22470040204700400C4B1B7813F0020F0FD00B4BB6221A70E1221A700E221A7015
:4030400002331B7813F0020F05D1054B187007207047042070470920704700BF224700402047004010B5FFF713F90F4B1B78A3B901220D4B1A700D4B1B6813F0010F0ED03D
:403080000A4A136823F00103136000BF00BF00BF0122054B5A60002402E0042400E00024FFF7FAF8204610BD74ECFF1F0400084008B5FFF7EDF80A4B00221A705B68012BAE
:4030C0000AD1084A136843F00103136000BF00BF00BF0022024B5A60FFF7DEF808BD00BF74ECFF1F04000840074B1B7813F0020F08D0064BB6221A70E0221A700D221A7035
:403100000720704704207047224700402047004030B5214A21F00043934287B01BDD1F4A934205DD02460B4601F0BAF907B030BD02AA00F081F800F0030001281AD0022898
:403140000FD008B3DDE9020101230093DDE9042300F0AEFFEAE70022002300F081FA07B030BDDDE90201DDE9042300F079FA01F10041DBE70090DDE90423DDE9020100F042
:4031800097FF01F10041D1E7DDE90201DDE9042300F066FACAE700BFFB21E93FFFFFEF7F30B5224A21F00043934287B01BDD204A934205DD02460B4601F072F907B030BD05
:4031C00002AA00F039F800F0030001281ED0022811D010B3DDE90201DDE9042300F040FA01F10041EAE7002300930022002300F05FFF07B030BD01230093DDE90201DDE913
:40320000042300F055FF01F10041D7E7DDE90201DDE9042300F024FAD0E70124DDE90201DDE90423009400F043FFC7E7FB21E93FFFFFEF7F000000002DE9F04F924C21F074
:403240000047A7428FB00E467FDD14468F4A974226DC83A3D3E90023002940F39D8101F01FF98B4B80469F42894600F083807EA3D3E9002301F014F902460B464046C4E990
:403280000023494601F00CF977A3D3E9002301F007F90125C4E9020128460FB0BDE8F08F7C4A974240F383807B4A974258DC3D15A5F21645A7EB05518B46824601F03EFDBD
:4032C00001F03CFA8046894642464B4650465946CDE9088901F0E4F80022704B01F094FA8B46824601F02AFD01F028FA8046894642464B4650465946CDE90A8901F0D0F8AB
:403300000022664B01F080FA00220023CDE90C0101F0E2FC002800F06781002340464946002201F0D9FC002814BF012302235C480221019000912A4608A8214600F0B4FA06
:40334000002EC0F24781054606E0C2E9000100250024C2E90245002528460FB0BDE8F08F02460B4601F09CF80025C4E90201C4E90001F1E73EA3D3E9002301F091F83EA383
:40338000D3E9002306460F4601F08AF802460B463046C4E90023394601F082F836A3D3E9002301F07DF80125C4E90201D4E700F037FF33A3D3E900238046894601F024FA23
:4033C0000022384B01F06EF801F0B8FC054601F0B5F923A3D3E90023CDE9040101F014FA02460B464046494601F05AF81EA3D3E9002382468B46DDE9040101F005FA1F2DB2
:40340000CDE902015046594650DC274B6A1E53F82230BB424AD0DDE9022301F041F802460B4681468846C4E900234A4643465046594601F035F8DDE9022301F031F80246F8
:403440000B46002EC4E9022386DA4A4608F1004301F1004184E80C00E160A0606D427BE700004054FB21F93F3163621A61B4D03D0000601A61B4D03D7370032E8A19A33B87
:4034800083C8C96D305FE43FFB21E93F7BD90240FB21F93FFB213941FFFFEF7F00007041908100000000E03F10810000DDE9022300F0F6FF88463F15C8F30A53FB1A102BDD
:4034C0008146C4E90001B0DD59A3D3E90023DDE9040101F099F98046894642464B465046594600F0DDFFCDE90601DDE906235046594600F0D5FF42464B4600F0D1FF4EA383
:40350000D3E9002380468946DDE9040101F07CF942464B4600F0C4FFCDE90201DDE90223DDE9060100F0BCFF0B4602468846C1F30A517F1A312F8146C4E9002374DD40A3C4
:40354000D3E90023DDE9040101F05EF980468946DDE9060142464B4600F0A2FF82468B46DDE9060152465B4600F09AFF42464B4600F096FF34A3D3E9002380468946DDE976
:40358000040101F041F942464B4600F089FFCDE90201504659463EE700F084FF2E4B80469F42894622D02AA3D3E9002300F07AFF02460B464046C4E90023494600F070FFF1
:4035C00023A3D3E9002300F06DFF4FF0FF35C4E90201C1E66268E36802F1004203F1004345426260E360B7E60323A0E610A3D3E9002300F057FF10A3D3E9002306460F469F
:4036000000F050FF02460B463046C4E90023394600F046FF08A3D3E9002300F043FF4FF0FF35C4E9020197E6DDE906ABFDE600BF0000601A61B4D03D7370032E8A19A33B12
:403640000000002E8A19A33BC14920259A837B393163621A61B4D03DFB21F93FAFF300802DE9F04F21F00047B7F1795F85B00C4692469B4605466BDA01F060FB002800F072
:40368000E7802A4623462846214601F0BDF874A3D3E900238046894601F0B6F872A3D3E9002300F0FFFE42464B4601F0ADF870A3D3E9002300F0F4FE42464B4601F0A4F81B
:4036C0006DA3D3E9002300F0EDFE42464B4601F09BF86BA3D3E9002300F0E2FE42464B4601F092F868A3D3E9002300F0DBFE42464B4601F089F8CDE90001404649460022E6
:40370000634B01F081F8DDE9002306460F464046494601F079F85246804689465B462846214601F071F802460B464046494600F0B7FE02460B463046394600F0B1FE0246AB
:403740000B460020534900F0ABFE05B0BDE8F08F02460B4601F058F841A3D3E900238046894601F051F840A3D3E9002300F09AFE42464B4601F048F83DA3D3E9002300F01B
:403780008FFE42464B4601F03FF83BA3D3E9002300F088FE42464B4601F036F838A3D3E9002300F07DFE42464B4601F02DF836A3D3E9002300F076FE4B46424601F024F83A
:4037C000354BCDE900019F4297DD344B00229F4238DCA7F5001300202E4916461F4600F05FFECDE90201404649460022284B01F00BF832463B4600F053FEDDE9002306468D
:403800000F464046494600F0FFFF5246804689465B462846214600F0F7FF02460B464046494600F03DFE02460B463046394600F037FE02460B46DDE9020100F031FE05B0E5
:40384000BDE8F08F164B0026CDE90223154FCAE71049002005B0BDE8F08F00BFAFF30080D43888BEE9FAA8BDC4B1B4BD9EEE213EAD529C804F7E923E9015CB19A001FA3EF5
:403880007751C1166CC1563F4C5555555555A53F0000E03F0000F03F3233D33F0000E93F0000E73F0000D23F2DE9F04F9E467E4DD41E85FB0465E417C4EBA504ADF51D7D3C
:4038C00024EAE4742546A69E0D940C93E343774C03EB430354F8264002EBC303274609940EF1FF3426460394F41904900A910893A5EB060516D42C44013422AEA79F08E0B3
:4039000057F8250000F01AFF0135A542E6E9020108D0002DF4DA013500200021A542E6E90201F6D1099B002B31DB099A0C9B74A901EBC20BC3EB4373039A24A9DB0001EBC1
:40394000C20800930DF5E479039B002BC0F297814446049B0026A3F1080A009B002708EB0305FAE9022374E8020100F04DFF02460B463046394600F095FDAC4206460F4604
:40398000EFD1E9E90267D94508F10808DCD1099B10A99B4603F18043013B9B001A1D0A440B440F920E934FEACB039CA91A460693BBF1000F0B4453E9284528DD0DF5E87AF5
:4039C0000AEB02060FAF0022394B2046294600F01BFF01F0B3F900F0B1FE0022354B8046894600F011FF02460B462046294600F057FD01F0A3F976E9022347F8040F494670
:403A0000404600F04FFD564504460D46DBD1DDF82090204629464A4600F0BEFC00224FF07F5304460D4600F0EFFE00F0FDFB0022214B00F0E9FE02460B462046294600F0F4
:403A40002FFD04460D4601F079F9804600F076FE02460B46204629464C4600F021FD002C06460F4640F3F1800BF1FF3110AB53F82130C9F1180043FA00F202FA00F55D1B84
:403A800010A8C9F1170340F8215090441D41002D3FDDBBF1000F08F1010840F38482002214460FA912E000BFABAAAA2A988200000000703E0000704100002040C3F18070D5
:403AC0000BB108600124013293450DDD51F8043F002CF3D0C3F1FF13013203F57F4393450B604FF00104F1DC089B002B0EDD012B00F0B380022B09D10BF1FF3210AB53F8C4
:403B0000223010A9C3F3150341F82230022D00F08380304639460022002301F0DDF8002800F0C980099B0BF1FF3A53450DDC10AB0F9803EB8B03002253F8041D834242EAE7
:403B40000102F9D1002A40F01482099B10AA013B52F82330002B40F024820E9A012352F8041D01330029FAD05B441A460B930BF1010393424DDC0D9A4FF0000803EB020970
:403B80000B9A0C9B09F180495B44CBEB020BA79A09F1FF3902EB890200924FEACB02DB00059224AA02EB030B0793069B74AA02EB030A009B002653F8040F0027009300F0BA
:403BC000BDFD039BEBE80201002B1BDB079B03EB0804069B08EB030524AB1C441D44049BA3F10809F9E9022374E8020100F00CFE02460B463046394600F054FCAC42064602
:403C00000F46EFD1059B08F108089845EAE90267CFD1DDF82CB0C6E632463B460020BF4900F03EFC06460F46002C3FF472AF089A0020BA4900F0B0FB02460B463046394656
:403C400000F02EFC06460F4663E711D10BF1FF3310AA52F82350ED1519E70BF1FF3210AB53F8223010A9C3F3160341F822304DE70022AB4B01F04EF858B9054649E70026E9
:403C80000027E9E90267D94508F108087FF45CAE7DE6BBF1000F08F10108C8BF02253FF7FEAE32463B4600209C4900F0F9FB022506460F462DE7089B30465A4239460395C4
:403CC000CDF8148000F068FB0022964B04460D4601F020F8002800F0E1810022924B2046294600F091FD01F029F8064600F026FD00228C4B00F088FD0B4602462946204656
:403D000000F0CEFB01F01AF8089B0BF1010A1833089310AB43F82B0043F82A60089A00207E4900F039FBBAF1000F04460D46C0F2CA800AF101034FEAC30874AF10AA0093DE
:403D400002EB830907EB080659F8040D00F0F6FC22462B4600F058FD002266E90201724B2046294600F050FDBE4204460D46EBD1A8F1080806EB08039B460DF59879CDF86E
:403D800018A0DDF824A04FF00008CDF81090BAF1000FC0F29580B8F1000FC0F29180DFF88C915D4600260027002401E0444510DCF9E90223F5E8020100F026FD02460B4619
:403DC0003046394600F06EFB0134A24506460F46ECDA049BABF1080B03EBC803C3E90067009B08F101089845D1D1A69BDDF818A0DDF81090032B3BD8DFE813F04100040029
:403E00000400D70000273E46009B09EBC304384674E90223314600F045FB4C4507460E46F5D1039B002B00F08B80D9E900010A9D334606F100463A466E602F6000F030FB2B
:403E4000BAF1000F03460CDD01261C46F9E90223204600F027FB0136B2450346F5DA039A0AB101F100411C460D460A9BC3E90245059B03F007000DF51D7DBDE8F08F0023B3
:403E80001946009A09EBC2091C4679E90223204600F008FB0AF1FF3ABAF1FF3F0346F3D1039A0AB101F100411C460D460A9BC3E90045059B03F007000DF51D7DBDE8F08FAE
:403EC0000026002785E7A69B032BD1D8DFE803F04E3030020DF59879039A00231E46002A00F0C8800A9FD9F80800D9F80440D9F80C203B61059BD9F8001006F1004604F10B
:403F0000004402F10042B86003F007007E617C60FA6039600DF51D7DBDE8F08F0000F03F0000E03F000070410000703EA0820000039B00273E460DF59879002B7FF475AF9B
:403F4000D9E9000135463C4633460A9E3A46C6E9004500F0A5FABAF1000F03463FF774AF1C460D460A9BC3E9024581E70023194696E7089A10AB53F82A30183A0395CDF89C
:403F800014800892002B7FF4C9AE10AB03EB8A0353F8041D0AF1FF3A183A0029F8D00892BCE60123E0E500249EE5BAF1000F93DD4FEACA0809EB08039B46D3E900677BE93D
:403FC000022330463946CDE9002300F06BFA04460D46DDE9000122462B4600F061FA02460B463046394600F05DFACB4526462F46CBE90201CBE90045E1D1BAF1010F7FF798
:404000006BAF09EB08039A46D3E900670DF59C7B7AE902231046194632463B46CDE9000100F040FA04460D46DDE9000122462B4600F036FA32463B4600F034FADA45264635
:404040002F46CAE90201CAE90045E1D100231E4608F108044C4450AD184674E90223314600F020FAAC4203460E46F5D1039A002A7FF438AFD9E90045D9E902891846314656
:404080000A9A059BC2E9040103F00700C2E90045C2E902890DF51D7DBDE8F08F2046294600F04CFE10ABDA4643F82B0036E600BF2DE9F04F21F00046B6F1795F85B00C464F
:4040C00090469946054604DA00F038FE002800F083802A4623462846214600F095FB2A46234606460F4600F08FFB3FA3D3E9002382468B463046394600F086FB3CA3D3E924
:40410000002300F0CDF932463B4600F07DFB3AA3D3E9002300F0C6F932463B4600F074FB37A3D3E9002300F0BBF932463B4600F06BFB35A3D3E9002300F0B4F90E9BCDE923
:4041400000019BB3404649460022334B00F05CFBDDE90023CDE902015046594600F054FB02460B46DDE9020100F09AF932463B4600F04AFB42464B4600F092F924A3D3E9B4
:40418000002306460F465046594600F03DFB02460B463046394600F085F902460B462846214600F07DF905B0BDE8F08FDDE900233046394600F028FB15A3D3E9002300F0BD
:4041C0006FF952465B4600F01FFB2A46234600F069F905B0BDE8F08F2846214605B0BDE8F08F00BFAFF300807CD5CF5A3AD9E53DEB9C2B8AE6E55A3E7DFEB157E31DC73EAB
:40420000D561C119A0012A3FA6F810111111813F495555555555C53F0000E03FAFF3008021F00041704700BF2DE9F047C1F30A58A8F2FF36132E0B4604460D46024689464C
:4042400007461DDC002E40DBDFF8F08048FA06F808EA010E5EEA020217D035A3D3E9002300F020F90022002300F05EFD20B1002D40DB29EA0805002738462946BDE8F0873B
:40428000332E06DDB6F5806F2FD020461946BDE8F087A8F213424FF0FF3A2AFA02FA1AEA000FF2D022A3D3E9002300F0FBF80022002300F039FD0028DED0002D1FDB4D4662
:4042C00027EA0A0738462946D8E719A3D3E9002300F0E8F80022002300F026FD0028CBD0002D1ADB00273D46C6E702460B4600F0D9F8CCE74FF4801333419944B9E7142EDB
:4043000008D0C8F5866808F10308012303FA08F31F19D4D309F10109D1E725F00042064B224318BF1D460027A6E700BFAFF300809C7500883CE4377E0000F0BFFFFF0F0039
:4043400010B431F0004408D0114BA1F580129A4208D804205DF8044B704718B902205DF8044B704701F1FF41094B01F5E0019942EFD9B4F5801F01D20320EBE7054B9C42F1
:4043800001D00020E6E7B0FA80F04009E2E700BFFFFFDF7F0000F07FF8B5C1F30A5604460D460B46174616BB21F00043034332D00022314B00F028FA304A044697420D4670
:4043C0000B4637DB40F2FE72C1F30A56363E3E44964215DD24A1D1E9000122462B4600F053F821A3D3E9002300F00EFAF8BD40F2FF72964224D040F2FE723E449642E9DCD0
:40440000002E09DD23F0FF4323F4E00343EA065520462946F8BDF8BD16F1350F15DA4CF250339F42D6DC12A1D1E9000122462B4600F02AF80EA3D3E9002300F0E5F9F8BD58
:4044400002460B4600F02EF8F8BD23F0FF4323F4E003363643EA0655204629460022084B00F0D2F9F8BD00BF9C7500883CE4377E59F3F8C21F6EA50100005043B03CFFFFF8
:404480000000903CAFF3008003F0004321F0004243EA0201704700BF81F0004102E000BF83F0004330B54FEA41044FEA430594EA050F08BF90EA020F1FBF54EA000C55EAA7
:4044C000020C7FEA645C7FEA655C00F0E2804FEA5454D4EB5555B8BF6D420CDD2C4480EA020281EA030382EA000083EA010180EA020281EA0303362D88BF30BD11F0004FC0
:404500004FEA01314FF4801C4CEA113102D0404261EB410113F0004F4FEA03334CEA133302D0524263EB430394EA050F00F0A780A4F10104D5F1200E0DDB02FA0EFC22FA5F
:4045400005F2801841F1000103FA0EF2801843FA05F359410EE0A5F120050EF1200E012A03FA0EFC28BF4CF0020C43FA05F3C01851EBE37101F0004507D54FF0000EDCF113
:40458000000C7EEB00006EEB0101B1F5801F1BD3B1F5001F0CD349085FEA30004FEA3C0C04F101044FEA445212F5800F80F09A80BCF1004F08BF5FEA500C50F1000041EB4B
:4045C000045141EA050130BD5FEA4C0C404141EB010111F4801FA4F10104E9D191F0000F04BF01460020B1FA81F308BF2033A3F10B03B3F120020CDA0C3208DD02F1140C89
:40460000C2F10C0201FA0CF021FA02F10CE002F11402D8BFC2F1200C01FA02F120FA0CFCDCBF41EA0C019040E41AA2BF01EB0451294330BD6FEA04041F3C1CDA0C340EDCC1
:4046400004F11404C4F1200220FA04F001FA02F340EA030021FA04F345EA030130BDC4F10C04C4F1200220FA02F001FA04F340EA0300294630BD21FA04F0294630BD94F0E7
:40468000000F83F4801306BF81F480110134013D4EE77FEA645C18BF7FEA655C29D094EA050F08BF90EA020F05D054EA000C04BF1946104630BD91EA030F1EBF0021002038
:4046C00030BD5FEA545C05D14000494128BF41F0004130BD14F580043CBF01F5801130BD01F0004545F0FE4141F470014FF0000030BD7FEA645C1ABF194610467FEA655C95
:404700001CBF0B46024650EA013406BF52EA033591EA030F41F4002130BD00BF90F0000F04BF0021704730B54FF4806404F132044FF000054FF0000150E700BF90F0000F64
:4047400004BF0021704730B54FF4806404F1320410F0004548BF40424FF000013EE700BF42004FEAE2014FEA31014FEA02701FBF12F07F4393F07F4F81F06051704792F0B3
:40478000000F14BF93F07F4F704730B54FF4607401F0004521F0004120E700BF50EA010208BF704730B54FF000050AE050EA010208BF704730B511F0004502D5404261EB6C
:4047C00041014FF4806404F132045FEA915C3FF4DCAE4FF003025FEADC0C18BF03325FEADC0C18BF033202EBDC02C2F1200300FA03FC20FA02F001FA03FE40EA0E0021FA7F
:4048000002F11444C1E600BF70B54FF0FF0C4CF4E06C1CEA11541DBF1CEA135594EA0C0F95EA0C0F00F0DEF82C4481EA030621EA4C5123EA4C5350EA013518BF52EA03352B
:4048400041F4801143F4801338D0A0FB02CE4FF00005E1FB02E506F00042E0FB03E54FF00006E1FB03569CF0000F18BF4EF0010EA4F1FF04B6F5007F64F5407404D25FEA0C
:404880004E0E6D4146EB060642EAC62141EA55514FEAC52040EA5E504FEACE2EB4F1FD0C88BFBCF5E06F1ED8BEF1004F08BF5FEA500E50F1000041EB045170BD06F0004620
:4048C00046EA010140EA020081EA0301B4EB5C04C2BFD4EB0C0541EA045170BD41F480114FF0000E013C00F3AB8014F1360FDEBF002001F0004170BDC4F10004203C35DAF6
:404900000C341BDC04F11404C4F1200500FA05F320FA04F001FA05F240EA020001F0004221F0004110EBD37021FA04F642EB06015EEA430E08BF20EAD37070BDC4F10C0490
:40494000C4F1200500FA04F320FA05F001FA04F240EA020001F0004110EBD37041F100015EEA430E08BF20EAD37070BDC4F1200500FA05F24EEA020E20FA04F301FA05F2AD
:4049800043EA020321FA04F001F0004121FA04F220EA020000EBD3705EEA430E08BF20EAD37070BD94F0000F0FD101F00046400041EB010111F4801F08BF013CF7D041EAAD
:4049C000060195F0000F18BF704703F00046520043EB030313F4801F08BF013DF7D043EA0603704794EA0C0F0CEA135518BF95EA0C0F0CD050EA410618BF52EA4306D1D1AD
:404A000081EA030101F000414FF0000070BD50EA410606BF1046194652EA430619D094EA0C0F02D150EA013613D195EA0C0F05D152EA03361CBF104619460AD181EA030180
:404A400001F0004141F0FE4141F470014FF0000070BD41F0FE4141F4780170BD70B54FF0FF0C4CF4E06C1CEA11541DBF1CEA135594EA0C0F95EA0C0F00F0A7F8A4EB05042D
:404A800081EA030E52EA03354FEA013100F088804FEA03334FF0805545EA131343EA12634FEA022245EA111545EA10654FEA00260EF000419D4208BF964244F1FD0404F588
:404AC000407402D25B084FEA3202B61A65EB03055B084FEA32024FF480104FF4002CB6EB020E75EB030E22BFB61A754640EA0C005B084FEA3202B6EB020E75EB030E22BF8D
:404B0000B61A754640EA5C005B084FEA3202B6EB020E75EB030E22BFB61A754640EA9C005B084FEA3202B6EB020E75EB030E22BFB61A754640EADC0055EA060E18D04FEA68
:404B4000051545EA16754FEA06164FEAC30343EA52734FEAC2025FEA1C1CC0D111F4801F0BD141EA00014FF000004FF0004CB6E711F4801F04BF01430020B4F1FD0C88BF39
:404B8000BCF5E06F3FF6AFAEB5EB030C04BFB6EB020C5FEA500C50F1000041EB045170BD0EF0004E4EEA113114EB5C04C2BFD4EB0C0541EA045170BD41F480114FF0000E78
:404BC000013C90E645EA060E8DE60CEA135594EA0C0F08BF95EA0C0F3FF43BAF94EA0C0F0AD150EA01347FF434AF95EA0C0F7FF425AF104619462CE795EA0C0F06D152EA48
:404C000003353FF4FDAE1046194622E750EA410618BF52EA43067FF4C5AE50EA41047FF40DAF52EA43057FF4EBAE12E74FF0FF3C06E000BF4FF0010C02E000BF4FF0010C4E
:404C40004DF804CD4FEA410C7FEA6C5C4FEA430C18BF7FEA6C5C1BD001B050EA410C0CBF52EA430C91EA030F02BF90EA020F0020704710F1000F91EA030F58BF994208BF58
:404C800090422CBFD8176FEAE37040F0010070474FEA410C7FEA6C5C02D150EA013C07D14FEA430C7FEA6C5CD6D152EA033CD3D05DF8040B704700BF8446104662468C46E9
:404CC0001946634600E000BF01B5FFF7B7FF002848BF10F1000F01BD4DF808EDFFF7F4FF0CBF012000205DF808FB00BF4DF808EDFFF7EAFF34BF012000205DF808FB00BF04
:404D00004DF808EDFFF7E0FF94BF012000205DF808FB00BF4DF808EDFFF7CEFF94BF012000205DF808FB00BF4DF808EDFFF7C4FF34BF012000205DF808FB00BF4FEA410257
:404D400012F5001215D211D56FF47873B3EB625212D94FEAC12343F0004343EA505311F0004F23FA02F018BF404270474FF00000704750EA013005D111F0004008BF6FF052
:404D8000004070474FF00000704700BF4FEA4102B2F1E04324BFB3F5001CDCF1FE5C0DD901F0004C4FEAC0024CEA5070B2F1004F40EB830008BF20F00100704711F0804F24
:404DC00021D113F13872BCBF01F00040704741F480114FEA5252C2F11802C2F1200C10FA0CF320FA02F018BF40F001004FEAC1234FEAD32303FA0CFC40EA0C0023FA02F3AB
:404E00004FEA4303CCE77FEA625307D150EA01331EBF4FF0FE4040F44000704701F0004040F0FE4040F40000704700BF80F0004002E000BF81F0004142001FBF5FEA41035E
:404E400092EA030F7FEA226C7FEA236C6AD04FEA1262D2EB1363C1BFD218414048404140B8BF5B42192B88BF704710F0004F40F4000020F07F4018BF404211F0004F41F421
:404E8000000121F07F4118BF494292EA030F3FD0A2F1010241FA03FC10EB0C00C3F1200301FA03F100F0004302D5494260EB4000B0F5000F13D3B0F1807F06D340084FEAD0
:404EC000310102F10102FE2A51D2B1F1004F40EBC25008BF20F0010040EA03007047490040EB000010F4000FA2F10102EDD1B0FA80FCACF1080CB2EB0C0200FA0CF0AABF99
:404F000000EBC25052421843BCBFD0401843704792F0000F81F4000106BF80F400000132013BB5E74FEA41037FEA226C18BF7FEA236C21D092EA030F04D092F0000F08BFAF
:404F40000846704790EA010F1CBF0020704712F07F4F04D1400028BF40F00040704712F100723CBF00F50000704700F0004343F0FE4040F4000070477FEA226216BF084642
:404F80007FEA23630146420206BF5FEA412390EA010F40F4800070474FF0000304E000BF10F0004348BF40425FEA000C08BF704743F0964301464FF000001CE050EA0102C1
:404FC00008BF70474FF000030AE000BF50EA010208BF704711F0004302D5404261EB41015FEA010C02BF84460146002043F0B64308BFA3F18053A3F50003BCFA8CF2083AAF
:40500000A3EBC25310DB01FA02FC634400FA02FCC2F12002BCF1004F20FA02F243EB020008BF20F00100704702F1200201FA02FCC2F1200250EA4C0021FA02F243EB020004
:4050400008BF20EADC7070474FF0FF0C1CEAD0521EBF1CEAD15392EA0C0F93EA0C0F6FD01A4480EA010C400218BF5FEA41211ED04FF0006343EA501043EA5111A0FB013163
:405080000CF00040B1F5000F3EBF490041EAD3715B0040EA010062F17F02FD2A1DD8B3F1004F40EBC25008BF20F00100704790F0000F0CF0004C08BF49024CEA502040EA5C
:4050C00051207F3AC2BFD2F1FF0340EAC250704740F400004FF00003013A5DDC12F1190FDCBF00F000407047C2F10002410021FA02F1C2F1200200FA02FC5FEA310040F13A
:40510000000053EA4C0308BF20EADC70704792F0000F00F0004C02BF400010F4000F013AF9D040EA0C0093F0000F01F0004C02BF490011F4000F013BF9D041EA0C018FE754
:405140000CEAD15392EA0C0F18BF93EA0C0F0AD030F0004C18BF31F0004CD8D180EA010000F00040704790F0000F17BF90F0004F084691F0000F91F0004F14D092EA0C0F2D
:4051800001D142020FD193EA0C0F03D14B0218BF084608D180EA010000F0004040F0FE4040F40000704740F0FE4040F4400070474FF0FF0C1CEAD0521EBF1CEAD15392EAC0
:4051C0000C0F93EA0C0F69D0A2EB030280EA010C49024FEA402037D04FF0805343EA111143EA10130CF000408B4238BF5B0042F17D024FF4000C8B4224BF5B1A40EA0C0067
:40520000B3EB510F24BFA3EB510340EA5C00B3EB910F24BFA3EB910340EA9C00B3EBD10F24BFA3EBD10340EADC001B0118BF5FEA1C1CE0D1FD2A3FF650AF8B4240EBC250C9
:4052400008BF20F0010070470CF0004C4CEA50207F32C2BFD2F1FF0340EAC250704740F400004FF00003013A37E792F0000F00F0004C02BF400010F4000F013AF9D040EAE9
:405280000C0093F0000F01F0004C02BF490011F4000F013BF9D041EA0C0195E70CEAD15392EA0C0F08D142027FF47DAF93EA0C0F7FF470AF084676E793EA0C0F04D14B0240
:4052C0003FF44CAF08466EE730F0004C18BF31F0004CCAD130F000427FF45CAF31F000437FF43CAF5FE700BF4FF0FF3C06E000BF4FF0010C02E000BF4FF0010C4DF804CD7D
:405300004FEA40024FEA41037FEA226C18BF7FEA236C11D001B052EA530C18BF90EA010F58BFB2EB030088BFC81738BF6FEAE17018BF40F0010070477FEA226C02D15FEAD1
:40534000402C05D17FEA236CE4D15FEA412CE1D05DF8040B704700BF844608466146FFE70FB5FFF7C9FF002848BF10F1000F0FBD4DF808EDFFF7F4FF0CBF012000205DF847
:4053800008FB00BF4DF808EDFFF7EAFF34BF012000205DF808FB00BF4DF808EDFFF7E0FF94BF012000205DF808FB00BF4DF808EDFFF7D2FF94BF012000205DF808FB00BF61
:4053C0004DF808EDFFF7C8FF34BF012000205DF808FB00BF4FEA4002B2F1FE4F0FD34FF09E03B3EB12620DD94FEA002343F0004310F0004F23FA02F018BF404270474FF0C7
:405400000000704712F1610F01D1420205D110F0004008BF6FF0004070474FF0000070471FB5054608480068C06812B9074C224600E0074C8DE81200029206491A462B4610
:4054400000F010F800F0E2FEE482FF1F23830000E8820000F5820000014B1868704700BFE482FF1F0EB403B5014603AB054853F8042B0068019300F069F802B05DF804EB1A
:4054800003B07047E482FF1F0E4B70B51E460E4C0025E41AA410A54204D056F8253098470135F8E703F01EF8084B094C1E46E41AA4100025A54204D056F82530984701353A
:4054C000F8E770BDF0840000F0840000F0840000F884000010B5431E0A44914204D011F8014B03F8014FF8E710BD03460244934202D003F8011BFAE77047936810B5013B80
:40550000002B936009DA9469A34202DBCBB20A2B03D1BDE8104000F0B9BD1368581C10601970C8B210BDF8B506460F461446D518AC4208D0304614F8011B3A46FFF7DDFF50
:40554000431CF5D100E00020F8BD00002DE9F0439DB00D4690460393064618B183690BB901F090FD754B9D4201D1756808E0744B9D4201D1B56803E0724B9D4208BFF56853
:40558000AB891C070AD52B6943B10023099320238DF8293030238DF82A3041E03046294600F0C8FD0028F0D04FF0FF30C2E0039A0134111D12680391002ABBBF524243F0EF
:4055C000020307920792B8BF049323782E2B7BD0DFF8808121784046032201F033FE38B1049AC8EB00004023834013430493013421785548062204F101088DF8281001F05D
:4056000021FE002800F08580504B002B78D1039B073323F0070308330393099B3B44099343461C4613F8012B1AB9B4EB08090ED002E0252AF5D1F8E73046294642464B4643
:40564000FFF771FF013070D0099B4B4409932378002B6AD000234FF0FF3204930793059206938DF853301A9304F101084446DFF8E89021784846052201F0E4FD08F10108E2
:40568000049B30B1C9EB00000122824013430493ECE7D80644BF20228DF85320190744BF2B228DF8532022782A2A80D0234607991C4622780133303A092A03D80A2000FB7A
:4056C0000121F5E7079180E763782A2B0AD1039B02341A1D1B680392002BB8BF4FF0FF33059375E7611C00220C4623780131303B092B03D80A2000FB0232F5E7059267E726
:4057000003AB0093304604A92A46114B00F0B6F807E003AB0093304604A92A460C4B00F069FB421C07467FF478AFAB895B063FF53BAF09981DB0BDE8F08300BF80830000F5
:40574000A0830000C0830000368300007D58000027550000328300002C8300002DE9F0471E4688B0149F002BB8BF06F10043129927F02007B6BF1E4600232D23462F1446D9
:40578000109DDDF84CA00B7003D0452F03D1013501E0032300E002238DE8280406AB039307AB04932246334600F0C2FD472F804602D1119BDB0726D5462F08EB050911D1F2
:4057C00098F80030302B0AD12046314600220023FFF782FA18B9C5F10105CAF80050DAF8003099442046314600220023FFF774FA08B1CDF81C90079B4B4504D25A1C0792DA
:4058000030221A70F7E74046079B159AC8EB0303136008B0BDE8F087034673B50029B8BF494203F8022BB4BF2D222B22092942701ADD0DF1070426460A2291FBF2F502FB18
:405840001511092D01F1300104F8011D2946F3DC3031651E04F8011CB5421A460AD215F8012B03F8012BF7E71A463024214402F8024B5970101A02B070BD00002DE9F04F5C
:4058800091B08B4615461E461A9F044601F082FCD0F800A0504600F0F1FB00230E933B680990073323F0070303F108029BF818803A60D3E90023CBE91223DBE91201FEF71D
:4058C0003FFD0128DBE9120119D100220023FFF70DFA10B12D238BF84330A04BA04FB8F1470F88BF1F460323CBF81030DBF8003023F00403CBF800304FF00009A1E0FEF7BD
:405900001FFDDBF8003048B9964A974FB8F1470F88BF17460322CBF81020E9E7DBF80420DBE91201571CCDE90A0101D1062209E0B8F1670F02D0B8F1470F05D1002A40F0F1
:40594000C7810122CBF80420DBF8042043F480638DE80C00CBF800300DF1330302930DAB03930EAB059300230693CDF81080DDE90A232046FFF7F2FE08F0DF03472B0746FF
:405980000AD10D9BD81C03DBDBF80420934237DDA8F102085FFA88F8B8F1650F0D9915D8013942460BF150000D91FFF735FF0E9A81468318012ACBF8103003DCDBF80020A6
:4059C000D10738D50133CBF8103034E0B8F1660F18D10029DBF8043009DDCBF810101BB9DBF80020D20721D501330B441CE01BB9DBF80020D00701D5023315E0012313E0AD
:405A00004FF067080D9B0E9A934207DBDBF80020CBF81030D10709D5013305E0002BD4BFC3F1020301231344CBF810300D9B4FF00009CBF858309DF8333013B12D238BF82D
:405A400043300096204659460FAA2B4600F05CF9013002D14FF0FF3052E1DBF800305A0505D4204629463A46DBF8103008E1B8F1650F40F2D080DBE9120100220023FFF7C7
:405A80002BF950B320462946384A0123B0470130E0D00E9B0D9A9A4209DBDBF80030D80705D4DBF800309F0700F1108107E1204629465246099BB0470130CBD000270E9BEA
:405AC000013B9F42EDDA204629460BF11A020123B0470130BED00137F1E70D9B002B29DC20462946214A0123B0470130B2D00D9B2BB90E9B1BB9DBF80030D907D1D520460D
:405B000029465246099BB0470130A3D04FF000080D9B20465B429845294608DA0BF11A020123B047013095D008F10108F0E73A460E9BA5E0DBF858200E9B9A42A8BF1A4618
:405B4000002A914602DC4FF000081CE0204629463A464B46B0470130F5D17BE7418300003D83000049830000458300004D830000204629460BF11A020123B04701303FF479
:405B800069AF08F10108DBF85830B9F1000FB4BF1A46C9EB03029045EADB07EB03080D9A0E9B9A4210DBDBF80030DA070CD40E9A1744C8EB07030D9FD21B9342A8BF1346CB
:405BC000002B1F4608DC0EE0204629465246099BB0470130EBD13DE7204629464246B04701303FF437AF4FF000080AE0204629460BF11A020123B04701303FF42BAF08F11C
:405C000001080D9A0E9B002FA3EB0203A8BFDB1B9845EBDB45E70E9A012A01DCDB0736D5204629463A460123B04701303FF412AF204629465246099BB04701303FF40AAFC6
:405C4000DBE9120100220023FFF746F8E8B90E9B204629467A1C013B1DE0204629460BF11A020123B04701303FF4F4AE01370E9B013B9F42F1DB204629464B460BF150025A
:405C8000B04701307FF40DAFE4E60027EFE7204629463A460123B0470130ECD1DAE6204629460BF119020123B04701303FF4D2AE0137DBF80C300F9A9B1A9F42EFDBDBF89A
:405CC0000C000F9B9842B8BF184619E00027F0E743F480638DE80C00CBF800300DF1330302930DAB03930EAB059300230693CDF810802046DDE90A23FFF730FD074640E652
:405D000011B0BDE8F08F00BF2DE9F84391461F468A680B6906469342B8BF1346C9F8003091F843200C46DDF8208012B10133C9F800302368990642BFD9F800300233C9F82D
:405D40000030256815F006051CD094F843302268003318BF012392061FD5E118302081F843005A1C94F845102244023382F8431013E03046394604F119020123C04701300F
:405D800007D00135E368D9F800209B1A9D42F0DBDBE74FF0FF30BDE8F8833046394604F14302C0470130F4D02268D9F80050E36802F00602042A08BF5D1B2269A3680CBF02
:405DC00025EAE57500259342C4BF9B1AED184FF00009A9450ADA3046394604F11A020123C0470130D5D009F10109F2E70020BDE8F88300002DE9FF410C461746227E984642
:405E00006E2A06460A9B01F1430100F0B08012D8632A23D00AD8002A00F0BD80582A40F0CC8084F84520DFF804E257E0642A1ED0692A1CD0C1E0732A00F0B18009D86F2A39
:405E40002ED0702A40F0B980226842F0200222603FE0752A24D0782A3BD0AEE01A6804F14205111D1960136884F84230A9E020681A6810F0800F02D0101D186008E010F085
:405E8000400F02F10400186002D0B2F9003000E01368002B3EDA2D225B4284F8432039E020681A6810F0800F02D0101D186007E010F0400F02F10400186001D0138800E0F4
:405EC0001368227EDFF864E16F2A0CBF08220A221CE07822DFF858E184F845202268186812F0800F00F104051D6003D1550601D5038800E00368D00744BF42F0200222608D
:405F00001BB9226822F0200222601022002084F8430002E0DFF814E10A226568002DA8BF2068A560A4BF20F00400206003B965B10D46B3FBF2F002FB10331EF8033005F842
:405F4000013D03460028F4D100E00D46082A0BD12368DA0708D5236962689A42DEBF302305F8013C05F1FF35491B21612EE025681A6815F0800F606903D0151D1D60136840
:405F800008E015F0400F02F104051D60136801D0188000E01860002323610D4616E01A68111D1960156800212846626801F04AF908B1401B6060636804E004F1420584F892
:405FC000422001232361002384F84330CDF800803046214603AA3B46FFF796FE013002D14FF0FF301FE0304639462A462369C0470130F5D023689B0705D4E068039B984286
:40600000B8BF18460FE00025E368039A9B1A9D42F3DA3046394604F119020123C0470130DED00135F0E704B0BDE8F0814F830000608300000EB400B54FF402719CB0ADF875
:4060400014106FF00041049107914FF6FF711DABADF81610084953F8042B02900690086802A9019301F01EFD029B00221A701CB05DF804EB03B07047E482FF1F034613F89E
:40608000012B002AFBD1181A0138704770B50D461446064618B183690BB900F0F3FF224B9C4201D1746808E0204B9C4201D1B46803E01F4B9C4208BFF468A369A360A38982
:4060C0001A0709D523693BB123682069EDB2181A636998420FDB08E03046214600F02AF80028F1D04FF0FF3070BD3046214600F05FFF0028F6D1A3680130013BA360236839
:406100005A1C22601D706369984204D0A389DB0707D50A2D05D13046214600F049FF0028E0D1284670BD00BF80830000A0830000C0830000314B70B51D6806460C4625B11E
:40614000AB6913B9284600F09DFF2D4B9C4201D16C6808E02B4B9C4201D1AC6803E02A4B9C4208BFEC68A3899AB211071DD4D50602D40922326038E0500712D5616B41B1D3
:4061800004F14403994202D0304601F071FB00236363A38923F02403A3810023636023692360A38943F00803A38123694BB9A38903F42073B3F5007F03D03046214600F020
:4061C000EDFFA38913F0010205D00022A26062695242A26103E0990758BF6269A26022694AB903F0800080B230B143F04003A3814FF0FF3070BD002070BD00BFE482FF1FE6
:4062000080830000A0830000C083000008B5062001F072FD0120FBF759FD2DE9F74F03690C698046A3427EDB013C01F114074FEA840E00F1140606EB0E0357F8245001938F
:4062400056F824300135B3FBF5F507EB0E09BDB34FF0000A3846B446D34650F8043B9AB21B0C02FB05A26B4303EB124392B2C2EB0B0BBCF800204FEA134A5A441FFA83FB26
:40628000DCF800304845CBEB134303EB224392B242EA03424FEA234B4CF8042BDDD956F80E306BB9019B043BB3421A4602D8C8F8104005E01268043B002AF8D1013CF3E7F7
:4062C000404601F0FAF900282BDB304601354FF0000E57F8042B036891B2C1EB0E0E120C99B27144C2EB134303EB214389B24FEA234E4F4541EA034340F8043BE9D956F835
:40630000242006EB840362B9043BB3421A4602D8C8F8104005E01268043B002AF8D1013CF3E7284600E0002003B0BDE8F08F00002DE9F04F456A95B08246219CCDE9022372
:4063400045B9102000F076FFCAF82400456085600560C560DAF82430196859B15A68012393404A608B60504600F0CAFFDAF8243000221A60039BA24A002BBDBF01232360A8
:40638000039B0023BCBF23F000430393039FA8BF236027F000431B0D1B0593421DD142F20F73209A1360029B43B9964A964BC7F31300002814BF1846104600E09248229B94
:4063C000002B00F06985C37813B100F1080300E0C31C229A136000F05FBDDDE902450022204629460023FEF777FC804658B1209A01231360229B002B00F03C858348186014
:40640000013800F049BD13AB009312AB0193504622462B4601F0CCF9C7F30A5607905EB1C5F3130343F07F51204641F44011A6F2FF36CDF844801DE0139B129E1E446FF473
:4064400082639E42A1BF029A06F2124322FA03F06F4BB7BF6F4B9B1B029A9B1BAABF9F4002FA03F03843FEF759F90123A1F1F871013E11930022684BFEF712F85AA3D3E985
:406480000023FEF7C1F95AA3D3E90023FEF70AF8044630460D46FEF751F957A3D3E90023FEF7B2F902460B4620462946FDF7FAFF04460D46FEF742FC294683460022204681
:4064C0000023FEF713FC58B15846FEF737F902460B4620462946FEF7FFFB08B90BF1FF3BBBF1160F0DD84D4B03EBCB03D3E90001DDE90223FEF718FC30B10BF1FF3B002360
:4065000000E00123109300E01090129B9E1B731E0A9345BF5B420993002300234CBF0A930993BBF1000F07DB0A9BCDF834B05B440A9300230B9308E0099BCBEB030309930D
:40654000CBF100030B9300230D931E9B092B29D8052BC4BF043B1E931E9BC8BF0025A3F10203D8BF0125032B21D8DFE803F0020E0410002300E001230C931F9B002B20DC03
:406580000123069305931A4619E0002300E001230C931F9B5B4406930133012B0593B8BF012311E0012500231E930C9501E001230C934FF0FF3306930593002212231F9208
:4065C00002E01F9B06930593DAF8244000226260042101F114029A4222D86268490001326260F6E7AFF3008061436F63A787D23FB3C8608B288AC63FFB799F501344D33F0C
:406600000000F07F718300007A8300004E8300000EFCFFFFEEFBFFFF0000F83FE88300005046616800F037FEDAF8243020601B680893059B0E2B00F24781002D00F04481DB
:40664000DDE90223BBF1000FCDE90E2331DDB14A0BF00F034FEA2B1602EBC303F006D3E900450CD5DDE90E01AB4B06F00F06D3E90823FEF7F3F90327CDE9020100E00227E8
:40668000DFF8948276B1F10708D5D8E9002320462946FEF7B9F804460D460137761008F10808EFE7DDE9020122462B46FEF7D6F91BE0CBF10004DCB1DDE90E01954B04F001
:4066C0000F0203EBC203D3E90023FEF79DF8924D241102274CB1E20704D5D5E900230137FEF792F864100835F4E7CDE9020100E00227109BDBB1DDE9024500222046294650
:40670000864BFEF7F3FA90B1059B83B1069B002B40F3D680294620460022814BFEF774F80BF1FF36CDE902010137069D01E05E46059D3846DDE90289FEF700F842464B4657
:40674000FEF762F8774B0022FDF7ACFECDE90201039BA3F150740394CDB9404649460022714BFDF79DFE029A234680468946FEF7DBFA002840F0408240464946029A04F1D6
:406780000043FEF7B3FA002840F0308298E0614B0C996A1E03EBC203002947D0D3E9002300206249FEF75AF9DDE90223FDF778FECDE90201089C49464046FEF7BFFA0746F2
:4067C000FDF7BCFF02460B4640464946FDF768FEDDE90223303704F8017B80468946FEF785FA002840F0378342464B4600204B49FDF756FEDDE90223FEF778FA002840F03E
:40680000D080089BE31AAB425ADADDE902010022434BFDF7F9FF0022CDE90201404B40464946FDF7F1FF80468946C4E7D3E90001DDE90223FDF7E8FF089BCDE902015C19EF
:406840001D4649464046FEF779FA0746FDF776FF02460B4640464946FDF722FE303705F8017BA5428046894623D100222F4BDDE90201FDF717FE02460B4640464946FEF75F
:4068800053FA002840F08D80DDE9022300202749FDF706FE02460B4640464946FEF726FA70B114F8013C621E302B40F0D4821446F7E700221A4BFDF7A7FF80468946C0E790
:4068C000DDE90E23CDE90223139B002BC0F28A80BBF10E0F00F386800E4B03EBCB03D3E900671F9B002B23DA059B002B20DC40F07C81304600220C4B3946FDF785FFDDE9B5
:406900000223FEF707FA059D2E46002840F06F8174E100BFE8830000B08400000000F03F0000244000001C40000014400000E03F089CDDE9028932463B4640464946FEF7D1
:406940008DF8FEF7FBF90546FDF7F8FE32463B46FDF75AFF0B46024649464046FDF7A0FD05F1300E089B04F801EBC3EB040E059B9E452AD102460B46FDF794FD32463B46DB
:4069800080468946FEF7D0F970B94046494632463B46FEF7A1F9002800F05E82EB0703D45AE2B34600E01C4614F8012C631E392A07D1089A9342F6D13023137013460BF128
:4069C000010B1A7801321A7046E20022A34BFDF71BFF0022002380468946FEF77DF90028A9D039E20C9A002A32D01E9A012A0ADC119A12B103F2334302E0129BC3F1360305
:406A00000B9D099C18E0059B5D1E0B9BAB42B7BF0B9B5D1BEA1A0D9BBEBF0B959B180D93059BB8BF0025002BB9BF099B059A099C059BBCBF9C1A0023099A50461A440992C6
:406A40000A9A01211A440A9200F0FCFC064602E00B9D099C0C9E64B10A9B002B09DDA342A8BF2346099AE41AD21A09920A9AD31A0A930B9B002B20DD0C9BC3B1002D10DD70
:406A800031462A46504600F077FD0646079A3146504600F0E0FC07460799504600F030FC07970B9B5A1B08D05046079902E0504607990B9A00F060FD07905046012100F080
:406AC000C1FC0D9B0546002B0ADD29461A46504600F052FD1E9B0546012B04DD00271BE01E9B012B13DC029B8BB9039BC3F313037BB9039B23F000473F0D3F0557B1099B76
:406B00000127013309930A9B01330A9302E0002700E0029F0D9B43B12B6905EB8303186900F043FCC0F1200000E001200A9B184410F01F0008D0C0F12003042B02DDC0F1AA
:406B40001C0002E008D018461C30099B0444034409930A9B03440A93099B002B05DD504607991A4600F056FD07900A9B002B05DD294650461A4600F04DFD0546109BEBB139
:406B80000798294600F099FD002817DA0023504607990A2200F0CBFB0C9B0BF1FF3B0790002B00F06B813146002350460A2200F0BEFB069B0646002B33DC68E1059B002B32
:406BC00026DC1E9B022B23DD059B0693069B73B929460522504600F0AAFB05460798294600F06BFD002809DC01E000252E461F9B089C6FEA030B08E0B3462E46089B089A4F
:406C00005C1C312313700BF1010BB14600260FE10C9B23B9059B0693089F079CC9E0059B0693002C05DD31465046224600F0F2FC0646AFB17168504600F02DFB044632698F
:406C400006F10C01023292000C30FEF743FC50462146012200F0DEFC814602E000002440B146089F079C29462046FFF7D6FA3146099000F13008204600F01FFD4A46059037
:406C80002946504600F035FDC26803463AB919462046079300F011FD079B024600E0012250461946079200F02BFB079A92B91E9B83B9029B03F0010363B9B8F1390F3B4656
:406CC00007943ED0059B7C1C002BC4BF099B03F131083DE0059B002B04DA002AC446079408DC21E024D11E9B13BB029B03F00103F3B9F2E72146012250460597CDF808801C
:406D000000F088FC2946079000F0D7FC0028DDF808C0059B03DC07D118F0010F04D0B8F1390F0ED008F1010C7C1C87F800C07FE0002A07F101020EDDB8F1390F3B460794E6
:406D400003D1392201371A7057E0144608F1010887F800806CE0089B1746D31A02F8018C069A93423AD021460A220023504600F0DEFA4E450446314650464FF00A024FF0C9
:406D8000000304D100F0D3FA064681466BE700F0CEFA494606460A225046002300F0C7FA814660E7214650460A22002300F0BFFA044620462946FFF730FA089B00F13008A2
:406DC00007F8018B069AFB1A9342EBDB089BB146012AACBF9B1801331F46002621460122504600F017FC2946079000F066FC002803DC15D118F0010F12D03C4614F8013CE9
:406E0000621E392B09D1089B9A4204D10BF1010B3123089A02E01446F0E70133137007E03C4614F8013C621E302B01D11446F8E75046294600F064FAB9F1000F0CD02EB119
:406E40004E4503D05046314600F05AFA5046494600F056FA00E0B3465046079900F050FA0023209A23700BF101031360229B1BB11C6001E00A480FE008980DE0069B002B4A
:406E80003FF7CAAE1E9B022B3FF7A0AEC4E61E9B022B3FF79BAEC4E615B0BDE8F08F00BF4D830000AFF300808A892DE9F041054610070C4657D44B68002B02DC0B6C002BD0
:406EC00018DDE66AB6B102F48052002392B22F682B600AB1626D10E0216A28460123B047411C024609D12B683BB11D2B01D0162B46D12F600020BDE8F081A3895B0705D56B
:406F00006368D21A636B0BB1236CD21AE66A00232846216AB047461CA38905D12A681AB11D2A01D0162A19D1002262602269D904226004D5421C01D12B6803B96065616B78
:406F40002F600029D6D004F14403994202D0284600F08EFC00206063BDE8F08143F04003A381BDE8F0810F69002FC3D093070E680CBF4B690023C7EB06080F608B6012E041
:406F8000A3894FF0FF3043F04003A381BDE8F0812846216A3A464346A66AB0470028EFDD0744C0EB0808B8F1000FF1DCA2E7000038B50B6905460C46DBB118B183690BB973
:406FC00000F060F80C4B9C4201D16C6808E00B4B9C4201D1AC6803E0094B9C4208BFEC68B4F90C302BB128462146BDE83840FFF75BBF002038BD00BF80830000A08300007B
:40700000C0830000014900F0A7B800BFB16F000010B50446002303604360836081814366C28103614361836119465C300822FEF75CFA054B24626362044BA362044BE362BD
:40704000044B236310BD00BF317D0000537D00008B7D0000AF7D000070B568234D1E5D430E4605F1740100F047FC044640B1002180E842000C30A06005F16802FEF735FA8A
:40708000204670BD836910B5044633BB8364C3640365124B124A1B688262984204BF0123836100F01FF86060204600F01BF8A060204600F017F80421E06000226068FFF73F
:4070C000A7FFA06809210122FFF7A2FFE06812210222FFF79DFF0123A36110BD2883000005700000F8B51B4B07461E68B36913B93046FFF7C7FF4836B4687368013B04D42F
:40710000B4F90C5075B16834F8E733682BB938460421FFF7A1FF306008B13668ECE70C233B60F8BD4FF6FF73E3810123A38165662560A560656025616561A56104F15C0094
:4071400029460822FEF7D1F96563A563A564E5642046F8BD288300002DE9F8438046894600F14804002694B1A5686768013F0CD4AB89012B07D9B5F90E30013303D040468C
:407180002946C84706436835F0E72468EBE73046BDE8F88300487047E882FF1FF0B58B8991B09D0706460C4625D4B1F90E10002908DAA389002513F0800F14BF40274FF4B1
:4071C00080670DE001AA00F019FE0028F1DB029D4FF4806705F47045A5F500514D424D413046394600F088FB60B9A3899A051DD443F00203A38104F1470323602361012393
:40720000636113E00A4BB362A389206043F08003A381206167614DB13046B4F90E1000F0FFFD18B1A38943F00103A38111B0F0BD05700000024B0146186800F05DBB00BF25
