:400000000080002011000000113200001132000008B5044B1A6803F53F5302331A6003F017F900BFFA46004010B5054C237833B9044B13B10448AFF300800123237010BDDE
:400040001885FF1F0000000084C40000084B10B51BB108480849AFF300800848036803B910BD074B002BFBD0BDE81040184700BF0000000084C400001C85FF1F0881FF1F89
:4000800000000000F0B59BB062B601F049FF01F0F9FE00F0BBFE00F0CDFE00F0CDFE00F0D7FE01F065F800F0CFFD00F005FC01F0E7FC00F077FF01F0D7F901F0A9FB01F0B7
:4000C000E3FA03F05FF801F02DFF01F0DDFE01F061F800F0C1FD00F00DFC01F0D7FC00F087FF01F0CDF901F0D1FB01F0D7FA03F059F8324C324D0FCD20606160A260E360EC
:4001000007CD20616161A2612B782377204601F0DBFE2C4D05F120072E460FCE20606160A260E36035461034BE42F5D103CD20606160224C204601F0C7FE234D05F120071E
:400140002E460FCE20606160A260E36035461034BE42F5D133782370184801F0B5FE01F0ABFC1A4A1368C31A5360194A128802F0800292B23AB101A81649174A08F018FFC2
:4001800001A801F0A1FE01F097FC104B1860012003F05CFD00F064FD00F03AFF01F090FB01F07EFA03F002F800F054FE00F0ACFB01F080FE002003F049FDD0E7C48AFF1F32
:4001C00088C40000A8C40000D0C400003485FF1FBC8AFF1FF4C4000000C50000014B1868704700BF3C85FF1F014B5868704700BF3C85FF1F10B50E4801F066FE0D4801F0C3
:4002000063FE0D4801F060FE0C4801F05DFE0C4801F05AFE0B4C204601F056FE0A4801F053FE204601F050FE084801F04DFE10BD08C500003CC5000070C50000B8C5000068
:4002400014C60000B8CE000070C6000090C6000010B5164801F038FE154801F035FE154801F032FE144801F02FFE144801F02CFE134801F029FE134801F026FE124801F02A
:4002800023FE124801F020FE114801F01DFE114C204601F019FE104801F016FE204601F013FE0E4801F010FE10BD00BFA8C60000DCC6000010C7000058C70000CCC7000045
:4002C00040C80000B4C8000028C90000A0C900001CCA0000B8CE000098CA0000B8CA000008B50022054B1A8010B9FFF783FF08BD012801D1FFF7ACFF08BD00BFBC8AFF1F7D
:4003000010B5104801F0E0FD0F4801F0DDFD0F4801F0DAFD0E4801F0D7FD0E4801F0D4FD0D4801F0D1FD0D4C204601F0CDFD0C4801F0CAFD204601F0C7FD0A4801F0C4FDA5
:4003400010BD00BFD0CA0000FCCA000028CB000048CB00006CCB000098CB0000B8CE000098CA0000B0CB000010B590B044780378074A02EB83036846064952F824209B6800
:4003800008F016FE684601F09FFD10B010BD00BF0C81FF1FC8CB000010B504460378042B42D8DFE803F0030F1B293500836840786168984710B90123237010BD2046FFF760
:4003C000D3FF10BDC36840786168984710B90223237010BD2046FFF7C7FF10BD0369407861689847012802D10323237010BD10B32046FFF7B9FF10BD436940786168984798
:4004000010B90423237010BD2046FFF7ADFF10BD836940786168984710B90523237010BD2046FFF7A1FF10BD034B00229A60DA604078FFF755FF10BD3C85FF1F08B50348D7
:4004400001F042FD024801F03FFD08BDF0CB000024CC000008B501F047FDA0F14303352B23D8DFE803F0211D22222222222222222222222222222222221B221F2222222223
:40048000222222222222211D22222222222222222222222222222222221B221F762008BD732008BD782008BD632008BD08B532280BD0332811D0312817D101F023FD0C4B65
:4004C0001A6800211170186808BD01F01BFD094B1A6800211170186808BD01F013FD064B1A6800211170186808BD002008BD00BFCC8BFF1FC88BFF1FEC8BFF1F08B5A0F1A5
:400500003103072B00F28480DFE803F0041220304050607101F0F6FC3E4801F0D5FC3E4B1A68012151701A6800211170186808BD01F0E8FC394801F0C7FC394B1A6801212A
:4005400051701A6800211170186808BD01F0DAFC344801F0B9FC324B1A6801215170196800220A7018684368DA7108BD01F0CAFC2D4801F0A9FC2A4B196801224A70196818
:400580000020087018684368DA7108BD01F0BAFC264801F099FC264B1A6801215170196800220A7018684368DA7108BD01F0AAFC204801F089FC1E4B196801224A701968E2
:4005C0000020087018684368DA7108BD01F09AFC194801F079FC194B1A6801215170196800220A70196849680A70186808BD01F089FC134801F068FC104B196801224A7024
:40060000196800200870196849680A70186808BD002008BD78CC0000F08BFF1FC8CC0000F48BFF1F20CD000060CD0000A0CD0000D08BFF1FE0CD000020CE0000E88BFF1F91
:4006400064CE000070B584B00C4600218DF80F108DF80E1058B3164605460DF10E02009221461A460DF10F0301F0C2FA9DF80F309DF80E0034F9231034F9202036F81330AA
:4006800036F81000009028B201F0DAFA80B2A0F5FA639BB24FF62F02934205D9B0F57A7F38BF4FF47A7004E04FF4FA6001E040F2DC5004B070BD00BF10B50446084A136835
:4006C000188880B220EA040019881880118881F4004101F08FFC204600F0EEFD10BD00BFC48BFF1F10B50446064B1968088880B2A1F50041204389B201F07CFC204600F005
:40070000D1FD10BDC48BFF1F70B59EB003460E461546684612491A4608F04AFC684601F0D3FB00240CE005A80E4956F8242035F8143008F03DFC05A801F0C6FB0134E4B2C0
:40074000312CF0D905A8084956F8242035F8143008F02EFC05A801F0B7FB1EB070BD00BFD4D00000A8CE0000B0CE0000F0B59DB007460C46086809A9032201F0E7F906AE31
:4007800060683146032201F0E1F903ADA0682946032201F0DBF9009601950CA804493A4609AB08F005FC0CA801F08EFB1DB0F0BDBCCE000038B5A0F13103032B63D8DFE88B
:4007C00003F00222425801F09DFB2F4801F07CFB2E4C204601F078FB2D4D2A682D4802F5CA7102F51872FFF78FFF2A682A4802F1540102F59072FFF787FF204601F064FB6D
:40080000FFF77EFD38BD01F07DFB244801F05CFB1E4C204601F058FB1D4D2A68204802F2144102F59C62FFF76FFF2A681D4802F5357102F56872FFF767FF204601F044FBC4
:40084000FFF75EFD38BD01F05DFB174801F03CFB0E4801F039FB0E4C216814480831FFF785FF216812481831FFF780FFFFF748FD38BD01F047FB0F4801F026FB034801F04C
:4008800023FBFFF73DFD38BDD8CE0000B8CE0000C48BFF1F14CF000024CF000034CF000074CF000084CF000094CF0000BCCF0000C8CF0000D4CF000008B5084A084B1A60E9
:4008C000084A094B1A60094A094B1A6002F0AEF901F070FE02F012FC08BD00BF00800040C48BFF1FDD010000B88AFF1FE9010000C08AFF1F08B5034B1B68188880B200F02E
:40090000E7FC08BDC48BFF1F10B5FFF7A3FD0446314B1B7C042B5BD8DFE803F0031B3249510073280FD0762807D0632853D1FFF761FC0122284B1A7410BDFFF789FC022263
:40094000254B1A7410BDFFF7DBFC0322224B1A7410BD214B9B681BB9FFF7A8FD1E4B98601D4B9B6833B1012000F04AFA1A4B9868FFF712FD782C2ED10422174B1A7410BD1F
:40098000154BDB681BB9FFF7B9FD134BD860124BDB6833B1012000F033FA0F4BD868FFF7FBFC782C17D104220B4B1A7410BDFFF701FF782C0FD10422074B1A7410BDFFF78F
:4009C0003DFD002000F01CFA0022034B1A7410BD0022014B1A7410BD3C85FF1F30B583B0002401F067FA01F07FFA054601F08AFAA5F13003DBB2092B01D92E2D05D102AB2A
:400A0000234403F8085C0134E4B2042CE9D900238DF80530684607F08FFC07F027F903B030BD00BF014B186808307047C48BFF1F014B186818307047C48BFF1F014B18608C
:400A4000596070473C85FF1FF8B5224B1B681B8813F0010F2ED006460D464FF001040846002107F01DFC08B94FF00004E0B280F0010000EB4600184B53F8204067682668D1
:400A8000A06807F0FDF9294607F04EFA07F012FCB042B8BF3046B842A8BF384607F0F0F907F008FC04F10C0104F1D8023323FFF7C9FDF8BD094B5B7C43B9094801F004FAF6
:400AC0000122064B5A7440F2DC50F8BD40F2DC50F8BD00BFC48BFF1FD88BFF1F3C85FF1FFCCF000008B50120FFF7E6FD0220FFF7E3FD08BD2DE9F04F85B080460F461446C4
:400B00009A46DDF838B08500184600212A4607F079FC584600212A4607F074FC18F0010F00F08D80474B1D682B8813F0010F00F08680E86C2B6D90FBF3F007F0A1F901903E
:400B4000D5F8CC02D5F8D03290FBF3F007F098F90646D5F88801D5F8903190FBF3F007F08FF98146D5F80804D5F8103490FBF3F007F086F905460198314607F073FB00B1F2
:400B8000019E4846294607F08BFB00B14D463046394607F0C9F981463046214607F0C4F906462846394607F0BFF901902846214607F0BAF907464FEA58043046494607F0FC
:400BC000A9F80290204607F05BF905460298294607F05EFA02903846019907F09BF8294607F056FA03904AF824604BF82470002510E04AF82590019B4BF8253048460299EB
:400C000007F08AF881460198039907F085F801900135EDB2A542ECD30FE04AF824604BF824703046029907F075F806463846039907F070F807460134E4B24445EDD305B0E3
:400C4000BDE8F08FC48BFF1F014A024B1A607047291200005085FF1F704700BF00000000D0B582B000F0A2FA044610F0010F01D000F06CFC04F002039BB20BB100F056FD6B
:400C800004F00404A4B20CB1FFF72CFF524B1B790BB900F093FA50490B6801F108000C3101AA9847019BB3F5FA6F04D94A4B00229A60DA6042E0484B9C68204606F0C0FC7F
:400CC00006460F4640A3D3E9002306F07FFF38B1304639463EA3D3E9002306F077FF48B93046394638A3D3E9002306F06FFF10B93A4C00E03A4C384B9C60DC68204606F02B
:400D00009FFC06460F4630A3D3E9002306F05EFF38B1304639462EA3D3E9002306F056FF48B93046394628A3D3E9002306F04EFF10B92A4C00E02A4C274BDC60264B9C68FE
:400D4000204606F07DFC06460F461FA3D3E9002306F03CFF38B1304639461DA3D3E9002306F034FF48B93046394617A3D3E9002306F02CFF10B9194C00E0194C164B9C6005
:400D8000DC68204606F05CFC06460F460EA3D3E9002306F01BFF38B1304639460CA3D3E9002306F013FF48B93046394606A3D3E9002306F00BFF10B9084C00E0084C064B66
:400DC000DC6002B0D0BD00BFBB3CC3451442E83FBB3CC3451442E8BF5085FF1FA210423FA21042BFAFF30080014B9868704700BF5085FF1F014BD868704700BF5085FF1F9C
:400E0000014B1871704700BF5085FF1F08B5074800214FF4807207F0F5FA054A138803F47F4343F0FF03138008BD00BFC48AFF1FBC8AFF1F704700BF08B5002002F006FF23
:400E400000F03AFE014B186008BD00BF6085FF1F704700BF08B500F02FFE094A1368C01A506006F0CBFB0022064B06F0CDFE28B100F022FE024B186000F090FA08BD00BFBB
:400E80006085FF1F00407F40F8B504460E46436B9847A060E368C31A2361E06004F12405184606F0EDFF0146284600F023FE60611D4907F039F80546304606F0DDFF01461F
:400EC000284607F0E5F8014604F12C0000F012FEA06106F0B5FB10A3D3E9002306F004FC06F0C4FEE061606906F0AAFB0CA3D3E9002306F0F9FB00220C4B06F01FFD06466D
:400F00000F46206A06F09CFB32463B4606F03AFA06F0ACFE2062F8BD4C2438F292602F3F72D38A804FA4DE3F00007A4400409F4030B593B0044680690FA9032200F006FEE9
:400F400060690CA9032200F001FEE06909A9032200F0FCFD206A06A9032200F0F7FD0E4B1B8813F0030F14D00C4D0FAB009309AB01930CAB02932369039306AB049328468D
:400F80004FF48071064A234607F0E0FF284600F09BFF13B030BD00BFBC8AFF1FC48AFF1F88D0000010B40F4B00219960D960196100225A611A629A620B4C5C621A630B48BA
:400FC000D8629A61DA6159649964D9641A65DA655A661C66DA6698665A659A655DF8044B704700BF2C81FF1F0000A0410000204110B503F081F802F067FF044CA36B002060
:401000009847636F0020984710BD00BF2C81FF1F30B59BB000F050FD224A1368C31A5360214A128802F0800292B23AB101A81F491F4A07F0BDFF01A800F046FF194B5868EE
:4010400006F0DCFA00221B4B06F0D4FD38B300F033FD144B18601B7A2BB90122114B1A72072002F047FB144D0E4C28466168FFF70BFF05F13C006168FFF706FF0A4B1B88B4
:4010800013F0010F02D02846FFF752FF064B1B8803F002039BB213B10848FFF749FF1BB030BD00BF6885FF1FBC8AFF1FF4C40000A4D00000000049402C81FF1F6881FF1F9E
:4010C000014B9869704700BF2C81FF1F014B586D704700BF2C81FF1F014BD869704700BF2C81FF1F014B986D704700BF2C81FF1F014B186A704700BF2C81FF1F014BD86D10
:40110000704700BF2C81FF1F70B5164CA36B002098470026E660266100256561A562A561E5612563A6602562636F30469847A664E664256565666565A565E5666664E56591
:40114000094B1B8813F0010F02D02046FFF7F0FE054B1B8803F002039BB213B10348FFF7E7FE70BD2C81FF1FBC8AFF1F6881FF1F10B5074C20460021A82207F043F9002305
:40118000A4F8A830A4F8AA30A4F8AC3010BD00BF7485FF1F08B502F02DFCA8200C21024A02F04AFC08BD00BF7485FF1F024B188800221A8080B270477485FF1F184A538858
:4011C0009BB2A2F8A8300021164A118013F0010F01D00321118003F0020292B222B111490A8842F00C020A8003F0040292B222B10C490A8842F030020A8003F0080292B29B
:4012000022B108490A8842F040020A8003F010039BB223B1034A138843F08003138070477485FF1FBC8AFF1FF8B506460D46144602F0EEFB10F0020F04D000220D4BC3F8D5
:40124000B0200EE000F038FC0A4FD7F8B430C01AD7F8B0300344C7F8B03000F02DFCC7F8B400044B5A6832609A682A60D3F8B0302360F8BD7485FF1F034AB2F8AC3018432E
:40128000A2F8AC00908170477485FF1F044AB2F8AC3023EA0000A2F8AC009081704700BF7485FF1F034AB2F8AA301843A2F8AA00D08170477485FF1F044AB2F8AA3023EAD6
:4012C0000000A2F8AA00D081704700BF7485FF1F024BA3F8AA00D881704700BF7485FF1F10B4054C20616161A261E361019B23625DF8044B704700BF7485FF1F10B400237C
:4013000009E050F8231003F10804054A02EB840251600133DBB2072BF3D95DF8044B70477485FF1F10B4002309E050F8231003F11004054A02EB840251600133DBB2072BEC
:40134000F3D95DF8044B70477485FF1F10B4002309E050F8231003F11804054A02EB840251600133DBB2072BF3D95DF8044B70477485FF1F10B4002309E050F8231003F1F1
:401380002004054A02EB840251600133DBB2072BF3D95DF8044B70477485FF1F034AD2F8A4300133C2F8A430704700BF7485FF1F0C4B1A8802F0300292B130B583B0044669
:4013C00083699847084D009028464FF48071074A234607F0BBFD284600F076FD03B030BD704700BFBC8AFF1FC48AFF1FA8D0000038B505460C46836998471A4B188040F27F
:40140000DC5398422CD0C0F5BB60043080B2154B588004EB8401490010F4004F02D003B25B4200E003B2B1FBF3F10E4B596000B2002801DD0A2201E04FF6F672094B1A816D
:40144000084C20882389184480B220806B699847606802F04FF9228840F2DC539A42EFD138BD00BF2C86FF1F10B5044CA36801209847636A0120984710BD00BFA481FF1FFA
:4014800010B50B4CA36800209847E3689847636940F2DC509847636A00209847A36A9847236B40F2DC5098470120FFF7E5FE10BDA481FF1F10B5A0F5FA639BB24FF62F02CC
:4014C000934205D9B0F57A7F38BF4FF47A7001E04FF4FA60034C636998472046FFF768FF10BD00BFA481FF1F10B5A0F5FA639BB24FF62F02934205D9B0F57A7F38BF4FF468
:401500007A7001E04FF4FA60034C236B984704F11C00FFF74DFF10BDA481FF1F10B50C46FFF7C8FF2046FFF7DFFF10BD08B5024B9B69984708BD00BFA481FF1F08B5024B8B
:401540005B6B984708BD00BFA481FF1F10B50B4C636940F2DC509847236B40F2DC50984723699847E36A9847A36801209847636A012098470120FFF789FE10BDA481FF1FF2
:4015800008B501460148FFF733FF08BDA481FF1F08B501460148FFF72BFF08BDC081FF1F70B5FFF799FD164C2060FFF79BFD6060FFF79EFD0646FFF7A1FD0546304629469B
:4015C00006F0A8FB06F03CF80BA3D3E9002306F0B5F906F04BFBA0603046E16806F09AFB20612846616906F095FBA061E660656170BD00BFAFF30080986E1283C0CAD93FDA
:401600003886FF1FAFF3008010B594B01A4C206811A9032200F09AFA60680EA9032200F095FA20690BA9032200F090FAA06908A9032200F08BFAA06805A9032200F086FAB4
:401640000E4B1B8803F040039BB293B10C4C0EAB00930BAB019308AB029305AB039320464FF48071074A11AB07F070FC204600F02BFC14B010BD00BF3886FF1FBC8AFF1F14
:40168000C48AFF1FB4D00000034B00221A605A601A619A61704700BF3886FF1F704700BF10B59CB000F008FA1B4BDC69041B1B4B1B8803F080039BB243B103A81849194A5C
:4016C000234607F075FC03A800F0FEFB204605F095FF0022144B06F097FAD8B100F0ECF90D4BD86193F8203033B901220A4B83F820200B2001F0FEFF2046FFF751FF064C8E
:40170000206861682269A369A4680094FFF7E8FDFFF77AFF1CB010BD3886FF1FBC8AFF1FF4C40000DCD000000000494000B583B0074A0023136053601361936193600093A1
:40174000184619461A46FFF7CBFD03B05DF804FB3886FF1F000000002DE9F0470446436C98478146002106F09BFD10B14FF0010A01E04FF0FF0AA36C9847054604F108089E
:40178000484605F05DFF20A3D3E9002306F0D6F806460F460022002306F018FA50B109F1004005F04DFF18A3D3E9002306F0C6F806460F463046394606F058FA0146404681
:4017C00000F05CFB2846002106F04CFD10B105F1004100E02946404600F052FB404600F04DFA78B1E56C2669A4794FFA8AF006F047FB0146304606F097FB01462046FFF704
:4018000023F9A847BDE8F0874C2438F292602F3F2DE9F04387B00026164B1E70164D174B6B64174BC5F898300024DFF85890CDF800900194DFF85080CDF8088001270397F4
:40184000049605F1080021462246234600F0ECFACDF800900194CDF808800397049605F15C0021462246234600F0DEFA07B0BDE8F08300BF5C86FF1FDC81FF1FE90D000006
:40188000F50D00008988883D00409C4510B5FFF7C9F8094C01684268836804F1080000F08DFAFFF7C5F801684268836804F15C0000F084FA10BD00BFDC81FF1F0000000075
:4018C00010B59AB000F0F8F82B4B5C68041B2B4B1B8803F080039BB243B101A82849294A234607F065FB01A800F0EEFA204605F085FE1FA3D3E9002306F07CF9002832D0EE
:4019000000F0DAF81C4B58601B7A2BB901221A4B1A72132001F0EEFE1B4C2046FFF71CFF04F15400FFF718FF144B1B8803F004039BB23BB1236D98470246204604F10801A5
:4019400001F094F90D4B1B8803F008039BB253B10D4CD4F8A4309847024604F1540004F15C0101F083F91AB010BD00BFAFF30080ABAAAAAAAAAA50405C86FF1FBC8AFF1F0E
:40198000F4C40000E4D00000DC81FF1FAFF30080024B5864C3F89810704700BFDC81FF1F034B044A5A64044AC3F89820704700BFDC81FF1FE90D0000F50D0000074B002249
:4019C0009A60DA62DA60DA631A61DA65C3F880201A66C3F890205A66704700BFDC81FF1F38B508B9002400E00124064D05F10800214600F095F905F15C00214600F090F94A
:401A000038BD00BFDC81FF1F38B505460C46134602482946224600F0D1F938BDE481FF1F38B505460C46134602482946224600F0C5F938BD3882FF1F10B4054B5C69046085
:401A400098690860DB6913605DF8044B704700BFDC81FF1F10B4054B9C6E0460D86E08601B6F13605DF8044B704700BFDC81FF1F024A136801331360704700BF6886FF1FFF
:401A80000022014B1A6070476886FF1F10B501F00BFF01F0D7FE002409E0204601F01AFF20B92046034901F00DFF10BD0134042CF3D910BD711A0000014B1868704700BF58
:401AC0006886FF1F30B5002406E0094D85FB00E5C017C0EBA50001340028F6D103E030208854013201349C42F9DB104630BD00BF67666666F8B504464668304606F00CF90B
:401B0000074625683046294606F0C2FA0146384606F000F96060294606F0BAFAF8BD00BF82B00870000A487002B0704782B001909DF804300B709DF805304B709DF8063007
:401B40008B709DF80730CB7002B070472DE9F84306460D469046002106F084FB50B12D232B703046002106F07DFB08B106F10046012400E00024304606F09CFB07462919FC
:401B80000A2206F032FC07F037FA2044B8F1000F29DD2E232B54441C384606F071F90146304606F0B7F88146404605F037FD02460B4600200D4904F003FB06460F46484675
:401BC00005F03EFD32463B4605F08EFD06F026F80646294622464346FFF774FF291830460A2206F002FCBDE8F88300BF00002440F0B4049F013AD2B2540800251D703D7038
:401C000019E051F82460864203DA651CEDB21C700CE0864202D11C703C700EE0864205DD3C701A78A21A012A07D02246AC1804EBD474C4F347049542E3D9F0BC704700BF20
:401C400030B4BDF8084091420AD19C4201D198B211E0E41A04EBD47403EB640080B20AE0401A25B21CB22C1B04FB00F4521A94FBF2F2981880B200B230BC70472DE9F843A7
:401C800090F83930002B48D004460768406B394606F040F88046E069414606F045F9616A06F03AF805466062E66A314606F0DAFA40B9D4F830902846494606F0F1FA10B160
:401CC0004D4600E0354665623846616806F022F88146A069414606F027F90146284606F01BF80546206A494606F01EF90146284606F010F80546A0603046294606F0D0FA99
:401D000030B9266B2846314606F0CAFA00B92E46A66067600120BDE8F8830020BDE8F883F8B504460D4690F839308B4214D0012912D18668466203684360C76A304639464C
:401D400006F090FA38B9276B3046394606F0A8FA00B13E463746676284F83950F8BD00BFF8B504460D4616460846114606F08EFA18BBE562266394F83930012B1DD1A76855
:401D80003846294606F06EFA30B93046394606F069FA10B1374600E02F46A760676A3846294606F05FFA30B93046394606F05AFA10B1374600E02F466762F8BD2DE9F0417A
:401DC00004460D4616461F460846002106F04AFA38BB3046002106F045FA10BB3846002106F040FAE8B9E56026616761A561D4F828804046314606F097F80646E061384647
:401E0000414606F045F9206294F83830012B08D105F10045A56106F10046E66100F100402062BDE8F08100BFF8B504460F4616461D469DF8283080F838309DF8243080F8E6
:401E40003930002141620160416081604163069806F026FA10B1069BA36202E04FF07E53A36220460799089AFFF77AFF2046394632462B46FFF7A2FFF8BD00BF4163704751
:401E800001607047704700BF08B50020012102F0EFFA02F037FB20B102F02EFB08B102F05BFC02F029FB10B1014802F0A1FC08BDE8D0000008B502F025FB20B102F01CFBD3
:401EC00008B102F049FC08BD10B50446FFF7F2FF02F012FB30B102F0F9FC0028FBD0204602F086FC10BD00BF08B502F005FB034630B102F0DFFC034610B102F0F3FC03463D
:401F0000184608BD10B5044602F0F6FA30B102F0DDFC0028FBD0204602F0B8FC10BD00BF704700BF08B501F0A3FE08BD2DE9F04780460D46170912F00F021CD0C2F1100A7A
:401F40001FFA8AFA02EB07121FFA82F9002426460CE009EB060118F8040089B201F08CFE0134A4B2013DADB20136B6B25645F0D30137BFB200E00024C5F30F19B9F1000F7E
:401F80000ED110E008EB0400F9B201F0DFFE1034A4B2103DADB20137BFB20136B6B200E000264E45EED3ADB13F01BFB2A94600260DE0B91918F8040089B201F05DFE013447
:401FC000A4B209F1FF391FFA89F90136B6B2B542EFD84D462DB104487A21044A044B06F08FF9BDE8F08700BF18D1000004D100002CD1000030B583B00D4601A9FFF790FDC0
:40200000002409E002AB2344291913F8040C89B201F032FE0134E4B2012CF3D903B030BD30B583B00D4601A9FFF780FD002409E002AB2344291913F8040C89B201F01CFE16
:402040000134E4B2032CF3D903B030BD0000000038B5434B1B68DA6C196D92FBF1F2002A05DADA6C5242186D92FBF0F003E0D86C1A6D90FBF2F03B4A1060D3F88821D3F89C
:40208000901192FBF1F2002A07DAD3F888215242D3F8901192FBF1F105E0D3F88811D3F8902191FBF2F12F4A5160D3F8CC22D3F8D04292FBF4F2002A07DAD3F8CC526A421A
:4020C000D3F8D05292FBF5F505E0D3F8CC52D3F8D02295FBF2F5234A9560D3F80824D3F8104492FBF4F2002A07DAD3F808245242D3F8103492FBF3F305E0D3F80824D3F8D0
:40210000103492FBF3F3174CE36002468842A8BF0A462261AB42A8BF2B4663619A42A8BF1A461046A26105F0ABFE05F089FA08A3D3E9002305F0D8FA07A3D3E9002305F08C
:40214000D3FA05F093FDE06138BD00BFAFF300804C2438F292602F3F9A9999999999C93FC48BFF1F6C86FF1F0022024B83F82020704700BF6C86FF1F08B510B1012807D0B2
:402180000DE0114B93F8202003EB8203586A07E00D4B93F8202003EB8203186C00E00020094A92F82030013382F8203005F048FA03A3D3E9002305F097FA05F057FD08BD5A
:4021C0004C2438F292602F3F6C86FF1FAFF3008010B584B010B101281DD01FE00C461148FFF772FEA37913B1012B0AD016E001A802A903AAFFF720FC0B4801A9FEF7B6FA42
:402200000CE001A802A903AAFFF724FC074801A9FEF7ACFA02E00648FFF756FE002004B010BD00BF3CD10000BCCF0000C8CF000064D1000038B504460C4D2968A1F5FF41D2
:402240007839006889B2FFF7EBFE2968A1F5FF417439606889B2FFF7E3FE2968A1F5FF417039A06889B2FFF7DBFE38BDC48BFF1F38B504460C4D2968A1F5FF4168390068B9
:4022800089B2FFF7CDFE2968A1F5FF416439606889B2FFF7C5FE2968A1F5FF416039A06889B2FFF7BDFE38BDC48BFF1F30B595B004460D4600210846FEF7C0FB14B1012C34
:4022C00024D02BE0AB7913B1012B09D010E001A802A903AAFFF7B0FB01A8FFF7ABFF07E001A802A903AAFFF7B5FB01A8FFF7C0FF0220FEF7F7F9FFF753FB04A80B492A4670
:4023000006F056FE04A8FFF7DFFD07E004A808492A4606F04DFE04A8FFF7D6FD054BB3F85C20054B1A80002015B030BD88D10000A8D100006C86FF1FBC8AFF1F30B595B028
:402340000446C079FFF718FF0546A37913B1012B04D007E00021FEF771FB03E000202946FEF76CFB284611A90322FFF7EFFB01A8074911AA06F01CFE01A8FFF7A5FD054BE9
:4023800093F8200006288CBF0020012015B030BDC8D100006C86FF1F10B50C4610B101280AD01BE0FFF788FB104B1B6EC01AA368984215D2002010BDFFF77EFB0B4B1B6E49
:4023C000C01AA36898420DD3FFF776FB074B18662046FFF7B3FF38B9012010BD012010BD012010BD002010BD002010BD6C86FF1F2DE9F0410C4610B1012844D059E02E480E
:40240000FFF762FDFEF7EAFA80462C48FFF75CFDFEF7E4FA07462A48FFF756FDFEF7DEFA06462848FFF750FD0120FFF7D9FAFEF76BFEFFF7C3FAFFF779F9FFF709FE054693
:40244000A37913B1012B0AD012E0404639463246FFF7DAFA28460021FEF7F0FA08E0404639463246FFF7DCFA00202946FEF7E6FA1548FFF729FD1348FFF726FDFFF71CFB40
:40248000124B186615E00120FFF7AAFAFEF73CFEFFF794FAFFF74AF90D48FFF715FD0948FFF712FDFFF708FB084B18662046FFF745FF0020BDE8F081D4D10000F0D10000EC
:4024C00008D20000B8CE000024D200006C86FF1F34D2000010B592B00C4610B1012827D054E002A82B49224606F062FD02A8FFF7EBFC0220FEF7E0F800210846FEF79EFAB5
:40250000254B1868254B1968FFF742FA244B1A88244BA3F85C20A37913B1012B04D035E004221F4B1A8031E008221D4B1A802DE002A81D49224606F03BFD02A8FFF7C4FC82
:40254000184B174A1288A3F85C2003F14002009207201649164A2433FEF7CCFA00210846FEF76CFA0C4B18680C4B1968FFF710FAFFF7FAFDA37913B1012B04D006E00522D3
:40258000074B1A8002E00A22054B1A80002012B010BD00BF44D20000B88AFF1FC08AFF1FBC8AFF1F6C86FF1F5CD20000CDCC4C3ECDCC4C3F054B064A136003F11C0205498F
:4025C0000A6005490B60054B1A6070478482FF1FC88BFF1FEC8BFF1FF48BFF1FD08BFF1FF0B40C4D4F007C186400460033189B002344EC5A184628448188002305E022F8E5
:4026000013400133DBB20C44A4B2322BF7D9F0BC704700BFD482FF1F10B4002308E050F8232051F82340224441F823200133DBB2322BF4D95DF8044B704700BF10B4002349
:4026400007E050F8234094FBF1F442F823400133DBB2322BF5D95DF8044B704770B46FF000430B604FF00043136000230DE09D0050F823401668B44200DD146044590D681B
:40268000AC4200DA0C600133DBB2322BEFD970BC704700BF0F4B1B780B2B04D100220D4B1A700120704710B1012806D00BE0094A02EB830252680A6007E0074A02EB83024C
:4026C00092690A6001E000220A600133014A137000207047D086FF1FD482FF1F10B51248FFF7F2FB114C2268114802F5CA7102F51872FEF709F822680E4802F1540102F53D
:402700009072FEF701F822680B4802F2144102F59C62FDF7F9FF2268084802F5357102F56872FDF7F1FF10BDB8CE0000C48BFF1F14CF000024CF000074CF000084CF00004A
:4027400008B510B1012806D008E00548FFF7BCFBFFF7C4FF02E00348FFF7B6FB002008BD74D200009CD2000038B50446084604F067FF0BA3D3E9002304F0B6FF05F076FA5A
:402780000546237D13B90021FEF758F9237D012B03D100202946FEF751F938BDAFF300804C2438F292602F3F08B510B1012804D00AE00648FFF788FB06E00548FFF784FBA8
:4027C00000210846FEF73AF9002008BDC4D20000E8D2000008B510B1012807D00FE00948FFF772FB0120FDF77DFF08E00648FFF76BFB00210846FEF721F9FFF7D1F800206C
:4028000008BD00BF08D3000028D3000070B506460368084698470025002412E0FEF7F8FB042C09D9336998470C4905F07DFB0146284605F071FA05460A2000F05BFF0134BA
:40284000E4B2362CEAD9284605F034FD044B83FB0023C017C0EB231070BD00BF0000C8421F85EB512DE9F8430646894690461F46036840F2DC5098474FF4FA7000F03AFF69
:40288000FEF742FC00240EE01FB1C4F13205EDB200E02546304639F81510FFF7B7FF48F825000134E4B2322CEED9B3684FF47A709847336840F2DC509847BDE8F88300BF82
:4028C0002DE9F04105460F469046104C6423A36304F130060846314604F13402FFF7BEFE04F13C003946CC2205F081FD04F584704146662205F07BFDAAB230464FF4A071C5
:4029000082F40042FFF712FBBDE8F081D086FF1F2DE9F0478146884600EB4003DB001F4F1F441F4C04F5B872FFF75AFEB8F1010F14BF4FF0000A4FF0010A04F5EC70002125
:40294000CC2205F05FFD002410E0154D05F52976384605F5B87132465346FFF783FF304605F5EC71FFF758FE0134E4B2022CECD90B4C04F5297504F5EC7003212A46FFF73B
:402980005DFE08EB4908074B53F82800294604F5B872FFF795FFBDE8F08700BF1883FF1FD086FF1FD88BFF1F2DE9F047A0B007460D4614469846084604F042FE1AA3D3E99E
:4029C000002304F091FE05F051F98246214605F0A1F9814628461DA90322FFF7B7F81AAD204629460322FFF7B1F817AE504631460322FFF7ABF814AC484621460622FFF7AC
:402A0000A5F8009601950294CDF80C8004A808493A461DAB06F0CCFA04A8FFF755FA20B0BDE8F087AFF300804C2438F292602F3F44D30000AFF300802DE9F04104460E46CE
:402A4000056A2D4B93F87033E3B900210846FDF7F5FFA07F2949FFF71DFE30B12B6840F2DC5098470120BDE8F081234F2846D7F87413FFF779FEFFF71FF8C7F878030123B6
:402A800087F870331C4B93F8700398B3FFF714F8194BD3F87833C01AB0422AD3164ED6F87483EB68984707466B6898470346204641463A46FFF778FFA07F06F55D71FFF744
:402AC000E9FD48B1002286F8702300210846FDF7B5FFFF20BDE8F081074C2846D4F87413FFF742FEFEF7E8FFC4F878030020BDE8F0810020BDE8F081D086FF1F448AFF1F4F
:402B000038B5284B1C8810B1012829D044E040F2DC500146FEF702FD224D11232B802248FFF7D2F900200146FFF7F2FE1F48FFF7CBF900200121FFF7EBFE22232B801C4895
:402B4000FFF7C2F901200021FFF7E2FE1948FFF7BBF901200146FFF7DBFE2C80012038BD154B93F87C3303EBC3039B00134818440968FFF761FFFF2810D10F4A92F87C3387
:402B80000133DBB282F87C33042B09D100210846FDF754FF012038BD002038BD002038BD002038BDBC8AFF1F78D3000094D30000B0D30000CCD30000D086FF1F4883FF1F82
:402BC00000B583B010B1012807D01AE00F48FFF77BF90120FDF770FD13E00D48FFF774F90C4B00930B200C490C4A0D4BFDF782FF0120FEF7F5FE0B4B18680B4B1968FEF70C
:402C0000C7FE002003B05DF804FB00BFECD3000010D40000EC82FF1FCDCC4C3ECDCC4C3FD486FF1FB88AFF1FC08AFF1F0A4B1B6803F14801094A116003F5C471516003F584
:402C40003271916003F58163D360054B054A1360054A1360704700BFC48BFF1FD88BFF1FD883FF1FCC8BFF1FF08BFF1F2DE9F04F9BB007460C469046486B03F087FA10B1F5
:402C8000D4F834B001E04FF0000B206803F07EFA10B1D4F800A001E04FF0000A606B216805F038F803F072FA28B1606B216805F031F8814601E04FF00009606803F066FAC1
:402CC00008B1666800E00026606A03F05FFA08B1656A00E00025A06803F058FA08B1A46800E00024584617A90322FEF72FFF504614A90322FEF72AFF484611A90322FEF7F0
:402D000025FF30460EA90322FEF720FF28460BA90322FEF71BFF204608A90322FEF716FF104B1B8803F00C03C3B10F4C17AB009314AB019311AB02930EAB03930BAB049309
:402D400008AB0593CDF8188020464FF48071074A3B4606F0FBF82046FFF7B6F81BB0BDE8F08F00BFBC8AFF1FC48AFF1F30D400000378F12B05D190F82230F82B03D000206D
:402D80007047002070470120704700BF70B505460C46232608460021324605F033FB244B585D03F007F82348314602F045FF02F0E7FEB04228D0F1232370F82384F822305A
:402DC0004FF07E53C4F802304FF08043C4F80630194BC4F80A304FF08143C4F80E30174BC4F81230164BC4F81630164BC4F81A304FF08243C4F81E30022363700DB19D42BD
:402E000014D10123637070BD02F004FF002506E002F084FE0C4B187060550135EDB202F0AFFE08B1222DF3D902F0D4FE70BD00BF50D40000F883FF1F000040400000A0406C
:402E40000000C0400000E040508AFF1F704700BF08B502F0BFFE02F0DDFE02F04DFF08BD30B58BB00C460E4B185C01A9FFF78EFF01A8FFF77DFF88B10AAB53F8225D586889
:402E80009968DA6825606060A160E2601D6958699969DA6925616061A161E2610BB030BD50D40000012805D108B50348FFF70CF8002008BD0020704754D40000000000007E
:402EC000F0B59BB004460D4600210846FDF7B6FD012C4AD1FEF70CF90646FEF70FF904463046214604F016FF04F0AAFB22A3D3E9002304F023FD04F0B9FE0746304617A9F5
:402F00000322FEF723FE204614A90322FEF71EFE384611A90622FEF719FE2B780BB9184A00E0184A01A8184906F042F801A8FEF7CBFF01A8154917AA14AB06F039F801A88D
:402F4000FEF7C2FF01A8124911AA06F031F801A8FEF7BAFF0F4B1A685B6801A80E49D21A06F026F801A8FEF7AFFF0A4B1A890B4B1A8000201BB0F0BD986E1283C0CAD93FBE
:402F80007CD4000084D4000090D40000B4D40000E8D40000548AFF1FF8D40000BC8AFF1F01283FD170B50C46FEF786FD1F4B5B68C01A636898422CD2FEF79AF8002105F026
:402FC00051F920B1FEF794F800F1004502E0FEF78FF80546FEF792F8002105F043F920B1FEF78CF800F1004602E0FEF787F80646A4682846214605F035F920B130462146B0
:4030000005F030F980B9FEF757FD084B1860012070BDFEF751FD054B18600548FEF754FF012070BD01207047002070BD548AFF1F0CD50000012822D110B50C461148FEF766
:4030400043FF0120FEF7CCFCFEF75EF8FEF7B6FCFEF76CFBE1682378012B01D101F100410846FDF7EBFC0848FEF72EFF0748FEF72BFFFEF721FD064B5860002010BD00209B
:40308000704700BF24D5000034D20000B8CE0000548AFF1F012821D100B591B00B780BB90F4A00E00F4A68460F4905F081FF6846FEF70AFF00210846FDF7C0FC0B4B186813
:4030C0000B4B1968FEF764FC0A4B19880A4A11814F221A80002011B05DF804FB002070477CD4000084D4000040D50000B88AFF1FC08AFF1FBC8AFF1F548AFF1F014A024B34
:403100001A6070471C84FF1FE88BFF1F00B589B001206946FFF7A4FE6846FEF72BF909B05DF804FB00B589B003206946FFF798FE6846FEF7F7F809B05DF804FB08B5FFF747
:40314000E5FFFFF7EFFF08BD00B589B000206946FFF786FE6846FEF7F9F809B05DF804FB00B589B002206946FFF77AFE6846FEF7C5F809B05DF804FB08B5FFF7E5FFFFF7C3
:40318000EFFF08BD08B5FFF761FE034B034A1A60034A5A6008BD00BF608AFF1F793100003D31000008B5FFF753FE08BD10B59AB0FEF782FC0446114B1B8803F080039BB233
:4031C00043B101A80E490F4A234605F0F1FE01A8FEF77AFE204604F011FA00220A4B04F009FD48B1094C237A54F823309847237A013303F0010323721AB010BDBC8AFF1F88
:40320000F4C400005CD5000000004940608AFF1FFEE700BF08B5C0B200F06AFAFEE700BF08B5094B1A681044084BC31A802B02DC054B186005E005F083F80C2303604FF0BB
:40324000FF32104608BD00BF4884FF1F108DFF1F08B5104E104D16E029686B68AC68002204E051F8040B43F8040B0432A242F8D1E868002203E0002143F8041B0432824263
:40328000F9D11035013E002EE6D105F071F8FCF7F9FEFEE70100000090DA000008B5124A124B1A60124A136843F40073136000230AE0032B03D80F4A52F8231000E00E493C
:4032C0000E4A42F8231001332F2BF2D90C4B1A780C4B1A70094A0C4B1A6000F0BDF800220A4B1A6008BD00BF0004FA050CED00E014ED00E000000000113200000080FF1F0A
:40330000BC7600400481FF1F08ED00E00081FF1FF0B40022174611E050F82760F3B226F0FF0608E001EB420511F812406D78A5550132013BDBB2002BF4D10137272FEBD9CE
:40334000F0BC7047064B1B78DBB203F00701054A11701B09013213704422034B1A707047CF0100496E5800407658004008B50A46002105F047F808BD38B50122284B1A806E
:403380001823284A1370172227490A8002310B7002310A80254A1370192502321580023213700622224B1A705222A3F580731A70204B1B78DBB2204A137000241F4B1C8045
:4033C00040F6180203F21E231A8041F25122023B1A800CE01A4B1B7803F0010343EA440404F003044FF4F07000F072F9013D0DB1032CEFD1114A07231370002311490B70FC
:4034000048200231087013700532137002220E4B1A700E4A137843F00F03137038BD00BF8040004082400040844000408A400040004300400F010049A1460040044000403F
:40344000254200400640004001400040A243004008B504F0CCFF08BD38B572B63C4A137843F00403137000240CE03A4963001A1952000A4423445B00C8589188FFF776FF26
:403480000134E4B20A2CF0D9002410E03149A3001A1952000A4452F8440F23445B000B445168B3F84C20FFF7D3FF0134E4B2032CECD94FF090402849FFF72AFF274A13789E
:4034C00043F0020313701032137843F002031370234C237843F040032370A2F58632513A137843F0100313701E481F490822FFF7AFFF1E481E490822FFF7AAFF1D481E494A
:403500000A22FFF7A5FF1D481D490A22FFF7A0FF1C481D490A22FFF79BFF84221B4B1A70442203F518631A70194A137843F008031370184D61232B70FFF71EFF81232B7035
:40354000FFF700FF144821460E22FFF781FF38BDE846004060D50000A000004803500140A043004002510040EC0F0048C2510040F40F0048F0510040FC0F004820510040BD
:40358000081000484051004014100048DB0201402243004000480040B0430040044A137803F0EF03000100F0100018431070704740510040704700BF014B1880704700BFFE
:4035C00008680040014B1880704700BF88680040014B1880704700BF4868004008B50B4A137843F0010313700132137843F00103137044F62060FFF7DFFF44F62060FFF73A
:40360000E1FF40F2DC50FFF7E3FF08BD9464004008B5044B1B7823B9FFF7E0FF0122014B1A7008BD6C8AFF1F014B188880B2704748680040044A137803F0DF03400100F0B1
:40364000200018431070704740510040704700BF014B1880704700BF00680040014B1880704700BF80680040014B1880704700BF4068004008B50B4A137843F00103137034
:403680000132137843F00103137044F62060FFF7DFFF44F62060FFF7E1FF40F2DC50FFF7E3FF08BD9064004008B5044B1B7823B9FFF7E0FF0122014B1A7008BD6D8AFF1F22
:4036C000014B188880B2704740680040000000000230800803D000BF01380046FCD17047EFF3108072B6704780F31088704700BF01BE704710B5044605E0084B1868FFF7B9
:40370000E7FFA4F50044B4F5004FF6D8034B586800FB04F0FFF7DCFF10BD00BF4C84FF1F08B5034B1B7A03FB00F0FFF7D1FF08BD4C84FF1F70B504460E46074B1D680F28E0
:4037400002D90020FFF7D4FF04F00F0455F8240045F8246070BD00BF08ED00E070B504460E46074B1D681F2802D90020FFF7C0FF04F01F04103455F8240045F8246070BD40
:4037800008ED00E038B504460D46072902D90020FFF7AEFF1F2C02D90020FFF7A9FF04F01F0000F1604000F564406D01EDB2057038BD00BF024A136843F00203136070475C
:4037C00010E000E008B5FFF7F5FF034A136843F00103136008BD00BF10E000E020F07F40014B1860704700BF14E000E0012805D1054A136843F0040313607047024A1368BB
:4038000023F004031360704710E000E0024B1868C0F30040704700BF10E000E010B5FFF7F5FF01280BD107E0054B03EB84035B6803B19847013400E00024042CF4D910BDB5
:40384000708AFF1F0022014B1A60704718E000E008B5002305E00F4A02EB8302002151600133042BF7D90F200B49FFF763FF0120FFF7BCFF094BDB680948A0FB0330800938
:40388000FFF7ACFFFFF7DEFF4FF40042054B1A6008BD00BF708AFF1F1D3800004C84FF1FD34D621000E100E008B5054B9B6923B9FFF7CEFF0122024B9A61FFF783FF08BDBB
:4038C000708AFF1F024B03EB8003586859607047708AFF1F024B03EB80004068704700BF708AFF1F134B1B78DBB20360124A127843EA02230360114A127843EA0243036083
:403900000F4A127843EA026303600E4B1B78DBB243600D4A127843EA022343600B4A127843EA024343600A4A127843EA02634360704700BF0301004904010049EC46004033
:40394000020100490101004900010049050100490601004938B50122124B1A7081220E3B1A70082202331A700F2511331D70002401331C704FF400420B4B1A60284607219D
:40398000FFF700FF28460949FFF7E8FE084B1C70084B1C70084B1C70084B1C70084B1C8038BD00BFD649004080E100E0893A0000FA8BFF1F048CFF1FFB8BFF1F008CFF1F55
:4039C000F88BFF1F08B5FFF78BFE084A137843F0040313701032137843F004031370FFF783FE4FF40042024B1A6008BDA543004000E100E008B5054B1B7823B9FFF7AAFF3A
:403A00000122024B1A70FFF7DDFF08BD8C8AFF1F4FF40041054B1960054A1078137803F01003DBB21370034B1960704780E100E0048CFF1F00E100E010B44FF400440B4B2D
:403A40001C6032B113460A4A13600A4B18800A4B19800023094A1370094A13704FF40042084B1A605DF8044B704700BF80E100E0FC8BFF1F028CFF1FF88BFF1FFB8BFF1FDA
:403A8000008CFF1F00E100E0654B1B78DBB2654A137013F0080F32D0634B1B7813F0010F1CD0624A1378DBB261490968CB5CDBB25D490B7014215A4B19701378DBB25D4A67
:403AC000137013780133DBB213705B4A137843F0110313700822594B1A708EE01022504B1A70554A137843F0120313700122534B1A70534A137843F0100313707DE013F0CC
:403B0000010F7AD04D4A1278D2B2042A1ED0082A3AD0012A68D1444B1B78DBB2414A5370484A128892B293420CD210223C4B1A703C4B5B783D4A13703E4A137004223F4B48
:403B40001A705AE00022364B1A7056E0394B1A783D4B1B889BB29A4212D2334B1B7831494B7010222E4B1A70324A1378DBB2304800684978C15413780133DBB213703CE020
:403B80000022274B1A7038E013F0020F1ED1294B1A782C4B1B889BB29A4210D2254A1378DBB223490968CB5CDBB21F490B7004211B4B197013780133DBB213701DE0FF22A5
:403BC000194B1A700422013B1A7016E0FF22164B1A700022013B1A7017490B7803F0EF030B70164B1A7008E00023144A13700F4A1370104A13700A4A1370094B1B7813F06D
:403C0000200F0CD00C4A137803F0EF03137000220A4B1A700A4A137803F0EF0313707047D74900408D8AFF1FD8490040FB8BFF1FFC8BFF1F008CFF1F048CFF1FFA8BFF1FF7
:403C4000D6490040028CFF1FF88BFF1F044A137803F0FB03800000F00400184310707047C051004008B502F001F902F009F908BD08B5FFF7F7FF08BD30B583B00C468DF8B8
:403C8000070002F027F9B4F5006F54D22509C5EB053319010C44A4B202F0F2F900284CD1402021460DF10702012302F03FF9044607282FD1234B1B7813F0020FFAD0214BD5
:403CC0001B7813F0020F06D01E4B1B789B0805D04FF0FF3403E04FF0FF3400E00024E4B9194B402029461A785B7802F085F9072816D1144B1B7813F0020FFAD0114B1B788E
:403D000013F0020F0FD00F4B1B789B0810D04FF0FF340DE0012809D10AE04FF0FF3407E04FF0FF3404E04FF0FF3401E04FF0FF3402F0CCF902E0012400E00424204603B081
:403D400030BD00BF22470040E08CFF1F38B504460D4602F0BFF815F0800F48D102F090F9002846D140202146102202F01BF907282FD1214B1B7813F0020FFAD01E4B1B78C3
:403D800013F0020F06D01C4B1B789B0805D04FF0FF3403E04FF0FF3400E00024E4B9174B402029461A785B7802F026F9072816D1114B1B7813F0020FFAD00F4B1B7813F0C5
:403DC000020F0FD00C4B1B789B080DD04FF0FF340AE04FF0FF3407E04FF0FF3404E04FF0FF3401E04FF0FF3402F070F902E0012400E00424204638BD22470040E08CFF1FA1
:403E000008B50222054B1A6001200549FFF7A6FC01200721FFF7B6FC08BD00BF80E100E0FD3E000010B50224064B1C6000F0A0F8A0F5004000B2044B1B68044A1460184428
:403E400010BD00BF80E100E0908AFF1F00E100E038B505460224054B1C604FF4004000F081F8034B1D60034B1C6038BD80E100E0908AFF1F00E100E0024B187800F00F00C6
:403E8000704700BF6764004040F00700014B1870704700BF8764004008B50F20FFF7F4FFFFF7EAFFFFF71CFC054A137843F010031370FFF719FC0222024B1A6008BD00BFF6
:403EC0009764004000E100E008B500F0A3F84FF4004000F047F80022064B1A60064B1B7823B9FFF78DFF0122034B1A70FFF7D4FF08BD00BF908AFF1F8F8AFF1F0D4B1B78FB
:403F0000DBB213F0010F06D00B490A6802F5FF427F320A6007E013F0020F04D006490A68A2F500420A6013F0040F02D00022024B1A60704767640040908AFF1F024A13787D
:403F400043F080031370704776650040014B1870704700BF83640040014B1878704700BF63640040014B1880704700BF0C680040024B1B78024B188880B2704706640040FE
:403F80008C680040014B188880B270478C680040014B1880704700BF4C680040014B1880704700BF6C68004008B501E0FFF7EAFFFFF7D2FF10F0400FF8D108BD08B5134BCC
:403FC0001A7802F0F8021A701A7802F0FC021A70FFF7EAFF4FF40040FFF7DAFF4FF40040FFF7C0FF0020FFF7B1FFFFF7B5FF4FF40040FFF7D3FFFFF773FB054A137843F018
:4040000010031370FFF770FB08BD00BF766500409364004008B5054B1B7823B9FFF7CEFF0122024B1A70FFF789FF08BD948AFF1F08B50122054B1A6000200549FFF78EFB64
:4040400000200721FFF79EFB08BD00BF80E100E02D41000010B50124064B1C6000F0A0F8A0F5004000B2044B1B68044A1460184410BD00BF80E100E0988AFF1F00E100E0B2
:4040800038B505460124054B1C604FF4004000F081F8034B1D60034B1C6038BD80E100E0988AFF1F00E100E0024B187800F00F00704700BF6564004040F00700014B1870B9
:4040C000704700BF8564004008B50F20FFF7F4FFFFF7EAFFFFF704FB054A137843F010031370FFF701FB0122024B1A6008BD00BF9564004000E100E008B500F0A3F84FF4F0
:40410000004000F047F80022064B1A60064B1B7823B9FFF78DFF0122034B1A70FFF7D4FF08BD00BF988AFF1F958AFF1F0D4B1B78DBB213F0010F06D00B490A6802F5FF42BD
:404140007F320A6007E013F0020F04D006490A68A2F500420A6013F0040F02D00022024B1A60704765640040988AFF1F024A137843F080031370704773640040014B1870CE
:40418000704700BF8C640040014B1878704700BF6C640040014B1880704700BF14680040024B1B78024B188880B270470A64004094680040014B188880B270479468004030
:4041C000014B1880704700BF54680040014B1880704700BF7468004008B501E0FFF7EAFFFFF7D2FF10F0400FF8D108BD08B5134B1A7802F0F8021A701A7802F0FC021A70A3
:40420000FFF7EAFF4FF40040FFF7DAFF4FF40040FFF7C0FF0020FFF7B1FFFFF7B5FF4FF40040FFF7D3FFFFF75BFA054A137843F010031370FFF758FA08BD00BF7364004089
:404240009C64004008B5054B1B7823B9FFF7CEFF0122024B1A70FFF789FF08BD9C8AFF1FF8B5FFF73DFA0546404A137843F0010313701032137843F00103137001273C4B14
:404280001F700226943B1E7002F5E2521B32137803F07F0313700020FFF742FA354C237803F0F9032370344A137803F0DF03137023783B4323703846FFF732FA2820FFF714
:4042C0002FFA2E4B1A7802F07F021A701A7802F0BF021A702378334323703046FFF720FA237843F0040323700023254A1370013213702846FFF7F8F917200721FFF742FA7B
:4043000017202049FFF72AFA18200721FFF73AFA18201D49FFF722FA15200721FFF732FA15201A49FFF71AFA05200721FFF72AFA05201749FFF712FA06200721FFF722FA1A
:4043400006201449FFF70AFA07200146FFF71AFA07201149FFF702FA0C200721FFF712FA0C200E49FFF7FAF9F8BD00BFA54300409D6000409443004012600040F8510040E8
:4043800084600040814E0000514C00007D4E0000C54D0000FD4D0000394E00001151000010B5002304E00124244AD4542344DBB2012BF8D9224B18700023224A1370224A72
:4043C0001370224A1370224A1370224A1370224A1370224A1370224B4FF400021A604FF080721A604FF400121A6020221A6040221A6080221A6011B1012906D00BE0194A25
:40440000137803F0FE0313700AE0164A137843F00103137004E0134A137843F0010313700322114B1A708022203B1A700120FFF74FF904220D4B1A7010BD00BFBC8CFF1F7A
:40444000218CFF1F248CFF1F408CFF1F438CFF1F388CFF1F428CFF1F458CFF1F208CFF1F00E100E009600040286000401260004038B505460C46064B1B7823B9FFF7F0FE33
:404480000122034B1A7028462146FFF789FF38BD9D8AFF1F002304E001210E4AD1540B44DBB2012BF8D900230B4A13700B4A13700B4A13700B4A13700B4A13700B4A1370C2
:4044C0000B4A137003220B4B1A708022203B1A70704700BFBC8CFF1F248CFF1F408CFF1F438CFF1F388CFF1F428CFF1F458CFF1F208CFF1F28600040014B1878704700BF36
:40450000438CFF1F064B1B7813F0FF0F05D0044B1878C0B200221A7070470020704700BF408CFF1F00EB40008000024B18444078704700BF488CFF1F431EDBB2072B0BD819
:40454000064B00011A18185C00F00F00537843EA0020023880B2704700207047FC5F0040431EDBB2072B3BD8F0B4074600EB40039B001C4C2344DB889BB2C3F500739A4224
:4045800007D900EB40039B002344DA88C2F5007292B200EB40039B00124C2344DB7843EA1223114D04012E192B55D3B2737039B909E0CE5C3D010D4C665501339BB200E08F
:4045C00000239342F5D3430003449B00054A134400225A705A79D2B20001054B1A54F0BC704700BF488CFF1FFC5F004078600040FE5F0040431EDBB2072B0BD8430003443D
:404600009B00054A134400225A705A79D2B20001024B1A54704700BF488CFF1FFE5F004070B5D9B1054614460E46C8B1082819D8FFF782FFA04203D22846FFF77DFF04469B
:40464000002305E02901094A525CF25401339BB2A342F7D32846FFF7CDFF04E0002402E0002400E00024204670BD00BF786000400246002001E0013080B2135C002BFAD1D4
:40468000704700BF10B4FF2400220EE00A4B9B5C03EB43039B0009490B449B78DBB2834201D1144602220132D2B2012AEED920465DF8044B704700BF108CFF1F508CFF1F3F
:4046C00010B5204C2079FFF7DDFF237813F0800F0ED06378DBB2212B2FD11B4B07221A80C0EBC000194A1044586000F01FFB10BD144B5B78DBB2202B02D0222B10D01EE07E
:40470000114A07231380C0EBC00310490B4453600F4A135C43F00103135400F02FFB10BD084B9B780B4A22F81030094A135C43F00203135400F0BAF910BD002010BD002058
:4047400010BD00BF006000402C8CFF1F5C84FF1F088CFF1F1C8CFF1F10B500241F4B1C701F4B1C705C700AE01E4B185DC0B2431EDBB2072B01D8FFF73DFF0134E4B2012CC3
:40478000F2D9194B1B7813F0FF0F1AD0154B1B7813F0FF0F17D0154B1B7813F0FF0F14D0114B1B78DBB2082B11D80E4B1B78DBB2082B0ED80D4B1B78DBB2082B0BD8002091
:4047C00010BD012010BD012010BD012010BD012010BD012010BD012010BD00BF9E8AFF1F088CFF1F148CFF1F0C8CFF1F108CFF1F2DE9F8438046224B1B78224AD65CF6B216
:40480000FFF736FF05460027344606EB46039B001D4A13441B899BB2AB4208D206EB46039B001344B3F808901FFA89F900E0A946304608EB07014A46FFF792FEC9EB0505F8
:40484000ADB245B906EB46039B000F4A13441B899BB2994510D14F44BFB204EB44039B00094A13445B7813F0FF0FF6D025B9304600210A46FFF774FE002DC5D1BDE8F8836D
:404880009E8AFF1F0C8CFF1F488CFF1F00B583B002A901F8010D054B1B78054AD05C0122FFF75EFE03B05DF804FB00BF9E8AFF1F0C8CFF1F08B5034B1B78034AD05CFFF7CE
:4048C00031FE08BD9E8AFF1F148CFF1F08B5034B1B78034AD05CFFF725FE08BD9E8AFF1F0C8CFF1F00B583B0064B1B78064AD05C0DF107010122FFF793FE9DF8070003B088
:404900005DF804FB9E8AFF1F148CFF1FC37803F0030390F9020000280FDA032B06D002F001030B48C15442F001020EE0C2F380030848C15442F0040207E0032B05D0C2F356
:4049400040030548C15442F002021046704700BF0C8CFF1F108CFF1F148CFF1F1C4B19781C4A13880B449BB2138000230EE01A4A51680978C9B21948C154516801315160FE
:404980000133DBB21188013989B21180124A128892B20AB1072BEAD90D4A1278D2B2082A00D05BB10E490A7882F080020A700F210C4A117002210C4A117004E00222094998
:4049C0000A7009490A70094A1370014A13707047208CFF1F228CFF1F2C8CFF1F00600040B68CFF1F418CFF1F248CFF1F448CFF1F0222074B1A708022064B1A700F22064B04
:404A00001A700023054A1370054A137001207047248CFF1FB68CFF1F418CFF1F208CFF1F448CFF1F08B5FFF799FF08BD10B4184B197801F00F010239C9B2164A13880B44B3
:404A40009BB21380002010E0134B5C68134A125CD2B222705A6801325A600130C0B20139C9B21A88013A92B21A800B4B1B889BB20BB10029E8D10A4B19700A4A137883F06D
:404A8000800313700B22084B1A705DF8044B704729600040228CFF1F2C8CFF1F00600040448CFF1FB68CFF1F418CFF1F0623064A1370064A13708022054B1A700022054B8A
:404AC0001A700120704700BF248CFF1F418CFF1FB68CFF1F448CFF1F064B9B6843B1054B9A6810709A6804490988518000229A60704700BF2C8CFF1F228CFF1F08B5134B74
:404B00001A78D2B21A701B78DBB213F0800F02D00F4A137008BD0220FFF7DEFF0D4B1B7803F06003202B05D0402B06D043B900F0D5FD06E001F0FAFA03E000F07DFF00E061
:404B4000002010B90322024B1A7008BD28600040418CFF1F0060004008B5084B1978084A13880B449BB213800022064B1A700120FFF7B2FF0322044B1A7008BD208CFF1F29
:404B8000228CFF1F248CFF1F418CFF1F08B50B4B1B78DBB2042B06D0062B07D0022B0BD1FFF7DAFF08BDFFF741FF08BD0320FFF793FF0322024B1A7008BD00BF248CFF1F9F
:404BC000418CFF1F08B50022044B1A700120FFF783FF0322024B1A7008BD00BF248CFF1F418CFF1F08B50B4B1B7813F0FF0F07D0084A137843F0800307490B7000231370AE
:404C00000022064B1A700120FFF766FF0322044B1A7008BD428CFF1F08600040248CFF1F418CFF1F08B5094B1B78DBB2042B06D0062B07D0022B07D1FFF7F4FE08BDFFF705
:404C4000C1FF08BDFFF7CEFF08BD00BF248CFF1F08B5284B1B78DBB213F0100F48D013F0800F0CD003F00F03012B16D1FFF746FF214B1B7813F0800F11D1012312E013F0C3
:404C8000400F03D0FFF7CEFF01230BE013F0200F07D0FFF77BFF012304E0002302E0002300E0002323B3134B1B7813F0800F1FD1124B1B78124A12781343124A1370127876
:404CC000D2B29A4214D10C4B1B78DBB2094A127812F0800F07D1084B1B78DBB2054A1370137803F00F03044A1278D2B29342EAD108BD00BF28600040418CFF1FB68CFF1F5A
:404D0000448CFF1F296000400022064B1A80064B9B682BB1044A916800230B7092685380704700BF228CFF1F2C8CFF1F08B50F4B1B889BB213B9FFF75BFE15E002220C4B23
:404D40001A7000220B4B1A70FFF7DEFF0A4AD179937943EA0123054A128892B29A4201D9024A1380FFF7FAFD012008BD2C8CFF1F248CFF1FB68CFF1F0060004008B50422BD
:404D80000B4B1A7080220B4B1A70FFF7BDFF0A4AD179937943EA0123084A128892B29A4201D9064A13800B22054B1A70012008BD248CFF1FB68CFF1F006000402C8CFF1F8A
:404DC000418CFF1F0A4A137803F0FE031370094B9B7C094B1B7B03F00303012B04D0064AD37B83F08003D3730122034B5A7370470B600040FC5F0040488CFF1F0B4A13783D
:404E000003F0FD0313700A4B93F82230094B1B7E03F00303012B04D0064AD37E83F08003D3760122034B5A76704700BF0B600040FC5F0040488CFF1F0D4A137803F0FB0342
:404E400013700C4B93F832300B4B93F8243003F00303012B06D0084A92F8273083F0800382F827300122044B83F82520704700BF0B600040FC5F0040488CFF1F704700BFEB
:404E800008B5FFF707FB08BD08B50B4B18780138C0B200F0C9F9094B1B79DBB200EBC30042690749CB5C02EBC3035B68596A0B78044A1380516008BD438CFF1F0060004093
:404EC000B48CFF1F2C8CFF1F08B50D4B18780138C0B200F0A9F90B4B1B79DBB200EBC30042690949CB5C02EBC3035B68DB69597813F8022B42EA012204490A804B6008BDFA
:404F0000438CFF1F00600040B48CFF1F2C8CFF1F10B50022194B1A80194B18780138C0B200F082F91749CB78DAB20B79DBB200EBC3004169012B20D81348C35C01EBC301DB
:404F40004968531EDBB2022B17D802F10053013B01EBC3000B4A9278D2B211F8333093420BD3406802EB4202920081184C68034B5C60825A1A808A689A6010BD2C8CFF1F6C
:404F8000438CFF1F00600040B48CFF1F08B55B4B1A79D2B21B7813F0800F4DD0574B5B78013B052B00F28D80DFE803F0212B3B8B8B03524BDB78DBB2212B09D1FFF764FF14
:404FC0004F4B1B889BB2002B7DD0FFF7AFFE08BD4A4BDB78DBB2222B77D1FFF775FF484B1B889BB2002B72D0FFF7A0FE08BDFFF78FFF434B1B889BB2002B6AD0FFF796FE99
:4050000008BD012A67D83D4B9B7813F0FF0F64D13B4901230B803B4B1A444A60FFF786FE08BD012A5BD8364901230B80364B1A444A60FFF77BFE08BD304B5B78DBB20A2B07
:405040000DD00B2B2ED0092B4BD1FFF761FF2C4B1B889BB2002B46D0FFF790FE08BD012A43D8264B9B7813F0FF0F40D1234BDB78DBB224498B548B5C2449895CDBB28B426F
:4050800003D20021214B995409E0204B9B5CDBB2012B04D91B4B9B5CDBB21C498B54FFF705FD08BD012A24D8144B9B78DBB2012B21D8124B9B78DBB213498B54FFF7F6FC6A
:4050C00008BD002008BD002008BD002008BD002008BD002008BD002008BD002008BD002008BD002008BD002008BD002008BD002008BD002008BD002008BD00BF0060004006
:405100002C8CFF1FC48CFF1FBC8CFF1FC08CFF1F08B500F0AFFC08BD70B588B0054603AC174E0FCE0FC43368237035B322232B7003236B7001A8FEF7D5FB002402231AE02A
:4051400008AA224412F81C2C08A901EB121111F8141CE954581C00212954981C02F00F0208AE324412F8142C2A54DA1CA9540134E4B20433DBB2212BE2D908B070BD00BFA5
:40518000CCD5000010B401223DE0114613010C242148C45402EB42039B00204803445B7913F0FF0F12D002EB42039B0003441B7913F0800F04D01001194B03449C700AE02B
:4051C0001001174B03440820987004E01001144B0344802098704B000B449B000F480344DC88E4B208010C4901448C71D888C0F30720C871D888C0B20871DB88C3F3072314
:405200004B710132D2B2082ABFD9FF22054B1A705DF8044B704700BF70600040488CFF1FFC5F00400A600040074B1B78074A02EBC30253681A7C824203D903EBC00358698A
:4052400070470020704700BF218CFF1F1CD60000F8B5404B1B7813F0FF0F79D03D4B18780138C0B2FFF7E0FF047AC2683A4B1878C0B200236AE01178814264D13749095C65
:40528000C9B25578A9425ED1917801F07F01D67806F00306DFF8C8E04D000D44AD000EEB05074FF0000C87F803C092F802C087F804C092F803C00EF805C095883D8192F95C
:4052C0000250002D0DDA012E01D1072700E00D274D000D44AD00224E35446F7101266E700CE0012E01D1052700E009274D000D44AD001B4E35446F7100266E70DFF868E093
:405300000F010EEB07060125B57001FA05F529448900134D29440D89C5F307250EF807500D89EDB27570CE88F6B20E4D3D44AE71CE88C6F30726EE71CE88F6B22E71C988E1
:40534000C1F30721697108320133DBB2A34292D3F8BD00BF438CFF1F388CFF1FB48CFF1F488CFF1F70600040FC5F0040034B1A78034B03EBC2035868704700BF218CFF1F12
:405380001CD6000008B5074B18780138C0B2FFF74BFF28B14268127900EBC203586908BD002008BD438CFF1F2DE9F84300220EE06D4E53009D18AD00741900217155A17005
:4053C000E1702181A172617061710132D2B2082AEED940B90AE000226449CA546449CA540133DBB200E00023012BF4D9614B1B7813F0FF0F00F0B5805E4B18780138C0B2A3
:40540000FFF712FF80464368DB7913F0400F05D0594A137843F00103137004E0564A137803F0FE03137098F808704FF0000901266CE0D8F80C50002464E0AB7803F07F031C
:405440009E425CD1314606EB46039B00464803441B899BB2A888834205D206EB46039B00414A134418812B784048C35CDBB26878834244D195F802C03B484B000B449B0059
:4054800000EB030E8EF804C095F803E000F803E0EB7803F0030395F90200002811DA012B02D14FF0070C01E04FF00D0CDFF8B8E04B0058188000704480F805C00123437060
:4054C00012E0012B02D14FF0050C01E04FF0090C25484FEA410E0EEB01039B00034483F805C0194600234B70AB790A2B01D0022B05D1284631464A46FFF708FA8146083547
:405500000134E4B2BC4298D30136F6B2082E90D9D8F80C0000220CE0837803F07F0310F8084B03EB43039B0014490B449C700132D2B2BA42F0D3FFF725FF114B18600020F9
:4055400001220AE0084C5300991889002144C8800B89184480B20132D2B2082AF2D9FFF711FEBDE8F88300BF488CFF1FB48CFF1F288CFF1F438CFF1F458CFF1F508CFF1FDE
:405580003C8CFF1F08B5154B1A7902F07F02531EDBB2072B20D8530013449B0010490B44997841F0010199700021D970597841F0020159701B7913F0800F05D01201094BE6
:4055C00013448D229A7004E01201064B134489229A70FFF76BFA08BD002008BD00600040488CFF1FFC5F0040264B1B7903F07F035A1ED2B2072A43D810B55A001A44920044
:4056000021490A44917801F0FE0191700021D17019017F241D484454517801F0FD015170127912F0800F14D003EB4302920016490A445278D2B2012A05D11B0102461A44A0
:405640000C23937019E01B01104A1A440D23937013E003EB430292000B490A445278D2B2012A05D11B01094A1A440823937004E01B01064A1A4409239370FFF717FA10BDA3
:405680000020704700600040488CFF1FFC5F004010B50E4B1C79E4B20D4B18780138C0B2FFF7C2FD43681B799C4201D9022C0AD8084A135DDBB208490B55044B9B78DBB25F
:4056C0001355012010BD002010BD00BF00600040438CFF1FB48CFF1F288CFF1F10B5964B1B78DBB20021954A118013F0800F00F0B380914A5278D2B20A2A00F27981DFE8CF
:4057000012F06F00770177017701770177010B00770198007701A000874BDB78DBB2012B09D1FFF723FE4268844B5A6012221A80FFF7FCFA10BD804BDB78DBB2022B13D128
:405740007D4B9878FFF770FD002800F0538142687A4B5A605A68D1785A68927842EA01221A80FFF7E3FA10BD734BDB78DBB2032B05D032E00A7811440133DBB201E000232A
:405780006F496D4A9278D2B29A4203D90A7812F0FF0FEFD1684B9B78DBB2EE2B00D16949654B9B7813F0FF0F0BD0634B9B78DBB2654A127C934204D1644C2046FFF7ACFC5B
:4057C00021460B7813F0FF0F00F016810B785B4A13805160FFF7AAFA10BD00F0A7FC10BD13F0030317D0022B40F0088153490B80514B1B7903F07F0303EB43039B00544AE5
:4058000013449A78D2B2534B1A7000225A704B60FFF78CFA10BD494902230B804E4B1A78D2B24C4B1A7000225A704B60FFF77EFA10BD424B01221A80484A5A60FFF776FA93
:4058400010BD3E4A012313803B4B1B7944490B445360FFF76BFA10BD374A5278013A0A2A00F2CE80DFE812F04B00CC009700CC000B00CC00CC00CC001300CC0030002E4B17
:405880009B78DBB2374A1370FFF710F910BD2A4B9B7803F0FF041BB1601EC0B2FFF7C4FC04B110B9002C40F0AD802C4B1B78DBB29C4206D0294B1C7001202B4B1870FFF721
:4058C00073FDFFF7F3F810BDFFF7E2FE002800F09B80194A1379DBB21279D2B223490A70234AD25C1E49C95CD3B28B4204D001221D4B1A70FFF7ACFCFFF7D8F810BD03F08A
:405900000303012B36D04BB1022B7FD10A4B9B7813F0FF0F7CD1FFF767FE10BD064B9B78DBB2012B76D10C4A137803F0FD031370FFF7BCF810BD00BF006000402C8CFF1F61
:40594000BCD6000008D60000A0D70000E48CFF1F488CFF1FA08AFF1F458CFF1F438CFF1FB48CFF1F428CFF1F408CFF1F388CFF1F288CFF1F2D4B1B79DBB2012B4CD82B4B55
:4059800098781B79DBB22A49CA5C22EA0002CA54FFF78CF810BD03F00303012B17D04BB1022B3BD1214B9B7813F0FF0F38D1FFF7E9FD10BD1D4B9B78DBB2012B32D11D4A89
:4059C000137843F002031370FFF770F810BD174B1B79DBB2012B27D8144B98781B79DBB21349CA5C22EA0002CA54FFF75FF810BD002010BD002010BD002010BD002010BD7C
:405A0000002010BD002010BD002010BD002010BD002010BD002010BD002010BD002010BD002010BD002010BD002010BD00600040B88CFF1F458CFF1F08B50B4B1B7813F09D
:405A4000800F0CD0084B5B78DBB2012B09D1074B074A5A6012781A80FFF768F908BD002008BD002008BD00BF006000402C8CFF1FE0D50000024B1878C0F38010704700BF1B
:405A80008F4500400422014B1A60704700E100E008B5FDF725FE0A4A137843F020031370033A137843F010031370A2F58072137843F010031370FDF717FEFFF7E3FF08BDCE
:405AC000976500400422014B1A60704780E100E0014B1878704700BF6465004010B5FFF7F1FF064B1B78064A147804F040041C4300231370FFF7C6FF204610BD646400408D
:405B0000DE8CFF1F034B1B7813F0040FFAD0024B18707047646500404765004010B5FFF7D1FF134B1B78134A1278DBB2934214D0114B1B7813F0FF0F0CD10D4A13780133FF
:405B4000DBB213701378DBB20F2B06D90022084B1A7002E00022084B1A70054B1B78DBB2064AD45CE4B2FFF78DFF204610BD00BFDD8CFF1FDC8CFF1FC88CFF1FCC8CFF1F15
:405B800010B5FFF79FFF114B1B78114A1278DBB2934215D00D4B1B780D4A1278DBB2934206D20B4B1B78094A14781C1BE4B208E0074B1B78054A14781C1B1034E4B200E03D
:405BC0000024FFF75FFF204610BD00BFDD8CFF1FDC8CFF1F08B501E0094B1B78094B1B7813F0200FF8D1FFF76DFF0023064A1370064A1370064A1370FFF744FF08BD00BF0C
:405C00005765004064640040C88CFF1FDD8CFF1FDC8CFF1F08B5FDF763FD064B1A7842F001021A701A7802F0FE021A70FDF75CFD08BD00BF9765004070B506460C4600252B
:405C400006E0705DFFF75EFF0135EDB2013CE4B2002CF6D170BD00BF08B501E00A4B1B780A4B1B7813F0200FF8D1FDF739FD084B1A7842F001021A701A7802F0FE021A7052
:405C8000FDF732FD08BD00BF57650040646400409765004010B50F22104B1A700422104B1A6002200721FDF76DFD02200D49FDF755FDFFF7D1FF00240B4B1C700B4B1C7013
:405CC0000B4B1C70FFF704FFFFF708FF094B1C702022A3F580731A7010BD00BF8765004080E100E0155D0000C88CFF1FDD8CFF1FDC8CFF1F8465004008B5054B1B7823B906
:405D0000FFF7C8FF0122024B1A70FFF7C1FE08BDA48AFF1F204B1A7820490B7803F0400313430B7031E01E4B1A78D2B21D490B780133DBB20B700B78DBB20F2B02D90021FB
:405D4000184B1970174B1B7817490978DBB28B420ED115490B780133DBB20B700B78DBB20F2B02D90021104B197001210F4B19700C4B1B78DBB20E49CA54074B1A780749BC
:405D80000B7803F0400313430B70044B1B7813F0200FC8D1704700BF64640040DE8CFF1F57650040DC8CFF1FDD8CFF1FC88CFF1FCC8CFF1F014B1870704700BF7264004055
:405DC00010B500F087F800F05BF9D0B900F09AF90446072812D102E00120FDF7A1FC0A4B1B7813F0020FF7D0074B1B7813F0020F04D0054B1B789B0800D1002400F066F9D5
:405E000000E00424204610BD2247004010B500F061F800F035F910BB012000F013F9072818D11048022100F067F802280AD102E00120FDF775FC0C4B1B7813F0020FF7D056
:405E4000002409E0084B1B7813F0020FE9D04FF0FF3401E04FF0FF3400F038F900E00424204610BDE08CFF1F2247004008B5FFF7A7FF034610B9FFF7C9FF0346184608BD79
:405E800008B5FDF72DFC0F4A137843F0080313701032137843F008031370C8220A4B1A700A4A137843F0100313701032137843F010031370064B1B7813F0200FFAD0FDF7FA
:405EC00013FC08BDA043004001470040AC4300400047004008B5FDF703FC064A137843F0080313701032137843F008031370FDF7FBFB08BDA043004070B506460D460024D9
:405F00000CE00120FDF70CFC064B1B7813F0010FF7D0054B1B7833550134E4B2AC42F3D3204670BD224700402047004030B43E2801D81F2B03D93F2827D90F2B27D8174C81
:405F4000247814F0020F24D0154CB6252570D4252570012525700234247814F0020F1AD10F4C2070C1F300202070C9B22170591EC9B22170002104E0545C09480470013106
:405F8000C9B29942F8D3072006E0012004E0012002E0042000E0092030BC70472247004020470040124B1B7813F0020F19D010B4104BB6241C70D5241C7002241C700233AD
:405FC0001B7813F0020F0ED10A4B1870002304E0CC5C0848047001339BB29342F8D3072002E00420704709205DF8044B704700BF224700402047004030B4104C247814F0D3
:40600000020F15D00E4CB6252570D8252570052525700234247814F0020F0BD1084C2070080A2070C9B2217022702370072002E0042000E0092030BC704700BF2247004094
:40604000204700400C4B1B7813F0020F0FD00B4BB6221A70E1221A700E221A7002331B7813F0020F05D1054B187007207047042070470920704700BF22470040204700406B
:4060800010B5FDF72DFB0F4B1B78A3B901220D4B1A700D4B1B6813F0010F0ED00A4A136823F00103136000BF00BF00BF0122054B5A60002402E0042400E00024FDF714FBED
:4060C000204610BDA88AFF1F0400084008B5FDF707FB0A4B00221A705B68012B0AD1084A136843F00103136000BF00BF00BF0022024B5A60FDF7F8FA08BD00BFA88AFF1FBC
:4061000004000840074B1B7813F0020F08D0064BB6221A70E0221A700D221A700720704704207047224700402047004008B5144B1B7803F00303012B02D0022B04D00FE0AB
:406140000F4B1B79DBB20CE00D4B1B7903F07F0303EB43039B000B4A13449B78DBB200E00023094A1268D35C022B04D0032B05D1FEF70CFF08BDFEF7A3FA08BD002008BD37
:4061800000600040508CFF1F3C8CFF1F30F0004001D102207047A0F50003B3F1FE4F01D204207047054B421E9A4201D803207047A0F1FF40B0FA80F040097047FEFF7F0078
:4061C0002DE9F04F8BB01F4680468946164600F06FF9DFF8D8A204469AF900300D46013304D03046394600F083FF20B9204629460BB0BDE8F08F4046494600F079FF83466E
:4062000060BB304639460022002301F0D5FC0028ECD09AF900309E4C01229E4900208DE814005A1CCDF820B0CDE90289CDE90467CDE906010DD0022B0BD0684600F084FFD3
:40624000002800F09380089B1BB102F079F8089B0360DDE906010BB0BDE8F08F404649460022002301F0A8FCF8B1304639460022002301F0A1FC834600284ED084489AF9A1
:4062800000300121002200240025CDE90289CDE90467CDE90645019000910892002BCCD07C4B0022CDE90623D3E72046294600F019FF834600285ED02046294600220023A3
:4062C00001F07AFC002891D04046494600F00AFF00288BD03046394600F004FF002885D09AF900306A480421002200240025022BCDE90289CDE90467CDE906450190009101
:40630000089200F08880684600F01EFF002800F08280089B002B9CD097E73046394600F0E1FE00283FF462AF304639460022002301F04CFC00283FF459AF55499AF80030D8
:406340000122CDF820B0CDE90289CDE9046701910092002B3CD050490020022BCDE9060130D101F0EDFF21230360D2E701F0E8FF2123036067E74046494600F0B3FE00281C
:406380009AD03046394600F0ADFE002894D02046294600F0ADFE00BB3D4A9AF8004001230890CDE90289CDE90467019200937CB10020002102460B4601F0C0FA022CCDE9F9
:4063C0000601CED0684600F0BFFE0028A1D1C8E700220023CDE90623F4E72D499AF900300322CDF820B0CDE90289CDE9046701910092ABB9294D4FF06044404649460022E8
:406400000023CDE9064501F0E1FB50BB9AF90030022B7FF478AF01F093FF2223036078E71F4D00244046494600220023CDE9064501F0CCFB0028E9D000221A4B304639464C
:4064400001F052F904460D4600F086FE22462B4601F0B2FB0028D9D10F4B0022CDE90623D4E700220F4B3046394601F03DF904460D4600F071FE22462B4601F09DFB002852
:40648000C4D1094B4FF06042CDE90623BEE700BFB4D700000000F03F0000F0FFFFFFEF470000F07F0000E03FFFFFEFC77884FF1F2DE9F04F144623F00047024657EA040000
:4064C0000E468FB01D469C46214634D06E4B26F0004A9A459346B14626DC24D09F4223DC694B9F4200F08F80B9F1000FC0F28F804FF0000879BB644B9F4200F0A580634BDF
:406500009F4267D0BCF1804F00F0E283604B9C4521D1B9F1000F1EDB104631460FB0BDE8F04F00F015BD62B10AF1404000F5801050EA0B0007D10346544918460FB0BDE838
:40654000F08F5745CCDD53480FB0BDE8F04F00F0FDBD4FF0000810463146CDF808C0009200F0BCFD009ADDF808C0BBF1000F20D04FEAD97909F1FF3958EA09037AD0464BCB
:406580009F4240F38F8003F104739F4240F31084424B9A4540F39283BCF1000F40F3928337A1D1E900010B46024601F09DF80346C3E7BAF1000F04D0344B29F0404E9E45B1
:4065C000D6D1BCF1000FC0F2B683B9F1000F08DB0346B2E7BCF1000FC0F2528413463146ABE70AF1404A0AF5801A58EA0A0340F05E8402460B4600F0C3FE0B46024601F0D6
:406600009DF9034699E700293FF46EAF8CE7244B9F422CDCA3F154739F427FF769AF40F213403B15834240F34B84C3F58663033321FA03F000FA03F38B427FF459AF00F044
:406640000100C0F1020855E70AF1404303F5801353EA0B0300F03983104B9A4540F36483BCF1000FC0F22E832346294665E74FF002083FE7104631463346BCE7AFF3008011
:406680009C7500883CE4377E0000F07F0000F03F0000E03FA4C400000000E041FFFFEF3FFFFF3F43BAF5801F4FF0000205DACA4B01F01AF88A466FF034024FEA2A53C74EC4
:4066C000CAF3130AA3F2FF334AF07F571344B2450C9347F4401740F3D083C14B9A4540F307840026B4460C9BA7F5801701330C933946BC4B4FEACC0C6344D3E900AB524631
:406700005B46CDF834C0CDE9060100F039FE52465B46CDE90801DDE9060100F033FE02460B460020B04901F009F902460B46DDE90801CDE90A2300F0D7FF02460B46CDE930
:406740000223CDE904237B1043F0005303F5002399190020002306460F460293DDE902231046194632463B46CDE9000100F0BCFF02460B46DDE9080100F002FE5246CDE91F
:4067800008015B463046394600F0FAFD02460B46DDE9060100F0F4FD02460B46DDE9000100F0A2FF02460B46DDE9080100F0E8FDDDE90A2300F098FFDDE90423CDE90601BA
:4067C0001046194600F090FF02460B4606460F4600F08AFF6EA3D3E9002382468B463046394600F081FF6CA3D3E9002300F0CAFD32463B4600F078FF69A3D3E9002300F0E4
:40680000C1FD32463B4600F06FFF67A3D3E9002300F0B8FD32463B4600F066FF64A3D3E9002300F0AFFD32463B4600F05DFF62A3D3E9002300F0A6FD02460B46504659465B
:4068400000F052FFDDE9042306460F46DDE9000100F098FDDDE9062300F046FF32463B4600F090FDDDE9006782468B4632463B463046394600F038FF00225C4BCDE9080100
:4068800000F080FD52465B4600F07CFD02980F460646DDE9000132463B4600F025FF32463B46CDE90001DDE9060100F01DFF0022CDE906014D4B3046394600F061FDDDE9B1
:4068C000082300F05DFD02460B465046594600F057FDDDE9042300F007FF02460B46DDE9060100F04FFD82468B46DDE9000152465B4600F047FD32A3D3E9002302980F461C
:40690000064600F0F1FE30A3D3E90023CDE904013046394600F0E8FEDDE90023CDE906013046394600F02CFD02460B465046594600F026FD26A3D3E9002300F0D5FE0246AC
:406940000B46DDE9060100F01DFDDDF834C0284BCDF818C06344D3E9002300F013FDCDE900010C9800F05AFE06460F46DDE90401204BDDF818C09C44DDE90023DCE900AB30
:4069800000F000FD52465B4636E000BFAFF30080EF4E454A287ECA3F65DBC9934A86CD3F01411DA96074D13F4D268F515555D53FFFAB6FDBB66DDB3F033333333333E33F75
:4069C000000000E009C7EE3FF5015B14E02F3EBEFD033ADC09C7EE3F000040438E98030079B60B00D8D700000000F03F00000840C8D70000B8D70000CDE906AB00F0C2FCE8
:406A000032463B4600F0BEFC029832463B4682468B4600F0B5FCDDE9062300F0B1FCDDE9042300F0ADFC02460B46DDE9000100F0A7FCCDE9020108F1FF3858EA09030CBFDF
:406A4000D54BD64B0022CDE904230023CDE900450093DDE90067204632463B46294600F08FFC52465B4600F03FFEDDE90223804689462046294600F037FE02460B464046B0
:406A8000494600F07FFC04460D465246304639465B46CDE9024500F027FE06460F4620463B462946324600F06DFCBD4B824699428946884640F3138101F13F4303F5E003D9
:406AC000034340F0E581A0A3D3E90023DDE9020100F058FC324604460D463B465046494600F04EFC02460B462046294601F08CF8002840F0CD814C462015A0F2FE304FF443
:406B0000801101414144C1F30A50A64CA0F2FF35C1F3130BC0F5826003302C414BF4801B21EA040300224BFA00FB3946304600F027FC06460F46DDE902018BEAE87B0BEBA0
:406B4000D87B32463B464FEA0B5A00F01BFC80A3D3E90023002420460D4600F0C5FD3246804689463B462046294600F009FC02460B46DDE9020100F003FC77A3D3E90023F1
:406B800000F0B2FD76A3D3E9002306460F462046294600F0A9FD02460B463046394600F0F1FB06460F4632463B464046494600F0E9FB42464B4604460D4600F0E1FB02467B
:406BC0000B463046394600F0DBFB2246804689462B462046294600F087FD63A3D3E9002306460F4600F080FD61A3D3E9002300F0C7FB32463B4600F077FD5FA3D3E900230C
:406C000000F0C0FB32463B4600F06EFD5CA3D3E9002300F0B5FB32463B4600F065FD5AA3D3E9002300F0AEFB32463B4600F05CFD02460B462046294600F0A2FB06460F4639
:406C400032463B462046294600F04EFD0022CDE900014FF080433046394600F091FB02460B46DDE9000100F069FE424606460F464B462046294600F037FD42464B4600F04C
:406C800081FB02460B463046394600F079FB22462B4600F075FB02460B4600203F4900F06FFB8A44BAF5801F0246C0F227815346DDE9040100F018FD03463EE4BCF1000F44
:406CC000FFF66EAC0023194637E40B46334934E433461046314600F007FD03462DE4324B21F000449C4240F3FA80304B0B4403430CD132463B4600F043FB02460B46DDE99F
:406D0000020100F06DFF00283FF4F6AE20A3D3E90023DDE9040100F0E7FC1DA3D3E9002300F0E2FC034608E4BCF1000FCADA234605F1004101E402460B460020174900F025
:406D4000FDFD42E4AFF30080FE822B654715973C00000000432EE63FEF39FAFE422EE63F396CA80C615C20BED0A4BE726937663EF16BD2C541BDBB3E2CDE25AF6A56113F93
:406D800093BDBE166CC1663F3E5555555555C53F59F3F8C21F6EA5010000F0BF0000F03FFFFF8F40FFFF0F00FFCB904000346F3F634B9A4582DD634B9A453FF7EDAB00221C
:406DC000604B00F0DDFA54A3D3E9002306460F4600F08AFC52A3D3E90023CDE900013046394600F081FC3246CDE902013B463046394600F079FC002282468B46304639468B
:406E0000514B00F071FC02460B4647A1D1E9000100F0B6FA32463B4600F066FC02460B4600204A4900F0ACFA02460B465046594600F05AFC3EA3D3E9002300F055FC0246F3
:406E40000B46DDE9020100F09BFA06460F46DDE9000132463B4600F095FADDE90023002082468B4600F08CFA02460B463046394600F086FACDE90201DDE50026B44637E4C7
:406E8000334600202F4900F059FD0346FFF755BB29A3D3E90023DDE9040100F025FC26A3D3E9002300F020FC0346FFF746BBB8F1010F03467FF441AB01F10041FFF73DBB2F
:406EC00000297FF446ABC3F58263033347FA03F000FA03F3BB4217D08846FFF710BB1B4B9C423FF709AEDDE90023924693462EE64FF480264FF0010CFFF7FABB5A4600F04C
:406F0000BBF902460B46D3E600F00100C0F10208FFF7F5BAAFF30080000000604715F73F44DF5DF80BAE543E555555555555D53FFE822B654715F73F9C7500883CE4377E01
:406F4000FEFFEF3F0000F03F0000D03F0000E03F2DE9F041604E0C46B6460E40764505460B4600F098800029024676DD5FEA215E00F08180AEF2FF3EC3F313031EF0010F55
:406F800043F480135ED100273C46D10F01EB43034FEA6E0E520016204FF4001165189D424FEAD2764FEA420202DC5B1B6C180F44013806EB43034FEA5101EFD1844620263C
:406FC0004FF000410AE0A34220D0D50F013E4FEA510105EB43034FEA420220D09C420CEB0105F0DA002D05EB010C09DBA0461B1B954288BF03F1FF334446521B0844E4E7E0
:40700000BCF1000FF2DB04F10108F0E7954217D8002D05EB010C48DB98460023ECE7134315D140087B1003F17F5303F50013FA0703EB0E57394648BF40F00040BDE8F081CB
:407040001C46C2E7D10F01EB430352009BE7411C31D000F001031844E3E721F000460643ECD079BB8E46D30AAEF1150E5205002BF9D0DC0222D400215B00D80201F101013B
:40708000FAD5C1F10100C1F1200422FA04F4234386448A406EE702460B4600F025FB2A46234600F06FF9BDE8F081BCF1000FAADAA0460023A0E701373046B3E720240120A8
:4070C0000021E2E702460B4600F05AF902460B4600F034FCB2E700BF0000F07F21F00041704700BF41F0004101F58010C00F704710B431F0004408D0114BA1F580129A42A3
:4071000008D804205DF8044B704718B902205DF8044B704701F1FF41094B01F5E0019942EFD9B4F5801F01D20320EBE7054B9C4201D00020E6E7B0FA80F04009E2E700BFBB
:40714000FFFFDF7F0000F07F0020704700200149704700BF0000F87FF0B5C1F30A5EAEF2FF35132D83B002460B460C464FEAD17607462EDC002D48DB3C49294101EA03001F
:4071800010432BD049080B4053EA02070CD04FF48023132D24EA010143FA05F444EA01040CBF4FF0004700273149234601EBC606D6E900453A462046294600F0E3F8CDE937
:4071C0000001DDE9000122462B4600F0D9F803B0F0BD332D06DDB5F5806F43D01046194603B0F0BDAEF2134E4FF0FF3121FA0EF10142F3D049080142D6D04FF0804320EAF3
:40720000010143FA0EF70F43CEE721F000410143E4D0C3F3130141EA000CCCF1000141EA0C0C13495C0C4FEA1C3C0CF4002C640401EBC6014CEA0403D1E90045204629460A
