:400000000080002011000000513100005131000008B5044B1A6803F53F5302331A6003F0B7F800BFFA46004010B5054C237833B9044B13B10448AFF300800123237010BDC1
:400040001885FF1F00000000E4DA0000084B10B51BB108480849AFF300800848036803B910BD074B002BFBD0BDE81040184700BF00000000E4DA00001C85FF1F0881FF1F9D
:400080000000000080B562B601F002FF01F0B2FE00F09CFE00F0ACFE00F0ACFE00F0B6FE01F030F800F0B0FD00F0E6FB01F0A0FC00F058FF01F0A2F901F07AFB01F0C8FAFE
:4000C00003F018F801F0E6FE01F096FE01F02CF800F0A2FD00F0EEFB01F090FC00F068FF01F098F901F0A2FB01F0BCFA03F012F8264C274D0FCD20606160A260E36007CD82
:4001000020616161A2612B782377204601F094FE204D05F120072E460FCE20606160A260E36035461034BE42F5D103CD20606160164C204601F080FE174D05F120072E4630
:400140000FCE20606160A260E36035461034BE42F5D1337823700D4801F06EFE012003F015FD00F05DFD00F033FF01F079FB01F07BFA02F0D3FF00F04BFE00F0A5FB01F0CC
:4001800051FE002003F002FDE8E700BFBC8AFF1FE8DA000008DB000030DB0000014B1868704700BF3485FF1F014B5868704700BF3485FF1F10B50E4801F03EFE0D4801F03C
:4001C0003BFE0D4801F038FE0C4801F035FE0C4801F032FE0B4C204601F02EFE0A4801F02BFE204601F028FE084801F025FE10BD54DB000088DB0000BCDB000004DC000060
:4002000060DC000004E50000BCDC0000DCDC000010B5164801F010FE154801F00DFE154801F00AFE144801F007FE144801F004FE134801F001FE134801F0FEFD124801F0FA
:40024000FBFD124801F0F8FD114801F0F5FD114C204601F0F1FD104801F0EEFD204601F0EBFD0E4801F0E8FD10BD00BFF4DC000028DD00005CDD0000A4DD000018DE0000B8
:400280008CDE000000DF000074DF0000ECDF000068E0000004E50000E4E0000004E1000008B50022054B1A8010B9FFF783FF08BD012801D1FFF7ACFF08BD00BFB48AFF1FB2
:4002C00010B5104801F0B8FD0F4801F0B5FD0F4801F0B2FD0E4801F0AFFD0E4801F0ACFD0D4801F0A9FD0D4C204601F0A5FD0C4801F0A2FD204601F09FFD0A4801F09CFD76
:4003000010BD00BF1CE1000048E1000074E1000094E10000B8E10000E4E1000004E50000E4E00000FCE1000010B590B044780378074A02EB83036846064952F824209B68CB
:400340000AF066F9684601F077FD10B010BD00BF0C81FF1F14E2000010B504460378042B42D8DFE803F0030F1B293500836840786168984710B90123237010BD2046FFF718
:40038000D3FF10BDC36840786168984710B90223237010BD2046FFF7C7FF10BD0369407861689847012802D10323237010BD10B32046FFF7B9FF10BD4369407861689847D8
:4003C00010B90423237010BD2046FFF7ADFF10BD836940786168984710B90523237010BD2046FFF7A1FF10BD034B00229A60DA604078FFF755FF10BD3485FF1F08B5034820
:4004000001F01AFD024801F017FD08BD3CE2000070E2000008B501F01FFDA0F14303352B23D8DFE803F0211D22222222222222222222222222222222221B221F2222222216
:40044000222222222222211D22222222222222222222222222222222221B221F762008BD732008BD782008BD632008BD08B532280BD0332811D0312817D101F0FBFC0C4BCE
:400480001A6800211170186808BD01F0F3FC094B1A6800211170186808BD01F0EBFC064B1A6800211170186808BD002008BD00BFC48BFF1FC08BFF1FE48BFF1F08B5A0F14F
:4004C0003103072B00F28480DFE803F0041220304050607101F0CEFC3E4801F0ADFC3E4B1A68012151701A6800211170186808BD01F0C0FC394801F09FFC394B1A6801210B
:4005000051701A6800211170186808BD01F0B2FC344801F091FC324B1A6801215170196800220A7018684368DA7108BD01F0A2FC2D4801F081FC2A4B196801224A701968F8
:400540000020087018684368DA7108BD01F092FC264801F071FC264B1A6801215170196800220A7018684368DA7108BD01F082FC204801F061FC1E4B196801224A701968C2
:400580000020087018684368DA7108BD01F072FC194801F051FC194B1A6801215170196800220A70196849680A70186808BD01F061FC134801F040FC104B196801224A7004
:4005C000196800200870196849680A70186808BD002008BDC4E20000E88BFF1F14E30000EC8BFF1F6CE30000ACE30000ECE30000C88BFF1F2CE400006CE40000E08BFF1F42
:40060000B0E4000070B584B00C4600218DF80F108DF80E1058B3164605460DF10E02009221461A460DF10F0301F09AFA9DF80F309DF80E0034F9231034F9202036F81330B0
:4006400036F81000009028B201F0B2FA80B2A0F5FA639BB24FF62F02934205D9B0F57A7F38BF4FF47A7004E04FF4FA6001E040F2DC5004B070BD00BF10B50446084A13689D
:40068000188880B220EA040019881880118881F4004101F067FC204600F0D8FD10BD00BFBC8BFF1F10B50446064B1968088880B2A1F50041204389B201F054FC204600F0B3
:4006C000BBFD10BDBC8BFF1F70B59EB003460E461546684612491A4609F09AFF684601F0ABFB00240CE005A80E4956F8242035F8143009F08DFF05A801F09EFB0134E4B2C7
:40070000312CF0D905A8084956F8242035F8143009F07EFF05A801F08FFB1EB070BD00BF1CE70000F4E40000FCE40000F0B59DB007460C46086809A9032201F0BFF906AE4A
:4007400060683146032201F0B9F903ADA0682946032201F0B3F9009601950CA804493A4609AB09F055FF0CA801F066FB1DB0F0BD08E5000038B5A0F13103032B63D8DFE88C
:4007800003F00222425801F075FB2F4801F054FB2E4C204601F050FB2D4D2A682D4802F5CA7102F51872FFF78FFF2A682A4802F1540102F59072FFF787FF204601F03CFB4D
:4007C000FFF77EFD38BD01F055FB244801F034FB1E4C204601F030FB1D4D2A68204802F2144102F59C62FFF76FFF2A681D4802F5357102F56872FFF767FF204601F01CFBA5
:40080000FFF75EFD38BD01F035FB174801F014FB0E4801F011FB0E4C216814480831FFF785FF216812481831FFF780FFFFF748FD38BD01F01FFB0F4801F0FEFA034801F055
:40084000FBFAFFF73DFD38BD24E5000004E50000BC8BFF1F60E5000070E5000080E50000C0E50000D0E50000E0E5000008E6000014E6000020E6000008B5084A084B1A601F
:40088000084A094B1A60094A094B1A6002F086F901F048FE02F0EAFB08BD00BF00800040BC8BFF1F9D010000B08AFF1FA9010000B88AFF1F08B5034B1B68188880B200F07F
:4008C000D1FC08BDBC8BFF1F10B5FFF7A3FD0446314B1B7C042B5BD8DFE803F0031B3249510073280FD0762807D0632853D1FFF761FC0122284B1A7410BDFFF789FC0222C2
:40090000254B1A7410BDFFF7DBFC0322224B1A7410BD214B9B681BB9FFF7A8FD1E4B98601D4B9B6833B1012000F04AFA1A4B9868FFF712FD782C2ED10422174B1A7410BD5F
:40094000154BDB681BB9FFF7B9FD134BD860124BDB6833B1012000F033FA0F4BD868FFF7FBFC782C17D104220B4B1A7410BDFFF701FF782C0FD10422074B1A7410BDFFF7CF
:400980003DFD002000F01CFA0022034B1A7410BD0022014B1A7410BD3485FF1F30B583B0002401F03FFA01F057FA054601F062FAA5F13003DBB2092B01D92E2D05D102ABEA
:4009C000234403F8085C0134E4B2042CE9D900238DF80530684608F0DFFF08F077FC03B030BD00BF014B186808307047BC8BFF1F014B186818307047BC8BFF1F014B186035
:400A0000596070473485FF1FF8B5224B1B681B8813F0010F2ED006460D464FF001040846002108F06DFF08B94FF00004E0B280F0010000EB4600184B53F8204067682668C5
:400A4000A06808F04DFD294608F09EFD08F062FFB042B8BF3046B842A8BF384608F040FD08F058FF04F10C0104F1D8023323FFF7C9FDF8BD094B5B7C43B9094801F0DCF9B9
:400A80000122064B5A7440F2DC50F8BD40F2DC50F8BD00BFBC8BFF1FD08BFF1F3485FF1F48E6000008B50120FFF7E6FD0220FFF7E3FD08BD2DE9F04F85B080460F461446B9
:400AC0009A46DDF838B08500184600212A4608F0C9FF584600212A4608F0C4FF18F0010F00F08D80474B1D682B8813F0010F00F08680E86C2B6D90FBF3F008F0F1FC019083
:400B0000D5F8CC02D5F8D03290FBF3F008F0E8FC0646D5F88801D5F8903190FBF3F008F0DFFC8146D5F80804D5F8103490FBF3F008F0D6FC05460198314608F0C3FE00B1E2
:400B4000019E4846294608F0DBFE00B14D463046394608F019FD81463046214608F014FD06462846394608F00FFD01902846214608F00AFD07464FEA58043046494608F093
:400B8000F9FB0290204608F0ABFC05460298294608F0AEFD02903846019908F0EBFB294608F0A6FD03904AF824604BF82470002510E04AF82590019B4BF825304846029988
:400BC00008F0DAFB81460198039908F0D5FB01900135EDB2A542ECD30FE04AF824604BF824703046029908F0C5FB06463846039908F0C0FB07460134E4B24445EDD305B0D4
:400C0000BDE8F08FBC8BFF1F014A024B1A607047BD1100004885FF1F704700BF00000000D0B582B000F08CFA044610F0010F01D000F056FC04F002039BB20BB100F046FD64
:400C400004F00404A4B20CB1FFF72CFF524B1B790BB900F07DFA50490B6801F108000C3101AA9847019BB3F5FA6F04D94A4B00229A60DA6042E0484B9C68204608F010F887
:400C800006460F4640A3D3E9002308F0CFFA38B1304639463EA3D3E9002308F0C7FA48B93046394638A3D3E9002308F0BFFA10B93A4C00E03A4C384B9C60DC68204607F083
:400CC000EFFF06460F4630A3D3E9002308F0AEFA38B1304639462EA3D3E9002308F0A6FA48B93046394628A3D3E9002308F09EFA10B92A4C00E02A4C274BDC60264B9C6805
:400D0000204607F0CDFF06460F461FA3D3E9002308F08CFA38B1304639461DA3D3E9002308F084FA48B93046394617A3D3E9002308F07CFA10B9194C00E0194C164B9C600A
:400D4000DC68204607F0ACFF06460F460EA3D3E9002308F06BFA38B1304639460CA3D3E9002308F063FA48B93046394606A3D3E9002308F05BFA10B9084C00E0084C064B6B
:400D8000DC6002B0D0BD00BFBB3CC3451442E83FBB3CC3451442E8BF4885FF1FA210423FA21042BFAFF30080014B9868704700BF4885FF1F014BD868704700BF4885FF1FF4
:400DC000014B1871704700BF4885FF1F08B5064800214FF4807208F045FE044A138843F07F03138008BD00BFBC8AFF1FB48AFF1F704700BF08B5002002F0C8FE00F014FE9F
:400E0000014B186008BD00BF5885FF1F704700BF08B500F009FE094A1368C01A506007F01DFF0022064B08F01FFA28B100F0FCFD024B186000F07CFA08BD00BF5885FF1FEA
:400E400000407F4000000000F8B504460E46436B9847A060E368C31A2361E06004F12405184608F03DFB0146284600F0FBFD60611D4908F089FB0546304608F02DFB01469B
:400E8000284608F035FC014604F12C0000F0EAFDA06107F005FF10A3D3E9002307F054FF08F014FAE061606907F0FAFE0CA3D3E9002307F049FF00220C4B08F06FF8064694
:400EC0000F46206A07F0ECFE32463B4607F08AFD08F0FCF92062F8BD4C2438F292602F3F72D38A804FA4DE3F00007A4400409F4030B593B0044680690FA9032200F0DEFD5E
:400F000060690CA9032200F0D9FDE06909A9032200F0D4FD206A06A9032200F0CFFD0E4B1B8813F0030F14D00C4D0FAB009309AB01930CAB02932369039306AB0493284646
:400F40004FF48071064A234609F030FB284600F073FF13B030BD00BFB48AFF1FBC8AFF1FD4E6000010B40F4B00219960D960196100225A611A629A620B4C5C621A630B4882
:400F8000D8629A61DA6159649964D9641A65DA655A661C66DA6698665A659A655DF8044B704700BF2C81FF1F0000A0410000204110B503F041F802F027FF044CA36B002020
:400FC0009847636F0020984710BD00BF2C81FF1F38B500F029FD1A4A1368C01A506007F03DFE0022174B08F035F938B300F01CFD134B18601B7A2BB90122114B1A7207202D
:4010000002F018FB104D0E4C28466168FFF71CFF05F13C006168FFF717FF0C4B1B8813F0010F02D02846FFF763FF084B1B8803F002039BB213B10648FFF75AFF38BD00BFB0
:401040006085FF1F000049402C81FF1FB48AFF1F6881FF1F014B9869704700BF2C81FF1F014B586D704700BF2C81FF1F014BD869704700BF2C81FF1F014B986D704700BF41
:401080002C81FF1F014B186A704700BF2C81FF1F014BD86D704700BF2C81FF1F70B5164CA36B002098470026E660266100256561A562A561E5612563A6602562636F304662
:4010C0009847A664E664256565666565A565E5666664E565094B1B8813F0010F02D02046FFF706FF054B1B8803F002039BB213B10348FFF7FDFE70BD2C81FF1FB48AFF1F6C
:401100006881FF1F10B5074C20460021A82208F0A9FC0023A4F8A830A4F8AA30A4F8AC3010BD00BF6C85FF1F08B502F003FCA8200C21024A02F020FC08BD00BF6C85FF1FF2
:40114000024B188800221A8080B270476C85FF1F184A53889BB2A2F8A8300021164A118013F0010F01D00321118003F0020292B222B111490A8842F00C020A8003F004026A
:4011800092B222B10C490A8842F030020A8003F0080292B222B108490A8842F040020A8003F010039BB223B1034A138843F08003138070476C85FF1FB48AFF1FF8B50646DB
:4011C0000D46144602F0C4FB10F0020F04D000220D4BC3F8B0200EE000F026FC0A4FD7F8B430C01AD7F8B0300344C7F8B03000F01BFCC7F8B400044B5A6832609A682A6083
:40120000D3F8B0302360F8BD6C85FF1F034AB2F8AC301843A2F8AC00908170476C85FF1F044AB2F8AC3023EA0000A2F8AC009081704700BF6C85FF1F034AB2F8AA30184388
:40124000A2F8AA00D08170476C85FF1F044AB2F8AA3023EA0000A2F8AA00D081704700BF6C85FF1F024BA3F8AA00D881704700BF6C85FF1F10B4054C20616161A261E3610B
:40128000019B23625DF8044B704700BF6C85FF1F10B4002309E050F8231003F10804054A02EB840251600133DBB2072BF3D95DF8044B70476C85FF1F10B4002309E050F8E5
:4012C000231003F11004054A02EB840251600133DBB2072BF3D95DF8044B70476C85FF1F10B4002309E050F8231003F11804054A02EB840251600133DBB2072BF3D95DF835
:40130000044B70476C85FF1F10B4002309E050F8231003F12004054A02EB840251600133DBB2072BF3D95DF8044B70476C85FF1F034AD2F8A4300133C2F8A430704700BF76
:401340006C85FF1F0C4B1A8802F0300292B130B583B0044683699847084D009028464FF48071074A234609F021F9284600F064FD03B030BD704700BFB48AFF1FBC8AFF1FE8
:40138000F0E6000038B505460C46836998471A4B188040F2DC5398422CD0C0F5BB60043080B2154B588004EB8401490010F4004F02D003B25B4200E003B2B1FBF3F10E4BAE
:4013C000596000B2002801DD0A2201E04FF6F672094B1A81084C20882389184480B220806B699847606802F025F9228840F2DC539A42EFD138BD00BF2486FF1F10B5044C3A
:40140000A36801209847636A0120984710BD00BFA481FF1F10B50B4CA36800209847E3689847636940F2DC509847636A00209847A36A9847236B40F2DC5098470120FFF712
:40144000E5FE10BDA481FF1F10B5A0F5FA639BB24FF62F02934205D9B0F57A7F38BF4FF47A7001E04FF4FA60034C636998472046FFF768FF10BD00BFA481FF1F10B5A0F526
:40148000FA639BB24FF62F02934205D9B0F57A7F38BF4FF47A7001E04FF4FA60034C236B984704F11C00FFF74DFF10BDA481FF1F10B50C46FFF7C8FF2046FFF7DFFF10BD1F
:4014C00008B5024B9B69984708BD00BFA481FF1F08B5024B5B6B984708BD00BFA481FF1F10B50B4C636940F2DC509847236B40F2DC50984723699847E36A9847A36801200F
:401500009847636A012098470120FFF789FE10BDA481FF1F08B501460148FFF733FF08BDA481FF1F08B501460148FFF72BFF08BDC081FF1F000000002DE9F047FFF796FD6D
:40154000214C2060FFF798FD6060FFF79BFD8246FFF79EFD05465046A16807F00BFFE0602846216907F006FF60612846514607F001FF07F095FB12A3D3E9002307F00EFD53
:4015800007F0A4FEA06107F08BFB8046894604F0E5FD06460F464046494604F097FD02460B463046394604F03DFE07F08FFEA061C4F808A02561BDE8F08700BFAFF3008042
:4015C000986E1283C0CAD93F3086FF1FAFF3008010B594B01A4C206811A9032200F06EFA60680EA9032200F069FAE0680BA9032200F064FA606908A9032200F05FFAA06933
:4016000005A9032200F05AFA0E4B1B8803F040039BB293B10C4C0EAB00930BAB019308AB029305AB039320464FF48071074A11AB08F0BCFF204600F0FFFB14B010BD00BF5A
:401640003086FF1FB48AFF1FBC8AFF1FFCE60000034B00221A605A60DA605A619A6170473086FF1F704700BF10B582B000F0DCF9144BDC69041B204607F0F0FA0022124B1A
:4016800007F0F2FDD8B100F0CFF90E4BD86193F8203033B901220B4B83F820200B2001F0C9FF2046FFF748FF064C20686168E2686369A4690094FFF7DDFDFFF789FF02B095
:4016C00010BD00BF3086FF1F0000494000B583B0074A002313605360D360536193610093184619461A46FFF7C5FD03B05DF804FB3086FF1F000000002DE9F0470446436C1B
:4017000098478146002108F0FBF810B14FF0010A01E04FF0FF0AA36C9847054604F10808484607F0BDFA20A3D3E9002307F036FC06460F460022002307F078FD50B109F131
:40174000004007F0ADFA18A3D3E9002307F026FC06460F463046394607F0B8FD0146404600F044FB2846002108F0ACF810B105F1004100E02946404600F03AFB404600F007
:4017800035FA78B1E56C2669A4794FFA8AF007F0A7FE0146304607F0F7FE01462046FFF733F9A847BDE8F0874C2438F292602F3F2DE9F04387B00026164B1E70164D174B9E
:4017C0006B64174BC5F898300024DFF85890CDF800900194DFF85080CDF8088001270397049605F1080021462246234600F0D4FACDF800900194CDF808800397049605F1C1
:401800005C0021462246234600F0C6FA07B0BDE8F08300BF5486FF1FDC81FF1FA90D0000B50D00008988883D00409C4510B5FFF7D9F8094C01684268836804F1080000F028
:4018400075FAFFF7D5F801684268836804F15C0000F06CFA10BD00BFDC81FF1F0000000010B500F0E1F8224B5B68C01A07F0F6F91DA3D3E9002307F0EDFC002832D000F073
:40188000D3F81B4B58601B7A2BB90122184B1A72132001F0CFFE174C2046FFF72DFF04F15400FFF729FF144B1B8803F004039BB23BB1236D98470246204604F1080101F030
:4018C0008DF90D4B1B8803F008039BB253B1094CD4F8A4309847024604F1540004F15C0101F07CF910BD00BFABAAAAAAAAAA50405486FF1FDC81FF1FB48AFF1FAFF30080F1
:40190000024B5864C3F89810704700BFDC81FF1F034B044A5A64044AC3F89820704700BFDC81FF1FA90D0000B50D0000074B00229A60DA62DA60DA631A61DA65C3F8802090
:401940001A66C3F890205A66704700BFDC81FF1F38B508B9002400E00124064D05F10800214600F095F905F15C00214600F090F938BD00BFDC81FF1F38B505460C4613467A
:4019800002482946224600F0D1F938BDE481FF1F38B505460C46134602482946224600F0C5F938BD3882FF1F10B4054B5C69046098690860DB6913605DF8044B704700BFDE
:4019C000DC81FF1F10B4054B9C6E0460D86E08601B6F13605DF8044B704700BFDC81FF1F024A136801331360704700BF6086FF1F0022014B1A6070476086FF1F10B501F069
:401A0000F3FE01F0BFFE002409E0204601F002FF20B92046034901F0F5FE10BD0134042CF3D910BDE1190000014B1868704700BF6086FF1F30B5002406E0094D85FB00E57E
:401A4000C017C0EBA50001340028F6D103E030208854013201349C42F9DB104630BD00BF67666666F8B504464668304607F084FC074625683046294607F03AFE0146384612
:401A800007F078FC6060294607F032FEF8BD00BF82B00870000A487002B0704782B001909DF804300B709DF805304B709DF806308B709DF80730CB7002B070472DE9F84309
:401AC00006460D469046002107F0FCFE50B12D232B703046002107F0F5FE08B106F10046012400E00024304607F014FF074629190A2207F0AAFF08F0AFFD2044B8F1000F38
:401B000029DD2E232B54441C384607F0E9FC0146304607F02FFC8146404607F0AFF802460B4600200D4904F07FFB06460F46484607F0B6F832463B4607F006F907F09EFB7B
:401B40000646294622464346FFF774FF291830460A2207F07AFFBDE8F88300BF00002440F0B4049F013AD2B2540800251D703D7019E051F82460864203DA651CEDB21C70E2
:401B80000CE0864202D11C703C700EE0864205DD3C701A78A21A012A07D02246AC1804EBD474C4F347049542E3D9F0BC704700BF30B4BDF8084091420AD19C4201D198B22F
:401BC00011E0E41A04EBD47403EB640080B20AE0401A25B21CB22C1B04FB00F4521A94FBF2F2981880B200B230BC70472DE9F84390F83930002B48D004460768406B39469A
:401C000007F0B8FB8046E069414607F0BDFC616A07F0B2FB05466062E66A314607F052FE40B9D4F830902846494607F069FE10B14D4600E0354665623846616807F09AFB01
:401C40008146A069414607F09FFC0146284607F093FB0546206A494607F096FC0146284607F088FB0546A0603046294607F048FE30B9266B2846314607F042FE00B92E46F5
:401C8000A66067600120BDE8F8830020BDE8F883F8B504460D4690F839308B4214D0012912D18668466203684360C76A3046394607F008FE38B9276B3046394607F020FE89
:401CC00000B13E463746676284F83950F8BD00BFF8B504460D4616460846114607F006FE18BBE562266394F83930012B1DD1A7683846294607F0E6FD30B93046394607F04D
:401D0000E1FD10B1374600E02F46A760676A3846294607F0D7FD30B93046394607F0D2FD10B1374600E02F466762F8BD2DE9F04104460D4616461F460846002107F0C2FD23
:401D400038BB3046002107F0BDFD10BB3846002107F0B8FDE8B9E56026616761A561D4F828804046314607F00FFC0646E0613846414607F0BDFC206294F83830012B08D1A7
:401D800005F10045A56106F10046E66100F100402062BDE8F08100BFF8B504460F4616461D469DF8283080F838309DF8243080F8393000214162016041608160416306984B
:401DC00007F09EFD10B1069BA36202E04FF07E53A36220460799089AFFF77AFF2046394632462B46FFF7A2FFF8BD00BF4163704701607047704700BF08B50020012102F029
:401E0000D7FA02F01FFB20B102F016FB08B102F043FC02F011FB10B1014802F089FC08BD24E7000008B502F00DFB20B102F004FB08B102F031FC08BD10B50446FFF7F2FFAC
:401E400002F0FAFA30B102F0E1FC0028FBD0204602F06EFC10BD00BF08B502F0EDFA034630B102F0C7FC034610B102F0DBFC0346184608BD10B5044602F0DEFA30B102F02B
:401E8000C5FC0028FBD0204602F0A0FC10BD00BF704700BF08B501F08BFE08BD2DE9F04780460D46170912F00F021CD0C2F1100A1FFA8AFA02EB07121FFA82F90024264663
:401EC0000CE009EB060118F8040089B201F074FE0134A4B2013DADB20136B6B25645F0D30137BFB200E00024C5F30F19B9F1000F0ED110E008EB0400F9B201F0C7FE103473
:401F0000A4B2103DADB20137BFB20136B6B200E000264E45EED3ADB13F01BFB2A94600260DE0B91918F8040089B201F045FE0134A4B209F1FF391FFA89F90136B6B2B542A9
:401F4000EFD84D462DB104487A21044A044B07F007FDBDE8F08700BF54E7000040E7000068E7000030B583B00D4601A9FFF790FD002409E002AB2344291913F8040C89B2CD
:401F800001F01AFE0134E4B2012CF3D903B030BD30B583B00D4601A9FFF780FD002409E002AB2344291913F8040C89B201F004FE0134E4B2032CF3D903B030BD000000001A
:401FC00038B5434B1B68DA6C196D92FBF1F2002A05DADA6C5242186D92FBF0F003E0D86C1A6D90FBF2F03B4A1060D3F88821D3F8901192FBF1F2002A07DAD3F8882152425F
:40200000D3F8901192FBF1F105E0D3F88811D3F8902191FBF2F12F4A5160D3F8CC22D3F8D04292FBF4F2002A07DAD3F8CC526A42D3F8D05292FBF5F505E0D3F8CC52D3F8C1
:40204000D02295FBF2F5234A9560D3F80824D3F8104492FBF4F2002A07DAD3F808245242D3F8103492FBF3F305E0D3F80824D3F8103492FBF3F3174CE36002468842A8BF77
:402080000A462261AB42A8BF2B4663619A42A8BF1A461046A26107F023FA06F001FE08A3D3E9002306F050FE07A3D3E9002306F04BFE07F00BF9E06138BD00BFAFF3008017
:4020C0004C2438F292602F3F9A9999999999C93FBC8BFF1F6486FF1F0022024B83F82020704700BF6486FF1F08B510B1012807D00DE0114B93F8202003EB8203586A07E084
:402100000D4B93F8202003EB8203186C00E00020094A92F82030013382F8203006F0C0FD03A3D3E9002306F00FFE07F0CFF808BD4C2438F292602F3F6486FF1FAFF3008078
:4021400010B584B010B101281DD01FE00C461148FFF772FEA37913B1012B0AD016E001A802A903AAFFF720FC0B4801A9FEF7DEFA0CE001A802A903AAFFF724FC074801A9CA
:40218000FEF7D4FA02E00648FFF756FE002004B010BD00BF78E7000008E6000014E60000A0E7000038B504460C4D2968A1F5FF417839006889B2FFF7EBFE2968A1F5FF4123
:4021C0007439606889B2FFF7E3FE2968A1F5FF417039A06889B2FFF7DBFE38BDBC8BFF1F38B504460C4D2968A1F5FF416839006889B2FFF7CDFE2968A1F5FF416439606814
:4022000089B2FFF7C5FE2968A1F5FF416039A06889B2FFF7BDFE38BDBC8BFF1F30B595B004460D4600210846FEF7E8FB14B1012C24D02BE0AB7913B1012B09D010E001A8D7
:4022400002A903AAFFF7B0FB01A8FFF7ABFF07E001A802A903AAFFF7B5FB01A8FFF7C0FF0220FEF71FFAFFF753FB04A80B492A4608F0CEF904A8FFF7DFFD07E004A808492B
:402280002A4608F0C5F904A8FFF7D6FD054BB3F85C20054B1A80002015B030BDC4E70000E4E700006486FF1FB48AFF1F30B595B00446C079FFF718FF0546A37913B1012B65
:4022C00004D007E00021FEF799FB03E000202946FEF794FB284611A90322FFF7EFFB01A8074911AA08F094F901A8FFF7A5FD054B93F8200006288CBF0020012015B030BD75
:4023000004E800006486FF1F10B50C4610B101280AD01BE0FFF788FB104B1B6EC01AA368984215D2002010BDFFF77EFB0B4B1B6EC01AA36898420DD3FFF776FB074B1866BF
:402340002046FFF7B3FF38B9012010BD012010BD012010BD002010BD002010BD6486FF1F2DE9F0410C4610B1012844D059E02E48FFF762FDFEF712FB80462C48FFF75CFD8C
:40238000FEF70CFB07462A48FFF756FDFEF706FB06462848FFF750FD0120FFF7D9FAFEF77DFEFFF7C3FAFFF791F9FFF709FE0546A37913B1012B0AD012E0404639463246FA
:4023C000FFF7DAFA28460021FEF718FB08E0404639463246FFF7DCFA00202946FEF70EFB1548FFF729FD1348FFF726FDFFF71CFB124B186615E00120FFF7AAFAFEF74EFEF8
:40240000FFF794FAFFF762F90D48FFF715FD0948FFF712FDFFF708FB084B18662046FFF745FF0020BDE8F08110E800002CE8000044E8000004E5000060E800006486FF1F03
:4024400070E8000010B592B00C4610B1012827D054E002A82B49224608F0DAF802A8FFF7EBFC0220FEF708F900210846FEF7C6FA254B1868254B1968FFF742FA244B1A885F
:40248000244BA3F85C20A37913B1012B04D035E004221F4B1A8031E008221D4B1A802DE002A81D49224608F0B3F802A8FFF7C4FC184B174A1288A3F85C2003F14002009275
:4024C00007201649164A2433FEF7F4FA00210846FEF794FA0C4B18680C4B1968FFF710FAFFF7FAFDA37913B1012B04D006E00522074B1A8002E00A22054B1A80002012B07B
:4025000010BD00BF80E80000B08AFF1FB88AFF1FB48AFF1F6486FF1F98E80000CDCC4C3ECDCC4C3F054B064A136003F11C0205490A6005490B60054B1A6070478482FF1F89
:40254000C08BFF1FE48BFF1FEC8BFF1FC88BFF1FF0B40C4D4F007C186400460033189B002344EC5A184628448188002305E022F813400133DBB20C44A4B2322BF7D9F0BCBA
:40258000704700BFD482FF1F10B4002308E050F8232051F82340224441F823200133DBB2322BF4D95DF8044B704700BF10B4002307E050F8234094FBF1F442F82340013386
:4025C000DBB2322BF5D95DF8044B704770B46FF000430B604FF00043136000230DE09D0050F823401668B44200DD146044590D68AC4200DA0C600133DBB2322BEFD970BC2D
:40260000704700BF0F4B1B780B2B04D100220D4B1A700120704710B1012806D00BE0094A02EB830252680A6007E0074A02EB830292690A6001E000220A600133014A13703E
:4026400000207047C886FF1FD482FF1F10B51248FFF7F2FB114C2268114802F5CA7102F51872FEF731F822680E4802F1540102F59072FEF729F822680B4802F2144102F53C
:402680009C62FEF721F82268084802F5357102F56872FEF719F810BD04E50000BC8BFF1F60E5000070E50000C0E50000D0E5000008B510B1012806D008E00548FFF7BCFB52
:4026C000FFF7C4FF02E00348FFF7B6FB002008BDB0E80000D8E8000038B50446084606F0DFFA0BA3D3E9002306F02EFB06F0EEFD0546237D13B90021FEF780F9237D012B1D
:4027000003D100202946FEF779F938BDAFF300804C2438F292602F3F08B510B1012804D00AE00648FFF788FB06E00548FFF784FB00210846FEF762F9002008BD00E900005D
:4027400024E9000008B510B1012807D00FE00948FFF772FB0120FDF7A5FF08E00648FFF76BFB00210846FEF749F9FFF7D1F8002008BD00BF44E9000064E9000070B50646EC
:402780000368084698470025002412E0FEF720FC042C09D9336998470C4906F0F5FE0146284606F0E9FD05460A2000F043FF0134E4B2362CEAD9284607F0ACF8044B83FB6C
:4027C0000023C017C0EB231070BD00BF0000C8421F85EB512DE9F8430646894690461F46036840F2DC5098474FF4FA7000F022FFFEF754FC00240EE01FB1C4F13205EDB26C
:4028000000E02546304639F81510FFF7B7FF48F825000134E4B2322CEED9B3684FF47A709847336840F2DC509847BDE8F88300BF2DE9F04105460F469046104C6423A363FC
:4028400004F130060846314604F13402FFF7BEFE04F13C003946CC2207F0F9F804F584704146662207F0F3F8AAB230464FF4A07182F40042FFF712FBBDE8F081C886FF1FC4
:402880002DE9F0478146884600EB4003DB001F4F1F441F4C04F5B872FFF75AFEB8F1010F14BF4FF0000A4FF0010A04F5EC700021CC2207F0D7F8002410E0154D05F5297628
:4028C000384605F5B87132465346FFF783FF304605F5EC71FFF758FE0134E4B2022CECD90B4C04F5297504F5EC7003212A46FFF75DFE08EB4908074B53F82800294604F53E
:40290000B872FFF795FFBDE8F08700BF1883FF1FC886FF1FD08BFF1F2DE9F047A0B007460D4614469846084606F0BAF91AA3D3E9002306F009FA06F0C9FC8246214606F089
:4029400019FD814628461DA90322FFF7B7F81AAD204629460322FFF7B1F817AE504631460322FFF7ABF814AC484621460622FFF7A5F8009601950294CDF80C8004A808490C
:402980003A461DAB07F044FE04A8FFF755FA20B0BDE8F087AFF300804C2438F292602F3F80E90000AFF300802DE9F04104460E46056A2D4B93F87033E3B900210846FEF718
:4029C0001DF8A07F2949FFF71DFE30B12B6840F2DC5098470120BDE8F081234F2846D7F87413FFF779FEFFF71FF8C7F87803012387F870331C4B93F8700398B3FFF714F856
:402A0000194BD3F87833C01AB0422AD3164ED6F87483EB68984707466B6898470346204641463A46FFF778FFA07F06F55D71FFF7E9FD48B1002286F8702300210846FDF723
:402A4000DDFFFF20BDE8F081074C2846D4F87413FFF742FEFEF7E8FFC4F878030020BDE8F0810020BDE8F081C886FF1F3C8AFF1F38B5284B1C8810B1012829D044E040F2EF
:402A8000DC500146FEF714FD224D11232B802248FFF7D2F900200146FFF7F2FE1F48FFF7CBF900200121FFF7EBFE22232B801C48FFF7C2F901200021FFF7E2FE1948FFF721
:402AC000BBF901200146FFF7DBFE2C80012038BD154B93F87C3303EBC3039B00134818440968FFF761FFFF2810D10F4A92F87C330133DBB282F87C33042B09D100210846C6
:402B0000FDF77CFF012038BD002038BD002038BD002038BDB48AFF1FB4E90000D0E90000ECE9000008EA0000C886FF1F4883FF1F00B583B010B1012807D01AE00F48FFF713
:402B40007BF90120FDF798FD13E00D48FFF774F90C4B00930B200C490C4A0D4BFDF7AAFF0120FEF7F5FE0B4B18680B4B1968FEF7C7FE002003B05DF804FB00BF28EA00006F
:402B80004CEA0000EC82FF1FCDCC4C3ECDCC4C3FCC86FF1FB08AFF1FB88AFF1F0A4B1B6803F14801094A116003F5C471516003F53271916003F58163D360054B054A136080
:402BC000054A1360704700BFBC8BFF1FD08BFF1FD883FF1FC48BFF1FE88BFF1F2DE9F04F9BB007460C469046486B03F001FB10B1D4F834B001E04FF0000B206803F0F8FA88
:402C000010B1D4F800A001E04FF0000A606B216806F0B0FB03F0ECFA28B1606B216806F0A9FB814601E04FF00009606803F0E0FA08B1666800E00026606A03F0D9FA08B14D
:402C4000656A00E00025A06803F0D2FA08B1A46800E00024584617A90322FEF72FFF504614A90322FEF72AFF484611A90322FEF725FF30460EA90322FEF720FF28460BA9A6
:402C80000322FEF71BFF204608A90322FEF716FF104B1B8803F00C03C3B10F4C17AB009314AB019311AB02930EAB03930BAB049308AB0593CDF8188020464FF48071074AA3
:402CC0003B4607F073FC2046FFF7B6F81BB0BDE8F08F00BFB48AFF1FBC8AFF1F6CEA00000378F12B05D190F82230F82B03D000207047002070470120704700BF70B505462D
:402D00000C46232608460021324606F0ABFE244B585D02F0EFFF2348314602F02DFF02F0CFFEB04228D0F1232370F82384F822304FF07E53C4F802304FF08043C4F8063043
:402D4000194BC4F80A304FF08143C4F80E30174BC4F81230164BC4F81630164BC4F81A304FF08243C4F81E30022363700DB19D4214D10123637070BD02F0ECFE002506E03F
:402D800002F06CFE0C4B187060550135EDB202F097FE08B1222DF3D902F0BCFE70BD00BF8CEA0000F883FF1F000040400000A0400000C0400000E040488AFF1F704700BF66
:402DC00008B502F0A7FE02F0C5FE02F035FF08BD30B58BB00C460E4B185C01A9FFF78EFF01A8FFF77DFF88B10AAB53F8225D58689968DA6825606060A160E2601D695869CE
:402E00009969DA6925616061A161E2610BB030BD8CEA0000012805D108B50348FFF70CF8002008BD0020704790EA000000000000F0B59BB004460D4600210846FDF7DEFDA1
:402E4000012C4AD1FEF71EF90646FEF721F904463046214606F08EFA05F022FF22A3D3E9002306F09BF806F031FA0746304617A90322FEF723FE204614A90322FEF71EFE83
:402E8000384611A90622FEF719FE2B780BB9184A00E0184A01A8184907F0BAFB01A8FEF7CBFF01A8154917AA14AB07F0B1FB01A8FEF7C2FF01A8124911AA07F0A9FB01A8F1
:402EC000FEF7BAFF0F4B1A685B6801A80E49D21A07F09EFB01A8FEF7AFFF0A4B1A890B4B1A8000201BB0F0BD986E1283C0CAD93FB8EA0000C0EA0000CCEA0000F0EA000024
:402F000024EB00004C8AFF1F34EB0000B48AFF1F01283FD170B50C46FEF786FD1F4B5B68C01A636898422CD2FEF7ACF8002106F0C9FC20B1FEF7A6F800F1004502E0FEF75B
:402F4000A1F80546FEF7A4F8002106F0BBFC20B1FEF79EF800F1004602E0FEF799F80646A4682846214606F0ADFC20B13046214606F0A8FC80B9FEF757FD084B1860012091
:402F800070BDFEF751FD054B18600548FEF754FF012070BD01207047002070BD4C8AFF1F48EB0000012822D110B50C461148FEF743FF0120FEF7CCFCFEF770F8FEF7B6FC05
:402FC000FEF784FBE1682378012B01D101F100410846FDF713FD0848FEF72EFF0748FEF72BFFFEF721FD064B5860002010BD0020704700BF60EB000070E8000004E50000EB
:403000004C8AFF1F012821D100B591B00B780BB90F4A00E00F4A68460F4907F0F9FA6846FEF70AFF00210846FDF7E8FC0B4B18680B4B1968FEF764FC0A4B19880A4A1181F1
:403040004F221A80002011B05DF804FB00207047B8EA0000C0EA00007CEB0000B08AFF1FB88AFF1FB48AFF1F4C8AFF1F014A024B1A6070471C84FF1FE08BFF1F00B589B080
:4030800001206946FFF7A4FE6846FEF73DF909B05DF804FB00B589B003206946FFF798FE6846FEF709F909B05DF804FB08B5FFF7E5FFFFF7EFFF08BD00B589B000206946C7
:4030C000FFF786FE6846FEF70BF909B05DF804FB00B589B002206946FFF77AFE6846FEF7D7F809B05DF804FB08B5FFF7E5FFFFF7EFFF08BD08B5FFF761FE034B034A1A608F
:40310000034A5A6008BD00BF588AFF1FE9300000AD30000008B5FFF753FE08BD10B5FEF783FC05F09BFD0022074B06F093F848B1064C237A54F823309847237A013303F060
:403140000103237210BD00BF00004940588AFF1FFEE700BF08B5C0B200F06AFAFEE700BF08B5094B1A681044084BC31A802B02DC054B186005E006F013FC0C2303604FF0B3
:40318000FF32104608BD00BF4884FF1F088DFF1F08B5104E104D16E029686B68AC68002204E051F8040B43F8040B0432A242F8D1E868002203E0002143F8041B043282422C
:4031C000F9D11035013E002EE6D106F001FCFCF759FFFEE701000000E0F2000008B5124A124B1A60124A136843F40073136000230AE0032B03D80F4A52F8231000E00E499F
:403200000E4A42F8231001332F2BF2D90C4B1A780C4B1A70094A0C4B1A6000F0BDF800220A4B1A6008BD00BF0004FA050CED00E014ED00E000000000513100000080FF1F8B
:40324000BC7600400481FF1F08ED00E00081FF1FF0B40022174611E050F82760F3B226F0FF0608E001EB420511F812406D78A5550132013BDBB2002BF4D10137272FEBD98F
:40328000F0BC7047064B1B78DBB203F00701054A11701B09013213704422034B1A707047CF0100496E5800407658004008B50A46002106F0D7FB08BD38B50122284B1A809B
:4032C0001823284A1370172227490A8002310B7002310A80254A1370192502321580023213700622224B1A705222A3F580731A70204B1B78DBB2204A137000241F4B1C8006
:4033000040F6180203F21E231A8041F25122023B1A800CE01A4B1B7803F0010343EA440404F003044FF4F07000F072F9013D0DB1032CEFD1114A07231370002311490B70BC
:4033400048200231087013700532137002220E4B1A700E4A137843F00F03137038BD00BF8040004082400040844000408A400040004300400F010049A14600400440004000
:40338000254200400640004001400040A243004008B506F05CFB08BD38B572B63C4A137843F00403137000240CE03A4963001A1952000A4423445B00C8589188FFF776FF59
:4033C0000134E4B20A2CF0D9002410E03149A3001A1952000A4452F8440F23445B000B445168B3F84C20FFF7D3FF0134E4B2032CECD94FF090402849FFF72AFF274A13785F
:4034000043F0020313701032137843F002031370234C237843F040032370A2F58632513A137843F0100313701E481F490822FFF7AFFF1E481E490822FFF7AAFF1D481E490A
:403440000A22FFF7A5FF1D481D490A22FFF7A0FF1C481D490A22FFF79BFF84221B4B1A70442203F518631A70194A137843F008031370184D61232B70FFF71EFF81232B70F6
:40348000FFF700FF144821460E22FFF781FF38BDE846004098EB0000A000004803500140A043004002510040EC0F0048C2510040F40F0048F0510040FC0F00482051004030
:4034C000081000484051004014100048DB0201402243004000480040B0430040044A137803F0EF03000100F0100018431070704740510040704700BF014B1880704700BFBF
:4035000008680040014B1880704700BF88680040014B1880704700BF4868004008B50B4A137843F0010313700132137843F00103137044F62060FFF7DFFF44F62060FFF7FA
:40354000E1FF40F2DC50FFF7E3FF08BD9464004008B5044B1B7823B9FFF7E0FF0122014B1A7008BD648AFF1F014B188880B2704748680040044A137803F0DF03400100F07A
:40358000200018431070704740510040704700BF014B1880704700BF00680040014B1880704700BF80680040014B1880704700BF4068004008B50B4A137843F001031370F5
:4035C0000132137843F00103137044F62060FFF7DFFF44F62060FFF7E1FF40F2DC50FFF7E3FF08BD9064004008B5044B1B7823B9FFF7E0FF0122014B1A7008BD658AFF1FEB
:40360000014B188880B2704740680040000000000230800803D000BF01380046FCD17047EFF3108072B6704780F31088704700BF01BE704710B5044605E0084B1868FFF779
:40364000E7FFA4F50044B4F5004FF6D8034B586800FB04F0FFF7DCFF10BD00BF4C84FF1F08B5034B1B7A03FB00F0FFF7D1FF08BD4C84FF1F70B504460E46074B1D680F28A1
:4036800002D90020FFF7D4FF04F00F0455F8240045F8246070BD00BF08ED00E070B504460E46074B1D681F2802D90020FFF7C0FF04F01F04103455F8240045F8246070BD01
:4036C00008ED00E038B504460D46072902D90020FFF7AEFF1F2C02D90020FFF7A9FF04F01F0000F1604000F564406D01EDB2057038BD00BF024A136843F00203136070471D
:4037000010E000E008B5FFF7F5FF034A136843F00103136008BD00BF10E000E020F07F40014B1860704700BF14E000E0012805D1054A136843F0040313607047024A13687B
:4037400023F004031360704710E000E0024B1868C0F30040704700BF10E000E010B5FFF7F5FF01280BD107E0054B03EB84035B6803B19847013400E00024042CF4D910BD76
:40378000688AFF1F0022014B1A60704718E000E008B5002305E00F4A02EB8302002151600133042BF7D90F200B49FFF763FF0120FFF7BCFF094BDB680948A0FB0330800901
:4037C000FFF7ACFFFFF7DEFF4FF40042054B1A6008BD00BF688AFF1F5D3700004C84FF1FD34D621000E100E008B5054B9B6923B9FFF7CEFF0122024B9A61FFF783FF08BD45
:40380000688AFF1F024B03EB8003586859607047688AFF1F024B03EB80004068704700BF688AFF1F134B1B78DBB20360124A127843EA02230360114A127843EA024303605B
:403840000F4A127843EA026303600E4B1B78DBB243600D4A127843EA022343600B4A127843EA024343600A4A127843EA02634360704700BF0301004904010049EC460040F4
:40388000020100490101004900010049050100490601004938B50122124B1A7081220E3B1A70082202331A700F2511331D70002401331C704FF400420B4B1A60284607215E
:4038C000FFF700FF28460949FFF7E8FE084B1C70084B1C70084B1C70084B1C70084B1C8038BD00BFD649004080E100E0C9390000F28BFF1FFC8BFF1FF38BFF1FF88BFF1FF9
:40390000F08BFF1F08B5FFF78BFE084A137843F0040313701032137843F004031370FFF783FE4FF40042024B1A6008BDA543004000E100E008B5054B1B7823B9FFF7AAFF02
:403940000122024B1A70FFF7DDFF08BD848AFF1F4FF40041054B1960054A1078137803F01003DBB21370034B1960704780E100E0FC8BFF1F00E100E010B44FF400440B4BFF
:403980001C6032B113460A4A13600A4B18800A4B19800023094A1370094A13704FF40042084B1A605DF8044B704700BF80E100E0F48BFF1FFA8BFF1FF08BFF1FF38BFF1FBC
:4039C000F88BFF1F00E100E0654B1B78DBB2654A137013F0080F32D0634B1B7813F0010F1CD0624A1378DBB261490968CB5CDBB25D490B7014215A4B19701378DBB25D4A31
:403A0000137013780133DBB213705B4A137843F0110313700822594B1A708EE01022504B1A70554A137843F0120313700122534B1A70534A137843F0100313707DE013F08C
:403A4000010F7AD04D4A1278D2B2042A1ED0082A3AD0012A68D1444B1B78DBB2414A5370484A128892B293420CD210223C4B1A703C4B5B783D4A13703E4A137004223F4B09
:403A80001A705AE00022364B1A7056E0394B1A783D4B1B889BB29A4212D2334B1B7831494B7010222E4B1A70324A1378DBB2304800684978C15413780133DBB213703CE0E1
:403AC0000022274B1A7038E013F0020F1ED1294B1A782C4B1B889BB29A4210D2254A1378DBB223490968CB5CDBB21F490B7004211B4B197013780133DBB213701DE0FF2266
:403B0000194B1A700422013B1A7016E0FF22164B1A700022013B1A7017490B7803F0EF030B70164B1A7008E00023144A13700F4A1370104A13700A4A1370094B1B7813F02D
:403B4000200F0CD00C4A137803F0EF03137000220A4B1A700A4A137803F0EF0313707047D7490040858AFF1FD8490040F38BFF1FF48BFF1FF88BFF1FFC8BFF1FF28BFF1FEA
:403B8000D6490040FA8BFF1FF08BFF1F044A137803F0FB03800000F00400184310707047C051004008B502F001F902F009F908BD08B5FFF7F7FF08BD30B583B00C468DF88A
:403BC000070002F027F9B4F5006F54D22509C5EB053319010C44A4B202F0F2F900284CD1402021460DF10702012302F03FF9044607282FD1234B1B7813F0020FFAD0214B96
:403C00001B7813F0020F06D01E4B1B789B0805D04FF0FF3403E04FF0FF3400E00024E4B9194B402029461A785B7802F085F9072816D1144B1B7813F0020FFAD0114B1B784E
:403C400013F0020F0FD00F4B1B789B0810D04FF0FF340DE0012809D10AE04FF0FF3407E04FF0FF3404E04FF0FF3401E04FF0FF3402F0CCF902E0012400E00424204603B042
:403C800030BD00BF22470040D88CFF1F38B504460D4602F0BFF815F0800F48D102F090F9002846D140202146102202F01BF907282FD1214B1B7813F0020FFAD01E4B1B788C
:403CC00013F0020F06D01C4B1B789B0805D04FF0FF3403E04FF0FF3400E00024E4B9174B402029461A785B7802F026F9072816D1114B1B7813F0020FFAD00F4B1B7813F086
:403D0000020F0FD00C4B1B789B080DD04FF0FF340AE04FF0FF3407E04FF0FF3404E04FF0FF3401E04FF0FF3402F070F902E0012400E00424204638BD22470040D88CFF1F69
:403D400008B50222054B1A6001200549FFF7A6FC01200721FFF7B6FC08BD00BF80E100E03D3E000010B50224064B1C6000F0A0F8A0F5004000B2044B1B68044A14601844A9
:403D800010BD00BF80E100E0888AFF1F00E100E038B505460224054B1C604FF4004000F081F8034B1D60034B1C6038BD80E100E0888AFF1F00E100E0024B187800F00F0097
:403DC000704700BF6764004040F00700014B1870704700BF8764004008B50F20FFF7F4FFFFF7EAFFFFF71CFC054A137843F010031370FFF719FC0222024B1A6008BD00BFB7
:403E00009764004000E100E008B500F0A3F84FF4004000F047F80022064B1A60064B1B7823B9FFF78DFF0122034B1A70FFF7D4FF08BD00BF888AFF1F878AFF1F0D4B1B78CB
:403E4000DBB213F0010F06D00B490A6802F5FF427F320A6007E013F0020F04D006490A68A2F500420A6013F0040F02D00022024B1A60704767640040888AFF1F024A137846
:403E800043F080031370704776650040014B1870704700BF83640040014B1878704700BF63640040014B1880704700BF0C680040024B1B78024B188880B2704706640040BF
:403EC0008C680040014B188880B270478C680040014B1880704700BF4C680040014B1880704700BF6C68004008B501E0FFF7EAFFFFF7D2FF10F0400FF8D108BD08B5134B8D
:403F00001A7802F0F8021A701A7802F0FC021A70FFF7EAFF4FF40040FFF7DAFF4FF40040FFF7C0FF0020FFF7B1FFFFF7B5FF4FF40040FFF7D3FFFFF773FB054A137843F0D8
:403F400010031370FFF770FB08BD00BF766500409364004008B5054B1B7823B9FFF7CEFF0122024B1A70FFF789FF08BD8C8AFF1F08B50122054B1A6000200549FFF78EFB2D
:403F800000200721FFF79EFB08BD00BF80E100E06D40000010B50124064B1C6000F0A0F8A0F5004000B2044B1B68044A1460184410BD00BF80E100E0908AFF1F00E100E03C
:403FC00038B505460124054B1C604FF4004000F081F8034B1D60034B1C6038BD80E100E0908AFF1F00E100E0024B187800F00F00704700BF6564004040F00700014B187082
:40400000704700BF8564004008B50F20FFF7F4FFFFF7EAFFFFF704FB054A137843F010031370FFF701FB0122024B1A6008BD00BF9564004000E100E008B500F0A3F84FF4B0
:40404000004000F047F80022064B1A60064B1B7823B9FFF78DFF0122034B1A70FFF7D4FF08BD00BF908AFF1F8D8AFF1F0D4B1B78DBB213F0010F06D00B490A6802F5FF428E
:404080007F320A6007E013F0020F04D006490A68A2F500420A6013F0040F02D00022024B1A60704765640040908AFF1F024A137843F080031370704773640040014B187097
:4040C000704700BF8C640040014B1878704700BF6C640040014B1880704700BF14680040024B1B78024B188880B270470A64004094680040014B188880B2704794680040F1
:40410000014B1880704700BF54680040014B1880704700BF7468004008B501E0FFF7EAFFFFF7D2FF10F0400FF8D108BD08B5134B1A7802F0F8021A701A7802F0FC021A7063
:40414000FFF7EAFF4FF40040FFF7DAFF4FF40040FFF7C0FF0020FFF7B1FFFFF7B5FF4FF40040FFF7D3FFFFF75BFA054A137843F010031370FFF758FA08BD00BF736400404A
:404180009C64004008B5054B1B7823B9FFF7CEFF0122024B1A70FFF789FF08BD948AFF1FF8B5FFF73DFA0546404A137843F0010313701032137843F00103137001273C4BDD
:4041C0001F700226943B1E7002F5E2521B32137803F07F0313700020FFF742FA354C237803F0F9032370344A137803F0DF03137023783B4323703846FFF732FA2820FFF7D5
:404200002FFA2E4B1A7802F07F021A701A7802F0BF021A702378334323703046FFF720FA237843F0040323700023254A1370013213702846FFF7F8F917200721FFF742FA3B
:4042400017202049FFF72AFA18200721FFF73AFA18201D49FFF722FA15200721FFF732FA15201A49FFF71AFA05200721FFF72AFA05201749FFF712FA06200721FFF722FADB
:4042800006201449FFF70AFA07200146FFF71AFA07201149FFF702FA0C200721FFF712FA0C200E49FFF7FAF9F8BD00BFA54300409D6000409443004012600040F8510040A9
:4042C00084600040C14D0000914B0000BD4D0000054D00003D4D0000794D00005150000010B5002304E00124244AD4542344DBB2012BF8D9224B18700023224A1370224A78
:404300001370224A1370224A1370224A1370224A1370224A1370224B4FF400021A604FF080721A604FF400121A6020221A6040221A6080221A6011B1012906D00BE0194AE5
:40434000137803F0FE0313700AE0164A137843F00103137004E0134A137843F0010313700322114B1A708022203B1A700120FFF74FF904220D4B1A7010BD00BFB48CFF1F43
:40438000198CFF1F1C8CFF1F388CFF1F3B8CFF1F308CFF1F3A8CFF1F3D8CFF1F188CFF1F00E100E009600040286000401260004038B505460C46064B1B7823B9FFF7F0FE34
:4043C0000122034B1A7028462146FFF789FF38BD958AFF1F002304E001210E4AD1540B44DBB2012BF8D900230B4A13700B4A13700B4A13700B4A13700B4A13700B4A13708B
:404400000B4A137003220B4B1A708022203B1A70704700BFB48CFF1F1C8CFF1F388CFF1F3B8CFF1F308CFF1F3A8CFF1F3D8CFF1F188CFF1F28600040014B1878704700BF36
:404440003B8CFF1F064B1B7813F0FF0F05D0044B1878C0B200221A7070470020704700BF388CFF1F00EB40008000024B18444078704700BF408CFF1F431EDBB2072B0BD8F2
:40448000064B00011A18185C00F00F00537843EA0020023880B2704700207047FC5F0040431EDBB2072B3BD8F0B4074600EB40039B001C4C2344DB889BB2C3F500739A42E5
:4044C00007D900EB40039B002344DA88C2F5007292B200EB40039B00124C2344DB7843EA1223114D04012E192B55D3B2737039B909E0CE5C3D010D4C665501339BB200E050
:4045000000239342F5D3430003449B00054A134400225A705A79D2B20001054B1A54F0BC704700BF408CFF1FFC5F004078600040FE5F0040431EDBB2072B0BD84300034405
:404540009B00054A134400225A705A79D2B20001024B1A54704700BF408CFF1FFE5F004070B5D9B1054614460E46C8B1082819D8FFF782FFA04203D22846FFF77DFF044664
:40458000002305E02901094A525CF25401339BB2A342F7D32846FFF7CDFF04E0002402E0002400E00024204670BD00BF786000400246002001E0013080B2135C002BFAD195
:4045C000704700BF10B4FF2400220EE00A4B9B5C03EB43039B0009490B449B78DBB2834201D1144602220132D2B2012AEED920465DF8044B704700BF088CFF1F488CFF1F10
:4046000010B5204C2079FFF7DDFF237813F0800F0ED06378DBB2212B2FD11B4B07221A80C0EBC000194A1044586000F01FFB10BD144B5B78DBB2202B02D0222B10D01EE03E
:40464000114A07231380C0EBC00310490B4453600F4A135C43F00103135400F02FFB10BD084B9B780B4A22F81030094A135C43F00203135400F0BAF910BD002010BD002019
:4046800010BD00BF00600040248CFF1F5C84FF1F008CFF1F148CFF1F10B500241F4B1C701F4B1C705C700AE01E4B185DC0B2431EDBB2072B01D8FFF73DFF0134E4B2012C9C
:4046C000F2D9194B1B7813F0FF0F1AD0154B1B7813F0FF0F17D0154B1B7813F0FF0F14D0114B1B78DBB2082B11D80E4B1B78DBB2082B0ED80D4B1B78DBB2082B0BD8002052
:4047000010BD012010BD012010BD012010BD012010BD012010BD012010BD00BF968AFF1F008CFF1F0C8CFF1F048CFF1F088CFF1F2DE9F8438046224B1B78224AD65CF6B2FE
:40474000FFF736FF05460027344606EB46039B001D4A13441B899BB2AB4208D206EB46039B001344B3F808901FFA89F900E0A946304608EB07014A46FFF792FEC9EB0505B9
:40478000ADB245B906EB46039B000F4A13441B899BB2994510D14F44BFB204EB44039B00094A13445B7813F0FF0FF6D025B9304600210A46FFF774FE002DC5D1BDE8F8832E
:4047C000968AFF1F048CFF1F408CFF1F00B583B002A901F8010D054B1B78054AD05C0122FFF75EFE03B05DF804FB00BF968AFF1F048CFF1F08B5034B1B78034AD05CFFF7B7
:4048000031FE08BD968AFF1F0C8CFF1F08B5034B1B78034AD05CFFF725FE08BD968AFF1F048CFF1F00B583B0064B1B78064AD05C0DF107010122FFF793FE9DF8070003B068
:404840005DF804FB968AFF1F0C8CFF1FC37803F0030390F9020000280FDA032B06D002F001030B48C15442F001020EE0C2F380030848C15442F0040207E0032B05D0C2F327
:4048800040030548C15442F002021046704700BF048CFF1F088CFF1F0C8CFF1F1C4B19781C4A13880B449BB2138000230EE01A4A51680978C9B21948C154516801315160D7
:4048C0000133DBB21188013989B21180124A128892B20AB1072BEAD90D4A1278D2B2082A00D05BB10E490A7882F080020A700F210C4A117002210C4A117004E00222094959
:404900000A7009490A70094A1370014A13707047188CFF1F1A8CFF1F248CFF1F00600040AE8CFF1F398CFF1F1C8CFF1F3C8CFF1F0222074B1A708022064B1A700F22064BFC
:404940001A700023054A1370054A1370012070471C8CFF1FAE8CFF1F398CFF1F188CFF1F3C8CFF1F08B5FFF799FF08BD10B4184B197801F00F010239C9B2164A13880B449C
:404980009BB21380002010E0134B5C68134A125CD2B222705A6801325A600130C0B20139C9B21A88013A92B21A800B4B1B889BB20BB10029E8D10A4B19700A4A137883F02E
:4049C000800313700B22084B1A705DF8044B7047296000401A8CFF1F248CFF1F006000403C8CFF1FAE8CFF1F398CFF1F0623064A1370064A13708022054B1A700022054B73
:404A00001A700120704700BF1C8CFF1F398CFF1FAE8CFF1F3C8CFF1F064B9B6843B1054B9A6810709A6804490988518000229A60704700BF248CFF1F1A8CFF1F08B5134B64
:404A40001A78D2B21A701B78DBB213F0800F02D00F4A137008BD0220FFF7DEFF0D4B1B7803F06003202B05D0402B06D043B900F0D5FD06E001F0FAFA03E000F07DFF00E022
:404A8000002010B90322024B1A7008BD28600040398CFF1F0060004008B5084B1978084A13880B449BB213800022064B1A700120FFF7B2FF0322044B1A7008BD188CFF1FFA
:404AC0001A8CFF1F1C8CFF1F398CFF1F08B50B4B1B78DBB2042B06D0062B07D0022B0BD1FFF7DAFF08BDFFF741FF08BD0320FFF793FF0322024B1A7008BD00BF1C8CFF1F80
:404B0000398CFF1F08B50022044B1A700120FFF783FF0322024B1A7008BD00BF1C8CFF1F398CFF1F08B50B4B1B7813F0FF0F07D0084A137843F0800307490B700023137086
:404B40000022064B1A700120FFF766FF0322044B1A7008BD3A8CFF1F086000401C8CFF1F398CFF1F08B5094B1B78DBB2042B06D0062B07D0022B07D1FFF7F4FE08BDFFF7DE
:404B8000C1FF08BDFFF7CEFF08BD00BF1C8CFF1F08B5284B1B78DBB213F0100F48D013F0800F0CD003F00F03012B16D1FFF746FF214B1B7813F0800F11D1012312E013F08C
:404BC000400F03D0FFF7CEFF01230BE013F0200F07D0FFF77BFF012304E0002302E0002300E0002323B3134B1B7813F0800F1FD1124B1B78124A12781343124A1370127837
:404C0000D2B29A4214D10C4B1B78DBB2094A127812F0800F07D1084B1B78DBB2054A1370137803F00F03044A1278D2B29342EAD108BD00BF28600040398CFF1FAE8CFF1F2A
:404C40003C8CFF1F296000400022064B1A80064B9B682BB1044A916800230B7092685380704700BF1A8CFF1F248CFF1F08B50F4B1B889BB213B9FFF75BFE15E002220C4BFC
:404C80001A7000220B4B1A70FFF7DEFF0A4AD179937943EA0123054A128892B29A4201D9024A1380FFF7FAFD012008BD248CFF1F1C8CFF1FAE8CFF1F0060004008B5042296
:404CC0000B4B1A7080220B4B1A70FFF7BDFF0A4AD179937943EA0123084A128892B29A4201D9064A13800B22054B1A70012008BD1C8CFF1FAE8CFF1F00600040248CFF1F63
:404D0000398CFF1F0A4A137803F0FE031370094B9B7C094B1B7B03F00303012B04D0064AD37B83F08003D3730122034B5A7370470B600040FC5F0040408CFF1F0B4A13780D
:404D400003F0FD0313700A4B93F82230094B1B7E03F00303012B04D0064AD37E83F08003D3760122034B5A76704700BF0B600040FC5F0040408CFF1F0D4A137803F0FB030B
:404D800013700C4B93F832300B4B93F8243003F00303012B06D0084A92F8273083F0800382F827300122044B83F82520704700BF0B600040FC5F0040408CFF1F704700BFB4
:404DC00008B5FFF707FB08BD08B50B4B18780138C0B200F0C9F9094B1B79DBB200EBC30042690749CB5C02EBC3035B68596A0B78044A1380516008BD3B8CFF1F006000405C
:404E0000AC8CFF1F248CFF1F08B50D4B18780138C0B200F0A9F90B4B1B79DBB200EBC30042690949CB5C02EBC3035B68DB69597813F8022B42EA012204490A804B6008BDCA
:404E40003B8CFF1F00600040AC8CFF1F248CFF1F10B50022194B1A80194B18780138C0B200F082F91749CB78DAB20B79DBB200EBC3004169012B20D81348C35C01EBC301B4
:404E80004968531EDBB2022B17D802F10053013B01EBC3000B4A9278D2B211F8333093420BD3406802EB4202920081184C68034B5C60825A1A808A689A6010BD248CFF1F35
:404EC0003B8CFF1F00600040AC8CFF1F08B55B4B1A79D2B21B7813F0800F4DD0574B5B78013B052B00F28D80DFE803F0212B3B8B8B03524BDB78DBB2212B09D1FFF764FFE5
:404F00004F4B1B889BB2002B7DD0FFF7AFFE08BD4A4BDB78DBB2222B77D1FFF775FF484B1B889BB2002B72D0FFF7A0FE08BDFFF78FFF434B1B889BB2002B6AD0FFF796FE59
:404F400008BD012A67D83D4B9B7813F0FF0F64D13B4901230B803B4B1A444A60FFF786FE08BD012A5BD8364901230B80364B1A444A60FFF77BFE08BD304B5B78DBB20A2BC8
:404F80000DD00B2B2ED0092B4BD1FFF761FF2C4B1B889BB2002B46D0FFF790FE08BD012A43D8264B9B7813F0FF0F40D1234BDB78DBB224498B548B5C2449895CDBB28B4230
:404FC00003D20021214B995409E0204B9B5CDBB2012B04D91B4B9B5CDBB21C498B54FFF705FD08BD012A24D8144B9B78DBB2012B21D8124B9B78DBB213498B54FFF7F6FC2B
:4050000008BD002008BD002008BD002008BD002008BD002008BD002008BD002008BD002008BD002008BD002008BD002008BD002008BD002008BD002008BD00BF00600040C6
:40504000248CFF1FBC8CFF1FB48CFF1FB88CFF1F08B500F0AFFC08BD70B588B0054603AC174E0FCE0FC43368237035B322232B7003236B7001A8FEF7D5FB002402231AE00B
:4050800008AA224412F81C2C08A901EB121111F8141CE954581C00212954981C02F00F0208AE324412F8142C2A54DA1CA9540134E4B20433DBB2212BE2D908B070BD00BF66
:4050C00004EC000010B401223DE0114613010C242148C45402EB42039B00204803445B7913F0FF0F12D002EB42039B0003441B7913F0800F04D01001194B03449C700AE09D
:405100001001174B03440820987004E01001144B0344802098704B000B449B000F480344DC88E4B208010C4901448C71D888C0F30720C871D888C0B20871DB88C3F30723D4
:405140004B710132D2B2082ABFD9FF22054B1A705DF8044B704700BF70600040408CFF1FFC5F00400A600040074B1B78074A02EBC30253681A7C824203D903EBC003586953
:4051800070470020704700BF198CFF1F54EC0000F8B5404B1B7813F0FF0F79D03D4B18780138C0B2FFF7E0FF047AC2683A4B1878C0B200236AE01178814264D13749095CE0
:4051C000C9B25578A9425ED1917801F07F01D67806F00306DFF8C8E04D000D44AD000EEB05074FF0000C87F803C092F802C087F804C092F803C00EF805C095883D8192F91D
:405200000250002D0DDA012E01D1072700E00D274D000D44AD00224E35446F7101266E700CE0012E01D1052700E009274D000D44AD001B4E35446F7100266E70DFF868E053
:405240000F010EEB07060125B57001FA05F529448900134D29440D89C5F307250EF807500D89EDB27570CE88F6B20E4D3D44AE71CE88C6F30726EE71CE88F6B22E71C988A2
:40528000C1F30721697108320133DBB2A34292D3F8BD00BF3B8CFF1F308CFF1FAC8CFF1F408CFF1F70600040FC5F0040034B1A78034B03EBC2035868704700BF198CFF1FFB
:4052C00054EC000008B5074B18780138C0B2FFF74BFF28B14268127900EBC203586908BD002008BD3B8CFF1F2DE9F84300220EE06D4E53009D18AD00741900217155A17080
:40530000E1702181A172617061710132D2B2082AEED940B90AE000226449CA546449CA540133DBB200E00023012BF4D9614B1B7813F0FF0F00F0B5805E4B18780138C0B263
:40534000FFF712FF80464368DB7913F0400F05D0594A137843F00103137004E0564A137803F0FE03137098F808704FF0000901266CE0D8F80C50002464E0AB7803F07F03DD
:405380009E425CD1314606EB46039B00464803441B899BB2A888834205D206EB46039B00414A134418812B784048C35CDBB26878834244D195F802C03B484B000B449B001A
:4053C00000EB030E8EF804C095F803E000F803E0EB7803F0030395F90200002811DA012B02D14FF0070C01E04FF00D0CDFF8B8E04B0058188000704480F805C00123437021
:4054000012E0012B02D14FF0050C01E04FF0090C25484FEA410E0EEB01039B00034483F805C0194600234B70AB790A2B01D0022B05D1284631464A46FFF708FA8146083507
:405440000134E4B2BC4298D30136F6B2082E90D9D8F80C0000220CE0837803F07F0310F8084B03EB43039B0014490B449C700132D2B2BA42F0D3FFF725FF114B18600020BA
:4054800001220AE0084C5300991889002144C8800B89184480B20132D2B2082AF2D9FFF711FEBDE8F88300BF408CFF1FAC8CFF1F208CFF1F3B8CFF1F3D8CFF1F488CFF1FCF
:4054C000348CFF1F08B5154B1A7902F07F02531EDBB2072B20D8530013449B0010490B44997841F0010199700021D970597841F0020159701B7913F0800F05D01201094BAF
:4055000013448D229A7004E01201064B134489229A70FFF76BFA08BD002008BD00600040408CFF1FFC5F0040264B1B7903F07F035A1ED2B2072A43D810B55A001A4492000C
:4055400021490A44917801F0FE0191700021D17019017F241D484454517801F0FD015170127912F0800F14D003EB4302920016490A445278D2B2012A05D11B0102461A4461
:405580000C23937019E01B01104A1A440D23937013E003EB430292000B490A445278D2B2012A05D11B01094A1A440823937004E01B01064A1A4409239370FFF717FA10BD64
:4055C0000020704700600040408CFF1FFC5F004010B50E4B1C79E4B20D4B18780138C0B2FFF7C2FD43681B799C4201D9022C0AD8084A135DDBB208490B55044B9B78DBB228
:405600001355012010BD002010BD00BF006000403B8CFF1FAC8CFF1F208CFF1F10B5964B1B78DBB20021954A118013F0800F00F0B380914A5278D2B20A2A00F27981DFE8A7
:4056400012F06F00770177017701770177010B00770198007701A000874BDB78DBB2012B09D1FFF723FE4268844B5A6012221A80FFF7FCFA10BD804BDB78DBB2022B13D1E9
:405680007D4B9878FFF770FD002800F0538142687A4B5A605A68D1785A68927842EA01221A80FFF7E3FA10BD734BDB78DBB2032B05D032E00A7811440133DBB201E00023EB
:4056C0006F496D4A9278D2B29A4203D90A7812F0FF0FEFD1684B9B78DBB2EE2B00D16949654B9B7813F0FF0F0BD0634B9B78DBB2654A127C934204D1644C2046FFF7ACFC1C
:4057000021460B7813F0FF0F00F016810B785B4A13805160FFF7AAFA10BD00F0A7FC10BD13F0030317D0022B40F0088153490B80514B1B7903F07F0303EB43039B00544AA5
:4057400013449A78D2B2534B1A7000225A704B60FFF78CFA10BD494902230B804E4B1A78D2B24C4B1A7000225A704B60FFF77EFA10BD424B01221A80484A5A60FFF776FA54
:4057800010BD3E4A012313803B4B1B7944490B445360FFF76BFA10BD374A5278013A0A2A00F2CE80DFE812F04B00CC009700CC000B00CC00CC00CC001300CC0030002E4BD8
:4057C0009B78DBB2374A1370FFF710F910BD2A4B9B7803F0FF041BB1601EC0B2FFF7C4FC04B110B9002C40F0AD802C4B1B78DBB29C4206D0294B1C7001202B4B1870FFF7E2
:4058000073FDFFF7F3F810BDFFF7E2FE002800F09B80194A1379DBB21279D2B223490A70234AD25C1E49C95CD3B28B4204D001221D4B1A70FFF7ACFCFFF7D8F810BD03F04A
:405840000303012B36D04BB1022B7FD10A4B9B7813F0FF0F7CD1FFF767FE10BD064B9B78DBB2012B76D10C4A137803F0FD031370FFF7BCF810BD00BF00600040248CFF1F2A
:40588000F4EC000040EC0000D8ED0000DC8CFF1F408CFF1F988AFF1F3D8CFF1F3B8CFF1FAC8CFF1F3A8CFF1F388CFF1F308CFF1F208CFF1F2D4B1B79DBB2012B4CD82B4B7C
:4058C00098781B79DBB22A49CA5C22EA0002CA54FFF78CF810BD03F00303012B17D04BB1022B3BD1214B9B7813F0FF0F38D1FFF7E9FD10BD1D4B9B78DBB2012B32D11D4A4A
:40590000137843F002031370FFF770F810BD174B1B79DBB2012B27D8144B98781B79DBB21349CA5C22EA0002CA54FFF75FF810BD002010BD002010BD002010BD002010BD3C
:40594000002010BD002010BD002010BD002010BD002010BD002010BD002010BD002010BD002010BD002010BD002010BD00600040B08CFF1F3D8CFF1F08B50B4B1B7813F06E
:40598000800F0CD0084B5B78DBB2012B09D1074B074A5A6012781A80FFF768F908BD002008BD002008BD00BF00600040248CFF1F18EC0000024B1878C0F38010704700BF95
:4059C0008F4500400422014B1A60704700E100E008B5FDF725FE0A4A137843F020031370033A137843F010031370A2F58072137843F010031370FDF717FEFFF7E3FF08BD8F
:405A0000976500400422014B1A60704780E100E0014B1878704700BF6465004010B5FFF7F1FF064B1B78064A147804F040041C4300231370FFF7C6FF204610BD646400404D
:405A4000D68CFF1F034B1B7813F0040FFAD0024B18707047646500404765004010B5FFF7D1FF134B1B78134A1278DBB2934214D0114B1B7813F0FF0F0CD10D4A13780133C8
:405A8000DBB213701378DBB20F2B06D90022084B1A7002E00022084B1A70054B1B78DBB2064AD45CE4B2FFF78DFF204610BD00BFD58CFF1FD48CFF1FC08CFF1FC48CFF1FF6
:405AC00010B5FFF79FFF114B1B78114A1278DBB2934215D00D4B1B780D4A1278DBB2934206D20B4B1B78094A14781C1BE4B208E0074B1B78054A14781C1B1034E4B200E0FE
:405B00000024FFF75FFF204610BD00BFD58CFF1FD48CFF1F08B501E0094B1B78094B1B7813F0200FF8D1FFF76DFF0023064A1370064A1370064A1370FFF744FF08BD00BFDC
:405B40005765004064640040C08CFF1FD58CFF1FD48CFF1F08B5FDF763FD064B1A7842F001021A701A7802F0FE021A70FDF75CFD08BD00BF9765004070B506460C46002504
:405B800006E0705DFFF75EFF0135EDB2013CE4B2002CF6D170BD00BF08B501E00A4B1B780A4B1B7813F0200FF8D1FDF739FD084B1A7842F001021A701A7802F0FE021A7013
:405BC000FDF732FD08BD00BF57650040646400409765004010B50F22104B1A700422104B1A6002200721FDF76DFD02200D49FDF755FDFFF7D1FF00240B4B1C700B4B1C70D4
:405C00000B4B1C70FFF704FFFFF708FF094B1C702022A3F580731A7010BD00BF8765004080E100E0555C0000C08CFF1FD58CFF1FD48CFF1F8465004008B5054B1B7823B99F
:405C4000FFF7C8FF0122024B1A70FFF7C1FE08BD9C8AFF1F204B1A7820490B7803F0400313430B7031E01E4B1A78D2B21D490B780133DBB20B700B78DBB20F2B02D90021C4
:405C8000184B1970174B1B7817490978DBB28B420ED115490B780133DBB20B700B78DBB20F2B02D90021104B197001210F4B19700C4B1B78DBB20E49CA54074B1A7807497D
:405CC0000B7803F0400313430B70044B1B7813F0200FC8D1704700BF64640040D68CFF1F57650040D48CFF1FD58CFF1FC08CFF1FC48CFF1F014B1870704700BF726400403E
:405D000010B500F087F800F05BF9D0B900F09AF90446072812D102E00120FDF7A1FC0A4B1B7813F0020FF7D0074B1B7813F0020F04D0054B1B789B0800D1002400F066F995
:405D400000E00424204610BD2247004010B500F061F800F035F910BB012000F013F9072818D11048022100F067F802280AD102E00120FDF775FC0C4B1B7813F0020FF7D017
:405D8000002409E0084B1B7813F0020FE9D04FF0FF3401E04FF0FF3400F038F900E00424204610BDD88CFF1F2247004008B5FFF7A7FF034610B9FFF7C9FF0346184608BD42
:405DC00008B5FDF72DFC0F4A137843F0080313701032137843F008031370C8220A4B1A700A4A137843F0100313701032137843F010031370064B1B7813F0200FFAD0FDF7BB
:405E000013FC08BDA043004001470040AC4300400047004008B5FDF703FC064A137843F0080313701032137843F008031370FDF7FBFB08BDA043004070B506460D46002499
:405E40000CE00120FDF70CFC064B1B7813F0010FF7D0054B1B7833550134E4B2AC42F3D3204670BD224700402047004030B43E2801D81F2B03D93F2827D90F2B27D8174C42
:405E8000247814F0020F24D0154CB6252570D4252570012525700234247814F0020F1AD10F4C2070C1F300202070C9B22170591EC9B22170002104E0545C094804700131C7
:405EC000C9B29942F8D3072006E0012004E0012002E0042000E0092030BC70472247004020470040124B1B7813F0020F19D010B4104BB6241C70D5241C7002241C7002336E
:405F00001B7813F0020F0ED10A4B1870002304E0CC5C0848047001339BB29342F8D3072002E00420704709205DF8044B704700BF224700402047004030B4104C247814F093
:405F4000020F15D00E4CB6252570D8252570052525700234247814F0020F0BD1084C2070080A2070C9B2217022702370072002E0042000E0092030BC704700BF2247004055
:405F8000204700400C4B1B7813F0020F0FD00B4BB6221A70E1221A700E221A7002331B7813F0020F05D1054B187007207047042070470920704700BF22470040204700402C
:405FC00010B5FDF72DFB0F4B1B78A3B901220D4B1A700D4B1B6813F0010F0ED00A4A136823F00103136000BF00BF00BF0122054B5A60002402E0042400E00024FDF714FBAE
:40600000204610BDA08AFF1F0400084008B5FDF707FB0A4B00221A705B68012B0AD1084A136843F00103136000BF00BF00BF0022024B5A60FDF7F8FA08BD00BFA08AFF1F8C
:4060400004000840074B1B7813F0020F08D0064BB6221A70E0221A700D221A700720704704207047224700402047004008B5144B1B7803F00303012B02D0022B04D00FE06C
:406080000F4B1B79DBB20CE00D4B1B7903F07F0303EB43039B000B4A13449B78DBB200E00023094A1268D35C022B04D0032B05D1FEF70CFF08BDFEF7A3FA08BD002008BDF8
:4060C00000600040488CFF1F348CFF1F30B5214A21F00043934287B01BDD1F4A934205DD02460B4602F07CFC07B030BD02AA01F03FF800F0030001281AD002280FD008B323
:40610000DDE9020101230093DDE9042302F034F8EAE70022002301F007FB07B030BDDDE90201DDE9042301F0FFFA01F10041DBE70090DDE90423DDE9020102F01DF801F153
:406140000041D1E7DDE90201DDE9042301F0ECFACAE700BFFB21E93FFFFFEF7F30B5224A21F00043934287B01BDD204A934205DD02460B4602F034FC07B030BD02AA00F0B4
:40618000F7FF00F0030001281ED0022811D010B3DDE90201DDE9042301F0C6FA01F10041EAE7002300930022002301F0E5FF07B030BD01230093DDE90201DDE9042301F0D4
:4061C000DBFF01F10041D7E7DDE90201DDE9042301F0AAFAD0E70124DDE90201DDE90423009401F0C9FFC7E7FB21E93FFFFFEF7F30F0004001D102207047A0F50003B3F105
:40620000FE4F01D204207047054B421E9A4201D803207047A0F1FF40B0FA80F040097047FEFF7F0000F078B92DE9F04F8BB01F4680468946164600F04BFADFF8D8A20446E7
:406240009AF900300D46013304D03046394602F07FFA20B9204629460BB0BDE8F08F4046494602F075FA834660BB304639460022002302F0D1FF0028ECD09AF900309E4C2C
:4062800001229E4900208DE814005A1CCDF820B0CDE90289CDE90467CDE906010DD0022B0BD0684602F080FA002800F09380089B1BB103F075FB089B0360DDE906010BB077
:4062C000BDE8F08F404649460022002302F0A4FFF8B1304639460022002302F09DFF834600284ED084489AF900300121002200240025CDE90289CDE90467CDE906450190FB
:4063000000910892002BCCD07C4B0022CDE90623D3E72046294602F087F9834600285ED0204629460022002302F076FF002891D04046494602F078F900288BD03046394689
:4063400002F072F9002885D09AF900306A480421002200240025022BCDE90289CDE90467CDE9064501900091089200F08880684602F01AFA002800F08280089B002B9CD0F2
:4063800097E73046394602F04FF900283FF462AF304639460022002302F048FF00283FF459AF55499AF800300122CDF820B0CDE90289CDE9046701910092002B3CD0504980
:4063C0000020022BCDE9060130D103F0E9FA21230360D2E703F0E4FA2123036067E74046494602F021F900289AD03046394602F01BF9002894D02046294602F0A9F900BB38
:406400003D4A9AF8004001230890CDE90289CDE90467019200937CB10020002102460B4602F0BCFD022CCDE90601CED0684602F0BBF90028A1D1C8E700220023CDE90623C3
:40644000F4E72D499AF900300322CDF820B0CDE90289CDE9046701910092ABB9294D4FF060444046494600220023CDE9064502F0DDFE50BB9AF90030022B7FF478AF03F05B
:406480008FFA2223036078E71F4D00244046494600220023CDE9064502F0C8FE0028E9D000221A4B3046394602F04EFC04460D4602F082F922462B4602F0AEFE0028D9D1BD
:4064C0000F4B0022CDE90623D4E700220F4B3046394602F039FC04460D4602F06DF922462B4602F099FE0028C4D1094B4FF06042CDE90623BEE700BFECED00000000F03F5A
:406500000000F0FFFFFFEF470000F07F0000E03FFFFFEFC77884FF1F2DE9F84F5442144323F00049DFF878C149EAD474644517469E4606460D4641D84442044321F0004BE0
:406540004BEAD47464458A4638D803F1404404F58014144349D09C1704F0020444EAD1745BEA000132D059EA070138D04C49894548D04B498B4532D0C9EB0B094FEA295981
:40658000B9F13C0F3ADCBEF1000F64DB3046294602F004FD02F044F801F0A6FE012C57D0022C48D084B138A3D3E9002302F018FA37A3D3E9002302F013FA05E01046194659
:4065C00032462B4602F00EFABDE8F88F032CCAD8DFE804F01212020F32483349F4E7BAF1000F304825DB3149EEE7BDE8F84F01F07BBE2C482E49E7E72946E5E726A1D1E9EE
:406600000001CBE7CB452CD0032CB2D801A151F824F000BF256600002B660000D9650000F365000000200146CEE700204FF00041CAE72049C8E714A3D3E9002302F0D0F99C
:4066400002460B4612A1D1E9000102F0C9F9BBE701F10041B8E719F13C0F97DA002000219CE7032CBBD8DFE804F0020B08050D481149A9E711481249A6E710481149A3E70E
:4066800008481149A0E700BF075C143326A6A13C182D4454FB210940182D4454FB21F93F0000F07F182D4454FB210940FB21F93FFB2109C0FB21F9BFFB21E93FD221337F7D
:4066C0007CD902C07CD90240FB21E9BFAFF300802DE9F04F144623F00047024657EA04000E468FB01D469C46214634D06E4B26F0004A9A459346B14626DC24D09F4223DC8F
:40670000694B9F4200F08F80B9F1000FC0F28F804FF0000879BB644B9F4200F0A580634B9F4267D0BCF1804F00F0E283604B9C4521D1B9F1000F1EDB104631460FB0BDE833
:40674000F04F00F029BF62B10AF1404000F5801050EA0B0007D10346544918460FB0BDE8F08F5745CCDD53480FB0BDE8F04F02F01DB84FF0000810463146CDF808C000922E
:4067800001F04EFF009ADDF808C0BBF1000F20D04FEAD97909F1FF3958EA09037AD0464B9F4240F38F8003F104739F4240F31084424B9A4540F39283BCF1000F40F39283E5
:4067C00037A1D1E900010B46024602F0BDFA0346C3E7BAF1000F04D0344B29F0404E9E45D6D1BCF1000FC0F2B683B9F1000F08DB0346B2E7BCF1000FC0F25284134631465A
:40680000ABE70AF1404A0AF5801A58EA0A0340F05E8402460B4602F0E3F80B46024602F0BDFB034699E700293FF46EAF8CE7244B9F422CDCA3F154739F427FF769AF40F295
:4068400013403B15834240F34B84C3F58663033321FA03F000FA03F38B427FF459AF00F00100C0F1020855E70AF1404303F5801353EA0B0300F03983104B9A4540F3648355
:40688000BCF1000FC0F22E832346294665E74FF002083FE7104631463346BCE7AFF300809C7500883CE4377E0000F07F0000F03F0000E03F04DB00000000E041FFFFEF3FC4
:4068C000FFFF3F43BAF5801F4FF0000205DACA4B02F03AFA8A466FF034024FEA2A53C74ECAF3130AA3F2FF334AF07F571344B2450C9347F4401740F3D083C14B9A4540F36B
:4069000007840026B4460C9BA7F5801701330C933946BC4B4FEACC0C6344D3E900AB52465B46CDF834C0CDE9060102F059F852465B46CDE90801DDE9060102F053F802461E
:406940000B460020B04902F029FB02460B46DDE90801CDE90A2302F0F7F902460B46CDE90223CDE904237B1043F0005303F5002399190020002306460F460293DDE90223D7
:406980001046194632463B46CDE9000102F0DCF902460B46DDE9080102F022F85246CDE908015B463046394602F01AF802460B46DDE9060102F014F802460B46DDE9000182
:4069C00002F0C2F902460B46DDE9080102F008F8DDE90A2302F0B8F9DDE90423CDE906011046194602F0B0F902460B4606460F4602F0AAF96EA3D3E9002382468B46304632
:406A0000394602F0A1F96CA3D3E9002301F0EAFF32463B4602F098F969A3D3E9002301F0E1FF32463B4602F08FF967A3D3E9002301F0D8FF32463B4602F086F964A3D3E9FA
:406A4000002301F0CFFF32463B4602F07DF962A3D3E9002301F0C6FF02460B465046594602F072F9DDE9042306460F46DDE9000101F0B8FFDDE9062302F066F932463B46D8
:406A800001F0B0FFDDE9006782468B4632463B463046394602F058F900225C4BCDE9080101F0A0FF52465B4601F09CFF02980F460646DDE9000132463B4602F045F93246BF
:406AC0003B46CDE90001DDE9060102F03DF90022CDE906014D4B3046394601F081FFDDE9082301F07DFF02460B465046594601F077FFDDE9042302F027F902460B46DDE99B
:406B0000060101F06FFF82468B46DDE9000152465B4601F067FF32A3D3E9002302980F46064602F011F930A3D3E90023CDE904013046394602F008F9DDE90023CDE9060119
:406B40003046394601F04CFF02460B465046594601F046FF26A3D3E9002302F0F5F802460B46DDE9060101F03DFFDDF834C0284BCDF818C06344D3E9002301F033FFCDE98E
:406B800000010C9802F07AF806460F46DDE90401204BDDF818C09C44DDE90023DCE900AB01F020FF52465B4636E000BFAFF30080EF4E454A287ECA3F65DBC9934A86CD3FDC
:406BC00001411DA96074D13F4D268F515555D53FFFAB6FDBB66DDB3F033333333333E33F000000E009C7EE3FF5015B14E02F3EBEFD033ADC09C7EE3F000040438E98030037
:406C000079B60B0010EE00000000F03F0000084000EE0000F0ED0000CDE906AB01F0E2FE32463B4601F0DEFE029832463B4682468B4601F0D5FEDDE9062301F0D1FEDDE977
:406C4000042301F0CDFE02460B46DDE9000101F0C7FECDE9020108F1FF3858EA09030CBFD54BD64B0022CDE904230023CDE900450093DDE90067204632463B46294601F03C
:406C8000AFFE52465B4602F05FF8DDE90223804689462046294602F057F802460B464046494601F09FFE04460D465246304639465B46CDE9024502F047F806460F462046D3
:406CC0003B462946324601F08DFEBD4B824699428946884640F3138101F13F4303F5E003034340F0E581A0A3D3E90023DDE9020101F078FE324604460D463B465046494669
:406D000001F06EFE02460B462046294602F0ACFA002840F0CD814C462015A0F2FE304FF4801101414144C1F30A50A64CA0F2FF35C1F3130BC0F5826003302C414BF4801B7F
:406D400021EA040300224BFA00FB3946304601F047FE06460F46DDE902018BEAE87B0BEBD87B32463B464FEA0B5A01F03BFE80A3D3E90023002420460D4601F0E5FF3246FC
:406D8000804689463B462046294601F029FE02460B46DDE9020101F023FE77A3D3E9002301F0D2FF76A3D3E9002306460F462046294601F0C9FF02460B463046394601F0FB
:406DC00011FE06460F4632463B464046494601F009FE42464B4604460D4601F001FE02460B463046394601F0FBFD2246804689462B462046294601F0A7FF63A3D3E9002301
:406E000006460F4601F0A0FF61A3D3E9002301F0E7FD32463B4601F097FF5FA3D3E9002301F0E0FD32463B4601F08EFF5CA3D3E9002301F0D5FD32463B4601F085FF5AA3B7
:406E4000D3E9002301F0CEFD32463B4601F07CFF02460B462046294601F0C2FD06460F4632463B462046294601F06EFF0022CDE900014FF080433046394601F0B1FD024670
:406E80000B46DDE9000102F089F8424606460F464B462046294601F057FF42464B4601F0A1FD02460B463046394601F099FD22462B4601F095FD02460B4600203F4901F026
:406EC0008FFD8A44BAF5801F0246C0F227815346DDE9040101F038FF03463EE4BCF1000FFFF66EAC0023194637E40B46334934E433461046314601F027FF03462DE4324BD0
:406F000021F000449C4240F3FA80304B0B4403430CD132463B4601F063FD02460B46DDE9020102F08DF900283FF4F6AE20A3D3E90023DDE9040101F007FF1DA3D3E900235E
:406F400001F002FF034608E4BCF1000FCADA234605F1004101E402460B460020174902F01DF842E4AFF30080FE822B654715973C00000000432EE63FEF39FAFE422EE63F13
:406F8000396CA80C615C20BED0A4BE726937663EF16BD2C541BDBB3E2CDE25AF6A56113F93BDBE166CC1663F3E5555555555C53F59F3F8C21F6EA5010000F0BF0000F03F25
:406FC000FFFF8F40FFFF0F00FFCB904000346F3F634B9A4582DD634B9A453FF7EDAB0022604B01F0FDFC54A3D3E9002306460F4601F0AAFE52A3D3E90023CDE9000130462C
:40700000394601F0A1FE3246CDE902013B463046394601F099FE002282468B4630463946514B01F091FE02460B4647A1D1E9000101F0D6FC32463B4601F086FE02460B4640
:4070400000204A4901F0CCFC02460B465046594601F07AFE3EA3D3E9002301F075FE02460B46DDE9020101F0BBFC06460F46DDE9000132463B4601F0B5FCDDE90023002033
:4070800082468B4601F0ACFC02460B463046394601F0A6FCCDE90201DDE50026B44637E4334600202F4901F079FF0346FFF755BB29A3D3E90023DDE9040101F045FE26A38B
:4070C000D3E9002301F040FE0346FFF746BBB8F1010F03467FF441AB01F10041FFF73DBB00297FF446ABC3F58263033347FA03F000FA03F3BB4217D08846FFF710BB1B4B63
:407100009C423FF709AEDDE90023924693462EE64FF480264FF0010CFFF7FABB5A4601F0DBFB02460B46D3E600F00100C0F10208FFF7F5BAAFF30080000000604715F73FD8
:4071400044DF5DF80BAE543E555555555555D53FFE822B654715F73F9C7500883CE4377EFEFFEF3F0000F03F0000D03F0000E03F2DE9F04F924C21F00047A7428FB00E469B
:407180007FDD14468F4A974226DC83A3D3E90023002940F39D8101F023FC8B4B80469F42894600F083807EA3D3E9002301F018FC02460B464046C4E90023494601F010FC17
:4071C00077A3D3E9002301F00BFC0125C4E9020128460FB0BDE8F08F7C4A974240F383807B4A974258DC3D15A5F21645A7EB05518B46824602F042F801F040FD804689461C
:4072000042464B4650465946CDE9088901F0E8FB0022704B01F098FD8B46824602F02EF801F02CFD8046894642464B4650465946CDE90A8901F0D4FB0022664B01F084FD86
