:400000000080002011000000A1180000A118000008B5044B1A6803F53F5302331A6001F059FC00BFFA46004010B5054C237833B9044B13B10448AFF300800123237010BDAF
:400040004088FF1F00000000F8990000084B10B51BB108480849AFF300800848036803B910BD074B002BFBD0BDE81040184700BF00000000F89900004488FF1F0881FF1FA1
:400080000000000080B562B601F0D6FB00F092FA00F09AFA00F09AFA00F0A4FA00F05CFA00F09AF901F0F8F900F088FB00F0F0FA00F098FE3148324901F07AF900F0A8FFB2
:4000C00001F00CFA01F0BCFA01F0C8FB00F046FA00F08CF901F0E6F900F07EFB00F0FCFA00F08CFE01F0A6F900F09CFF254C264D0FCD20606160A260E36007CD20616161F8
:40010000A2612B782377204601F0BEFB1F4D05F120072E460FCE20606160A260E36035461034BE42F5D103CD20606160154C204601F0AAFB164D05F120072E460FCE2060CB
:400140006160A260E36035461034BE42F5D1337823700C4801F098FB012002F017F900F0FFF900F0C9FA01F067F901F085F800F03BFA002002F00AF9EEE700BF9D050000F1
:40018000A9050000A0F1FF1F009A0000209A0000489A0000B8B929B919704FF4FA6040F2DC5305E00121197040F2DC504FF47A73002105E022F811300131C9B20A339BB21C
:4001C0008342F7D9704729B919704FF47A7040F2DC5305E00121197040F2DC504FF4FA63002105E022F811300131C9B20A3B9BB28342F7D2704700BF10B4002308E050F871
:40020000232051F82340224441F823200133DBB2322BF4D95DF8044B704700BF10B4002307E050F8234094FBF1F442F823400133DBB2322BF5D95DF8044B7047F0B44FF62E
:40024000FF7414600A4C1C6000240DE0A60050F824501F68BD4200DD1D6085591668B54200DA15600134E4B28C42EFD3F0BC70470100FFFF08B50020014602F09DF8022046
:4002800000F082FB042000F063FB024801F0FCFA08BD00BF749A000008B550B10120002102F08AF8022000F053FB054801F0ECFA02E0044801F0E8FA042000F065FB08BD6A
:4002C000909A0000AC9A00002DE9F04184B0804617461D460A9E32460DF10F03FFF75AFF0F480021CC2207F0EBFA00240DE09DF80F10009540460A22334600F0D7FD284615
:400300000749FFF779FF0134E4B2BC42EFD3044839462A46FFF782FF04B0BDE8F08100BF5C88FF1F2DE9F04184B01646984601EB4001254B33F81170244C1046332104F12A
:40034000CC0204F1D003FFF779FF6423C4F8D4303546D83406F1300E264628686968AA68EB680FC6103534467545F5D12A88AB783280B3704446164E08F130083546206864
:400380006168A268E3680FC510342E464445F5D12288A3782A80AB70002610E06D460D4C4FF4C85303FB06440FCC0FC523682B60F1196846C9B202F069F80136F6B2132E87
:4003C000ECD904B0BDE8F0816C9A00005C88FF1F008AFF1F2889FF1F024A034BC3F80C22704700BF008000405C88FF1F08B501F0DFFF084BD3F80C321B8803F002039BB264
:400400001BB1022000F0A4FA08BD022000F0BCFA08BD00BF5C88FF1F70B582B0FFF72AFF264E06F5047506F5377400940020014605222B46FFF748FF002001462A46234619
:40044000FFF770FF00940020012105222B46FFF73BFF002001212A462346FFF763FF00940120002105222B46FFF72EFF012000212A462346FFF756FF0094012001460522EC
:400480002B46FFF721FF012001462A462346FFF749FFD6F80C1201F1100001F5A87100F05FFDD6F80C1201F5247001F5747100F065FD0120FFF7F0FE02B070BD5C88FF1F64
:4004C000024B036003F5A0730B6070470C81FF1F034B03F52072026003F570730B6070470C81FF1F704700BF2DE9D04382B001A8694600F095F9019806F032FB804689469A
:40050000009806F02DFB10A3D3E9002306F07CFB00220F4B06F078FB06460F464046494632463B4606F0BCF90A4C06F02FFE20604046494632463B4606F0B4F906F026FE03
:40054000606002B0BDE8D083986E1283C0CAD93F0000E03FA08BFF1F704700BF704700BF10B500F045F9044610F0010F01D000F08DFC04F002039BB20BB100F0ADFE04F058
:4005800004039BB20BB1FFF747FF04F00804A4B20CB1FFF7A7FFFFF7A7FF10BD014B1868704700BFA08BFF1F014B5868704700BFA08BFF1F08B5034800214FF4807207F02C
:4005C0007FF908BDA0F1FF1F704700BF08B5002001F0DCFE00F07CFF014B186008BD00BFA88BFF1F704700BF08B500F071FF0A4A1368C01A506006F091FA0022074B06F016
:4006000093FD40B100F064FF034B18609868421C9A6000F025FA08BDA88BFF1F00407F4070B504460E46036B9847A060E368C31A2361E06004F12005184606F0B1FE014644
:40064000284600F065FF60610F4906F0FDFE0546304606F0A1FE0146284606F0A9FF014604F1280000F054FFA06106F079FA04A3D3E9002306F0C8FA06F088FDE06170BDCD
:4006800057A393F4923B6B3F00007A44AFF3008010B40E4B00219960D960196100225A615A620B4C1C62DA620A4898629A61DA61196459649964DA64DA659C655A66186659
:4006C0001A655A655DF8044B704700BF0C86FF1F000040400000204110B502F0ADF801F093FF044C636B00209847E36E0020984710BD00BF0C86FF1F38B500F0E9FE114A6A
:400700001368C01A506006F009FA00220E4B06F001FDB0B100F0DCFE0A4B18601B7A2BB90122084B1A72072001F084FB074D054C28466168FFF774FF05F138006168FFF710
:400740006FFF38BDB48BFF1F000049400C86FF1F014B9869704700BF0C86FF1F014B186D704700BF0C86FF1F014BD869704700BF0C86FF1F014B586D704700BF0C86FF1F2C
:4007800070B50D4C636B002098470026E6602661002565616562A561E561E562A660E36E304698476664A664E564E565256565656566266470BD00BF0C86FF1F10B5054C48
:4007C00020460021562207F07BF80023A4F8563010BD00BFC08BFF1F08B501F0ABFC56200C21024A01F0C8FC08BD00BFC08BFF1F08B501F0ADFC0028FBD14FF40043044A51
:400800001360044A108800211180034A136008BD80E100E0C08BFF1F00E100E0000000002DE9F04105460C4601F092FC10F0020F03D000223E4B9A650AE000F049FE3C4E21
:40084000F36DC01AB36D0344B36500F041FEF06500232B602360364B9B6DB3F5FA6F10D201F076FC0028FBD14FF40043314A13602F4AD2F802102960D2F8062022602E4AFB
:400880001360D5F80080404606F06AF906460F461FA3D3E9002306F029FC38B1304639461DA3D3E9002306F021FC50B93046394617A3D3E9002306F019FC20B9DFF8848056
:4008C00001E0DFF88480C5F800802568284606F047F906460F4612A3D3E9002306F006FC38B13046394610A3D3E9002306F0FEFB48B9304639460AA3D3E9002306F0F6FBD9
:4009000010B90E4D00E00E4D2560BDE8F08100BFC66D3480B740E83FC66D3480B740E8BF17F671611F170E4017F671611F170EC0C08BFF1F80E100E000E100E0FBB8704060
:40094000FBB870C0BC05423FBC0542BFAFF3008008B50A4AB2F856301843A2F8560001F0F7FB0028FBD14FF40043054A1360034AB2F856109181034A136008BDC08BFF1F66
:4009800080E100E000E100E008B50B4AB2F8563023EA0000A2F8560001F0DAFB0028FBD14FF40043054A1360034AB2F856109181034A136008BD00BFC08BFF1F80E100E097
:4009C00000E100E0F8B507460E4615461C4601F0BFFB0028FBD14FF400431E4A13601E4AC2F80E701D4A136001F0B2FB0028FBD14FF40043174A1360174AC2F81260174AD7
:400A0000136001F0A5FB0028FBD14FF40043114A1360114AC2F81650104A136001F098FB0028FBD14FF400430A4A13600A4AC2F81A400A4A136001F08BFB0028FBD14FF480
:400A40000043044A13600699034AC2F81E10034A1360F8BD80E100E0C08BFF1F00E100E010B5044601F074FB0028FBD14FF40043034A1360034AC2F85240034A136010BDEF
:400A800080E100E0C08BFF1F00E100E030B4BDF8084091420AD19C4201D198B211E0E41A04EBD47403EB640080B20AE0401A25B21CB22C1B04FB00F4521A94FBF2F29818E6
:400AC00080B200B230BC704770B584B00C4600218DF80F108DF80E1058B3164605460DF10E02009221461A460DF10F0300F078FD9DF80F309DF80E0034F9231034F920208A
:400B000036F8133036F81000009028B2FFF7BEFF80B2A0F5FA639BB24FF62F02934205D9B0F57A7F38BF4FF47A7004E04FF4FA6001E040F2DC5004B070BD00BF2DE9F041E6
:400B400080460C46002106F03BFEF8B1E7687D683E68B86806F024FC414606F075FC06F039FEB042B8BF30468542A8BF0546284607F10C0107F1D8023323FFF7A5FFE0804C
:400B8000284606F00DFCA060BDE8F0814046002106F0F8FDF8B127697D683E68B86806F0FFFB414606F050FC06F014FEB042B8BF30468542A8BF0546284607F10C0107F1B8
:400BC000D8023323FFF780FFE080284606F0E8FBA060BDE8F08140F2DC53E3800023A360BDE8F0812DE9F04180460F46C488A31A002B03DA6642B61AB6B201E0A61AB6B237
:400C0000B6FBF7F600250AE0A41BA4B2D8F8203020469847012001F00DF90135ADB2BD42F2D3BDE8F08100BF2DE9F041884602EB8202D7B27D1D036AC088984700260024C0
:400C400011E0FFF759FD042C08D9C0470B4906F0FBFB0146304606F0EFFA06460A2001F0E9F80134E4B2A3B2AB42EAD3304606F0B1FD90FBF7F0BDE8F08100BF0000C842C6
:400C800070B58EB003460D46164601A81A491A4607F0BCFA01A800F0F7FD00241DE08CB1164BA3FB0423DB0803EB83035B00E31A13F0FF0F06D106A8114956F8242007F087
:400CC000A5FA05E006A80F4956F8242007F09EFA06A800F0D9FD0134E4B26B1E9C42DEDB06A8094956F8242007F090FA06A800F0CBFD0EB070BD00BFC49A0000CDCCCCCC38
:400D0000CC9A0000D49A0000DC9A000070B58EB003460D46164601A81A491A4607F076FA01A800F0B1FD00241DE08CB1164BA3FB0423DB0803EB83035B00E31A13F0FF0FB0
:400D400006D106A8114936F8142007F05FFA05E006A80F4936F8142007F058FA06A800F093FD0134E4B26B1E9C42DEDB06A8094936F8142007F04AFA06A800F085FD0EB0B8
:400D800070BD00BFC49A0000CDCCCCCCE49A0000EC9A0000F09A000010B50C4600F074FD22690C4833210C32FFF76AFFE2680A483321D832FFF7AAFF2269084833210C32DC
:400DC000FFF75EFF226906483321D832FFF79EFF10BD00BFF89A0000049B0000149B0000249B000010B5044C636901209847A36B0120984710BD00BF7C86FF1F10B5104CEF
:400E000004F10C0004F11001FFF75AFB04F1300004F13401FFF75CFB636900209847A3699847236A40F2DC509847A36B00209847E36B9847636C40F2DC50984710BD00BF72
:400E40007C86FF1F10B5044C2146FFF777FE236AE088984710BD00BF7C86FF1F10B5044C04F12401FFF76AFE636C608D984710BD7C86FF1F014BD888704700BF7C86FF1F94
:400E8000014B588D704700BF7C86FF1F10B5064CE3699847236C9847636901209847A36B0120984710BD00BF7C86FF1F2DE9F0470C4690469946089E034608B9244D00E0E0
:400EC000244D0BB9244F00E0244F40F2DC50E8802B6A98474FF4FA7000F0ACFFFFF750FC30460021CC2206F0EBFC8CB920E0C4F1320A5FFA8AFA39F81A30EB8028463946EB
:400F00004246FFF791FE46F82A000134E4B200E00024322CEBD90DE039F81430EB80284639464246FFF780FE46F824000134E4B2322CF1D928464FF4FA7140F2DC52FFF7CE
:400F400051FE40F2DC50E8802B6A9847BDE8F0877C86FF1FA086FF1F510700005D07000008B5044BD860196103481946FFF714FF08BD00BF7C86FF1F349B000008B5044BBC
:400F800018635963034803F12401FFF705FF08BD7C86FF1F3C9B00002DE9F04194B0194C206811A9032200F0C9FA0DF1380860684146032200F0C2FA0BAFA0683946032212
:400FC00000F0BCFA08AEE0683146032200F0B6FA05AD20692946032200F0B0FA0A4CCDF8008001970296039520464FF48071074A11AB07F0D9F8204600F046FC14B0BDE8D5
:40100000F08100BF208CFF1FA0F1FF1F449B0000034B00229A601A605A60DA601A617047208CFF1F704700BF2DE9F84F0446FFF79BFB0546FFF79EFB8246204606F0ACF908
:401040000446294606F000FA854906F0B1FA80465046214606F0F8F9814906F0A9FA04464046214606F0E6F805F07AFD6AA3D3E9002305F0C9FD06F089F87A4EB16806F0DF
:40108000DBF8B06005F06CFD06460F4664A3D3E9002306F049F858B13046394662A3D3E9002305F0FDFB06F071F86E4B986012E0304639465EA3D3E9002306F021F850B17B
:4010C0003046394658A3D3E9002305F0EBFB06F05DF8644B98604046214606F0ADF84FF07C5106F0B1F905F03BFD06460F465D4CA06805F035FD8046894603F0DBF90246D6
:401100000B463046394605F07FFD06F03FF883464046494603F016FA02460B463046394605F072FD06F032F806462068594606F083F820606068314606F07EF86060504673
:40114000294606F079F84FF07C5106F07DF9804605F006FD06460F4637A3D3E9002305F0E3FF68B14FF001043046394634A3D3E9002305F0BBFF08B94FF00004E3B200E002
:40118000012353B1304639462BA3D3E9002305F0CBFF20B9DFF8D88001E0DFF8D880314BC3F80C805046294606F044F805F0D8FC25A3D3E9002305F051FE06460F4624A378
:4011C000D3E9002305F0B0FF68B14FF001043046394621A3D3E9002305F088FF08B94FF00004E3B200E0012373B13046394618A3D3E9002305F098FF20B13046394605F064
:40120000C5FF02E0184800E01848164B1861BDE8F88F00BFAFF3008040CCB2B7B8DA0340182D4454FB210940182D4454FB211940182D4454FB2109C0C66D3480B740E8BF5C
:40124000C66D3480B740E83F986E1283C0CAD93F17F671611F170EC017F671611F170E4000007A44208CFF1FFBB870C0FBB87040BC0542BFBC05423F10B582B000F028F90C
:40128000134B5C69041B204605F048FC0022114B05F04AFFC8B100F01BF90D4B58611B7E2BB901220A4B1A760B2000F0C3FD2046FFF7BAFE064C20686168A268E36824690A
:4012C0000094FFF77FFBFFF767FE02B010BD00BF208CFF1F0000494000B583B0074A0023936013605360D36013610093184619461A46FFF767FB03B05DF804FB208CFF1F09
:401300002DE9F0470546436C98478146002106F057FA10B14FF0010A01E04FF0FF0AAB6C9847044605F10808484605F019FC1EA3D3E9002305F092FD06460F46002200233C
:4013400005F0D4FE50B109F1004005F009FC16A3D3E9002305F082FD06460F463046394605F014FF0146404600F062FA2046002106F008FA10B104F1004100E0214640466B
:4013800000F058FA404600F073F950B1EC6C2D694FFA8AF006F004F80146284606F054F8A047BDE8F08700BF57A393F4923B6B3F2DE9F04F87B0194C6064C4F89810184E35
:4013C000184DDFF868B0CDF800B04FF0000ACDF804A0DFF85C90CDF808904FF00108CDF80C800027049704F1080031462A460E4B00F0F4F9CDF800B0CDF804A0CDF80890A2
:40140000CDF80C80049704F15C0031462A46064B00F0E4F907B0BDE8F08F00BFC486FF1F0000C040CDCC0C401F852B3FCDCC4C3D00009643704700BF10B500F049F80F4BB4
:401440001B68C01A05F06AFB00220D4B05F062FE98B100F03DF8094B18601B792BB90122064B1A71132000F0E5FC064C2046FFF747FF04F15400FFF743FF10BD3C8CFF1F09
:4014800000004940C486FF1F024A136801331360704700BF448CFF1F0022014B1A607047448CFF1F10B500F09FFD00F06BFD002409E0204600F0AEFD20B92046034900F0AA
:4014C000A1FD10BD0134042CF3D910BD89140000014B1868704700BF448CFF1F704700BF30B5002406E0094D85FB00E5C017C0EBA50001340028F6D103E030208854013209
:4015000001349C42F9DB104630BD00BF67666666F8B504464668304605F08EFE074625683046294606F044F80146384605F082FE6060294606F03CF8F8BD00BF2DE9F84344
:4015400006460D469046002106F01CF950B12D232B703046002106F015F908B106F10046012400E00024304606F034F9074629190A2206F098F906F06DFE2044B8F1000FCC
:4015800029DD2E232B54441C384605F009FF0146304605F04FFE8146404605F0CFFA02460B4600200D4903F017F806460F46484605F0D6FA32463B4605F026FB05F0BEFDAC
:4015C0000646294622464346FFF78AFF291830460A2206F068F9BDE8F88300BF00002440F0B4049F013AD2B2540800251D703D7019E051F82460864203DA651CEDB21C706B
:401600000CE0864202D11C703C700EE0864205DD3C701A78A21A012A07D02246AC1804EBD474C4F347049542E3D9F0BC704700BF002383600360436001614261704700BFB6
:4016400010B500F07DFA00F087FA084C04F1280004F14C0104F16C02FFF7EAFF201D04F1AC0104F1CC02FFF7E3FF10BD488CFF1F2DE9F84390F83930002B48D00446076861
:40168000406B394605F0D6FD8046E069414605F0DBFE616A05F0D0FD05466062E66A314606F070F840B9D4F830902846494606F087F810B14D4600E0354665623846616861
:4016C00005F0B8FD8146A069414605F0BDFE0146284605F0B1FD0546206A494605F0B4FE0146284605F0A6FD0546A0603046294606F066F830B9266B2846314606F060F858
:4017000000B92E46A66067600120BDE8F8830020BDE8F883F8B504460D4616460846114606F044F818BBE562266394F83930012B1DD1A7683846294606F024F830B9304692
:40174000394606F01FF810B1374600E02F46A760676A3846294606F015F830B93046394606F010F810B1374600E02F466762F8BD2DE9F04104460D4616461F460846002181
:4017800006F000F838BB3046002105F0FBFF10BB3846002105F0F6FFE8B9E56026616761A561D4F828804046314605F04DFE0646E0613846414605F0FBFE206294F838308C
:4017C000012B08D105F10045A56106F10046E66100F100402062BDE8F08100BFF8B504460F4616461D469DF8283080F838309DF8243080F83930002141620160416081604E
:401800004163069805F0DCFF10B1069BA36202E04FF07E53A36220460799089AFFF77AFF2046394632462B46FFF7A2FFF8BD00BF416370470160704708B5064800214FF466
:40184000C84206F03DF8044B002283F8282F83F8292F08BD548DFF1F2CE2FF1F08B50020012101F0A7F901F0EFF920B101F0E6F908B101F0D7FA01F0E1F910B1014801F0E2
:401880001DFB08BD689B000010B5044601F0D6F928B101F061FB10B1204601F00FFB10BDFEE700BF08B5094B1A681044084BC31A802B02DC054B186005E005F0B1FF0C239F
:4018C00003604FF0FF32104608BD00BF6C87FF1FA0F3FF1F08B5104E104D16E029686B68AC68002204E051F8040B43F8040B0432A242F8D1E868002203E0002143F8041B38
:4019000004328242F9D11035013E002EE6D105F08DFFFEF7B7FBFEE70100000064A1000008B5124A124B1A60124A136843F40073136000230AE0032B03D80F4A52F8231097
:4019400000E00E490E4A42F8231001332F2BF2D90C4B1A780C4B1A70094A0C4B1A6000F007F900220A4B1A6008BD00BF0004FA050CED00E014ED00E000000000A118000049
:401980000080FF1FBC7600400481FF1F08ED00E00081FF1FF0B40022174611E050F82760F3B226F0FF0608E001EB420511F812406D78A5550132013BDBB2002BF4D10137E4
:4019C000272FEBD9F0BC704708B50A46002105F077FF08BD38B50E222B4B1A8018232B490B7002310A802A4A1370172204310A8002310B7002310A80264A137041F2BF2198
:401A000002321180023213700622234B1A705222A3F580731A70214B1B78DBB2204A13700024204B1C8040F6180203F21E231A8041F25122023B1A8019250CE01A4B1B781E
:401A400003F0010343EA440404F003044FF4F07000F0DEF9013D0DB1032CEFD1114A07231370002311490B7048200231087013700532137002220E4B1A700E4A137843F03D
:401A80001F03137038BD00BF8040004082400040864000408E400040004300400F010049A146004004400040254200400640004001400040A2430040F8B5174B1B78DBB22E
:401AC000164E3478E4B2164F3D78EDB203F00701144A11701B090132137044F00303337045F003033B7080239232137008321370F0220D4B1A7020230C490B7005310A70B2
:401B00000B4A13700A2000F0ABF93D7034704422084B1A70F8BD00BFCF010049F8460040F94600406E580040205B0040235B00402B5B00407658004008B505F0B6FE08BD73
:401B4000FF22034B1A700022024B1A70704700BF7087FF1F3D510040FF22034B5A700022024B1A70704700BF7087FF1F0D51004038B572B6464A137843F0040313700024AE
:401B80000CE0444963001A1952000A4423445B00C8589188FFF718FF0134E4B2052CF0D900240FE03B49A3001A1952000A4452F8240F23445B000B4451689A8DFFF7BCFF7D
:401BC0000134E4B2012CEDD94FF090403249FFF7E1FE324A137843F0020313701032137843F0020313702E4C237843F040032370A2F58632513A137843F0100313702948C1
:401C000029490822FFF798FF284829490822FFF793FF284828490A22FFF78EFF274828490822FFF789FF274827490A22FFF784FF264827490822FFF77FFF264826490822C8
:401C4000FFF77AFF254826490822FFF775FF254825490822FFF770FF4423244A137002F560621370A2F55542393A137843F0080313701F4D61232B70FFF7ACFE81232B7030
:401C8000FFF71AFF1B4821460E22FFF755FF38BDE8460040849B0000A000004803500140A043004002510040D00F0048C2510040D80F0048F0510040E00F00481251004019
:401CC000EC0F004820510040F40F004832510040001000484251004008100048525100401010004862510040181000485B0A014000480040B0430040044A137803F0FE037B
:401D000000F0010018431070704700BF20510040704700BF014B1880704700BF0C680040014B1880704700BF8C680040014B1880704700BF4C68004008B50B4A137843F080
:401D4000010313700132137843F00103137044F62060FFF7DFFF44F62060FFF7E1FF40F2DC50FFF7E3FF08BD9664004008B5044B1B7823B9FFF7E0FF0122014B1A7008BD03
:401D800058F1FF1F044A137803F0EF03000100F0100018431070704720510040704700BF014B1880704700BF08680040014B1880704700BF88680040014B1880704700BF56
:401DC0004868004008B50B4A137843F0010313700132137843F00103137044F62060FFF7DFFF44F62060FFF7E1FF40F2DC50FFF7E3FF08BD9464004008B5044B1B7823B958
:401E0000FFF7E0FF0122014B1A7008BD59F1FF1F0230800803D000BF01380046FCD17047EFF3108072B6704780F31088704700BF01BE704710B5044605E0084B1868FFF753
:401E4000E7FFA4F50044B4F5004FF6D8034B586800FB04F0FFF7DCFF10BD00BF7487FF1F08B5034B1B7A03FB00F0FFF7D1FF08BD7487FF1F70B504460E46074B1D680F2863
:401E800002D90020FFF7D4FF04F00F0455F8240045F8246070BD00BF08ED00E070B504460E46074B1D681F2802D90020FFF7C0FF04F01F04103455F8240045F8246070BD19
:401EC00008ED00E038B504460D46072902D90020FFF7AEFF1F2C02D90020FFF7A9FF04F01F0000F1604000F564406D01EDB2057038BD00BF024A136843F002031360704735
:401F000010E000E008B5FFF7F5FF034A136843F00103136008BD00BF10E000E020F07F40014B1860704700BF14E000E0012805D1054A136843F0040313607047024A136893
:401F400023F004031360704710E000E0024B1868C0F30040704700BF10E000E010B5FFF7F5FF01280BD107E0054B03EB84035B6803B19847013400E00024042CF4D910BD8E
:401F80005CF1FF1F0022014B1A60704718E000E008B5002305E00F4A02EB8302002151600133042BF7D90F200B49FFF763FF0120FFF7BCFF094BDB680948A0FB03308009BE
:401FC000FFF7ACFFFFF7DEFF4FF40042054B1A6008BD00BF5CF1FF1F5D1F00007487FF1FD34D621000E100E008B5054B9B6923B9FFF7CEFF0122024B9A61FFF783FF08BDEF
:402000005CF1FF1F024B03EB80035868596070475CF1FF1F024B03EB80004068704700BF5CF1FF1F134B1B78DBB20360124A127843EA02230360114A127843EA0243036062
:402040000F4A127843EA026303600E4B1B78DBB243600D4A127843EA022343600B4A127843EA024343600A4A127843EA02634360704700BF0301004904010049EC4600400C
:40208000020100490101004900010049050100490601004910B50123114A137081210E3A11700821023211701132137000240D4B1C704FF400420C4B1A600F200721FFF71F
:4020C00001FF0F200949FFF7E9FE094B1C70094B1C70094B1C70094B1C70094B1C8010BDD6490040DC49004080E100E0C9210000A2F2FF1FACF2FF1FA3F2FF1FA8F2FF1F7D
:40210000A0F2FF1F08B5FFF78BFE084A137843F0040313701032137843F004031370FFF783FE4FF40042024B1A6008BDA543004000E100E008B5054B1B7823B9FFF7AAFF03
:402140000122024B1A70FFF7DDFF08BD78F1FF1F4FF40041054B1960054A1078137803F01003DBB21370034B1960704780E100E0ACF2FF1F00E100E010B44FF400440B4BA5
:402180001C6032B113460A4A13600A4B18800A4B19800023094A1370094A13704FF40042084B1A605DF8044B704700BF80E100E0A4F2FF1FAAF2FF1FA0F2FF1FA3F2FF1F78
:4021C000A8F2FF1F00E100E0654B1B78DBB2654A137013F0080F32D0634B1B7813F0010F1CD0624A1378DBB261490968CB5CDBB25D490B7014215A4B19701378DBB25D4A32
:40220000137013780133DBB213705B4A137843F0110313700822594B1A708EE01022504B1A70554A137843F0120313700122534B1A70534A137843F0100313707DE013F0A4
:40224000010F7AD04D4A1278D2B2042A1ED0082A3AD0012A68D1444B1B78DBB2414A5370484A128892B293420CD210223C4B1A703C4B5B783D4A13703E4A137004223F4B21
:402280001A705AE00022364B1A7056E0394B1A783D4B1B889BB29A4212D2334B1B7831494B7010222E4B1A70324A1378DBB2304800684978C15413780133DBB213703CE0F9
:4022C0000022274B1A7038E013F0020F1ED1294B1A782C4B1B889BB29A4210D2254A1378DBB223490968CB5CDBB21F490B7004211B4B197013780133DBB213701DE0FF227E
:40230000194B1A700422013B1A7016E0FF22164B1A700022013B1A7017490B7803F0EF030B70164B1A7008E00023144A13700F4A1370104A13700A4A1370094B1B7813F045
:40234000200F0CD00C4A137803F0EF03137000220A4B1A700A4A137803F0EF0313707047D749004079F1FF1FD8490040A3F2FF1FA4F2FF1FA8F2FF1FACF2FF1FA2F2FF1F34
:40238000D6490040AAF2FF1FA0F2FF1F044A137803F0FB03800000F00400184310707047C051004008B501F0F5FE01F0FDFE08BD08B5FFF7F7FF08BD30B583B00C468DF884
:4023C000070001F01BFFB4F5006F54D22509C5EB053319010C44A4B201F0E6FF00284CD1402021460DF10702012301F033FF044607282FD1234B1B7813F0020FFAD0214BC3
:402400001B7813F0020F06D01E4B1B789B0805D04FF0FF3403E04FF0FF3400E00024E4B9194B402029461A785B7801F079FF072816D1144B1B7813F0020FFAD0114B1B786D
:4024400013F0020F0FD00F4B1B789B0810D04FF0FF340DE0012809D10AE04FF0FF3407E04FF0FF3404E04FF0FF3401E04FF0FF3401F0C0FF02E0012400E00424204603B061
:4024800030BD00BF2247004070F3FF1F38B504460D4601F0B3FE15F0800F48D101F084FF002846D140202146102201F00FFF07282FD1214B1B7813F0020FFAD01E4B1B78BA
:4024C00013F0020F06D01C4B1B789B0805D04FF0FF3403E04FF0FF3400E00024E4B9174B402029461A785B7801F01AFF072816D1114B1B7813F0020FFAD00F4B1B7813F0A5
:40250000020F0FD00C4B1B789B080DD04FF0FF340AE04FF0FF3407E04FF0FF3404E04FF0FF3401E04FF0FF3401F064FF02E0012400E00424204638BD2247004070F3FF1F89
:4025400008B58022054B1A6007200549FFF7A6FC07200146FFF7B6FC08BD00BF80E100E03D26000010B58024064B1C6000F0A0F8A0F5004000B2044B1B68044A14601844B2
:4025800010BD00BF80E100E07CF1FF1F00E100E038B505468024054B1C604FF4004000F081F8034B1D60034B1C6038BD80E100E07CF1FF1F00E100E0024B187800F00F007B
:4025C000704700BF6664004040F00700014B1870704700BF8664004008B50F20FFF7F4FFFFF7EAFFFFF71CFC054A137843F010031370FFF719FC8022024B1A6008BD00BF53
:402600009664004000E100E008B500F0A3F84FF4004000F047F80022064B1A60064B1B7823B9FFF78DFF0122034B1A70FFF7D4FF08BD00BF7CF1FF1F7BF1FF1F0D4B1B782E
:40264000DBB213F0010F06D00B490A6802F5FF427F320A6007E013F0020F04D006490A68A2F500420A6013F0040F02D00022024B1A607047666400407CF1FF1F024A137804
:4026800043F080031370704775640040014B1870704700BF81640040014B1878704700BF61640040014B1880704700BF04680040024B1B78024B188880B2704702640040E9
:4026C00084680040014B188880B2704784680040014B1880704700BF44680040014B1880704700BF6468004008B501E0FFF7EAFFFFF7D2FF10F0400FF8D108BD08B5134BC5
:402700001A7802F0F8021A701A7802F0FC021A70FFF7EAFF4FF40040FFF7DAFF4FF40040FFF7C0FF0020FFF7B1FFFFF7B5FF4FF40040FFF7D3FFFFF773FB054A137843F0F0
:4027400010031370FFF770FB08BD00BF756400409164004008B5054B1B7823B9FFF7CEFF0122024B1A70FFF789FF08BD80F1FF1F08B52022054B1A6005200549FFF78EFBCA
:4027800005200721FFF79EFB08BD00BF80E100E06D28000010B52024064B1C6000F0A0F8A0F5004000B2044B1B68044A1460184410BD00BF80E100E084F1FF1F00E100E0ED
:4027C00038B505462024054B1C604FF4004000F081F8034B1D60034B1C6038BD80E100E084F1FF1F00E100E0024B187800F00F00704700BF6364004040F00700014B187022
:40280000704700BF8364004008B50F20FFF7F4FFFFF7EAFFFFF704FB054A137843F010031370FFF701FB2022024B1A6008BD00BF9364004000E100E008B500F0A3F84FF4AD
:40284000004000F047F80022064B1A60064B1B7823B9FFF78DFF0122034B1A70FFF7D4FF08BD00BF84F1FF1F81F1FF1F0D4B1B78DBB213F0010F06D00B490A6802F5FF42F0
:402880007F320A6007E013F0020F04D006490A68A2F500420A6013F0040F02D00022024B1A6070476364004084F1FF1F024A137843F08003137070477D640040014B18704C
:4028C000704700BF8B640040014B1878704700BF6B640040014B1880704700BF10680040024B1B78024B188880B270470864004090680040014B188880B270479068004019
:40290000014B1880704700BF50680040014B1880704700BF7068004008B501E0FFF7EAFFFFF7D2FF10F0400FF8D108BD08B5134B1A7802F0F8021A701A7802F0FC021A7083
:40294000FFF7EAFF4FF40040FFF7DAFF4FF40040FFF7C0FF0020FFF7B1FFFFF7B5FF4FF40040FFF7D3FFFFF75BFA054A137843F010031370FFF758FA08BD00BF7D64004058
:402980009B64004008B5054B1B7823B9FFF7CEFF0122024B1A70FFF789FF08BD88F1FF1FF8B5FFF73DFA0546404A137843F0010313701032137843F00103137001273C4B9B
:4029C0001F700226943B1E7002F5E2521B32137803F07F0313700020FFF742FA354C237803F0F9032370344A137803F0DF03137023783B4323703846FFF732FA2820FFF7ED
:402A00002FFA2E4B1A7802F07F021A701A7802F0BF021A702378334323703046FFF720FA237843F0040323700023254A1370013213702846FFF7F8F917200721FFF742FA53
:402A400017202049FFF72AFA18200721FFF73AFA18201D49FFF722FA15200721FFF732FA15201A49FFF71AFA08200721FFF72AFA08201749FFF712FA09200721FFF722FAEA
:402A800009201449FFF70AFA0A200721FFF71AFA0A201149FFF702FA0C200721FFF712FA0C200E49FFF7FAF9F8BD00BFA54300409D6000409443004012600040F8510040D7
:402AC00084600040E5340000B5320000E134000029340000613400009D3400007537000010B5002304E00124254AD4542344DBB2012BF8D9234B18700023234A1370234A3F
:402B00001370234A1370234A1370234A1370234A1370234A1370234B4FF400021A604FF080721A604FF400121A604FF480721A604FF400721A604FF480621A6011B1012952
:402B400006D00BE0184A137803F0FE0313700AE0154A137843F00103137004E0124A137843F0010313700322104B1A708022203B1A700120FFF74CF904220D4B1A7010BD5B
:402B800064F3FF1FC9F2FF1FCCF2FF1FE8F2FF1FEBF2FF1FE0F2FF1FEAF2FF1FEDF2FF1FC8F2FF1F00E100E009600040286000401260004038B505460C46064B1B7823B90B
:402BC000FFF7EEFE0122034B1A7028462146FFF787FF38BD89F1FF1F002304E001210E4AD1540B44DBB2012BF8D900230B4A13700B4A13700B4A13700B4A13700B4A137040
:402C00000B4A13700B4A137003220B4B1A708022203B1A70704700BF64F3FF1FCCF2FF1FE8F2FF1FEBF2FF1FE0F2FF1FEAF2FF1FEDF2FF1FC8F2FF1F28600040014B18783B
:402C4000704700BFEBF2FF1F064B1B7813F0FF0F05D0044B1878C0B200221A7070470020704700BFE8F2FF1F00EB40008000024B18444078704700BFF0F2FF1F431EDBB267
:402C8000072B3BD8F0B4074600EB40039B001C4C2344DB889BB2C3F500739A4207D900EB40039B002344DA88C2F5007292B200EB40039B00124C2344DB7843EA1223114D0F
:402CC00004012E192B55D3B2737039B909E0CE5C3D010D4C665501339BB200E000239342F5D3430003449B00054A134400225A705A79D2B20001054B1A54F0BC704700BF39
:402D0000F0F2FF1FFC5F004078600040FE5F0040431EDBB2072B0BD8430003449B00054A134400225A705A79D2B20001024B1A54704700BFF0F2FF1FFE5F004002460020FB
:402D400001E0013080B2135C002BFAD1704700BF10B4FF2400220EE00A4B9B5C03EB43039B0009490B449B78DBB2834201D1144602220132D2B2012AEED920465DF8044B19
:402D8000704700BFB8F2FF1FF8F2FF1F10B5204C2079FFF7DDFF237813F0800F0ED06378DBB2212B2FD11B4B07221A80C0EBC000194A1044586000F0EBFA10BD144B5B789B
:402DC000DBB2202B02D0222B10D01EE0114A07231380C0EBC00310490B4453600F4A135C43F00103135400F0FBFA10BD084B9B780B4A22F81030094A135C43F0020313548F
:402E000000F086F910BD002010BD002010BD00BF00600040D4F2FF1F8487FF1FB0F2FF1FC4F2FF1F10B500241F4B1C701F4B1C705C700AE01E4B185DC0B2431EDBB2072B81
:402E400001D8FFF765FF0134E4B2012CF2D9194B1B7813F0FF0F1AD0154B1B7813F0FF0F17D0154B1B7813F0FF0F14D0114B1B78DBB2082B11D80E4B1B78DBB2082B0ED86D
:402E80000D4B1B78DBB2082B0BD8002010BD012010BD012010BD012010BD012010BD012010BD012010BD00BF8AF1FF1FB0F2FF1FBCF2FF1FB4F2FF1FB8F2FF1F2DE9F84342
:402EC0008046224B1B78224AD65CF6B2FFF736FF05460027344606EB46039B001D4A13441B899BB2AB4208D206EB46039B001344B3F808901FFA89F900E0A946304608EB22
:402F000007014A46FFF7BAFEC9EB0505ADB245B906EB46039B000F4A13441B899BB2994510D14F44BFB204EB44039B00094A13445B7813F0FF0FF6D025B9304600210A460D
:402F4000FFF79CFE002DC5D1BDE8F8838AF1FF1FB4F2FF1FF0F2FF1F08B5034B1B78034AD05CFFF781FE08BD8AF1FF1FB4F2FF1FC37803F0030390F9020000280FDA032BD5
:402F800006D002F001030B48C15442F001020EE0C2F380030848C15442F0040207E0032B05D0C2F340030548C15442F002021046704700BFB4F2FF1FB8F2FF1FBCF2FF1F47
:402FC0001C4B19781C4A13880B449BB2138000230EE01A4A51680978C9B21948C1545168013151600133DBB21188013989B21180124A128892B20AB1072BEAD90D4A127842
:40300000D2B2082A00D05BB10E490A7882F080020A700F210C4A117002210C4A117004E0022209490A7009490A70094A1370014A13707047C8F2FF1FCAF2FF1FD4F2FF1F25
:40304000006000405EF3FF1FE9F2FF1FCCF2FF1FECF2FF1F0222074B1A708022064B1A700F22064B1A700023054A1370054A137001207047CCF2FF1F5EF3FF1FE9F2FF1F04
:40308000C8F2FF1FECF2FF1F08B5FFF799FF08BD10B4184B197801F00F010239C9B2164A13880B449BB21380002010E0134B5C68134A125CD2B222705A6801325A600130A0
:4030C000C0B20139C9B21A88013A92B21A800B4B1B889BB20BB10029E8D10A4B19700A4A137883F0800313700B22084B1A705DF8044B704729600040CAF2FF1FD4F2FF1FE8
:4031000000600040ECF2FF1F5EF3FF1FE9F2FF1F0623064A1370064A13708022054B1A700022054B1A700120704700BFCCF2FF1FE9F2FF1F5EF3FF1FECF2FF1F064B9B6819
:4031400043B1054B9A6810709A6804490988518000229A60704700BFD4F2FF1FCAF2FF1F08B5134B1A78D2B21A701B78DBB213F0800F02D00F4A137008BD0220FFF7DEFFB3
:403180000D4B1B7803F06003202B05D0402B06D043B900F0D5FD06E001F05CF903E000F07DFF00E0002010B90322024B1A7008BD28600040E9F2FF1F0060004008B5084B39
:4031C0001978084A13880B449BB213800022064B1A700120FFF7B2FF0322044B1A7008BDC8F2FF1FCAF2FF1FCCF2FF1FE9F2FF1F08B50B4B1B78DBB2042B06D0062B07D0D3
:40320000022B0BD1FFF7DAFF08BDFFF741FF08BD0320FFF793FF0322024B1A7008BD00BFCCF2FF1FE9F2FF1F08B50022044B1A700120FFF783FF0322024B1A7008BD00BF25
:40324000CCF2FF1FE9F2FF1F08B50B4B1B7813F0FF0F07D0084A137843F0800307490B70002313700022064B1A700120FFF766FF0322044B1A7008BDEAF2FF1F0860004009
:40328000CCF2FF1FE9F2FF1F08B5094B1B78DBB2042B06D0062B07D0022B07D1FFF7F4FE08BDFFF7C1FF08BDFFF7CEFF08BD00BFCCF2FF1F08B5284B1B78DBB213F0100F39
:4032C00048D013F0800F0CD003F00F03012B16D1FFF746FF214B1B7813F0800F11D1012312E013F0400F03D0FFF7CEFF01230BE013F0200F07D0FFF77BFF012304E00023D1
:4033000002E0002300E0002323B3134B1B7813F0800F1FD1124B1B78124A12781343124A13701278D2B29A4214D10C4B1B78DBB2094A127812F0800F07D1084B1B78DBB232
:40334000054A1370137803F00F03044A1278D2B29342EAD108BD00BF28600040E9F2FF1F5EF3FF1FECF2FF1F296000400022064B1A80064B9B682BB1044A916800230B7064
:4033800092685380704700BFCAF2FF1FD4F2FF1F08B50F4B1B889BB213B9FFF75BFE15E002220C4B1A7000220B4B1A70FFF7DEFF0A4AD179937943EA0123054A128892B2F3
:4033C0009A4201D9024A1380FFF7FAFD012008BDD4F2FF1FCCF2FF1F5EF3FF1F0060004008B504220B4B1A7080220B4B1A70FFF7BDFF0A4AD179937943EA0123084A1288B8
:4034000092B29A4201D9064A13800B22054B1A70012008BDCCF2FF1F5EF3FF1F00600040D4F2FF1FE9F2FF1F0A4A137803F0FE031370094B9B7C094B1B7B03F00303012B2A
:4034400004D0064AD37B83F08003D3730122034B5A7370470B600040FC5F0040F0F2FF1F0B4A137803F0FD0313700A4B93F82230094B1B7E03F00303012B04D0064AD37E54
:4034800083F08003D3760122034B5A76704700BF0B600040FC5F0040F0F2FF1F0D4A137803F0FB0313700C4B93F832300B4B93F8243003F00303012B06D0084A92F82730D3
:4034C00083F0800382F827300122044B83F82520704700BF0B600040FC5F0040F0F2FF1F704700BF08B5FFF777FB08BD08B50B4B18780138C0B200F0C9F9094B1B79DBB242
:4035000000EBC30042690749CB5C02EBC3035B68596A0B78044A1380516008BDEBF2FF1F006000405CF3FF1FD4F2FF1F08B50D4B18780138C0B200F0A9F90B4B1B79DBB263
:4035400000EBC30042690949CB5C02EBC3035B68DB69597813F8022B42EA012204490A804B6008BDEBF2FF1F006000405CF3FF1FD4F2FF1F10B50022194B1A80194B18785B
:403580000138C0B200F082F91749CB78DAB20B79DBB200EBC3004169012B20D81348C35C01EBC3014968531EDBB2022B17D802F10053013B01EBC3000B4A9278D2B211F827
:4035C000333093420BD3406802EB4202920081184C68034B5C60825A1A808A689A6010BDD4F2FF1FEBF2FF1F006000405CF3FF1F08B55B4B1A79D2B21B7813F0800F4DD01C
:40360000574B5B78013B052B00F28D80DFE803F0212B3B8B8B03524BDB78DBB2212B09D1FFF764FF4F4B1B889BB2002B7DD0FFF7AFFE08BD4A4BDB78DBB2222B77D1FFF7EA
:4036400075FF484B1B889BB2002B72D0FFF7A0FE08BDFFF78FFF434B1B889BB2002B6AD0FFF796FE08BD012A67D83D4B9B7813F0FF0F64D13B4901230B803B4B1A444A60CB
:40368000FFF786FE08BD012A5BD8364901230B80364B1A444A60FFF77BFE08BD304B5B78DBB20A2B0DD00B2B2ED0092B4BD1FFF761FF2C4B1B889BB2002B46D0FFF790FE8F
:4036C00008BD012A43D8264B9B7813F0FF0F40D1234BDB78DBB224498B548B5C2449895CDBB28B4203D20021214B995409E0204B9B5CDBB2012B04D91B4B9B5CDBB21C496D
:403700008B54FFF705FD08BD012A24D8144B9B78DBB2012B21D8124B9B78DBB213498B54FFF7F6FC08BD002008BD002008BD002008BD002008BD002008BD002008BD00203F
:4037400008BD002008BD002008BD002008BD002008BD002008BD002008BD002008BD00BF00600040D4F2FF1F6CF3FF1F64F3FF1F68F3FF1F08B500F0AFFC08BD70B588B019
:40378000054603AC174E0FCE0FC43368237035B322232B7003236B7001A8FEF743FC002402231AE008AA224412F81C2C08A901EB121111F8141CE954581C00212954981C7D
:4037C00002F00F0208AE324412F8142C2A54DA1CA9540134E4B20433DBB2212BE2D908B070BD00BFBC9B000010B401223DE0114613010C242148C45402EB42039B002048F9
:4038000003445B7913F0FF0F12D002EB42039B0003441B7913F0800F04D01001194B03449C700AE01001174B03440820987004E01001144B0344802098704B000B449B0058
:403840000F480344DC88E4B208010C4901448C71D888C0F30720C871D888C0B20871DB88C3F307234B710132D2B2082ABFD9FF22054B1A705DF8044B704700BF70600040AD
:40388000F0F2FF1FFC5F00400A600040074B1B78074A02EBC30253681A7C824203D903EBC003586970470020704700BFC9F2FF1F0C9C0000F8B5404B1B7813F0FF0F79D085
:4038C0003D4B18780138C0B2FFF7E0FF047AC2683A4B1878C0B200236AE01178814264D13749095CC9B25578A9425ED1917801F07F01D67806F00306DFF8C8E04D000D44E8
:40390000AD000EEB05074FF0000C87F803C092F802C087F804C092F803C00EF805C095883D8192F90250002D0DDA012E01D1072700E00D274D000D44AD00224E35446F717E
:4039400001266E700CE0012E01D1052700E009274D000D44AD001B4E35446F7100266E70DFF868E00F010EEB07060125B57001FA05F529448900134D29440D89C5F3072556
:403980000EF807500D89EDB27570CE88F6B20E4D3D44AE71CE88C6F30726EE71CE88F6B22E71C988C1F30721697108320133DBB2A34292D3F8BD00BFEBF2FF1FE0F2FF1FB4
:4039C0005CF3FF1FF0F2FF1F70600040FC5F0040034B1A78034B03EBC2035868704700BFC9F2FF1F0C9C000008B5074B18780138C0B2FFF74BFF28B14268127900EBC203CF
:403A0000586908BD002008BDEBF2FF1F2DE9F84300220EE06D4E53009D18AD00741900217155A170E1702181A172617061710132D2B2082AEED940B90AE000226449CA54A1
:403A40006449CA540133DBB200E00023012BF4D9614B1B7813F0FF0F00F0B5805E4B18780138C0B2FFF712FF80464368DB7913F0400F05D0594A137843F00103137004E0A6
:403A8000564A137803F0FE03137098F808704FF0000901266CE0D8F80C50002464E0AB7803F07F039E425CD1314606EB46039B00464803441B899BB2A888834205D206EB99
:403AC00046039B00414A134418812B784048C35CDBB26878834244D195F802C03B484B000B449B0000EB030E8EF804C095F803E000F803E0EB7803F0030395F9020000282A
:403B000011DA012B02D14FF0070C01E04FF00D0CDFF8B8E04B0058188000704480F805C00123437012E0012B02D14FF0050C01E04FF0090C25484FEA410E0EEB01039B009B
:403B4000034483F805C0194600234B70AB790A2B01D0022B05D1284631464A46FFF708FA814608350134E4B2BC4298D30136F6B2082E90D9D8F80C0000220CE0837803F059
:403B80007F0310F8084B03EB43039B0014490B449C700132D2B2BA42F0D3FFF725FF114B1860002001220AE0084C5300991889002144C8800B89184480B20132D2B2082A77
:403BC000F2D9FFF711FEBDE8F88300BFF0F2FF1F5CF3FF1FD0F2FF1FEBF2FF1FEDF2FF1FF8F2FF1FE4F2FF1F08B5154B1A7902F07F02531EDBB2072B20D8530013449B0045
:403C000010490B44997841F0010199700021D970597841F0020159701B7913F0800F05D01201094B13448D229A7004E01201064B134489229A70FFF76BFA08BD002008BD8C
:403C400000600040F0F2FF1FFC5F0040264B1B7903F07F035A1ED2B2072A43D810B55A001A44920021490A44917801F0FE0191700021D17019017F241D484454517801F0B0
:403C8000FD015170127912F0800F14D003EB4302920016490A445278D2B2012A05D11B0102461A440C23937019E01B01104A1A440D23937013E003EB430292000B490A4436
:403CC0005278D2B2012A05D11B01094A1A440823937004E01B01064A1A4409239370FFF717FA10BD0020704700600040F0F2FF1FFC5F004010B50E4B1C79E4B20D4B187886
:403D00000138C0B2FFF7C2FD43681B799C4201D9022C0AD8084A135DDBB208490B55044B9B78DBB21355012010BD002010BD00BF00600040EBF2FF1F5CF3FF1FD0F2FF1F43
:403D400010B5964B1B78DBB20021954A118013F0800F00F0B380914A5278D2B20A2A00F27981DFE812F06F00770177017701770177010B00770198007701A000874BDB7806
:403D8000DBB2012B09D1FFF723FE4268844B5A6012221A80FFF7FCFA10BD804BDB78DBB2022B13D17D4B9878FFF770FD002800F0538142687A4B5A605A68D1785A689278BC
:403DC00042EA01221A80FFF7E3FA10BD734BDB78DBB2032B05D032E00A7811440133DBB201E000236F496D4A9278D2B29A4203D90A7812F0FF0FEFD1684B9B78DBB2EE2B78
:403E000000D16949654B9B7813F0FF0F0BD0634B9B78DBB2654A127C934204D1644C2046FFF7ACFC21460B7813F0FF0F00F016810B785B4A13805160FFF7AAFA10BD00F022
:403E400009FB10BD13F0030317D0022B40F0088153490B80514B1B7903F07F0303EB43039B00544A13449A78D2B2534B1A7000225A704B60FFF78CFA10BD494902230B802B
:403E80004E4B1A78D2B24C4B1A7000225A704B60FFF77EFA10BD424B01221A80484A5A60FFF776FA10BD3E4A012313803B4B1B7944490B445360FFF76BFA10BD374A52783C
:403EC000013A0A2A00F2CE80DFE812F04B00CC009700CC000B00CC00CC00CC001300CC0030002E4B9B78DBB2374A1370FFF710F910BD2A4B9B7803F0FF041BB1601EC0B22F
:403F0000FFF7C4FC04B110B9002C40F0AD802C4B1B78DBB29C4206D0294B1C7001202B4B1870FFF773FDFFF7F3F810BDFFF7E2FE002800F09B80194A1379DBB21279D2B2B2
:403F400023490A70234AD25C1E49C95CD3B28B4204D001221D4B1A70FFF7ACFCFFF7D8F810BD03F00303012B36D04BB1022B7FD10A4B9B7813F0FF0F7CD1FFF767FE10BD36
:403F8000064B9B78DBB2012B76D10C4A137803F0FD031370FFF7BCF810BD00BF00600040D4F2FF1FAC9C0000F89B0000909D000074F3FF1FF0F2FF1F8CF1FF1FEDF2FF1F67
:403FC000EBF2FF1F5CF3FF1FEAF2FF1FE8F2FF1FE0F2FF1FD0F2FF1F2D4B1B79DBB2012B4CD82B4B98781B79DBB22A49CA5C22EA0002CA54FFF78CF810BD03F00303012BD6
:4040000017D04BB1022B3BD1214B9B7813F0FF0F38D1FFF7E9FD10BD1D4B9B78DBB2012B32D11D4A137843F002031370FFF770F810BD174B1B79DBB2012B27D8144B9878F6
:404040001B79DBB21349CA5C22EA0002CA54FFF75FF810BD002010BD002010BD002010BD002010BD002010BD002010BD002010BD002010BD002010BD002010BD002010BD28
:40408000002010BD002010BD002010BD002010BD0060004060F3FF1FEDF2FF1F08B50B4B1B7813F0800F0CD0084B5B78DBB2012B09D1074B074A5A6012781A80FFF768F999
:4040C00008BD002008BD002008BD00BF00600040D4F2FF1FD09B0000024B1878C0F38010704700BF8F45004010B500F087F800F05BF9D0B900F09AF90446072812D102E017
:404100000120FDF7ADFE0A4B1B7813F0020FF7D0074B1B7813F0020F04D0054B1B789B0800D1002400F066F900E00424204610BD2247004010B500F061F800F035F910BB8A
:40414000012000F013F9072818D11048022100F067F802280AD102E00120FDF781FE0C4B1B7813F0020FF7D0002409E0084B1B7813F0020FE9D04FF0FF3401E04FF0FF347B
:4041800000F038F900E00424204610BD70F3FF1F2247004008B5FFF7A7FF034610B9FFF7C9FF0346184608BD08B5FDF739FE0F4A137843F0080313701032137843F008034C
:4041C0001370C8220A4B1A700A4A137843F0100313701032137843F010031370064B1B7813F0200FFAD0FDF71FFE08BDA043004001470040AC4300400047004008B5FDF76D
:404200000FFE064A137843F0080313701032137843F008031370FDF707FE08BDA043004070B506460D4600240CE00120FDF718FE064B1B7813F0010FF7D0054B1B7833553E
:404240000134E4B2AC42F3D3204670BD224700402047004030B43E2801D81F2B03D93F2827D90F2B27D8174C247814F0020F24D0154CB6252570D42525700125257002349B
:40428000247814F0020F1AD10F4C2070C1F300202070C9B22170591EC9B22170002104E0545C094804700131C9B29942F8D3072006E0012004E0012002E0042000E0092075
:4042C00030BC70472247004020470040124B1B7813F0020F19D010B4104BB6241C70D5241C7002241C7002331B7813F0020F0ED10A4B1870002304E0CC5C08480470013363
:404300009BB29342F8D3072002E00420704709205DF8044B704700BF224700402047004030B4104C247814F0020F15D00E4CB6252570D8252570052525700234247814F052
:40434000020F0BD1084C2070080A2070C9B2217022702370072002E0042000E0092030BC704700BF22470040204700400C4B1B7813F0020F0FD00B4BB6221A70E1221A708F
:404380000E221A7002331B7813F0020F05D1054B187007207047042070470920704700BF224700402047004010B5FDF739FD0F4B1B78A3B901220D4B1A700D4B1B6813F0F6
:4043C000010F0ED00A4A136823F00103136000BF00BF00BF0122054B5A60002402E0042400E00024FDF720FD204610BD90F1FF1F0400084008B5FDF713FD0A4B00221A70E9
:404400005B68012B0AD1084A136843F00103136000BF00BF00BF0022024B5A60FDF704FD08BD00BF90F1FF1F04000840074B1B7813F0020F08D0064BB6221A70E0221A7061
:404440000D221A700720704704207047224700402047004008B5144B1B7803F00303012B02D0022B04D00FE00F4B1B79DBB20CE00D4B1B7903F07F0303EB43039B000B4AF8
:4044800013449B78DBB200E00023094A1268D35C022B04D0032B05D1FFF7AAF808BDFEF775FC08BD002008BD00600040F8F2FF1FE4F2FF1F30B5214A21F00043934287B048
:4044C0001BDD1F4A934205DD02460B4602F0E8F907B030BD02AA00F047FF00F0030001281AD002280FD008B3DDE9020101230093DDE9042301F03CFFEAE70022002301F048
:404500000FFA07B030BDDDE90201DDE9042301F007FA01F10041DBE70090DDE90423DDE9020101F025FF01F10041D1E7DDE90201DDE9042301F0F4F9CAE700BFFB21E93FA3
:40454000FFFFEF7F30B5224A21F00043934287B01BDD204A934205DD02460B4602F0A0F907B030BD02AA00F0FFFE00F0030001281ED0022811D010B3DDE90201DDE9042316
:4045800001F0CEF901F10041EAE7002300930022002301F0EDFE07B030BD01230093DDE90201DDE9042301F0E3FE01F10041D7E7DDE90201DDE9042301F0B2F9D0E7012466
:4045C000DDE90201DDE90423009401F0D1FEC7E7FB21E93FFFFFEF7F2DE9F04F8BB01F4680468946164600F06FF9DFF8D8A204469AF900300D46013304D03046394602F075
:4046000007F820B9204629460BB0BDE8F08F4046494601F0FDFF834660BB304639460022002302F059FD0028ECD09AF900309E4C01229E4900208DE814005A1CCDF820B037
:40464000CDE90289CDE90467CDE906010DD0022B0BD0684602F008F8002800F09380089B1BB103F0DDF8089B0360DDE906010BB0BDE8F08F404649460022002302F02CFD0D
:40468000F8B1304639460022002302F025FD834600284ED084489AF900300121002200240025CDE90289CDE90467CDE90645019000910892002BCCD07C4B0022CDE906232A
:4046C000D3E72046294601F00FFF834600285ED0204629460022002302F0FEFC002891D04046494601F000FF00288BD03046394601F0FAFE002885D09AF900306A48042101
:40470000002200240025022BCDE90289CDE90467CDE9064501900091089200F08880684601F0A2FF002800F08280089B002B9CD097E73046394601F0D7FE00283FF462AF91
:40474000304639460022002302F0D0FC00283FF459AF55499AF800300122CDF820B0CDE90289CDE9046701910092002B3CD050490020022BCDE9060130D103F051F82123E5
:404780000360D2E703F04CF82123036067E74046494601F0A9FE00289AD03046394601F0A3FE002894D02046294601F031FF00BB3D4A9AF8004001230890CDE90289CDE9A2
:4047C0000467019200937CB10020002102460B4602F044FB022CCDE90601CED0684601F043FF0028A1D1C8E700220023CDE90623F4E72D499AF900300322CDF820B0CDE995
:404800000289CDE9046701910092ABB9294D4FF060444046494600220023CDE9064502F065FC50BB9AF90030022B7FF478AF02F0F7FF2223036078E71F4D00244046494614
:4048400000220023CDE9064502F050FC0028E9D000221A4B3046394602F0D6F904460D4601F00AFF22462B4602F036FC0028D9D10F4B0022CDE90623D4E700220F4B304628
:40488000394602F0C1F904460D4601F0F5FE22462B4602F021FC0028C4D1094B4FF06042CDE90623BEE700BFA49D00000000F03F0000F0FFFFFFEF470000F07F0000E03F0E
:4048C000FFFFEFC7A087FF1F2DE9F04F144623F00047024657EA04000E468FB01D469C46214634D06E4B26F0004A9A459346B14626DC24D09F4223DC694B9F4200F08F80B4
:40490000B9F1000FC0F28F804FF0000879BB644B9F4200F0A580634B9F4267D0BCF1804F00F0E283604B9C4521D1B9F1000F1EDB104631460FB0BDE8F04F00F029BF62B1BB
:404940000AF1404000F5801050EA0B0007D10346544918460FB0BDE8F08F5745CCDD53480FB0BDE8F04F01F081BE4FF0000810463146CDF808C0009201F0B2FD009ADDF8FE
:4049800008C0BBF1000F20D04FEAD97909F1FF3958EA09037AD0464B9F4240F38F8003F104739F4240F31084424B9A4540F39283BCF1000F40F3928337A1D1E900010B46CC
:4049C000024602F021F90346C3E7BAF1000F04D0344B29F0404E9E45D6D1BCF1000FC0F2B683B9F1000F08DB0346B2E7BCF1000FC0F2528413463146ABE70AF1404A0AF5E3
:404A0000801A58EA0A0340F05E8402460B4601F047FF0B46024602F021FA034699E700293FF46EAF8CE7244B9F422CDCA3F154739F427FF769AF40F213403B15834240F361
:404A40004B84C3F58663033321FA03F000FA03F38B427FF459AF00F00100C0F1020855E70AF1404303F5801353EA0B0300F03983104B9A4540F36483BCF1000FC0F22E83EF
:404A80002346294665E74FF002083FE7104631463346BCE7AFF300809C7500883CE4377E0000F07F0000F03F0000E03F1C9A00000000E041FFFFEF3FFFFF3F43BAF5801F5C
:404AC0004FF0000205DACA4B02F09EF88A466FF034024FEA2A53C74ECAF3130AA3F2FF334AF07F571344B2450C9347F4401740F3D083C14B9A4540F307840026B4460C9BA3
:404B0000A7F5801701330C933946BC4B4FEACC0C6344D3E900AB52465B46CDF834C0CDE9060101F0BDFE52465B46CDE90801DDE9060101F0B7FE02460B460020B04902F060
:404B40008DF902460B46DDE90801CDE90A2302F05BF802460B46CDE90223CDE904237B1043F0005303F5002399190020002306460F460293DDE902231046194632463B46DE
:404B8000CDE9000102F040F802460B46DDE9080101F086FE5246CDE908015B463046394601F07EFE02460B46DDE9060101F078FE02460B46DDE9000102F026F802460B4607
:404BC000DDE9080101F06CFEDDE90A2302F01CF8DDE90423CDE906011046194602F014F802460B4606460F4602F00EF86EA3D3E9002382468B463046394602F005F86CA387
:404C0000D3E9002301F04EFE32463B4601F0FCFF69A3D3E9002301F045FE32463B4601F0F3FF67A3D3E9002301F03CFE32463B4601F0EAFF64A3D3E9002301F033FE324611
:404C40003B4601F0E1FF62A3D3E9002301F02AFE02460B465046594601F0D6FFDDE9042306460F46DDE9000101F01CFEDDE9062301F0CAFF32463B4601F014FEDDE900671F
:404C800082468B4632463B463046394601F0BCFF00225C4BCDE9080101F004FE52465B4601F000FE02980F460646DDE9000132463B4601F0A9FF32463B46CDE90001DDE914
:404CC000060101F0A1FF0022CDE906014D4B3046394601F0E5FDDDE9082301F0E1FD02460B465046594601F0DBFDDDE9042301F08BFF02460B46DDE9060101F0D3FD82462F
:404D00008B46DDE9000152465B4601F0CBFD32A3D3E9002302980F46064601F075FF30A3D3E90023CDE904013046394601F06CFFDDE90023CDE906013046394601F0B0FD9E
:404D400002460B465046594601F0AAFD26A3D3E9002301F059FF02460B46DDE9060101F0A1FDDDF834C0284BCDF818C06344D3E9002301F097FDCDE900010C9801F0DEFEDB
:404D800006460F46DDE90401204BDDF818C09C44DDE90023DCE900AB01F084FD52465B4636E000BFAFF30080EF4E454A287ECA3F65DBC9934A86CD3F01411DA96074D13FB5
:404DC0004D268F515555D53FFFAB6FDBB66DDB3F033333333333E33F000000E009C7EE3FF5015B14E02F3EBEFD033ADC09C7EE3F000040438E98030079B60B00C89D0000A2
:404E00000000F03F00000840B89D0000A89D0000CDE906AB01F046FD32463B4601F042FD029832463B4682468B4601F039FDDDE9062301F035FDDDE9042301F031FD0246E4
:404E40000B46DDE9000101F02BFDCDE9020108F1FF3858EA09030CBFD54BD64B0022CDE904230023CDE900450093DDE90067204632463B46294601F013FD52465B4601F0E8
:404E8000C3FEDDE90223804689462046294601F0BBFE02460B464046494601F003FD04460D465246304639465B46CDE9024501F0ABFE06460F4620463B462946324601F0D1
:404EC000F1FCBD4B824699428946884640F3138101F13F4303F5E003034340F0E581A0A3D3E90023DDE9020101F0DCFC324604460D463B465046494601F0D2FC02460B46C4
:404F00002046294602F010F9002840F0CD814C462015A0F2FE304FF4801101414144C1F30A50A64CA0F2FF35C1F3130BC0F5826003302C414BF4801B21EA040300224BFAB7
:404F400000FB3946304601F0ABFC06460F46DDE902018BEAE87B0BEBD87B32463B464FEA0B5A01F09FFC80A3D3E90023002420460D4601F049FE3246804689463B462046F0
:404F8000294601F08DFC02460B46DDE9020101F087FC77A3D3E9002301F036FE76A3D3E9002306460F462046294601F02DFE02460B463046394601F075FC06460F46324681
:404FC0003B464046494601F06DFC42464B4604460D4601F065FC02460B463046394601F05FFC2246804689462B462046294601F00BFE63A3D3E9002306460F4601F004FE29
:4050000061A3D3E9002301F04BFC32463B4601F0FBFD5FA3D3E9002301F044FC32463B4601F0F2FD5CA3D3E9002301F039FC32463B4601F0E9FD5AA3D3E9002301F032FCB9
:4050400032463B4601F0E0FD02460B462046294601F026FC06460F4632463B462046294601F0D2FD0022CDE900014FF080433046394601F015FC02460B46DDE9000101F096
:40508000EDFE424606460F464B462046294601F0BBFD42464B4601F005FC02460B463046394601F0FDFB22462B4601F0F9FB02460B4600203F4901F0F3FB8A44BAF5801F51
:4050C0000246C0F227815346DDE9040101F09CFD03463EE4BCF1000FFFF66EAC0023194637E40B46334934E433461046314601F08BFD03462DE4324B21F000449C4240F36C
:40510000FA80304B0B4403430CD132463B4601F0C7FB02460B46DDE9020101F0F1FF00283FF4F6AE20A3D3E90023DDE9040101F06BFD1DA3D3E9002301F066FD034608E42C
:40514000BCF1000FCADA234605F1004101E402460B460020174901F081FE42E4AFF30080FE822B654715973C00000000432EE63FEF39FAFE422EE63F396CA80C615C20BEFB
:40518000D0A4BE726937663EF16BD2C541BDBB3E2CDE25AF6A56113F93BDBE166CC1663F3E5555555555C53F59F3F8C21F6EA5010000F0BF0000F03FFFFF8F40FFFF0F005D
:4051C000FFCB904000346F3F634B9A4582DD634B9A453FF7EDAB0022604B01F061FB54A3D3E9002306460F4601F00EFD52A3D3E90023CDE900013046394601F005FD324674
:40520000CDE902013B463046394601F0FDFC002282468B4630463946514B01F0F5FC02460B4647A1D1E9000101F03AFB32463B4601F0EAFC02460B4600204A4901F030FB8D
:4052400002460B465046594601F0DEFC3EA3D3E9002301F0D9FC02460B46DDE9020101F01FFB06460F46DDE9000132463B4601F019FBDDE90023002082468B4601F010FB9E
:4052800002460B463046394601F00AFBCDE90201DDE50026B44637E4334600202F4901F0DDFD0346FFF755BB29A3D3E90023DDE9040101F0A9FC26A3D3E9002301F0A4FC44
:4052C0000346FFF746BBB8F1010F03467FF441AB01F10041FFF73DBB00297FF446ABC3F58263033347FA03F000FA03F3BB4217D08846FFF710BB1B4B9C423FF709AEDDE9FE
:405300000023924693462EE64FF480264FF0010CFFF7FABB5A4601F03FFA02460B46D3E600F00100C0F10208FFF7F5BAAFF30080000000604715F73F44DF5DF80BAE543E61
:40534000555555555555D53FFE822B654715F73F9C7500883CE4377EFEFFEF3F0000F03F0000D03F0000E03F2DE9F04F924C21F00047A7428FB00E467FDD14468F4A974214
:4053800026DC83A3D3E90023002940F39D8101F087FA8B4B80469F42894600F083807EA3D3E9002301F07CFA02460B464046C4E90023494601F074FA77A3D3E9002301F08D
:4053C0006FFA0125C4E9020128460FB0BDE8F08F7C4A974240F383807B4A974258DC3D15A5F21645A7EB05518B46824601F0A6FE01F0A4FB8046894642464B4650465946A9
:40540000CDE9088901F04CFA0022704B01F0FCFB8B46824601F092FE01F090FB8046894642464B4650465946CDE90A8901F038FA0022664B01F0E8FB00220023CDE90C0195
:4054400001F04AFE002800F06781002340464946002201F041FE002814BF012302235C480221019000912A4608A8214600F07CFB002EC0F24781054606E0C2E900010025A4
:405480000024C2E90245002528460FB0BDE8F08F02460B4601F004FA0025C4E90201C4E90001F1E73EA3D3E9002301F0F9F93EA3D3E9002306460F4601F0F2F902460B4604
:4054C0003046C4E90023394601F0EAF936A3D3E9002301F0E5F90125C4E90201D4E700F0FFFF33A3D3E900238046894601F08CFB0022384B01F0D6F901F020FE054601F09B
:405500001DFB23A3D3E90023CDE9040101F07CFB02460B464046494601F0C2F91EA3D3E9002382468B46DDE9040101F06DFB1F2DCDE902015046594650DC274B6A1E53F829
:405540002230BB424AD0DDE9022301F0A9F902460B4681468846C4E900234A4643465046594601F09DF9DDE9022301F099F902460B46002EC4E9022386DA4A4608F100433E
:4055800001F1004184E80C00E160A0606D427BE700004054FB21F93F3163621A61B4D03D0000601A61B4D03D7370032E8A19A33B83C8C96D305FE43FFB21E93F7BD9024096
:4055C000FB21F93FFB213941FFFFEF7F00007041589E00000000E03FD89D0000DDE9022301F05EF988463F15C8F30A53FB1A102B8146C4E90001B0DD59A3D3E90023DDE9BA
:40560000040101F001FB8046894642464B465046594601F045F9CDE90601DDE906235046594601F03DF942464B4601F039F94EA3D3E9002380468946DDE9040101F0E4FA23
:4056400042464B4601F02CF9CDE90201DDE90223DDE9060101F024F90B4602468846C1F30A517F1A312F8146C4E9002374DD40A3D3E90023DDE9040101F0C6FA8046894652
:40568000DDE9060142464B4601F00AF982468B46DDE9060152465B4601F002F942464B4601F0FEF834A3D3E9002380468946DDE9040101F0A9FA42464B4601F0F1F8CDE932
:4056C0000201504659463EE701F0ECF82E4B80469F42894622D02AA3D3E9002301F0E2F802460B464046C4E90023494601F0D8F823A3D3E9002301F0D5F84FF0FF35C4E95E
:405700000201C1E66268E36802F1004203F1004345426260E360B7E60323A0E610A3D3E9002301F0BFF810A3D3E9002306460F4601F0B8F802460B463046C4E900233946FD
:4057400001F0AEF808A3D3E9002301F0ABF84FF0FF35C4E9020197E6DDE906ABFDE600BF0000601A61B4D03D7370032E8A19A33B0000002E8A19A33BC14920259A837B39BB
:405780003163621A61B4D03DFB21F93FAFF300802DE9F041604E0C46B6460E40764505460B4600F098800029024676DD5FEA215E00F08180AEF2FF3EC3F313031EF0010F0D
:4057C00043F480135ED100273C46D10F01EB43034FEA6E0E520016204FF4001165189D424FEAD2764FEA420202DC5B1B6C180F44013806EB43034FEA5101EFD18446202614
:405800004FF000410AE0A34220D0D50F013E4FEA510105EB43034FEA420220D09C420CEB0105F0DA002D05EB010C09DBA0461B1B954288BF03F1FF334446521B0844E4E7B7
:40584000BCF1000FF2DB04F10108F0E7954217D8002D05EB010C48DB98460023ECE7134315D140087B1003F17F5303F50013FA0703EB0E57394648BF40F00040BDE8F081A3
:405880001C46C2E7D10F01EB430352009BE7411C31D000F001031844E3E721F000460643ECD079BB8E46D30AAEF1150E5205002BF9D0DC0222D400215B00D80201F1010113
:4058C000FAD5C1F10100C1F1200422FA04F4234386448A406EE702460B4601F095F92A46234600F0DFFFBDE8F081BCF1000FAADAA0460023A0E701373046B3E7202401209B
:405900000021E2E702460B4600F0CAFF02460B4601F0A4FAB2E700BF0000F07F000000002DE9F04F21F00047B7F1795F85B00C4692469B4605466BDA01F000FC002800F03A
:40594000E7802A4623462846214601F05DF974A3D3E900238046894601F056F972A3D3E9002300F09FFF42464B4601F04DF970A3D3E9002300F094FF42464B4601F044F972
:405980006DA3D3E9002300F08DFF42464B4601F03BF96BA3D3E9002300F082FF42464B4601F032F968A3D3E9002300F07BFF42464B4601F029F9CDE900014046494600223D
:4059C000634B01F021F9DDE9002306460F464046494601F019F95246804689465B462846214601F011F902460B464046494600F057FF02460B463046394600F051FF0246A4
:405A00000B460020534900F04BFF05B0BDE8F08F02460B4601F0F8F841A3D3E900238046894601F0F1F840A3D3E9002300F03AFF42464B4601F0E8F83DA3D3E9002300F016
:405A40002FFF42464B4601F0DFF83BA3D3E9002300F028FF42464B4601F0D6F838A3D3E9002300F01DFF42464B4601F0CDF836A3D3E9002300F016FF4B46424601F0C4F853
:405A8000354BCDE900019F4297DD344B00229F4238DCA7F5001300202E4916461F4600F0FFFECDE90201404649460022284B01F0ABF832463B4600F0F3FEDDE900230646CA
:405AC0000F464046494601F09FF85246804689465B462846214601F097F802460B464046494600F0DDFE02460B463046394600F0D7FE02460B46DDE9020100F0D1FE05B0EF
:405B0000BDE8F08F164B0026CDE90223154FCAE71049002005B0BDE8F08F00BFAFF30080D43888BEE9FAA8BDC4B1B4BD9EEE213EAD529C804F7E923E9015CB19A001FA3E12
:405B40007751C1166CC1563F4C5555555555A53F0000E03F0000F03F3233D33F0000E93F0000E73F0000D23F2DE9F04F9E467E4DD41E85FB0465E417C4EBA504ADF51D7D59
:405B800024EAE4742546A69E0D940C93E343774C03EB430354F8264002EBC303274609940EF1FF3426460394F41904900A910893A5EB060516D42C44013422AEA79F08E0D0
:405BC00057F8250000F0BAFF0135A542E6E9020108D0002DF4DA013500200021A542E6E90201F6D1099B002B31DB099A0C9B74A901EBC20BC3EB4373039A24A9DB0001EB3F
:405C0000C20800930DF5E479039B002BC0F297814446049B0026A3F1080A009B002708EB0305FAE9022374E8020100F0EDFF02460B463046394600F035FEAC4206460F46E0
:405C4000EFD1E9E90267D94508F10808DCD1099B10A99B4603F18043013B9B001A1D0A440B440F920E934FEACB039CA91A460693BBF1000F0B4453E9284528DD0DF5E87A12
:405C80000AEB02060FAF0022394B2046294600F0BBFF01F053FA00F051FF0022354B8046894600F0B1FF02460B462046294600F0F7FD01F043FA76E9022347F8040F4946CA
:405CC000404600F0EFFD564504460D46DBD1DDF82090204629464A4600F05EFD00224FF07F5304460D4600F08FFF00F005FC0022214B00F089FF02460B462046294600F086
:405D0000CFFD04460D4601F019FA804600F016FF02460B46204629464C4600F0C1FD002C06460F4640F3F1800BF1FF3110AB53F82130C9F1180043FA00F202FA00F55D1B1F
:405D400010A8C9F1170340F8215090441D41002D3FDDBBF1000F08F1010840F38482002214460FA912E000BFABAAAA2A609F00000000703E0000704100002040C3F180700D
:405D80000BB108600124013293450DDD51F8043F002CF3D0C3F1FF13013203F57F4393450B604FF00104F1DC089B002B0EDD012B00F0B380022B09D10BF1FF3210AB53F8E1
:405DC000223010A9C3F3150341F82230022D00F08380304639460022002301F07DF9002800F0C980099B0BF1FF3A53450DDC10AB0F9803EB8B03002253F8041D834242EA64
:405E00000102F9D1002A40F01482099B10AA013B52F82330002B40F024820E9A012352F8041D01330029FAD05B441A460B930BF1010393424DDC0D9A4FF0000803EB02098D
:405E40000B9A0C9B09F180495B44CBEB020BA79A09F1FF3902EB890200924FEACB02DB00059224AA02EB030B0793069B74AA02EB030A009B002653F8040F0027009300F0D7
:405E80005DFE039BEBE80201002B1BDB079B03EB0804069B08EB030524AB1C441D44049BA3F10809F9E9022374E8020100F0ACFE02460B463046394600F0F4FCAC4206463E
:405EC0000F46EFD1059B08F108089845EAE90267CFD1DDF82CB0C6E632463B460020BF4900F0DEFC06460F46002C3FF472AF089A0020BA4900F050FC02460B463046394633
:405F000000F0CEFC06460F4663E711D10BF1FF3310AA52F82350ED1519E70BF1FF3210AB53F8223010A9C3F3160341F822304DE70022AB4B01F0EEF858B9054649E70026C6
:405F40000027E9E90267D94508F108087FF45CAE7DE6BBF1000F08F10108C8BF02253FF7FEAE32463B4600209C4900F099FC022506460F462DE7089B30465A423946039540
:405F8000CDF8148000F008FC0022964B04460D4601F0C0F8002800F0E1810022924B2046294600F031FE01F0C9F8064600F0C6FD00228C4B00F028FE0B46024629462046B0
:405FC00000F06EFC01F0BAF8089B0BF1010A1833089310AB43F82B0043F82A60089A00207E4900F0D9FBBAF1000F04460D46C0F2CA800AF101034FEAC30874AF10AA00931B
:4060000002EB830907EB080659F8040D00F096FD22462B4600F0F8FD002266E90201724B2046294600F0F0FDBE4204460D46EBD1A8F1080806EB08039B460DF59879CDF8AA
:4060400018A0DDF824A04FF00008CDF81090BAF1000FC0F29580B8F1000FC0F29180DFF88C915D4600260027002401E0444510DCF9E90223F5E8020100F0C6FD02460B4696
:406080003046394600F00EFC0134A24506460F46ECDA049BABF1080B03EBC803C3E90067009B08F101089845D1D1A69BDDF818A0DDF81090032B3BD8DFE813F041000400A5
:4060C0000400D70000273E46009B09EBC304384674E90223314600F0E5FB4C4507460E46F5D1039B002B00F08B80D9E900010A9D334606F100463A466E602F6000F0D0FB09
:40610000BAF1000F03460CDD01261C46F9E90223204600F0C7FB0136B2450346F5DA039A0AB101F100411C460D460A9BC3E90245059B03F007000DF51D7DBDE8F08F002330
:406140001946009A09EBC2091C4679E90223204600F0A8FB0AF1FF3ABAF1FF3F0346F3D1039A0AB101F100411C460D460A9BC3E90045059B03F007000DF51D7DBDE8F08F2B
:406180000026002785E7A69B032BD1D8DFE803F04E3030020DF59879039A00231E46002A00F0C8800A9FD9F80800D9F80440D9F80C203B61059BD9F8001006F1004604F128
:4061C000004402F10042B86003F007007E617C60FA6039600DF51D7DBDE8F08F0000F03F0000E03F000070410000703E689F0000039B00273E460DF59879002B7FF475AFD4
:40620000D9E9000135463C4633460A9E3A46C6E9004500F045FBBAF1000F03463FF774AF1C460D460A9BC3E9024581E70023194696E7089A10AB53F82A30183A0395CDF818
:4062400014800892002B7FF4C9AE10AB03EB8A0353F8041D0AF1FF3A183A0029F8D00892BCE60123E0E500249EE5BAF1000F93DD4FEACA0809EB08039B46D3E900677BE95A
:40628000022330463946CDE9002300F00BFB04460D46DDE9000122462B4600F001FB02460B463046394600F0FDFACB4526462F46CBE90201CBE90045E1D1BAF1010F7FF7D3
:4062C0006BAF09EB08039A46D3E900670DF59C7B7AE902231046194632463B46CDE9000100F0E0FA04460D46DDE9000122462B4600F0D6FA32463B4600F0D4FADA45264673
:406300002F46CAE90201CAE90045E1D100231E4608F108044C4450AD184674E90223314600F0C0FAAC4203460E46F5D1039A002A7FF438AFD9E90045D9E9028918463146D3
:406340000A9A059BC2E9040103F00700C2E90045C2E902890DF51D7DBDE8F08F2046294600F0ECFE10ABDA4643F82B0036E600BF2DE9F04F21F00046B6F1795F85B00C46CC
:4063800090469946054604DA00F0D8FE002800F083802A4623462846214600F035FC2A46234606460F4600F02FFC3FA3D3E9002382468B463046394600F026FC3CA3D3E9BE
:4063C000002300F06DFA32463B4600F01DFC3AA3D3E9002300F066FA32463B4600F014FC37A3D3E9002300F05BFA32463B4600F00BFC35A3D3E9002300F054FA0E9BCDE9DA
:4064000000019BB3404649460022334B00F0FCFBDDE90023CDE902015046594600F0F4FB02460B46DDE9020100F03AFA32463B4600F0EAFB42464B4600F032FA24A3D3E9AF
:40644000002306460F465046594600F0DDFB02460B463046394600F025FA02460B462846214600F01DFA05B0BDE8F08FDDE900233046394600F0C8FB15A3D3E9002300F058
:406480000FFA52465B4600F0BFFB2A46234600F009FA05B0BDE8F08F2846214605B0BDE8F08F00BFAFF300807CD5CF5A3AD9E53DEB9C2B8AE6E55A3E7DFEB157E31DC73EE6
:4064C000D561C119A0012A3FA6F810111111813F495555555555C53F0000E03FAFF3008021F00041704700BF41F0004101F58010C00F7047000000002DE9F047C1F30A5801
:40650000A8F2FF36132E0B4604460D460246894607461DDC002E40DBDFF8F08048FA06F808EA010E5EEA020217D035A3D3E9002300F0B8F90022002300F0F6FD20B1002D7E
:4065400040DB29EA0805002738462946BDE8F087332E06DDB6F5806F2FD020461946BDE8F087A8F213424FF0FF3A2AFA02FA1AEA000FF2D022A3D3E9002300F093F9002254
:40658000002300F0D1FD0028DED0002D1FDB4D4627EA0A0738462946D8E719A3D3E9002300F080F90022002300F0BEFD0028CBD0002D1ADB00273D46C6E702460B4600F0E3
:4065C00071F9CCE74FF4801333419944B9E7142E08D0C8F5866808F10308012303FA08F31F19D4D309F10109D1E725F00042064B224318BF1D460027A6E700BFAFF300805B
:406600009C7500883CE4377E0000F0BFFFFF0F0010B431F0004408D0114BA1F580129A4208D804205DF8044B704718B902205DF8044B704701F1FF41094B01F5E0019942EA
:40664000EFD9B4F5801F01D20320EBE7054B9C4201D00020E6E7B0FA80F04009E2E700BFFFFFDF7F0000F07F0020704700200149704700BF0000F87FF0B5C1F30A5EAEF211
:40668000FF35132D83B002460B460C464FEAD17607462EDC002D48DB3C49294101EA030010432BD049080B4053EA02070CD04FF48023132D24EA010143FA05F444EA010499
:4066C0000CBF4FF0004700273149234601EBC606D6E900453A462046294600F0E3F8CDE90001DDE9000122462B4600F0D9F803B0F0BD332D06DDB5F5806F43D01046194647
:4067000003B0F0BDAEF2134E4FF0FF3121FA0EF10142F3D049080142D6D04FF0804320EA010143FA0EF70F43CEE721F000410143E4D0C3F3130141EA000CCCF1000141EAA4
:406740000C0C13495C0C4FEA1C3C0CF4002C640401EBC6014CEA0403D1E900452046294600F0A0F8CDE90001DDE9000122462B4600F096F8024621F0004141EAC6731046A3
:406780001946BDE700F08EF8BAE700BFFFFF0F00B09F000000000000F8B5C1F30A5604460D460B46174616BB21F00043034332D00022314B00F028FA304A044697420D468B
:4067C0000B4637DB40F2FE72C1F30A56363E3E44964215DD24A1D1E9000122462B4600F053F821A3D3E9002300F00EFAF8BD40F2FF72964224D040F2FE723E449642E9DCAC
:40680000002E09DD23F0FF4323F4E00343EA065520462946F8BDF8BD16F1350F15DA4CF250339F42D6DC12A1D1E9000122462B4600F02AF80EA3D3E9002300F0E5F9F8BD34
:4068400002460B4600F02EF8F8BD23F0FF4323F4E003363643EA0655204629460022084B00F0D2F9F8BD00BF9C7500883CE4377E59F3F8C21F6EA50100005043B03CFFFFD4
:406880000000903CAFF3008003F0004321F0004243EA0201704700BF81F0004102E000BF83F0004330B54FEA41044FEA430594EA050F08BF90EA020F1FBF54EA000C55EA83
:4068C000020C7FEA645C7FEA655C00F0E2804FEA5454D4EB5555B8BF6D420CDD2C4480EA020281EA030382EA000083EA010180EA020281EA0303362D88BF30BD11F0004F9C
:406900004FEA01314FF4801C4CEA113102D0404261EB410113F0004F4FEA03334CEA133302D0524263EB430394EA050F00F0A780A4F10104D5F1200E0DDB02FA0EFC22FA3B
:4069400005F2801841F1000103FA0EF2801843FA05F359410EE0A5F120050EF1200E012A03FA0EFC28BF4CF0020C43FA05F3C01851EBE37101F0004507D54FF0000EDCF1EF
:40698000000C7EEB00006EEB0101B1F5801F1BD3B1F5001F0CD349085FEA30004FEA3C0C04F101044FEA445212F5800F80F09A80BCF1004F08BF5FEA500C50F1000041EB27
:4069C000045141EA050130BD5FEA4C0C404141EB010111F4801FA4F10104E9D191F0000F04BF01460020B1FA81F308BF2033A3F10B03B3F120020CDA0C3208DD02F1140C65
:406A0000C2F10C0201FA0CF021FA02F10CE002F11402D8BFC2F1200C01FA02F120FA0CFCDCBF41EA0C019040E41AA2BF01EB0451294330BD6FEA04041F3C1CDA0C340EDC9D
:406A400004F11404C4F1200220FA04F001FA02F340EA030021FA04F345EA030130BDC4F10C04C4F1200220FA02F001FA04F340EA0300294630BD21FA04F0294630BD94F0C3
:406A8000000F83F4801306BF81F480110134013D4EE77FEA645C18BF7FEA655C29D094EA050F08BF90EA020F05D054EA000C04BF1946104630BD91EA030F1EBF0021002014
:406AC00030BD5FEA545C05D14000494128BF41F0004130BD14F580043CBF01F5801130BD01F0004545F0FE4141F470014FF0000030BD7FEA645C1ABF194610467FEA655C71
:406B00001CBF0B46024650EA013406BF52EA033591EA030F41F4002130BD00BF90F0000F04BF0021704730B54FF4806404F132044FF000054FF0000150E700BF90F0000F40
:406B400004BF0021704730B54FF4806404F1320410F0004548BF40424FF000013EE700BF42004FEAE2014FEA31014FEA02701FBF12F07F4393F07F4F81F06051704792F08F
:406B8000000F14BF93F07F4F704730B54FF4607401F0004521F0004120E700BF50EA010208BF704730B54FF000050AE050EA010208BF704730B511F0004502D5404261EB48
:406BC00041014FF4806404F132045FEA915C3FF4DCAE4FF003025FEADC0C18BF03325FEADC0C18BF033202EBDC02C2F1200300FA03FC20FA02F001FA03FE40EA0E0021FA5B
:406C000002F11444C1E600BF70B54FF0FF0C4CF4E06C1CEA11541DBF1CEA135594EA0C0F95EA0C0F00F0DEF82C4481EA030621EA4C5123EA4C5350EA013518BF52EA033507
:406C400041F4801143F4801338D0A0FB02CE4FF00005E1FB02E506F00042E0FB03E54FF00006E1FB03569CF0000F18BF4EF0010EA4F1FF04B6F5007F64F5407404D25FEAE8
:406C80004E0E6D4146EB060642EAC62141EA55514FEAC52040EA5E504FEACE2EB4F1FD0C88BFBCF5E06F1ED8BEF1004F08BF5FEA500E50F1000041EB045170BD06F00046FC
:406CC00046EA010140EA020081EA0301B4EB5C04C2BFD4EB0C0541EA045170BD41F480114FF0000E013C00F3AB8014F1360FDEBF002001F0004170BDC4F10004203C35DAD2
:406D00000C341BDC04F11404C4F1200500FA05F320FA04F001FA05F240EA020001F0004221F0004110EBD37021FA04F642EB06015EEA430E08BF20EAD37070BDC4F10C046C
:406D4000C4F1200500FA04F320FA05F001FA04F240EA020001F0004110EBD37041F100015EEA430E08BF20EAD37070BDC4F1200500FA05F24EEA020E20FA04F301FA05F289
:406D800043EA020321FA04F001F0004121FA04F220EA020000EBD3705EEA430E08BF20EAD37070BD94F0000F0FD101F00046400041EB010111F4801F08BF013CF7D041EA89
:406DC000060195F0000F18BF704703F00046520043EB030313F4801F08BF013DF7D043EA0603704794EA0C0F0CEA135518BF95EA0C0F0CD050EA410618BF52EA4306D1D189
:406E000081EA030101F000414FF0000070BD50EA410606BF1046194652EA430619D094EA0C0F02D150EA013613D195EA0C0F05D152EA03361CBF104619460AD181EA03015C
:406E400001F0004141F0FE4141F470014FF0000070BD41F0FE4141F4780170BD70B54FF0FF0C4CF4E06C1CEA11541DBF1CEA135594EA0C0F95EA0C0F00F0A7F8A4EB050409
:406E800081EA030E52EA03354FEA013100F088804FEA03334FF0805545EA131343EA12634FEA022245EA111545EA10654FEA00260EF000419D4208BF964244F1FD0404F564
:406EC000407402D25B084FEA3202B61A65EB03055B084FEA32024FF480104FF4002CB6EB020E75EB030E22BFB61A754640EA0C005B084FEA3202B6EB020E75EB030E22BF69
:406F0000B61A754640EA5C005B084FEA3202B6EB020E75EB030E22BFB61A754640EA9C005B084FEA3202B6EB020E75EB030E22BFB61A754640EADC0055EA060E18D04FEA44
:406F4000051545EA16754FEA06164FEAC30343EA52734FEAC2025FEA1C1CC0D111F4801F0BD141EA00014FF000004FF0004CB6E711F4801F04BF01430020B4F1FD0C88BF15
:406F8000BCF5E06F3FF6AFAEB5EB030C04BFB6EB020C5FEA500C50F1000041EB045170BD0EF0004E4EEA113114EB5C04C2BFD4EB0C0541EA045170BD41F480114FF0000E54
:406FC000013C90E645EA060E8DE60CEA135594EA0C0F08BF95EA0C0F3FF43BAF94EA0C0F0AD150EA01347FF434AF95EA0C0F7FF425AF104619462CE795EA0C0F06D152EA24
:4070000003353FF4FDAE1046194622E750EA410618BF52EA43067FF4C5AE50EA41047FF40DAF52EA43057FF4EBAE12E74FF0FF3C06E000BF4FF0010C02E000BF4FF0010C2A
:407040004DF804CD4FEA410C7FEA6C5C4FEA430C18BF7FEA6C5C1BD001B050EA410C0CBF52EA430C91EA030F02BF90EA020F0020704710F1000F91EA030F58BF994208BF34
:4070800090422CBFD8176FEAE37040F0010070474FEA410C7FEA6C5C02D150EA013C07D14FEA430C7FEA6C5CD6D152EA033CD3D05DF8040B704700BF8446104662468C46C5
:4070C0001946634600E000BF01B5FFF7B7FF002848BF10F1000F01BD4DF808EDFFF7F4FF0CBF012000205DF808FB00BF4DF808EDFFF7EAFF34BF012000205DF808FB00BFE0
:407100004DF808EDFFF7E0FF94BF012000205DF808FB00BF4DF808EDFFF7CEFF94BF012000205DF808FB00BF4DF808EDFFF7C4FF34BF012000205DF808FB00BF4FEA410233
:4071400012F5001215D211D56FF47873B3EB625212D94FEAC12343F0004343EA505311F0004F23FA02F018BF404270474FF00000704750EA013005D111F0004008BF6FF02E
:40718000004070474FF00000704700BF4FEA4102B2F1E04324BFB3F5001CDCF1FE5C0DD901F0004C4FEAC0024CEA5070B2F1004F40EB830008BF20F00100704711F0804F00
:4071C00021D113F13872BCBF01F00040704741F480114FEA5252C2F11802C2F1200C10FA0CF320FA02F018BF40F001004FEAC1234FEAD32303FA0CFC40EA0C0023FA02F387
:407200004FEA4303CCE77FEA625307D150EA01331EBF4FF0FE4040F44000704701F0004040F0FE4040F40000704700BF80F0004002E000BF81F0004142001FBF5FEA41033A
