:4000000000800020110000006D0200006D02000008B5044B1A6803F53F5302331A6000F045F900BFFA46004010B5054C237833B9044B13B10448AFF300800123237010BD5B
:40004000B081FF1F00000000D0190000084B10B51BB108480849AFF300800848036803B910BD074B002BFBD0BDE81040184700BF00000000D0190000B481FF1F0881FF1F1F
:400080000000000070B500F081FA1B4E304600F059F81A4C254625F8040B294600F03EF81748A060294600F03DF8304600F050F8A0600023238045F26650042100F0ACF8F1
:4000C000104800F03FF82080294600F027F80E48A060062100F0B4F80023A3600B4800F037F8A060294600F01DF8094827210A2200F030F8FEE700BF00800040CC81FF1F92
:400100001122334404800040C3F54840068000400C81FF1F08B562B6FFF7B4FF030A0B704870704782B001909DF804300B709DF805304B709DF806308B709DF80730CB70D2
:4001400002B070470278437803EB022080B27047006870472DE9F04780460D46170912F00F021AD0C2F1100A1FFA8AFA02EB07121FFA82F9002426460CE009EB060118F8BB
:40018000040089B200F006FA0134A4B2013DADB20136B6B25645F0D300E00024C5F30F19B9F1000F12D00137BFB200260CE008EB0400F9B200F058FA1034A4B2103DADB287
:4001C0000137BFB20136B6B24E45F0D3ADB13F01BFB2A94600260DE0B91918F8040089B200F0D8F90134A4B209F1FF391FFA89F90136B6B2B542EFD84D462DB103484D218F
:40020000034A044B00F040FCBDE8F087E8190000D4190000FC19000010B582B00C4601A9FFF77CFF9DF80400214600F0B3F9611C9DF8050089B200F0ADF902B010BD00BFB1
:4002400030B583B00D4601A9FFF76CFF002409E002AB2344291913F8040C89B200F09AF90134E4B2032CF3D903B030BDFEE700BF08B5C0B200F078F9FEE700BF08B5094B7D
:400280001A681044084BC31A802B02DC054B186005E000F015FC0C2303604FF0FF32104608BD00BF3481FF1FF081FF1F08B5104E104D16E029686B68AC68002204E051F88E
:4002C000040B43F8040B0432A242F8D1E868002203E0002143F8041B04328242F9D11035013E002EE6D100F003FCFFF713FFFEE701000000381B000008B5124A124B1A60A5
:40030000124A136843F40073136000230AE0032B03D80F4A52F8231000E00E490E4A42F8231001332F2BF2D90C4B1A780C4B1A70094A0C4B1A6000F0A1F800220A4B1A6020
:4003400008BD00BF0004FA050CED00E014ED00E0000000006D0200000080FF1FBC7600400481FF1F08ED00E00081FF1FFEE700BFF0B40022174611E050F82760F3B226F064
:40038000FF0608E001EB420511F812406D78A5550132013BDBB2002BF4D101370B2FEBD9F0BC7047064B1B78DBB203F00701054A11701B09013213704422034B1A70704753
:4003C000CF0100496E5800407658004008B50A46002100F0BEFB08BD38B502221E4B1A7008224FF040231A70032103F5007319701A4B1B78DBB21A490B701A4B1A8041F22D
:400400005122023B1A80002419250CE0164B1B7803F0010343EA440404F003044FF4F07000F092F8013D0DB1032CEFD115B90320FFF79CFF0D4B4FF480721A8007221A7065
:4004400000220B490A704820023108701A700222033B1A7038BD00BF0043004008010049A14600402242004025420040044000400640004008B500F061FB08BD38B572B61B
:40048000264A137843F00403137000240CE0244963001A1952000A4423445B00C8589188FFF794FF0134E4B2072CF0D94FF090401C49FFF75DFF1C4A137843F00203137014
:4004C0001032137843F002031370184C237843F040032370A2F58632513A137843F010031370134813490822FFF7C4FF124A137843F008031370114D61232B70FFF76CFF1E
:4005000081232B7001220E4B1A70FFF74BFF0D4821460E22FFF7AEFF38BD00BFE84600400C1A00003000004803500140A0430040C2510040880000482243004000480040E0
:4005400004000840B04300400230800803D000BF01380046FCD17047EFF3108072B6704780F31088704700BF01BE704708B5034B1B7A03FB00F0FFF7E7FF08BD3881FF1F5F
:4005800008B500F021F900F029F908BD08B5FFF7F7FF08BD30B583B00C468DF8070000F047F9B4F5006F54D22509C5EB053319010C44A4B200F012FA00284CD140202146ED
:4005C0000DF10702012300F05FF9044607282FD1234B1B7813F0020FFAD0214B1B7813F0020F06D01E4B1B789B0805D04FF0FF3403E04FF0FF3400E00024E4B9194B4020A7
:4006000029461A785B7800F0A5F9072816D1144B1B7813F0020FFAD0114B1B7813F0020F0FD00F4B1B789B0810D04FF0FF340DE0012809D10AE04FF0FF3407E04FF0FF3409
:4006400004E04FF0FF3401E04FF0FF3400F0ECF902E0012400E00424204603B030BD00BF22470040E881FF1F38B504460D4600F0DFF815F0800F48D100F0B0F9002846D122
:4006800040202146102200F03BF907282FD1214B1B7813F0020FFAD01E4B1B7813F0020F06D01C4B1B789B0805D04FF0FF3403E04FF0FF3400E00024E4B9174B4020294620
:4006C0001A785B7800F046F9072816D1114B1B7813F0020FFAD00F4B1B7813F0020F0FD00C4B1B789B080DD04FF0FF340AE04FF0FF3407E04FF0FF3404E04FF0FF3401E0DB
:400700004FF0FF3400F090F902E0012400E00424204638BD22470040E881FF1F10B500F087F800F05BF9D0B900F09AF90446072812D102E00120FFF719FF0A4B1B7813F058
:40074000020FF7D0074B1B7813F0020F04D0054B1B789B0800D1002400F066F900E00424204610BD2247004010B500F061F800F035F910BB012000F013F9072818D11048A2
:40078000022100F067F802280AD102E00120FFF7EDFE0C4B1B7813F0020FF7D0002409E0084B1B7813F0020FE9D04FF0FF3401E04FF0FF3400F038F900E00424204610BD38
:4007C000E881FF1F2247004008B5FFF7A7FF034610B9FFF7C9FF0346184608BD08B5FFF7BBFE0F4A137843F0080313701032137843F008031370C8220A4B1A700A4A1378ED
:4008000043F0100313701032137843F010031370064B1B7813F0200FFAD0FFF7A1FE08BDA043004001470040AC4300400047004008B5FFF791FE064A137843F008031370E0
:400840001032137843F008031370FFF789FE08BDA043004070B506460D4600240CE00120FFF784FE064B1B7813F0010FF7D0054B1B7833550134E4B2AC42F3D3204670BDDD
:40088000224700402047004030B43E2801D81F2B03D93F2827D90F2B27D8174C247814F0020F24D0154CB6252570D4252570012525700234247814F0020F1AD10F4C207020
:4008C000C1F300202070C9B22170591EC9B22170002104E0545C094804700131C9B29942F8D3072006E0012004E0012002E0042000E0092030BC7047224700402047004003
:40090000124B1B7813F0020F19D010B4104BB6241C70D5241C7002241C7002331B7813F0020F0ED10A4B1870002304E0CC5C0848047001339BB29342F8D3072002E0042035
:40094000704709205DF8044B704700BF224700402047004030B4104C247814F0020F15D00E4CB6252570D8252570052525700234247814F0020F0BD1084C2070080A2070F3
:40098000C9B2217022702370072002E0042000E0092030BC704700BF22470040204700400C4B1B7813F0020F0FD00B4BB6221A70E1221A700E221A7002331B7813F0020F66
:4009C00005D1054B187007207047042070470920704700BF224700402047004010B5FFF7BBFD0F4B1B78A3B901220D4B1A700D4B1B6813F0010F0ED00A4A136823F001032E
:400A0000136000BF00BF00BF0122054B5A60002402E0042400E00024FFF7A2FD204610BDD881FF1F0400084008B5FFF795FD0A4B00221A705B68012B0AD1084A136843F00C
:400A40000103136000BF00BF00BF0022024B5A60FFF786FD08BD00BFD881FF1F04000840074B1B7813F0020F08D0064BB6221A70E0221A700D221A70072070470420704757
:400A800022470040204700401FB5054608480068C06812B9074C224600E0074C8DE81200029206491A462B4600F010F800F0E0FBA881FF1F771A00003C1A0000491A00009F
:400AC000014B1868704700BFA881FF1F0EB403B5014603AB054853F8042B0068019300F069F802B05DF804EB03B07047A881FF1F0E4B70B51E460E4C0025E41AA410A54249
:400B000004D056F8253098470135F8E701F002F8084B094C1E46E41AA4100025A54204D056F8253098470135F8E770BD201B0000201B0000201B0000281B000010B5431EE3
:400B40000A44914204D011F8014B03F8014FF8E710BD03460244934202D003F8011BFAE77047936810B5013B002B936009DA9469A34202DBCBB20A2B03D1BDE8104000F028
:400B8000B7BA1368581C10601970C8B210BDF8B506460F461446D518AC4208D0304614F8011B3A46FFF7DDFF431CF5D100E00020F8BD00002DE9F0439DB00D46904603931B
:400BC000064618B183690BB900F046FC754B9D4201D1756808E0744B9D4201D1B56803E0724B9D4208BFF568AB891C070AD52B6943B10023099320238DF8293030238DF822
:400C00002A3041E03046294600F0C6FA0028F0D04FF0FF30C2E0039A0134111D12680391002ABBBF524243F0020307920792B8BF049323782E2B7BD0DFF8808121784046B8
:400C4000032200F0DDFC38B1049AC8EB00004023834013430493013421785548062204F101088DF8281000F0CBFC002800F08580504B002B78D1039B073323F007030833D8
:400C80000393099B3B44099343461C4613F8012B1AB9B4EB08090ED002E0252AF5D1F8E73046294642464B46FFF771FF013070D0099B4B4409932378002B6AD000234FF080
:400CC000FF3204930793059206938DF853301A9304F101084446DFF8E89021784846052200F08EFC08F10108049B30B1C9EB00000122824013430493ECE7D80644BF202210
:400D00008DF85320190744BF2B228DF8532022782A2A80D0234607991C4622780133303A092A03D80A2000FB0121F5E7079180E763782A2B0AD1039B02341A1D1B68039214
:400D4000002BB8BF4FF0FF33059375E7611C00220C4623780131303B092B03D80A2000FB0232F5E7059267E703AB0093304604A92A46114BAFF3008007E003AB009330462A
:400D800004A92A460C4B00F093F8421C07467FF478AFAB895B063FF53BAF09981DB0BDE8F08300BFB41A0000D41A0000F41A00008A1A0000000000008F0B0000861A00005F
:400DC000801A00002DE9F84391461F468A680B6906469342B8BF1346C9F8003091F843200C46DDF8208012B10133C9F800302368990642BFD9F800300233C9F8003025680A
:400E000015F006051CD094F843302268003318BF012392061FD5E118302081F843005A1C94F845102244023382F8431013E03046394604F119020123C047013007D001354E
:400E4000E368D9F800209B1A9D42F0DBDBE74FF0FF30BDE8F8833046394604F14302C0470130F4D02268D9F80050E36802F00602042A08BF5D1B2269A3680CBF25EAE57535
:400E800000259342C4BF9B1AED184FF00009A9450ADA3046394604F11A020123C0470130D5D009F10109F2E70020BDE8F88300002DE9FF410C461746227E98466E2A064656
:400EC0000A9B01F1430100F0B08012D8632A23D00AD8002A00F0BD80582A40F0CC8084F84520DFF804E257E0642A1ED0692A1CD0C1E0732A00F0B18009D86F2A2ED0702A15
:400F000040F0B980226842F0200222603FE0752A24D0782A3BD0AEE01A6804F14205111D1960136884F84230A9E020681A6810F0800F02D0101D186008E010F0400F02F16A
:400F40000400186002D0B2F9003000E01368002B3EDA2D225B4284F8432039E020681A6810F0800F02D0101D186007E010F0400F02F10400186001D0138800E01368227EAA
:400F8000DFF864E16F2A0CBF08220A221CE07822DFF858E184F845202268186812F0800F00F104051D6003D1550601D5038800E00368D00744BF42F0200222601BB92268D9
:400FC00022F0200222601022002084F8430002E0DFF814E10A226568002DA8BF2068A560A4BF20F00400206003B965B10D46B3FBF2F002FB10331EF8033005F8013D0346A9
:401000000028F4D100E00D46082A0BD12368DA0708D5236962689A42DEBF302305F8013C05F1FF35491B21612EE025681A6815F0800F606903D0151D1D60136808E015F069
:40104000400F02F104051D60136801D0188000E01860002323610D4616E01A68111D1960156800212846626800F0CAFA08B1401B6060636804E004F1420584F84220012308
:401080002361002384F84330CDF800803046214603AA3B46FFF796FE013002D14FF0FF301FE0304639462A462369C0470130F5D023689B0705D4E068039B9842B8BF1846C6
:4010C0000FE00025E368039A9B1A9D42F3DA3046394604F119020123C0470130DED00135F0E704B0BDE8F081911A0000A21A000070B50D461446064618B183690BB900F0BF
:40110000ABF9224B9C4201D1746808E0204B9C4201D1B46803E01F4B9C4208BFF468A369A360A3891A0709D523693BB123682069EDB2181A636998420FDB08E030462146B9
:4011400000F02AF80028F1D04FF0FF3070BD3046214600F017F90028F6D1A3680130013BA36023685A1C22601D706369984204D0A389DB0707D50A2D05D13046214600F044
:4011800001F90028E0D1284670BD00BFB41A0000D41A0000F41A0000314B70B51D6806460C4625B1AB6913B9284600F055F92D4B9C4201D16C6808E02B4B9C4201D1AC68F4
:4011C00003E02A4B9C4208BFEC68A3899AB211071DD4D50602D40922326038E0500712D5616B41B104F14403994202D0304600F015FA00236363A38923F02403A3810023A7
:40120000636023692360A38943F00803A38123694BB9A38903F42073B3F5007F03D03046214600F0A1F9A38913F0010205D00022A26062695242A26103E0990758BF6269B5
:40124000A26022694AB903F0800080B230B143F04003A3814FF0FF3070BD002070BD00BFA881FF1FB41A0000D41A0000F41A000008B5062000F0A4FA0120FEF7F9FF8A8974
:401280002DE9F041054610070C4657D44B68002B02DC0B6C002B18DDE66AB6B102F48052002392B22F682B600AB1626D10E0216A28460123B047411C024609D12B683BB121
:4012C0001D2B01D0162B46D12F600020BDE8F081A3895B0705D56368D21A636B0BB1236CD21AE66A00232846216AB047461CA38905D12A681AB11D2A01D0162A19D100220C
:4013000062602269D904226004D5421C01D12B6803B96065616B2F600029D6D004F14403994202D0284600F079F900206063BDE8F08143F04003A381BDE8F0810F69002FB1
:40134000C3D093070E680CBF4B690023C7EB06080F608B6012E0A3894FF0FF3043F04003A381BDE8F0812846216A3A464346A66AB0470028EFDD0744C0EB0808B8F1000F17
:40138000F1DCA2E738B50B6905460C46DBB118B183690BB900F060F80C4B9C4201D16C6808E00B4B9C4201D1AC6803E0094B9C4208BFEC68B4F90C302BB128462146BDE840
:4013C0003840FFF75CBF002038BD00BFB41A0000D41A0000F41A0000014900F0A7B800BF8513000010B50446002303604360836081814366C28103614361836119465C30F6
:401400000822FFF7A6FB054B24626362044BA362044BE362044B236310BD00BFF91700001B180000531800007718000070B568234D1E5D430E4605F1740100F033F90446EA
:4014400040B1002180E842000C30A06005F16802FFF77FFB204670BD836910B5044633BB8364C3640365124B124A1B688262984204BF0123836100F01FF86060204600F0D0
:401480001BF8A060204600F017F80421E06000226068FFF7A7FFA06809210122FFF7A2FFE06812210222FFF79DFF0123A36110BD7C1A0000D9130000F8B51B4B07461E684F
:4014C000B36913B93046FFF7C7FF4836B4687368013B04D4B4F90C5075B16834F8E733682BB938460421FFF7A1FF306008B13668ECE70C233B60F8BD4FF6FF73E38101236F
:40150000A38165662560A560656025616561A56104F15C0029460822FFF71BFB6563A563A564E5642046F8BD7C1A00002DE9F8438046894600F14804002694B1A5686768E8
:40154000013F0CD4AB89012B07D9B5F90E30013303D040462946C84706436835F0E72468EBE73046BDE8F883F0B58B8991B09D0706460C4625D4B1F90E10002908DAA3892F
:40158000002513F0800F14BF40274FF480670DE001AA00F097F90028F1DB029D4FF4806705F47045A5F500514D424D413046394600F078F860B9A3899A051DD443F0020323
:4015C000A38104F14703236023610123636113E00A4BB362A389206043F08003A381206167614DB13046B4F90E1000F07DF918B1A38943F00103A38111B0F0BDD91300001E
:4016000010B5C9B202449042034605D01C7801308C42F8D1184610BD002010BD30B500293CD051F8042C0B1F1D49002AB8BF9B180A680C4612B95A600B6030BD93420DD2F4
:4016400019685818904201BF5A5852181A60426823605A6030BD994203D80A4651680029F9D1146815199D420AD11B682344D0188842136012D10868034413604B680CE0AC
:4016800002D90C23036030BD1C681819884201BF08684968001918605960536030BD00BFE481FF1F70B5CC1C24F0030408340C2C38BF0C24002C064603DA0C23336000204A
:4016C00070BD8C42F9D3204A136810461946A1B10A68121B0ED40B2A03D90A608B188C501FE08B420BBF5A684A6802605A6018BF0B4616E00B464968E9E7144D2B681BB9DE
:40170000304600F025F828603046214600F020F8421C0346D1D0C51C25F0030585420AD11C6003F10B001A1D20F00700821A0AD05142995070BD3046E91A00F009F801304E
:40174000BBD02B46ECE770BDE481FF1FE081FF1F38B5064C0023054608462360FEF78EFD431C02D1236803B12B6038BDEC81FF1F1F2938B504460D4604D9162303604FF067
:40178000FF3038BD426C12B152F821304BB9204600F030F82A4601462046BDE8384000F017B8012B0AD0591C03D116230360012038BD002442F8254028469847002038BD58
:4017C000024B01461868FFF7D3BF00BFA881FF1F38B5074C0023054608461146236000F0D7F8431C02D1236803B12B6038BD00BFEC81FF1F00F0BCB810B50C46B1F90E1034
:4018000000F094F80028ABBF636DA3891B1823F48053ACBF6365A38110BD2DE9F0411D468B890746DB050C46164605D5B1F90E100022022300F068F8A389384623F48053F7
:40184000A381B4F90E1032462B46BDE8F04100F017B810B50C46B1F90E1000F055F8431CA38915BF606523F4805343F48053A38118BFA38110BDB1F90E1000F013B8000058
:4018800038B5074C054600202060084611461A4600F096F8431C02D1236803B12B6038BDEC81FF1F38B5064C002305460846236000F04EF8431C02D1236803B12B6038BD59
:4018C000EC81FF1F38B5074C0023054608461146236000F045F8431C02D1236803B12B6038BD00BFEC81FF1F38B5064C002305460846236000F044F8431C02D1236803B104
:401900002B6038BDEC81FF1F38B5074C054600202060084611461A4600F042F8431C02D1236803B12B6038BDEC81FF1F38B5074C054600202060084611461A4600F038F876
:40194000431C02D1236803B12B6038BDEC81FF1F024B58221A604FF0FF307047EC81FF1F024B58221A604FF0FF307047EC81FF1F024B58221A604FF0FF307047EC81FF1F18
:40198000024B58221A600020704700BFEC81FF1F024B58221A604FF0FF307047EC81FF1F024B58221A604FF0FF307047EC81FF1F024B58221A604FF0FF307047EC81FF1FF2
:4019C000024B58221A604FF0FF307047EC81FF1F000000004E7673746F72655F5772697465427974657300002E2E5C736F757263655C6E7673746F72652E63006E756D5F9E
:401A00006279746573203D3D20300000C84900401900005100407000F0510040100000000140001000140140000800400140000A004C014000020050014020002C206675F9
:401A40006E6374696F6E3A2000617373657274696F6E2022257322206661696C65643A2066696C6520222573222C206C696E65202564257325730A00430000004881FF1F31
:401A8000232D302B2000686C4C0065666745464700303132333435363738394142434445460030313233343536373839616263646566000000000000000000000000000033
:401AC00000000000000000000000000000000000000000000000000000000000000000000000000000000000000000000000000000000000000000000000000000000000E6
:401B00000000000000000000000000000000000000000000F8B500BFF8BC08BC9E4670474D000000F9020000F8B500BFF8BC08BC9E46704729000000481B00000881FF1F2C
:401B4000A80000004000000000000000FFEEDDCCBBFFEEDDCCBBAA99887766554433221100FFEEDDCCBBAA99887766554433221100FFEE00F081FF1F0000E02EC05D000095
:401B80001800000000366E0100000000B41A0000D41A0000F41A000000000000000000000000000000000000781A000000000000000000000000000000000000000000000C
:401BC000000000000000000000000000000000000000000000000000000000000000000000000000000000004881FF1F0000000000000000000000000000000000000000FE
:401C000000000000000000000000000000000000000000000000000000000000000000000000000000000000000000000000000000000000000000000000000000000000A4
:401C40000000000000000000000000000000000000000000000000000000000000000000000000000000000000000000000000000000000000000000000000000000000064
:401C80000000000000000000000000000000000000000000000000000000000000000000000000000000000000000000000000000000000000000000000000000000000024
:401CC00000000000000000000000000000000000000000000000000000000000000000000000000000000000000000000000000000000000000000000000000000000000E4
:020000040003F7
:0200000480007A
:4000000001520040031501400117014001190140031B014002420140014301400348014010490140074C0140054D0140015101406001E008E401EA05E201E201E008E40127
:40004000EA053E10CE20961080089610E2801220164070087710822086409B10A008AA10AB10C430DC80DE20E010E480EAA0132817047B107F408304C40EDE038310874008
:400080009780A710AB2803C00000030003000000000000000000000000000000000000000000000000000000000000000000000000000000000000000000000000000000D6
:4000C0000000000000000000000000000000000000000000000000000000000000000000000000000000000000000000000000000000000000000000000000000000000000
:4001000000000000000000000000000000000000000000000000000000000000000000000000000000000000000000000000000000000000000000000000000000000000BF
:40014000000000000000000000000000000000000000000000000000000000000000000000000000000000000000000000000000000000000000000000000000000000007F
:40018000000000000000000000000000000000000000000000000000000000000000000000000000000000000000000000000000000000000000000000000000000000003F
:0200000490006A
:0400000000004005B7
:0200000490105A
:04000000BC90ACAF55
:0200000490303A
:0200000032B715
:0200000490402A
:4000000000000000000000000000000000000000000000000000000000000000000000000000000000000000000000000000000000000000000000000000000000000000C0
:400040000000000000000000000000000000000000000000000000000000000000000000000000000000000000000000000000000000000000000000000000000000000080
:400080000000000000000000000000000000000000000000000000000000000000000000000000000000000000000000000000000000000000000000000000000000000040
:4000C0000000000000000000000000000000000000000000000000000000000000000000000000000000000000000000000000000000000000000000000000000000000000
:0200000490501A
:0C00000000012E16006900012E203320A4
:00000001FF